:1000000000040010B5EE010089AD010091AD0100C2
:0C00100099AD0100A1AD0100A9AD0100F7
:10001C004EA9F5EF000000000000000000000000F9
:10002C00B1AD0100B9AD010000000000F5C0010048
:10003C0039980100C1AD0100C9AD0100D1AD01007D
:10004C00D9AD0100E1AD0100E9AD0100F1AD010058
:10005C00F9AD010001AE010009AE010011AE0100C5
:10006C0019AE010021AE010029AE010031AE010034
:10007C0039AE010041AE010049AE010051AE0100A4
:10008C0059AE010061AE0100E5A9000069AE0100A6
:10009C0071AE010079AE010081AE0100572E010056
:1000AC0089AE010077B0000091AE010099AE01005D
:1000BC00A1AE0100A9AE0100B1AE0100B9AE0100C4
:0402FC0021436587AE
:1003000031323334350000000000000000000000EE
:1003100000000022C7A50003005D00A8C000FFFF89
:10032000FF7900A8C00100A8C07900A8C00F5A64D6
:10033000802500000100000001000300010000789A
:10034000000000173B180014003C003200640096C7
:1003500000C800FA002C015E019001C201F40126E0
:100360000258028A02BC02EE02200352038403B642
:1003700003E8031A044C047E04B004F401000101F4
:1003800001000001640064003200C80000173B0D4A
:1003900005000D0605000020202020202020202020
:1003A0002020202020202020202020202020EFF0AE
:1003B000EEE8E7E2EEE4F1F2E2EE2C20202020006D
:1003C00000002020202020EEE1F1EBF3E6E8E2E05F
:1003D000EDE8E52C20F0E5ECEEEDF220EFEBE0F2BD
:1003E000EDFBF520202020202020000000202020F0
:1003F000E0E2F2EEECE0F2E8F7E5F1EAE8F520EF12
:10040000E0F0EAEEE2EEEA2C20F1E8F1F2E5EC2091
:10041000202020202000000020E4EEF1F2F3EFE0A5
:100420002C20E2E8E4E5EEEDE0E1EBFEE4E5EDE8CA
:10043000FF2C20F1E8E3EDE0EBE8E7E0F6E8E92067
:10044000000000000D07000D08000D09000D0F0051
:10045000000000000000000000000000000000009C
:10046000000000000000000000000000000000008C
:10047000000000000000000000000000000000007C
:10048000000000000000000000000000000000006C
:10068000000000000000000000000000000000A5C5
:040690005A0000000C
:10200000DFF86C05DFF86C15097801707047BFF3D5
:102010004F8FDFF86405006810F4E060DFF85C15AE
:102020000843DFF854150860BFF34F8FFEE7DFF871
:1020300050150968DFF848251268521A8242F9D310
:10204000704780B5DFF83C05DFF83C15B1F90010AA
:1020500089B20160DFF82C0500680004DFF8241560
:102060000860DFF8200500684FF6FF710843DFF8CD
:1020700014150860DFF80C0502680221DFF80C0572
:1020800017F032F901BD80B5DFF804150978002991
:1020900016D1DFF8FC1401220A70DFF8F81408608A
:1020A000DFF8F414DFF8EC04006811F09FFCDFF8AF
:1020B000EC1408700422DFF8DC14282011F00CFE68
:1020C00001BD80B5DFF8D814097800290FD1DFF8F9
:1020D000D01401220A700B220100DFF8C8041EF0A0
:1020E0002CFC0B22DFF8BC14032011F0F5FD01BD20
:1020F000DFF8B41409684018DFF8AC1408607047C2
:10210000DFF8A80401210170704780B511F0CDF906
:1021100000220021022011F0DFFDDFF894040121EC
:10212000017001BDDFF88C0401210170704780B59A
:10213000DFF8840401210170012007F0C2F90120B9
:1021400012F051FEDFF8740490F883000CF0DBFA13
:10215000012015F05EFC01BDDFF85C040121017077
:10216000DFF85C04012101707047DFF84C040121A5
:102170000170DFF85004012101707047DFF8380466
:1021800001210170DFF84004012101707047DFF880
:10219000280401210170DFF8340401210170704727
:1021A000DFF82C0401210170704710B50400DFF83E
:1021B00024041AF0C0F8DFF818040021017021008F
:1021C000DFF810041DF072FDDFF808041AF075F84E
:1021D00010BDDFF8FC0300787047DFF8FC03012135
:1021E0000170704710B50400DFF8F0031AF0A3F88F
:1021F000DFF8E403002101702100DFF8E0031DF0A7
:1022000055FDDFF8D8031AF058F810BDDFF8C80301
:1022100000787047DFF8C80301210170704710B5DE
:102220000400DFF8C0031AF086F8DFF8B4030021D9
:1022300001702100DFF8AC031DF038FDDFF8A403C6
:102240001AF03BF810BDDFF898030078704780B5AE
:10225000DFF890031AF06FF8DFF8840300210170B3
:1022600001BD80B5DFF87C031AF065F8DFF8700374
:102270000121017001BDDFF8700301210170704779
:1022800010B50400DFF864031AF055F8DFF85803BE
:10229000002101702100DFF854031DF007FDDFF875
:1022A0004C031AF00AF810BDDFF83C0300787047C1
:1022B00080B5DFF838031AF03EF8DFF82C03002170
:1022C000017001BD80B5DFF824031AF034F8DFF89F
:1022D00018030121017001BDC54909780843C549AA
:1022E00008707047C44908707047C44801210170E4
:1022F000704710B50400C2481AF01DF8BF4800210D
:1023000001702100BE481DF0D1FCBD4819F0D5FF79
:1023100010BDBA4800787047BA4801210170704773
:1023200010B50400B8481AF006F8B648002101704C
:102330002100B5481DF0BAFCB34819F0BEFF10BD2E
:10234000B04800787047B14801210170704710B55E
:102350000400AF4819F0EFFFAC48002101702100E4
:10236000AB481DF0A3FCAA4819F0A7FF10BDA74871
:102370000078704780B5A64819F0DDFFA34800211A
:10238000017001BD80B5A34800210170A248012160
:1023900001708A4890F83A0040F6B8314FF49672CE
:1023A00001FB0020FFF7D3FF9C480021017001BD15
:1023B00080B59948002101709648012101707F483D
:1023C00090F83A0040F6B8314FF4967201FB0020C5
:1023D000FFF7BDFF91480021017001BD80B5904914
:1023E00008708D4800788E490978084220D0002076
:1023F00008F0D0F9714890F8380000280AD16F48E9
:1024000090F83700002801D1012000E00020C0B280
:1024100008F0ECF98048002101704FF49670FFF746
:102420007FFF40F6B830FFF792FF7E480021017031
:1024300001BD80B57C490870764800787A490978F2
:10244000084220D0002008F0BBF95C4890F8380022
:1024500000280AD1594890F83700002801D10120FE
:1024600000E00020C0B208F0C1F96A480021017004
:102470004FF49670FFF754FF40F6B830FFF767FF50
:1024800068480021017001BD80B590F00100394914
:1024900008703848007836490978884202D05F4889
:1024A0000121017033480078002829D03148007894
:1024B0002F490978884223D0564800785A4909782C
:1024C00091F0010108421BD000220021574811F071
:1024D00031FE002008F074F9384890F837000028E1
:1024E00001D1012000E00020C0B208F07FF94FF4D4
:1024F0009670FFF715FFFFF75BFF4A480021017058
:102500001B481C490978017001BD494909780843F5
:102510004849087070474849097808434749087096
:102520007047474801210170704710B504004548C5
:1025300019F001FF424800210170210041481DF0BF
:10254000B5FB404819F0B9FE10BD3D480078704712
:1025500080B53C4819F0EFFE39480021017001BDFB
:1025600080B5384819F0E7FE35480121017001BDFA
:1025700090650010776500100CED00E00400FA058E
:10258000084000409C640010F264001000400240CB
:1025900062650010A064001064650010636500109F
:1025A00065650010F0620010A464001067650010FB
:1025B0006865001070650010B30A0010D83D001067
:1025C000696500106A6500106B6500106D6500108C
:1025D000B60A0010C0610010B70A0010D4610010E4
:1025E000B80A0010E8610010B90A0010FC61001080
:1025F0008C6500107365001074650010BA0A001035
:1026000010620010BB0A001024620010BC0A001007
:10261000386200107B6500107A6500107865001044
:10262000756500108F6500107665001014DE0100DE
:102630008A650010716500108B65001072650010CE
:10264000BD0A00104C6200102DE9F0439BB0002041
:1026500004900027002608F015FE07F0A1F90120DC
:1026600007F077F90400022007F073F90500DFF89E
:102670007C1D20001BF08CFFDFF8D01A28001BF017
:1026800087FF0321022007F071F9DFF8C40A09F07F
:10269000E0F9DFF8C00A10F0A9FD11F04BF811F0D5
:1026A000AFFA11F09CF9DFF8B00A0AF053F8DFF83E
:1026B000AC0A09F0B6FEDFF8A81ADFF8A80A09F09C
:1026C00025FD08F025FCDFF8A00A09F0B7FA06F0AE
:1026D000DDFE002006F099FF002006F099FFDFF8EC
:1026E0008C0A12F021FB0BF0BDFFDFF8840A15F015
:1026F00075F8DFF8800A08F0F7F907F02FFFDFF828
:10270000781A002007F09FFFDFF8701A012007F009
:102710009AFFDFF86C1A022007F095FFDFF8642AB1
:1027200040F6B831022007F096FFDFF85C1A03206C
:1027300007F089FFDFF8541A042007F084FFDFF860
:10274000502A40F6B831042007F085FFDFF8441A1C
:10275000062007F078FFDFF8401A002007F08EFF10
:10276000DFF8381A012007F089FFDFF8341A022059
:1027700007F084FFDFF82C1A032007F07FFFDFF853
:10278000281A042007F07AFFDFF8201A052007F046
:1027900075FFDFF81C1A062007F070FFDFF8141A27
:1027A000DFF8140A07F006FD0022DFF8101ADFF840
:1027B000100A19F077FD0022DFF8081ADFF8080A7E
:1027C00019F070FD0022DFF8041ADFF8040A19F08E
:1027D00069FD0022DFF8FC19DFF8FC0919F062FD41
:1027E0000022DFF80C1CDFF80C0C19F05BFD002256
:1027F000DFF8041CDFF8040C19F054FD0022DFF8A8
:10280000001CDFF8000C19F04DFD0022DFF8F81B6A
:10281000DFF8F80B19F046FD0022DFF8F40B017C1D
:10282000DFF8F00B11F086FCDFF8EC0B00780028E5
:1028300005D000220021DFF8E40B11F07BFCDFF86B
:10284000E00B0078002805D000220021DFF8300ED0
:1028500011F070FC0021DFF8CC0B16F057FDDFF80B
:10286000C81B884211D0DFF8C41B20001BF090FE6B
:10287000DFF8BC1B28001BF08BFE0321022007F0B1
:1028800075F8DFF8B00B002101703622DFF8A81BC5
:10289000522011F021FA0422DFF8A01B342011F09D
:1028A0001BFA0222DFF8981B382011F015FA0222D9
:1028B000DFF8901B452011F00FFA0322DFF8881B88
:1028C000472011F009FAFFF773FD002007F0B8FF69
:1028D000002007F0A1FF00220021AA2011F0FCF93E
:1028E0004FF4FA6015F090FF41F28830FFF71DFEBB
:1028F0001021DFF8580B1AF0A9FB1BF03FFD19F06F
:1029000018F813F057F8002801D0012000E000204B
:10291000DFF83C1B0870DFF8380B007800280CD17A
:10292000DFF8300B007800280BD1012011F09DF862
:10293000DFF8200B0121017003E0DFF8180B002104
:102940000170C82011F016F900280CD1C82010F031
:1029500089FE002807D1C82010F0FAFF002802D114
:10296000642015F051FFDFF8A80A407C002820D031
:10297000FFF72FFC00281CD006F0D0FE05900422A3
:1029800005A9FE2009F0D2FE042205A9FF2011F0BE
:10299000A3F919F0FFFF052148433C2190FBF1F218
:1029A00001FB120000F22C104FF47A714843FFF73C
:1029B000FCFB08F02DF9DFF8CC0C0078002807D0DC
:1029C000DFF8C00C00210170FFF73BFBFFF705FCAF
:1029D000FFF71CFC002813D04FF4FA50FFF702FC5D
:1029E000DFF85C0AB0F900004FF47A71884202DB2C
:1029F00040F2E73002E0002800D5002007F0CEF9D1
:102A000014F00DFFDFF8180E0078002811D002280E
:102A100049D030D3042800F0828060D3062800F02B
:102A2000BB80C0F0D180082800F00881C0F0E780AA
:102A30003FE1FFF708FC002800F03B81DFF8480C7D
:102A40000078002808D04FF4FA70FFF7E8FBDFF8B1
:102A5000D00D012101702CE1DFF8300C0078002846
:102A600000F027814FF4FA70FFF7D9FBDFF8B00DC3
:102A7000062101701DE1FFF7E6FB002800F0198137
:102A8000DFF8040C0078002808D0DFF8040CFFF70A
:102A9000C6FBDFF88C0D022101700AE1DFF8800D22
:102AA0000021017005E1DFF8E00B0078002808D173
:102AB00042F21070FFF7B3FBDFF8640D03210170E1
:102AC000F7E0FFF7C0FB002800F0F380FFF7BFFB43
:102AD00000220021DFF8BC0B11F02CFBE9E0DFF84D
:102AE000AC0B0078002808D042F21070FFF797FB7B
:102AF000DFF82C0D04210170DBE0FFF7A4FB0028B8
:102B000000F0D78000220021DFF88C0B11F012FBBF
:102B1000FFF7A7FBDFF8080D00210170C9E0DFF81F
:102B20006C0B0078002825D1DFF814090088401CC0
:102B3000DFF80C190880DFF84C0B0121017001222D
:102B4000DFF8581B122011F0C7F80122DFF84C1BE8
:102B5000122009F0EBFD0222DFF8E418382011F012
:102B6000BBF84FF4FA70FFF75AFBDFF8B40C002102
:102B700001709EE0FFF767FB002800F09A80FFF7E6
:102B800070FBDFF89C0C0021017000220021DFF8AF
:102B9000000D11F0CFFA8CE0FFF755FB002800F094
:102BA0008880DFF8E80A0078002808D044F6206022
:102BB000FFF735FBDFF8680C0521017079E0DFF8DD
:102BC000600C0021017074E0DFF8C00A0078002872
:102BD00008D142F21070FFF722FBDFF8440C072106
:102BE000017066E0FFF72FFB002862D0FFF72FFB94
:102BF00000220021DFF89C0C11F09CFA59E0DFF86C
:102C0000880A007800280ED000220021DFF8600E2C
:102C100011F090FA42F21070FFF701FBDFF8000CA0
:102C20000821017045E0FFF70EFB002841D0FFF7B7
:102C300018FBDFF8EC0B002101703AE0DFF8480ADE
:102C40000078002825D1DFF8F8070088401EDFF85B
:102C5000F0170880DFF82C0A012101700122DFF84B
:102C60003C1A112011F038F80122DFF8301A112037
:102C700009F05CFD0222DFF8C817382011F02CF8AB
:102C800041F28830FFF7CBFADFF8940B0021017096
:102C90000FE0FFF7D8FA00280BD0FFF7E2FADFF8D1
:102CA000800B0021017000220021DFF8EC0B11F0F5
:102CB00041FAFFF72EFB002837D0DFF8E00B007851
:102CC000002819D1DFF8D80B00210170DFF8D40BF0
:102CD0000078002829D1DFF8CC0B0121017006F023
:102CE0001DFD0990042209A9212010F0F5FF40F6EE
:102CF000B830FFF7FEFA18E0DFF8A80B00210170EA
:102D0000DFF89C0B007800280FD1DFF8940B01212D
:102D1000017006F003FD0890042208A9222010F09B
:102D2000DBFF40F6B830FFF7E4FADFF87C0B007801
:102D3000002808D0022800F02D81C0F082800328EE
:102D400000F0D68159E2FFF7FBFA002800F0558227
:102D5000DFF8BC0690F83700002801D0012000E021
:102D60000020C0B207F042FDDFF8400B00780028D9
:102D70000DD0DFF89C0690F83A004FF47A71484382
:102D8000FFF7CEFADFF8200B0121017035E2DFF802
:102D9000E40C0078DFF8E01C097891F001010842AA
:102DA00011D0DFF80C0B00210170DFF8640690F8F9
:102DB0003A004FF47A714843FFF7B2FADFF8E80AB5
:102DC0000221017019E2DFF8AC0C0078DFF8A81CD2
:102DD0000978084216D0FFF7CAFA002812D0FFF788
:102DE000E7FADFF8CC0A0078002840F00682DFF826
:102DF000C00A0121017000220021DFF8800C11F0CF
:102E000099F9FAE1DFF8A40A0078DFF8681C09787C
:102E10000843DFF86C1C09780843DFF8801A09784A
:102E200091F001010843C0B2002840F0E681FFF7AD
:102E30009EFA002800F0E181DFF86C0A032101709E
:102E4000DBE1DFF8300C0078DFF82C1C097891F01A
:102E50000101084221D0002007F09CFCDFF8B005FA
:102E600090F8380000280BD1DFF8A40590F837005F
:102E7000002801D1012000E00020C0B207F0B6FC1C
:102E8000DFF8280A002101704FF49670FFF748FA26
:102E9000DFF8140A00210170AFE1DFF8100A0078B2
:102EA000DFF8DC1B097891F0010108424CD00120C9
:102EB00007F070FCFFF744FA00280BD0002007F061
:102EC00069FC4FF49670FFF72BFADFF8DC0900215C
:102ED000017092E1FFF74BFA002800F08E81FFF7B6
:102EE00049FADFF8B8090078002805D0002200214F
:102EF000DFF8EC0D11F01EF900220021DFF8840B41
:102F000011F018F9002007F045FCDFF8040590F8EF
:102F1000380000280BD1DFF8F80490F837000028BB
:102F200001D1012000E00020C0B207F05FFCDFF813
:102F30007C09002101704FF49670FFF7F1F9DFF87A
:102F400068090021017058E1002007F023FCDFF838
:102F5000C00490F8380000280BD1DFF8B40490F8D2
:102F60003700002801D1012000E00020C0B207F0A6
:102F70003DFCDFF83809002101704FF49670FFF72F
:102F8000CFF940F6B830FFF7E2F9DFF81C0900216D
:102F9000017032E1DFF8DC0A0078DFF8DC1A09782A
:102FA00091F001010840DFF8F418097891F001016F
:102FB000C0B208424ED0012007F002FCFFF7C0F972
:102FC00000280BD0002007F0FBFB4FF49670FFF7B2
:102FD000A7F9DFF8D408002101700EE1FFF7C7F967
:102FE000002800F00A81DFF8980A0078002805D050
:102FF00000220021DFF8140E11F09CF800220021BD
:10300000DFF87C0C11F096F8002007F0D9FBDFF810
:10301000000490F8380000280BD1DFF8F40390F892
:103020003700002801D1012000E00020C0B207F0E5
:10303000DDFBDFF8400A002101704FF49670FFF7C6
:103040006FF940F6B830FFF782F9DFF85C0800212D
:103050000170D2E0DFF8200A0078DFF84018097824
:1030600091F0010108421FD000220021DFF8A00DDD
:1030700011F060F8002007F0A3FBDFF8940390F84C
:103080003700002801D1012000E00020C0B207F085
:10309000ADFB4FF49670FFF743F9FFF789F9DFF8BE
:1030A000080800210170A8E0002007F089FBD8483B
:1030B00090F8380000280AD1D54890F83700002849
:1030C00001D1012000E00020C0B207F08FFBDFF843
:1030D000A409002101704FF49670FFF721F940F622
:1030E000B830FFF734F9DFF8C0070021017084E041
:1030F000DFF8B8070078DFF87C1909780843C0B218
:10310000002804D0DFF8A0070021017075E0DFF887
:103110008C070078002861D106F000FB079004229C
:1031200007A93E2010F0D8FDB94890F83C000028CF
:1031300007D000220021DFF8DC0C10F0FBFFFFF7C6
:1031400037F9DFF864070021017056E07CFF0100C9
:10315000EB2F0100D1B90000255C0000455D0000A7
:103160002561000075630000AD670000F1200000DC
:10317000C320000087200000012100000B21000077
:103180002F2100008F210000592100007D21000027
:103190006B210000252100000B25000017250000F1
:1031A000D9220000E5220000DD23000033240000C6
:1031B00089240000497701007F770100A1210000E8
:1031C000C0610010DB210000D46100101522000056
:1031D000E8610010EB22000010620010DFF8380CEC
:1031E0000078002809D0DFF8300C00210170FFF7CB
:1031F00069F8DFF8280C00210170DFF8200C007856
:1032000000280BD0022859D02BD3042800F0BC8012
:10321000C0F08980052800F0D68029E1FFF744F846
:10322000002800F02581DFF8F80B0078002808D08E
:10323000DFF8EC0B0021017000220021172010F0B4
:103240004BFD002007F050FADFF8D80B0021017089
:10325000DFF8D40B00210170DFF8C00B01210170F1
:1032600006E1DFF8C40B0078002806D0FFF72AF843
:10327000DFF8A80B00210170FAE0DFF8B00B00784E
:10328000002808D0DFF8A80BFEF7FAFFDFF88C0B58
:1032900005210170ECE0DFF89C0B0078002800F0BD
:1032A000E780FFF701F8002800F0E280012007F036
:1032B0001BFADFF8680B02210170D9E0DFF86C0B14
:1032C000007800281AD1DFF85C0B01210170DFF8CB
:1032D000680B0078002808D1DFF8440B0121017049
:1032E00000220021162010F0F7FCDFF8440BFEF757
:1032F000C7FFDFF8280B03210170B9E0002007F0B9
:10330000F3F919F047FB052190FBF1F201FB1200E4
:10331000401C4FF496714843FEF7B2FFDFF8FC0AF9
:1033200001210170A4E0D948007800280CD0DFF812
:10333000F40A002101704EF66020FEF7A1FFDFF8CD
:10334000DC0A0421017093E0DFF8E80A0078DFF876
:10335000D81A097891F00101084204D0FEF7A4FFC1
:10336000002800F08580FEF79FFF002805D000228E
:103370000021DFF8C80A10F0DDFEFEF7A3FFDFF83A
:103380009C0A0021017073E0DFF8AC0A0078DFF8D6
:10339000981A09780843C0B2002803D1FEF784FFC9
:1033A000002865D0FEF780FF002805D0002200210C
:1033B000DFF8980D10F0BEFEFEF784FFDFF85C0A20
:1033C0000021017054E0DFF8640A0078DFF8581A31
:1033D000097891F0010108423ED16420FEF750FFC8
:1033E000DFF8380A0121017042E000BF50020200FC
:1033F00019230000246200104723000038620010E7
:1034000077220000FC610010232500004C620010B0
:10341000D83D001094FF01005E65001044E20100F9
:103420005F65001000400240DDEEAA556402020014
:1034300038E80100BE0A00101F3E0010193E0010BF
:10344000F26400101D3E0010643E0010C8620010BF
:1034500061650010C00A0010FEF726FF002807D0A3
:10346000FEF726FF00220021DFF8D40910F062FEEB
:10347000DFF8D009007800285DD0022800F0AC8584
:10348000C1F0C280042800F0FD85C0F0C285062886
:1034900000F0F086C0F01786082800F06B87C0F0B7
:1034A00048870A2800F09D87C0F081870C2801F02A
:1034B0001580C0F0D3870E2851D0C1F0728010283B
:1034C00000F00481C0F0A380122801F0CB80C1F08D
:1034D000B280142801F0CA82C1F03181162802F0AE
:1034E000EB80C1F0B683182801F01184C1F0F28599
:1034F0001A2801F03B86C1F0EB841C2802F088807A
:10350000C1F0C6861E2802F00981C1F0BE872028BE
:1035100002F0BB81C2F09481222802F04D82C2F0F9
:10352000F981242802F0DB82C2F0B482252802F05F
:10353000388302F06CBB0021DFF80C0915F0E6FEC1
:10354000DFF80819884242F062834FF47A70FEF780
:10355000ECFFDFF8F0080E21017002F058BBFEF717
:10356000F4FF002802F05383FEF722FF002007F04B
:1035700067F9002007F050F9DFF8D40B0021017043
:10358000DFF8D00B00210170DFF8CC0B00210160C7
:10359000DFF8C80B00210170DFF8C40B00210170B7
:1035A000DFF8C40B00210170DFF8C00B00210170AF
:1035B000DFF8BC0B00210170DFF8B80B00210170AF
:1035C000DFF8B40B00210170DFF8B00B00210170AF
:1035D000DFF8AC0B00210170DFF8A80B00210170AF
:1035E0000020049000270026002006F01AF8012091
:1035F00006F011F8002006F011F8DFF88C0B00211E
:103600000170DFF840080F21017002F000BBFEF7E7
:103610009CFF002802F0FB82DFF8700B0078002886
:1036200006D002281ED003280FD0042838D043E04B
:10363000012007F0F1F8DFF8581B28001AF0A8FF66
:103640000321022006F092F936E0002007F0E4F8AA
:10365000DFF8401B28001AF09BFF0321022006F030
:1036600085F929E0002007F0D7F8DFF82C1B2800A7
:103670001AF08EFF0021022006F078F91CE000BF4E
:1036800070F10100B40A001071650010726500103D
:1036900020BF02001CE001004CED0100163E0010AE
:1036A000012007F0B9F8DFF8F41A28001AF070FFCB
:1036B0000321022006F05AF9DFF8E40A2021017004
:1036C000DFF880071021017002F0A1BA0021DFF8B5
:1036D000780715F01BFEDFF87417884219D0002216
:1036E0000021DFF8C00A10F025FDDFF8BC1A200029
:1036F0001AF04EFFDFF8B41A28001AF049FF002133
:10370000022006F033F94FF4FA6015F07DF8FEF769
:103710007EFCDFF89C0A0078002819D000220021E6
:10372000DFF8900A10F006FDDFF88C1A20001AF07E
:103730002FFFDFF8781A28001AF02AFF0021022054
:1037400006F014F94FF4FA6015F05EF8FEF75FFC2E
:10375000FEF7FBFE002800F0B780DFF8440A00788F
:10376000202840F0A780DFF8380A3A2101704FF492
:103770002F70FEF7DAFE05F0D1FF069006A81DF0C7
:1037800069F98046D8F8140000F26C700390D8F8FC
:103790001000401C0290D8F80C000190D8F80400EA
:1037A0000090DFF8FC090378D8F80820DFF80C1A3D
:1037B00020001AF0EDFEDFF8080A90F84100D8F872
:1037C000081088420FDBD8F80800DFF8F41991F8E8
:1037D0004110884226D1D8F80400DFF8E41991F8A6
:1037E000421088421EDBD8F80800DFF8D41991F89F
:1037F000431088420FDBD8F80800DFF8C41991F8AD
:10380000431088420ED1DFF8B80990F84400D8F888
:103810000410884206DBDFF8AC090121017005E0E5
:103820008D650010DFF89C0900210170DFF8900918
:1038300090F88C00002825D0D8F80800DFF880190F
:1038400091F88D10884207DBD8F80400DFF8701972
:1038500091F88E10884207DADFF8640990F88D003D
:10386000D8F8081088420DDADFF85C0900780028E3
:103870002AD1DFF8540901210170DFF80C09012178
:10388000017021E0DFF84009002101701CE000BF59
:10389000DCDC010050DE01000CD601007665001072
:1038A000C20A0010C10A00108F6500107A6500106E
:1038B00091650010DFF8E808202101702020A07039
:1038C0004FF49670FEF731FEDFF8D40800783A28FE
:1038D00042F09D81DFF890080078002812D0DFF8D0
:1038E000EC1828001AF054FE0021022006F03EF8E1
:1038F0004FF4FA60FEF719FEDFF848050E2101705B
:1039000002F085B905F034FE002812D0DFF8C018A7
:1039100028001AF03DFE0121022006F027F84FF49E
:10392000FA60FEF702FEDFF81C051121017002F0BB
:103930006EB9DFF8A0080078002809D0DFF89408F5
:1039400000210170DFF8FC040821017002F05FB96A
:10395000DFF884080078002809D0DFF87C0800210F
:103960000170DFF8E0040221017002F050B9DFF8C5
:103970006C080078002809D0DFF860080021017089
:10398000DFF8C0040421017002F041B9DFF85008EB
:103990000078002819D0DFF84808002101700120C4
:1039A00005F08FFDDFF83C1828001AF0F1FD00212A
:1039B000022005F0DBFF4FF47A70FEF7B6FDDFF86A
:1039C00084040B21017002F022B9DFF8BC070078F3
:1039D000002805D0DFF86C040921017002F017B946
:1039E000DFF8440E0078002815D1012006F014FFFE
:1039F000DFF8381E28001AF0CBFD0121022005F067
:103A0000B5FF4FF4FA60FEF790FDDFF838040121AE
:103A1000017002F0FCB8DFF8A80790F83600002823
:103A200014D0DFF8A0070078DFF8041E09780840FA
:103A3000DFF80014097891F00101C0B2084205D006
:103A4000DFF8F0030121017002F0E1B8DFF8E00DCA
:103A50000078DFF8E013097891F001010843C0B263
:103A6000002811D1DFF8CC030021017002F0CFB89B
:103A700074ED01007B6500107765001078E20100AD
:103A80007565001090E80100DFF8E0060078002876
:103A900018D0DFF82C0790F83600002804D0DFF8A3
:103AA0008403007800280DD0DFF818070078DFF8CD
:103AB000801D0978084205D0DFF8880312210170C3
:103AC00002F0A5B8DFF82007007800281AD0DFF848
:103AD000F00690F83600002803D0D248007800287D
:103AE00010D0DFF8E0060078DFF8441D09780842BE
:103AF00008D0DFF8F40600210170D24815210170CA
:103B000002F085B8DFF8B80690F83600002803D038
:103B1000C4480078002829D0DFF8A8060078DFF82C
:103B2000101D0978084221D0DFF8940690F835007E
:103B300000281BD000220021242010F0CDF8DFF84F
:103B4000AC1620001AF024FDDFF8A41628001AF0A5
:103B50001FFD0021022005F009FF40F6B830FEF7F6
:103B6000E4FCB8481F21017002F051B8DFF8E0050D
:103B70000078DFF850160978084204D0B1481321C4
:103B8000017002F044B8DFF8D4050078DFF834168D
:103B900009780840DFF8981C0978084230D0DFF82F
:103BA000200690F83600002803D09E4800780028B0
:103BB00026D0DFF80C0690F83D00002809D1DFF888
:103BC000A0050078022804D0DFF8940500780128C9
:103BD00016D1DFF8181620001AF0DAFCDFF81416F8
:103BE00028001AF0D5FC0021022005F0BFFE40F6A7
:103BF000B830FEF79AFC93481F21017002F007B815
:103C0000DFF8C0050078DFF8781C0978084204D096
:103C10008C481E21017001F0FABFDFF85C050078C6
:103C200000282FD0DFF8980590F83600002803D040
:103C30007C480078002825D0DFF888050078DFF878
:103C4000F01B097808421DD000220021142010F03A
:103C500043F8DFF8981520001AF09AFCDFF8D41B1F
:103C600028001AF095FC0021022005F07FFE40F6A6
:103C7000B830FEF75AFC73481F21017001F0C7BF2E
:103C8000E8E80100DFF8E4040078DFF85C15097863
:103C90000843DFF8E41409780843DFF8E41B0978E7
:103CA0000843DFF8AC1409780843DFF8A814097852
:103CB0000843C0B2002800F0FF80012006F0ACFDF0
:103CC000DFF8B4040078DFF8B81B09780843C0B205
:103CD000002807D0002200212B200FF0FDFFC7E0B5
:103CE00064E80100DFF8DC040078002810D100222D
:103CF0000021DFF8900B10F01DFADFF88C1B20007C
:103D00001AF046FCDFF8841B28001AF041FCAFE0F3
:103D1000DFF840040078DFF84414097891F00101DD
:103D2000084210D000220021DFF8640B10F002FAE4
:103D3000DFF8601B20001AF02BFCDFF85C1B28006A
:103D40001AF026FC94E0DFF814040078002826D04E
:103D5000DFF80C040078032821D100220021DFF8CD
:103D60003C0B10F0E7F9DFF8C80A007800280BD008
:103D700000220021DFF8280B10F0DCF90422DFF824
:103D8000D8133B200FF0A8FFDFF8181B20001AF013
:103D9000FFFBDFF8141B28001AF0FAFB68E0DFF8DD
:103DA000900A0078002815D100220021DFF8FC0AD3
:103DB00010F0C0F9DFF8A4030078002804D0DFF881
:103DC000F01A20001AF0E4FBDFF8E81A28001AF0D5
:103DD000DFFB4DE0DFF8E80390F83600002837D02D
:103DE00010480078002833D100220021DFF8C80AEB
:103DF00010F0A0F9DFF8C41A20001AF0C9FBDFF8B0
:103E0000C01A28001AF0C4FB32E000BFBCE8010071
:103E100014DE010054E00100816500108E65001081
:103E20006065001080650010B50A00107465001010
:103E3000C0D401007F6500107365001014E9010013
:103E400004FC0100BE0A001000400240DDEEAA554D
:103E500000220021DFF86C0A10F06CF9DFF8681A14
:103E600020001AF095FBDFF8641A28001AF090FB86
:103E70000021022005F07AFD40F6B830FEF755FB30
:103E8000BA4800210170D84800210170DFF8F0091C
:103E900000210170B84800210170AD480021017077
:103EA000AC4800210170AD4800210170DFF8200A04
:103EB0000E21017001F0ABBEDFF8180A007800286F
:103EC0001AD0DFF8100A00210170DFF88C2EA5A1AE
:103ED00028001AF05DFBDFF8840E0178022005F05F
:103EE00045FDDFF8E80D0088FEF71FFBDFF8E0096D
:103EF0000F21017001F08BBEB248007800280CD170
:103F0000A2480078002808D0A04800210170DFF8FE
:103F1000C0090F21017001F07ABEAA48007800287C
:103F200016D0A74890F83600002811D0DFF8700EA0
:103F3000007800280CD095480078042808D09348D1
:103F400004210170DFF888090F21017001F05FBEC4
:103F50009C48007800281BD0994890F8360000282B
:103F600004D0DFF83C0E0078002811D1DFF8C0083B
:103F7000007800280CD185480078022808D08348B2
:103F800002210170DFF848090F21017001F03FBEE6
:103F90008C480078002801F03A86894890F836006D
:103FA000002805D0DFF8F80D0078002841F02F86B2
:103FB000DFF87C080078002801F029867348007833
:103FC000032801F02486714803210170DFF80009FD
:103FD0000F21017001F01BBE0022002119200FF0FB
:103FE0007BFE012005F06DFA05F0DDFADFF8E81838
:103FF00028001AF0CDFA0121022005F0B7FC4EF698
:104000006020FEF792FADFF8C8080321017001F082
:10401000FEBD05F0CCFA002812D0DFF88C1D280078
:104020001AF0B6FA0021022005F0A0FC4FF4FA6065
:10403000FEF77BFADFF898080E21017001F0E7BD6A
:10404000FEF783FA002801F0E285DFF8DC070021A3
:10405000017000220021DFF8840810F0B7F8DFF8C3
:10406000CC1728001AF094FA0121022005F07EFCFA
:104070004FF4FA60FEF759FADFF854080121017095
:1040800001F0C5BD002200211B200FF025FE0AF023
:1040900033FB10F0D5FE012005F013FA05F08DFA80
:1040A000DFF83C1828001AF073FA0121022005F00D
:1040B0005DFC42F21070FEF738FADFF814080521B3
:1040C000017001F0A4BDDFF860070078002817D167
:1040D000002200211D200FF0FFFDDFF850172800FF
:1040E0001AF056FA0121022005F040FC4FF4FA6064
:1040F000FEF71BFADFF8D8070121017001F087BD38
:1041000005F05FFA002800F08E8005F07BFA80460B
:104110005FF000092A48B0F884002949B1F88610F8
:1041200001FB00992648B0F888002549B1F88A10AB
:1041300001FB0099C1455FDADFF8141E28001AF070
:1041400027FAB8EB090005F045FA5EE040E9010006
:104150006565001062650010A064001063650010C2
:104160006465001025730000686500106765001025
:104170006E6500106F65001070650010836500109B
:10418000846500108565001086650010BF0A001068
:1041900094F101007CF701000C0702009CF701007C
:1041A000C30A0010BCF70100780202008C02020072
:1041B0005F650010A0020200B4020200ACFF010023
:1041C000D83D0010796500106C6500101C070200D6
:1041D0002C0702006A6500106B650010696500100D
:1041E0006D650010C802020082650010DC0202004A
:1041F0004C0702005C070200DFF8B01B28001AF031
:10420000C7F9B9EB080005F0F1F90321022005F028
:10421000ADFB42F21070FEF788F9DFF8B406062114
:10422000017001F0F4BCFEF790F9002801F0EF8472
:10423000002200211D200FF04FFDDFF8EC050021CA
:10424000017000220021DFF8680B0FF0BFFFDFF8DC
:10425000DC1528001AF09CF90121022005F086FBEC
:104260004FF4FA60FEF761F9DFF86406012101708E
:1042700001F0CDBCDFF8B0050078002817D100228E
:1042800000211D200FF028FDDFF8A01528001AF0EE
:104290007FF90121022005F069FB4FF4FA60FEF777
:1042A00044F9DFF82C060121017001F0B0BC05F0E3
:1042B00097F9002816D005F09FF9002812D0DFF8F2
:1042C000F41A28001AF064F90121022005F04EFBCF
:1042D0004FF4FA60FEF729F9DFF8F40507210170C1
:1042E00001F095BCFEF731F9002801F0908400221E
:1042F00000211D200FF0F0FCDFF82C0500210170DB
:1043000000220021DFF88C0D0FF060FFDFF81C1594
:1043100028001AF03DF90121022005F027FB4FF497
:10432000FA60FEF702F9DFF8A8050121017001F03B
:104330006EBCFEF70AF9002801F069840AF0B7F9AB
:1043400010F066FD002200211C200FF0C5FCDFF8F4
:10435000041C28001AF01CF90121022005F006FBBC
:104360004FF4FA60FEF7E1F8DFF864050E21017002
:1043700001F04DBC002200211A200FF0ADFC0120FD
:1043800005F09FF805F0FCF8DFF8CC1B28001AF0C8
:10439000FFF80121022005F0E9FA4EF66020FEF751
:1043A000C4F8DFF82C050A21017001F030BC0022AE
:1043B00000211A200FF090FC05F0E8F8DFF89C1BB4
:1043C00028001AF0E5F80321022005F0CFFA4EF696
:1043D0006020FEF7AAF8DFF8F8040A21017001F066
:1043E00016BC05F0DAF8002812D0DFF8741B28009C
:1043F0001AF0CEF80021022005F0B8FA4FF4FA7056
:10440000FEF793F8DFF8C8040E21017001F0FFBB3E
:10441000FEF79BF8002801F0FA83DFF80C04002176
:10442000017005F0BAF8002805D100220021DFF85C
:10443000340B0FF0CBFEDFF8F41328001AF0A8F8C5
:104440000121022005F092FA4FF4FA60FEF76DF8B0
:10445000DFF87C040121017001F0D9BBFEF775F88B
:10446000002801F0D483DFF8300C0078002822D037
:10447000DFF8280C0078DFF8281C31F81020DFF86E
:10448000241C28001AF084F80321022005F06EFA9B
:10449000DFF8080C0078DFF8081C31F8100005F090
:1044A000C3F841F65830FEF740F8DFF824040C2139
:1044B000017001F0ACBBDFF8F01B28001AF068F8BF
:1044C0000321022005F052FA41F65830FEF72DF88C
:1044D000DFF8FC030E21017001F099BB05F0ADF887
:1044E000002816D005F0AFF8002812D1DFF8BC1B69
:1044F00028001AF04DF80121022005F037FA4FF498
:104500007A70FEF712F8DFF8C8030D21017001F090
:104510007EBBFEF71AF8002804D105F094F80028B5
:1045200001F07583DFF8740B0078DFF8741B31F845
:104530001020DFF87C1B28001AF02AF80022002146
:1045400028000FF0F7FDDFF8681E28001AF020F8A9
:104550000021022005F00AFA4FF47A70FDF7E5FF1A
:10456000DFF8380B0078401CDFF8301B0870DFF8EC
:104570002C0B00781E2803D3DFF8200B00210170DC
:10458000DFF8140B0078002806D0DFF80C0B007859
:10459000401EDFF8041B0870CD480B21017001F0AC
:1045A00036BB04F0E5FF002841F03183DFF8041B3F
:1045B000280019F0EDFF0021022005F0D7F94FF493
:1045C0007A70FDF7B2FFDFF8D40A0078401CDFF8FC
:1045D000CC1A0870DFF8C40A00781E2803D3DFF86D
:1045E000BC0A00210170DFF8B00A0078002806D06C
:1045F000DFF8A40A0078401EDFF89C1A0870B4485F
:104600000B21017001F003BB87480078002801F0FE
:10461000FE82DFF8A41A280019F0BAFF0021022058
:1046200005F0A4F94FF47A70FDF77FFFA8480E213A
:10463000017001F0ECBA04F09BFF002841F0E78222
:10464000DFF8701A280019F0A3FF0021022005F0FE
:104650008DF94FF47A70FDF768FF9D480E210170C7
:1046600001F0D5BADFF8540AB0F87B000490049A40
:10467000DFF84C1A200019F08BFF04980C9005F01D
:104680004DF80D9008220CA923200FF025FBDFF830
:10469000240D01210170DFF8240A007CDFF8241AC0
:1046A0000870DFF8200A0021A0F8011005F036F8A4
:1046B000DFF8101AC1F80700DFF8081AC1F8030084
:1046C000DFF8F41C0860DFF8F00C00210171DFF85E
:1046D000E80C0021A0F80510DFF8DC0C0499A0F824
:1046E0000710DFF8E419DFF8E40919F051FFDFF8EB
:1046F000C80C0021C0F81510012004F08FFFDFF86E
:10470000BC1C280019F044FF0321022005F02EF9FB
:10471000DFF8AC0C00210170DFF8A80C002101705B
:10472000DFF8A40C00210170FDF71AFFDFF8900CF0
:104730000121017066481821017001F068BADFF8A4
:1047400084090178DFF87C09D0F803000EF056FFE9
:1047500000281CD000220021DFF874090FF0EAFCC9
:10476000DFF8681C200019F013FFDFF8641C280034
:1047700019F00EFF0021022005F0F8F84FF47A60DE
:10478000FDF7D3FE52480E21017001F040BADFF868
:10479000340900780F2840F0A580DFF82809D0F808
:1047A0000300DFF81819B1F845104FF4616202FBFD
:1047B000010804F0B3FF40453ED2DFF8000990F84D
:1047C000360000280CD0DFF80C0C0078002807D148
:1047D0003A49200019F0DCFE3D480E21017014E03A
:1047E00013480078002808D1DFF8EC1B200019F0EE
:1047F000CFFE37480E21017007E0DFF8E01B2000F4
:1048000019F0C6FE32481F21017040F6B830FDF79E
:104810008CFEDFF8CC1B280019F0BAFE0121022023
:1048200005F0A4F801F0F3B9B30A00103C07020048
:1048300071650010F002020000220021DFF8A40BD5
:104840000FF078FC0B22DFF87C183F200FF044FAC1
:10485000DFF8941B200019F09BFEDFF8901B280066
:1048600019F096FE0021022005F080F84FF47A60DE
:10487000FDF75BFE16480E21017001F0C8B900BFBC
:104880007C6500106CE901006C0702007C070200E7
:10489000E0E301000403020018030200DCF701005A
:1048A000ACE201002C0302004003020020FC0100E6
:1048B000540302006803020010E401007C030200BC
:1048C00090030200FCF70100A4030200B8030200F9
:1048D000BE0A00107D650010CC0302009CED0100B3
:1048E0008C070200DFF8DC070178DFF8D807D0F882
:1048F00003000EF028FF80460020019001A80090E0
:1049000004ABDFF8B42ADFF8BC174046C0B20FF0A2
:104910009AFEDFF8DC1A0870DFF8A00790F836007E
:10492000002804D0DFF8AC0A0078002850D0DFF867
:104930006C0D007800284BD00498002848D1002244
:10494000002127200FF0C8F95FFA88F8B8F1000FAE
:1049500025D0DFF870070178DFF86807D0F803008A
:104960000EF010FF1790DFF85C0700788DF86000FC
:10497000DFF85007B0F80100ADF86100DFF8440738
:10498000D0F80300CDF86300DFF83807D0F807004F
:10499000CDF867000F2217A937200FF09DF9DFF837
:1049A0003C1A200019F0F4FD019ADFF8481A28009B
:1049B00019F0EEFD0021022004F0D8FF40F6B830D7
:1049C000FDF7B3FDDFF8240E1F21017001F01FB9C0
:1049D0000498002818D1DFF8201A200019F0D8FD1B
:1049E000019ADFF8181A280019F0D2FD00210220E0
:1049F00004F0BCFF41F28830FDF797FDDFF8EC0DC5
:104A00000E21017001F003B9DFF8900C0078002846
:104A100019D0DFF8B006D0F80300DFF8E419096810
:104A2000884210D0DFF89C06D0F80300DFF8D019D8
:104A3000086004980A9004F071FE0B9008220AA9FD
:104A400018200FF049F9DFF8BC19280019F0A0FD73
:104A50000021022004F08AFF4FF4FA60FDF765FDA3
:104A6000DFF8880D1421017001F0D1B8DFF8300CA7
:104A70000078002805D0DFF8740D1E21017001F0C8
:104A8000C6B8DFF8200C0078002805D0DFF85C0DF0
:104A90000E21017001F0BBB8DFF83C0E0078002851
:104AA00017D0DFF8340E00210170AB4ABDA12800F9
:104AB00019F06EFDA9480178022004F057FF8348E1
:104AC0000088FDF732FDDFF8240D0E21017001F0A2
:104AD0009EB8FDF73AFD002801F09980DFF8100933
:104AE0000078002823D100220021DFF8BC0B0FF052
:104AF00021FB0B22DFF8CC153F200FF0EDF8DFF89B
:104B0000AC1B200019F044FDDFF8A41B280019F0AD
:104B10003FFD0021022004F029FF40F6B830FDF7E8
:104B200004FDDFF8C80C0E21017001F070B8049A82
:104B3000DFF8801B200019F02BFDDFF8800590F8CE
:104B40003600002804D0DFF88C080078002825D033
:104B5000DFF8480B0078002820D0DFF86018280024
:104B600019F016FD0321022004F000FFDFF85008C1
:104B700000210170DFF84C0800210170DFF84808BF
:104B800000210170FDF7ECFCDFF834080121017011
:104B9000DFF8580C1821017001F039B8DFF8FC0A71
:104BA0000078002818D100220021DFF8300D0FF026
:104BB000C1FADFF82C1D280019F0EAFC00210220C0
:104BC00004F0D4FE40F6B830FDF7AFFCDFF81C0C63
:104BD0000E21017001F01BB8DFF8E00490F83600F8
:104BE00000281DD0DFF8EC070078002818D100223B
:104BF0000021DFF8780E0FF09DFADFF8F41B280093
:104C000019F0C6FC0321022004F0B0FE41F27070DE
:104C1000FDF78BFCDFF8D40B0E21017000F0F7BF1D
:104C200000220021DFF8BC0C0FF084FADFF8C41B6F
:104C3000280019F0ADFC0321022004F097FE41F298
:104C40007070FDF772FCDFF8A40B0E21017000F00C
:104C5000DEBF5822DFF8901C35200FF03DF8DFF85A
:104C60008C0C01210170DFF8800C4068DFF8781CA3
:104C7000098948430490049BDFF87C2BDFF87C1BF8
:104C8000200019F085FC0498001EDFF8641C88429F
:104C900018D300220021DFF85C0C0FF097FADFF840
:104CA000581C280019F074FC0121022004F05EFE5B
:104CB0004FF4FA60FDF739FCDFF8300B0121017089
:104CC00000F0A5BFDFF8F41602E000BFF4640010A6
:104CD000280019F05DFC0321022004F047FEDFF8F4
:104CE000E00600210170DFF8DC0600210170DFF82A
:104CF000D80600210170FDF733FCDFF8C40601215E
:104D00000170DFF8E80A1821017000F080BFDFF8B9
:104D100090090078002805D0DFF8D00A1E21017024
:104D200000F075BFDFF898060078002863D0FDF723
:104D30000CFC00285FD004F0C7FB002803D010F063
:104D400055F800281DD100220021DFF8B40B0FF028
:104D5000F1F9DFF8B01B03E0785A00107E6500100F
:104D6000280019F015FC0321022004F0FFFD42F693
:104D7000E060FDF7DAFBDFF8740A0E21017000F045
:104D800046BF09F0C5FC002816D0DFF87C1B2800C0
:104D900019F0FEFB0121022004F0E8FD15E000BF40
:104DA0007465001025730000E00302003CFC010064
:104DB000C4ED0100F4030200DFF8501B280019F0D5
:104DC000E7FB0321022004F0D1FDDFF8440B0021B2
:104DD0000160012010F00DF843F69820FDF7A5FBC7
:104DE000DFF8E405002101700027DFF8000A19212F
:104DF000017000F00CBFDFF8CC05007800284AD025
:104E0000FDF7A3FB002846D004F05EFB002803D08A
:104E10000FF0B9FF002818D100220021DFF8F40DAF
:104E20000FF088F9DFF8481C280019F0B1FB0321C6
:104E3000022004F09BFD42F6E060FDF776FBDFF810
:104E4000AC090E21017000F0E2BE012004F0E9FB84
:104E5000DFF8C41D280019F09BFB0121022004F09B
:104E600085FDDFF8AC0A0021016004980FF08EFF89
:104E70004EF66020FDF759FBDFF848050021017070
:104E8000DFF84405002101700027DFF860091921CF
:104E9000017000F0BCBEDFF83005007800280FD1AB
:104EA000DFF81C050078DFF81C1509780843C0B24C
:104EB000002840F0AC86FDF748FB002800F0A786EC
:104EC000FDF74EFBDFF824090E21017000F09FBEB4
:104ED000DFF83C0A0068002846D0DFF8340A006892
:104EE000C719DFF82C0A002101603A00DFF8981B8F
:104EF000280019F04DFB0121022004F037FD42F299
:104F00001070FDF712FBDFF8E4090078DFF87C1B76
:104F1000097891F00101084200F07986DFF8C809AC
:104F200000681490DFF8C0094068DFF8BC190989EF
:104F30004843159004F0F2FB16900C2214A951205E
:104F40000EF0CAFEDFF8440B0121017000F05FBED5
:104F5000C4FF0100080402001C0402001CF8010048
:104F60009C070200ECED01000FF003FF00286FD159
:104F7000002F45D1DFF84C04007800280BD0DFF873
:104F8000400400210170FDF7EBFADFF860081821FA
:104F9000017000F03CBEDFF8600D0078DFF81414FB
:104FA000097891F00101084217D0DFF83014200091
:104FB00019F0EEFADFF8D81A280019F0E9FA002102
:104FC000022004F0D3FC40F6B830FDF7AEFADFF86B
:104FD0001C081F21017000F01ABEDFF8B41A280067
:104FE00019F0D6FA0021022004F0C0FC40F6B830D7
:104FF000FDF79BFADFF8F4070E21017000F007BE01
:10500000DFF8E808007800281AD0DFF8F00C00215B
:105010000170DFF8D40800681190129704F07EFB4D
:1050200013900C2211A940200EF056FE42F210708F
:10503000FDF77BFADFF8B4071721017000F0E7BD38
:10504000FDF78EFADFF8A4071A21017000F0DFBD2A
:10505000DD480078DB4909780843C0B2002811D147
:10506000049887420EDA002F40F0D185FDF76DFAE3
:10507000DFF82816097891F001010843C0B2002832
:1050800000F0C58500200FF0B4FE0FF096FE00F092
:10509000BEBD00BF98E9010089650010876500105A
:1050A000485C0010DCFF01003CF80100AC07020086
:1050B000E0E201003004020044040200D83D001088
:1050C000CC070200F06200100C0A0200A15F001081
:1050D00040E40100DFF8240C0078002829D004986F
:1050E000874207DA0497DFF800084760DFF8F8071F
:1050F0000121018109F00CFB002802D1002004F0FD
:105100008AFA3900DFF8E00704F006FADFF8101B2E
:10511000280019F03DFA0121022004F027FC47F293
:105120003050FDF702FADFF8C4061B21017000F0D1
:105130006EBDFDF70AFA002804D104F0C5F9002875
:1051400040F065853E003200DFF8B41B200019F006
:105150001FFA300009F095FADFF8A80BFDF7E5F922
:10516000DFF888061D21017000F051BD9248C0F89B
:10517000157004F0D3FA9049C1F8190004988742D9
:1051800025DB04F0A1F9002821D009F0C1FA00289C
:1051900002D1002004F03FFA874804F09BF91D2259
:1051A00085490E200EF098FDDFF8741A280019F0DA
:1051B000EFF90121022004F0D9FB47F23050FDF74E
:1051C000B4F9DFF828061B21017000F020BD09F0BA
:1051D0009FFA002818D01D2277490F200EF07CFD81
:1051E0003E003200DFF8181B200019F0D1F9300022
:1051F00009F047FADFF80C0BFDF797F9DFF8EC053B
:105200001D21017000F003BDDFF8FC1A200019F029
:10521000BFF91D22684910200EF05EFD04F054F91C
:10522000002818D0002004F0F6F9634804F052F981
:10523000DFF8EC19280019F0ABF90121022004F085
:1052400095FB47F23050FDF770F9DFF8A0051B2100
:10525000017000F0DCBCDFF8B40A0021017000220C
:105260000021DFF8AC0A0EF0B1FFDFF88C16280041
:1052700019F08EF90121022004F078FB4FF4FA6056
:10528000FDF753F9DFF864050121017000F0BFBCA0
:1052900004F05DF9002800F0D38004F063F90028E1
:1052A00065D00498B84222DA09F032FA00281ED0FC
:1052B00004983E1A33003A00DFF8581A200019F01B
:1052C00067F9DFF8541A280019F062F90121022069
:1052D00004F04CFB300009F0D4F9DFF8280AFDF7A0
:1052E00024F9DFF808051D21017000F090BC049836
:1052F000874224D1DFF8241A280019F049F9012146
:10530000022004F033FBDFF8E405007800280CD01D
:10531000DFF8C40500210170DFF8CC0500680390B8
:10532000042203A943200EF0D7FC43F69820FDF792
:10533000FCF8DFF8B8041C21017000F068BCDFF84D
:10534000DC19200019F024F9DFF8D419280019F02D
:105350001FF90321022004F009FB42F22830FDF777
:10536000E4F8DFF888040E21017000F050BC3E0024
:105370003200DFF88C19200019F00AF909F0C8F999
:10538000002841D0DFF89C19280019F001F901210B
:10539000022004F0EBFA300009F073F9DFF8640939
:1053A000FDF7C3F8DFF844041D21017000F02FBCA5
:1053B000BC07020065650010985F0010F4FF010053
:1053C0006E6500106F65001067650010DC07020055
:1053D0005804020080650010EC070200DC020200A5
:1053E0006C040200C4E9010080040200940402007D
:1053F00066650010A8040200BC040200D00402008C
:10540000A8640010E4040200DFF800090021017024
:1054100000220021DFF810090EF0D8FEDFF8D814C2
:10542000280019F0B5F80121022004F09FFA4FF48A
:10543000FA60FDF77AF8DFF8B40301210170E6E3C2
:10544000FDF783F8002800F0E283DFF8C0080021B0
:10545000017000220021DFF8D4080EF0B7FEDFF85B
:10546000D018200019F094F8DFF88C14280019F0F7
:105470008FF80121022004F079FA4FF4FA60FDF769
:1054800054F8DA4801210170C1E309F004F9002859
:1054900000F09F80DFF85404007800280ED0DFF879
:1054A000480400680E9009F0FFF80F9004F036F9F8
:1054B00010900C220EA941200EF00EFC09F0F4F819
:1054C000B04235D1BE4210D1DFF86818280019F07B
:1054D0005FF80121022004F049FA40F6B830FDF7E8
:1054E00024F8C2480E21017091E3DFF84C1828001F
:1054F00019F04EF80321022004F038FADFF8EC032B
:10550000007800280CD0DFF8D00300210170DFF80C
:10551000D80300680290042202A943200EF0DCFBAD
:1055200043F69820FDF701F8B0481C2101706EE3A6
:10553000B04227DAB6EB0008DFF8D007002101708F
:1055400000220021DFF8F4070EF040FE4246DFF8AB
:10555000F017200019F01CF80022002120000EF0A6
:10556000E9FDDFF89413280019F012F80121022058
:1055700004F0FCF94FF4FA60FCF7D7FF9B480121D7
:10558000017044E3B0EB0608DFF8800700210170EA
:1055900000220021DFF84C0B0EF018FE4246DFF827
:1055A000481B200018F0F4FF0022002120000EF01C
:1055B000C1FDD149280018F0EBFF0121022004F0C1
:1055C000D5F94FF4FA60FCF7B0FF8848012101706B
:1055D0001DE3FCF7BAFF002800F01983DFF82C0761
:1055E0000021017000220021DFF8000B0EF0EEFD1B
:1055F000C149280018F0CCFF0121022004F0B6F9BF
:105600004FF4FA60FCF791FF784801210170FEE247
:1056100003F0AEFF00282AD1B4480078002810D04B
:10562000DFF8CC1A280018F0B3FF0321022004F0A1
:105630009DF942F21070FCF778FF6C48162101705A
:10564000E5E2DFF8B01A200018F0A2FFDFF8A81A90
:10565000280018F09DFF0121022004F087F940F690
:10566000B830FCF762FF61481F210170CFE2FCF700
:105670006CFF002800F0CB82FCF76AFFDFF87C1A91
:10568000280018F085FF0121022004F06FF90022A4
:105690000021DFF86C0A0EF04DFDB8E271650010D4
:1056A0007C6500108265001058FC0100FC070200B8
:1056B000F80402000C08020087480078002817D080
:1056C000854800210170DFF83C2A8CA1280018F0E1
:1056D0005FFFDFF8340A0178022004F047F9DFF8B1
:1056E0002C0A0088FCF721FF40480E2101708EE251
:1056F000FCF72BFF002800F08A82DFF8141A28003C
:1057000018F046FF0321022004F030F94FF4FA505C
:10571000FCF70BFF35480E21017078E2DFF8E00B53
:1057200090F83600002804D0DFF8E8090078002857
:1057300029D0DFF8E4090078002824D0DFF8DC095C
:105740000078002803D0DFF8BC0B002101600422A0
:10575000DFF8B01B2A200EF0BFFADFF898192000FE
:1057600018F016FFDFF8B819280018F011FF002113
:10577000022004F0FBF840F6B830FCF7D6FE1B48D8
:105780001F21017043E2012005F046F800220021AC
:105790002B200EF0A1FADFF880090078002809D14B
:1057A000002200214D480EF0C5FC4D49280018F09C
:1057B000EFFE34E0DFF8480B90F8360000281FD0E9
:1057C000DFF85009007800281AD100220021A748EC
:1057D0000EF0B0FCDFF8301B200018F0D9FEDFF827
:1057E0002C1B280018F0D4FE19E000BFBE0A0010E0
:1057F00074FC01005CF80100DA590010180A02007C
:105800000022002137480EF095FCDFF8041B200031
:1058100018F0BEFEDFF8FC1A280018F0B9FE0021CF
:10582000022004F0A3F840F6B830FCF77EFEDFF863
:10583000E80A00210170DFF8E40A0E210170E6E1B8
:10584000DFF8DC0A01210170DFF8C80800780028C1
:1058500004D0DFF8C80A21210170D8E1FCF775FEF9
:10586000002800F0D481DFF8BC1A280018F090FE60
:105870000321022004F07AF8DFF8AC0AFCF755FEA9
:10588000DFF8980A20210170C1E1DFF8880800786C
:10589000002811D0DFF8941A280018F079FE0121B1
:1058A000022004F063F840F6B830FCF73EFEDFF863
:1058B0006C0A21210170AAE1FCF747FE002800F0E4
:1058C000A68100220021DFF8680A0EF033FC47F2BF
:1058D0003050FCF72AFE9AE17D65001020FC0100A3
:1058E00068030200FCF70100CC590010836500102A
:1058F000A0860100F0E901003C07020025730000CA
:105900001CDD010070E401001C0802008CE00100B5
:10591000A4640010DFF81C0A0078002804D1FCF70A
:1059200014FE002800F07381DFF8080A00780028D0
:1059300005D100220021DFF8000A0EF0FBFB002059
:1059400004F06AFF012004F07BFFFCF71BFD03F06D
:10595000E5FE0090042200A91E200EF0BDF9DFF83C
:10596000BC07007800281ED0DFF8D009D0F803006B
:10597000DFF8C819D1F80710884214D0DFF8BC0945
:105980000178DFF8B809D0F803000DF00DFE0B2206
:10599000DFF8A819012006F0C9FE0B22DFF89C19D8
:1059A00044200EF099F940F6B830FCF7BEFDDFF860
:1059B0006C09222101702AE1DFF8840900780028AF
:1059C00014D0DFF87C0900210170DFF8382793A19B
:1059D000280018F0DDFDDFF830070178022003F021
:1059E000C5FFDFF828070088FCF79FFDDFF82807D0
:1059F0000078002819D1DFF84C0900210170DFF888
:105A0000480900210170DFF84419280018F0C0FD92
:105A10000121022003F0AAFF47F23050FCF785FD78
:105A2000DFF8F80823210170F1E0FCF78EFD002873
:105A300000F0ED80DFF81819280018F0A9FD012109
:105A4000022003F093FFDFF8FC080078002811D053
:105A5000DFF8F00800210170FCF77AFD0022002138
:105A6000DFF8F0080EF066FBD1E000BF10E40100A3
:105A7000A0E40100DFF8CC080121017047F23050AA
:105A8000FCF753FDC3E000BF3C0802008465001032
:105A90000C050200DFF8C0080078002804D1FCF7EC
:105AA00054FD002800F0B380FCF74FFD002805D01E
:105AB00000220021DFF8A4080EF03CFB002004F0D7
:105AC000BFFEDFF89C18200018F062FD42F2107053
:105AD000FCF72BFDDFF844082421017097E0DFF884
:105AE00078080078002815D0FCF72FFD002811D188
:105AF000DFF870080078002800F08980DFF80008DF
:105B000090F83900002840F08280DFF85C080078C7
:105B100000287CD1FCF719FD002805D000220021C7
:105B2000DFF848080EF006FBDFF8F40700210170EB
:105B3000002004F085FE012004F06EFEFCF738FC26
:105B40006D480078002816D00422DFF8B81722200C
:105B500006F0ECFD0422DFF8AC173D200EF0BCF897
:105B6000DFF80C080078002805D00321DFF894073F
:105B700000680DF056FFDFF8240CB0F90020DFF8C4
:105B8000201C280018F004FD0021022003F0EEFE86
:105B90004FF47A60FCF7C9FCDFF88007252101701B
:105BA00035E0DFF890070078002803D1FCF7CDFC42
:105BB00000282CD0FCF7C9FC002805D000220021C9
:105BC000DFF8E00B0EF0B6FADFF8DC1B280018F067
:105BD000DFFCDFF82C0790F83B00002809D0DFF845
:105BE000200790F83B004FF47A714843FCF79DFC86
:105BF00001E0FCF7B5FCDFF8200700210170DFF8B9
:105C0000400700210170DFF814070E210170FCF736
:105C100076BE000044D801002C0802002573000065
:105C20002005020010B50C00C0B2012844D00228A3
:105C30004DD0032851D0112808D0122819D013288C
:105C40002AD021284ED0222851D054E02078DFF8E5
:105C5000B01691F83E1088424DD1DFF8400B008815
:105C6000401EDFF8381B0880DFF8480C0121017066
:105C700041E02078DFF8881691F83E1088423AD14A
:105C8000DFF8180B0088401CDFF8101B0880DFF8D5
:105C9000240C012101702EE0A078DFF8641691F841
:105CA0003E10884227D1DFF8F40A21880180DFF80E
:105CB000040C012101701EE02178D4F803000DF0DE
:105CC00073FC2178D4F803000DF0B8FD13E02268CE
:105CD000217A60680DF07AFD0DE0012120680DF059
:105CE000DDFE08E0022120680DF09BFE03E00321A9
:105CF00020680DF096FE10BD6365001085650010EC
:105D00004C0802007011010034050200B30A0010B3
:105D10000C0002005C0802006C0802007C08020013
:105D20007CF80100480502005CDD0100B8F10100CB
:105D30005C0502007005020024000200DCF1010095
:105D40008C08020010B582B00C001100C0B2020035
:105D5000022A00F09C80042A51D0052A00F0C3805A
:105D60000A2A00F0E0800B2A00F00381122A00F0DA
:105D70009980132A00F01181142A00F01381152A4A
:105D800000F08880162A3FD0192A77D01A2A7AD0B4
:105D90001B2A00F086801C2A00F083801D2A60D018
:105DA0001E2A00F006811F2A00F00C81202A00F034
:105DB0001281212A00F01981222A00F06B81282A01
:105DC00000F07581292A00F076812C2A00F0768176
:105DD0002D2A00F07481322A00F07281332A00F0FB
:105DE0007381372A00F07381382A00F071813C2AD0
:105DF00070D03D2A5CD0462A00F0CA8069E1DFF805
:105E00001805012101706BE1DFF8100500780E28FC
:105E100013D0DFF8080500780F280ED0DFF8FC0457
:105E20000078102809D0DFF8F4040078132804D093
:105E3000DFF8E804007814280CD158222100DFF89C
:105E4000780A1AF07AFDFCF78BFBDFF8FC040121DD
:105E5000017045E100220021DFF8600A0EF06AF9C6
:105E60003EE1DFF85C0A21780170DFF8540A00781F
:105E7000002840F03581FCF773FB31E101212068F7
:105E80000DF00CFE2CE120680DF02AFE28E1FCF755
:105E90004EF925E104222100DFF8700B1AF04DFDC8
:105EA0001EE11DE1DFF858042188A0F8451017E134
:105EB0002078DFF84C1491F83E10884240F01081B1
:105EC000B4F80100DFF8D4180880DFF8E8090121F0
:105ED000017005E1DFF8C40821880180DFF8D409EA
:105EE00001210170FCE0E01C18F05CF9502880F002
:105EF000F7806078854908808448008800028349DB
:105F00000880824800882178084380490880A0786A
:105F10007D490870E11C7B4817F01CFDDFF8200468
:105F200001210170DCE0DFF80C040078002819D0B2
:105F3000DFF8DC0A01210170012004F0D5FB4EF6E8
:105F40006020FCF79DF9DFF8CC0A00210170FCF716
:105F500019FA03F0E3FB0090042200A91F200DF0C2
:105F6000BBFEBDE000220021DFF8AC0A0EF0E2F833
:105F7000B6E0DFF89C0A0121017042F21070FCF7D4
:105F80007FF9DFF8900A00210170FCF711FAA7E011
:105F9000DFF8880A01210170A2E0D9482188A0F821
:105FA0003F109DE036222100DFF8740A1AF0C5FC8C
:105FB00096E003F089FA002800F09280206803F050
:105FC00015FB8DE003F080FA002800F0898020683E
:105FD00003F000FB84E0012003F073FA03F0EDFA14
:105FE00008F08AFB0EF02CFF7AE02088002846D0CB
:105FF000DFF8300A0078DFF8301A097804E0401C36
:106000001E2800DB0020491E002906D0DFF81C2ACC
:1060100032F8102023889A42F1D1002960D1DFF8AC
:10602000080A00781E285BD2DFF8040A0078DFF83F
:10603000FC19228821F810200222DFF8F4090078E8
:10604000DFF8E81911EB400148200DF045FEDFF8BC
:10605000E0090078401CDFF8D8190870DFF8D00993
:1060600000781E2803D3DFF8C80900210170DFF88B
:10607000B8090078401CDFF8B019087030E0002043
:10608000DFF8A4190870DFF8A8190870DFF8941970
:10609000087025E003222100DFF898091AF04DFC72
:1060A0000322DFF8901947200DF016FE18E02000BB
:1060B0000EF0A2FE14E00EF0C3FE11E010E00FE0BF
:1060C000200008F00DFB0BE008F016FB08E007E0ED
:1060D00006E00022C0B20100DFF85C090EF02AF8E9
:1060E00013BD000014EE01009C0802009CF80100A2
:1060F00090FC0100DC020200AC0802002C07020048
:106100001CEA0100785A00107E650010F46400104B
:10611000BCF8010080650010716500106565001015
:106120008405020010B584B00122DFF810190420A4
:1061300005F090FF0122DFF80819192005F08AFF09
:106140000122DFF80019FB2005F084FF00200290F7
:1061500000208DF80400002411E001AA02A9601CAF
:10616000C0B20EF0AFF9002808D09DF80400421E1E
:106170000298411C601DC0B205F06CFF641C052C28
:10618000EBDB0422DFF8C0180A2005F063FF0122D0
:10619000DFF8B8181B2005F05DFF0122DFF8B0180A
:1061A0000E2005F057FF0122DFF8A818352005F072
:1061B00051FF0122DFF8A0182A2005F04BFF012231
:1061C000DFF898182D2005F045FF0122DFF8901820
:1061D0002B2005F03FFF0122DFF888180D2005F085
:1061E00039FF0122DFF88018242005F033FF012257
:1061F000DFF878182C2005F02DFF0122DFF8701849
:10620000282005F027FF0122DFF86818342005F068
:1062100021FF0222DFF860181F2005F01BFF042277
:10622000DFF8E8171C2005F015FF0222DFF84C18F4
:10623000232005F00FFF3622DFF8E4170B2005F0CE
:1062400009FF0A20ADF800002D4890F87D008DF878
:106250000200032200A9102005F0FCFE3220ADF858
:106260000000274890F87E008DF80200032200A964
:10627000102005F0EFFE6420ADF80000204890F8F3
:106280007F008DF80200032200A9102005F0E2FE35
:106290004FF4FA70ADF80000194890F880008DF8BE
:1062A0000200032200A9102005F0D4FE4FF47A70FA
:1062B000ADF80000124890F881008DF8020003222A
:1062C00000A9102005F0C6FE41F28830ADF80000AC
:1062D0000B4890F882008DF80200032200A91020DC
:1062E00005F0B8FE0122DFF89817112005F0B2FE84
:1062F0000822DFF89017122005F0ACFE1FBD000049
:10630000D83D0010A06400107C030200900302003E
:10631000A4030200B80302007C650010BE0A00104E
:106320007F65001074FC0100C0D401004C0702001E
:106330003CEE01007665001048EA0100F0620010B2
:106340007D650010926500108265001098050200BE
:10635000BC080200C4E0010072650010FCE001000E
:10636000CC080200786500107765001014E3010086
:106370006165001001B59DF8000004284ED0052885
:1063800079D0062800F08180072800F0888008284E
:1063900000F08F80092800F096800A2800F09D8088
:1063A0000B2800F071810D2800F011810E2800F0FB
:1063B000AE800F2800F0E280102800F070811128D4
:1063C00000F0C881122800F0D981192837D01B2885
:1063D00000F08D801C2800F041811F2800F03381DF
:1063E000232800F04681242800F0FC80282800F0B3
:1063F0000F812A2800F0A1802B2800F0B4802C28DF
:1064000000F0FB802D2800F0A380342800F01081DC
:10641000352800F08780FB2822D0B9E1DFF8680634
:10642000097880F82D10DFF8600690F82D0003F051
:1064300095FC00220021002005F00CFEADE1DFF804
:106440004806097880F82E10DFF83C0690F82E00F8
:1064500003F094FC00220021002005F0FBFD9CE1EC
:10646000DFF82406097880F82F1000220021002090
:1064700005F0F0FD91E1D2B201200DF092FF002273
:106480000021002005F0E6FD87E1D2B202200DF0E8
:1064900088FF00220021002005F0DCFD7DE1D2B262
:1064A00003200DF07EFF00220021002005F0D2FD28
:1064B00073E1D2B204200DF074FF0022002100200D
:1064C00005F0C8FD69E1D2B205200DF06AFF002297
:1064D0000021002005F0BEFD5FE1DFF8AC05096892
:1064E000016300220021002005F0B4FD55E1087889
:1064F000002801D0012000E00020DFF88C1581F891
:10650000340000220021002005F0A4FD45E1DFF861
:106510007805097880F8351000220021002005F068
:1065200099FD3AE1DFF86005097880F8361000221D
:106530000021002005F08EFD2FE1DFF84C050978E1
:1065400080F8371000220021002005F083FD24E1AF
:10655000DFF83405097880F8381000220021002087
:1065600005F078FD19E1DFF82005097880F8391089
:1065700000220021002005F06DFD0EE108780028C2
:1065800011D0DFF88C0401210170012004F0ACF877
:106590004EF66020FBF774FEDFF8780400210170EE
:1065A000FBF7F0FE0DE0DFF868040121017042F214
:1065B0001070FBF765FEDFF85C0400210170FBF74B
:1065C000F7FE00220021002005F044FDE5E0DFF8A1
:1065D000B804097880F83A1000220021002005F064
:1065E00039FDDAE0DFF8A004097880F83B100022DA
:1065F0000021002005F02EFDCFE0DFF88C040978A3
:1066000080F83C1000220021002005F023FDC4E0AA
:106610000878002801D0012000E00020DFF868148D
:1066200081F83D0000220021002005F013FDB4E0B8
:10663000DFF85404097880F83E1000220021002081
:1066400005F008FDA9E0DFF840040988A0F83F1034
:1066500000220021002005F0FDFC9EE00422DFF86E
:10666000AC031AF06AF900220021002005F0F2FCC8
:1066700093E0DFF814040988A0F8451000220021F7
:10668000002005F0E7FC88E03622DFF894031AF0DA
:1066900054F900220021002005F0DCFC7DE0088890
:1066A000891C80B20A280ED0322817D0642820D046
:1066B000B0F5FA7F28D0B0F57A7F30D041F2883239
:1066C000904237D040E00878002801D0012000E057
:1066D0000020DFF8B41381F87D0035E00878002849
:1066E00001D0012000E00020DFF89C1381F87E003B
:1066F0002AE00878002801D0012000E00020DFF81F
:10670000881381F87F001FE00878002801D001205D
:1067100000E00020DFF8701381F8800014E00878B2
:10672000002801D0012000E00020DFF85C1381F890
:10673000810009E00878002801D0012000E0002055
:10674000DFF8441381F8820000220021002005F0C8
:1067500081FC22E00878002801D0012000E0002020
:10676000C94981F88300C84890F8830007F0CBFF3F
:1067700000220021002005F06DFC0EE00822C14837
:106780001AF0DBF800220021002005F063FC04E091
:10679000012200A9012005F05DFC01BDF26400109A
:1067A000DC08020074EA0100AC05020070B50C00C0
:1067B000C0B2E02814D0ED285DD0EE2865D0EF28D7
:1067C0006DD0F1280FD0F2281FD0F32828D0F4285C
:1067D0002BD0F52834D0F62837D0F72840D067E002
:1067E000FBF7A5FC64E02578641C2688A41C02F055
:1067F00095FF21683C2202FB1102241D310089B261
:106800002800C0B211F008F952E02078002801D029
:10681000012000E00020C0B20EF019FB641C47E02C
:1068200020880EF077FBA41C42E02078002801D0DD
:10683000012000E00020C0B207F070FF641C37E0C8
:10684000208807F01EFFA41C32E02078002801D029
:10685000012000E00020C0B202F0FAFE641C27E034
:106860002078002801D0012000E00020C0B202F012
:10687000F2FE641C1CE02078002801D0012000E01A
:10688000002082490870641C12E02078002801D0A2
:10689000012000E000207E490870641C08E0207898
:1068A000002801D0012000E000207A490870641C13
:1068B00070BD0000B40A0010CC590010D0E40100F3
:1068C000856500103EB513F0A5FB03F0D3FF03F080
:1068D00029FF03F0DFFE7048006850F480606E49C5
:1068E000086000246D484FF48061016000256C4809
:1068F000006850F002006A4908606A48006850F079
:10690000040068490860684802210160674848211E
:1069100001606548012101606548FBF788FB14F0C0
:10692000FBFF012804D114F0FDFF62480121017032
:106930000121002014F0BFFF5F4814F0E0FF0DF0CC
:10694000F8FC002803D05D480021017013E05B488B
:10695000012101705A4800210180FBF772FB0DF004
:10696000C2FC01220121574812F0BEFC0122032182
:10697000544812F0B9FC0221524812F0C7FC5249A7
:10698000086051480068000C4D4908804F4815F0D8
:10699000B7FF15F005FC4E484078401C4C49487044
:1069A00011F017FF12F066FF13F0B2FA3A480168CF
:1069B00021F48061016000244FF40062454946489B
:1069C00014F028F944480DF083F9434804F0C8FF57
:1069D0004FF480724149424814F01CF940480DF0D0
:1069E0003DF93F480EF05AFD022002904FF47A70B4
:1069F00001903C4800903C4B64223C493C4816F0D6
:106A00003FFD15F0ADFB00203EBD0000193E00101B
:106A1000816500108E65001048E30100B50A001082
:106A20001F3E00108765001089650010485C00104B
:106A300088650010643E001064EE0100053E001001
:106A4000063E0010073E0010083E00100C3E0010ED
:106A50000D3E00100E3E00100F3E0010103E0010C4
:106A6000113E0010123E0010133E0010143E0010A4
:106A7000153E0010163E0010173E00101D3E00107F
:106A80005B3E00105C3E0010D83D00108A6500108F
:106A90008B6500108C65001040C009205CC0092087
:106AA000C4C00F40A8C10F40044000400C4000404B
:106AB00020A107005E650010404B4C005F65001090
:106AC000F2640010004002409C640010C862001094
:106AD000CC090010681A0010D45F0010A0550010F7
:106AE000B85F0010F039001049260000240A0200A7
:106AF000505E001038B500240025DFF8F409006866
:106B0000401CDFF8EC190860DFF8E809102101707B
:106B1000DFF8E0093021417001230222DFF8D419A7
:106B2000DFF8D4090FF04CF9DFF8D009C06905008F
:106B3000DFF8C809C069401B652824DA0023012258
:106B4000DFF8B019DFF8B0090FF06DF90028EFD0C9
:106B5000DFF89C090068002806D0DFF89409006877
:106B6000401EDFF88C190860DFF88809007880067D
:106B700009D4DFF8A80B0021017000220021DFF802
:106B8000A00B0DF023FB0A2011F03EFEDFF8640994
:106B900010210170DFF85C093121417001230222CC
:106BA000DFF85019DFF850090FF00AF9DFF84C0947
:106BB000C569DFF84809C069401B652824DA00234D
:106BC0000122DFF83019DFF830090FF02CF9002826
:106BD000EFD0DFF81C090068002806D0DFF81009A4
:106BE0000068401EDFF808190860DFF8080900781F
:106BF000000709D5DFF8240B0021017000220021D5
:106C0000DFF8200B0DF0E2FA0A2011F0FDFDDFF8AD
:106C1000E40810210170DFF8DC0832214170012303
:106C20000222DFF8D018DFF8D0080FF0C9F8DFF83B
:106C3000CC08C569DFF8C408C069401B652833DA91
:106C400000230122DFF8AC18DFF8AC080FF0EBF8F6
:106C50000028EFD0DFF898080068002806D0DFF899
:106C600090080068401EDFF888180860DFF8840884
:106C70000078400609D5DFF8A40A0021017000223F
:106C80000021DFF8A40A0DF0A1FADFF86808007807
:106C9000800609D5DFF8840A002101700022002156
:106CA000DFF8880A0DF092FA0A2011F0ADFDDFF846
:106CB000440810210170DFF83C08332141700123A2
:106CC0000222DFF83018DFF830080FF079F8DFF82B
:106CD0002C08C569DFF82408C069401B652851DA13
:106CE00000230122DFF80C18DFF80C080FF09BF8E6
:106CF0000028EFD0DFF8F8070068002806D0DFF89A
:106D0000F0070068401EDFF8E8170860DFF8E407C6
:106D10000078400709D5DFF8040A0021017000223D
:106D20000021DFF80C0A0DF051FADFF8C8070078EF
:106D3000000709D5DFF8E4090021017000220021D5
:106D4000DFF8F0090DF042FADFF8A80700788006B6
:106D500009D5DFF8C8090021017000220021DFF801
:106D6000D8090DF033FADFF88C070078400609D512
:106D7000DFF8A8090021017000220021DFF8BC091A
:106D80000DF024FA0A2011F03FFDDFF8680710210A
:106D90000170DFF860073421417001230222DFF81F
:106DA0005417DFF854070FF00BF8DFF85007C569E8
:106DB000DFF84807C069401B652838DA0023012244
:106DC000DFF83017DFF830070FF02DF80028EFD08C
:106DD000DFF81C070068002806D0DFF814070068F9
:106DE000401EDFF80C170860DFF85409007800280F
:106DF0000ED1DFF800070078000709D5DFF8400959
:106E00000121017000220021DFF838090DF092F90C
:106E1000DFF8E0060078400609D5DFF80009002118
:106E2000017000220021DFF820090DF0CFF90A20BF
:106E300011F0EAFCDFF8BC0610210170DFF8B4069F
:106E40003521417001230222DFF8A816DFF8A806D9
:106E50000EF0B6FFDFF8A406C569DFF8A006C0692A
:106E6000401B65281BDA00230122DFF88816DFF8B3
:106E700088060EF0D8FF0028EFD0DFF8740600680F
:106E8000002806D0DFF868060068401EDFF86016AC
:106E90000860DFF860060078800600D501240A202B
:106EA00011F0B2FCDFF8480600680A280DDBDFF8B5
:106EB000400600210160DFF8640800210170002213
:106EC0000021DFF888080DF081F92000C0B232BD42
:106ED000DFF87C1800E0491C0200501E002A0DD08B
:106EE0000A781C2AF7D0491CDFF868281268DFF8F6
:106EF0006038D2189142F3D3002000E008007047B8
:106F000030B583B00C00DFF850180870DFF8441873
:106F100000220A60DFF844180978491CDFF83C2891
:106F20001170DFF838180978202903D2DFF82C18FF
:106F300020220A70DFF81C180968DFF8B825022340
:106F40008B54DFF810180968491CDFF80828116015
:106F5000DFF800180968DFF89C2541238B54DFF81F
:106F6000F4170968491CDFF8EC271160DFF8E41713
:106F70000968DFF8802545238B54DFF8D8170968A6
:106F8000491CDFF8D0271160DFF8C8170968DFF85F
:106F9000642552238B54DFF8BC170968491CDFF8BD
:106FA000B4271160DFF8AC170968DFF848254623DD
:106FB0008B54DFF8A0170968491CDFF89827116087
:106FC000DFF890170968DFF82C25DFF890371B7879
:106FD0008B54DFF880170968491CDFF878271160A7
:106FE0000200DFF87C17DFF86C070068DFF8043573
:106FF000C01817F0CDFADFF85C1709684018DFF801
:1070000054170860DFF84C070068DFF8E8141C220A
:107010004254DFF840070068401CDFF8381708606A
:10702000E4B2002C55D0DFF8D4040078401CDFF81F
:10703000CC14087002F072FB019011F061FA01A803
:1070400019F008FD04006069643800902069431C51
:10705000E268DFF81017DFF8FC060068DFF89454E8
:10706000401917F095FADFF8EC1609684018DFF8B8
:10707000E4160860DFF8DC060068DFF878141C22EC
:107080004254DFF8D0060068401CDFF8C8160860DC
:107090006368A268DFF8D016DFF8B8060068DFF88A
:1070A0005444001917F074FADFF8A816096840185C
:1070B000DFF8A0160860DFF89C060068DFF83414DB
:1070C0001C224254DFF88C060068401CDFF884164E
:1070D000086037BD10B50400200017F063F80021E8
:1070E00006E00A5DF02A02D30A5D103A0A55491CEF
:1070F000814208DA0A5DC03AD2B2302AF1D20A5D82
:10710000403A0A55F3E710BD10B504002000FFF720
:10711000E1FF220028A1DFF83C060068DFF8D43345
:10712000C01817F035FADFF82C1609684018DFF898
:1071300024160860DFF81C060068DFF8B8131C226C
:107140004254DFF810060068401CDFF8081608609B
:1071500010BD10B5DFF8FC050068DFF898130322B6
:107160004254DFF8F0050068401CDFF8E8150860BD
:107170000020002104E0DFF87C238A5C1018491C01
:10718000DFF8D02512689142F5DBC2B2C0F30723C5
:10719000DFF8D815DFF8BC050068D64C001917F0E9
:1071A000F7F9DFF8B01509684018DFF8A81508608E
:1071B000DFF8A005006810BD2573000030B589B068
:1071C00001240120FFF784FE03AADFF8A41518F0BC
:1071D00095FB0220FFF77CFE06AB07AADFF89415AB
:1071E00018F08CFB0798069950EA01250320FFF759
:1071F0006FFE05AB04AADFF87C1518F07FFB03983F
:10720000C0070AD5DFF81405002101700022002113
:10721000DFF864050CF0DAFF0024039880070AD534
:10722000DFF8F8040021017000220021DFF84C058E
:107230000CF0CCFF0024039840070AD5DFF8DC04EB
:107240000021017000220021DFF834050CF0BEFFA0
:107250000024039880060AD5DFF8C00400210170DD
:1072600000220021DFF81C050CF0B0FF0024DFF83D
:107270001805007800280DD1039800070AD4DFF81C
:1072800008050121017000220021DFF800050CF043
:1072900051FF06E00398000703D5DFF8EC04002156
:1072A0000170DFF8EC04007800280DD10398C006C7
:1072B0000AD5DFF8DC040121017000220021DFF88B
:1072C000D4040CF037FF06E00398C00603D4DFF8BF
:1072D000C00400210170DFF8C004007800280DD13F
:1072E000039840060AD5DFF8B0040121017000229E
:1072F0000021DFF8A8040CF01DFF06E0039840060B
:1073000003D4DFF8940400210170DFF894040078BE
:1073100000280DD1039800060AD4DFF88404012167
:10732000017000220021DFF87C040CF003FF06E06E
:107330000398000603D5DFF868040021017015F0FA
:107340000700DFF8641408702800C0060AD5DFF8CB
:10735000CC030021017000220021DFF850040CF062
:1073600035FF0024280000060AD5DFF8B00300210D
:10737000017000220021DFF838040CF027FF002400
:10738000E8050AD4DFF894030021017000220021EF
:10739000DFF820040CF01AFF0024DFF81C0400784A
:1073A00000280CD1A8050AD5DFF80C0401210170D2
:1073B00000220021DFF804040CF0BCFE05E0A80563
:1073C00003D4DFF8F40300210170DFF8F403007840
:1073D000002810D128050ED4DFF8E4030121017044
:1073E00000220021DFF8DC030CF0A4FEDFF8D80354
:1073F0000121017005E0280503D5DFF8C403002151
:107400000170DFF8C803007800280CD1E8040AD521
:10741000DFF8B8030121017000220021DFF8B0037A
:107420000CF088FE05E0E80403D4DFF8A003002197
:107430000170049805990843002834D00498152851
:1074400004D019280CD0292814D01AE00024B348FD
:10745000047000220021DFF87C030CF0B7FE22E06C
:107460000024AE48047000220021DFF86C030CF009
:1074700061FE18E000220021DFF860030CF05AFEE4
:1074800011E0002405980290049801900095039B58
:10749000B1480278D249174817F07AF80022002143
:1074A00014480CF047FEE4B2002C09D010480068E4
:1074B000002819D00E480068401E0D49086013E0EE
:1074C0000B480068801C0A490860094800680A28BF
:1074D0000ADB07480021016090480021017000226A
:1074E00000219A480CF072FE2000C0B209B030BDF5
:1074F000406400101451001000C00040CC0900107E
:107500002DE9F14F86B0B7480068401CB5490860C6
:107510000324FFF71EFE049001260023012200A988
:10752000B1480EF080FC0028F7D1F6B2002E07D04B
:107530000123049A8649AC480EF042FC002608E07C
:1075400015208DF800000123012200A9A6480EF0A5
:1075500037FC5FF000095FF0000AA448C5695FF0DE
:10756000010B00270023012200A99F480EF05BFCBD
:10757000002800F0B9805FFA89F9B9F1000F08D04E
:10758000B9F1020F43D02BD3B9F1040F79D061D3F5
:10759000AAE09DF8000002280BD19DF800806C48FD
:1075A0009DF800100AF800101AF1010A5FF00109B5
:1075B0009AE09DF80000152803D101265FF0000B2A
:1075C00092E09DF80000182840F08E8001270022EC
:1075D0006148017886480CF0F9FD5FF0000B83E00C
:1075E0009DF800005D49097888420DD19DF80000A2
:1075F00010EB080856489DF800100AF800101AF120
:10760000010A5FF002096FE05FF0000B6CE09DF88B
:10761000000010EB08084E489DF800100AF8001012
:107620001AF1010ABAF1040F5ED149480021017133
:1076300003AA4B496F4818F061F9012807D1039854
:1076400045490978884202D15FF003094CE05FF0B8
:10765000000B49E09DF8000010EB08083C489DF83D
:1076600000100AF800101AF1010A9DF80000032822
:107670003AD11FFA88F83748C0F800A05FF0040933
:1076800032E033489DF800100AF800101AF1010AA0
:1076900030480068001D824526D12E4800682C49DC
:1076A00040180021017102AB01AA30492948006845
:1076B000DFF89CC010EB0C0018F020F9022811D163
:1076C0000198029950EA012001900198804506D165
:1076D000FFF774FD97F001010840C0B21BE05FF0B6
:1076E000000B01E05FF0000B06984049C969491B97
:1076F000884201DA5FF0000B5FFA8BFBBBF1000FF1
:107700007FF430AFFA2011F07FF82000441E0028EB
:107710007FF403AF002007B0BDE8F08FA40A00108B
:10772000FCF401001CF50100D4FE010024FB010063
:10773000E4EB0100ECFE01000CEC0100B4E70100F9
:107740001065001050F001003CF50100B00102008E
:1077500014510010446400100D6500100F650010F6
:10776000540B0200AC0602007C09020088090200EA
:107770005C0B02009409020004FF010040FB0100C1
:107780001CFF01005CFB01001165001078FB01008B
:10779000126500105CF501001365001034EC010067
:1077A000146500107CF50100A50A00109CF501008D
:1077B000BCF50100C40102001565001094FB010036
:1077C00016650010D80102000E6500101765001044
:1077D000DCF5010074F00100FCF50100EC01020091
:1077E000C0D501004064001000C00040CC0900106A
:1077F0005CEC010016510010F0B5C9B0DFF8380C90
:10780000D0E90023CDE9432343A815F0A1F9DFF81F
:107810002C0CD0E90023CDE9412341A815F098F9BB
:107820001EA80EF09FFA4FF416501E9003208DF8FC
:107830007D0000208DF87C0000208DF87E001EA9C0
:10784000DFF8180E0EF0E4F916A80EF0A2FB0320E4
:107850008DF85B0016A9DFF8040E0EF03CFB012149
