:1000000000040010B916020041D6010049D60100D3
:0C00100051D6010059D6010061D6010054
:10001C00B2B5F4EF0000000000000000000000008A
:10002C0069D6010071D601000000000055E80100FE
:10003C0089BD010079D6010081D6010089D6010065
:10004C0091D6010099D60100A1D60100A9D60100D4
:10005C00B1D60100B9D60100C1D60100C9D6010044
:10006C00D1D60100D9D60100E1D60100E9D60100B4
:10007C00F1D60100F9D6010001D7010009D7010022
:10008C0011D7010019D7010045A7000021D70100A5
:10009C0029D701003DDC000031D701004B55010090
:1000AC0039D701006BC5000041D7010049D70100C9
:1000BC0051D7010059D7010061D7010069D7010060
:0402FC0021436587AE
:1003000031323334350000000000000000000000EE
:1003100000000022C7A50003005D00A8C000FFFF89
:10032000FF7900A8C00100A8C07900A8C00F5A64D6
:1003300080250000010078000000173B1800140021
:100340003C00320064009600C800FA002C015E01F7
:100350009001C201F401260258028A02BC02EE0298
:10036000200352038403B603E8031A044C047E04FA
:10037000B004F401000101010000016400640032D6
:1003800000C8000A00320001003200000300000231
:1003900000173B0D05000D06050000202020202041
:1003A000202020202020202020202020202020204D
:1003B00020202020EFF0EEE8E7E2EEE4F1F2E2EEBA
:1003C0002C202020200000002020202020EEE1F121
:1003D000EBF3E6E8E2E0EDE8E52C20F0E5ECEEED0D
:1003E000F220EFEBE0F2EDFBF52020202020202092
:1003F000000000202020E0E2F2EEECE0F2E8F7E579
:10040000F1EAE8F520EFE0F0EAEEE2EEEA2C20F186
:10041000E8F1F2E5EC20202020202000000020E47C
:10042000EEF1F2F3EFE02C20E2E8E4E5EEEDE0E1BE
:10043000EBFEE4E5EDE8FF2C20F1E8E3EDE0EBE88E
:10044000E7E0F6E8E920000000000D07000D0800D5
:100450000D09000D0F00000000000000000000006A
:10046000000000000000000000000000000000008C
:10047000000000000000000000000000000000007C
:10048000000000000000000000000000000000006C
:10049000000000000000000000000000000000005C
:08069000000000A55A00000063
:10200000BFF34F8FDFF84C03006810F4E060DFF897
:1020100048130843DFF83C130860BFF34F8FFEE717
:10202000DFF838130968DFF834231268521A824245
:10203000F9D3704780B5DFF82803DFF82813B1F92A
:10204000001089B20160DFF8180300680004DFF8AF
:1020500010130860DFF8080300684FF6FF710843AB
:10206000DFF8FC120860DFF8F80202680321DFF8ED
:10207000F80219F0E1FB01BD01B5DFF8F0020078CC
:10208000002812D1DFF8E40201210170042200A926
:10209000282013F041FEB64800990160B549B448C4
:1020A000006814F033FBB449087001BD80B5B34932
:1020B0000978002907D1B14901220A700B220100D9
:1020C000AF4821F014FA01BDAE4909684018AD4986
:1020D00008607047AC4801210170AC4801210170D3
:1020E000704780B500220021022013F015FEA84899
:1020F0000121017013F053FD01BDA64801210170BB
:10210000704780B5A44801210170012006F023FF2B
:1021100001200CF0EDFCA14890F87A000AF067F974
:10212000012017F01EFF01BD9D480121017070477D
:1021300080B5FFF7E6FF9B480121017001BD80B526
:10214000FFF7DFFF98480121017001BD80B5FFF75F
:10215000D8FF96480121017001BD95480121017009
:102160007047944909780843934908707047934928
:10217000097808439249087070479249087070477F
:10218000914909780843914908707047904908704F
:10219000704790490870704790F001008E490870B0
:1021A00070478E4801210170704710B504008C48BB
:1021B0001CF071FC8948002101702100884820F042
:1021C000C9FA87481CF029FC10BD84480078704784
:1021D000844801210170704710B5040082481CF04A
:1021E0005AFC80480021017021007F4820F0B2FA9B
:1021F0007D481CF012FC10BD7A48007870477B487F
:1022000001210170704710B5040079481CF043FCAF
:102210007648002101702100754820F09BFA74482F
:102220001CF0FBFB10BD71480078704780B570480A
:102230001CF031FC6D480021017001BD80B56C4877
:102240001CF029FC69480121017001BD6948012188
:102250000170704710B5040067481CF01CFC65480D
:10226000002101702100644820F074FA62481CF0DB
:10227000D4FB10BD5F4800787047604801210170B1
:10228000704710B504005E481CF005FC5B48002157
:10229000017021005A4820F05DFA59481CF0BDFB3E
:1022A00010BD56480078704780B555481CF0F3FBC8
:1022B00052480021017001BD80B5524800210170D3
:1022C000514801210170354890F88C0040F6B83132
:1022D0004FF4967201FB0020FFF7D3FF01BD80B5DC
:1022E0004948002101704748012101702B4890F8AE
:1022F0008C0040F6B8314FF4967201FB0020FFF7D6
:10230000C0FF01BD414801210170704710B50400B4
:102310003F481CF0C0FB3D480021017021003C48B3
:1023200020F018FA3A481CF078FB10BD37480078C6
:10233000704780B536481CF0AEFB34480021017070
:1023400001BD80B532481CF0A6FB30480121017068
:1023500001BD00000CED00E00400FA05084000405B
:10236000DC6A00102E6B001000400240A36B0010CE
:10237000E06A0010A56B0010A46B0010A66B0010A3
:10238000F0680010E46A0010A76B0010AD6B00103D
:10239000A86B0010B36B0010DB0A0010003E0010A9
:1023A000A96B0010AA6B0010AB6B0010AE6B001095
:1023B000B16B0010CE6B0010B46B0010CF6B00102F
:1023C000B56B0010B76B0010D06B0010B66B00102F
:1023D000B86B0010B96B0010BA6B0010DE0A001069
:1023E000E8670010DF0A0010FC670010E00A001028
:1023F00010680010E10A001024680010E20A0010C2
:1024000038680010BD6B0010BC6B0010E30A0010B0
:102410004C6800102DE9F04399B00020049000268C
:1024200000270AF0A9F907F005F8012006F0DBFF04
:102430000400022006F0D7FF0500DFF8F81D200099
:102440001EF0A6FCDFF84C1928001EF0A1FC0321A9
:10245000022006F0D5FFDFF840090AF040FDDFF862
:102460003C0913F03DFA14F019F814F059FA14F07D
:1024700046F9DFF82C090BF087FBDFF828090BF091
:10248000FAF9DFF82419DFF824090BF073F808F0E3
:1024900007FCDFF81C090AF015FE06F041FD0020DC
:1024A00006F0FDFD002006F0FDFDDFF8EC0D0CF060
:1024B000A1FA09F035FFDFF82C0B17F02DFCDFF83F
:1024C000280B08F03AF807F0BFFDDFF8D01D002018
:1024D00007F032FEDFF8381B012007F02DFEDFF891
:1024E000C01D022007F028FEDFF83C2B4FF47A7164
:1024F000022007F02BFEDFF8AC1D032007F01CFEC6
:10250000DFF8A41D042007F017FEDFF8482B4FF476
:102510007A71042007F01AFEDFF83C1B052007F053
:102520000BFEDFF8381B062007F006FEDFF8301B35
:10253000002007F01DFEDFF82C1B012007F018FE1D
:10254000DFF8241B022007F013FEDFF8201B032016
:1025500007F00EFEDFF8181B042007F009FEDFF875
:10256000141B052007F004FEDFF80C1B062007F003
:10257000FFFDDFF8081BDFF8080B07F071FB0022F6
:10258000DFF8001BDFF8000B1CF03CFA0022DFF83C
:10259000FC1ADFF8FC0A1CF035FA0022DFF8F41A06
:1025A000DFF8F40A1CF02EFA0022DFF8F01ADFF848
:1025B000F00A1CF027FA0022DFF8F01CDFF8A40B69
:1025C0001CF020FA0022DFF8A01BDFF8A00B1CF0A3
:1025D00019FA00220021AA2013F09EFB0022DFF846
:1025E000D00C017CDFF8880B13F0C4FDDFF8840BFE
:1025F0000078002805D000220021DFF87C0B13F0C2
:10260000B9FDDFF8B00C0078002805D000220021C9
:10261000DFF8680B13F0AEFD0422DFF8641B3420F2
:1026200013F07AFB0222DFF85C1B452013F074FBE9
:102630000322DFF8541B472013F06EFB4FF47A702F
:1026400018F08AFB41F28830FFF760FE0021DFF8C6
:10265000680C19F003F9DFF8641C884211D0DFF828
:10266000D81B20001EF094FBDFF8D01B28001EF0C2
:102670008FFB0321022006F0C3FEDFF8440C00218B
:102680000170FFF72CFEDFF83C0C0078002803D126
:10269000DFF8340C012101701021DFF8300C1DF03F
:1026A000C3F81EF00BFA1BF0F4FC15F0A9F9002892
:1026B00001D0012000E00020DFF8141C0870DFF8D2
:1026C000100C007800280CD1DFF8080C00780028E6
:1026D0000BD1012014F059F8DFF8F80B012101703B
:1026E00003E0DFF8F00B00210170C82014F0D2F8ED
:1026F00000280CD1C82013F069FE002807D1C8209B
:1027000013F0B6FF002802D1642018F025FBDFF893
:10271000A00B407C002820D0FFF757FD00281CD0DC
:1027200006F046FD0590042205A9FE200BF018FADC
:10273000042205A9FF2013F0EFFA1CF0DBFC0521B1
:1027400048433C2190FBF1F201FB120000F22C10F7
:102750004FF47A714843FFF728FD08F083F9DFF85A
:10276000340E007800280DD0DFF8280E002101700B
:10277000FFF760FCFFF72CFD0222DFF85C1B38201E
:1027800013F0CAFAFFF738FD002813D04FF4FA50BF
:10279000FFF722FDDFF8400BB0F900004FF47A712B
:1027A000884202DB40F2E73002E0002800D500203A
:1027B00007F03EF817F0D1FADFF8200B0078002878
:1027C00003D0022815D00AD331E0DFF8140B0078CB
:1027D00000282CD0DFF8040B0121017027E0DFF87E
:1027E000040B0078002822D0DFF8F00A02210170E3
:1027F0001DE0DFF8F00A0078002818D1DFF8D80AC9
:102800000088401CDFF8D01A0880DFF8880D01210D
:10281000017000220021122013F07EFA0022002114
:1028200012200BF09DF9DFF8B40A00210170DFF8E7
:10283000B80A0078002807D0022800F0D48060D3BE
:10284000032800F05B8191E1FFF714FD002800F000
:102850008D81DFF85C0A90F88D0007F041FDDFF80C
:102860008C0A007800280DD0DFF8440A90F88C001C
:102870004FF47A714843FFF7EDFCDFF86C0A012151
:10288000017073E1DFF8680A0078DFF8681A0978E8
:1028900091F0010108420DD0DFF8140A90F88C0085
:1028A0004FF47A714843FFF7D5FCDFF83C0A022168
:1028B00001705BE1DFF8380A0078DFF8381A097830
:1028C00008420CD0FFF7EDFC002808D000220021C0
:1028D000DFF8240A13F04EFCFFF7E6FC46E1DFF8D0
:1028E0001C0A0078DFF8181A097891F001010843F2
:1028F000C0B2002840F03A81DFF8EC0903210170F2
:1029000034E1DFF8F8090078DFF8E019097891F090
:1029100001010843DFF8D8190978DFF8D8291278BF
:1029200092F0010211400843C0B2002818D00020E4
:1029300007F0ACFCDFF8780990F88D0090F001000A
:10294000C0B207F0CDFCDFF8A409002101704FF4FC
:102950009670FFF77FFCDFF890090021017005E118
:10296000012007F093FCFFF785FC00280AD0002027
:1029700007F08CFCC820FFF76DFCDFF86C09002124
:102980000170F3E0FFF78DFC002800F0EF80FFF707
:102990008BFCDFF86C090078002805D000220021AC
:1029A000DFF8200C13F0E6FB00220021DFF8180C02
:1029B00013F0E0FB002007F069FCDFF8F40890F862
:1029C0008D0090F00100C0B207F08AFCDFF81C090E
:1029D000002101704FF49670FFF73CFCDFF8080906
:1029E00000210170C2E0DFF818090078DFF8001953
:1029F000097891F001010843C0B2002818D00020E6
:102A000007F05AFCDFF8A80890F88D0090F001005C
:102A1000C0B207F065FCDFF8D808002101704FF460
:102A20009670FFF717FCDFF8C008002101709DE0E9
:102A3000DFF8C008007800281ED000220021DFF84F
:102A40008C0B13F097FB002007F036FCDFF86008D2
:102A500090F88D0090F00100C0B207F041FCDFF863
:102A60009008012101704FF49670FFF7F3FBDFF837
:102A700078080021017079E0012007F01DFCFFF7C4
:102A8000F9FB00280AD0002007F016FCC820FFF749
:102A9000E1FBDFF854080021017067E0FFF701FC5B
:102AA000002863D0FFF700FCDFF85008007800280A
:102AB00005D000220021DFF8180B13F05BFB002289
:102AC0000021DFF8100B13F055FB002007F0F4FB9A
:102AD000DFF8DC0790F88D0090F00100C0B207F03D
:102AE000FFFBDFF80C08002101704FF49670FFF730
:102AF000B1FBDFF8F4070021017037E0DFF8EC07E5
:102B00000078DFF8EC1709780843C0B2002804D039
:102B1000DFF8D4070021017028E0DFF8E40700782F
:102B2000002814D106F044FB0A9004220AA93E2092
:102B300013F0F2F8FFF7D3FB00220021DFF8440E78
:102B400013F018FBDFF8A007002101700EE0DFF89A
:102B5000880A0078002809D0DFF87C0A002101707B
:102B6000FFF76CFBDFF8740A00210170DFF89007B3
:102B70000078002815D1DFF8680A00210170DFF81D
:102B8000640A0078002821D1DFF8580A0121017079
:102B900006F00EFB0990042209A9212013F0BCF8CD
:102BA00014E0DFF8400A00210170DFF8340A0078F1
:102BB00000280BD1DFF8280A0121017006F0F8FA8D
:102BC0000890042208A9222013F0A6F8DFF80C0AC6
:102BD000007800280AD0022872D02AD3042800F0F6
:102BE000E980C0F0A28005284BD001E1FFF71BFB74
:102BF000002800F0FD80DFF8D0060078002804D01F
:102C000000220021172013F087F8DFF8BC0600210E
:102C10000170002007F0E4FADFF8CC090021017010
:102C2000DFF8C80900210170DFF8B0090121017047
:102C3000DEE0DFF8B8090078002806D0FFF7FEFADA
:102C4000DFF8980900210170D2E0DFF83C0D007830
:102C5000002808D0DFF89809FFF7D5FADFF87C09DB
:102C600005210170C4E0DFF88C090078002800F02D
:102C7000BF80012007F0B4FADFF86009022101707B
:102C8000B6E0DFF8040D0078DFF86019097891F0FC
:102C90000101084206D1FFF7D1FADFF8400900210F
:102CA0000170A5E0FFF7BFFA002800F0A180FFF750
:102CB000BDFA00220021DFF8400913F05BFA97E02B
:102CC000DFF8C40C007800281AD1DFF81C090121B4
:102CD0000170DFF8F0050078002808D100220021FB
:102CE000162013F019F8DFF8E00501210170DFF874
:102CF0000009FFF788FADFF8E4080321017077E0A4
:102D0000002007F06DFA1CF0F5F9052190FBF1F2B7
:102D100001FB1200401C4FF496714843FFF773FA11
:102D2000DFF8B8080021017062E0DFF8B80500782C
:102D3000002810D04EF66020FFF765FADFF8B408DF
:102D400000210170DFF8A00800210170DFF88C0875
:102D5000042101704CE0DFF890080078DFF88C184F
:102D6000097891F00101084203D0FFF75CFA0028CE
:102D70003ED0FFF758FA002805D000220021DFF8E6
:102D8000200D13F0F7F9FFF759FADFF8500800218A
:102D900001702DE0542A0200DF5601005DCE0000D4
:102DA000F1550000D9570000795B0000895D0000F3
:102DB00005610000DFF80C050078DFF830180978AD
:102DC0000843C0B2002803D1FFF72DFA00280FD026
:102DD000FFF729FA002805D000220021DFF8B00B08
:102DE00013F0C8F9FFF72AFADFF8F00700210170A5
:102DF000DFF8CC040078002862D0022800F0CF86EB
:102E0000C1F03E80042800F00587C0F0E786062860
:102E100000F09987C0F05787082800F0BC84C0F004
:102E2000FC870A2800F01085C0F0D2840C2800F03E
:102E30007385C0F02E850E2800F08486C0F0EB85E7
:102E4000102800F0D3804FD3122801F05980C0F031
:102E50003781142802F00A81C2F04A81162801F055
:102E6000FB80C1F06480182801F07C83C1F03281BE
:102E70001A2801F03386C2F0C3801C2801F0CA83EF
:102E8000C1F0CD811E2801F00984C1F06886202898
:102E900001F0E986C1F0CF84222802F0A781C1F0B9
:102EA000E187242802F08C82C2F0D281262802F029
:102EB0000183C2F0CD82272802F0368302F085BB61
:102EC0000021DFF8F40318F0C9FCDFF8F0138842A2
:102ED00042F07B834FF47A70FFF718FADFF8E003D3
:102EE0000F21017002F071BBFFF720FA002802F0F9
:102EF0006C83FFF7F4F9DFF8FC0600210170DFF8BE
:102F0000E80600210170DFF89C0B00210170DFF85A
:102F1000980B00210170DFF8940B00210170DFF89D
:102F2000900B00210170DFF88C0B00210160DFF8AD
:102F3000880B00210170DFF8840B00210170DFF89D
:102F4000800B00210170DFF87C0B00210170DFF89D
:102F5000780B00210170DFF8740B00210170002054
:102F6000049000260027002006F0A5F8012006F0B6
:102F70009CF8002006F09CF8DFF8540B002101704B
:102F8000DFF8500B00210170DFF84C0B00210170BD
:102F9000DFF8480B00210170DFF8440B00210170BD
:102FA000DFF8400B00210170DFF83C0B00210170BD
:102FB000DFF8380B00210170DFF8340B00210170BD
:102FC000DFF8300B00210170DFF82C0B202101709D
:102FD000DFF8280B01210170B9481121017002F0BE
:102FE000F4BA00BFAD20000079200000FFF79EF981
:102FF000002802F0EA82DFF8040B0078002809D0EC
:1030000002281DD0032811D004284BD053E000BF64
:10301000E3200000DFF8E81A28001DF0B9FE0321C4
:10302000022006F0EDF946E04D210000DFF8D41A49
:1030300028001DF0ADFE0321022006F0E1F93AE080
:10304000DFF8C41A28001DF0A3FE0021022006F0BC
:10305000D7F930E0312100005B210000FB200000A7
:10306000632100006F210000812100007B2100000E
:103070008D2100009321000099210000859C010012
:10308000BB9C0100A3210000E8670010D1210000D3
:10309000FC6700104D220000246800107B22000015
:1030A00038680010DFF8641A28001DF071FE032153
:1030B000022006F0A5F982481121017002F085BABC
:1030C00000217D4818F0CAFB7C49884219D00022B3
:1030D0000021DFF83C0A13F04DF8DFF8381A200021
:1030E0001DF056FEDFF8301A28001DF051FE0021B9
:1030F000022006F085F94FF4FA6017F02DFEFEF776
:103100007FFF6C480078002819D000220021DFF8EA
:103110000C0A13F02FF8DFF8081A20001DF038FE13
:10312000DFF8F41928001DF033FE0021022006F01C
:1031300067F94FF4FA6017F00FFEFEF761FFFFF733
:10314000F5F8002800F0E2804FF4FA70FFF7DEF89F
:10315000DFF8A40900783A2818D1DFF89C0920216B
:10316000017017E010680010052300004C68001083
:103170006C2A0200A06B0010B00B0200281A02009B
:10318000383E00103C3E0010903E0010DFF8680909
:103190003A21017006F00CF8079007A820F03AFADF
:1031A0008046D8F8140000F26C700390D8F8100034
:1031B000401C0290D8F80C000190D8F80400009050
:1031C000DFF834090378D8F80820DFF85C1E200007
:1031D0001DF0DEFD364890F83800D8F80810884217
:1031E0000DDBD8F80800324991F83810884227D111
:1031F000D8F804002E4991F83910884220DBD8F81D
:1032000008002B4991F83A1088420DDBD8F80800E5
:10321000274991F83A10884212D1254890F83B008E
:10322000D8F8041088420BDBDFF8F80801210170A0
:103230000AE000BF9C2D0200B02D020064100200C5
:10324000DFF8E00800210170194890F8900000288C
:1032500058D0D8F80800164991F89110884206DB3A
:10326000D8F80400124991F89210884206DA104802
:1032700090F89100D8F80810884243DADFF8A808DF
:103280000078002842D1DFF8A00801210170DFF8A2
:1032900040080121017039E0C9200000D52000005C
:1032A00003210000292100003F210000FF21000030
:1032B000003E0010A16B001000400240DDEEAA5558
:1032C000E40A0010B66B0010C46B0010C868001050
:1032D000A26B0010E60A00102E6B0010D36B0010DA
:1032E000B46B0010B56B0010D26B0010BC6B0010FB
:1032F000BD6B0010BA6B0010200A0200B86B001002
:10330000B96B0010DFF8200800210170DFF8E80732
:1033100000783A2842F05981DFF810080078002838
:1033200009D0DFF8080800210170DFF8000E022143
:10333000017002F04AB9DFF8F8070078002809D0D8
:10334000DFF8EC0700210170DFF8E00D08210170C3
:1033500002F03BB9DFF8DC070078002816D0DFF870
:10336000D40700210170DFF8D01728001DF010FDF0
:103370000021022006F044F84FF47A70FEF7C6FFF1
:10338000DFF8A80D0521017002F01FB9DFF844072E
:103390000078002812D0DFF8A41728001DF0F8FCF0
:1033A0000021022006F02CF84FF4FA60FEF7AEFF81
:1033B000DFF8780D0F21017002F007B9DFF82C0E4D
:1033C0000078002812D1DFF8641C28001DF0E0FC12
:1033D0000121022006F014F84FF4FA60FEF796FF80
:1033E000DFF8480D0121017002F0EFB805F003FE8F
:1033F000002812D0DFF8381C28001DF0C9FC01217C
:10340000022005F0FDFF4FF4FA60FEF77FFFDFF8C2
:103410001C0D1221017002F0D8B8DFF8C006007848
:10342000002805D0DFF8040D0A21017002F0CDB8A4
:10343000DFF89C060078002805D0DFF8F00C0321A7
:10344000017002F0C2B8DFF8DC06007800280ED167
:10345000DFF8A8060078002809D0DFF8A0060021D0
:103460000170DFF8C80C1021017002F0AEB8DFF86F
:10347000B4060078DFF8101509780840DFF8B01CB2
:10348000097808420ED0DFF874060078042809D0C5
:10349000DFF8680604210170DFF8900C102101703C
:1034A00002F093B8DFF87C060078DFF8DC140978C6
:1034B00091F001010840DFF8781C097808420ED02D
:1034C000DFF838060078032809D0DFF8300603213A
:1034D0000170DFF8580C1021017002F076B8DFF8A7
:1034E00044060078DFF8481C09780840DFF85016D9
:1034F00091F88B10084217D000220021242012F0EE
:103500000BFCDFF8301C28001DF042FC00210220DB
:1035100005F076FF40F6B830FEF7F8FEDFF80C0C49
:103520002321017002F051B8DFF8940500780028DB
:1035300032D0DFF8F0050078DFF8F41B0978084294
:1035400005D0DFF8E80B1821017002F03EB8DFF873
:10355000E80B4068DFF8E01B098901FB00F3DFF8A6
:10356000DC2BDFF8DC1B20001DF012FCDFF8701DE7
:1035700028001DF00DFC0021022005F041FF40F65F
:10358000B830FEF7C3FEDFF838050021017002F005
:103590001CB800BFDC0A0010DFF820050078002806
:1035A0002CD0DFF880050078002805D0DFF87C0BF0
:1035B0001321017002F009B8DFF800050021017045
:1035C00002F003B890100200BC1002002C060200AA
:1035D000E810020014110200C56B0010D16B00103E
:1035E000E80A0010E70A0010C26B0010DD0A0010A4
:1035F000C0D40100C16B001090260200DFF8240542
:103600000078DFF8D4140978084205D0DFF81C0BE5
:103610001421017001F0D9BFDFF808050078DFF848
:1036200090140978084212D0DFF8B81C28001DF069
:10363000AFFB0021022005F0E3FE4FF47A70FEF7A5
:1036400065FEDFF8E80A1721017001F0BEBFDFF860
:10365000D4040078DFF854140978084212D0DFF857
:10366000941B28001DF094FB0321022005F0C8FEE6
:1036700041F28830FEF74AFEDFF8B00A16210170E9
:1036800001F0A3BFDFF89C040078DFF81C14097870
:10369000084205D0DFF8940A1B21017001F095BFA4
:1036A000DFF880040078DFF838140978084212D077
:1036B0004FF4FA60FEF72AFEDFF8381E28001DF0EE
:1036C00067FB0021022005F09BFEDFF8600A152150
:1036D000017001F07ABFDFF800040078DFF8D01342
:1036E00009780843DFF8C41309780843EE490978DC
:1036F0000843DFF8EC1309780843C0B2002812D061
:10370000DFF8E41B28001DF043FB0321022005F035
:1037100077FE42F21070FEF7F9FDDFF8100A0F2174
:10372000017001F052BFDFF8C40B007800281AD0F6
:10373000DFF8BC2B95A128001DF02AFBDFF8B40BA5
:103740000178022005F05CFEDFF8AC0B0088FEF784
:10375000DDFDDFF8980B00210170DFF8D0091021A2
:10376000017001F032BFEF480078DFF8C419097822
:1037700091F00101084201F02887E0480078022812
:1037800001F02387DD4802210170DFF8A009102134
:10379000017001F01ABF00220021192012F0BCFABA
:1037A000012005F0D8FB05F045FCDFF8501B280090
:1037B0001DF0EEFA0121022005F022FE4EF66020F7
:1037C000FEF7A4FDDFF864090921017001F0FDBED8
:1037D00005F034FC002812D0DFF8241B28001DF06F
:1037E000D7FA0021022005F00BFE4FF4FA60FEF735
:1037F0008DFDDFF838090F21017001F0E6BEFEF7FC
:1038000095FDDFF8E819097891F001010843C0B28D
:10381000002801F0DA8600220021DFF8E80A12F021
:10382000F2FCDFF8E41A28001DF0B2FA03210220AE
:1038300005F0E6FD41F65830FEF768FDDFF8EC08CC
:103840000121017001F0C1BE002200211B2012F0F5
:1038500063FA08F0C5FD08F0ECFD0BF07CF90BF005
:10386000AEF9012005F077FB05F0F2FBDFF89C1ABA
:1038700028001DF08DFA0121022005F0C1FD42F261
:103880001070FEF743FDDFF8A4080B21017001F072
:103890009CBE05F0E1FB002814D008F0D5FDDFF850
:1038A000AC1E28001DF074FA0121022005F0A8FDCD
:1038B00046F2A810FEF72AFDDFF870080C2101700F
:1038C00001F083BEFEF732FDDFF82019097891F090
:1038D00001010843C0B2002801F0778600220021D0
:1038E0001D2012F019FA00220021DFF80C0C12F052
:1038F0008AFCDFF8081C28001DF04AFA0321022088
:1039000005F07EFD41F65830FEF700FDDFF81C089B
:103910000121017001F059BE08F0ACFD002850D023
:1039200005F0BAFB80465FF000098548B0F87B00DF
:103930008349B1F87D1001FB00998148B0F87F0000
:103940007F49B1F8811001FB00997D48B0F88300F0
:103950007B49B1F8851001FB00997948B0F88700E0
:103960007749B1F8891001FB0099C14512DADFF8F7
:10397000901B28001DF00CFAB8EB090005F072FB53
:1039800011E000BFFC070200B76B001025730000B8
:103990006C110200DFF86C1B28001DF0F9F9B9EB7F
:1039A000080005F06BFB0321022005F029FD42F21F
:1039B0001070FEF7ABFCDFF874070D21017001F009
:1039C00004BEFEF7B3FCDFF82418097891F001017A
:1039D0000843C0B2002801F0F885002200211D2014
:1039E00012F09AF900220021DFF81C0B12F00BFCF8
:1039F000DFF8181B28001DF0CBF90321022005F089
:103A0000FFFC41F65830FEF781FCDFF8200701216A
:103A1000017001F0DABD05F02BFB002816D005F08F
:103A200035FB002812D0DFF8E81A28001DF0B0F9A5
:103A30000121022005F0E4FC4FF4FA60FEF766FC79
:103A4000DFF8E8060E21017001F0BFBDFEF76EFC45
:103A5000DFF89817097891F001010843C0B20028F7
:103A600001F0B385002200211D2012F055F900223B
:103A70000021DFF8A00A12F0C6FBDFF89C1A28002C
:103A80001DF086F90321022005F0BAFC41F65830FA
:103A9000FEF73CFCDFF894060121017001F095BDB2
:103AA00040110200C36B0010A66B0010A36B001046
:103AB000A46B0010E06A0010A56B0010BE6B001034
:103AC000C66B0010C76B0010C86B0010C96B0010EC
:103AD000CA6B0010A86B0010B36B0010A96B00102C
:103AE000AD6B0010A76B0010AF6B0010B06B001037
:103AF000B16B0010B26B0010E90A0010E50A00106B
:103B00004C1A020064210200C42D0200842A020023
:103B100084210200D82D0200EC2D0200002E0200AC
:103B2000142E0200BB6B0010AC6B0010AA6B0010CF
:103B3000AB6B0010AE6B0010282E0200903202001A
:103B4000003E0010FEF7F2FB002801F03E8508F071
:103B500027FC08F057FC0AF0EBFF0BF023F808F005
:103B60003FFC08F066FC0AF0F6FF0BF028F8002294
:103B700000211C2012F0D0F8DFF8941E28001DF060
:103B800007F90121022005F03BFC4FF4FA60FEF733
:103B9000BDFBDFF898050F21017001F016BD0AF09A
:103BA00087FF002200211A2012F0B6F8012005F04C
:103BB000D2F905F02BFADFF8981B28001DF0E8F881
:103BC0000121022005F01CFC42F21070FEF79EFB62
:103BD000DFF858050421017001F0F7BC0AF068FF16
:103BE000002200211A2012F097F805F013FADFF8EE
:103BF000641B28001DF0CCF80321022005F000FC16
:103C000042F21070FEF782FBDFF8200504210170FC
:103C100001F0DBBC05F005FA002816D00AF05FFFC2
:103C2000002812D0DFF8301B28001DF0B1F8002169
:103C3000022005F0E5FB4FF4FA70FEF767FBDFF8B2
:103C4000EC040F21017001F0C0BCFEF76FFBDFF840
:103C50009C15097891F001010843C0B2002801F0D9
:103C6000B48405F0DEF900280AD100220021DFF833
:103C7000FC0D12F07FFADFF8341C28001DF088F8E4
:103C80000AF02DFF00280AD100220021DFF8200CC5
:103C900012F070FADFF81C1C28001DF079F80022E1
:103CA0000021DFF8140C12F0AEFA0321022005F017
:103CB000A7FB4FF4FA50FEF729FBDFF8700401214F
:103CC000017001F082BCFEF731FB002801F07D8419
:103CD000DFF8E80B0078002822D0DFF8E40B00784A
:103CE000DFF8E01B31F81020DFF8DC1B28001DF0A6
:103CF0004FF80321022005F083FBDFF8C40B0078A6
:103D0000DFF8C01B31F8100005F0D8F941F6583043
:103D1000FEF7FCFADFF814040621017001F055BC2F
:103D2000DFF8A81B28001DF033F80321022005F05E
:103D300067FB41F65830FEF7E9FADFF8F0030F2190
:103D4000017001F042BC05F0C2F9002816D005F060
:103D5000C4F9002812D1DFF8781B28001DF018F8EC
:103D60000121022005F04CFB4FF47A70FEF7CEFAE9
:103D7000DFF8B8030721017001F027BCFEF7D6FA7F
:103D800000280BD105F0A9F9DFF86014097891F04B
:103D900001010843C0B2002801F01784DFF8200BAE
:103DA0000078DFF8201B31F81020DFF8281B2800EE
:103DB0001CF0EEFF00220021280012F0DBF9DFF8F2
:103DC000B01C28001CF0E4FF0021022005F018FBC5
:103DD0004FF47A70FEF79AFADFF8E40A0078401C94
:103DE000DFF8DC1A0870DFF8D80A00781E2803D341
:103DF000DFF8CC0A00210170DFF8C00A0078002843
:103E000006D0DFF8B80A0078401EDFF8B01A087054
:103E1000C6480521017001F0D8BB05F0ECF8002878
:103E200041F0D383DFF84C1C28001CF0B1FF0021C7
:103E3000022005F0E5FA4FF47A70FEF767FADFF832
:103E4000800A0078401CDFF8781A0870DFF8700AE2
:103E500000781E2803D3DFF8680A00210170DFF81C
:103E60005C0A0078002806D0DFF8500A0078401E6F
:103E7000DFF8481A0870AD480521017001F0A5BBB4
:103E8000DFF868040078002814D0DFF86424D8A193
:103E900028001CF07DFFDFF85C040178022005F0AB
:103EA000AFFADFF854040088FEF730FADFF83C047C
:103EB00000210170FEF73AFA00280AD0DFF8B81B9B
:103EC00028001CF065FF0121022005F099FAFEF799
:103ED00030FAC6480078002801F07783DFF89C1B91
:103EE00028001CF055FF0021022005F089FA4FF44C
:103EF0007A70FEF70BFA8D480F21017001F065BB57
:103F000005F079F8002841F06083DFF8681B28008D
:103F10001CF03EFF0021022005F072FA4FF47A7087
:103F2000FEF7F4F981480F21017001F04EBBFEF756
:103F3000FDF9002801F04983DFF8440BB0F8720066
:103F40000490049ADFF83C1B20001CF021FF784805
:103F5000007800285FD0DFF8300B01210170DFF816
:103F6000200B007CDFF8241B0870DFF8200B0021F9
:103F7000A0F8011005F01CF9DFF8101BC1F80700CC
:103F8000DFF8081BC1F80300DFF8201E0860DFF827
:103F90001C0E00210171DFF8140E0021A0F805109D
:103FA000DFF8080E0499A0F80710DFF8E41ADFF82C
:103FB000E40A1CF0EDFEDFF8F40D0021C0F8151046
:103FC00004980D9005F0F4F80E9008220DA9232016
:103FD00011F0A2FE012005F06BF8DFF8BC1A2800F2
:103FE0001CF0D6FE0021022005F00AFA4FF4FA6018
:103FF000FEF78CF9DFF8A40A00210170DFF8A00AAF
:1040000000210170DFF89C0A0021017047481C2143
:10401000017001F0DABA4648007800280AD1B049A8
:1040200028001CF0B5FE0AE09C2A02003C2E02008B
:10403000A0320200DFF8701A28001CF0A9FE00214F
:10404000022005F0DDF94FF4FA60FEF75FF937481A
:104050000F21017001F0B9BADFF8500A007800288A
:1040600025D033480078002804D03048182101704A
:1040700001F0ABBA304840682F49098901FB00F3D1
:104080002E4A2F4920001CF083FE954928001CF081
:104090007FFE0021022005F0B3F940F6B830FEF7AC
:1040A00035F9DFF8080A0021017001F08EBAFEF739
:1040B0003DF9002801F08982DFF8F41920001CF096
:1040C00067FE4FF4FA60FEF721F918480F210170DE
:1040D00001F07BBADFF8D4090078002832D0144808
:1040E0000078002804D011481821017001F06DBA41
:1040F000114840681049098901FB00F30F4A104933
:1041000020001CF045FE764928001CF041FE0021ED
:10411000022005F075F940F6B830FEF7F7F8DFF841
:104120008C090021017001F050BA00BFE40A0010B0
:10413000B46B0010502E0200CC5E0010DA5E00104E
:10414000CC350200FEF7F2F8002801F03E82DFF8DD
:1041500064090078002822D0DFF8240990F835009F
:10416000002809D1DFF850090078022804D0DFF8D0
:1041700048090078012812D1DFF8401928001CF006
:1041800007FE0021022005F03BF940F6B830FEF7AB
:10419000BDF8DFF8AC0D2321017001F016BADFF88D
:1041A0001409007800280AD1DFF8141920001CF047
:1041B000EFFDDFF8101928001CF0EAFD21E0DFF820
:1041C000F8080078032817D10422DFF8FC183B20F8
:1041D00011F0A2FD00220021DFF8680D11F0CAFFE6
:1041E000DFF8E81828001CF0D3FD0AE0DB0A001015
:1041F00025730000B42A0200DFF8B41828001CF070
:10420000C7FD0021022005F0FBF84FF4FA60FEF72D
:104210007DF8DFF82C0D0F21017001F0D6B9DFF821
:104220006C080178DFF86408D0F8030012F09AF8FF
:10423000002817D0DFF8981820001CF0A9FDDFF83F
:10424000941828001CF0A4FD0021022005F0D8F8E5
:104250004FF47A60FEF75AF8DFF8E40C0F21017092
:1042600001F0B3B9DFF8240800780F2840F08C8003
:10427000DFF81808D0F80300DFF80418898F4FF42E
:10428000616202FB010804F093FF404558D2DFF859
:1042900024080078002812D0DFF83C1828001CF011
:1042A00077FD0021022005F0ABF840F6B830FEF7AC
:1042B0002DF8DFF88C0C2321017001F086B9DFF8AE
:1042C000F4070078002823D1DFF8F41720001CF051
:1042D0005FFDDFF8F01728001CF05AFD22E000BF58
:1042E000B0320200642E020098110200BF6B001071
:1042F000C85F0010C06B0010306B00108C2E0200E5
:10430000A02E0200F0150200AC260200C03202000E
:10431000DFF8541E20001CF03BFDDFF82C1C2800A9
:104320001CF036FD0021022005F06AF84FF4FA6017
:10433000FDF7ECFFDFF8080C0F21017001F045B923
:1043400000220021DFF8980E11F014FF0B22DFF895
:104350003C173F2011F0E0FCDFF8F01B20001CF0C0
:1043600017FDDFF8EC1B28001CF012FD00210220D5
:1043700005F046F84FF47A60FDF7C8FFDFF8C00B90
:104380000F21017001F021B9DFF800070178DFF893
:10439000FC06D0F8030012F08AF80021019101A96F
:1043A000009104ABDFF8042ADFF8E016C0B212F087
:1043B0009DFC002800F0B2800498002835D100222E
:1043C0000021272011F0A8FCDFF8E806007800287B
:1043D00012D0DFF8041728001CF0DAFC00210220BC
:1043E00005F00EF840F6B830FDF790FFDFF8500BFF
:1043F0002321017001F0E9B8DFF8581B20001CF000
:10440000C7FC019ADFF8501B28001CF0C1FC0021FA
:10441000022004F0F5FF41F28830FDF777FFDFF866
:10442000200B0F21017001F0D0B804F097FD002897
:1044300012D1DFF8281B28001CF0AAFC032102205F
:1044400004F0DEFF42F6E060FDF760FFDFF8F00AFF
:104450000F21017001F0B9B8DFF858060078002884
:1044600018D1049ADFF8F81A20001CF091FCDFF84C
:10447000F41A28001CF08CFC0021022004F0C0FF7C
:1044800040F6B830FDF742FFDFF8B40A0F210170A3
:1044900001F09BB804980B9004F08AFE0C9008225F
:1044A0000BA9182011F038FC049ADFF8BC1A200080
:1044B0001CF06EFCDFF8E01528001CF069FC002100
:1044C000022004F09DFF4FF4FA60FDF71FFFDFF8B4
:1044D000CC0500210170DFF8C80500210170DFF86C
:1044E000C40500210170DFF8580A1C21017001F099
:1044F0006CB800BF782E0200C4110200C82602006A
:10450000CC2A0200E4260200701A020000270200F2
:10451000B42E0200F0110200941A020000220021C1
:10452000DFF8480A11F026FE0B22DFF860153F2065
:1045300011F0F2FBDFF8341C20001CF029FCDFF83E
:10454000301C28001CF024FC0021022004F058FF3D
:1045500040F6B830FDF7DAFEDFF8E4090F2101700C
:1045600001F033B85822DFF8681D352011F0D4FB74
:10457000DFF8600D01210170DFF8540D4068DFF8AD
:10458000501D098948430490049BDFF8E82BDFF8AD
:10459000E81B20001CF0FCFB0498001EDFF8441C04
:1045A000884218D300220021DFF83C0C11F02BFECA
:1045B000DFF8C41428001CF0EBFB0121022004F0FA
:1045C0001FFF4FF4FA60FDF7A1FEDFF87409012127
:1045D000017000F0FABFDFF8C01428001CF0D8FB0F
:1045E0000021022004F00CFF4FF4FA60FDF78EFE6C
:1045F000DFF8A80400210170DFF8A4040021017095
:10460000DFF8A00400210170DFF834091C210170DB
:1046100000F0DBBFDFF82C0E0078002805D0DFF8B3
:1046200020091321017000F0D0BFFDF77FFEDFF8F5
:104630006C1409780843DFF8681409780843DFF838
:10464000641409780843C0B2002800F0BE87DFF880
:10465000F81D28001CF09CFB0321022004F0D0FE72
:1046600044F25060FDF752FE0AF048FADFF83014C9
:10467000097891F001010840DFF82814097891F0D9
:104680000101C0B2084203D0DFF81004012101701B
:10469000DFF8AC081E21017000F097BFDFF8AC0D09
:1046A00000210170DFF8340C00210170DFF8940D57
:1046B0000078002805D0DFF888081321017000F089
:1046C00084BFDFF8E0030078002803D1FDF72EFE59
:1046D000002807D0FDF735FEDFF864080F210170D0
:1046E00000F073BFDFF8B403007800285BD004F05B
:1046F00035FC002803D00AF001FA002818D1002266
:104700000021DFF8DC0B11F035FDDFF8D81B2800A5
:104710001CF03EFB0321022004F072FE42F6E06032
:10472000FDF7F4FDDFF818080F21017000F04DBF10
:1047300007F060FE002811D0DFF8AC1B28001CF049
:1047400027FB0121022004F05BFE10E0D0320200C2
:10475000DC2E0200A4210200E0320200DFF88C1BF4
:1047600028001CF015FB0321022004F049FEDFF8AD
:10477000DC0C01210170002004F09DFCDFF8700BBF
:1047800000210160002601200AF0BBF901200AF097
:10479000EBF944F62060FDF7B9FDDFF8A4071F210F
:1047A000017000F012BFBE480078002800F00D87AD
:1047B00004F0D4FB002803D00AF04EF9002818D1E9
:1047C00000220021DFF82C0B11F0D4FCDFF8281BAD
:1047D00028001CF0DDFA0321022004F011FE42F64D
:1047E000E060FDF793FDDFF858070F21017000F03E
:1047F000ECBEDFF8E80A01210170012004F05BFC47
:10480000DFF8F81A28001CF0C3FA0121022004F096
:10481000F7FDDFF8DC0A00210160002604980AF0A9
:1048200023F947F23050FDF771FDDFF814071F211F
:10483000017000F0CABEDFF8B80A006800284BD04B
:10484000DFF8900A0078DFF8881D097891F00101FF
:10485000084212D0DFF8780D01210170DFF8700AEC
:104860000068159098480068169004F0A1FC179015
:104870000C2215A9512011F04FFADFF8740A0068D4
:104880008619DFF86C0A002101603200DFF8441D50
:1048900028001CF07DFA0121022004F0B1FD42F253
:1048A0001070FDF733FD00F090BE00BFF02E020047
:1048B000E00B020018160200B81A0200CD6B0010BF
:1048C000CB6B001014620010E42A0200E421020005
:1048D000F0320200540A02000AF0B1F8DFF8F81CC6
:1048E000097808426DD1002E43D1DFF8580B0078CB
:1048F000002805D0DFF848061321017000F065BEDE
:1049000066480078DFF8441B097891F001010842FD
:1049100009D04FF4FA60FDF7F9FCDFF824061E21F8
:10492000017000F052BE5E480078DFF8B0190978D7
:1049300091F00101084209D04FF4FA60FDF7E6FC5E
:10494000DFF8FC051E21017000F03FBEDFF8D01B30
:1049500028001CF01DFA0021022004F051FD4FF444
:10496000FA60FDF7D3FCDFF8D8050F21017000F0E5
:104970002CBEDFF85C0C007800281AD0DFF8A40BFE
:1049800000210170DFF8480900681290139604F0C6
:104990000FFC14900C2212A9402011F0BDF942F234
:1049A0001070FDF7B3FCDFF898051A21017000F0D4
:1049B0000CBEFDF7C6FCDFF888051D21017000F074
:1049C00004BE36480078DFF8841A0978084221D0FE
:1049D00033480078DFF86C1A0978084331490978C0
:1049E0000843C0B2002808D10498864205DA002E98
:1049F00010D1FDF79BFC00280CD000200AF081F8B4
:104A000000200AF0B1F825480021017000F0DDBD5A
:104A1000C82E020022480078DFF8C0180978084242
:104A200000F0D3851D480078DFF8181A097808438C
:104A30001C4909780843C0B2002804D1FDF776FC70
:104A4000002800F0C285DFF8981B28001CF0A0F9B0
:104A50000121022004F0D4FC0AF01DF8FDF769FCE6
:104A60000F480021017000F0B0BD00BFC42102005A
:104A700000330200042F020010330200182F02003E
:104A8000003E001020330200A66B0010F0680010FA
:104A9000D83502008D65001030330200AF6B001076
:104AA000B16B0010A76B00102C2F0200C66B00101A
:104AB000402F0200B46B0010A56B001040330200C1
:104AC0005033020060330200E06A0010542F0200ED
:104AD00070330200682F02007C2F0200DFF8440AC6
:104AE000007800281ED007F085FC002802D10020A5
:104AF00004F0DBFA3100DFF8D80704F055FADFF8EC
:104B0000E41A28001CF044F90121022004F078FC8A
:104B100047F23050FDF7FAFBDFF824042021017042
:104B200000F053BDFDF702FC002804D104F016FA92
:104B3000002840F04A8537003A00DFF8AC1A200020
:104B40001CF026F9380007F001FCDFF8A00AFDF799
:104B5000DDFBDFF8EC032121017000F036BD934846
:104B6000C0F8156004F024FB9049C1F819000498BE
:104B700086421DDB07F03EFC002802D1002004F035
:104B800094FA8A4804F0F4F91D2288490E2011F0A5
:104B9000C3F8DFF8501A20001CF0FAF847F2305042
:104BA000FDF7B4FBDFF898032021017000F00DBD84
:104BB00007F020FC002817D01D227C490F2011F09F
:104BC000ABF837003A00DFF8201A20001CF0E0F8BC
:104BD000380007F0BBFBDFF8140AFDF797FBD84855
:104BE0002121017000F0F1BC3200DFF8981B200099
:104BF0001CF0CEF81D226D49102011F08DF804F044
:104C0000ADF9002817D0DFF8DC1928001CF0C0F837
:104C10000121022004F0F4FB002004F046FA63486E
:104C200004F0A6F947F23050FDF770FBC44820218C
:104C3000017000F0CABC00220021DFF84C0B11F01B
:104C4000E2FADFF8481B28001CF0A2F8012102203C
:104C500004F0D6FB40F6B830FDF758FBB848012108
:104C6000017000F0B2BC04F0BAF9002800F0D28064
:104C700004F0BEF9002837D137003A00DFF8681990
:104C800020001CF085F807F0B5FB002814D0DFF8F1
:104C9000001B28001CF07CF80121022004F0B0FB6E
:104CA000380007F053FBDFF84409FDF72FFBA44859
:104CB0002121017000F089BC00220021DFF8D40A14
:104CC00011F0A1FADFF8D01A28001CF061F80321D6
:104CD000022004F095FB41F65830FDF717FB984889
:104CE0000121017000F071BC0498864231D1DFF8D7
:104CF000AC1A20001CF04CF8DFF8A41A28001CF0B5
:104D000047F80121022004F07BFBDFF8C40800789B
:104D1000002815D0DFF88C0A00210170DFF8B005FB
:104D200000680690042206A9432010F0F5FF41F226
:104D30008830FDF7EBFA82481921017000F045BC7C
:104D400041F28830FDF7E2FA7D482221017000F03F
:104D50003CBC0498B04221DA07F04CFB00281DD07F
:104D60000498371A3B003200DFF83C1A20001CF090
:104D70000FF8DFF8381A28001CF00AF80121022089
:104D800004F03EFB380007F0E1FADFF86008FDF7B9
:104D9000BDFA6B482121017000F017BCDFF8300824
:104DA0000078002820D0DFF8F81901E084650010B1
:104DB00028001BF0EDFF0121022004F021FBDFF8A9
:104DC000E40900210170DFF808050068039004225F
:104DD00003A9432010F0A0FF41F28830FDF796FAB6
:104DE000574819210170F0E3DFF8C41920001BF0C7
:104DF000CFFFDFF8C01928001BF0CAFF03210220F3
:104E000004F0FEFA42F22830FDF780FA4C480F21F8
:104E10000170DAE3FDF78AFADFF8BC17097891F040
:104E200001010843C0B2002800F0CF830022002116
:104E3000DFF8840911F0E7F9DFF8801920001BF092
:104E4000A7FFDFF87C1928001BF0A2FF0321022036
:104E500004F0D6FA41F65830FDF758FA38480121E7
:104E60000170B2E307F088FA002800F0A58007F08F
:104E70008FFA8046DFF858070078002816D0DFF850
:104E8000500400680F90CDF8408004F091F9119023
:104E90000C220FA9412010F03FFFDFF83404006816
:104EA0000290042202A9432010F036FFB84521D118
:104EB000DFF8101928001BF06BFF0321022004F01B
:104EC0009FFADFF80C07007800280BD0DFF8D40831
:104ED0000021017041F28830FDF718FA18481921B5
:104EE000017072E341F28830FDF710FA1448222174
:104EF00001706AE3B8453BDAB7EB0802DFF8C8187F
:104F000020001BF045FF00220021DFF8C00811F04F
:104F10007AF900220021200011F02CF9DFF8B018F6
:104F200028001BF035FF0321022004F069FA41F646
:104F30005830FDF7EBF902480121017045E300BF4D
:104F4000E40A0010100C020090330200902F0200BF
:104F5000A42F0200B82F0200CC2F0200400C020048
:104F6000A0330200B0320200B03302001C2702005E
:104F7000B8EB0702DFF8BC1B20001BF009FF002282
:104F80000021DFF8B40B11F03EF9002200212000CF
:104F900011F0F0F8DFF8A41B28001BF0F9FE032144
:104FA000022004F02DFA41F65830FDF7AFF9DFF892
:104FB00024080121017008E3FDF7B8F9DFF818169D
:104FC000097891F001010843C0B2002800F0FD8289
:104FD00000220021DFF8680B11F015F9DFF8641BDF
:104FE00028001BF0D5FE0321022004F009FA41F24B
:104FF0007070FDF78BF9DFF8DC0701210170E4E246
:10500000DFF8A0070078002819D0DFF83C2BB2A108
:1050100028001BF0BDFEDFF8340B0178022004F0FD
:10502000EFF9DFF82C0B0088FDF770F9DFF8740753
:1050300000210170DFF89C0722210170C5E2FDF715
:1050400075F9002800F0C182DFF8081B28001BF06A
:105050009FFE0321022004F0D3F94FF4FA50FDF72C
:1050600055F9DFF8700722210170AEE2DFF8E80A97
:105070000078002816D000220021142010F04CFEE9
:10508000DFF8D81A28001BF083FE0021022004F06C
:10509000B7F940F6B830FDF739F9DFF838072321C2
:1050A000017092E2DFF8B00A007800280AD1DFF838
:1050B000B01A20001BF06CFEDFF8A81A28001BF0C5
:1050C00067FE08E0284920001BF062FEDFF8981A0E
:1050D00028001BF05DFE0021022004F091F94FF43E
:1050E000FA60FDF713F9DFF8EC060F2101706CE2AE
:1050F000DFF8640A0078002820D0DFF8700A007812
:10510000002803D0DFF8340C002101600422DFF80E
:105110002C1C2A2010F000FEDFF8541A28001BF087
:1051200037FE0021022004F06BF940F6B830FDF79D
:10513000EDF8DFF8A0062321017035E00022002100
:105140002B2010F0E9FDDFF8100A0078002815D1B7
:10515000DFF80C1A20001BF01BFEDFF8081A2800ED
:105160001BF016FE14E000BF80330200C0330200C3
:10517000E02F0200DA5E0010CC350200DFF8F419EF
:1051800020001BF005FEDFF8E01928001BF000FEF0
:105190000021022004F034F94FF4FA60FDF7B6F86C
:1051A000DFF830060F210170DFF8F80500780028DD
:1051B00000F00B82DFF8902947A128001BF0E8FDE2
:1051C000DFF888090178022004F01AF9DFF8800975
:1051D0000088FDF79BF8DFF8CC0500210170F4E1B1
:1051E0001C120200A08601004812020003F003FF17
:1051F00000281FD1F01B049988420DDBDFF8401B0B
:1052000020001BF0C5FD40F6B830FDF77FF8DFF851
:10521000C40523210170D8E1DFF8281B20001BF012
:10522000B7FD4FF4FA60FDF771F8DFF8A8050F211C
:105230000170CAE1FDF77AF8002800F0C681FDF799
:1052400078F800220021DFF8000B10F093FFBCE19A
:10525000DFF8F80A01210170DFF8F40A0078DFF8BE
:10526000F41A09780843C0B2002815D1FDF75EF89A
:10527000002811D0DFF8DC0A012101704EF6602011
:10528000FDF744F8DFF8D01A20001BF081FD012162
:10529000022004F0B5F898E1DFF8B40A0078DFF8EE
:1052A000B41A097891F001010843C0B2002827D14F
:1052B000FDF73CF8002823D000220021DFF89C0AEB
:1052C00010F058FFDFF8880A012101707DE100BF6E
:1052D000CC5E0010C76B001025730000B26B00108D
:1052E00034080200700C0200D03302006C08020087
:1052F000E46A001068060200A00C0200E03302001D
:10530000DFF84C0A0078002800F05F81DFF8500ACF
:105310000078002809D1FDF709F8DFF8381A097874
:105320000843C0B2002800F05081DFF84008007840
:1053300000281ED0DFF82C0AD0F80300DFF8241A6A
:10534000D1F80710884214D00B22DFF8181A442035
:1053500010F0E2FCDFF80C0A0178DFF8080AD0F858
:10536000030010F0D5FF0B22DFF8F819012008F038
:10537000F7FBDFF8EC090078002805D100220021B6
:10538000DFF8E40910F0F6FEDFF8E01920001BF06A
:10539000FFFC0021022004F033F8FCF78DFF03F03E
:1053A00007FF0090042200A91E2010F0B5FC40F673
:1053B000B830FCF7ABFFDFF81C042421017004E1D6
:1053C000DFF8E0030078002814D0DFF87C2783A101
:1053D00028001BF0DDFCDFF874070178022004F0E0
:1053E0000FF8DFF86C070088FCF790FFDFF8B403D4
:1053F00000210170DFF860070078002811D1DFF884
:10540000701928001BF0C4FC0121022003F0F8FFF2
:1054100042F21070FCF77AFFDFF8B8032521017023
:10542000D3E0FCF783FF002800F0CF80FCF781FF7A
:10543000DFF8401928001BF0ABFC0121022003F02B
:10544000DFFFC2E0BE6B0010FC2A0200B06B001050
:10545000DFF824090078002810D0DFF82019280090
:105460001BF096FC0121022003F0CAFF42F21070EB
:10547000FCF74CFFD74826210170A6E0FCF756FF49
:10548000002800F0A28000220021DFF8F40810F0CC
:1054900071FEDFF8E01828001BF07AFC01210220E1
:1054A00003F0AEFF42F21070FCF730FFC94826212E
:1054B00001708AE0DFF8CC080078DFF82C1C91F846
:1054C0008E100843DFF8B0180978DFF81C2C92F82A
:1054D0008E2092F001021143C0B2084212D1FCF7B3
:1054E000FEFEDFF8081C28001BF052FC03210220FE
:1054F00003F086FF42F21070FCF708FFB548272141
:10550000017062E0FCF712FF00285ED0FCF711FF8B
:1055100000220021DFF8D80B10F02CFE55E000BF70
:10552000F42F0200C96B0010DFF84C080078002847
:105530003FD1DFF8C00BB0F90020DFF8BC1B28001A
:105540001BF026FC0021022003F05AFFDFF8AC0B11
:105550000078002816D00422DFF8E017222008F097
:10556000FFFA0422DFF8D4173D2010F0D5FBDFF856
:10557000900B0078002805D00321DFF8C0070068F1
:1055800011F0DFF8DFF8600B90F88F00002809D0E9
:10559000DFF8540B90F88F004FF47A714843FCF712
:1055A000B5FE02E00A20FCF7B1FE8A480F21017027
:1055B0000BE0FCF7BBFE002807D0FCF7BAFE002288
:1055C0000021DFF8480C10F0D5FDFDF76CB80000A5
:1055D000C86B0010F0330200DB0A001025730000D6
:1055E000083002001C30020000340200701101007B
:1055F00010B50C00C0B2002821D0012800F0A28014
:10560000022800F0AA80032800F0AD80112878D08D
:10561000122800F08280132800F08B80212800F0EF
:10562000A780222800F0A980FE280BD0FF2840F098
:10563000A88000220021FF2008F092FAA1E0FCF7E8
:10564000DFFC9EE0DFF8C80B0078401CDFF8C01BD1
:10565000087020001DF0DEFF04000021DFF8B40B0D
:1056600015F0E6FF0021DFF8AC0B16F0BDF8DFF80F
:10567000A40B15F0B3FFDFF89C0B15F0C9FF2268EF
:105680000021DFF8900B15F0E9FF62680121DFF8D7
:10569000840B15F0E3FFA2680221DFF8780B15F008
:1056A000DDFF2069421C0621DFF8680B15F0D6FFEC
:1056B000606900F26C720721DFF8580B15F0CEFF1D
:1056C000E2680421DFF84C0B15F0C8FFA269032142
:1056D000DFF8400B15F0C2FFE2690521DFF8340B5B
:1056E00015F0BCFF0121DFF82C0B15F0A1FFDFF84E
:1056F000282B0021DFF81C0B16F09EF815F0A8F9F6
:105700003FE0DFF8F0090088401EDFF8E819088064
:10571000DFF8400C0121017033E0DFF8D809008880
:10572000401CDFF8D0190880DFF8280C0121017037
:1057300027E0DFF8C00921880180DFF8180C01217B
:1057400001701EE02178D4F8030010F0E1FD21780B
:10575000D4F8030010F002FF13E02268217A606899
:1057600010F0C4FE0DE00121206811F027F808E0D8
:105770000221206810F0E5FF03E00321206810F00B
:10578000E0FF10BDE4350200142B020030300200AF
:1057900044300200BC0402002C2B020058300200EE
:1057A00010340200BF6B00102034020030340200BD
:1057B0004034020004220200DC1A02006C300200B5
:1057C000442B02005C2B020050340200001B02003C
:1057D00080300200E40A001010B582B00C00110005
:1057E000C0B20200022A77D0042A00F09681052A6E
:1057F00000F08B800A2A00F0AA800B2A00F0DB80E0
:10580000122A74D0132A00F0DE80142A00F0E080FF
:10581000152A64D0162A36D0192A54D01A2A57D0FD
:105820001B2A63D01C2A61D01D2A3FD01E2A00F0FB
:10583000D6801F2A00F0DC80202A00F0E280212A96
:1058400000F0ED80222A00F03F81282A00F04981F3
:10585000292A00F04A812C2A00F04A812D2A00F0E2
:105860004B81322A00F04B81332A00F04C81372AD9
:1058700000F04C81382A00F04D813C2A3CD0462A69
:1058800000F09C804EE1DFF8D00A0078002840F05C
:10589000508158222100DFF8C40A1DF028FEFCF7D1
:1058A00050FDDFF8B40A0121017042E1DFF8B00ACF
:1058B00001210170DFF8A80A0078002840F0398142
:1058C000FCF73FFD35E10121206810F077FF30E162
:1058D000206810F095FF2CE1FCF713FC29E104226D
:1058E0002100DFF8800A1DF002FE22E121E1DFF84D
:1058F000F807218881871CE1DFF8F80721880180FB
:10590000DFF8500A0121017013E1E01C1BF01EF8C2
:10591000502880F00E8160788D4908808C4800887E
:1059200000028B4908808A4800882178084388490A
:105930000880A07885490870E11C83481AF0FAFBBA
:10594000DFF8240A01210170FCF7FBFCF1E0DFF82D
:1059500010040078002827D0DFF8100A0121017018
:10596000012004F03DFCDFF8080A0078002808D187
:1059700000220021162010F0CFF9DFF8F8090121EC
:1059800001704EF66020FCF73EFCDFF8EC090021C8
:105990000170FCF791FC03F00BFC0090042200A9BD
:1059A0001F2010F0B9F9C4E000220021DFF8CC0973
:1059B00010F0E0FBBDE0FCF792FCBAE0DFF8C009B4
:1059C00001210170B5E0DFF820072188C186B0E031
:1059D00036222100DFF8AC091DF089FDA9E003F0B3
:1059E000BDFA002800F0A580206803F047FBA0E086
:1059F00003F0B4FA002800F09C80206803F032FB2A
:105A000097E0012003F0A7FA03F022FB06F0E8FC80
:105A100006F00FFD09F09FF809F0D1F889E0208821
:105A2000002846D0DFF860090078DFF860190978AF
:105A300004E0401C1E2800DB0020491E002906D07F
:105A4000DFF84C2932F8102023889A42F1D100293E
:105A50006FD1DFF8380900781E286AD2DFF83409E0
:105A60000078DFF82C19228821F810200222DFF8B4
:105A700024090078DFF8181911EB4001482010F0D4
:105A80004BF9DFF810090078401CDFF8081908709E
:105A9000DFF8000900781E2803D3DFF8F80800219A
:105AA0000170DFF8E8080078401CDFF8E0180870A3
:105AB0003FE00020DFF8D4180870DFF8D81808702D
:105AC000DFF8C418087034E003222100DFF8C808AA
:105AD0001DF00DFD0322DFF8C018472010F01CF95F
:105AE00027E0200009F014F823E009F034F820E062
:105AF000200009F048F81CE009F061F819E02000E6
:105B000006F062FC15E006F06BFC12E0200006F0E7
:105B100084FC0EE006F08DFC0BE0DFF8800801212C
:105B2000017006E00022C0B20100DFF8740810F036
:105B300021FB13BD6034020040160200382702002A
:105B40002422020094300200C85F0010C06B0010D5
:105B5000306B001044220200B46B0010703402005D
:105B6000503302006033020090330200A66B001035
:105B7000A83002008033020010B584B00122DFF8A3
:105B80002418042007F098FC0122DFF81C181920C3
:105B900007F092FC0122DFF81418FB2007F08CFCC0
:105BA0000020029000208DF80400002411E001AADA
:105BB00002A9601CC0B210F0D9FF002808D09DF8DF
:105BC0000400421E0298411C601DC0B207F074FC24
:105BD000641C052CEBDB0422DFF8D4170A2007F045
:105BE0006BFC0122DFF8CC171B2007F065FC0122BB
:105BF000DFF8C417282007F05FFC0222DFF8BC178B
:105C00001F2007F059FC0422DFF858171C2007F06A
:105C100053FC0222DFF8A817232007F04DFC3622A0
:105C2000DFF860170B2007F047FC0A20ADF80000F2
:105C3000DFF8B40490F874008DF80200032200A984
:105C4000102007F039FC3220ADF80000DFF898048E
:105C500090F875008DF80200032200A9102007F0CB
:105C60002BFC6420ADF80000DFF87C0490F876008F
:105C70008DF80200032200A9102007F01DFC4FF44C
:105C8000FA70ADF80000DFF8600490F877008DF846
:105C90000200032200A9102007F00EFC4FF47A70D6
:105CA000ADF80000DFF8400490F878008DF80200AD
:105CB000032200A9102007F0FFFB41F28830ADF865
:105CC0000000DFF8240490F879008DF80200032228
:105CD00000A9102007F0F0FB0122DFF8E8161120E0
:105CE00007F0EAFB0822DFF8E016122007F0E4FBD9
:105CF0000822DFF8D8162C2007F0DEFB0122DFF89F
:105D0000D0160E2007F0D8FB0122DFF8C8160D20B0
:105D100007F0D2FB0122DFF8C0162A2007F0CCFBE7
:105D20000122DFF8B8162B2007F0C6FB0122DFF8AE
:105D3000B016242007F0C0FB1FBD0000E06A001071
:105D4000BC300200D030020074120200C16B00109F
:105D5000C26B0010C36B0010E4300200BCFB0100FA
:105D6000B96B0010F0680010A0120200F8300200B9
:105D70000C31020080340200B56B001020310200AB
:105D800064220200BA6B001001B59DF800000428DF
:105D900041D0052867D006286FD0072877D008287B
:105DA00000F07F80092800F086800A2800F08D80AE
:105DB0000B2800F0CE800D2800F05F810E2800F047
:105DC0004D810F2800F06381102800F0CD8011284C
:105DD00000F01F81122800F02B8119282AD01B28DF
:105DE0007CD01C2800F0A1801F2800F0958023287B
:105DF00000F0A680242800F0668128287DD02A287B
:105E000000F04D812B2800F054812C2800F01B81DC
:105E1000FB281ED061E1B448097880F82D10B24803
:105E200090F82D0003F0E4FC00220021002007F090
:105E300043FB57E1AC48097880F82E10AA4890F847
:105E40002E0003F0E5FC00220021002007F034FBC7
:105E500048E1A548097880F82F1000220021002091
:105E600007F02AFB3EE1D2B2012010F0EEFD002245
:105E70000021002007F020FB34E1D2B2022010F014
:105E8000E4FD00220021002007F016FB2AE1D2B237
:105E9000032010F0DAFD00220021002007F00CFBA7
:105EA00020E1D2B2042010F0D0FD00220021002019
:105EB00007F002FB16E1D2B2052010F0C6FD002269
:105EC0000021002007F0F8FA0CE187480968016317
:105ED00000220021002007F0EFFA03E108780028F3
:105EE00001D0012000E000207F4981F83400002229
:105EF0000021002007F0E0FAF4E00878002801D043
:105F0000012000E00020784981F8350000220021BE
:105F1000002007F0D1FAE5E073480988C186002225
:105F20000021002007F0C8FADCE00422DFF8340486
:105F30001DF0DDFA00220021002007F0BDFAD1E0BB
:105F400069480988818700220021002007F0B4FAFF
:105F5000C8E03622DFF82C041DF0C9FA0022002127
:105F6000002007F0A9FABDE00888891C80B20A2841
:105F70000ED0322816D064281ED0B0F5FA7F25D076
:105F8000B0F57A7F2CD041F28832904232D03AE09C
:105F90000878002801D0012000E00020524981F853
:105FA000740030E00878002801D0012000E00020D3
:105FB0004D4981F8750026E00878002801D00120BD
:105FC00000E00020484981F876001CE008780028AD
:105FD00001D0012000E00020434981F8770012E061
:105FE0000878002801D0012000E000203E4981F817
:105FF000780008E00878002801D0012000E00020A7
:10600000394981F8790000220021002007F054FA74
:1060100068E00878002801D0012000E00020324923
:1060200081F87A0000220021002007F045FA59E0AB
:106030000822DFF894031DF05AFA00220021002004
:1060400007F03AFA4EE00822DFF880031DF04FFA1D
:1060500000220021002007F02FFA43E008780028F2
:1060600001D0012000E000201F4981F88B000022B0
:106070000021002007F020FA34E01B48097880F85E
:106080008C1000220021002007F016FA2AE0FCF70D
:1060900013F900220021002007F00EFA22E0124836
:1060A000097880F88D1000220021002007F004FA02
:1060B00018E00D48097880F88E1000220021002099
:1060C00007F0FAF90EE00848097880F88F100022EE
:1060D0000021002007F0F0F904E0012200A90120CE
:1060E00007F0EAF901BD0000003E00108422020022
:1060F000A40802002E6B001090340200A46B001064
:10610000A26B001070B50C00C0B2E02814D0ED28CE
:106110005DD0EE2865D0EF286DD0F1280FD0F228A1
:106120001FD0F32828D0F4282BD0F52834D0F62817
:1061300037D0F72840D067E0FBF7E3FF64E025782D
:10614000641C2688A41C03F033F821683C2202FB5F
:106150001102241D310089B22800C0B213F004FFDF
:1061600052E02078002801D0012000E00020C0B2D9
:1061700008F02EFD641C47E0208808F0B5FDA41C43
:1061800042E02078002801D0012000E00020C0B2C9
:1061900006F07AF9641C37E0208806F0D7F8A41CD2
:1061A00032E02078002801D0012000E00020C0B2B9
:1061B00002F096FF641C27E02078002801D001201F
:1061C00000E00020C0B202F091FF641C1CE02078C7
:1061D000002801D0012000E0002082490870641CE2
:1061E00012E02078002801D0012000E000207E4944
:1061F0000870641C08E02078002801D0012000E02D
:1062000000207A490870641C70BD0000880A0200F2
:10621000CC09001000400240DDEEAA553EB516F054
:10622000A1F904F0A9F803F0FBFF03F0B5FF04F0B7
:106230003DFB6F48006850F480606D4908600024A1
:106240006C484FF48061016000256B48006850F095
:106250000200694908606948006850F00400674915
:10626000086067480221016066484821016064486F
:10627000012101606448FBF7D3FE17F0FDFE012801
:1062800004D117F0FFFE61480121017001210020B7
:1062900017F0C1FE5E4817F0E2FE10F09EFB0028EA
:1062A00003D05C480021017009E05A4801210170C7
:1062B000594864210180FBF7BDFE10F068FB574888
:1062C00018F0CEFE0321564815F0C8FA554908606B
:1062D00054480068000C5049088018F011FB5248DF
:1062E0004078401C5049487014F01BFD15F06AFDC1
:1062F00016F0B6F83E48016821F480610160002480
:106300004FF4006249494A4817F038F848480FF0FE
:10631000FFFC474806F06AFD4FF480724549464845
:1063200017F02CF844480FF0B9FC434811F0DCF8A2
:10633000022002904FF47A70019040480090404B48
:1063400064224049404819F0B1FC18F0B9FA002025
:106350003EBD0000DC0A0010C66B0010CC5E0010D1
:10636000C96B0010383E0010BF6B0010C56B0010E9
:10637000B66B0010C46B0010D16B0010D00C020083
:10638000DD0A00103E3E0010CB6B0010CD6B0010FC
:1063900014620010CC6B0010903E0010BE6B001019
:1063A000681602002D3E00102E3E00102F3E0010F9
:1063B000303E0010343E0010353E0010363E0010D6
:1063C0003C3E00107A3E00107B3E0010833E0010E1
:1063D0008B3E00108C3E00108D3E00108E3E001053
:1063E0008F3E0010CE6B0010CF6B0010D06B0010F2
:1063F00040C009205CC00920C4C00F40A8C10F40A4
:10640000044000400C40004020A10700A06B001099
:10641000404B4C00A16B00102E6B0010C8680010A0
:1064200000400240DC6A0010CC090010901A0010F5
:10643000C0650010EC580010A4650010183A001058
:1064400015240000F03502001C64001038B500244B
:106450000025DFF8F4090068401CDFF8EC1908603B
:10646000DFF8E80910210170DFF8E0093021417000
:1064700001230222DFF8D419DFF8D40911F0C6FC99
:10648000DFF8D009C0690500DFF8C809C069401B02
:10649000652824DA00230122DFF8B019DFF8B009FB
:1064A00011F0E7FC0028EFD0DFF89C090068002815
:1064B00006D0DFF894090068401EDFF88C190860E8
:1064C000DFF888090078800609D4DFF8A80B0021DE
:1064D000017000220021DFF8A00B0FF094FE0A20CB
:1064E00014F03AFCDFF8640910210170DFF85C0950
:1064F0003121417001230222DFF85019DFF85009E1
:1065000011F084FCDFF84C09C569DFF84809C0695F
:10651000401B652824DA00230122DFF83019DFF858
:10652000300911F0A6FC0028EFD0DFF81C09006844
:10653000002806D0DFF810090068401EDFF80819AF
:106540000860DFF808090078000709D5DFF8240B98
:106550000021017000220021DFF8200B0FF053FE14
:106560000A2014F0F9FBDFF8E40810210170DFF8CD
:10657000DC083221417001230222DFF8D018DFF855
:10658000D00811F043FCDFF8CC08C569DFF8C40877
:10659000C069401B652833DA00230122DFF8AC18FC
:1065A000DFF8AC0811F065FC0028EFD0DFF89808A0
:1065B0000068002806D0DFF890080068401EDFF869
:1065C00088180860DFF884080078400609D5DFF8ED
:1065D000A40A0021017000220021DFF8A40A0FF0B4
:1065E00012FEDFF868080078800609D5DFF8840A13
:1065F0000021017000220021DFF8880A0FF003FE5D
:106600000A2014F0A9FBDFF8440810210170DFF81C
:106610003C083321417001230222DFF83018DFF8F3
:10662000300811F0F3FBDFF82C08C569DFF8240807
:10663000C069401B652851DA00230122DFF80C18DD
:10664000DFF80C0811F015FC0028EFD0DFF8F80790
:106650000068002806D0DFF8F0070068401EDFF869
:10666000E8170860DFF8E4070078400709D5DFF88D
:10667000040A0021017000220021DFF80C0A0FF04B
:10668000C2FDDFF8C8070078000709D5DFF8E40984
:106690000021017000220021DFF8F0090FF0B3FDA6
:1066A000DFF8A8070078800609D5DFF8C8090021BF
:1066B000017000220021DFF8D8090FF0A4FDDFF8F7
:1066C0008C070078400609D5DFF8A8090021017081
:1066D00000220021DFF8BC090FF095FD0A2014F01C
:1066E0003BFBDFF8680710210170DFF860073421F9
:1066F000417001230222DFF85417DFF8540711F02C
:1067000085FBDFF85007C569DFF84807C069401B03
:10671000652838DA00230122DFF83017DFF8300768
:1067200011F0A7FB0028EFD0DFF81C070068002855
:1067300006D0DFF814070068401EDFF80C17086069
:10674000DFF85409007800280ED1DFF80007007840
:10675000000709D5DFF8400901210170002200215E
:10676000DFF838090FF006FDDFF8E0060078400694
:1067700009D5DFF800090021017000220021DFF8AF
:1067800020090FF040FD0A2014F0E6FADFF8BC06FD
:1067900010210170DFF8B406352141700123022277
:1067A000DFF8A816DFF8A80611F030FBDFF8A40622
:1067B000C569DFF8A006C069401B65281BDA002305
:1067C0000122DFF88816DFF8880611F052FB002856
:1067D000EFD0DFF874060068002806D0DFF86806FE
:1067E0000068401EDFF860160860DFF86006007879
:1067F000800600D501240A2014F0AEFADFF848061E
:1068000000680A280DDBDFF8400600210160DFF890
:1068100064080021017000220021DFF888080FF0D1
:10682000F2FC2000C0B232BDDFF87C1800E0491C49
:106830000200501E002A0DD00A781C2AF7D0491CED
:10684000DFF868281268DFF86038D2189142F3D375
:10685000002000E00800704730B583B00C00DFF87E
:1068600050180870DFF8441800220A60DFF8441856
:106870000978491CDFF83C281170DFF838180978CE
:10688000202903D2DFF82C1820220A70DFF81C1808
:106890000968DFF8B82502238B54DFF8101809685F
:1068A000491CDFF808281160DFF800180968DFF8D4
:1068B0009C2541238B54DFF8F4170968491CDFF845
:1068C000EC271160DFF8E4170968DFF8802545231D
:1068D0008B54DFF8D8170968491CDFF8D0271160FE
:1068E000DFF8C8170968DFF8642552238B54DFF8F6
:1068F000BC170968491CDFF8B4271160DFF8AC1732
:106900000968DFF8482546238B54DFF8A01709688B
:10691000491CDFF898271160DFF890170968DFF845
:106920002C25DFF890371B788B54DFF88017096827
:10693000491CDFF8782711600200DFF87C17DFF8C8
:106940006C070068DFF80435C0181AF021FADFF888
:106950005C1709684018DFF854170860DFF84C0727
:106960000068DFF8E8141C224254DFF84007006892
:10697000401CDFF838170860E4B2002C55D0DFF86F
:10698000D4040078401CDFF8CC14087002F010FC2E
:10699000019014F05DF801A81CF03CFE0400606951
:1069A000643800902069431CE268DFF81017DFF8B4
:1069B000FC060068DFF8945440191AF0E9F9DFF892
:1069C000EC1609684018DFF8E4160860DFF8DC060A
:1069D0000068DFF878141C224254DFF8D006006803
:1069E000401CDFF8C81608606368A268DFF8D0169C
:1069F000DFF8B8060068DFF8544400191AF0C8F947
:106A0000DFF8A81609684018DFF8A0160860DFF85C
:106A10009C060068DFF834141C224254DFF88C0610
:106A20000068401CDFF88416086037BD10B504000C
:106A3000200019F08BFF002106E00A5DF02A02D346
:106A40000A5D103A0A55491C814208DA0A5DC03ACB
:106A5000D2B2302AF1D20A5D403A0A55F3E710BDAE
:106A600010B504002000FFF7E1FF220028A1DFF8A5
:106A70003C060068DFF8D433C0181AF089F9DFF853
:106A80002C1609684018DFF824160860DFF81C0689
:106A90000068DFF8B8131C224254DFF810060068C3
:106AA000401CDFF80816086010BD10B5DFF8FC05C3
:106AB0000068DFF8981303224254DFF8F0050068FD
:106AC000401CDFF8E81508600020002104E0DFF832
:106AD0007C238A5C1018491CDFF8D025126891428B
:106AE000F5DBC2B2C0F30723DFF8D815DFF8BC0529
:106AF0000068D64C00191AF04BF9DFF8B015096898
:106B00004018DFF8A8150860DFF8A005006810BD80
:106B10002573000030B589B001240120FFF784FE01
:106B200003AADFF8A4151BF0CDFB0220FFF77CFEC3
:106B300006AB07AADFF894151BF0C4FB079806996B
:106B400050EA01250320FFF76FFE05AB04AADFF82A
:106B50007C151BF0B7FB0398C0070AD5DFF81405B6
:106B60000021017000220021DFF864050FF04BFBCB
:106B70000024039880070AD5DFF8F804002101708B
:106B800000220021DFF84C050FF03DFB00240398A4
:106B900040070AD5DFF8DC04002101700022002143
:106BA000DFF834050FF02FFB0024039880060AD588
:106BB000DFF8C0040021017000220021DFF81C056D
:106BC0000FF021FB0024DFF81805007800280DD114
:106BD000039800070AD4DFF808050121017000229C
:106BE0000021DFF800050FF0C5FA06E00398000762
:106BF00003D5DFF8EC0400210170DFF8EC04007825
:106C000000280DD10398C0060AD5DFF8DC04012165
:106C1000017000220021DFF8D4040FF0ABFA06E087
:106C20000398C00603D4DFF8C00400210170DFF828
:106C3000C004007800280DD1039840060AD5DFF87B
:106C4000B0040121017000220021DFF8A8040FF038
:106C500091FA06E00398400603D4DFF8940400217B
:106C60000170DFF89404007800280DD10398000625
:106C70000AD4DFF884040121017000220021DFF82A
:106C80007C040FF077FA06E00398000603D5DFF8DE
:106C900068040021017015F00700DFF86414087023
:106CA0002800C0060AD5DFF8CC03002101700022BD
:106CB0000021DFF850040FF0A6FA00242800000697
:106CC0000AD5DFF8B0030021017000220021DFF8AF
:106CD00038040FF098FA0024E8050AD4DFF894038A
:106CE0000021017000220021DFF820040FF08BFA50
:106CF0000024DFF81C04007800280CD1A8050AD570
:106D0000DFF80C040121017000220021DFF80404E7
:106D10000FF030FA05E0A80503D4DFF8F4030021F2
:106D20000170DFF8F4030078002810D128050ED494
:106D3000DFF8E4030121017000220021DFF8DC0309
:106D40000FF018FADFF8D8030121017005E02805DB
:106D500003D5DFF8C40300210170DFF8C803007811
:106D600000280CD1E8040AD5DFF8B803012101702E
:106D700000220021DFF8B0030FF0FCF905E0E80481
:106D800003D4DFF8A003002101700498059908439B
:106D9000002834D00498152804D019280CD02928AC
:106DA00014D01AE00024B348047000220021DFF858
:106DB0007C030FF028FA22E00024AE480470002281
:106DC0000021DFF86C030FF0D5F918E00022002154
:106DD000DFF860030FF0CEF911E00024059802906F
:106DE000049801900095039BB1480278D249174856
:106DF00019F0CEFF0022002114480FF0BBF9E4B2D5
:106E0000002C09D010480068002819D00E480068EE
:106E1000401E0D49086013E00B480068801C0A49B9
:106E20000860094800680A280ADB07480021016059
:106E3000904800210170002200219A480FF0E3F9E8
:106E40002000C0B209B030BD6C6A00104053001081
:106E500000C00040CC0900102DE9F14F86B0B748C2
:106E60000068401CB54908600324FFF71EFE04902B
:106E700001260023012200A9B14810F0FAFF0028E2
:106E8000F7D1F6B2002E07D00123049A8649AC4808
:106E900010F0BCFF002608E015208DF8000001234B
:106EA000012200A9A64810F0B1FF5FF000095FF0D1
:106EB000000AA448C5695FF0010B002700230122E6
:106EC00000A99F4810F0D5FF002800F0B9805FFAB4
:106ED00089F9B9F1000F08D0B9F1020F43D02BD3D3
:106EE000B9F1040F79D061D3AAE09DF8000002281F
:106EF0000BD19DF800806C489DF800100AF8001036
:106F00001AF1010A5FF001099AE09DF800001528C6
:106F100003D101265FF0000B92E09DF800001828D5
:106F200040F08E80012700226148017886480FF0EA
:106F30006AF95FF0000B83E09DF800005D49097875
:106F400088420DD19DF8000010EB080856489DF8C6
:106F500000100AF800101AF1010A5FF002096FE050
:106F60005FF0000B6CE09DF8000010EB08084E4845
:106F70009DF800100AF800101AF1010ABAF1040F86
:106F80005ED149480021017103AA4B496F481BF0AB
:106F900099F9012807D1039845490978884202D117
:106FA0005FF003094CE05FF0000B49E09DF8000042
:106FB00010EB08083C489DF800100AF800101AF180
:106FC000010A9DF8000003283AD11FFA88F83748D3
:106FD000C0F800A05FF0040932E033489DF80010CB
:106FE0000AF800101AF1010A30480068001D8245B5
:106FF00026D12E4800682C4940180021017102ABAF
:1070000001AA304929480068DFF89CC010EB0C0049
:107010001BF058F9022811D10198029950EA012079
:1070200001900198804506D1FFF774FD97F00101AA
:107030000840C0B21BE05FF0000B01E05FF0000B06
:1070400006984049C969491B884201DA5FF0000B84
:107050005FFA8BFBBBF1000F7FF430AFFA2013F027
:107060007BFE2000441E00287FF403AF002007B001
:10707000BDE8F08FCC0A0010641E0200841E0200DE
:10708000AC290200EC24020060140200C4290200B2
:1070900088140200B40F0200506B00107818020030
:1070A000A41E0200E82C020040530010706A001079
:1070B0004D6B00104F6B00101C3702002032020095
:1070C000303502003C35020024370200483502000A
:1070D000DC29020008250200F42902002425020010
:1070E000516B001040250200526B0010C41E0200BC
:1070F000536B0010B0140200546B0010E41E020029
:10710000CD0A0010041F0200241F0200FC2C020004
:10711000556B00105C250200566B0010102D02000C
:107120004E6B0010576B0010441F02009C180200A9
:10713000641F0200242D0200ECFD01006C6A0010A7
:1071400000C00040CC090010D814020042530010C7
:10715000F0B5C9B0DFF8400CD0E90023CDE94323F6
:1071600043A818F0A5F8DFF8340CD0E90023CDE9E6
:10717000412341A818F09CF81EA810F019FE4FF406
:1071800016501E9003208DF87D0000208DF87C00A5
:1071900000208DF87E001EA9DFF8700E10F05EFD55
:1071A00016A810F01CFF03208DF85B0016A9DFF86D
:1071B0005C0E10F0B6FE0121DFF8500E10F016FF45
:1071C0004FF4FA6013F0C8FD4EF6602403E0DFF8D8
:1071D0003C0C00210170DFF8380C007800283BD10E
:1071E000DFF8300C00210170DFF82C0C0021017059
:1071F000DFF8280C00210170DFF8240C0021017059
:10720000DFF8200C00210170DFF81C0C0021018048
:10721000DFF8180C00210170DFF8140C0021017058
:10722000DFF8100C00210170DFF80C0C0021017058
:10723000DFF8080C00210170DFF8040C0021017058
:10724000DFF8000C00210170DFF8FC0B0021016069
:10725000DFF8F80B002101604FF4FA7013F07CFDA9
:10726000DFF8AC0B00780028B5D0DFF8780E007896
:10727000002828D116A9DFF8940D10F052FEFFF770
:10728000E5F8C0B2012818D1DFF8880B01210170A0
:107290004FF4FA70A4B2844215D3B4F5FA744FF4E3
:1072A000FA70A4B284420ED200220021DFF8A00BB3
:1072B0000EF060FF4EF6602405E04EF66024DFF825
:1072C000540B00210170DFF8440B007800286CD0CB
:1072D000DFF8100E007800287FF479AF00214320FA
:1072E000FFF7BAFAC820FFF7B7FD00283FF473AFE5
:1072F0000520FFF799FA2FA9009130AB31AADFF8EA
:10730000E81D1AF0DFFF0620FFF78EFA2DAB2EAA3C
:10731000DFF8AC1C1AF0D6FF0021DFF8D00D14F016
:1073200087F90021DFF8C40D14F05EFADFF8BC0D18
:1073300014F054F9DFF8B40D14F06AF900220021BA
:10734000DFF8A80D14F08AF92D9A0121DFF89C0DC1
:1073500014F084F92E9A0221DFF8900D14F07EF9D2
:10736000309A0621DFF8840D14F078F92F9810F583
:10737000FA620721DFF8740D14F070F9319A0421D4
:10738000DFF8680D14F06AF90121DFF8600D14F0E0
:107390004FF9DFF8502E0021DFF8500D14F04CFAB1
:1073A000DFF8680A0021017015E7DFF8980A007815
:1073B000002845D0DFF82C0D007800283BD10121B2
:1073C0003220FFF749FADFF8800A0268DFF8181E5A
:1073D00006A819F0DDFC06A8FFF742FBDFF8B01C99
:1073E00006A819F0D5FC06A8FFF73AFB41F2883051
:1073F000FFF732FD002822D00620FFF715FA2CAA4D
:10740000C0A11AF05FFF2C9818F0C8FC02000B0016
:10741000DFF8801C06A819F0BBFC0022002106A89A
:107420000EF0A8FEDFF8200A00210160DFF8140A40
:107430000021017003E0DFF80C0A00210170CAE6A8
:10744000DFF8FC090078002845D0DFF8980C0078B8
:1074500000283BD101213320FFF7FEF9DFF8E809CE
:107460000268DFF8841D06A819F092FC06A8FFF751
:10747000F7FADFF81C1C06A819F08AFC06A8FFF72B
:10748000EFFA41F28830FFF7E7FC002822D006200F
:10749000FFF7CAF92BAA9BA11AF014FF2B9818F03A
:1074A0007DFC02000B00DFF8441D06A819F070FCFB
:1074B0000022002106A80EF05DFEDFF88C090021F5
:1074C0000160DFF87C090021017003E0DFF870093A
:1074D000002101707FE6DFF860090078002818D0ED
:1074E000DFF8000C007800280ED101213020FFF7D2
:1074F000B3F949F64040FFF7AFFC002808D0DFF8A9
:1075000038090021017003E0DFF82C090021017027
:1075100061E6DFF818090078002834D0DFF8C40BE2
:10752000007800282AD101213120FFF795F9DFF8F2
:107530000009007800280AD0DFF8F4080021017063
:107540009EA106A819F024FC06A8FFF789FA49F6BF
:107550004040FFF781FC002803D0DFF8D00800216D
:10756000017001214220FFF777F94FF47A70FFF79D
:1075700073FCDFF8C0080121017003E0DFF8AC08FC
:107580000021017027E6DFF8AC080078002838D029
:10759000DFF8500B007800282FD101210320FFF7DE
:1075A0005BF94FF4FA70FFF757FC002829D0002050
:1075B000ADF84E000020ADF84C000020ADF84600BC
:1075C0000720FFF731F90DF1460313AADFF8841DF8
:1075D0001AF078FEBDF84600BDF84C1051EA0020C4
:1075E000ADF84E0002220DF14E0146200EF094FB44
:1075F000DFF840080021017003E0DFF838080021BF
:107600000170DFF820080078002837D0DFF8D40AAE
:107610000078002826D100217C20FFF71DF9DFF833
:107620000808008880B2030A9BB2DFF8FC070078E4
:10763000C2B2DFF8D01B06A819F0AAFB06A8FFF714
:107640000FFA4FF47A60FFF707FC002804D1DFF847
:10765000A00E0121017005E00222DFF8CC174920BD
:107660000EF05AFB642013F077FBDFF8A807012126
:107670000170DFF8B00700210170ACE5DFF8BC074E
:107680000078002800F06D81002500260027DFF833
:10769000540A0078002837D101213420FFF7DCF8A4
:1076A0004FF47A70FFF7D8FB002843D00520FFF78E
:1076B000BBF832AA13A11AF005FE0F20FFF7B4F8A9
:1076C00033AA10A11AF0FEFD1520FFF7ADF834AA79
:1076D0000CA11AF0F7FD1620FFF7A6F835AA09A1AC
:1076E0001AF0F0FD1720FFF79FF836AA05A11AF04F
:1076F000E9FD369818F0FCFCDFF85017086001250A
:1077000018E000BF25660000DFF84C0C3290DFF86F
:107710004C0C3390DFF8480C3490DFF8480C35906F
:10772000DFF8440C3690369818F0E2FCDFF81C17AE
:1077300008600125052013F00FFBDFF8A809007889
:1077400000283DD100213720FFF786F84FF47A70EA
:10775000FFF782FB00284CD00F20FFF765F837AA0F
:10776000ADA11AF0AFFD1120FFF75EF838AAAAA16B
:107770001AF0A8FD1220FFF757F839AAA6A11AF0AF
:10778000A1FD1320FFF750F83AAAA3A11AF09AFD21
:107790003A9818F0ADFCDFF8B41608601420FFF733
:1077A00043F83BAA9CA11AF08DFD1620FFF73CF888
:1077B0003CAA99A11AF086FD01261AE0303100009A
:1077C000DFF8980B3790DFF8980B3890DFF8940BC0
:1077D0003990DFF8940B3A903A9818F089FCDFF86A
:1077E0006C160860DFF8840B3B90DFF8840B3C904C
:1077F0000126052013F0B0FADFF8E8080078002829
:1078000040F0858000213D20FFF726F84FF47A7084
:10781000FFF722FB002800F095800520FFF704F811
:1078200004AB05AADFF8441E1AF04CFD0498059934
:1078300051EA0020ADF8F4000620FEF7F5FF04AB96
:1078400005AADFF8281E1AF03DFD0498059951EAB3
:107850000020ADF8F6000820FEF7E6FF04AB05AA0D
