:1000000000040010F59301004D5C0100555C0100F7
:0C0010005D5C0100655C01006D5C01009E
:10001C003A9AF7EF0000000000000000000000001A
:10002C00755C01007D5C010000000000D56E0100D4
:10003C00FD460100855C01008D5C0100955C0100B2
:10004C009D5C0100A55C0100AD5C0100B55C01008C
:10005C00BD5C0100C55C0100CD5C0100D55C0100FC
:10006C00DD5C0100E55C0100ED5C0100F55C01006C
:10007C00FD5C0100055D01000D5D0100155D0100D9
:10008C001D5D0100255D0100815F00002D5D0100FB
:10009C00355D01003D5D0100455D010023F0000070
:1000AC004D5D010027670000555D01005D5D01009D
:1000BC00655D01006D5D0100755D01007D5D0100F8
:0402FC0021436587AE
:1003000031323334350000000000000000000000EE
:1003100000000022C7A50003005B00A8C000FFFF8B
:10032000FF7900A8C00100A8C07900A8C00228F188
:10033000293230313420C0E2F2EECFE0F0EA0000A2
:100340000000002838313229D2E5EB2ECFEEE4E46C
:10035000E5F0E6EAE80000000F5A64010000000042
:10036000010003000001000001000000173B000035
:10037000173B0000173B0D05020501202020C0C2DD
:10038000D2CECCC0D2C8D7C5D1CAC0DF20CFC0D052
:10039000CACEC2CAC0202020000500C2DAC5C7C428
:1003A000CDCEC920C1C8CBC5D2000D0605050000C1
:1003B0000300CFF0EEE8E7E2EEE4F1F2E2EE2C200B
:1003C000EEE1F1EBF3E6E8E2E0EDE8E52C20F0E524
:1003D000ECEEEDF220EFEBE0F2EDFBF5000300E0D8
:1003E000E2F2EEECE0F2E8F7E5F1EAE8F520EFE022
:1003F000F0EAEEE2EEEA2C20F1E8F1F2E5EC20E49E
:10040000EEF1F2F3EFE02C000300E2E8E4E5EEEDBC
:10041000E0E1EBFEE4E5EDE8FF2C20F1E8E3EDE0C0
:10042000EBE8E7E0F6E8E9000400000D070404004B
:10043000C2EDE8ECE0EDE8E521000400CDE520ECBC
:10044000EDE8F2E520E1E8EBE5F22C20F1EEF5F045
:10045000E0EDFFE9F2E5000400E1E8EBE5F220E47D
:10046000EE20E2FBE5E7E4E020F120EFE0F0EAEE49
:10047000E2EAE82E000100CAEEECEFE5EDF1E0F66D
:10048000E8FF20E7E020F3F2E5F0FE20E1E8EBE50D
:10049000F2E020353030F0F3E12E000D08010100CC
:1004A000D1EFE0F1E8E1EE20E7E020C2E0F820E261
:1004B000E8E7E8F221000D09000D0F000000000040
:1004C000000000000000000000000000000000002C
:1004D000000000000000000000000000000000001C
:1004E000000000000000000000000000000000000C
:1004F00000000000000000000000000000000000FC
:1005000000000000000000000000000000000000EB
:1005100000000000000000000000000000000000DB
:1005200000000000000000000000000000000000CB
:1005300000000000000000000000000000000000BB
:1005400000000000000000000000000000000000AB
:10055000000000000000000000000000000000009B
:10056000000000000000000000000000000000008B
:10057000000000000000000000000000000000007B
:10058000000000000000000000000000000000006B
:10059000000000000000000000000000000000005B
:1005A000000000000000000000000000000000004B
:1005B000000000000000000000000000000000003B
:1005C000000000000000000000000000000000002B
:1005D000000000000000000000000000000000001B
:1005E000000000000000000000000000000000000B
:1005F00000000000000000000000000000000000FB
:1006000000000000000000000000000000000000EA
:1006100000000000000000000000000000000000DA
:1006200000000000000000000000000000000000CA
:1006300000000000000000000000000000000000BA
:1006400000000000000000000000000000000000AA
:10065000000000000000000000000000000000009A
:10066000000000000000000000000000000000008A
:08067000000000000000A55A83
:10200000BFF34F8F8B48006810F4E0608A490843A3
:1020100088490860BFF34F8FFEE788490968874AFF
:102020001268521A8242FAD3704780B584488549B3
:10203000B1F9001089B2016081480068000480494C
:1020400008607F4800684FF6FF7108437C490860CC
:102050007B48026802217C4812F0A8F801BD80B5D7
:102060007A49097800291CD1784901220A707849F7
:1020700008600422764928200DF0ACFB75497448AD
:1020800000680EF089F800280BD0724800781138EB
:1020900003D0401E022801D903E002E06E4801216E
:1020A000017001BD80B50DF0DAFA00220021022096
:1020B0000DF090FB69480121017001BD68480121C4
:1020C0000170704780B5674801210170664890F83B
:1020D0005B0009F0D2FC01BD64480121017070472A
:1020E00080B5FFF7EFFF62480121017001BD614833
:1020F00001210170704710B504005F4815F00BF81E
:102100005C480021017021005B4817F0EFFC5A4841
:1021100014F0C3FF10BD574800787047574801219D
:102120000170704710B50400554814F0F4FF53488F
:10213000002101702100524817F0D8FC504814F0DB
:10214000ACFF10BD4D48007870474E48012101702A
:10215000704710B504004C4814F0DDFF49480021D9
:1021600001702100484817F0C1FC474814F095FF62
:1021700010BD44480078704780B5434814F0CBFF49
:1021800040480121017001BD404909780843404998
:10219000087070473F49097808433F490870704705
:1021A0003E4801210170704710B504003C4814F00E
:1021B000B2FF3A48002101702100394817F096FC1F
:1021C000374814F06AFF10BD34480078704780B576
:1021D000334814F0A0FF31480121017001BD31499D
:1021E00008707047304801210170704710B5040035
:1021F0002E4814F090FF2C480021017021002B483C
:1022000017F074FC294814F048FF10BD26480078E8
:10221000704780B5254814F07EFF234800210170E7
:1022200001BD80B5214814F076FF1F4801210170DF
:1022300001BD00000CED00E00400FA05084000407C
:10224000E45900102E5A0010004002406B5A001052
:10225000E85900106D5A00106C5A00106E5A0010A8
:102260006F5A00109E0A0010D4350010705A0010EA
:10227000715A0010A00A001094570010A10A001013
:10228000A8570010A20A0010BC5700107E5A001078
:10229000725A00107F5A0010735A0010A30A0010DF
:1022A000D0570010745A0010A50A0010E45700100F
:1022B00070B586B002F030FE012002F008FE040086
:1022C000022002F004FE0500DFF8CC1C200016F00E
:1022D0002DFEDFF8C81C280016F028FE0021022081
:1022E00002F002FE0BF030FCDFF8B40C0BF08BFCBC
:1022F00004F020FBDFF8A80C04F0FFFEDFF8601A02
:10230000DFF8600A0DF060F80DF022FE0DF03DFFE1
:102310000EF050F8DFF8500A05F066FDDFF8840C87
:1023200005F0D6FBDFF8781BDFF8780B05F044FAF0
:1023300004F058F9DFF8700B04F0D4FF0CF0E9FD5D
:1023400009F08CFBDFF8600C90F85B0009F095FB5E
:10235000DFF8580B03F098FE03F0C6FBDFF8501BC4
:10236000002003F036FCDFF84C1B012003F031FCA9
:10237000002240F6B831012003F033FCDFF8941B53
:10238000022003F026FCDFF8901B032003F021FC61
:10239000DFF8881B042003F01CFCDFF8841B0020FE
:1023A00003F032FCDFF87C1B012003F02DFCDFF88A
:1023B000781B032003F028FCDFF8701B042003F0D7
:1023C00023FCDFF86C1B052003F01EFCDFF8D01D9A
:1023D000062003F019FC0021002003F0C3F90022BD
:1023E000DFF8C81BDFF8C80B14F04CFE0022DFF842
:1023F000C41BDFF8C40B14F045FE0022DFF8BC1B41
:10240000DFF8BC0B14F03EFE0022DFF8B81BDFF84B
:10241000B80B14F037FE0022DFF8B01BDFF8B00B6A
:1024200014F030FE0022DFF8800B017CDFF8A40BF3
:102430000DF0FEFBDFF8A00B0078002805D000228D
:102440000021DFF8980B0DF0F3FBDFF8580D007852
:10245000002805D000220021DFF8840B0DF0E8FBF6
:102460000021DFF8440D11F0B3FEDFF8401D884273
:1024700013D0DFF8701B200016F058FDDFF8182B82
:10248000DFF8641B280016F051FD0321022002F042
:102490002BFDDFF81C0D002101700422DFF84C1B1E
:1024A00034200DF097F90422DFF8441B39200DF099
:1024B00091F90422DFF83C1B3A200DF08BF902223F
:1024C000DFF8341B38200DF085F90222DFF82C1BD1
:1024D00056200DF07FF90CF08EF9002003F076FC09
:1024E000002003F05FFC00220021AA200DF072F909
:1024F0004FF4FA6011F0EAF84FF4FA60FFF776FE55
:102500001021DFF8FC0A15F04BFC16F04DFC14F01E
:1025100072F90EF0B5F9002801D0012000E000208A
:10252000DFF8E01A0870DFF8DC0A007800280CD128
:10253000DFF8800C007800280BD112200DF06BFE24
:10254000DFF8700C0121017003E0DFF8680C002156
:102550000170C8200DF0E9FE00280CD1C8200DF054
:1025600095FC002807D1C8200DF0DAFD002802D123
:10257000642011F0ABF8DFF8300A407C002820D04E
:10258000FFF7C9FD00281CD002F036FA049004229F
:1025900004A9FE2005F014FC042204A9FF200DF07C
:1025A00019F915F0E7F8052148433C2190FBF1F2B9
:1025B00001FB120000F22C104FF47A714843FFF730
:1025C0009AFD03F003FEDFF8F00B0078002807D037
:1025D000DFF8E40B00210170FFF727FDFFF79EFDF8
:1025E000FFF7B0FD002813D04FF4FA50FFF79AFD23
:1025F000DFF8040AB0F900004FF47A71884202DB78
:1026000040F2E73002E0002800D5002002F086FE0C
:102610000CF09BFADFF8A40B0078002812D00228F7
:102620005BD03DD3042800F0A680C0F08680062849
:1026300000F0F480C0F00A81082800F05381C0F057
:102640003481A0E1FFF795FD002800F09C81DFF8C0
:10265000580990F85E00002805D0DFF8640B007878
:10266000002840F09081DFF85C0B0078002808D04B
:102670004FF4FA70FFF76DFDDFF8400B0121017098
:1026800081E1DFF8440B0078002800F07C814FF4F2
:10269000FA70FFF75EFDDFF8240B0621017072E18E
:1026A000FFF767FD002800F06E81DFF8180B007857
:1026B00000280DD0DFF8140BFFF74BFD002200219E
:1026C00054200DF087F8DFF8F40A022101705AE176
:1026D000DFF8E80A0021017055E1DFF8CC0890F836
:1026E0005E0000280BD0DFF8D80A0078002806D05A
:1026F000FFF742FDDFF8C40A0021017043E1DFF873
:10270000C40A0078002808D142F21070FFF721FDBA
:10271000DFF8A80A0321017035E1FFF72AFD002840
:1027200000F031814EF66020FFF713FD00220021FA
:10273000DFF8D00D0DF07CFA25E1DFF88C0A007887
:10274000002808D044F62060FFF703FDDFF86C0A8C
:102750000421017017E1FFF70CFD002800F0138140
:1027600000220021DFF8680A0DF062FADFF84C0A57
:102770000021017007E1DFF8500A007800283DD100
:10278000DFF874080088401EDFF86C180880DFF856
:10279000280A012101700222DFF85C1838200DF0B0
:1027A00019F8DFF8040890F8680000280BD001221F
:1027B000DFF8481811200DF00DF80122DFF83C1861
:1027C000112005F0FDFADFF8E00790F86900002815
:1027D0000BD00122DFF8FC1912200CF0FBFF0122C4
:1027E000DFF8F019122005F0EBFA4FF4FA70FFF75A
:1027F000B0FCDFF8C80900210170C4E0FFF7B9FCA4
:10280000002800F0C0804EF66020FFF7A2FC0022F6
:102810000021DFF8C4090DF00BFAB4E0FFF7A9FCC2
:10282000002800F0B080DFF8A0090078002808D068
:1028300044F62060FFF78DFCDFF880090521017068
:10284000A1E0DFF87809002101709CE0DFF858076B
:1028500090F85E0000280BD0DFF8640900780028AB
:1028600006D0FFF789FCDFF85409002101708AE0E7
:10287000DFF854090078002808D142F21070FFF701
:1028800068FCDFF83809072101707CE0FFF771FC74
:10289000002878D04EF66020FFF75BFC0022002174
:1028A000DFF838090DF0C4F96DE0DFF81809007899
:1028B00000280ED000220021DFF824090DF0B8F91D
:1028C00042F21070FFF745FCDFF8F00808210170B4
:1028D00059E0FFF74EFC002855D0DFF8E008002152
:1028E000017050E0DFF8DC08007800283DD1DFF807
:1028F00008070088401CDFF800170880DFF8B808D8
:10290000012101700222DFF8F01638200CF062FF7E
:10291000DFF8940690F8680000280BD00122DFF859
:10292000DC1612200CF056FF0122DFF8D016122020
:1029300005F046FADFF8700690F8690000280BD021
:102940000122DFF8901811200CF044FF0122DFF87B
:102950008418112005F034FA41F28830FFF7F9FBB2
:10296000DFF85808002101700DE0FFF702FC002895
:1029700009D04EF66020FFF7ECFB00220021DFF8C3
:10298000E00C0DF055F9DFF8800B0078002809D035
:1029900002282BD019D3042860D046D3052800F094
:1029A0008480A7E0012003F067F90CF0C7FA002843
:1029B00004D1FFF709FC002800F09C80FFF707FC1A
:1029C000DFF8440B0121017094E0FFF7FDFB0028C4
:1029D00000F09080002003F04FF9DFF8880C002110
:1029E0000170DFF8240B0221017083E0DFF8D007CB
:1029F0000078002808D0DFF8D407FFF7D5FBDFF810
:102A0000080B0321017075E0DFF85C0C00780028EA
:102A100070D0012003F030F94FF49670FFF7C4FB3B
:102A2000DFF8E40A0421017064E0DFF8940700781D
:102A3000002804D1DFF8D00A022101705AE0FFF724
:102A4000C3FB002856D0DFF88407FFF7ADFB002258
:102A50000021DFF8180C0DF0EBF84BE0DFF8600711
:102A6000007800280CD1DFF8FC0B01210170DFF8A1
:102A7000000CFFF799FBDFF8900A0521017039E09F
:102A8000002003F0F9F814F075FE052190FBF1F237
:102A900001FB1200401C4FF496714843FFF784FB82
:102AA000DFF8640A0121017024E0DFF8BC0B007834
:102AB000002803D0FFF788FB00281BD0FFF784FB1A
:102AC000002811D04FF47A70FFF76EFB002003F05E
:102AD000D3F8DFF8900B0021017000220021DFF80D
:102AE000EC0D0DF0A5F801E0FFF771FBDFF8180A17
:102AF00001210170DFF8B00490F8670000280FD0C2
:102B0000DFF8F404B0F90000012804DBDFF8640BFF
:102B10000121017008E0DFF85C0B0021017003E087
:102B2000DFF8500B01210170DFF8840600780328DC
:102B30000BD0DFF87C060078092806D0DFF8700695
:102B40000078052801D00BF080F8DFF864060078E3
:102B5000002822D0022869D033D3042800F09786B9
:102B6000C0F00481062800F02B87C0F0E686082814
:102B700000F05087C0F07C870A2801F02780C0F061
:102B8000AF870C2801F0C180C1F059800E2801F0F8
:102B90005081C1F00E8101F061B90021DFF8080613
:102BA00011F016FBDFF80416884241F057814FF40C
:102BB0007A70FFF71BFBDFF8F8050121017001F0C7
:102BC0004DB9FFF723FB002801F04881002003F0F6
:102BD000FDF8002003F0E6F8DFF89C0A0021016010
:102BE000DFF8D00D00210170DFF8900A00210160AC
:102BF000DFF8DC0C00210170DFF8D80C0021017037
:102C0000DFF87C0A00210170DFF8CC0C0021017094
:102C1000DFF8700A00210170DFF86C0A01210170F1
:102C2000DFF88C050221017001F018B9FFF7EEFA08
:102C3000002801F01381DFF8500A0078002808D03E
:102C4000022847D0032819D0042856D0052869D077
:102C50007CE0012003F0A6F841F288324FF47A714B
:102C6000DFF8280A0AF0D2FFDFF8241A280016F04D
:102C70005DF90321022002F037F967E0002003F03C
:102C800091F8C94890F85B00002811D040F6B8329E
:102C90004FF4FA61DFF8FC090AF0B8FFDFF8F81921
:102CA000280016F043F90321022002F01DF94DE03F
:102CB00040F6B8324FF4FA61DFF8E0090AF0A6FFF7
:102CC000DFF8DC19280016F031F90121022002F0AA
:102CD0000BF93BE0002003F065F800224FF4FA61A5
:102CE000DFF8C0090AF092FFAC49280016F01EF97F
:102CF0000021022002F0F8F828E0012003F052F849
:102D000040F6B8324FF4FA61DFF89C090AF07EFF12
:102D1000DFF89819280016F009F90321022002F0C3
:102D2000E3F813E0012003F03DF840F6B8324FF429
:102D3000FA61DFF87C090AF069FFDFF8281D280036
:102D400016F0F4F80321022002F0CEF8DFF88C0B25
:102D500020210170DFF858040321017001F07EB8D2
:102D6000F9D30000837000007D3E00000021DFF8F1
:102D7000380411F02DFADFF83414884219D00022FB
:102D80000021DFF85C0B0CF053FFDFF8581B20002C
:102D900016F0CCF8DFF8501B280016F0C7F8002119
:102DA000022002F0A1F84FF4FA6010F08FFCFFF758
:102DB00027F9DFF8F0030078002819D0002200215D
:102DC000DFF8280B0CF034FFDFF8241B200016F08E
:102DD000ADF8DFF8141B280016F0A8F80021022037
:102DE00002F082F84FF4FA6010F070FCFFF708F977
:102DF000FFF70CFA002800F01181DFF8E00A0078F4
:102E0000202840F00181DFF8D40A3A2101704FF404
:102E10002F70FFF7EBF901F0EFFD059005A817F013
:102E2000B9FB0600706900F26C7003903069401CB9
:102E30000290F068019070680090DFF8A00A0378B3
:102E4000B268DFF8741B200016F070F8564890F84E
:102E50006A00B16888420BDBB068534991F86A1088
:102E6000884229D17068504991F86B10884223DB61
:102E7000B0684D4991F86C1088420BDBB0684A4944
:102E800091F86C10884217D1474890F86D0071682E
:102E9000884211DBDFF8240B0121017010E000BF34
:102EA0006541000019430000C94600005F20000092
:102EB000A5200000BD200000DFF8000B00210170FC
:102EC000394890F87200B16888420BDBB068364927
:102ED00091F8721088422DD17068334991F87310BF
:102EE000884227DBB068304991F8741088420BDBC8
:102EF000B0682D4991F8741088421BD12A4890F887
:102F000075007168884215DBDFF8900C01210170B3
:102F100014E000BFC5200000D9200000E12000001F
:102F20008921000095210000DF2100003BE800001E
:102F300043E90000DFF8640C002101701A4890F8A2
:102F40006E00B16888420BDBB068174991F86E10CB
:102F500088421CD17068144991F86F10884216DBC2
:102F6000B068114991F8701088420BDBB0680E49C7
:102F700091F8701088420AD10B4890F8710071687E
:102F8000884204DBDFF8E40A0121017046E0DFF843
:102F9000DC0A0021017041E00236001064A3010048
:102FA000AFF10000A53F0000D4350010EF20000075
:102FB000945700101D210000A85700104B2100005D
:102FC000BC570010A1210000D0570010E5210000DF
:102FD000E4570010589D0100675A0010708C0100E2
:102FE0006C9501007C9F0100909F01003E3600100F
:102FF00042360010463600102E5A00103C360010A3
:10300000605800106A5A0010DFF8D00820210170C3
:103010002020A0704FF49670FFF7E8F8DFF8BC08A6
:1030200000783A2840F01A87DFF854060078002824
:1030300011D0DFF82C1E280015F078FF00210220A7
:1030400001F052FF4FF4FA60FFF7D0F85848012121
:10305000017000F003BFDFF8480B0078002814D19E
:10306000012002F09FFEDFF83C1B280015F05EFFF8
:103070000121022001F038FF4FF4FA60FFF7B6F8A3
:103080004B480E21017000F0E9BE08F009FD002850
:1030900017D000220021DFF8100B0CF015FEDFF82E
:1030A000041B280015F042FF0121022001F01CFF43
:1030B0004FF4FA60FFF79AF83D480E21017000F0D6
:1030C000CDBEDFF8E80A0078002839D0DFF8E00A42
:1030D00090F85B0000281DD001F08EFC0600DFF8A0
:1030E000D41A280015F022FF0121022001F0FCFE75
:1030F00042F21070FFF77AF83200DFF8680D0168CD
:10310000DFF8AC0A007C08F0EDFC294804210170CE
:1031100000F0A4BEDFF8A01A280015F007FF012177
:10312000022001F0E1FE40F6B830FFF75FF8DFF86B
:103130007C0A002101701E480121017000F08EBE42
:10314000DFF86C0A90F85E00002817D0DFF86C08F2
:103150000078DFF82015097808401A4909780840F6
:10316000DFF80415097891F00101C0B2084205D0DA
:10317000DFF8F4040121017000F070BE11480078FE
:10318000DFF8E414097891F001010843C0B2002887
:1031900028D1DFF8D4040021017000F05FBE00BF29
:1031A00065EA0000685A001000400240DDEEAA55B2
:1031B000A60A0010A80A00109F0A0010805A0010EA
:1031C000745A0010725A0010735A001020BF020087
:1031D000649201003D360010A48C0100208901009A
:1031E0008C920100DFF8C80990F85E00002804D036
:1031F000DFF870040078002828D0DFF8C0070078D6
:10320000DFF8701409780840DFF85C1C0978084082
:10321000DFF89C1991F85D10084217D000220021B8
:1032200024200CF0D7FADFF89419280015F07EFE60
:103230000021022001F058FE40F6B830FEF7D6FF1C
:10324000DFF81C0D0621017000F008BEDFF86009F0
:1032500090F85E00002804D0DFF808040078002809
:1032600032D0DFF808080078DFF808140978084041
:10327000DFF8F41B09780840DFF854160978084293
:1032800022D0DFF82C0990F86600002809D1DFF879
:1032900044060078142804D0DFF838060078122895
:1032A00012D1DFF82019280015F040FE002102207D
:1032B00001F01AFE40F6B830FEF798FFDFF8A00CD8
:1032C0000621017000F0CABDDFF8E40890F85E0046
:1032D000002804D0DFF88C030078002823D0DFF822
:1032E00094030078DFF8801B09780840DFF8E815C0
:1032F0000978084217D00022002113200CF06AFA46
:10330000DFF8C418280015F011FE0021022001F09A
:10331000EBFD40F6B830FEF769FFDFF8440C0621FC
:10332000017000F09BBDDFF8880890F85E0000286F
:1033300003D0CC480078002826D0DFF8800600783B
:10334000CC4909780840DFF8201B09780840DFF8ED
:10335000141C0978084217D00422C84929200CF00F
:1033600039FADFF8081B280015F0E0FD00210220E3
:1033700001F0BAFD40F6B830FEF738FFDFF8E00B99
:103380000621017000F06ABDDFF8240890F85B00A8
:10339000002852D0DFF8180890F85E00002803D00B
:1033A000B0480078002848D0DFF8F0070078B1492D
:1033B00009780840DFF8B01A09780840B14909785F
:1033C00008423AD0DFF89C0A0068401CDFF8941AE3
:1033D0000860DFF8900A0068DFF8941A884203D189
:1033E000DFF8800A01210160DFF8780A0268012114
:1033F000DFF8800A10F0DAFE01F0FEFA9E4908605C
:103400009D480268DFF85C0A0168DFF8A407007CC9
:1034100008F04CFBDFF8601A280015F087FD012149
:10342000022001F061FD42F21070FEF7DFFEDFF8CE
:10343000300B0421017000F011BDDFF87805007831
:10344000DFF88C14097891F00101084221D0DFF8EF
:1034500064050021017000220021DFF80C0B0CF044
:10346000E7FBDFF8081B200015F060FDDFF8001B0C
:10347000280015F05BFD0021022001F035FD40F62B
:10348000B830FEF7B3FEDFF8D80A0221017000F071
:10349000E5BCDFF844040078DFF8C81A097808436F
:1034A000784909780843DFF80C1509780843C0B259
:1034B000002800F02D81012002F074FCDFF81804D0
:1034C0000078DFF8A01A09780843C0B2002804D0B9
:1034D000002200212B200CF07DF96648007800289E
:1034E00014D100220021DFF88C0A0CF0A1FBDFF8D8
:1034F000881A200015F01AFDDFF8801A280015F050
:1035000015FDE7E0248B0100A40A00105D48007857
:10351000DFF88816097891F00101084210D00022E6
:103520000021DFF85C0A0CF083FBDFF8581A20005A
:1035300015F0FCFCDFF8501A280015F0F7FCC9E084
:10354000DFF88C030078DFF82415097891F0010189
:10355000084210D000220021DFF8300A0CF068FB8E
:10356000DFF82C1A200015F0E1FCDFF81C1A280007
:1035700015F0DCFCAEE0D6480078002824D0D54811
:103580000078132820D100220021DFF8080A0CF06F
:103590004FFBDFF8D408007800280AD00022002171
:1035A000DFF8F4090CF044FB042234493B200CF012
:1035B00011F9DFF8E819200015F0B8FCDFF8E01980
:1035C000280015F0B3FC85E0DFF89C08007800289F
:1035D00014D100220021DFF8580B0CF029FBBC4865
:1035E0000078002804D0DFF84C1B200015F09EFC6A
:1035F000DFF8441B280015F099FC6BE0DFF8BC03F2
:103600000078002810D100220021DFF8300B0CF0E8
:103610000FFBDFF82C1B200015F088FCDFF8681981
:10362000280015F083FC55E0DFF8840590F85E0073
:1036300000283FD00B48007800283BD10022002111
:10364000DFF8000B0CF0F4FADFF8FC1A200015F09C
:103650006DFCDFF8F81A280015F068FC3AE000BFAE
:10366000B08201007C5A00107B5A0010B492010015
:1036700080A90300695A0010EC590010E8590010A5
:103680006E5A0010705A0010A70A001058A50100C9
:103690009095010064A50100709D010074A30100D4
:1036A00084A3010094A30100A4A30100889D01004C
:1036B000B4A3010000220021DFF8940A0CF0B8FA4C
:1036C000DFF8901A200015F031FCDFF88C1A280082
:1036D00015F02CFC0021022001F006FC40F6B83069
:1036E000FEF784FDDFF87C08002101707A48002194
:1036F0000170DFF8680A00210170AE4800210170F6
:10370000734800210170DFF8580801210170A5E31A
:10371000DFF8B00B0078002819D0DFF8A80B0021E3
:103720000170DFF8A42BD0A1280015F0FFFBDFF813
:103730009C0B0178022001F0D7FBDFF8940B008886
:10374000FEF754FDDFF818080221017086E39B485C
:10375000007800280DD1DFF8080A0078002808D08A
:10376000DFF8FC0900210170DFF8F4070221017085
:1037700074E392480078002818D0DFF8340490F8F9
:103780005E00002812D0DFF84C0B007800280DD026
:10379000DFF8CC090078052808D0DFF8C409052136
:1037A0000170DFF8BC070221017057E383480078FD
:1037B00000281DD0DFF8F80390F85E00002804D040
:1037C000DFF8100B0078002812D1DFF80C0B00781E
:1037D00000280DD1DFF888090078042808D0DFF828
:1037E000800904210170DFF878070221017035E3B8
:1037F00072480078002822D0DFF8B40390F85E0009
:10380000002804D0DFF8CC0A0078002817D1DFF8B0
:10381000C80A0078DFF85016097891F001010842D3
:103820000DD0DFF83C090078022808D0DFF8300915
:1038300002210170DFF82807022101700EE35F48C2
:103840000078002800F00A83D94890F85E0000282C
:1038500005D0DFF8800A0078002840F0FF82DFF80A
:10386000780A0078DFF800160978084200F0F6823E
:10387000DFF8EC080078032800F0F082DFF8E008B9
:1038800003210170DFF8D80602210170E6E208F09A
:10389000F9F800282ED040F6B8324FF4FA61DFF87C
:1038A0003C0A0AF0B3F9DFF8381A280015F03EFB9D
:1038B0000121022001F018FB4EF66020FEF796FC75
:1038C000DFF89C0605210170C8E200BFDC92010010
:1038D0006C5A00106D5A00106F5A0010A90A00109F
:1038E000B4970100A49F0100B89F0100CC9F010084
:1038F000E09F0100FEF78AFC002800F0AF82002262
:103900000021DFF8E0090CF0DFF9DFF850080021B2
:103910000170A64800210170A249280015F006FB9D
:103920000121022001F0E0FA4FF4FA60FEF75EFC9C
:10393000DFF82C060E21017090E208F0B1F80028A3
:103940002AD19A480078002814D0984800210170A4
:10395000DFF89419280015F0E9FA0021022001F09F
:10396000C3FA4FF4FA60FEF741FCDFF8F4050121D9
:10397000017073E2DFF87419280015F0D7FA0021FE
:10398000022001F0B1FA40F6B830FEF72FFCDFF864
:10399000D0050621017061E2FEF738FC002800F036
:1039A0005D82FEF736FC00220021DFF844090CF0AE
:1039B0003FF953E26B5A0010A09D0100755A0010A8
:1039C000DFF8300901210170DFF82C0900780028A8
:1039D00009D0DFF82819200015F0A8FADFF88005D3
:1039E000072101703AE2FEF711FC002800F0368250
:1039F000DFF80C19280015F099FA0321022001F0D4
:103A000073FADFF80009FEF7F1FBDFF8540508212F
:103A1000017023E2DFF8E0080078002811D0DFF819
:103A2000E818280015F082FA0121022001F05CFA62
:103A300040F6B830FEF7DAFBDFF824050721017005
:103A40000CE2FEF7E3FB002800F0088200220021D0
:103A5000DFF8B8080CF0ECF847F23050FEF7C6FB80
:103A6000FCE100BF9497010025730000775A001015
:103A70000AF063FF002808D10AF0E7FF002804D10C
:103A8000FEF7C4FB002800F0E9810AF0DEFF002801
:103A900005D100220021DFF878080CF0C9F80020D9
:103AA00002F080F9012002F091F90AF082FE00F0A4
:103AB000A3FF0390042203A91E200BF08BFE40F607
:103AC000B830FEF793FB40F6B8324FF47A61DFF876
:103AD00044080AF09BF8DFF8880409210170BDE171
:103AE000DFF8E0070078002814D0DFF8D8070021BD
:103AF0000170DFF8D42732A1280015F017FADFF89B
:103B0000CC070178022001F0EFF9DFF8C407008844
:103B1000FEF76CFBD4480078002815D1DFF8980B2D
:103B200000210170DFF8941B280015F0FFF9012136
:103B3000022001F0D9F942F21070FEF757FBDFF8CE
:103B400020040A21017089E1FEF760FB002800F0E3
:103B50008581DFF86C1B280015F0E8F901210220AF
:103B600001F0C2F9DFF8500B007800280CD0DFF824
:103B7000480B00210170FEF74CFB00220021DFF80A
:103B8000440B0CF055F869E1DFF82C0B01210170B2
:103B900047F23050FEF72AFB60E100BF765A001072
:103BA0009E0A0010D4A3010004930100715A001072
:103BB000D4350010E4A30100F49F0100F4A3010038
:103BC0002573000004A4010008A00100DFF8B00B79
:103BD000007800280FD0002002F0F8F8DFF8A41BCE
:103BE000200015F0A3F942F21070FEF7FFFADC484E
:103BF0000C21017032E1FEF709FB002800F02E8154
:103C000000220021DFF8800B0CF012F8002002F0F7
:103C1000DDF8012002F0C6F80AF0EDFDDFF86C1BBC
:103C2000280015F083F90121022001F05DF941F22D
:103C30008830FEF7DBFACA480B2101700EE10AF06A
:103C400004FF002803D1FEF7E1FA002843D0DFF893
:103C5000400B0068002836D000A800210022002375
:103C60000EC00C38DFF82C0B007C8DF800007D486E
:103C70000068ADF80100DFF8180B0068CDF803000C
:103C800000F0BAFECDF807009DF80010DDF8030043
:103C90000CF09EF80B2200A9012004F091F80B22F1
:103CA00000A944200BF096FD00220021DFF8E80A6D
:103CB0000BF0BEFFDFF8E41A280015F037F90021F9
:103CC000022001F011F941F28830FEF78FFAA44882
:103CD0000D210170C2E0DFF8A80A0078002800F08A
:103CE000BD80002002F05EF8DFF8981A280015F079
:103CF0001DF90121022001F0F7F842F21070FEF7E1
:103D000075FA97480C210170A8E0DFF8740A007872
:103D100000280FD0FEF77AFA00280BD1DFF8740ADA
:103D200090F86100002840F099800AF003FF002815
:103D300000F09480FEF76AFA002805D000220021E6
:103D4000DFF85C0A0BF074FF002002F03FF801205E
:103D500002F028F80AF04FFDDFF8480A0078002842
:103D600016D00422DFF8401A212004F029F804229A
:103D7000DFF8341A3C200BF02DFDDFF8300A007814
:103D8000002805D01321DFF8200A00680CF01FFA84
:103D9000DFF8F819280015F0C9F80121022001F018
:103DA000A3F842F21070FEF721FA6D480D21017060
:103DB00054E00AF04AFE002803D1FEF727FA002853
:103DC0004CD0FEF723FA002805D000220021DFF8AE
:103DD000E0090BF02DFFDFF81C05002101706148A0
:103DE00000210170DFF8DC0400210170DFF80C0B0A
:103DF000B0F90020DFF8081B280015F097F8002123
:103E0000022001F071F8DFF88C0990F864000028B6
:103E100009D0DFF8800990F864004FF47A714843C4
:103E2000FEF7E4F901E0FEF7FCF94D4801210170CD
:103E300014E0DFF8D00A007800280FD0DFF8C81AA5
:103E4000280015F073F80021022001F04DF84FF41E
:103E50007A70FEF7CBF9424801210170FEF757BB9B
:103E6000C4A30100E0590010725A00101CA0010008
:103E700000CA9A3B0040024030A0010038B50C0057
:103E80001500C0B2012844D002284DD0032851D0DB
:103E9000112808D0122819D013282AD0212854D04C
:103EA000222857D05AE02078DFF8E81891F86810F7
:103EB000884253D1DFF8440A0088401EDFF83C1ADC
:103EC0000880DFF8480A0121017047E02078DFF818
:103ED000C41891F86810884240D1DFF8200A0088A1
:103EE000401CDFF8181A0880DFF8200A0121017051
:103EF00034E0A078DFF89C1891F8681088422DD142
:103F0000DFF8F80921880180DFF8000A012101703B
:103F100024E02178D4F803000BF05AFF2178D4F87C
:103F200003000CF075F819E02268217A60680CF043
:103F300037F813E0122120680CF08BF9052D0DD114
:103F4000217920680CF043F908E0132120680CF077
:103F50003EF903E0142120680CF039F931BD00006E
:103F6000A60A0010785A0010DC8D010044A0010060
:103F700058A001002C9301006CA0010080A001005A
:103F8000D88C010014A4010024A401000C8E0100AF
:103F900094A00100D49701000C8D0100A8A001009D
:103FA000BCA0010038B50C001500C0B20100022908
:103FB0002AD0032900F0A780052957D00A2975D0F7
:103FC0000B2900F09380152921D0182918D0192920
:103FD0000AD01A2914D01B2920D01C2925D03C290D
:103FE0003BD03D2928D09BE0122120680CF031F90C
:103FF000052D40F09C80217920680CF0E8F896E0CF
:1040000020680CF048F992E0FEF75CF88FE004229B
:104010002100DFF8FC0816F06CFA88E00422210089
:10402000DFF8F00816F065FA81E004222100DFF8DD
:10403000E80816F05EFA7AE02078DFF8581791F871
:104040006810884273D1B4F80100DFF8B018088016
:10405000DFF8B8080121017069E0DFF8A0082188C5
:104060000180DFF8A8080121017060E0E01C14F075
:10407000C9FD50285BD26078954908809448008833
:1040800000029349088092480088217808439049AB
:104090000880A0788D490870E11C8B4814F042FA22
:1040A000884801210170FEF7BCF840E00AF0CDFC21
:1040B000002814D00AF03EFF4EF66020FEF774F898
:1040C000DFF85808002101700AF073FB00F094FC3F
:1040D0000090042200A91F200BF07CFB27E00022A7
:1040E0000021DFF83C080BF0A3FD20E00AF022FFDE
:1040F00042F21070FEF758F8DFF820080021017036
:104100000AF079FB13E0DFF81C0801210170042D8F
:1041100003D1DFF8940621680160FEF782F806E01B
:104120000022C0B20100DFF800080BF081FD31BDB4
:10413000B49A0100D0A00100E4A001007090010039
:1041400034A401003C8E0100F8A001000CA1010084
:10415000F497010020A1010034A10100705A001061
:10416000A70A00101CB5DFF8C40714F04BFD421C71
:10417000DFF8B817372003F0C5FADFF8B40714F0FA
:1041800041FD421CDFF8A817382003F0BBFA0122DA
:10419000DFF8A017392003F0B5FA0122DFF89817ED
:1041A000042003F0AFFA0122DFF89017192003F082
:1041B000A9FA0122DFF88817FB2003F0A3FA0122F5
:1041C000DFF880173A2003F09DFA0122DFF8781714
:1041D0003B2003F097FA0020019000208DF80000AA
:1041E000002411E000AA01A9601CC0B20EF0B0FAD0
:1041F000002808D09DF80000421E0198411C601D57
:10420000C0B203F07FFA641C052CEBDB0122DFF85F
:104210003C170E2003F076FA0122DFF83417352020
:1042200003F070FA0122DFF82C172A2003F06AFA53
:104230000122DFF824172D2003F064FA0122DFF8B1
:104240001C172B2003F05EFA0122DFF814170D2053
:1042500003F058FA0122DFF80C173C2003F052FA61
:104260000122DFF80417242003F04CFA0122DFF8C2
:10427000FC162C2003F046FA0122DFF8F416282061
:1042800003F040FA0122DFF8EC16262003F03AFA98
:104290000222DFF8E416342003F034FA0422DFF8B7
:1042A00070161C2003F02EFA0422DFF86816212075
:1042B00003F028FA0422DFF86016222003F022FA25
:1042C00013BD0000795A0010685200107A5A00108D
:1042D000305A0010745A0010695A001044A40100AA
:1042E00048A10100B49501005CA1010070A101008A
:1042F0009C9001007B5A00107C5A001084A10100A0
:10430000D09A0100C0D4010054A4010054930100CC
:10431000C890010064A4010001B59DF800000428C4
:104320007CD0052800F0C980062800F0D08007283E
:1043300000F0D780082800F0DE80092800F0E58032
:104340000D2800F023810E2800F0E9800F2800F0EE
:104350008D81192873D01C2800F06A81212800F073
:104360007181222800F07881242800F023812628FA
:1043700000F04381282800F031812A2800F0E880ED
:104380002B2800F0F9802C2800F01E812D2800F049
:10439000E980342800F03B81352800F0CF803728B1
:1043A0000DD038281DD039282DD03A2862D03B288E
:1043B00074D03C2800F0F480FB2851D076E1162A16
:1043C00000DB1522DFF8640516F093F8DFF8C4036C
:1043D000002180F8421000220021002003F092F911
:1043E00069E1162A00DB1522DFF8440516F081F892
:1043F000DFF8A003002180F85710002200210020E0
:1044000003F080F957E1DFF88C03097880F82D106C
:1044100000220021002003F075F94CE1DFF874035D
:10442000097880F85810DFF86C0390F8580000F015
:1044300055FF00220021002003F064F93BE1DFF882
:104440005403097880F85910DFF8480390F85900B0
:1044500000F054FF00220021002003F053F92AE16C
:10446000CC48097880F85A1000220021002003F07F
:1044700049F920E10878002801D0012000E000205F
:10448000C44981F85B00C34890F85B0007F0F5FA77
:1044900000220021002003F035F90CE10878002803
:1044A00001D0012000E00020BA4981F85C00002220
:1044B0000021002003F026F9FDE0D2B201200EF029
:1044C000C0F800220021002003F01CF9F3E0D2B272
:1044D00002200EF0B6F800220021002003F012F9AD
:1044E000E9E0D2B203200EF0ACF800220021002057
:1044F00003F008F9DFE0D2B204200EF0A2F80022A7
:104500000021002003F0FEF8D5E0D2B205200EF025
:1045100098F800220021002003F0F4F8CBE008789E
:10452000002801D0012000E000209A4981F85D00B8
:1045300000220021002003F0E5F8BCE0954809784E
:1045400080F85E1000220021002003F0DBF8B2E0CA
:104550009048097880F85F1000220021002003F0C5
:10456000D1F8A8E08B48097880F86010002200217B
:10457000002003F0C7F89EE08648097880F86110B3
:1045800000220021002003F0BDF894E08148097862
:1045900080F8621000220021002003F0B3F88AE0C6
:1045A0007C48097880F8631000220021002003F085
:1045B000A9F880E07748097880F86410002200218B
:1045C000002003F09FF876E07248097880F86510C3
:1045D00000220021002003F095F86CE00878002804
:1045E00001D0012000E000206A4981F86600002225
:1045F0000021002003F086F85DE06648097880F825
:10460000671000220021002003F07CF853E0022212
:10461000DFF8640315F06DFF00220021002003F095
:1046200071F80222DFF8501356200BF0D3F842E065
:104630000422B74815F05DFF00220021002003F09E
:1046400061F838E00422B34815F053FF002200213E
:10465000002003F057F82EE00422AF4815F049FF80
:1046600000220021002003F04DF824E00878002803
:104670000BD00AF05FFC4EF66020FDF795FDA748D1
:10468000002101700AF095F80AE00AF053FC42F2AA
:104690001070FDF789FDA148002101700AF0ABF808
:1046A00000220021002003F02DF804E0012200A9DF
:1046B000012003F027F801BD815A001098A10100E4
:1046C00074A401005C8B010070B50C00C0B2E0283E
:1046D0000CD0ED2835D0EE283DD0EF2845D0F1287C
:1046E00007D0F62817D0F72820D047E0FDF7EAFCDE
:1046F00044E02578641C2688A41C00F07DF921681C
:104700003C2202FB1102241DB6B231002800C0B2C7
:1047100007F0CCF932E02078002801D0012000E039
:104720000020C0B207F0F0F9641C27E020780028D0
:1047300001D0012000E00020C0B207F0E8F9641CBD
:104740001CE02078002801D0012000E000208B49E7
:104750000870641C12E02078002801D0012000E0DD
:10476000002087490870641C08E02078002801D0E8
:10477000012000E0002083490870641C70BD000027
:10478000735A001084A401007C930100ACA10100C5
:10479000EC590010D435001014980100C0A101009C
:1047A000408D01006C5A0010E85900106A5A001040
:1047B000F49001003EB510F08FFB01F021FB01F0F9
:1047C00077FA01F033FA7048006850F480606E495F
:1047D000086000246D484FF48061016000256C483A
:1047E000006850F002006A4908606A48006850F0AA
:1047F0000400684908606848022101606748482150
:1048000001606548012101606548FDF706FC11F073
:10481000E5FF012804D111F0E7FF62480121017092
:104820000121002011F0A9FF5F4811F0CAFF0DF02F
:10483000D7FE002803D05D48002101700EE05B48E0
:10484000012101702D4864210180FDF7EEFB0DF080
:10485000A4FE0122012156480FF0A8FC554812F091
:104860003FFF012152480FF0B3FC53490860022179
:104870004F480FF0ADFC5149086050480068000CEB
:104880001E49088012F07CFB4D484078401C4C4982
:1048900048700EF000FF0FF04FFF10F09BFA3A48FF
:1048A000016821F48061016000244FF400624549F1
:1048B000454811F011F944480AF088FF424802F0D7
:1048C0004EF84FF480724149414811F005F94048D3
:1048D00008F015FD3E480AF03FFF022002904FF419
:1048E000487001903B4800903B4B64223B493C4858
:1048F00013F042FC12F024FB00203EBD2E5A0010A3
:1049000094A401009E0A0010D4A101009F0A001087
:104910003E3600104236001046360010A40A001041
:10492000748D0100785A0010A49301000236001023
:1049300017360010013600102C3600102D360010EE
:104940002E3600102F360010303600103136001091
:104950003236001033360010343600103536001071
:104960003636001037360010383600103936001051
:104970003A3600103B3600103C3600107E5A0010CC
:104980007F5A00107D5A001040C009205CC00920E9
:10499000C4C00F40A8C10F40044000400C4000407C
:1049A00020A10700675A0010404B4C00685A0010C5
:1049B0000040024060580010E0590010E459001017
:1049C000CC0900104C1A0010C0550010404E0010C9
:1049D000A45500106C3C0010B122000070A501002D
:1049E0007C540010DFF8601D0968DFF85C2D126848
:1049F000521A8242F9D3704710B594B0DFF8F40927
:104A00000078401CDFF8EC1908700BA9DFF83C0DAA
:104A10000FF05BFB0B9800900C9801900D980290A2
:104A20000E9803901198401E04901298A0F26C709A
:104A3000059000200690002007900020089000A814
:104A400012F04EFC04000EF0BDFC200014B010BDAE
:104A500030B585B004000D00DFF898090078401CDF
:104A6000DFF89019087012F08BFA220070A100A8EC
:104A700014F05CFA00A900200FF0C6FC2A006CA11B
:104A800000A814F053FA00A940200FF0BDFCFEE787
:104A900080B5DFF8641900200FF0B6FCDFF85C0980
:104AA0000078002806D0022848D009D3032800F057
:104AB0009E80B7E0DFF8481940200FF0A5FCB1E078
:104AC000DFF840090078002804D15AA140200FF0F7
:104AD0009BFC04E0DFF8281940200FF095FCDFF87C
:104AE00024090078002811D0DFF81C090068411C57
:104AF000DFF814291160042808D1DFF80C0900211F
:104B00000160DFF80009002101708BE0DFF8F40894
:104B10000078002840F08680DFF8EC080068411C2F
:104B2000DFF8E428116001287CD1DFF8DC080021DF
:104B30000160DFF8D0080121017073E0DFF8CC08D4
:104B40000068DFF8CC18401810F1100140200FF079
:104B50005BFCDFF8B8080068DFF8B41840181030C4
:104B600014F050F8DFF8E81B0978002920D011284C
:104B700007DBDFF898080068401CDFF89018086031
:104B800050E0DFF88808006800284BD0DFF878088C
:104B90000068411CDFF870281160012842D1DFF85D
:104BA000680800210160DFF8A80B0021017039E0DE
:104BB000DFF858080068012807DBDFF850080068B4
:104BC000401EDFF8481808602CE0DFF83C08006859
:104BD000411CDFF834281160042823D1DFF82808AD
:104BE00000210160DFF8680B012101701AE0DFF895
:104BF0001C080068411CDFF814281160DFF8101849
:104C0000411840200FF000FCDFF8040813F0FAFF11
:104C1000DFF8F8170968401F814203D3DFF8EC077B
:104C200005210160DFF8480D12F037FA01BD0000E0
:104C3000257300000000000030B589B00024002575
:104C400000200500DFF8140B13F0DCFF0400142C27
:104C500004DAD4F11400022190FBF1F52A0020219E
:104C600000A815F0E9FA621CDFF8F01A00A828186D
:104C700015F03FFC00A954200FF0C6FB0025DFF81B
:104C8000E00A13F0BFFF0400142C04DAD4F114007E
:104C9000022190FBF1F52A00202100A815F0CCFAA2
:104CA000621CDFF8BC1A00A8281815F022FC00A925
:104CB00014200FF0A9FBDFF8400713F0A3FF040056
:104CC0000025142C04DAD4F11400022190FBF1F534
:104CD0002A00202100A815F0AFFA621CDFF818178F
:104CE00000A8281815F005FC00A900200FF08CFB87
:104CF0000025DFF80C0713F085FF0400142C04DAFC
:104D0000D4F11400022190FBF1F5DFF8F0060078F1
:104D1000002806D0022850D00DD3032800F0A6802A
:104D2000BFE06842DFF8E816401810F1100140209B
:104D30000FF06AFBB5E0DFF8CC060078002804D15C
:104D400074A140200FF060FB08E06842DFF8C01655
:104D5000401810F1100140200FF056FBDFF8A406B8
:104D60000078002811D0DFF8A0060068411CDFF8A9
:104D700098261160042808D1DFF88C060021016014
:104D8000DFF88006002101708BE0DFF878060078FC
:104D9000002840F08680DFF870060068411CDFF8CC
:104DA0006826116001287CD1DFF85C0600210160D3
:104DB000DFF850060121017073E0DFF8500600684B
:104DC000DFF84C16401810F1100140200FF01CFBCA
:104DD000DFF838060068DFF838164018103013F096
:104DE00011FFDFF86C190978002920D0112807DBA2
:104DF000DFF818060068401CDFF81016086050E065
:104E0000DFF80806006800284BD0DFF8FC050068D2
:104E1000411CDFF8F4251160012842D1DFF8E805D4
:104E200000210160DFF828090021017039E0DFF876
:104E3000DC050068012807DBDFF8D0050068401EAC
:104E4000DFF8C81508602CE0DFF8BC050068411CDD
:104E5000DFF8B4251160042823D1DFF8AC05002168
:104E60000160DFF8EC08012101701AE0DFF89C0511
:104E70000068411CDFF894251160DFF89415411893
:104E800040200FF0C1FADFF8880513F0BBFEDFF811
:104E90007C1509680A38814203D3DFF870050521C3
:104EA0000160DFF8CC0A12F0F8F809B030BD80B527
:104EB000DFF81C0C90F82D00022802D0042803D043
:104EC00004E0FFF7E5FD01E0FFF7B6FE01BD0128B4
:104ED00002D0022803D005E0DFF81C0503E0DFF86C
:104EE000200500E000207047022812D1DFF80C05F1
:104EF0000170DFF8180505210160DFF80C050021BD
:104F00000160DFF84C0800210170DFF8F80401218E
:104F100001707047000000002DE9F04FA1B00020A3
:104F20008DF810000120059004AA0021DFF8A40BE1
:104F30000DF016FD002364220021DFF8980B0DF020
:104F40001DFE00208DF80C0000208DF80D000120C2
:104F50008DF80F0000208DF80E0003A9DFF8740B08
:104F60000DF0B1FDDFF86C0B0DF096FD0121DFF8BF
:104F7000640B0DF06EFD0121DFF8580B0DF053FDB1
:104F8000DFF8540BD0E90023CDE91E231EA812F050
:104F9000CFFCDFF8480B006850F00800DFF83C1B3E
:104FA000086000200090DFF8380B08210160002025
:104FB000009000220421DFF81C0B0DF01FFE0023DF
:104FC000DFF80C0B90F858200421DFF8080B0DF0E7
:104FD000D5FD04208DF8080000208DF80900002080
:104FE0008DF80B0000208DF80A0002A9DFF8E40A12
:104FF0000DF069FD01220421DFF8D80A0DF030FE22
:10500000DFF8E00AD0E90023CDE91C231CA812F048
:105010008FFCDFF8C80A006850F01000DFF8BC1AF7
:10502000086000200090DFF8B80A1021016000201D
:10503000009000220521DFF89C0A0DF0DFFD00231F
:10504000DFF88C0A90F859200521DFF8880A0DF066
:1050500095FD05208DF8040000208DF80500002046
:105060008DF8070000208DF8060001A9DFF8640A1A
:105070000DF029FD01220521DFF8580A0DF0F0FDA1
:10508000DFF8800BD0E90023CDE91A231AA812F02B
:105090004FFCDFF8880B006850F02000DFF87C1B25
:1050A000086000200090DFF8780B202101600020CC
:1050B0000090DFF8640BD0E90023CDE9182318A88D
:1050C00012F036FCDFF8540B006850F01000DFF8E7
:1050D0004C1B086000200090DFF8440B1021016099
:1050E00000200090DFF83C0BD0E90023CDE9162327
:1050F00016A812F01DFCDFF8E409006850F4005017
:10510000DFF8D819086000200090DFF8640B4FF436
:105110000051016000200090DFF80C0BD0E9002363
:10512000CDE9142314A812F003FCDFF8B0090068DD
:1051300050F40060DFF8A419086000200090DFF848
:10514000300B4FF40061016000200090DFF8240B69
:10515000D0E90023CDE9122312A812F0E9FBDFF811
:105160007C09006850F48050DFF870190860002056
:105170000090DFF8FC0A4FF480510160002000909D
:10518000DFF81C0BD0E90023CDE9102310A812F0A2
:10519000CFFBDFF84809006850F04000DFF83C1909
:1051A000086000200090DFF8C80A4021016000205C
:1051B0000090DFF8F00AD0E90023CDE90E230EA815
:1051C00012F0B6FBDFF81409006850F08000DFF839
:1051D0000C19086000200090DFF8940A802101601B
:1051E00000200090DFF8C00AD0E90023CDE90C23AD
:1051F0000CA812F09DFBDFF8B40A006850F0805054
:10520000DFF8A81A08600024DFF80C0B5FF080516B
:1052100001600025DFF8040BD0E90023CDE90A2363
:105220000AA812F085FBDFF8840A006850F00050ED
:10523000DFF8781A08600026DFF8DC0A5FF000511A
:1052400001600027DFF8D82AD2E90001CDE9080182
:1052500008A812F06DFBDFF8C409006850F00100E7
:10526000DFF8B81908605FF00008DFF8B409012121
:1052700001605FF00009DFF8D42AD2E90001CDE92E
:10528000060106A812F054FBDFF89009006850F000
:105290000200DFF8881908605FF0000ADFF8800973
:1052A000022101605FF0000B0FF08CF81522202125
:1052B000514814F0C1FF61222021554814F0BCFF71
:1052C000FA22DFF8DC1ADFF8A80611F0DBFEDFF8BF
:1052D000A00611F0F4FE21B0BDE8F08F80B5DFF834
:1052E000F01781F858000023DFF8E40790F8582001
:1052F0000421DFF8E0070DF041FC01BD80B5DFF8C7
:10530000D01781F859000023DFF8C40790F859201E
:105310000521DFF8C0070DF031FC01BD4FF47A71B3
:10532000884205DBDFF8DC0B40F2E73101600BE07F
:1053300010F1630F05DADFF8CC0B7FF0620101603A
:1053400002E0DFF8C01B0860704710B50C000100D8
:10535000DFF8A00A0BF058FE2100DFF8980A0BF0E6
:105360009DFFDFF8940A01218170DFF88C0A12F0AA
:10537000DFFADFF8880A01218170DFF8800A12F075
:10538000D7FA0121DFF86C0A0BF0EDFF10BD38B53C
:105390000021DFF8600A0BF0E6FFDFF85C0A00216D
:1053A0008170DFF8540A12F0C3FADFF87008006861
:1053B00050F40040DFF8641808600024DFF860084B
:1053C0004FF4004101600025DFF8300A00218170B0
:1053D000DFF8280A12F0ACFADFF84008016821F47F
:1053E000803101600020DFF838185FF480320A60F5
:1053F000002131BDCC090010DC550010585A0010B6
:10540000C05100109C0A0010BC590010B85900107F
:10541000B05100102DE9FC41DFF8EC0A00780028BB
:1054200040F08780DFF8E40A006800280CD0DFF83D
:10543000DC0A0068002800F08181DFF8D00A0068EB
:105440008047002800F07A81DFF8C41ADFF8C40A28
:10545000FFF77BFFDFF8C00AA5210170DFF8B80A6B
:1054600006214170DFF8B00A30218170DFF8940A1C
:105470000068012810DBDFF88C0A0268B5A1DFF8AC
:105480009C0A13F053FDDFF8900A01218171DFF8C7
:10549000880A0021C1710CE0AFA1DFF8800A13F087
:1054A00045FDDFF8740A00218171DFF86C0A0121E3
:1054B000C1710821DFF8600A12F072FCDFF8581A97
:1054C0000872DFF8541AC0F307224A72DFF8481A4C
:1054D000C0F307428A72000EDFF83C1AC872DFF888
:1054E000400A5FF48001016000246420FFF77AFA2B
:1054F00001230C22DFF8201ADFF8F8080BF05CFE1D
:10550000DFF8F0080BF0C3FE0128F9D00A20FFF7FE
:1055100069FADFF80C075FF48001016000241421B0
:10552000DFF8080C14F0E2FADFF8DC090121017061
:1055300004E100231022DFF8E019DFF8B8080BF0CF
:105540006EFE0400102C40F0B980DFF8CC09007822
:105550000A2840F0B380DFF8C00940780A2840F0FC
:10556000AD80DFF8B4098078202840F0A780DFF80C
:10557000A809201810F8040CDFF89C19611811F81C
:10558000031C50EA0120DFF89019611811F8021C81
:1055900050EA0140DFF88019611811F8011C50EA47
:1055A000016501A812F0D8FB002606E0DFF86809C3
:1055B000315C01A812F0D4FB761C201F8642F5DB7B
:1055C00001A812F0E7FB0198A84240F09880DFF8AC
:1055D0004809C478DFF840090079DFF83C194D79B3
:1055E000EDB2002D00D10125DFF82C0986790322C8
:1055F000DFF8301900A814F07CFF00208DF80300BC
:10560000DFF81409807A002801D0012700E0002784
:10561000DFF80409C07A002802D05FF0010801E039
:105620005FF00008DFF84C090078EDB2A8421AD10B
:10563000DFF84009C078F6B2B04214D1032200A9C5
:10564000DFF8340912F060FC00280CD1DFF82409DF
:10565000007AFFB2B84206D1DFF81809407A5FFA43
:1056600088F8404525D0DFF80C0900214170DFF8AB
:1056700004098470DFF8FC080570F6B2002E01D032
:10568000012000E00020DFF8EC18C870042200A917
:10569000DFF8E40814F02DFFDFF8D8080772DFF810
:1056A000D40880F809800A22DFF8C81832200AF0EE
:1056B00091F8DFF8C8080521016020E0DFF8BC0898
:1056C000006800281BD0DFF8B4080068401EDFF82F
:1056D000AC180860DFF8A408006800280FD1DFF8D4
:1056E0009408002101700A22DFF8881832200AF09D
:1056F00071F80A220021DFF87C0814F09DFD0023D8
:105700000A22DFF81418DFF8EC060BF088FD0028F9
:10571000F5D1FFF73CFEDFF868090068002803D0E8
:10572000DFF85C0900688047DFF8DC0700210170C2
:105730004FF47A71DFF8F40914F0D8F9DFF8EC09C6
:1057400011F0ABFCBDE8F38108400040004002408E
:105750009B0A001025336400202030000236001020
:105760001736001038B5DFF818291160DFF89C17DC
:105770000860DFF8100912F0DBF8DFF8A004006819
:1057800050F48000DFF8941408600024DFF89004DF
:105790005FF4800101600025DFF878070BF0DEFC84
:1057A000DFF870074FF416510160DFF86807032136
:1057B0004171DFF8600700210171DFF8580700210F
:1057C0008171DFF84C070BF0C7FDDFF844070321B8
:1057D000C170DFF83807006800280AD003E04FF4F2
:1057E0007A700DF073FFDFF8240700688047002807
:1057F000F5D0DFF81C17DFF81C07FFF7A6FDDFF870
:1058000020075FF48001016000244FF4FA70FFF775
:10581000E9F8DFF80407A5210170DFF8FC0606218E
:105820004170DFF8F40630218170DFF8EC06382192
:10583000C170DFF8E40638210171DFF8DC06382199
:105840004171DFF8D40601218171DFF8CC06012116
:10585000C1710821DFF8C00612F0A2FADFF8B8160D
:105860000872DFF8B416C0F307224A72DFF8A816F0
:10587000C0F307428A72000EDFF89C16C872DFF888
:10588000A0065FF48001016000256420FFF7AAF8FC
:1058900001230C22DFF88016DFF858050BF08CFC92
:1058A000DFF850050BF0F3FC0128F9D00A20FFF7D0
:1058B00099F8DFF86C035FF4800101600024142084
:1058C0000DF004FF00230A22DFF84C16DFF8240550
:1058D0000BF0A5FC0028F5D1FFF759FDDFF8A00774
:1058E0000068002803D0DFF8980700688047DFF8D9
:1058F0001806002101704FF47A62DFF89C18DFF877
:105900002C0811F0BFFBDFF8240811F0D8FB31BDE3
:10591000C10706D5DFF800145FF480120A60002189
:1059200005E0DFF8F41A5FF480120A600021C0B2CB
:10593000810706D5DFF8E0135FF400120A6000214A
:1059400005E0DFF8D41A5FF400120A600021C0B24B
:10595000400706D5DFF8C0035FF480210160002016
:1059600005E0DFF8B40A5FF4802101600020704791
:105970003057001010B50024082C80F2A3802000BE
:10598000C0B2FFF7C5FF0A20FFF72CF8DFF80C08BC
:105990000068400201D5012100E00021C9B20A20BF
:1059A000DFF8FC2700FB042012F05AF9012822D06E
:1059B000022814D0032802D006282DD03CE0DFF8BE
:1059C000E40750F82400002804D0DFF8D80750F886
:1059D00024008047DFF8D007022121542CE0DFF8B3
:1059E000CC0750F82400002826D0DFF8C00750F874
:1059F0002400804720E0DFF8B80750F82400002892
:105A000005D00120DFF8A81751F824108847DFF8E7
:105A10009807012121540FE0DFF8940750F8240083
:105A2000002805D00020DFF8881751F82410884797
:105A3000DFF8740700212154DFF87807006880033D
:105A400001D5012100E00021C9B20A20DFF8682752
:105A500000FB042012F004F9002804D001280ED025
:105A600006281DD02CE0DFF8540750F82400002849
:105A700026D0DFF8480750F82400804720E0DFF800
:105A8000400750F82400002805D00120DFF8301727
:105A900051F824108847DFF82C07012121540FE02A
:105AA000DFF81C0750F82400002805D00020DFF89C
:105AB000101751F824108847DFF8080700212154F7
:105AC000641C59E7DFF8080B11F0E7FA10BD00007D
:105AD000D435001000800140B4A6010040C0092068
:105AE0005CC00920BCA601002DE9F04F8BB0DFF8A7
:105AF000D806D0E90023CDE9082308A811F018FF43
:105B00006A48006850F48010684908605FF0000A35
:105B1000DFF804095FF4801101600024DFF8FC085D
:105B2000D0E90023CDE9062306A811F001FF5F4864
:105B3000006850F400105D4908600025DFF8D808BF
:105B40005FF4001101600026DFF8D428D2E90001DB
:105B5000CDE9040104A811F0EBFE5448006850F4AC
:105B60008020524908600027DFF8AC085FF48021EC
:105B700001605FF00008DFF8AC28D2E90001CDE950
:105B8000020102A811F0D4FE4848016821F4800106
:105B900001605FF00009DFF89028D2E90001CDE94B
:105BA000000100A811F0C4FE1C48016821F4003176
:105BB00001605FF0000B1422DFF87018DFF8100AA4
:105BC00011F060FADFF8080A11F079FA0BB0BDE8BD
:105BD000F08F021E082A03D2DFF8D02542F82010E9
:105BE000704710B4031E082B09D20A23DFF8B04512
:105BF00003FB0043D980DFF8AC1541F8202010BC2E
:105C000070470000C4A60100021E082A03D2DFF874
:105C1000B02542F820107047CCA6010000C0092032
:105C200018C00920D4A60100DCA601001FB5DFF8CA
:105C30000008D0E90023CDE9022302A811F078FE84
:105C4000DFF89009016821F4807101600024DFF819
:105C5000E407D0E90023CDE9002300A811F068FE95
:105C6000DFF87009016821F48061016000201FBD28
:105C700058C00920E4A60100C0B2002805D026497A
:105C80005FF400020A60002105E0DFF88C175FF482
:105C900000020A600021DFF88819087070470000D0
:105CA000ECA60100F4A60100FCA6010020C009201A
:105CB00030B585B0DFF82009D0E90023CDE9022313
:105CC00002A811F035FEDFF81409006850F4000056
:105CD000DFF8081908600024DFF83C075FF40001D2
:105CE00001600025DFF8F808D0E90023CDE90023A2
:105CF00000A811F01DFEDFF8DC08006850F020005D
:105D0000DFF8D01808600020DFF82C1720220A6086
:105D1000002105B030BD000038C0092004A70100F3
:105D20000CA70100C0B2002806D0DFF8FC185FF411
:105D300000120A60002104E079495FF400120A6051
:105D40000021DFF8E81808707047000014A7010070
:105D5000C0B2002806D0DFF8D8185FF080720A6061
:105D6000002105E0DFF8B0165FF080720A600021C4
:105D7000DFF8B81848707047C0B2002806D0DFF8C6
:105D8000B0185FF080620A60002105E0DFF8881635
:105D90005FF080620A600021DFF890188870704719
:105DA000AF4E0000C0B2002806D0DFF884185FF0C4
:105DB00000720A60002105E0DFF85C165FF00072F7
:105DC0000A600021DFF86418C8707047C0B200286C
:105DD00006D0DFF85C185FF000620A60002105E081
:105DE000DFF834165FF000620A600021DFF83C182B
:105DF0000871704700000140380A0010400A001086
:105E00002DE9F04F8BB0DFF82C08D0E90023CDE965
:105E1000082308A811F08CFDDFF81C08006850F476
:105E20000010DFF8141808605FF0000B3C485FF4C6
:105E3000001101605FF0000ADFF80008D0E90023DC
:105E4000CDE9062306A811F073FDDFF8900700687E
:105E500050F08070DFF8841708600024DFF8B80580
:105E60005FF0807101600025DFF8D427D2E90001DE
:105E7000CDE9040104A811F05BFDDFF860070068BC
:105E800050F08060DFF8541708600026DFF88805BE
:105E90005FF0806101600027DFF8A827D2E90001E8
:105EA000CDE9020102A811F043FDDFF830070068D8
:105EB00050F00070DFF8241708605FF00008DFF88A
:105EC00058055FF0007101605FF00009DFF8782786
:105ED000D2E90001CDE9000100A811F029FDDFF8A9
:105EE000FC06006850F00060DFF8F0160860002043
:105EF000DFF824155FF000620A6000210BB0BDE8F6
:105F0000F08F00006C0A0010595A0010C859001098
:105F1000CC590010CC5800105058001053580010A5
:105F20001CC009205758001080B5DFF82007002159
:105F30000170DFF81C0700681A281AD1DFF814076F
:105F400000684008DFF80C170860DFF808070068F1
:105F50000002000ADFF8FC160860DFF8FC060068A3
:105F6000002806D0DFF8EC060068DFF8EC160968B8
:105F7000884701BD7C58001080580010C05900109F
:105F800080B510F0FDFFDFF8D4060078401CDFF884
:105F9000CC160870DFF8C4064078401CDFF8BC1649
:105FA0004870DFF8A806007800280FD1DFF89C06BB
:105FB00001210170DFF8980600210160DFF89406E6
:105FC00000210160DFF8980611F067F8DFF880061D
:105FD0000068401CDFF878160860DFF87806006873
:105FE0004000DFF870160860DFF878060068C0022D
:105FF00001D5012000E00020C0B2002807D0DFF862
:106000006806006850F48010DFF85C160860DFF85E
:1060100054060068000301D5012000E00020C0B252
:1060200000280FD0DFF84006006850F40020DFF8A9
:1060300038160860DFF81C06006850F00100DFF831
:1060400014160860DFF814064078401EDFF80C16BE
:106050004870DFF808060078012806D1DFF8FC0553
:106060004068002801D010F07CFFDFF8F0050078D0
:10607000401EDFF8E815087010F07CFF01BD00003D
:10608000C4590010480A001010B504006422DFF85B
:10609000DC15DFF8CC0510F0F5FFDFF8D41525206E
:1060A0000EF0BFFBF02125200EF0F5FB25200EF0B1
:1060B000BAFBDFF8C005006850F48010DFF8B415B3
:1060C00008600020DFF8AC15096851F40021DFF802
:1060D000A42511600021DFF88025146010BDDFF8D1
:1060E000980501210170704710B50400DFF88C0598
:1060F00011F011F8DFF88005002101702100DFF8B0
:106100007C0513F0F3FCDFF8740510F0C6FF10BD3A
:10611000DFF864050078704780B5DFF8600510F09F
:10612000FAFFDFF854050021017001BD445700104B
:1061300080B5DFF84C25127892F001020B00DBB23B
:10614000134203D0DFF83C2501231370DFF830251C
:106150001170DFF83415097891F001010200D2B214
:106160000A4203D0DFF8241501220A70DFF818155F
:106170000870DFF80C050078DFF80C150978084383
:10618000C0B2002804D0DFF80805FFF7ADFF01E03A
:10619000FFF7C2FF01BD00001554000034C0092004
:1061A000E008001024550010D458001004550010C9
:1061B0004455001014C00920300900108455001007
:1061C00064550010DC5800101CA7010010B5FFF743
:1061D0009FFF002809D0DFF8A80400210170DFF834
:1061E000A80400210170FFF797FFDFF894040078FE
:1061F000002800F0AE80DFF89C040068DFF89814F7
:106200000968884204D1DFF87C04007800280BD0AC
:10621000DFF88004DFF88014096801600222DFF8EB
:106220007814202001F006F800241CE0DFF86C044C
:10623000205CDFF86C14615C884204D1DFF8440410
:10624000007800280ED0DFF85404DFF85414615CA5
:1062500021540122DFF84804211814F12100C0B2B2
:1062600000F0E8FF641C082CE0DB00241CE0DFF8F1
:106270003404205CDFF83014615C884204D1DFF81C
:106280000404007800280ED0DFF81804DFF8181492
:10629000615C21540122DFF81004211814F131004F
:1062A000C0B200F0C7FF641C082CE0DB00241CE037
:1062B000DFF8F803205CDFF87413615C884204D1D6
:1062C000DFF8C003007800280ED0DFF8E003DFF825
:1062D0005C13615C21540122DFF85003211814F192
:1062E0004100C0B200F0A6FF641C052CE0DBDFF823
:1062F000C0030078DFF828130978884204D1DFF85A
:106300008403007800280AD0DFF8A403DFF8101314
:10631000097801700122C249512000F08BFFDFF89B
:1063200094030078BF490978884204D1DFF8540308
:106330000078002809D0DFF87C03BA490978017099
:106340000122B849522000F075FFDFF83803002120
:106350000170DFF83403007800285BD0DFF85803C1
:106360000078DFF8281309780843C0B200280DD060
:10637000DFF8440300210170DFF8400312F042FC13
:10638000421CDFF83813102000F054FFDFF8300310
:106390000078DFF8F81209780843C0B200280DD061
:1063A000DFF81C0300210170DFF8180312F02AFC4B
:1063B000421CDFF81013112000F03CFFDFF8080347
:1063C0000078B24909780843C0B200280CD0DFF841
:1063D000F80200210170DFF8F40212F013FC421CF5
:1063E000BA49152000F026FFB9480078A749097876
:1063F0000843C0B200280AD0B54800210170B54852
:1064000012F000FC421CB349162000F013FF9F4815
:106410000021017010BD00003CC0092024A701002C
:106420002CA7010034A701003CA70100755900000A
:1064300044A701004CA701005CC0092010B50C0066
:10644000A54991F82D10022902D0042960D0BEE0A0
:10645000C0B2002802D0402836D058E014222100D3
:10646000964811F051FD00280BD0142221009348CA
:1064700014F03FF89148002101758F48824909784E
:10648000017015229549914811F03EFD00283ED03B
:106490009248807820280DD1022290498B4811F033
:1064A00033FD002806D10D228D498E4811F02CFDB8
:1064B00000282CD015228949844814F01AF8824803
:1064C00071490978017022E0142221007D4811F001
:1064D0001BFD00280BD0142221007A4814F009F883
:1064E0007848002101757648674909780170512282
:1064F0007D49784811F008FD002808D051227A49DA
:10650000744813F0F6FF72485F49097801705EE045
:10651000C0B2002802D0402836D058E01422210012
:10652000664811F0F1FC00280BD0142221006348CA
:1065300013F0DFFF6148002101755F485249097877
:10654000017015226549614811F0DEFC00283ED03B
:106550006248807820280DD1022260495B4811F002
:10656000D3FC002806D10D225D495E4811F0CCFC19
:1065700000282CD015225949544813F0BAFF52482C
:1065800041490978017022E0142221004D4811F0A0
:10659000BBFC00280BD0142221004A4813F0A9FFAD
:1065A0004848002101754648374909780170512251
:1065B0004D49484811F0A8FC002808D051224A490A
:1065C000444813F096FF42482F490978017010BDE6
:1065D0005857001040C0092054A7010020C00920CE
:1065E0005CA7010080B515220021344813F024FE79
:1065F00015220021334813F01FFE152200213348D5
:1066000013F01AFE51220021324813F015FE3748CC
:106610000DF0F7FE00223649184810F033FD01BD99
:106620005A5A00105B5A001018C00920E458001094
:1066300038C0092064A7010000C009206CA7010030
:1066400074A701007CA7010084A701005C5A001018
:10665000D4590010D8590010D0590010CC0900109E
:106660006C570010888002408C800240295F000037
:10667000815F0000948002409D0A00108057001046
:106680005D5A00105E5A00105F5A0010605A0010E8
:10669000E0930400DC5900106C0A0010EC58001064
:1066A000D4580010F4580010DC580010FC580010AA
:1066B000655A0010665A0010615A0010F455001017
:1066C000625A00100C560010635A00102456001035
:1066D000645A001014520010D4350010DC5500101C
:1066E000DF55001027560010C05100103D64000017
:1066F000DF60000080B5DFF8300B09F09CFFDFF8A9
:10670000201C086001BDBFF34F8FDFF8180C006834
:1067100010F4E060DFF8141B0843DFF8081C086081
:10672000BFF34F8FFEE780B510F02AFCDFF8F80BBF
:106730000078401CDFF8F01B0870DFF8EC0B4078A5
:10674000401CDFF8E41B4870DFF8940B0068002859
:1067500003D0DFF88C0B00688047DFF8CC0B407863
:10676000401EDFF8C41B4870DFF8BC0B007801281E
:1067700006D1DFF8B40B4068002801D010F0F1FB1F
:10678000DFF8A40B0078401EDFF89C1B087010F0A7
:10679000F1FB01BD38B504001500DFF8440B0160C2
:1067A00020000EF03EF8290020000EF074F82000C2
:1067B0000EF039F831BD00B595B0DFF8700B016807
:1067C00021F080410160DFF8680BD0E90023CDE9BA
:1067D000122312A811F0ACF8DFF8580BD0E900230F
:1067E000CDE9102310A811F0A3F8DFF84C0BD0E985
:1067F0000023CDE90E230EA811F09AF8DFF83C0B28
:10680000D0E90023CDE90C230CA811F091F8DFF8B2
:10681000300BD0E90023CDE90A230AA811F088F84B
:10682000DFF8200BD0E90023CDE9082308A811F0F8
:106830007FF8DFF8140BD0E90023CDE9062306A882
:1068400011F076F8DFF8040BD0E90023CDE904233A
:1068500004A811F06DF8DFF8F80AD0E90023CDE9BB
:10686000022302A811F064F8DFF8E80AD0E9002357
:10687000CDE9002300A811F05BF8DFF8B00A00684A
:1068800050F08040DFF8A41A086015B000BD80B554
:106890004FF44051DFF8C00A09F000FEDFF8BC0AEF
:1068A00009F0D6FEDFF8B80A09F0FEFEDFF8B40AF8
:1068B000007E002806D0002300220021002007F0DF
:1068C000EFFE16E0DFF89C0AD0F81D10DFF8940AFE
:1068D000D0F8190009F0F0FEDFF8880AD0F821108E
:1068E000002009F0F6FEDFF87C0AD0F8250013F04E
:1068F000E9FD40F2DC5100200AF054F84FF48071B9
:10690000082009F09BFF4FF4C061042009F096FFB6
:106910004FF480614FF4806009F09EFF002005F085
:1069200015FF5FF0FF3013F062FCDFF8BC0D13F0D1
:106930005BFC01BDE0B509F0CBFF022002904FF4F3
:106940007A700190DFF8200A0090DFF8203A962252
:10695000DFF81C1ADFF8940D11F00EFC07BD00B52E
:1069600085B0DFF8101A08609F218DF80C10012205
:1069700003A90FF0D5F8022002904FF4487001905F
:10698000DFF8F4090090DFF8F4396422DFF8F01939
:10699000DFF85C0D11F0F0FB05B000BD2DE9F04310
:1069A00089B002E032200CF091FE09F069FF002866
:1069B000F8D004A8DFF8CC19102211F014FADFF88F
:1069C000A409D0F8290009F036FE0590002507E05B
:1069D000DFF8A00900680FF017F932200CF076FEFE
:1069E00001A9DFF8900900680FF0F3F80600632EA4
:1069F00000DB62265FF0FF38002E00F01E83019856
:106A000007780198401C0190761E00220121022087
:106A100005F07CF90400002C00F00F8300200090AA
:106A2000002341F215025FF0FF31200005F020FD48
:106A300040F6B83002900420009002AB41F205020B
:106A40005FF0FF31200005F013FD40F6B8300290F2
:106A50000420009002AB41F206025FF0FF312000FB
:106A600005F006FD102204A9200005F067FA804613
:106A700018F1010F00F0DE8240F24E200090002E4F
:106A800004D0009816F1A001081800905FF00009EA
:106A9000DFF8600C0021017064220021DFF8600D36
:106AA00013F0CAFBDFF84C0C0078002849D002280C
:106AB0005FD052D3042874D067D3062800F08980B1
:106AC0007CD3082800F09D80C0F08F800A2800F059
:106AD000B380C0F0A5800C2800F0C780C0F0B8805B
:106AE0000E2800F0DA80C0F0CC80102800F0F08092
:106AF000C0F0E280122800F00681C0F0F580142872
:106B000000F01981C0F00B81162800F02D81C0F033
:106B10001F81182800F04081C0F032811A2800F04F
:106B20006281C0F045811C2800F07581C0F067814A
:106B30001E2800F08881C0F07A811F2800F098811B
:106B4000A3E1DFF8B41BDFF8B80C12F0EFF9050091
:106B5000DFF8A00B0121017097E1DFF8A01BDFF83F
:106B6000A00C12F0E3F90500DFF8880B0221017098
:106B70008BE1DFF88C1BDFF8880C12F0D7F90500E9
:106B8000DFF8700B032101707FE1DFF8241CDFF8D0
:106B9000700C12F0CBF90500DFF8580B04210170DE
:106BA00073E1009ADFF80C1CDFF8540C12F0BEF908
:106BB0000500DFF8400B0521017066E1ABA1DFF8AD
:106BC000400C12F0B3F90500DFF8280B0621017024
:106BD0005BE1DFF8301CDFF8280C12F0A7F90500A4
:106BE000DFF8100B072101704FE1DFF81C1CDFF804
:106BF000100C12F09BF90500DFF8F80A082101706B
:106C000043E1FDF7F9FE0200DFF8001CDFF8F00BAE
:106C100012F08CF90500DFF8DC0A0921017034E17B
:106C2000DFF8E01BDFF8D80B12F080F90500DFF881
:106C3000C40A0A21017028E1DFF8D41BDFF8C00B79
:106C400012F074F90500DFF8AC0A0B2101701CE1A9
:106C50000122DFF8C01BDFF8A80B12F067F905006E
:106C6000DFF8900A0C2101700FE1DFF8981BDFF8C4
:106C7000900B12F05BF90500DFF8780A0D21017026
:106C800003E1DFF8941BDFF8780B12F04FF90500F1
:106C9000DFF8600A0E210170F7E0DFF8C806027C19
:106CA000DFF8701BDFF8580B12F040F90500DFF831
:106CB000440A0F210170E8E0DFF8481BDFF8400BC1
:106CC00012F034F90500DFF82C0A10210170DCE025
:106CD000DFF8481BDFF8280B12F028F90500DFF871
:106CE000140A11210170D0E0DFF8500C0268DFF8BF
:106CF000241BDFF80C0B12F019F90500DFF8F4097A
:106D000012210170C1E0DFF8FC1ADFF8F40A12F07A
:106D10000DF90500DFF8DC0913210170B5E0DFF89B
:106D2000201CDFF8DC0A12F001F90500DFF8C409C5
:106D300014210170A9E03A00DFF8D81ADFF8C00A80
:106D400012F0F4F80500DFF8AC09152101709CE0A1
:106D5000DFF8B01ADFF8A80A12F0E8F80500DFF84B
:106D600094091621017090E0DFF8D81BDFF8900A33
:106D700012F0DCF80500DFF87C091721017084E0CF
:106D8000DFF8641CDFF8780A12F0D0F80500DFF8AD
:106D900064091821017078E0DFF8501CDFF8600A00
:106DA00012F0C4F80500DFF84C09192101706CE0FD
:106DB0001022DFF83C1CDFF8480A13F09AFB10257C
:106DC0002AA1DFF83C0A281812F0B0F84519002E65
:106DD00004D0DFF820091A21017056E0DFF8140909
:106DE0001F21017051E0DFF81C1ADFF8140A12F0BD
:106DF0009DF80500DFF8FC081B21017045E0DFF875
:106E0000F41BDFF8FC0912F091F80500DFF8E40844
:106E10001C21017039E0DFF8D01BDFF8E40912F023
:106E200085F80500DFF8CC081D2101702DE0DFF8A2
:106E3000BC1BDFF8CC0912F079F80500DFF8B408C4
:106E40001E21017021E032000199DFF8B40913F02E
:106E500050FB350005A1DFF8A809281812F066F8E4
:106E60004519DFF890081F2101700EE00D0A00009F
:106E7000DFF8581CDFF8880912F058F805005FF0B9
:106E80000109DFF8700800210170681E642813D220
:106E900001200CF01BFC00232A00DFF864192000FD
:106EA00005F09FFB80465FFA89F9B9F1000F03D125
:106EB00018F1010F7FF4F0AD0026002000900025AE
:106EC00064220021DFF8380913F0B6F95FF00009F9
:106ED0005FF0000800230122DFF8240929182000B0
:106EE00005F0FCFA012840F09A806D1C022DC0F2DA
:106EF0008B80DFF80C09281810F8020C0D2840F0E0
:106F00008380DFF8FC08281810F8010C0A287BD1D0
:106F1000F6B23000002802D0012810D06DE0112D0B
:106F20000AD11122DFF8E81BDFF8D40810F0ECFFDB
:106F3000002801D1012660E05FF0FF385DE0022DFE
:106F40004CD10098002846D00098652843DA642286
:106F50000021DFF8AC0813F06FF90023009ADFF886
:106F6000A018200005F0BAFA0500009885422FD13C
:106F70005FF00109022D10D102228CA1DFF88008F8
:106F800010F0C2FF002808D1DFF8B0090068401CEB
:106F9000C0B2DFF8A81908602FE0082D15D1002035
:106FA0000390DFF85C080021017203AA9DA1DFF8BD
:106FB000500812F04FFC012804D1DFF8340C03997B
:106FC00001601AE05FF0FF3817E05FF0FF3814E06F
:106FD0005FF0FF3811E05FF001090EE01022DFF8EA
:106FE000141CDFF81C0810F08FFF002805D100AA40
:106FF0008FA1DFF8040C12F02DFC00256422002183
:10700000DFF8FC0713F018F9642D0ADB6D1E2A0067
:10701000DFF8E81BDFF8E80713F06BFA01E05FF038
:10702000FF385FFA89F9B9F1000F03D118F1010FA8
:107030007FF450AF200005F034FB18F1010F7FF40E
:10704000C7AC4FF4FA600CF041FBC9E410B5040082
:107050000422B34920000BF058FEA08A4FF480713F
:1070600088420CD120000BF04EFEDFF8241C09688A
:10707000002904D00021DFF8182C12689047002066
:1070800010BD80B5DFF80C1C0860DFF80C0C11F0A7
:1070900065FC01BD10B582B002E032200CF016FB99
:1070A00009F0EEFB0028F8D0DFF8EC0B11F00EFF32
:1070B000DFF8E00B00680028F6D04FF480700BF08A
:1070C00043FF0400002CEFD020000BF01CFE4FF417
:1070D0008072DFF8C01B096813F00BFADFF8B40BFD
:1070E000002101600094002340F2F462DFF8AC0B51
:1070F000016800200BF0F2FED6E7E0B5DFF8901B48
:107100000860494809F097FA854908600020009016
:10711000DFF88C3B40F2F562002100200BF034FFD9
:10712000DFF8740B13F075FB022002904FF47A70B5
:107130000190DFF8800C0090DFF87C3C6422DFF8DF
:107140007C1CDFF8D00C11F017F807BD80B5C0B279
:107150000300002B04D0012B0BD0FF2B06D01AE02C
:1071600000220021002000F065F81EE0FFF7CBFAB6
:107170001BE04878002801D0012200E000220878B6
:10718000002801D0012000E000201100C9B2C0B2E7
:10719000FEF7CEFF09E0DFF8803C1B68002B04D02F
:1071A000C0B2DFF8743C1B68984701BD4F4B00002C
:1071B0002DE9F04182B00400A08A083880B2F92895
:1071C0002DD220000BF09FFD05002878002826D145
:1071D000A08A061F775900A810F0BEFD5FF00008D6
:1071E00006E018F8051000A810F0BAFD18F1010823
:1071F000B045F6DB00A810F0CDFD0098B8420ED1E6
:107200000422DFF8181C20000BF07FFD6878DFF8FF
:10721000101C0870EA78291DA878FFF797FF002056
:10722000BDE8F681256C78007900A8C00400FA0555
:10723000256400002DE9FC41070088461400F92C64
:1072400001DB00204AE014F108000BF07DFE050090
:10725000002D42D028000BF056FD060001203070B2
:10726000DFF8BC0B00787070B770F470B8F1000FE5
:1072700006D0002C04D022004146301D13F039F90D
:1072800001A810F069FD002704E0B95D01A810F025
:1072900067FD7F1C201D8742F7DB01A810F07AFDF7
:1072A000A01901990171A0190199C1F30721417138
:1072B000A0190199C1F307418171A0190199090E23
:1072C000C171009500234FF4DE62DFF8500B0168B6
:1072D00000200BF003FE012000E00020BDE8F68155
:1072E0006059001080B5DFF8301B08601D48D0F8E9
:1072F00019001C49D1F81D105FF0FF3251400843BE
:1073000009F099F9DFF8141B086000200090DFF8FD
:10731000143B4FF4DE62002100200BF035FE01BD6E
:107320006C5900100CED00E0CC090010C4C00F40F7
:10733000E4A50100ECA50100F4A50100FCA50100F5
:1073400004A601000CA6010014A601001CA6010061
:1073500024A601002CA6010000000820B89D010011
:10736000E6350010D4350010042E00107907010016
:1073700034A60100685900104C3900109D690000C6
:1073800010A5010094A2010010B503000800DBB2B3
:10739000190000296AD0022975D0032921D01329A8
:1073A00000F01981142900F02281152900F02981AB
:1073B000162900F03181172900F03981182900F0D1
:1073C0004181252900F08980272900F09D80FC2932
:1073D00079D0FD2950D0FE2961D0FF2900F08C80A2
:1073E0003BE10F22DFF8401AFD2000F08BF901226B
:1073F000DFF8381AFC2000F085F90122DFF8301A96
:10740000252000F07FF90622DFF8281A132000F06B
:1074100079F90122DFF8201A142000F073F9042210
:10742000DFF8181A152000F06DF90422DFF8101AA1
:10743000162000F067F90422DFF8081A172000F080
:1074400061F90422DFF8001A182000F05BF9DFF878
:10745000FC090068002803D0DFF8F00900688047C5
:1074600000220021002000F04DF902E1002200215D
:10747000002000F047F9FCE00F22DFF8AC19FD20F6
:1074800000F040F9F5E000220021022000F03AF976
:107490004FF47A700CF01AF9FFF735F9E9E0102291
:1074A0000100DFF8AC0913F024F80BF076F80022A5
:1074B0000021022000F026F94FF47A700CF006F952
:1074C000FFF721F9D5E0DFF8881900780874002269
:1074D0000021002000F016F9CBE00078002801D050
:1074E000012000E00020DFF8681948740022002124
:1074F000002000F007F9BCE00BF04FF8002200215B
:10750000002000F0FFF8B4E0042A40F0B280DFF879
:1075100044190978491CDFF83C29117013F03AF836
:1075200004000021DFF830090CF03CFD0021DFF8F9
:1075300028090CF013FEDFF820090CF009FDDFF834
:1075400018090CF01FFD22680021DFF80C090CF06F
:107550003FFD62680121DFF800090CF039FDA268E7
:107560000221DFF8F4080CF033FD2069421C0621EB
:10757000DFF8E4080CF02CFD606900F26C72072162
:10758000DFF8D4080CF024FDE2680421DFF8C80815
:107590000CF01EFDA2690321DFF8BC080CF018FDF9
:1075A000E069421C0521DFF8B0080CF011FD012153
:1075B000DFF8A4080CF0F6FCDFF8A0280021DFF8C3
:1075C00098080CF0F3FD0BF0FDFE002200210020D6
:1075D00000F098F84DE006220100DFF8580812F09C
:1075E00088FF00220021002000F08CF841E0DFF845
:1075F00060180078087600220021002000F082F850
:1076000037E0DFF84C180068C1F81D0000220021A7
:10761000002000F077F82CE0DFF834180068C1F89B
:10762000210000220021002000F06CF821E0DFF8AA
:1076300020180068C1F8290000220021002000F075
:1076400061F816E0DFF808180068C1F81900002298
:107650000021002000F056F80BE0DFF8041809685C
:10766000002906D001001800C0B2DFF8F4371B680B
:10767000984710BD2DE9F04182B00400A08A083877
:1076800080B2F9282DD220000BF03DFB05002878B0
