:100000000004001045810100B1490100B949010017
:0C001000C1490100C9490100D1490100AB
:10001C00F609F8EF000000000000000000000000EE
:10002C00D9490100E149010000000000395C0100E0
:10003C0061340100E9490100F1490100F94901006D
:10004C00014A0100094A0100114A0100194A010044
:10005C00214A0100294A0100314A0100394A0100B4
:10006C00414A0100494A0100514A0100594A010024
:10007C00614A0100694A0100714A0100794A010094
:10008C00814A0100894A0100915F0000914A0100F8
:10009C00994A0100A14A0100A94A010057D7000062
:1000AC00B14A010027660000B94A0100C14A0100AB
:1000BC00C94A0100D14A0100D94A0100E14A0100B4
:0402FC0021436587AE
:1003000031323334350000000000000000000000EE
:1003100000000022C7A50003005B00A8C000FFFF8B
:10032000FF7900A8C00100A8C07900A8C00F5A64D6
:10033000000001000300010000000000173B000066
:10034000173B0000173B0D05020501202020C0C20D
:10035000D2CECCC0D2C8D7C5D1CAC0DF20CFC0D082
:10036000CACEC2CAC0202020000500C2DAC5C7C458
:10037000CDCEC920C1C8CBC5D2000D0605050000F1
:100380000300CFF0EEE8E7E2EEE4F1F2E2EE2C203B
:10039000EEE1F1EBF3E6E8E2E0EDE8E52C20F0E554
:1003A000ECEEEDF220EFEBE0F2EDFBF5000300E008
:1003B000E2F2EEECE0F2E8F7E5F1EAE8F520EFE052
:1003C000F0EAEEE2EEEA2C20F1E8F1F2E5EC20E4CE
:1003D000EEF1F2F3EFE02C000300E2E8E4E5EEEDED
:1003E000E0E1EBFEE4E5EDE8FF2C20F1E8E3EDE0F1
:1003F000EBE8E7E0F6E8E9000400000D070404007C
:10040000C2EDE8ECE0EDE8E521000400CDE520ECEC
:10041000EDE8F2E520E1E8EBE5F22C20F1EEF5F075
:10042000E0EDFFE9F2E5000400E1E8EBE5F220E4AD
:10043000EE20E2FBE5E7E4E020F120EFE0F0EAEE79
:10044000E2EAE82E000100D8F2F0E0F420E7E02034
:10045000F3F2E5F0FE20E1E8EBE5F2E020353030A4
:10046000F0F3E12E000D08010100D1EFE0F1E8E129
:10047000EE20E7E020C2E0F820E2E8E7E8F2210021
:100480000D09000D0F00000000000000000000003A
:10049000000000000000000000000000000000005C
:1004A000000000000000000000000000000000004C
:1004B000000000000000000000000000000000003C
:1004C000000000000000000000000000000000002C
:1004D000000000000000000000000000000000001C
:1004E000000000000000000000000000000000000C
:1004F00000000000000000000000000000000000FC
:1005000000000000000000000000000000000000EB
:1005100000000000000000000000000000000000DB
:1005200000000000000000000000000000000000CB
:1005300000000000000000000000000000000000BB
:1005400000000000000000000000000000000000AB
:10055000000000000000000000000000000000009B
:10056000000000000000000000000000000000008B
:10057000000000000000000000000000000000007B
:10058000000000000000000000000000000000006B
:10059000000000000000000000000000000000005B
:1005A000000000000000000000000000000000004B
:1005B000000000000000000000000000000000003B
:1005C000000000000000000000000000000000002B
:1005D000000000000000000000000000000000001B
:1005E000000000000000000000000000000000000B
:1005F00000000000000000000000000000000000FB
:1006000000000000000000000000000000000000EA
:1006100000000000000000000000000000000000DA
:1006200000000000000000000000000000000000CA
:1006300000000000000000000000000000000000BA
:08064000000000000000A55AB3
:10200000BFF34F8FB848006810F4E060B749084349
:10201000B5490860BFF34F8FFEE7B5490968B44A78
:102020001268521A8242FAD3704780B5B148B24959
:10203000B1F9001089B20160AE4800680004AD49F2
:102040000860AC4800684FF6FF710843A949086072
:10205000A84802680221A94810F05AFF01BD80B5C6
:10206000A7490978002910D1A54901220A70A5497C
:102070000860A549A34800680CF050FCA34908700B
:102080000422A04928200BF04DFF01BD80B500229D
:10209000002102200BF046FF9D480121017001BD87
:1020A0009C480121017070479B48012101707047D5
:1020B00080B59A4801210170012009F04BFA01BD59
:1020C000974801210170704780B5FFF7F1FF9548EF
:1020D0000121017001BD94490978084393490870B2
:1020E00070479349097808439249087070479249AC
:1020F0000870704791490870704790F0010090494E
:10210000097808438F49087070478F480121017092
:10211000704710B504008D4813F0AFFE8A480021C7
:1021200001702100894816F079FB884813F067FE9A
:1021300010BD8548007870478548012101707047BF
:1021400010B50400834813F098FE81480021017007
:102150002100804816F062FB7E4813F050FE10BD4F
:102160007B48007870477C4801210170704710B5AA
:1021700004007A4813F081FE7748002101702100A5
:10218000764816F04BFB754813F039FE10BD7248C7
:102190000078704780B5714813F06FFE6E480021DB
:1021A000017001BD80B56D4813F067FE6A480121DA
:1021B000017001BD6A4801210170704710B504002B
:1021C000684813F05AFE66480021017021006548F6
:1021D00016F024FB634813F012FE10BD604800782F
:1021E0007047614801210170704710B504005F48D5
:1021F00013F043FE5C480021017021005B4816F09B
:102200000DFB5A4813F0FBFD10BD5748007870478E
:10221000574801210170704710B50400554813F06C
:102220002CFE5348002101702100524816F0F6FAA6
:10223000504813F0E4FD10BD4D480078704780B55C
:102240004C4813F01AFE4A480021017001BD80B5C8
:10225000494800210170494801210170484890F81F
:10226000340040F6B8314FF4967201FB0020FFF7BE
:10227000D3FF01BD80B54148002101703E480121D6
:1022800001703F4890F8340040F6B8314FF4967230
:1022900001FB0020FFF7C0FF01BD3A48012101709A
:1022A000704710B50400384813F0E7FD35480021A9
:1022B00001702100344816F0B1FA334813F09FFD45
:1022C00010BD30480078704780B52F4813F0D5FD19
:1022D0002C480021017001BD80B52B4813F0CDFDC5
:1022E00028480121017001BD0CED00E00400FA0551
:1022F00008400040345800107E5800100040024052
:10230000A758001038580010A9580010A8580010FD
:10231000AA580010AB580010AC580010950A0010D5
:10232000AD580010AE580010BE580010AF58001045
:10233000BF580010B0580010B1580010B25800102B
:10234000BD580010B3580010970A0010E055001057
:10235000980A0010F4550010990A00100856001051
:102360009A0A00101C5600109B0A001030560010EC
:102370009C0A001044560010B8580010B7580010BE
:10238000D03500109D0A00105856001070B58CB062
:1023900004F050FA02F0F4FD012002F0CAFD04003E
:1023A000022002F0C6FD0500DFF8741C200015F0C5
:1023B0005DFCDFF81C1B280015F058FC00210220F2
:1023C00002F0C4FDDFF80C0B04F0EDFDDFF8080BA4
:1023D0000BF08CFB0CF06AF90CF0AAFB0CF097FAEE
:1023E000DFF8F80A05F036FCDFF8FC0D05F0A7FA77
:1023F000DFF88C1BDFF8F40D05F020F904F068F825
:10240000DFF89C0B04F0C2FE09F092F8DFF8E00D53
:1024100003F040FE03F092FBDFF8A41B002003F062
:1024200002FCDFF8D01D012003F0FDFBDFF8B01B3C
:10243000022003F0F8FBDFF8C01D032003F0F3FBDC
:10244000DFF8BC1B042003F0EEFBDFF8181E0620AB
:1024500003F0E9FBDFF8CC1B002003F0EFFBDFF813
:10246000C81B012003F0EAFBDFF8C01B042003F0C7
:10247000E5FBDFF8BC1B052003F0E0FBDFF8B41B35
:10248000062003F0DBFB0021002003F083F900228B
:10249000DFF8A41BDFF8A40B13F0A6FC0022DFF882
:1024A000A01BDFF8A00B13F09FFC0022DFF8981BA5
:1024B000DFF8980B13F098FC0022DFF8941BDFF88C
:1024C000940B13F091FC0022DFF88C1BDFF88C0BCF
:1024D00013F08AFC0022DFF8881BDFF8880B13F06A
:1024E00083FC0022DFF8801BDFF8800B13F07CFCFC
:1024F0000022DFF8740D017CDFF8740B0BF040FF55
:10250000DFF8700B0078002805D000220021DFF8EA
:10251000680B0BF035FFDFF8D80D0078002805D0E8
:1025200000220021DFF8540B0BF02AFF0021DFF816
:102530003C0D10F0FFFCDFF8381D884211D0DFF8A9
:10254000401B200015F092FBDFF8381B280015F027
:102550008DFB0321022002F0F9FCDFF8180D0021A9
:1025600001700422DFF8201B34200BF0DBFC042276
:10257000DFF8181B39200BF0D5FC0422DFF87C1C97
:102580003A200BF0CFFC0222DFF8741C38200BF04D
:10259000C9FCFFF76FFE002003F01EFC002003F0D3
:1025A00007FC00220021AA200BF0BCFC4FF4FA60CB
:1025B0000FF03EFF4FF4FA60FFF773FE1021DFF8D3
:1025C000440C14F09FFA15F0A7FA12F0C6FF0DF0B4
:1025D00009F8002801D0012000E00020DFF8981C55
:1025E0000870DFF8940C007800280CD1DFF88C0C10
:1025F000007800280BD101200CF0CFF9DFF87C0C1B
:102600000121017003E0DFF8740C00210170C82083
:102610000CF048FA00280CD1C8200BF0DFFF00288E
:1026200007D1C8200CF02CF9002802D164200FF04B
:10263000FFFEDFF8340C407C002820D0FFF779FD46
:1026400000281CD002F05AFB0490042204A9FE20AA
:1026500005F0ECFA042204A9FF200BF063FC13F050
:102660003BFF052148433C2190FBF1F201FB1200A6
:1026700000F22C104FF47A714843FFF74AFD03F043
:10268000ABFDDFF8700C0078002807D0DFF8640C91
:1026900000210170FFF7C9FCFFF74EFDFFF760FD59
:1026A000002813D04FF4FA50FFF74AFDDFF8500B23
:1026B000B0F900004FF47A71884202DB40F2E73053
:1026C00002E0002800D5002002F058FEDFF8280CB8
:1026D0000078002811D0022849D030D3042800F017
:1026E000828060D3062800F0B980C0F0CF8008282F
:1026F00000F00681C0F0E5803BE1FFF748FD0028CF
:1027000000F03781DFF8F40B0078002808D04FF490
:10271000FA70FFF72CFDDFF8E00B0121017028E1D2
:10272000DFF8DC0B0078002800F023814FF4FA700A
:10273000FFF71DFDDFF8C00B0621017019E1FFF75F
:1027400026FD002800F01581DFF8B00B0078002886
:1027500008D0DFF8B00BFFF70AFDDFF89C0B022171
:10276000017006E1DFF8900B0021017001E1DFF854
:102770008C0B0078002808D142F21070FFF7F7FCAC
:10278000DFF8740B03210170F3E0FFF700FD002870
:1027900000F0EF80FFF7FEFC00220021DFF8680B5D
:1027A0000BF0EEFDE5E0DFF8580B0078002808D0CC
:1027B00041F28830FFF7DBFCDFF83C0B04210170AD
:1027C000D7E0FFF7E4FC002800F0D38000220021CE
:1027D000DFF8380B0BF0D4FDFFF7E4FCDFF8180B43
:1027E00000210170C5E0DFF8180B0078002823D124
:1027F000DFF80C0A0088401EDFF8041A0880DFF8B2
:10280000F40A012101700122DFF8041B11200BF0F2
:1028100089FB0122DFF8F81A112005F007FA0222DD
:10282000DFF8DC1938200BF07DFBFFF7BBFCDFF88D
:10283000C80A002101709CE0FFF7A9FC002800F005
:102840009880FFF7AFFCDFF8B00A0021017000228A
:102850000021DFF8C00A0BF093FD8AE0FFF797FC38
:10286000002800F08680DFF8980A0078002808D059
:10287000DFF8900AFFF77BFCDFF87C0A0521017086
:1028800077E0DFF8740A0021017072E0DFF8700A67
:102890000078002808D142F21070FFF768FCDFF8DA
:1028A000580A0721017064E0FFF771FC002860D02E
:1028B000FFF770FC00220021DFF85C0A0BF060FDDE
:1028C00057E0DFF8380A0078002808D041F2883055
:1028D000FFF74DFCDFF8200A0821017049E0FFF7FF
:1028E00056FC002845D000220021DFF8300A0BF00A
:1028F00047FDFFF757FCDFF8000A0021017038E0C0
:10290000DFF8F8090078002823D1DFF8F408008800
:10291000401CDFF8EC180880DFF8D80901210170AD
:102920000122DFF8EC1912200BF0FCFA0122DFF88B
:10293000E019122005F07AF90222DFF8C4183820D5
:102940000BF0F0FAFFF72EFCDFF8AC090021017064
:102950000FE0FFF71CFC00280BD0FFF723FCDFF88B
:1029600098090021017000220021DFF8B4090BF062
:1029700007FDFFF733FC002837D0DFF8A8090078FF
:10298000002819D1DFF8A00900210170DFF89C09A7
:102990000078002829D1DFF894090121017002F0A4
:1029A000ADF90890042208A921200BF0BBFA40F6EB
:1029B000B830FFF703FC18E0DFF870090021017060
:1029C000DFF86409007800280FD1DFF85C090121E5
:1029D000017002F093F90790042207A922200BF05E
:1029E000A1FA40F6B830FFF7E9FBDFF8080E0078EF
:1029F000002808D0022800F02D81C0F08280032832
:102A000000F0D88104E2FFF700FC002800F000820B
:102A1000DFF8540890F83100002801D0012000E0D0
:102A20000020C0B203F0AEF9DFF8040900780028F6
:102A30000DD0DFF8340890F834004FF47A71484331
:102A4000FFF7D3FBDFF8AC0D01210170E0E1DFF807
:102A5000E4080078DFF8E018097891F001010842F5
:102A600011D0DFF8D80800210170DFF8FC0790F8DA
:102A700034004FF47A714843FFF7B7FBDFF8740D69
:102A800002210170C4E1DFF8AC080078DFF8A81873
:102A90000978084216D0FFF7CFFB002812D0FFF7C5
:102AA000E9FBDFF898080078002840F0B181DFF8F2
:102AB0008C080121017000220021DFF884080BF04E
:102AC0005FFCA5E1DFF868080078DFF8681809788E
:102AD0000843DFF8701809780843DFF848180978C8
:102AE00091F001010843C0B2002840F09181FFF746
:102AF000A3FB002800F08C81DFF8F80C03210170A3
:102B000086E1DFF830080078DFF82C18097891F0BA
:102B10000101084221D0002003F008F9DFF848073E
:102B200090F8320000280BD1DFF83C0790F8310014
:102B3000002801D1012000E00020C0B203F022F9FA
:102B4000DFF8EC07002101704FF49670FFF74DFBA2
:102B5000DFF8A00C002101705AE1DFF8D4070078FB
:102B6000DFF8E017097891F0010108424CD001200C
:102B700003F0DCF8FFF749FB00280BD0002003F03E
:102B8000D5F84FF49670FFF730FBDFF8680C0021A2
:102B900001703DE1FFF750FB002800F03981FFF79D
:102BA0004EFBDFF880070078002805D000220021C6
:102BB000DFF8A40D0BF0E4FB00220021DFF8380C55
:102BC0000BF0DEFB002003F0B1F8DFF89C0690F874
:102BD000320000280BD1DFF8900690F83100002871
:102BE00001D1012000E00020C0B203F0CBF8DFF8F3
:102BF0004007002101704FF49670FFF7F6FADFF8F6
:102C0000F40B0021017003E1002003F08FF8DFF8DE
:102C1000580690F8320000280BD1DFF84C0690F8E7
:102C20003100002801D1012000E00020C0B203F0F3
:102C3000A9F8DFF8FC06002101704FF49670FFF749
:102C4000D4FA40F6B830FFF7E7FADFF8A80B002116
:102C50000170DDE0DFF8DC060078DFF8DC160978CB
:102C600091F001010840DFF8BC16097891F00101EC
:102C7000C0B208424ED0012003F06EF8FFF7C5FA4B
:102C800000280BD0002003F067F84FF49670FFF790
:102C9000ACFADFF8600B00210170B9E0FFF7CCFA65
:102CA000002800F0B580DFF89C060078002805D0E9
:102CB00000220021DFF8440B0BF062FB0022002110
:102CC000DFF83C0B0BF05CFB002003F045F8DFF86D
:102CD000980590F8320000280BD1DFF88C0590F8A9
:102CE0003100002801D1012000E00020C0B203F033
:102CF00049F8DFF84006002101704FF49670FFF7A5
:102D000074FA40F6B830FFF787FADFF8E80A0021D6
:102D100001707DE0DFF820060078DFF808160978FA
:102D200091F0010108421FD000220021DFF8C00C01
:102D30000BF026FB002003F00FF8DFF82C0590F8CD
:102D40003100002801D1012000E00020C0B203F0D2
:102D500019F84FF49670FFF748FAFFF78BFADFF88F
:102D6000940A0021017053E0002002F0F5FFDFF823
:102D7000F80490F8320000280BD1DFF8EC0490F84A
:102D80003100002801D1012000E00020C0B202F093
:102D9000F9FFDFF8A005002101704FF49670FFF7EE
:102DA00024FA40F6B830FFF737FADFF8480A002176
:102DB00001702DE0DFF878050078DFF878150978E4
:102DC0000843C0B2002804D0DFF8280A00210170AF
:102DD0001EE0DFF850050078002819D101F08EFFC1
:102DE0000690042206A93E200BF09CF8DFF8780438
:102DF00090F83600002807D000220021DFF8F40BFD
:102E00000BF0BEFAFFF736FADFF8E809002101708F
:102E1000DFF8540490F8380000280FD0DFF8E00302
:102E2000B0F90000012804DBDFF8CC0B01210170B0
:102E300008E0DFF8C40B0021017003E0DFF8B80BF5
:102E400001210170DFF82C04007800282BD0022823
:102E500000F0808044D3042800F0E186C0F02D818A
:102E6000062800F05B87C0F01287082800F08C87E6
:102E7000C0F05D870A2801F01880C0F0E7870C28B1
:102E800001F0FC80C1F0A2800E2801F09781C1F012
:102E90002281102801F02882C1F0CD81112801F093
:102EA000538201F066BA0021DFF8C00310F042F847
:102EB000DFF8BC13884241F05C824FF47A70FFF770
:102EC000F0F9DFF8B0030121017001F052BA00BF40
:102ED00084900100EBD80000256F000095430000AE
:102EE000FFF7EFF9002801F04482FFF7C3F9002053
:102EF00002F072FF002002F05BFFDFF8140E0021E9
:102F00000160DFF8F80A00210170DFF8F40A0021FF
:102F10000160DFF8F00A00210170DFF8EC0A0021FF
:102F20000170DFF8E80A00210170DFF8E80D0021E8
:102F30000170DFF89C0D00210170DFF8D40A002138
:102F40000170DFF8D00A02210170CA480221017025
:102F500001F00FBAFFF7B5F9002801F00A82DFF897
:102F6000B40A007800280DD001281BD0032849D0CE
:102F7000042827D0052835D0062800F0898093E062
:102F80002D460000012002F013FFDFF88C1A280004
:102F900014F06CFE0321022001F0D8FF84E000BF92
:102FA000D9490000012002F003FFDFF8701A280061
:102FB00014F05CFE0121022001F0C8FF74E000BFA4
:102FC0008D200000002002F0F3FEDFF8541A2800E4
:102FD00014F04CFE0321022001F0B8FF64E000BFB2
:102FE000B1200000002002F0E3FEDFF8381A2800CC
:102FF00014F03CFE0121022001F0A8FF54E000BFC4
:10300000C9200000002002F0D3FEDFF81C1A2800BF
:1030100014F02CFE0021022001F098FF44E000BFD4
:10302000C08C0100D7200000E3200000EF2000004A
:10303000F5200000FB2000000B210000E0550010EF
:1030400039210000F45500106721000008560010D7
:10305000B52100001C560010E3210000305600107E
:1030600011220000445600109B2200005856001008
:10307000888A0100A3580010AC790100BC820100CD
:10308000D48C0100E48401000A3600100E360010D2
:10309000012002F08DFEDFF89419280014F0E6FDFF
:1030A0000321022001F052FFDFF884092021017082
:1030B00070480321017001F05CB900216B480FF0EA
:1030C00039FF6B49884219D000220021DFF86409DA
:1030D0000BF056F9DFF86019200014F0C7FDDFF897
:1030E0005C19280014F0C2FD0021022001F02EFF1F
:1030F0004FF4FA600FF09CF9FEF782FF7C480078ED
:10310000002819D000220021DFF834090BF038F92B
:10311000DFF83019200014F0A9FDDFF8201928008D
:1031200014F0A4FD0021022001F010FF4FF4FA601A
:103130000FF07EF9FEF764FFFFF7C3F8002800F0F8
:103140000D81DFF8EC080078202840F0FD80DFF8E2
:10315000E0083A2101704FF42F70FFF7A2F801F058
:10316000CDFD059005A816F079F80600706900F20B
:103170006C7003903069401C0290F0680190706898
:103180000090DFF8AC080378B268DFF8941D2000E7
:1031900014F06CFD344890F83A00B16888420BDBBB
:1031A000B068314991F83A1088422DD170682E49A3
:1031B00091F83B10884227DBB0682B4991F83C100E
:1031C00088420BDBB068284991F83C1088421BD13B
:1031D000254890F83D007168884215DBDFF8380B10
:1031E0000121017014E000BFA94400005147000014
:1031F0005F200000A1200000C12000001236001056
:103200007E580010C4560010DFF80C0B002101702E
:10321000154890F84200B16888420BDBB06812494B
:1032200091F8421088422BD170680F4991F84310F1
:10323000884225DBB0680C4991F8441088420BDBCA
:10324000B068094991F84410884219D1064890F8AD
:1032500045007168884213DBDFF8C80C012101705A
:1032600012E000BFA9200000D0350010004002404D
:10327000DDEEAA559E0A0010A6580010A00A001004
:10328000DFF8A00C00210170DFF89C0C90F83E00E4
:10329000B16888420DDBB068DFF88C1C91F83E10F5
:1032A000884220D17068DFF8801C91F83F10884276
:1032B00019DBB068DFF8701C91F8401088420DDB14
:1032C000B068DFF8641C91F8401088420BD1DFF839
:1032D000580C90F841007168884204DBDFF8680BF5
:1032E000012101703AE0DFF8600B0021017035E048
:1032F000A4580010960A0010C0580010AF580010D3
:10330000B058001020BF02005C7801002C80010042
:1033100009360010547501008C7601004C7B0100C9
:10332000CC6F0100B2580010A20A0010A10A0010D0
:10333000B7580010B8580010B3580010C258001009
:10334000E0790100B1580010DFF8E4062021017097
:103350002020A0704FF49670FEF7A3FFDFF8D00690
:1033600000783A2841F00580DFF8A00600780028B0
:1033700014D0DFF81C1E280014F078FC0021022075
:1033800001F0E4FD4FF4FA60FEF78BFF0AF00DFD4B
:10339000DFF8980B0121017000F0EBBFDFF8900B14
:1033A0000078002815D1012002F002FDDFF8841B0F
:1033B000280014F05BFC0121022001F0C7FD4FF44E
:1033C000FA60FEF76EFFDFF8640B1121017000F068
:1033D000D0BF08F0D1F8002818D000220021DFF873
:1033E000580B0BF019F8DFF84C1B280014F03EFCCA
:1033F0000121022001F0AAFD4FF4FA60FEF751FF0F
:10340000DFF8280B1121017000F0B3BFDFF8840D45
:10341000007800281ED001F071FC0600DFF81C1BAC
:10342000280014F023FC0121022001F08FFD42F25C
:103430001070FEF736FF3200DFF85C0D0168DFF830
:10344000E80A007C08F0B7F8DFF8E00A0421017010
:1034500000F08FBFDFF8C008007800280ED1DFF839
:10346000B4050078002809D0DFF8A8050021017014
:10347000DFF8B80A0221017000F07BBFDFF898087E
:103480000078DFF8181D09780840DFF89C1A91F8D9
:103490003010084217D00022002124200AF042FDFB
:1034A000DFF89C1A280014F0E1FB0021022001F053
:1034B0004DFD40F6B830FEF7F4FEDFF8700A0C213F
:1034C000017000F056BFDFF850080078DFF82815CB
:1034D00009780840DFF8C81C09780840DFF8481A66
:1034E00091F83010084217D00022002124200AF061
:1034F00019FDDFF8501A280014F0B8FB0021022053
:1035000001F024FD40F6B830FEF7CBFEDFF81C0AD0
:103510000621017000F02DBFDFF82C090078DFF8DC
:103520007C1C09780840DFF8DC140978084222D0B6
:10353000DFF8F40990F83700002809D1DFF8C80453
:103540000078022804D0DFF8C0040078012812D1E6
:10355000DFF8F419280014F089FB0021022001F0A3
:10356000F5FC40F6B830FEF79CFEDFF8C0090C21F0
:10357000017000F0FEBEDFF8D0080078DFF87814A4
:1035800009780840DFF8181C09780840DFF874143F
:103590000978084222D0DFF8900990F83700002817
:1035A00009D1DFF864040078032804D0DFF8580458
:1035B0000078012812D1DFF89419280014F056FB86
:1035C0000021022001F0C2FC40F6B830FEF769FE8F
:1035D000DFF858090621017000F0CBBEDFF81C04AB
:1035E0000078DFF82014097891F00101084218D022
:1035F00000220021DFF8840D0AF0C2FEDFF8A41BD0
:10360000280014F033FB0321022001F09FFC41F657
:103610005830FEF746FEDFF814090121017000F072
:10362000A8BEDFF8D4030078DFF8741B09780840DF
:10363000DFF8E0160978084217D000220021132095
:103640000AF070FCDFF8601B280014F00FFB00216B
:10365000022001F07BFC40F6B830FEF722FEDFF8D6
:10366000CC080621017000F084BEDFF8300B007832
:10367000DFF85C160978084217D0002200211420D8
:103680000AF050FCDFF8241B280014F0EFFA0021A8
:10369000022001F05BFC40F6B830FEF702FEDFF8D6
:1036A0008C080C21017000F064BEDFF86C06007815
:1036B000D14909780840DFF8E81A09780840DFF8AE
:1036C000A81D097808421ED0DFF89C0D002101706A
:1036D000CB48002101600422C94929200AF022FCBC
:1036E000DFF8CC1A280014F0C1FA0021022001F002
:1036F0002DFC40F6B830FEF7D4FDDFF83008062187
:10370000017000F036BEDFF810060078DFF88C1A82
:1037100009780840DFF8541D097808421ED0DFF808
:103720004C0D00210170B648002101600422B4490B
:103730002A200AF0F7FBDFF8781A280014F096FA2E
:103740000021022001F002FC40F6B830FEF7A9FD8E
:10375000DFF8D8070C21017000F00BBEDFF8C407BA
:103760000078A54909780840DFF8341A097808403C
:10377000A7490978084245D0DFF81C0A0068401CB8
:10378000DFF8141A0860DFF8100A0068DFF8241A5E
:10379000884203D1DFF8000A01210160DFF8F8094F
:1037A00002680121DFF8100A0FF0B2FB01F0A6FA5F
:1037B000DFF85C150860DFF858050268DFF8D80903
:1037C0000168DFF86407007C07F0DCFEDFF8681BA7
:1037D000280014F04BFA0121022001F0B7FB42F25D
:1037E0001070FEF75EFDDFF844070421017000F061
:1037F000C0BD00BFC1580010DC7D0100087E010083
:10380000347E0100DFF80C050078DFF8C414097875
:103810000843DFF8541C09780843DFF8501C097886
:1038200008437B4909780843764909780843C0B2C0
:10383000002800F03D81012002F0BAFADFF8D4043C
:103840000078DFF88C1409780843DFF81C1C09782D
:103850000843DFF8181C09780843C0B2002804D0D8
:10386000002200212B200AF05DFB69480078DFF878
:10387000B416097891F00101084210D0002200210D
:10388000DFF8000B0AF07CFDDFF8FC1A200014F0D2
:10389000EDF9DFF8DC1B280014F0E8F9E4E0594802
:1038A0000078DFF8A415097891F00101084210D0E2
:1038B00000220021DFF8D40A0AF062FDDFF8D01AF6
:1038C000200014F0D3F9DFF8A81B280014F0CEF97B
:1038D000CAE0DFF8CC0800784A490978084219D0D4
:1038E00049480078022815D100220021DFF8840B16
:1038F0000AF046FD042242493B200AF013FBDFF8A0
:10390000781B200014F0B2F9DFF8701B280014F0C7
:10391000ADF9A9E0DFF8840800783A49097808424F
:103920001CD039480078032818D100220021DFF884
:10393000500B0AF025FD042231493B200AF0F2FA2F
:10394000DFF8401B200014F091F9DFF8301B28004D
:1039500014F08CF988E000BFB07D0100DFF840086A
:103960000078DFF8381809780843C0B2002814D16D
:1039700000220021DFF8100B0AF002FD2148007838
:10398000002804D0DFF8041B200014F06FF9DFF8E2
:10399000001B280014F06AF966E0DF480078002870
:1039A00010D100220021DFF8EC0A0AF0E9FCDFF870
:1039B000E81A200014F05AF9DFF8B41A280014F0BD
:1039C00055F951E00C48007800283DD10022002133
:1039D000DFF8C80A0AF0D4FCDFF8C41A200014F09B
:1039E00045F9DFF8C01A280014F040F93CE000BFA8
:1039F000C876010094780100A5580010A75800105F
:103A000038580010A8580010A9580010AA580010E3
:103A1000AD5800109F0A0010E08201009490010050
:103A2000A08A0100E88C0100A4900100B88A01007E
:103A3000A30A001004850100FC8C0100108D010018
:103A4000248D0100388D010000220021DFF8B40B25
:103A50000AF096FCDFF8B01B200014F007F9DFF83D
:103A6000AC1B280014F002F90021022001F06EFACC
:103A700040F6B830FEF715FCDFF8EC0900210170C4
:103A8000DFF8E80900210170A24800210170904888
:103A900000210170DFF8780B00210170DFF8880C3D
:103AA00000210170DFF884040121017000F061BC85
:103AB000DFF8600B007800281AD0DFF8580B0021DF
:103AC0000170DFF8542BDAA1280014F0CFF8DFF8EA
:103AD0004C0B0178022001F039FADFF8440B008822
:103AE000FEF7DFFBDFF844040221017000F041BC67
:103AF00089480078DFF8A81609780840DFF89C1696
:103B0000097808420ED0DFF81C0B0078012809D094
:103B1000DFF8100B01210170DFF8100402210170A1
:103B200000F027BC7C480078DFF8FC1A09780840D0
:103B3000DFF86C1609780840DFF86016097891F014
:103B40000101C0B208420ED0DFF8D80A007804287C
:103B500009D0DFF8D00A04210170DFF8D003022178
:103B6000017000F006BC6C480078DFF83016097868
:103B70000840DFF82C16097891F00101C0B2084224
:103B80000DD0DFF8A00A0078052808D0DFF8940AE5
:103B900005210170DFF8940302210170E9E35E481A
:103BA0000078DFF8841A09780840DFF8F4150978FE
:103BB00091F001010840DFF8E415097891F0010166
:103BC000C0B208420CD0DFF85C0A0078032807D0A6
:103BD000DFF8500A03210170D44802210170C8E3C4
:103BE0004D480078DFF8401A097891F0010108404B
:103BF000DFF8A815097891F00101C0B2084200F081
:103C0000B883DFF8200A0078062800F0B283DFF8D6
:103C1000140A06210170C54802210170A9E307F0CA
:103C20009DFC002810D0DFF8041B280014F01EF8BB
:103C30000121022001F08AF94EF66020FEF731FBE7
:103C4000BA480521017094E3FEF73BFB002800F021
:103C5000908300220021DFF8D80A0AF0DDFBDFF8AC
:103C6000B00900210170DFF82C0500210170B14975
:103C7000280013F0FBFF0121022001F067F94FF447
:103C8000FA60FEF70EFBA9481121017071E307F0FD
:103C900073FC00282DD1DFF8FC040078002814D034
:103CA000DFF8F00400210170DFF8881A280013F013
:103CB000DDFF0021022001F049F94FF4FA60FEF720
:103CC000F0FA9A480121017053E3DFF86C1A01E021
:103CD000AC580010280013F0C9FF0021022001F0A9
:103CE00035F940F6B830FEF7DCFA9048062101704D
:103CF0003FE3FEF7E6FA002800F03B83FEF7E4FA24
:103D000000220021DFF8340A0AF03AFB31E300BF59
:103D10003C580010AB580010B4580010DFF8201ABF
:103D2000200013F0A3FF81480721017021E3DFF891
:103D3000940C0078002804D1FEF7C3FA002800F0A4
:103D40001883DFF8800C0078002805D100220021BC
:103D5000DFF8F0090AF014FB002002F029F8012036
:103D600002F03AF8FEF773FA00F0C8FF019004225F
:103D700001A91E200AF0D6F840F6B830FEF791FAF5
:103D80006A4808210170F4E2DFF88808007800280A
:103D900014D0DFF8800800210170DFF87C2824A10E
:103DA000280013F063FFDFF874080178022001F0A7
:103DB000CDF8DFF86C080088FEF773FADFF8E0034F
:103DC0000078002814D1DFF8800900210170DFF8A5
:103DD0007C19280013F04AFF0121022001F0B6F8F7
:103DE00042F21070FEF75DFA504809210170C0E2FE
:103DF000FEF767FA002800F0BC82DFF8CC1B280031
:103E000013F034FF0121022001F0A0F8DFF8380997
:103E1000007800280ED0DFF8300900210170FEF78D
:103E200053FA00220021DFF8A40B0AF0A9FAA0E25D
:103E300025730000DFF810090121017047F23050AE
:103E4000FEF72FFA95E200BFB6580010D34800786D
:103E500000280FD0002001F0BFFFDFF8741B200006
:103E600013F004FF42F21070FEF71BFA2F480B21EB
:103E700001707EE2FEF725FA002800F07A82002227
:103E80000021DFF8500B0AF07BFA002001F0A4FFBC
:103E9000012001F08DFFFEF7EDF941F28830FEF7C9
:103EA00000FA22480A21017063E2DFF8180B00785B
:103EB000002803D1FEF705FA00286DD0DFF8D00BFB
:103EC0000068002844D009A80021002200230EC069
:103ED0000C381548007C8DF82400AF480068ADF818
:103EE0002500DFF8AC0B0068CDF8270000F006FFD6
:103EF000CDF82B000B2209A9012003F097FE0B221D
:103F000009A944200AF00EF800220021DFF8840BF2
:103F10000AF036FADFF8801B280013F0A7FE20E035
:103F2000D08A0100B5580010D03500109E0A00104C
:103F3000950A0010C490010054800100D490010043
:103F4000E4900100F490010004910100149101003B
:103F5000DFF8480BB0F90020DFF8441B280013F00D
:103F600085FE0021022000F0F1FFDFF8380B90F809
:103F70003500002809D0DFF82C0B90F835004FF4FD
:103F80007A714843FEF78DF901E0FEF7A5F9DFF8F5
:103F9000E80301210170ECE180480078002800F07E
:103FA000E881002001F004FFDFF8241A280013F054
:103FB0005DFE0121022000F0C9FF42F21070FEF701
:103FC00070F9DFF8B4030B210170D2E17348007877
:103FD000002810D0FEF775F900280CD1DFF8C40ACC
:103FE00090F83300002840F0C481DFF8BC0A007864
:103FF000002840F0BE81FEF764F9002805D00022B9
:104000000021DFF8A80A0AF0BBF9002001F0E4FE65
:10401000012001F0CDFEFEF72DF9DFF80C07007846
:10402000002816D00422DFF8881A212003F0FEFDB4
:104030000422DFF87C1A3C2009F074FFDFF8740AD0
:104040000078002805D00221DFF8640A00680AF031
:1040500080FCDFF8480AB0F90020DFF8441A280095
:1040600013F004FE0021022000F070FF4FF47A608C
:10407000FEF717F9C048102101707AE1DFF8440912
:104080000078002804D1FEF71CF9002800F07181A7
:10409000DFF830090078002805D100220021DFF880
:1040A000A4060AF06DF9002001F082FE012001F063
:1040B00093FEFEF7CCF800F021FE0090042200A948
:1040C0001E2009F02FFF40F6B830FEF7EAF8AA48A4
:1040D0000D2101704DE1DFF83C050078002814D077
:1040E000DFF8300500210170DFF82C25A4A128009D
:1040F00013F0BCFDDFF824050178022000F026FF54
:10410000DFF81C050088FEF7CCF82448007800286A
:1041100014D1DFF8EC0A00210170DFF8E81A28005A
:1041200013F0A4FD0121022000F010FF42F21070F4
:10413000FEF7B7F890480E2101701AE1FEF7C1F8BA
:10414000002800F01681DFF88018280013F08EFD9B
:104150000121022000F0FAFEDFF8A40A007800280E
:104160000CD0DFF89C0A00210170FEF7ADF80022A8
:104170000021DFF8940A0AF003F9FAE0DFF8800A78
:104180000121017047F23050FEF78BF8F1E000BFDB
:10419000B4900100AE58001030580010B058001014
:1041A000AF580010248501004C8D0100608D010086
:1041B000748D010000CA9A3B00400240DFF84C0AAF
:1041C000007800280FD0002001F006FEDFF800186C
:1041D000200013F04BFD42F21070FEF762F86648C3
:1041E0000F210170C5E0FEF76CF8002800F0C180D7
:1041F00000220021DFF8180A0AF0C2F8002001F0BE
:10420000EBFD012001F0D4FDFEF734F8DFF88C0857
:10421000B0F90020DFF88818280013F027FD0021EE
:10422000022000F093FE4FF47A60FEF73AF852480D
:10423000102101709DE0DFF8D4090078002810D02B
:10424000FEF73FF800280CD1DFF8580890F833004B
:10425000002840F08E80DFF850080078002840F0F9
:104260008880FEF72EF8002805D000220021DFF814
:10427000A4090AF085F8002001F0AEFD012001F04C
:1042800097FDFDF7F7FFDFF8A0040078002816D0AF
:104290000422DFF81C18222003F0C8FC0422DFF8F7
:1042A00010183D2009F03EFEDFF8080800780028CD
:1042B00005D00321DFF8F80700680AF04AFBDFF8B1
:1042C000DC07B0F90020DFF8D817280013F0CEFC87
:1042D0000021022000F03AFE4FF47A60FDF7E1FF82
:1042E00025481021017044E0DFF8D8060078002846
:1042F00003D1FDF7E6FF00283BD0FDF7E2FF0028E1
:1043000005D000220021DFF810090AF039F8DFF8A3
:104310000C19280013F0AAFCDFF8880790F8350084
:1043200000280BD0DFF87C0790F835004FF47A7145
:104330004843FDF7B6FF03E0888D0100FDF7CCFF91
:104340000D480121017014E0DFF8D408007800283E
:104350000FD0DFF8D018280013F088FC00210220CD
:1043600000F0F4FD4FF47A70FDF79BFF0248012145
:104370000170FEF72AB900BF9E0A00107C7B010085
:1043800025730000147A010024910100AC7B010028
:104390009C8D010010B50C00C0B2012844D0022849
:1043A0004DD0032851D0112808D0122819D0132835
:1043B0002AD021284ED0222851D054E02078DFF88E
:1043C000E41691F8391088424DD1DFF8D006008804
:1043D000401EDFF8C8160880DFF84C080121017084
:1043E00041E02078DFF8BC1691F8391088423AD1C4
:1043F000DFF8A8060088401CDFF8A0160880DFF868
:104400002808012101702EE0A078DFF8981691F8B5
:104410003910884227D1DFF8840621880180DFF82F
:104420000808012101701EE02178D4F803000AF089
:1044300077F82178D4F803000AF098F913E022689D
:10444000217A60680AF05AF90DE0012120680AF02B
:10445000BDFA08E0022120680AF07BFA03E003219C
:1044600020680AF076FA10BDB9580010BA5800104A
:1044700034910100487A0100B08D0100C48D010023
:104480007C7A0100D88D0100E4870100EC8D0100E9
:10449000008E0100607E0100449101007C800100DB
:1044A000148E0100288E010010B582B00C00C0B23D
:1044B0000100022924D0032900F08E80042900F095
:1044C000928005294ED00A296CD00B2900F08180FA
:1044D000152918D019290AD01A290DD01B2919D04D
:1044E0001C291ED03C2934D03D2921D082E0012155
:1044F00020680AF06BFA84E020680AF089FA80E00C
:10450000FDF7D6FD7DE004222100DFF8200714F03E
:1045100060FE76E004222100DFF8140714F059FE53
:104520006FE004222100DFF80C0714F052FE68E06F
:104530002078DFF8701591F83910884261D1B4F80D
:104540000100DFF858150880DFF8DC060121017052
:1045500057E0DFF8480521880180DFF8CC0601210B
:1045600001704EE0E01C13F005FA502849D2607843
:104570002B4908802A4800880002294908802848D9
:1045800000882178084326490880A07823490870CC
:10459000E11C214812F07AFE1E4801210170FDF74E
:1045A0009BFE2EE0DFF81C04007800280AD0FDF7FF
:1045B0004EFE00F0A3FB0090042200A91F2009F08A
:1045C000B1FC1EE000220021DFF86C0609F0D8FEE5
:1045D00017E0FDF74FFE14E0DFF8600601210170DF
:1045E000FDF77AFE0DE0DFF8580601210170FDF7B6
:1045F00073FE06E00022C0B20100DFF8480609F0B1
:10460000BFFE13BD448501003C8E0100508E0100A9
:10461000AD580010BB58001034510010BC580010A9
:10462000805800109F0A0010A55800101CB50122E8
:10463000DFF81416042002F0A3FF0122DFF80C16A5
:10464000192002F09DFF0122DFF80416FB2002F082
:1046500097FF0122DFF8FC15342002F091FF0020C3
:10466000019000208DF80000002411E000AA01A9AB
:10467000601CC0B20CF01EFF002808D09DF800009E
:10468000421E0198411C601DC0B202F079FF641CFB
:10469000052CEBDB0122DFF8C0150E2002F070FFC5
:1046A0000122DFF8B8152A2002F06AFF0122DFF8A4
:1046B000B0152D2002F064FF0122DFF8A8152B2091
:1046C00002F05EFF0122DFF8A0150D2002F058FF76
:1046D0000122DFF89815242002F052FF0122DFF8B2
:1046E00090152C2002F04CFF0122DFF888152820BD
:1046F00002F046FF0122DFF88015262002F040FF7D
:104700000422DFF828151C2002F03AFF0422DFF80B
:104710002015212002F034FF0422DFF81815222092
:1047200002F02EFF13BD0000A8580010648E010097
:1047300004830100788E01008C8E01008C7E0100C4
:10474000A08E0100B87E0100C3580010B48E010095
:1047500001B59DF80000042839D0052869D0062845
:1047600071D0072879D0082800F08180092800F04E
:1047700088800D2800F0BC800E2800F08C800F2867
:1047800000F00B81192831D01C2800F0E880212886
:1047900000F0EF80222800F0F680242800F0B2809C
:1047A000262800F0D280282800F0C0802A2800F0B7
:1047B00081802B2800F092802C2800F0AD802D28DD
:1047C00000F0828034282AD0FB281ED0F3E0B548C0
:1047D000097880F82D10B34890F82D0000F0AEFD58
:1047E00000220021002002F0CBFEE9E0AD4809786C
:1047F00080F82E10AB4890F82E0000F0AFFD00229C
:104800000021002002F0BCFEDAE0A648097880F81A
:104810002F1000220021002002F0B2FED0E0A148BB
:10482000097880F8391000220021002002F0A8FE4B
:10483000C6E0D2B201200CF0B6FD0022002100201B
:1048400002F09EFEBCE0D2B202200CF0ACFD0022D1
:104850000021002002F094FEB2E0D2B203200CF05E
:10486000A2FD00220021002002F08AFEA8E0D2B2C0
:1048700004200CF098FD00220021002002F080FEB0
:104880009EE0D2B205200CF08EFD00220021002017
:1048900002F076FE94E00878002801D0012000E0C4
:1048A0000020804981F8300000220021002002F021
:1048B00067FE85E07B48097880F8311000220021EE
:1048C000002002F05DFE7BE07648097880F8321027
:1048D00000220021002002F053FE71E071480978A7
:1048E00080F8331000220021002002F049FE67E02A
:1048F0006C48097880F8341000220021002002F072
:104900003FFE5DE06748097880F8351000220021FD
:10491000002002F035FE53E06248097880F8361036
:1049200000220021002002F02BFE49E00878002838
:1049300001D0012000E000205A4981F83700002210
:104940000021002002F01CFE3AE05648097880F869
:10495000381000220021002002F012FE30E0042274
:10496000B24814F036FC00220021002002F008FEBC
:1049700026E00422AE4814F02CFC00220021002086
:1049800002F0FEFD1CE00422AA4814F022FC0022E2
:104990000021002002F0F4FD12E00878002802D087
:1049A000FDF755FC01E0FDF765FC00220021002029
:1049B00002F0E6FD04E0012200A9012002F0E0FD82
:1049C00001BD0000B258001054910100CC780100E4
:1049D00064910100A480010070B50C00C0B2E02811
:1049E0000CD0ED2835D0EE283DD0EF2845D0F12869
:1049F00007D0F62817D0F72820D047E0FDF758FB5E
:104A000044E02578641C2688A41C00F077F921680E
:104A10003C2202FB1102241DB6B231002800C0B2B4
:104A200006F0B0FD32E02078002801D0012000E03F
:104A30000020C0B206F0D4FD641C27E020780028D6
:104A400001D0012000E00020C0B206F0CCFD641CC3
:104A50001CE02078002801D0012000E000208749D8
:104A60000870641C12E02078002801D0012000E0CA
:104A7000002083490870641C08E02078002801D0D9
:104A8000012000E000207F490870641C70BD000018
:104A90003C58001000880100C88E01007E580010AC
:104AA00074910100D0350010B358001094750100C6
:104AB00038580010A65800103EB50FF0BFF801F0AE
:104AC000A5F901F0FBF801F0C5F86F48006850F453
:104AD00080606D49086000246C484FF4806101607B
:104AE00000256B48006850F0020069490860694879
:104AF000006850F0040067490860674802210160BF
:104B00006648482101606448012101606448FDF75E
:104B100084FA10F015FD012804D110F017FD61484A
:104B2000012101700121002010F0D9FC5E4810F035
:104B3000FAFC0CF007FC002803D05C48002101704F
:104B40000EE05A4801210170594864210180FDF7A7
:104B50006CFA0CF0D4FB0122012156480EF0D8F972
:104B6000554811F06FFC012152480EF0E3F953490A
:104B7000086002214F480EF0DDF9514908605048A5
:104B80000068000C4A49088011F0ACF84D484078A4
:104B9000401C4C4948700DF030FC0EF07FFC0EF0CC
:104BA000CBFF3948016821F48061016000244FF493
:104BB0000062454945480FF041FE444809F0AEF90E
:104BC000424802F077F94FF48072414941480FF0B2
:104BD00035FE404809F068F93E480AF077FA0220AD
:104BE00002904FF4487001903B4800903B4B642288
:104BF0003B493C4812F072F911F054F800203EBDD8
:104C0000C4580010DC8E0100B07A0100AF580010CB
:104C1000CC800100D4750100E47E0100F08E01001B
:104C2000950A0010048F0100960A00100A36001041
:104C30000E36001012360010E47A0100B958001048
:104C4000BA580010F4800100FD350010FE35001048
:104C5000FF35001009360010003600100136001034
:104C6000023600100336001004360010053600101E
:104C7000063600100736001008360010BE58001027
:104C8000BF580010BD58001040C009205CC009206A
:104C9000C4C00F40A8C10F40044000400C40004079
:104CA00020A10700A3580010404B4C00A45800104E
:104CB0007E58001000400240C456001030580010CA
:104CC00034580010CC090010481A00106C54001021
:104CD0000C4D001050540010383C00108D23000083
:104CE0003892010048530010DFF8C41C0968DFF84F
:104CF000C02C1268521A8242F9D3704710B594B092
:104D0000DFF88C0A0078401CDFF8841A08700BA9C1
:104D1000DFF8A00C0EF08BF80B9800900C98019027
:104D20000D9802900E9803901198401E04901298CE
:104D3000A0F26C70059000200690002007900020E3
:104D4000089000A811F07EF904000DF0EDF92000A4
:104D500014B010BD30B585B004000D00DFF8300A86
:104D60000078401CDFF8281A087010F0BBFF220002
:104D700081A100A812F07AFF00A900200EF0F6F938
:104D80002A007DA100A812F071FF00A940200EF0BA
:104D9000EDF9FEE780B5DFF8A81B00200EF0E6F97C
:104DA000DFF8A00B0078002806D0022848D009D3ED
:104DB000032800F09E80B7E0DFF88C1B40200EF047
:104DC000D5F9B1E0DFF8840B0078002804D16BA19D
:104DD00040200EF0CBF904E0DFF86C1B40200EF011
:104DE000C5F9DFF8680B0078002811D0DFF8C80B90
:104DF0000068411CDFF8C02B1160042808D1DFF8DF
:104E0000B80B00210160DFF8440B002101708BE03A
:104E1000DFF8380B0078002840F08680DFF8980B28
:104E20000068411CDFF8902B116001287CD1DFF86D
:104E3000880B00210160DFF8140B0121017073E081
:104E4000DFF8780B0068DFF8781B401810F11001CC
:104E500040200EF08BF9DFF8640B0068DFF8601B70
:104E60004018103012F086FDDFF8581B0978002931
:104E700020D0112807DBDFF8440B0068401CDFF866
:104E80003C1B086050E0DFF8340B006800284BD072
:104E9000DFF8240B0068411CDFF81C2B116001288F
:104EA00042D1DFF8140B00210160DFF8180B00215C
:104EB000017039E0DFF8040B0068012807DBDFF838
:104EC000FC0A0068401EDFF8F41A08602CE0DFF8E6
:104ED000E80A0068411CDFF8E02A1160042823D1A9
:104EE000DFF8D40A00210160DFF8D80A012101703F
:104EF0001AE0DFF8C80A0068411CDFF8C02A116018
:104F0000DFF8BC1A411840200EF030F9DFF8B00A83
:104F100012F030FDDFF8A41A0968401F814203D364
:104F2000DFF8980A05210160DFF87C0D10F067FFBB
:104F300001BD012802D0022803D005E0DFF8000AF5
:104F400003E0DFF8040A00E000207047022812D1D5
:104F5000DFF8F0090170DFF8640A05210160DFF86D
:104F6000580A00210160DFF85C0A00210170DFF8B7
:104F7000DC0901210170704725730000000000006A
:104F80002DE9F04FA1B000208DF810000120059010
:104F900004AA0021DFF88C0B0CF094FB00236422A0
:104FA0000021DFF8800B0CF09BFC00208DF80C003A
:104FB00000208DF80D0001208DF80F0000208DF8E5
:104FC0000E0003A9DFF85C0B0CF02FFCDFF8540B8C
:104FD0000CF014FC0121DFF84C0B0CF0ECFB012170
:104FE000DFF8400B0CF0D1FBDFF83C0BD0E90023DD
:104FF000CDE91E231EA811F04DFBDFF8300B006831
:1050000050F00800DFF8241B086000200090DFF853
:10501000200B082101600020009000220421DFF80D
:10502000040B0CF09DFC0023DFF8080B90F82D20FA
:105030000421DFF8F00A0CF053FC04208DF808007E
:1050400000208DF8090000208DF80B0000208DF85D
:105050000A0002A9DFF8CC0A0CF0E7FB01220421C8
:10506000DFF8C00A0CF0AEFCDFF8CC0AD0E9002370
:10507000CDE91C231CA811F00DFBDFF8B00A006875
:1050800050F01000DFF8A41A086000200090DFF84C
:10509000A00A102101600020009000220521DFF805
:1050A000840A0CF05DFC0023DFF8880A90F82E20BB
:1050B0000521DFF8700A0CF013FC05208DF80400C0
:1050C00000208DF8050000208DF8070000208DF8E5
:1050D000060001A9DFF84C0A0CF0A7FB012205210C
:1050E000DFF8400A0CF06EFCDFF84C0BD0E900232F
:1050F000CDE91A231AA811F0CDFADFF89C0B00684D
:1051000050F02000DFF8901B086000200090DFF8CE
:105110008C0B2021016000200090DFF8300BD0E9DB
:105120000023CDE9182318A811F0B4FADFF8680BB2
:10513000006850F01000DFF8601B0860002000904D
:10514000DFF8580B1021016000200090DFF8000B01
:10515000D0E90023CDE9162316A811F09BFADFF859
:10516000CC09006850F40050DFF8C0190860002036
:105170000090DFF82C0B4FF40051016000200090EC
:10518000DFF8200BD0E90023CDE9142314A811F097
:1051900081FADFF89809006850F40060DFF88C1994
:1051A000086000200090DFF8F80A4FF40061016009
:1051B00000200090DFF8F40AD0E90023CDE91223A3
:1051C00012A811F067FADFF86409006850F4805003
:1051D000DFF85819086000200090DFF8C40A4FF487
:1051E0008051016000200090DFF8C40AD0E900235C
:1051F000CDE9102310A811F04DFADFF8300900684E
:1052000050F04000DFF82419086000200090DFF81B
:10521000900A4021016000200090DFF8980AD0E950
:105220000023CDE90E230EA811F034FADFF8FC08B4
:10523000006850F08000DFF8F4180860002000904B
:10524000DFF85C0A8021016000200090DFF8680A26
:10525000D0E90023CDE90C230CA811F01BFADFF8EC
:10526000C00A006850F08050DFF8B41A08600024CB
:10527000DFF8B00A5FF0805101600025DFF8A80A6E
:10528000D0E90023CDE90A230AA811F003FADFF8D8
:10529000900A006850F00050DFF8841A0860002679
:1052A000DFF8800A5FF0005101600027DFF8A42AD0
:1052B000D2E90001CDE9080108A811F0EBF9DFF807
:1052C000D809006850F00100DFF8CC1908605FF0E1
:1052D0000008DFF8C809012101605FF00009DFF86C
:1052E000A02AD2E90001CDE9060106A811F0D2F901
:1052F000DFF8A409006850F00200DFF89C1908608C
:105300005FF0000ADFF89409022101605FF0000BF2
:105310000DF00AFF61222021DFF8A40613F024FE1D
:10532000FA22DFF8881ADFF8800910F05DFDDFF857
:10533000780910F076FD21B0BDE8F08F80B5DFF878
:10534000F41781F82D000023DFF8E80790F82D20EE
:105350000421DFF8D0070CF0C3FA01BD80B5DFF8F7
:10536000D41781F82E000023DFF8C80790F82E200C
:105370000521DFF8B0070CF0B3FA01BD4FF47A71E4
:10538000884205DBDFF8880B40F2E73101600BE073
:1053900010F1630F05DADFF8780B7FF0620101602E
:1053A00002E0DFF86C1B0860704710B50C000100CC
:1053B000DFF84C0A0AF0DAFC2100DFF8440A0AF0B0
:1053C0001FFEDFF8400A01218170DFF8380A11F072
:1053D00061F9DFF8340A01218170DFF82C0A11F03D
:1053E00059F90121DFF8180A0AF06FFE10BD38B52F
:1053F0000021DFF80C0A0AF068FEDFF8080A002135
:105400008170DFF8000A11F045F9DFF88C080068B8
:1054100050F40040DFF8801808600024DFF87C08B2
:105420004FF4004101600025DFF8DC0900218170A4
:10543000DFF8D40911F02EF9DFF85C08016821F4D7
:10544000803101600020DFF854185FF480320A6078
:10545000002131BD2DE9FC41DFF8B80A00780028B1
:1054600040F08780DFF8B00A006800280CD0DFF831
:10547000A80A0068002800F08181DFF89C0A006813
:105480008047002800F07A81DFF8901ADFF8900A50
:10549000FFF78BFFDFF88C0AA5210170DFF8840A83
:1054A00006214170DFF87C0A30218170DFF8600A44
:1054B0000068012810DBDFF8580A0268B2A1DFF8A3
:1054C000680A12F0D3FBDFF85C0A01218171DFF872
:1054D000540A0021C1710CE0ACA1DFF84C0A12F0B3
:1054E000C5FBDFF8400A00218171DFF8380A01218D
:1054F000C1710821DFF82C0A11F004FBDFF8241A2F
:105500000872DFF8201AC0F307224A72DFF8141A73
:10551000C0F307428A72000EDFF8081AC872DFF87B
:105520000C0A5FF48001016000246420FFF7DCFBBB
:1055300001230C22DFF8EC19DFF8C4080AF0EEFCB6
:10554000DFF8BC080AF055FD0128F9D00A20FFF762
:10555000CBFBDFF848075FF48001016000241421D1
:10556000DFF8C00B13F05AF9DFF8A8090121017028
:1055700004E100231022DFF8AC19DFF884080AF0F8
:1055800000FD0400102C40F0B980DFF89809007885
:105590000A2840F0B380DFF88C0940780A2840F0F0
:1055A000AD80DFF880098078202840F0A780DFF800
:1055B0007409201810F8040CDFF86819611811F844
:1055C000031C50EA0120DFF85C19611811F8021C75
:1055D00050EA0140DFF84C19611811F8011C50EA3B
:1055E000016501A811F06AFA002606E0DFF8340927
:1055F000315C01A811F066FA761C201F8642F5DBAB
:1056000001A811F079FA0198A84240F09880DFF8DB
:105610001409C478DFF80C090079DFF808194D790E
:10562000EDB2002D00D10125DFF8F80886790322BC
:10563000DFF8FC1800A813F0CCFD00208DF8030063
:10564000DFF8E008807A002801D0012700E0002779
:10565000DFF8D008C07A002802D05FF0010801E02E
:105660005FF00008DFF8CC080078EDB2A8421AD14C
:10567000DFF8C008C078F6B2B04214D1032200A906
:10568000DFF8000911F0F2FA00280CD1DFF8A408C5
:10569000007AFFB2B84206D1DFF89808407A5FFA84
:1056A00088F8404525D0DFF88C0800214170DFF8EC
:1056B00084088470DFF87C080570F6B2002E01D0F3
:1056C000012000E00020DFF86C18C870042200A957
:1056D000DFF8B00813F07DFDDFF858080772DFF837
:1056E000540880F809800A22DFF84818322008F0B0
:1056F00019FCDFF894080521016020E0DFF8880834
:10570000006800281BD0DFF880080068401EDFF822
:1057100078180860DFF87008006800280FD1DFF8FB
:105720001408002101700A22DFF80818322008F05E
:10573000F9FB0A220021DFF8FC0713F015FC002317
:105740000A22DFF8E017DFF8B8060AF01AFC002892
:10575000F5D1FFF74CFEDFF834080068002803D0CD
:10576000DFF8280800688047DFF8A80700210170EB
:105770004FF47A71DFF8AC0913F050F8DFF8A409A0
:1057800010F03DFBBDE8F38125336400202030009C
:10579000CC09001038B5DFF8F4271160DFF878176E
:1057A0000860DFF8EC0810F075FFDFF8EC04006823
:1057B00050F48000DFF8E01408600024DFF8DC0417
:1057C0005FF4800101600025DFF854070AF078FBE0
:1057D000DFF84C074FF416510160DFF8440703214E
:1057E0004171DFF83C0700210171DFF83407002127
:1057F0008171DFF828070AF061FCDFF82007032138
:10580000C170DFF81407006800280AD003E04FF4E5
:105810007A700CF00DFEDFF8000700688047002862
:10582000F5D0DFF8F816DFF8F806FFF7BEFDDFF871
:10583000FC065FF48001016000244FF4FA70FFF76A
:1058400053FADFF8E006A5210170DFF8D80606213B
:105850004170DFF8D00630218170DFF8C8063821AA
:10586000C170DFF8C00638210171DFF8B8063821B1
:105870004171DFF8B00601218171DFF8A80601212E
:10588000C1710821DFF89C0611F03CF9DFF894168D
:105890000872DFF89016C0F307224A72DFF8841608
:1058A000C0F307428A72000EDFF87816C872DFF87C
:1058B0007C065FF48001016000256420FFF714FA84
:1058C00001230C22DFF85C16DFF834050AF026FB12
:1058D000DFF82C050AF08DFB0128F9D00A20FFF72C
:1058E00003FADFF8B8035FF480010160002414209C
:1058F0000CF09EFD00230A22DFF82816DFF80005D1
:105900000AF03FFB0028F5D1FFF771FDDFF87C06B8
:105910000068002803D0DFF8740600688047DFF8CD
:10592000F405002101704FF47A62DFF87818DFF88F
:10593000F40710F059FADFF8EC0710F072FA31BDF5
:1059400040550010945800108C500010930A00101D
:10595000C10706D5DFF8CC135FF480120A6000217E
:1059600005E0DFF8881A5FF480120A600021C0B2F7
:10597000810706D5DFF8AC135FF400120A6000213E
:1059800005E0DFF8681A5FF400120A600021C0B277
:10599000400706D5DFF88C035FF48021016000200A
:1059A00005E0DFF8480A5FF48021016000207047BD
:1059B00008400040004002400C58001008580010F9
:1059C0007C500010920A001010B50024082C80F2C0
:1059D000A3802000C0B2FFF7BBFF0A20FFF784F9C5
:1059E000DFF8C4070068400201D5012100E0002172
:1059F000C9B20A20DFF8B42700FB042010F0E2FF50
:105A0000012822D0022814D0032802D006282DD045
:105A10003CE0DFF89C0750F82400002804D0DFF8B1
:105A2000900750F824008047DFF8880702212154AE
:105A30002CE0DFF8840750F82400002826D0DFF897
:105A4000780750F82400804720E0DFF8700750F80E
:105A50002400002805D00120DFF8601751F8241039
:105A60008847DFF85007012121540FE0DFF84C0789
:105A700050F82400002805D00020DFF8401751F826
:105A800024108847DFF82C0700212154DFF8300765
:105A90000068800301D5012100E00021C9B20A207D
:105AA000DFF8202700FB042010F08CFF002804D032
:105AB00001280ED006281DD02CE0DFF80C0750F886
:105AC0002400002826D0DFF8000750F82400804783
:105AD00020E0DFF8F80650F82400002805D0012067
:105AE000DFF8E81651F824108847DFF8E4060121B2
:105AF00021540FE0DFF8D40650F82400002805D028
:105B00000020DFF8C81651F824108847DFF8C006D7
:105B100000212154641C59E7DFF8F00910F06FF9F7
:105B200010BD0000008001405C93010040C00920CE
:105B30005CC00920D0350010649301002DE9F04FBE
:105B40008BB0DFF89006D0E90023CDE9082308A840
:105B500010F0A0FD7248006850F480107049086091
:105B60005FF0000ADFF884085FF480110160002410
:105B7000DFF87C08D0E90023CDE9062306A810F061
:105B800089FD6748006850F40010654908600025E9
:105B9000DFF858085FF4001101600026DFF8542890
:105BA000D2E90001CDE9040104A810F073FD5C48BE
:105BB000006850F480205A4908600027DFF82C085C
:105BC0005FF4802101605FF00008DFF82C28D2E943
:105BD0000001CDE9020102A810F05CFD5048016807
:105BE00021F4800101605FF00009DFF81028D2E99C
:105BF0000001CDE9000100A810F04CFD2648016825
:105C000021F4003101605FF0000B1422DFF8F0177F
:105C1000DFF8F80810F0E8F8DFF8F00810F001F904
:105C20000BB0BDE8F08F021E082A03D2DFF88825EA
:105C300042F82010704700006C930100021E082AF1
:105C400003D2DFF8882542F82010704774930100D2
:105C50007C9301001FB5DFF87008D0E90023CDE97F
:105C6000022302A810F016FDDFF8A408016821F451
:105C7000807101600024DFF85408D0E90023CDE9E9
:105C8000002300A810F006FDDFF88408016821F465
:105C90008061016000201FBD00C0092018C00920DC
:105CA00058C00920849301002C5500108C930100EA
:105CB000949301009C930100A493010030B585B03A
:105CC000DFF85C08D0E90023CDE9022302A810F038
:105CD000E1FC1348006850F40000114908600024FA
:105CE000DFF808075FF4000101600025DFF83408E1
:105CF000D0E90023CDE9002300A810F0CBFCDFF8A9
:105D00001008006850F02000DFF804180860002038
:105D1000DFF8041820220A60002105B030BD000021
:105D200020C0092038C00920AC930100C0B200286F
:105D300006D0DFF8F4175FF400120A60002104E0D7
:105D40007A495FF400120A600021DFF8E01708705A
:105D500070470000B4930100C0B2002806D0DFF8FD
:105D6000D0175FF080720A60002105E0DFF87C1632
:105D70005FF080720A600021DFF8B017487070474A
:105D8000BC930100C0B2002806D0DFF8A4175FF072
:105D900080620A60002105E0DFF850165FF0806243
:105DA0000A600021DFF8841788707047954D000065
:105DB000C0B2002806D0DFF878175FF000720A60E2
:105DC000002105E0DFF824165FF000720A60002170
:105DD000DFF85817C8707047C0B2002806D0DFF847
:105DE00050175FF000620A60002105E0DFF8FC1543
:105DF0005FF000620A600021DFF830170871704719
:105E000000000140380A0010400A00102DE9F04F50
:105E10008BB0DFF82007D0E90023CDE9082308A8DC
:105E200010F038FCDFF81007006850F40010DFF8BD
:105E3000081708605FF0000B3C485FF40011016038
:105E40005FF0000ADFF8F406D0E90023CDE906236D
:105E500006A810F01FFCDFF8E806006850F080701C
:105E6000DFF8DC1608600024DFF880055FF0807141
:105E700001600025DFF8CC26D2E90001CDE904015C
:105E800004A810F007FCDFF8B806006850F0806046
:105E9000DFF8AC1608600026DFF850055FF080617F
:105EA00001600027DFF8A026D2E90001CDE9020158
:105EB00002A810F0EFFBDFF88806006850F00070D1
:105EC000DFF87C1608605FF00008DFF820055FF05F
:105ED000007101605FF00009DFF87026D2E900016F
:105EE000CDE9000100A810F0D5FBDFF854060068EA
:105EF00050F00060DFF8481608600020DFF8EC146E
:105F00005FF000620A6000210BB0BDE8F08F000076
:105F10006C0A001095580010185800101C580010FA
:105F200030570010B4560010B75600101CC009209E
:105F3000BB560010E056001080B5DFF814060021B3
:105F40000170DFF8100600681A281AD1DFF8080679
:105F500000684008DFF800160860DFF8FC050068FC
:105F60000002000ADFF8F0150860DFF8F0050068AD
:105F7000002806D0DFF8E0050068DFF8E0150968C2
:105F8000884701BDE4560010105800101458001046
:105F900080B50FF0A7FEDFF8C8050078401CDFF8D9
:105FA000C0150870DFF8B8054078401CDFF8B01560
:105FB0004870DFF89C05007800280FD1DFF89005C5
:105FC00001210170DFF88C0500210160DFF88805F0
:105FD00000210160DFF88C050FF011FFDFF8740578
:105FE0000068401CDFF86C150860DFF86C0500687D
:105FF0004000DFF864150860DFF86C050068C00237
:1060000001D5012000E00020C0B2002807D0DFF851
:106010005C05006850F48010DFF850150860DFF868
:1060200048050068000301D5012000E00020C0B24F
:1060300000280FD0DFF83405006850F40020DFF8A6
:106040002C150860DFF81005006850F00100DFF83B
:1060500008150860DFF808054078401EDFF80015D5
:106060004870DFF8FC040078012806D1DFF8F0045E
:106070004068002801D00FF026FEDFF8E404007825
:10608000401EDFF8DC1408700FF026FE01BD000092
:10609000480A001010B504006422DFF8D414DFF8B9
:1060A000C4040FF0A1FEDFF8CC1425200DF06BFA2C
:1060B000F02125200DF0A1FA25200DF066FADFF879
:1060C000B804006850F48010DFF8AC1408600020B9
:1060D000DFF8A414096851F40021DFF89C24116052
:1060E0000021DFF87824146010BDDFF8900401214E
:1060F0000170704710B50400DFF884040FF0BDFE96
:10610000DFF87804002101702100DFF8740412F038
:1061100085FBDFF86C040FF072FE10BDDFF85C0445
:10612000007870475455001080B5DFF854040FF024
:10613000A4FEDFF848040021017001BD80B5DFF83E
:106140004424127892F001020B00DBB2134203D018
:10615000DFF8342401231370DFF828241170DFF8EE
:106160002C14097891F001010200D2B20A4203D046
:10617000DFF81C1401220A70DFF810140870DFF831
:1061800004040078DFF8041409780843C0B200283A
:1061900004D0DFF80004FFF7ADFF01E0FFF7C4FF14
:1061A00001BD00005554000034C00920E008001073
:1061B000D053001038570010B0530010F0530010A7
:1061C00014C0092030090010305400101054001081
:1061D00040570010C493010010B5FFF79FFF00283F
:1061E00009D0DFF8A00300210170DFF8A00300212F
:1061F0000170FFF799FFDFF88C030078002800F0AA
:10620000A080DFF894030068DFF8901309688842E3
:1062100004D1DFF87403007800280BD0DFF878038E
:10622000DFF87813096801600222DFF8701320207C
:1062300000F052FF00241CE0DFF86403205CDFF86C
:106240006413615C884204D1DFF83C0300780028C5
:106250000ED0DFF84C03DFF84C13615C21540122AF
:10626000DFF84003211814F12100C0B200F034FF20
:10627000641C082CE0DB00241CE0DFF82C03205C0D
:10628000DFF82813615C884204D1DFF8FC02007853
:1062900000280ED0DFF81003DFF81013615C2154E2
:1062A0000122DFF80803211814F13100C0B200F018
:1062B00013FF641C082CE0DB002417E0DFF8F00279
:1062C000205C9A49615C884203D1AF48007800287D
:1062D0000BD0B7489549615C21540122934821189D
:1062E00014F14100C0B200F0F7FE641C052CE5DBA0
:1062F000B048007887490978884203D1A2480078DD
:10630000002808D0AB4883490978017001228149EF
:10631000512000F0E1FEA8480078804909788842C1
:1063200003D199480078002808D0A3487B49097810
:10633000017001227949522000F0CEFE92480021DE
:1063400001709248007800284ED09C48007890490F
:1063500009780843C0B200280AD09848002101708B
:10636000974811F007FB421C9549102000F0B4FE3D
:1063700094480078864909780843C0B200280AD0BA
:10638000904800210170904811F0F4FA421C8E49A7
:10639000112000F0A1FE8D4800787D49097808435E
:1063A000C0B200280AD0894800210170884811F045
:1063B000E1FA421C8649152000F08EFE85480078DF
:1063C000734909780843C0B200280AD081480021E7
:1063D0000170814811F0CEFA421C7F49162000F06E
:1063E0007BFE6B480021017010BD00003CC00920FD
:1063F000CC930100D4930100DC930100E4930100ED
:10640000C959000010B50C00C0B2002802D04028C5
:1064100036D058E010222100694810F027FC0028EF
:106420000BD010222100664812F0D3FE64480021F0
:10643000017462485549097801701422674964481B
:1064400010F014FC00283ED06448807820280DD13C
:10645000022262495E4810F009FC002806D10D2294
:106460005F49604810F002FC00282CD014225B49E0
:10647000574812F0AEFE554844490978017022E0B1
:1064800010222100504810F0F1FB00280BD0102200
:1064900021004D4812F09DFE4B48002101744948EF
:1064A0003A490978017051224F494B4810F0DEFB00
:1064B000002808D051224C49474812F08AFE45482E
:1064C00032490978017010BDEC930100F49301008A
:1064D00080B5112200213A4812F046FD1122002118
:1064E000394812F041FD14220021394812F03CFDD8
:1064F00051220021384812F037FD3C480CF033FEA1
:1065000000223B491E480FF06FFC01BD685500108A
:1065100040C00920965800105CC009209758001010
:10652000FC9301000494010018C009204857001092
:1065300038C009200C94010000C009201494010007
:1065400020C009201C940100249401002C94010017
:106550009858001024580010285800102058001097
:10656000CC0900107C550010888002408C800240CD
:10657000395F0000915F000094800240940A00108F
:10658000CC550010995800109A5800109B580010D4
:106590009C580010E09304002C5800106C0A001066
:1065A000505700103857001058570010405700102F
:1065B00060570010A1580010A25800109D580010FC
:1065C000905500109E580010A45500109F580010C0
:1065D000B8550010A0580010E050001040550010B1
:1065E00043550010BB5500108C500010056400008E
:1065F000EB60000080B5DFF88C0B08F0CEFEDFF812
:10660000C81B086001BDBFF34F8FDFF8C00B0068E7
:1066100010F4E060DFF8701B0843DFF8B01B08607F
:10662000BFF34F8FFEE780B50FF05CFBDFF8A00BE8
:106630000078401CDFF8981B0870DFF8940B407856
:10664000401CDFF88C1B4870DFF8880B00680028BE
:1066500003D0DFF8800B00688047DFF8740B4078C8
:10666000401EDFF86C1B4870DFF8640B00780128CF
:1066700006D1DFF85C0B4068002801D00FF023FB47
:10668000DFF84C0B0078401EDFF8441B08700FF059
:1066900023FB01BD38B504001500DFF8380B01609D
:1066A00020000CF070FF290020000CF0A6FF200055
:1066B0000CF06BFF31BD00B595B0DFF81C0B016825
:1066C00021F080410160DFF8140BD0E90023CDE90F
:1066D000122312A80FF0DEFFDFF8040BD0E900232D
:1066E000CDE9102310A80FF0D5FFDFF8F80AD0E9A4
:1066F0000023CDE90E230EA80FF0CCFFDFF8E80A47
:10670000D0E90023CDE90C230CA80FF0C3FFDFF87C
:10671000DC0AD0E90023CDE90A230AA80FF0BAFF6A
:10672000DFF8CC0AD0E90023CDE9082308A80FF050
:10673000B1FFDFF8C00AD0E90023CDE9062306A89F
:106740000FF0A8FFDFF8B00AD0E90023CDE9042359
:1067500004A80FF09FFFDFF8A40AD0E90023CDE9D9
:10676000022302A80FF096FFDFF8940AD0E9002375
:10677000CDE9002300A80FF08DFFDFF85C0A006868
:1067800050F08040DFF8501A086015B000BD80B5A9
:106790004FF44051DFF86C0A08F032FDDFF8680A68
:1067A00008F008FEDFF8640A08F030FEDFF8600A3F
:1067B000007E002806D0002300220021002006F0E1
:1067C0007BFF16E0DFF8480AD0F81D10DFF8400A1A
:1067D000D0F8190008F022FEDFF8340AD0F82110B2
:1067E000002008F028FEDFF8280AD0F8250012F073
:1067F000D9FC40F2DC51002008F086FF4FF4807194
:10680000082008F0CDFE4FF4C061042008F0C8FE57
:106810004FF480614FF4806008F0D0FE002005F056
:10682000FFFC5FF0FF3012F07AFBDFF8440D12F04E
:1068300073FB01BDE0B508F0FDFE022002904FF4AD
:106840007A700190DFF8CC090090DFF8CC399622FD
:10685000DFF8C819DFF8D40D10F040FB07BD0000C9
:106860002DE9F04389B002E032200BF0E1FD08F0A1
:10687000B9FE0028F8D004A8DFF8A419102210F0FF
:1068800064F9DFF88C09D0F8290008F086FD05903E
:10689000002507E0DFF88C0900680EF067F8322069
:1068A0000BF0C6FD01A9DFF87C0900680EF043F883
:1068B0000600632E00DB62265FF0FF38002E00F03A
:1068C000F082019807780198401C0190761E002202
:1068D0000121022004F084FF0400002C00F0E1827A
:1068E00000200090002341F215025FF0FF312000EC
:1068F00005F028FB40F6B83002900420009002AB6F
:1069000041F205025FF0FF31200005F01BFB40F66D
:10691000B83002900420009002AB41F206025FF012
:10692000FF31200005F00EFB102204A9200005F025
:106930006FF8804618F1010F00F0B08240F2FB10B2
:106940000090002E04D0009816F1A00108180090C5
:106950005FF00009DFF81C0C0021017064220021A7
:10696000DFF8200D12F000FBDFF8080C007800289B
:1069700041D0022857D04AD304286CD05FD30628D0
:1069800000F0818074D3082800F09580C0F08780E3
:106990000A2800F0A980C0F09B800C2800F0BF807E
:1069A000C0F0AE800E2800F0D280C0F0C480102865
:1069B00000F0E880C0F0DA80122800F0FC80C0F01F
:1069C000ED80142800F00F81C0F00181162800F03E
:1069D0002281C0F01481182800F04481C0F0368173
:1069E0001A2800F05781C0F049811C2800F07481FA
:1069F000C0F05C817DE1DFF8801BDFF8880C11F0CE
:106A000035F90500DFF86C0B0121017071E1DFF849
:106A10006C1BDFF8700C11F029F90500DFF8540B3E
:106A20000221017065E1DFF8081CDFF8580C11F055
:106A30001DF90500DFF83C0B0321017059E1DFF877
:106A4000F41BDFF8400C11F011F90500DFF8240BFE
:106A5000042101704DE1009ADFF8DC1BDFF8240C03
:106A600011F004F90500DFF80C0B0521017040E17D
:106A700098A1DFF8100C11F0F9F80500DFF8F40A1E
:106A80000621017035E1DFF8001CDFF8F80B11F08A
:106A9000EDF80500DFF8DC0A0721017029E1DFF8D5
:106AA000EC1BDFF8E00B11F0E1F80500DFF8C40A99
:106AB000082101701DE10122DFF8D41BDFF8C40BAF
:106AC00011F0D4F80500DFF8AC0A0921017010E1DB
:106AD000DFF8B41BDFF8AC0B11F0C8F80500DFF8E5
:106AE000940A0A21017004E1DFF8A81BDFF8940B77
:106AF00011F0BCF80500DFF87C0A0B210170F8E00A
:106B0000DFF80C07027CDFF8881BDFF8780B11F048
:106B1000ADF80500DFF85C0A0C210170E9E0DFF850
:106B2000681BDFF8600B11F0A1F80500DFF8440ADC
:106B30000D210170DDE0DFF8601BDFF8480B11F07C
:106B400095F80500DFF82C0A0E210170D1E0DFF87E
:106B5000500C0268DFF8381BDFF8280B11F086F8BC
:106B60000500DFF8100A0F210170C2E0DFF8181BE2
:106B7000DFF8100B11F07AF80500DFF8F8091021A2
:106B80000170B6E0DFF81C1CDFF8F80A11F06EF8AF
:106B90000500DFF8E00911210170AAE03A00DFF8F2
:106BA000F01ADFF8E00A11F061F80500DFF8C40917
:106BB000122101709DE0DFF8D01ADFF8C80A11F049
:106BC00055F80500DFF8AC091321017091E0DFF8FA
:106BD000D81BDFF8B00A11F049F80500DFF8940976
:106BE0001421017085E0DFF8C41BDFF8980A11F06A
:106BF0003DF80500DFF87C091521017079E0DFF828
:106C0000B01BDFF8800A11F031F80500DFF86409E5
:106C1000162101706DE01022DFF8981BDFF8640A7E
:106C200012F0D7FA10252BA1DFF8580A281811F016
:106C30001DF84519002E04D0DFF83809172101701E
:106C400057E0DFF830091C21017052E0DFF8381AF4
:106C5000DFF8300A11F00AF80500DFF818091821EA
:106C6000017046E0DFF8FC1BDFF8180A10F0FEFFA9
:106C70000500DFF80009192101703AE0DFF82C1B4C
:106C8000DFF8000A10F0F2FF0500DFF8E8081A212B
:106C900001702EE0DFF8181BDFF8E80910F0E6FFBE
:106CA0000500DFF8D0081B21017022E032000199B5
:106CB000DFF8D00912F08DFA350006A1DFF8C4091B
:106CC000281810F0D3FF4519DFF8A8081C2101701F
:106CD0000FE000BF0D0A0000DFF88C1BDFF8A409ED
:106CE00010F0C4FF05005FF00109DFF888080021FB
:106CF0000170681E642813D201200BF099FB002359
:106D00002A00DFF88019200005F0D5F980465FFAE7
:106D100089F9B9F1000F03D118F1010F7FF41EAE0C
:106D2000002600200090002564220021DFF854098D
:106D300012F01AF95FF000095FF000080023012249
:106D4000DFF840092918200005F032F9012840F049
:106D50009A806D1C022DC0F28B80DFF8280928185C
:106D600010F8020C0D2840F08380DFF8180928186D
:106D700010F8010C0A287BD1F6B23000002802D0AE
:106D8000012810D06DE0112D0AD11122DFF8F01B7F
:106D9000DFF8F0080FF06AFF002801D1012660E05B
:106DA0005FF0FF385DE0022D4CD10098002846D0FE
:106DB0000098652843DA64220021DFF8C80812F041
:106DC000D3F80023009ADFF8BC18200005F0F0F893
:106DD0000500009885422FD15FF00109022D10D1E6
:106DE000022285A1DFF89C080FF040FF002808D19F
:106DF000DFF8AC090068401CC0B2DFF8A4190860D5
:106E00002FE0082D15D100200390DFF8780800212D
:106E1000017203AA91A1DFF86C0811F0B3FB0128FD
:106E200004D1DFF8280C039901601AE05FF0FF3805
:106E300017E05FF0FF3814E05FF0FF3811E05FF01B
:106E400001090EE01022DFF8081CDFF838080FF007
:106E50000DFF002805D100AA9EA1DFF8F80B11F064
:106E600091FB002564220021DFF8180812F07CF85D
:106E7000642D0ADB6D1E2A00DFF8DC1BDFF8040836
:106E800012F0A7F901E05FF0FF385FFA89F9B9F174
:106E9000000F03D118F1010F7FF450AF200005F06F
:106EA0006AF918F1010F7FF4F5AC4FF4FA600BF0BA
:106EB000BFFAF7E400B585B0DA4908609F218DF884
:106EC0000C10012203A90DF0DDFC022002904FF40A
:106ED00048700190DFF8240C0090DFF8243C642215
:106EE000DFF8201CDFF8380D0FF0F8FF05B000BD0B
:106EF00010B504000422B44920000AF0B8FDA08AAD
:106F00004FF4807188420BD120000AF0AEFDDFF80B
:106F1000141D0968002903D0DFF8081D0968884797
:106F2000002010BD80B5DFF8E01B0860DFF8DC0B47
:106F300010F0E8FB01BD10B582B002E032200BF08A
:106F400077FA08F04FFB0028F8D0DFF8C00B10F0FC
:106F500075FEDFF8B40B00680028F6D04FF480709F
:106F60000AF0A4FE0400002C16D020000AF07DFDDB
:106F70004FF48072DFF8901B096812F02AF9DFF8ED
:106F8000880B002101600094002340F2F4628E48D7
:106F9000016800200AF054FEDFF8E40C5FF4802161
:106FA00001600020D1E7E0B5DFF8781C0860754883
:106FB00008F0F3F98449086000200090DFF8683C8D
:106FC00040F2F562002100200AF090FEDFF83C0B51
:106FD00012F073FA022002904FF47A700190DFF8F9
:106FE000A40C0090DFF8A03C6422DFF8A01CDFF8BE
:106FF000A00C0FF073FF07BD4F4B000080B5C0B26F
:107000000300002B04D0012B0BD0FF2B06D01AE07D
:1070100000220021002000F05FF81EE0FFF7F3FAE5
:107020001BE04878002801D0012200E00022087807
:10703000002801D0012000E000201100C9B2C0B238
:10704000FFF77CF809E0DFF84C3C1B68002B04D00C
:10705000C0B2DFF8403C1B68984701BD256C780042
:107060002DE9F04182B00400A08A083880B2F928E6
:107070002DD220000AF0F9FC05002878002826D13E
:10708000A08A061F775900A80FF018FD5FF00008CE
:1070900006E018F8051000A80FF014FD18F101081B
:1070A000B045F6DB00A80FF027FD0098B8420ED1DE
:1070B0000422DFF8E41B20000AF0D9FC6878DFF82E
:1070C000DC1B0870EA78291DA878FFF797FF0020DD
:1070D000BDE8F681256400002DE9FC4107008846E3
:1070E0001400F92C01DB00204AE014F108000AF03A
:1070F000DDFD0500002D42D028000AF0B6FC060098
:1071000001203070DFF8940B00787070B770F47065
:10711000B8F1000F06D0002C04D022004146301DEB
:1071200012F057F801A80FF0C9FC002704E0B95D80
:1071300001A80FF0C7FC7F1C201D8742F7DB01A8C8
:107140000FF0DAFCA01901990171A0190199C1F39E
:1071500007214171A0190199C1F307418171A0195B
:107160000199090EC171009500234FF4DE62DFF82A
:10717000280B016800200AF063FD012000E00020D8
:10718000BDE8F6817900A8C00400FA0580B5DFF8F3
:10719000041B08601E48D0F819001D49D1F81D10C5
:1071A0005FF0FF325140084308F0F7F8DFF8E81AC3
:1071B000086000200090DFF8E83A4FF4DE6200211A
:1071C00000200AF093FD01BDCC5700100CED00E04B
:1071D000CC090010C0570010C4C00F40B492010089
:1071E000BC920100C4920100CC920100D492010033
:1071F000DC920100E4920100EC920100F4920100A3
:10720000FC92010000000820E88A0100E23500102D
:10721000D0350010002E0010DDF4000004930100B2
:10722000C48F0100C857001010B503000800DBB27E
:10723000190000296AD0022975D0032921D0132909
:1072400000F00D81142900F01681152900F01D8130
:10725000162900F02581172900F02D81182900F04A
:107260003581252900F08980272900F09D80FC299F
:1072700079D0FD2950D0FE2961D0FF2900F08C8003
:107280002FE11222DFF81C1AFD2000F079F901220B
:10729000DFF8141AFC2000F073F90122DFF80C1A51
:1072A000252000F06DF90622DFF8041A132000F003
:1072B00067F90122DFF8FC19142000F061F90422BB
:1072C000DFF8F419152000F05BF90422DFF8EC195F
:1072D000162000F055F90422DFF8E419172000F019
:1072E0004FF90422DFF8DC19182000F049F9DFF823
:1072F000D8090068002803D0DFF8CC09006880476F
:1073000000220021002000F03BF9F6E000220021DD
:10731000002000F035F9F0E01222DFF88819FD2096
:1073200000F02EF9E9E000220021022000F028F907
:107330004FF47A700BF07CF8FFF765F9DDE010226E
:107340000100DFF8880911F044FF09F0D8FF00229E
:107350000021022000F014F94FF47A700BF068F865
:10736000FFF751F9C9E0DFF86419007808740022CA
:107370000021002000F004F9BFE00078002801D0CF
:10738000012000E00020DFF84419487400220021A9
:10739000002000F0F5F8B0E009F0B1FF0022002174
:1073A000002000F0EDF8A8E011F058FF04000021E3
:1073B000DFF81C090BF0A8FC0021DFF814090BF022
:1073C0007FFDDFF80C090BF075FCDFF804090BF00A
:1073D0008BFC22680021DFF8F8080BF0ABFC626838
:1073E0000121DFF8EC080BF0A5FCA2680221DFF810
:1073F000E0080BF09FFC2069421C0621DFF8D00852
:107400000BF098FC606900F26C720721DFF8C0088D
:107410000BF090FCE2680421DFF8B4080BF08AFC62
:10742000A2690321DFF8A8080BF084FCE069421C84
:107430000521DFF89C080BF07DFC0121DFF89008A6
:107440000BF062FCDFF88C280021DFF884080BF0D9
:107450005FFD00220021002000F092F84DE006229E
:107460000100DFF84C0811F0B4FE002200210020DA
:1074700000F086F841E0DFF8541800780876002222
:107480000021002000F07CF837E0DFF840180068A9
:10749000C1F81D0000220021002000F071F82CE04E
:1074A000DFF828180068C1F8210000220021002020
:1074B00000F066F821E0DFF814180068C1F8290030
:1074C00000220021002000F05BF816E0DFF8FC1736
:1074D0000068C1F8190000220021002000F050F8D7
:1074E0000BE0DFF8F4170968002906D00100180046
:1074F000C0B2DFF8E4371B68984710BD2DE9F041B2
:1075000082B00400A08A083880B2F9282DD2200069
:107510000AF0ABFA05002878002826D1A08A061FB9
:10752000775900A80FF0CAFA5FF0000806E018F8D3
:10753000051000A80FF0C6FA18F10108B045F6DBF7
:1075400000A80FF0D9FA0098B8420ED10422DFF853
:107550008C1720000AF08BFA6878DFF8841708701F
:10756000EA78291DA878FFF75FFE0020BDE8F681C4
:10757000014002008958001044840100D48F0100AA
:107580002DE9FC41070088461400F92C01DB00209E
:107590004AE014F108000AF089FB0500002D42D0F2
:1075A00028000AF062FA060001203070DFF8300788
:1075B00000787070B770F470B8F1000F06D0002C2E
:1075C00004D022004146301D11F003FE01A80FF047
:1075D00075FA002704E0B95D01A80FF073FA7F1C6B
:1075E000201D8742F7DB01A80FF086FAA019019948
:1075F0000171A0190199C1F307214171A0190199E5
:10760000C1F307418171A0190199090EC17100955B
:10761000002340F2F162DFF8C406016800200AF09E
:107620000FFB012000E00020BDE8F681945200101D
:107630000C8C0100547301008089010080B5DFF8D3
:1076400098261060DFF880060160DFF88006D0F829
:107650001900DFF87816D1F81D105FF0FF325140A5
:10766000084307F09AFEDFF87416086000200090C7
:10767000DFF8703640F2F162002100200AF036FB9C
:1076800001BD000018500010208C0100EC770100B3
:107690000C930100147601005076010070B50400CF
:1076A0000D00160000220021002000F0DFF8E4B2F7
:1076B0002000002806D0012805D0C0285AD0FF2875
