:10000000000400109D860100B94F0100C14F01009E
:0C001000C94F0100D14F0100D94F010081
:10001C0076E6F7EF00000000000000000000000092
:10002C00E14F0100E94F01000000000041620100B6
:10003C00693A0100F14F0100F94F01000150010034
:10004C00095001001150010019500100215001000C
:10005C00295001003150010039500100415001007C
:10006C0049500100515001005950010061500100EC
:10007C00695001007150010079500100815001005C
:10008C008950010091500100315D00009950010030
:10009C00A1500100A9500100B1500100CFE00000B7
:1000AC00B9500100D3640000C1500100C9500100D7
:1000BC00D1500100D9500100E1500100E95001007C
:0402FC0021436587AE
:1003000031323334350000000000000000000000EE
:1003100000000022C7A50003005C00A8C000FFFF8A
:10032000FF7900A8C00100A8C07900A8C00228F188
:10033000293230313420C0E2F2EECFE0F0EA0000A2
:100340000000002838313229D2E5EB2ECFEEE4E46C
:10035000E5F0E6EAE80000000F5A6401802500009D
:10036000000000010003000001000100780000000F
:10037000173B180014003C00320064009600C800CF
:10038000FA002C015E019001C201F401260258021C
:100390008A02BC02EE02200352038403B603E80380
:0C03A0001A044C047E04B004F401A55AB9
:10200000BFF34F8F8E48006810F4E0608D4908439D
:102010008B490860BFF34F8FFEE78B4909688A4AF6
:102020001268521A8242FAD3704780B587488849AD
:10203000B1F9001089B20160844800680004834946
:102040000860824800684FF6FF7108437F490860C6
:102050007E48026802217F4811F05EFA01BD80B51A
:102060007D49097800291CD17B4901220A707B49EE
:1020700008600422794928200CF046FF7849774807
:1020800000680CF0C7FD00280BD0754800781138A7
:1020900003D0401E022801D903E002E0714801216B
:1020A000017001BD80B57049097800290CD16E49D5
:1020B00001220A700B2201006C4817F0F8F90B227C
:1020C0006A4903200CF020FF01BD80B50CF01DFB18
:1020D0000022002102200CF017FF65480121017049
:1020E00001BD644801210170704780B5624801213B
:1020F0000170012010F03AF901BD60480121017022
:10210000704710B504005E4814F0BBF95B4800212D
:10211000017021005A4816F08FFD594814F073F9E8
:1021200010BD56480078704756480121017070472D
:1021300010B50400544814F0A4F95248002101706D
:102140002100514816F078FD4F4814F05CF910BD9D
:102150004C48007870474D4801210170704710B518
:1021600004004B4814F08DF948480021017021000B
:10217000474816F061FD464814F045F910BD434844
:102180000078704780B5424814F07BF93F48012140
:10219000017001BD3F4801210170704710B5040076
:1021A0003D4814F06EF93B480021017021003A4887
:1021B00016F042FD384814F026F910BD3548007875
:1021C000704780B5344814F05CF932480121017041
:1021D00001BD3249087070473149097808433149D7
:1021E00008707047304909780843304908707047D3
:1021F0002F4801210170704710B504002D4814F0DC
:1022000040F92B480021017021002A4816F014FDE6
:10221000284814F0F8F810BD25480078704780B5BC
:10222000244814F02EF922480021017001BD80B528
:10223000204814F026F91E480121017001BD00005C
:102240000CED00E00400FA0508400040BC55001009
:1022500008560010004002403F560010C0550010C4
:102260004156001040560010425600104C540010C9
:102270004456001047560010B00A0010B20A001071
:1022800054530010B30A001068530010B40A001031
:102290007C530010B50A00109053001048560010EF
:1022A0004F5600104556001050560010465600106C
:1022B000B70A0010A453001070B594B00020049029
:1022C00002F00AFD012002F0E2FC0400022002F00C
:1022D000DEFC0500DFF8501C200015F0E1FFDFF800
:1022E0004C1C280015F0DCFF0021022002F0DCFC71
:1022F0000AF080FCDFF8280B0AF0DBFC04F0F0F9B0
:10230000DFF81C0B04F0CFFDDFF8181BDFF8180B0B
:102310000CF0B0F80CF036FB0CF075FC0CF088FDFE
:10232000DFF8080B05F036FCDFF8040B05F0A6FA21
:10233000DFF8001BDFF8000B05F014F904F01CF8BF
:10234000DFF8F80A04F0A4FE0BF039FEDFF8F00A1B
:102350000FF0F1FEDFF8EC0A03F06CFD03F0A4FAD5
:10236000DFF8E41A002003F014FBDFF8C41B01209F
:1023700003F00FFB002240F6B831012003F011FBFF
:10238000DFF8B01B022003F004FBDFF8AC1B0020D9
:1023900003F01AFBDFF8A41B012003F015FBDFF8A4
:1023A000A01B032003F010FBDFF8981B042003F0B0
:1023B0000BFBDFF8941B052003F006FBDFF88C1BFA
:1023C000062003F001FB0021002003F0ABF80022FF
:1023D000DFF87C1BDFF87C0B14F00AF80022DFF832
:1023E000781BDFF8780B14F003F80022DFF8701B7D
:1023F000DFF8700B13F0FCFF0022DFF86C1BDFF836
:102400006C0B13F0F5FF0022DFF8641BDFF8640BA0
:1024100013F0EEFF0022DFF8600B017CDFF85C0BAD
:102420000CF0A0FFDFF8580B0078002805D0002240
:102430000021DFF8500B0CF095FFDFF8280E007834
:10244000002805D000220021DFF83C0B0CF08AFFA9
:102450000021DFF8380B11F071F8DFF8341B8842E7
:1024600013D0DFF8301B200015F01AFFDFF8B82A70
:10247000DFF8241B280015F013FF0321022002F0CF
:1024800013FCDFF8180B002101703622DFF8101B57
:1024900052200CF039FD0422DFF8081B34200CF028
:1024A00033FD0222DFF8001B45200CF02DFD022237
:1024B000DFF8F81A38200CF027FD0222DFF8F01AB6
:1024C00056200CF021FD0BF0ECF9002003F05EFB30
:1024D000002003F047FB00220021AA200CF014FD8D
:1024E0004FF4FA6010F0A8FA4FF4FA60FFF784FE98
:1024F0001021DFF8C00A14F009FE15F00FFE13F0EA
:1025000030FB0DF023FA002801D0012000E000206C
:10251000DFF8A41A0870DFF8A00A007800280CD1B0
:10252000DFF8980A007800280BD112200CF0B1FBDC
:10253000DFF8880A0121017003E0DFF8800A00213A
:102540000170C8200CF02FFC00280CD1C8200CF022
:10255000B7F9002807D1C8200CF020FB002802D1D1
:10256000642010F069FADFF8100A407C002820D0BF
:10257000FFF7D7FD00281CD002F01EF905900422B9
:1025800005A9FE2005F0F2FA042205A9FF200CF0AF
:10259000BBFC14F0A5FA052148433C2190FBF1F265
:1025A00001FB120000F22C104FF47A714843FFF740
:1025B000A8FD03F0D3FCDFF8C00990F85B00002809
:1025C00001D00FF0D9FDDFF86C0D0078002807D09E
:1025D000DFF8600D00210170FFF727FDFFF7A4FD74
:1025E000FFF7B6FD002813D04FF4FA50FFF7A0FD17
:1025F000DFF8B809B0F900004FF47A71884202DBC5
:1026000040F2E73002E0002800D5002002F066FD2D
:102610000BF0F1FADFF8500C0078002812D00228F5
:102620005BD03DD3042800F0A880C0F08680062847
:1026300000F0F680C0F00C81082800F05781C0F04F
:102640003681A4E1FFF79BFD002800F0A081DFF8B0
:10265000280990F86100002805D0DFF8DC0C00782C
:10266000002840F09481DFF8D40C0078002808D0CE
:102670004FF4FA70FFF773FDDFF8EC0B01210170E6
:1026800085E1DFF8BC0C0078002800F080814FF471
:10269000FA70FFF764FDDFF8D00B0621017076E1D8
:1026A000FFF76DFD002800F07281DFF8900C0078D4
:1026B00000280DD0DFF8400CFFF751FD002200216B
:1026C00054200CF021FCDFF8A00B022101705EE128
:1026D000DFF8940B0021017059E1DFF89C0890F8B5
:1026E000610000280BD0DFF8500C0078002806D0DD
:1026F000FFF748FDDFF8700B0021017047E1DFF8BC
:102700003C0C0078002808D142F21070FFF727FD3A
:10271000DFF8540B0321017039E1FFF730FD002889
:1027200000F035814EF66020FFF719FD00220021F0
:10273000DFF8100C0CF016FE29E1DFF8040C00782D
:10274000002808D042F21070FFF709FDDFF8180BDF
:10275000042101701BE1FFF712FD002800F0178132
:1027600000220021DFF8E00B0CF0FCFDFFF70AFD72
:10277000DFF8F40A0021017009E1DFF8C40B0078EA
:1027800000283DD1DFF824080088401CDFF81C1821
:102790000880DFF8A00B012101700222DFF80C187D
:1027A00038200CF0B1FBDFF8D00790F86A00002861
:1027B0000BD00122DFF8F81712200CF0A5FB012244
:1027C000DFF8EC17122005F0D1F9DFF8AC0790F82C
:1027D0006B0000280BD00122DFF8701B11200CF0D9
:1027E00093FB0122DFF8641B112005F0BFF94FF4C1
:1027F000FA70FFF7B4FCDFF8700A00210170C6E040
:10280000FFF7BDFC002800F0C2804EF66020FFF705
:10281000A6FC00220021DFF8F40D0CF0A3FDB6E0C9
:10282000FFF7ADFC002800F0B280DFF8140B007851
:10283000002808D044F62060FFF791FCDFF8280A52
:1028400005210170A3E0DFF8200A002101709EE05D
:10285000DFF8240790F8610000280BD0DFF8D80AD1
:102860000078002806D0FFF78DFCDFF8FC09002176
:1028700001708CE0DFF8C80A0078002808D142F225
:102880001070FFF76CFCDFF8E009072101707EE0B3
:10289000FFF775FC00287AD04EF66020FFF75FFC4A
:1028A00000220021DFF8A80A0CF05CFD6FE0DFF8E1
:1028B0008C0A007800280ED000220021DFF8940A4C
:1028C0000CF050FD42F21070FFF749FCDFF8980958
:1028D000082101705BE0FFF752FC002857D0FFF79A
:1028E00051FCDFF884090021017050E0DFF84C0A48
:1028F000007800283DD1DFF8B4060088401EDFF8DC
:10290000AC160880DFF82C0A012101700222DFF8E2
:102910009C1638200CF0F8FADFF85C0690F86A0094
:1029200000280BD00122DFF8881611200CF0ECFAF9
:102930000122DFF87C16112005F018F9DFF83806BF
:1029400090F86B0000280BD00122DFF8001A12204B
:102950000CF0DAFA0122DFF8F419122005F006F97A
:1029600041F28830FFF7FBFBDFF8FC080021017023
:102970000DE0FFF704FC002809D04EF66020FFF7B9
:10298000EEFB00220021DFF8D0090CF0EBFCDFF8B1
:10299000CC090078002809D002282BD019D30428AC
:1029A00060D046D3052800F08480A7E0012003F022
:1029B00043F80BF019FB002804D1FFF7FFFB0028B8
:1029C00000F09C80FFF7FDFBDFF89009012101700A
:1029D00094E0FFF7F3FB002800F09080002003F064
:1029E0002BF8DFF8000E00210170DFF870090221DA
:1029F000017083E0DFF840090078002808D0DFF894
:102A0000F808FFF7CBFBDFF854090321017075E0EC
:102A1000DFF8000C0078002870D0012003F00CF8DB
:102A20004FF49670FFF7BAFBDFF83009042101700C
:102A300064E0DFF804090078002804D1DFF81C09FD
:102A4000022101705AE0FFF7B9FB002856D0DFF8E9
:102A5000A808FFF7A3FB00220021DFF8BC0B0CF055
:102A600081FC4BE0DFF8D008007800280CD1DFF8BB
:102A7000740D01210170DFF8A40BFFF78FFBDFF865
:102A8000DC080521017039E0002002F0D5FF14F0C8
:102A900027F8052190FBF1F201FB1200401C4FF4D6
:102AA00096714843FFF77AFBDFF8B0080121017007
:102AB00024E0DFF8600B0078002803D0FFF77EFBEE
:102AC00000281BD0FFF77AFB002811D04FF47A7052
:102AD000FFF764FB002002F0AFFFDFF8080D0021D4
:102AE000017000220021DFF8380B0CF03BFC01E004
:102AF000FFF767FBDFF8640801210170DFF89C0431
:102B00000078032806D0DFF8940400780B2801D061
:102B10000AF0F1F8DFF884040078002826D00128B4
:102B200038D0022867D0032800F0DF80042800F0A6
:102B3000DC84062800F0F284072800F07986082853
:102B400000F02787092800F047870A2800F07087DF
:102B50000B2800F0BE870C2801F028800D2801F01A
:102B60004A800E2801F09A8001F0D6B80021DFF8E3
:102B70001C0410F0E3FCDFF81814884241F0CC800C
:102B80004FF47A70FFF738FBDFF810040121017071
:102B900001F0C2B8FFF740FB002801F0BD80002023
:102BA00002F0F4FF002002F0DDFFDFF8A80D0021A5
:102BB0000170DFF8340C00210170DFF8300C0021C7
:102BC0000160DFF82C0C00210170DFF8280C0021D7
:102BD0000170DFF8240C00210170DFF8200C0021C7
:102BE0000170DFF81C0C00210170DFF8B003022136
:102BF000017001F091B8FFF70FFB002801F08C8005
:102C0000DFF8FC0B0078012806D002283DD003280D
:102C100017D004284CD05FE0012002F0A3FF41F25E
:102C200088324FF47A71DFF8DC0B0AF045F8DFF8F0
:102C3000D81B280015F034FB0321022002F034F8E1
:102C40004AE0002002F08EFF40F6B8324FF4FA61FD
:102C5000DFF8B80B0AF030F8C74890F85B0000289E
:102C600009D0DFF8AC1B280015F01AFB0321022065
:102C700002F01AF830E0DFF89C1B280015F010FB7A
:102C80000121022002F010F826E0002002F06AFF85
:102C900000224FF4FA61DFF8800B0AF00DF8A34927
:102CA000280015F0FDFA0021022001F0FDFF13E0DD
:102CB000012002F057FF40F6B8324FF4FA61DFF816
:102CC0005C0B09F0F9FFDFF8581B280015F0E8FA53
:102CD0000321022001F0E8FFDFF8480B20210170FA
:102CE000AE480321017001F017B80021A74810F089
:102CF00025FCA749884219D000220021DFF8280BC3
:102D00000CF030FBDFF8241B200015F0C9FADFF8C7
:102D1000141D280015F0C4FA0021022001F0C4FFA0
:102D20004FF4FA600FF088FEFFF76AF9DFF8340518
:102D30000078002819D000220021DFF81C0C0CF0CC
:102D400011FBDFF8181C200015F0AAFADFF8D41CDC
:102D5000280015F0A5FA0021022001F0A5FF4FF48C
:102D6000FA600FF069FEFFF74BF9FFF755FA0028FC
:102D700076D0DFF8B00A0078202867D1DFF8A40AFF
:102D80003A2101704FF42F70FFF736FA01F014FD6D
:102D9000069006A816F0E2FB0600706900F26C705F
:102DA00003903069401C0290F068019070680090B8
:102DB000DFF8700A0378B268DFF8A41B200015F072
:102DC0006FFA6D4890F86E00B16888420BDBB0680E
:102DD000694991F86E1088421CD17068664991F873
:102DE0006F10884216DBB068634991F87010884212
:102DF0000BDBB068604991F8701088420AD15E48D8
:102E000090F871007168884204DBDFF8800D0121C1
:102E1000017025E0DFF8740D0021017020E000BF93
:102E20005BE20000A5C400002F6E0000413D0000E1
:102E30005D3E00003540000089410000B5440000BF
:102E4000A52000005F200000CB200000DFF8D4099F
:102E5000202101702020A0704FF49670FFF7CCF96C
:102E6000DFF8C00900783A2840F05687DFF8880973
:102E70000078002811D0DFF8B01B280015F010FAF8
:102E80000021022001F010FF4FF4FA60FFF7B4F9BF
:102E900042480121017000F03FBFDFF8F40C0078D8
:102EA000002814D1012002F05DFEDFF8801B28000D
:102EB00015F0F6F90121022001F0F6FE4FF4FA6058
:102EC000FFF79AF935480421017000F025BF2A4820
:102ED00090F86100002814D0DFF8B00C0078DFF81B
:102EE0005C1409780840DFF82C17097891F001018B
:102EF000C0B2084205D0DFF81C070121017000F0C4
:102F00000BBFDFF838040078DFF80817097891F074
:102F100001010843C0B2002852D1DFF8F8060021B1
:102F2000017000F0F9BE00BFCE4B001050930100BD
:102F3000E3200000EB200000D9210000E521000083
:102F4000D3210000E7D80000EFD9000011DB00001A
:102F5000FB2000005453001029210000685300108A
:102F6000572100007C530010952100009053001061
:102F7000F1210000A4530010A04B0010FC8D0100B3
:102F80003C56001018800100CC8701000040024030
:102F9000DDEEAA55B48F0100C88F0100B80A0010F9
:102FA000144C00100E4C0010124C0010085600106B
:102FB0000A4C0010305400103E560010B90A0010A0
:102FC000DFF8580D90F86100002804D0DFF81408ED
:102FD0000078002828D0DFF8B40B0078D7490978AA
:102FE0000840DFF8381D91F8601008421CD000221C
:102FF000002124200BF088FFDFF89C1B200015F037
:103000004FF9DFF81C1D280015F04AF900210220B5
:1030100001F04AFE40F6B830FFF7EEF8DFF87C0B1F
:103020000821017000F078BEDFF828090078DFF889
:103030005C1B0978084205D0DFF8600B062101709F
:1030400000F06ABEDFF8A8070078DFF8401B0978B7
:103050000840BA490978084232D0DFF8C00C90F82D
:103060006100002804D0DFF87C070078002827D012
:10307000DFF8A80C90F86900002809D1DFF8740780
:103080000078132804D0DFF86C070078122817D1D5
:10309000DFF8041B200015F003F9DFF8041B2800FB
:1030A00015F0FEF80021022001F0FEFD40F6B830D8
:1030B000FFF7A2F8DFF8E40A0821017000F02CBE47
:1030C000DFF8E00A007800282FD0DFF8500C90F8E5
:1030D0006100002804D0DFF80C070078002824D015
:1030E000DFF8A80A00789549097808421DD0042223
:1030F000DFF8F8162A200BF007FFDFF89C1A2000F3
:1031000015F0CEF8DFF81C1C280015F0C9F80021D6
:10311000022001F0C9FD40F6B830FFF76DF8DFF886
:103120007C0A0821017000F0F7BDDFF8D0060078B6
:1031300000282ED0DFF8E40B90F86100002804D0BE
:10314000DFF8A0060078002823D0DFF8400A0078D6
:103150007A49097808421CD00022002114200BF083
:10316000D3FEDFF8341A200015F09AF8DFF8381A89
:10317000280015F095F80021022001F095FD40F699
:10318000B830FFF739F8DFF8140A0821017000F0B1
:10319000C3BDDFF854060078DFF85416097891F0C3
:1031A0000101084221D0DFF8400600210170002211
:1031B0000021DFF8740B0CF0D5F8DFF8701B20004D
:1031C00015F06EF8DFF8681B280015F069F800218B
:1031D000022001F069FD40F6B830FFF70DF8DFF886
:1031E000BC090221017000F097BDDFF810060078DD
:1031F000DFF8B01909780843DFF858170978084351
:10320000DFF8E41509780843C0B2002800F0D28046
:10321000012002F0A7FCDFF8E4050078DFF884194C
:1032200009780843C0B2002805D0002200212B20D5
:103230000BF06AFEA4E0DFF854090078002815D1ED
:1032400000220021DFF8EC0A0CF08CF8DFF8E81A15
:10325000200015F025F8DFF8E41A280015F020F812
:103260008EE000BF3D56001052560010DFF880057A
:103270000078002825D0DFF87C050078142820D1BC
:1032800000220021DFF89C0B0CF06CF82B48007832
:1032900000280BD000220021DFF88C0B0CF062F824
:1032A0000422DFF848153B200BF02EFEDFF87C1BD4
:1032B000200014F0F5FFDFF8781B280014F0F0FF71
:1032C0005EE01E480078002818D100220021DFF8B7
:1032D000640B0CF047F8DFF818050078002804D0DC
:1032E000DFF8541B200014F0DBFFDFF8501B280030
:1032F00014F0D6FF44E000BF20BF0200DFF81C0A34
:1033000090F8610000282BD0DFF8D804007800285E
:1033100026D100220021DFF8280B0CF023F8DFF87B
:10332000241B200014F0BCFFDFF81C1B280014F045
:10333000B7FF25E0B10A00104856001045560010AE
:1033400046560010947E0100848501000B4C00104D
:10335000907C0100AC85010020760100B60A0010C7
:1033600000220021DFF8E40A0BF0FCFFDFF8E01A8E
:10337000200014F095FFDFF8DC1A280014F090FF0D
:103380000021022001F090FC40F6B830FEF734FF37
:10339000DFF8100800210170DFF8600400210170DF
:1033A000DFF8B00500210170DFF8F007012101709E
:1033B00000F0B2BCDFF84C0C007800281AD0DFF81F
:1033C000440C00210170DFF8402C91A1280014F07A
:1033D00067FFDFF8380C0178022001F065FCDFF8A8
:1033E000300C0088FEF708FFDFF8B00702210170FB
:1033F00000F092BCDFF89407007800280ED1DFF8C7
:1034000000040078012809D0DFF8F40301210170DD
:10341000DFF888070221017000F07EBCDFF86C073E
:103420000078002819D0DFF8F40890F8610000282F
:1034300013D0DFF8240A007800280ED0DFF8C0038C
:103440000078042809D0DFF8B80304210170DFF800
:103450004C070221017000F05FBCDFF830070078F4
:1034600000281CD0DFF8B40890F86100002804D0D0
:10347000DFF8E4090078002811D1DFF8980B007814
:1034800000280CD1DE480078022808D0DC48022150
:103490000170DFF808070221017000F03DBCDFF881
:1034A000EC060078002800F03784DFF8700890F808
:1034B0006100002805D0DFF8A0090078002840F05E
:1034C0002B84DFF8500B0078002800F02584CC48CE
:1034D0000078032800F02084C94803210170DFF838
:1034E000BC060221017000F017BCDFF8A4060078CA
:1034F000002800F01184DFF8201B280014F0D0FE13
:103500000021022001F0D0FB4FF47A70FEF774FE28
:10351000DFF888060121017000F0FEBBDFF8FC0A2D
:103520000178DFF8F80AD0F803000BF095F90028CD
:103530001CD000220021DFF8E80A0BF013FFDFF8AF
:10354000E41A200014F0ACFEDFF8DC1A280014F0B6
:10355000A7FE0021022001F0A7FB4FF47A60FEF7DE
:103560004BFEDFF8380601210170D5E3DFF8AC0A25
:1035700000780F2879D1DFF8A40AD0F80300DFF82B
:103580009C17B1F872104FF4616202FB010601F062
:1035900013F9B04246D2DFF8840790F861000028A2
:1035A0000DD090480078002809D1DFF89818200045
:1035B00014F076FEDFF8E4050121017017E0DFF872
:1035C000540A0078002809D1DFF8601A200014F0AE
:1035D00067FEDFF8C8050121017008E0DFF8B815C3
:1035E000200014F05DFEDFF8B4050821017040F6FC
:1035F000B830FEF701FEDFF8381A280014F050FE4C
:103600000121022001F050FB86E300BF4C80010045
:10361000257300004D560010D485010080A90300D9
:10362000FC85010000220021DFF8300B0BF09AFE30
:103630000B22DFF8E8193F200BF066FCDFF8201BB7
:10364000200014F02DFEDFF81C1B280014F028FECB
:103650000021022001F028FB4FF47A60FEF7CCFD38
:10366000DFF838050121017056E3DFF8B009017871
:10367000DFF8A809D0F803000BF08DF90600002050
:10368000019001A8009004AB0BAADFF8901930005C
:10369000C0B20EF001FFDFF8D01A0870DFF87C0628
:1036A00090F86100002803D04E48007800284DD0E3
:1036B000DFF860090078002848D00498002845D138
:1036C0000022002127200BF01FFCF6B2002E25D08F
:1036D000DFF848090178DFF84409D0F803000BF05F
:1036E00079F90790DFF8340900788DF82000DFF8C9
:1036F0002C09B0F80100ADF82100DFF82009D0F85E
:103700000300CDF82300DFF81409D0F80700CDF846
:1037100027000F2207A937200BF0F6FBDFF87814FB
:10372000200014F0BDFD019ADFF8401A280014F0C3
:10373000B7FD0021022001F0B7FA40F6B830FEF7DD
:103740005BFDDFF8580408210170E5E204980028C9
:1037500017D1DFF81C1A200014F0A2FD019ADFF83F
:10376000141A280014F09CFD0021022001F09CFA9C
:1037700041F28830FEF740FDDFF82004012101709E
:10378000CAE2DFF890080078002819D0DFF88C082A
:10379000D0F80300DFF8E0190968884210D0DFF89C
:1037A0007C08D0F80300DFF8D01908600498029074
:1037B00001F002F80390082202A918200BF0A4FBE4
:1037C000DFF8B819280014F06BFD0021022001F089
:1037D0006BFA4FF4FA60FEF70FFDDFF8C003072124
:1037E000017099E24E5600103F560010C05500106F
:1037F0004056001041560010445600104756001025
:103800005356001014950100F08701002095010027
:103810006C890100609301007093010080930100A6
:103820008C890100BA0A0010AC890100DC8F01000C
:10383000DC480078002849D0DFF8E00490F8610007
:10384000002804D0DFF83809007800281AD00422B4
:10385000DFF830192A200BF057FBCF49200014F075
:103860001FFDDFF8C014280014F01AFD002102200B
:1038700001F01AFA40F6B830FEF7BEFCC74808213E
:10388000017049E2002200212B200BF03DFB0022B9
:103890000021DFF8AC050BF065FDDFF8A81520006E
:1038A00014F0FEFCDFF8A015280014F0F9FC00214C
:1038B000022001F0F9F940F6B830FEF79DFCB94856
:1038C00000210170B5480121017025E2DFF83407BD
:1038D0000078002818D0DFF82C0700210170DFF8ED
:1038E0002827ACA1280014F0DBFCDFF820070178C2
:1038F000022001F0D9F9DFF818070088FEF77CFCF8
:10390000A6480121017007E2FEF786FC002800F0BE
:103910000382DFF854080078002823D10022002118
:10392000DFF87C0B0BF01EFD0B22DFF8F0163F20BA
:103930000BF0EAFADFF86C1B200014F0B1FCDFF8A2
:10394000681B280014F0ACFC0021022001F0ACF947
:1039500017E000BF425600100490010018900100CB
:10396000148E0100DFF8441B200014F099FC049A27
:10397000DFF83C1B280014F093FC0021022001F02A
:1039800093F940F6B830FEF737FC84480121017006
:10399000C2E1DFF8A40B01210170DFF8E407007831
:1039A000002803D07D480A210170B5E1FEF734FC00
:1039B000002800F0B181DFF8841B280014F070FCAF
:1039C0000321022001F070F9DFF8740BFEF714FCFC
:1039D0007248092101709FE1DFF8A40700780028F0
:1039E0000FD0CF49280014F05BFC0121022001F028
:1039F0005BF940F6B830FEF7FFFB68480A2101701A
:103A00008AE1FEF709FC002800F0868100220021EF
:103A1000DFF8300B0BF0A6FC47F23050FEF7ECFB62
:103A20007AE100BFF08F010090930100A0930100A4
:103A300009F0D9FF002808D10AF05DF8002804D168
:103A4000FEF7EAFB002800F067810AF054F800282E
:103A500005D100220021DFF8F00A0BF083FC0020E2
:103A600002F080F8012002F091F809F0F8FE00F071
:103A7000A3FE0090042200A91E200BF045FADFF8F7
:103A8000CC0A0078002814D0DFF890050178DFF820
:103A90008C05D0F803000AF0B5FE0B22DFF87C1588
:103AA000012004F063F80B22DFF8701544200BF0BE
:103AB0002BFA40F6B830FEF79FFB40F6B8324FF4D1
:103AC0007A61DFF88C0A09F0F7F834480B210170AD
:103AD00022E1DFF830050078002814D0DFF8240553
:103AE00000210170DFF820252AA1280014F0D8FB5E
:103AF000DFF818050178022001F0D6F8DFF810058C
:103B00000088FEF779FBDFF80C050078002814D157
:103B1000DFF8400A00210170DFF83C1A280014F099
:103B2000BFFB0121022001F0BFF847F23050FEF741
:103B300063FB1A480C210170EEE0FEF76DFB0028D4
:103B400000F0EA80DFF8141A280014F0A9FB012124
:103B5000022001F0A9F8DFF8FC09007800280CD059
:103B6000DFF8F00900210170FEF759FB0022002167
:103B7000DFF8EC090BF0F6FBCEE0DFF8D809012105
:103B8000017047F23050FEF737FBC5E04956001090
:103B9000B00A0010257300002C900100B80A001034
:103BA000C09301004A56001054900100DFF8F00A5B
:103BB0000078002804D1FEF72FFB002800F0AC802D
:103BC000FEF72AFB002805D000220021DFF8D40AE6
:103BD0000BF0C8FB002001F0D9FFDFF8CC1A200061
:103BE00014F05EFB42F21070FEF706FBDFF8BC0A31
:103BF0000D21017090E0DFF8A80A007800280DD0B0
:103C0000FEF70AFB002809D1444890F86400002818
:103C100040F0828009F0E4FF00287DD0FEF7FCFA36
:103C2000002805D000220021DFF8840A0BF09AFB5F
:103C3000002001F0ABFF012001F094FF09F031FEFC
:103C4000DFF8700A0078002816D00422DFF8341557
:103C5000222003F08BFF0422DFF828153D200BF013
:103C600053F9DFF8540A0078002805D01421DFF852
:103C7000140500680AF0E9FFDFF8401A280014F084
:103C80000FFB0121022001F00FF84FF47A60FEF7DC
:103C9000B3FADFF8180A0E2101703DE009F02BFF9E
:103CA000002803D1FEF7B8FA002835D0FEF7B4FAA1
:103CB000002805D000220021DFF8040A0BF052FB97
:103CC000DFF8740800210170DFF8F80900210170A5
:103CD000CC4800210170DFF8F009B0F90020DFF8CE
:103CE000EC19280014F0DCFA0021022000F0DCFFBF
:103CF0000A4890F86700002808D0084890F8670044
:103D00004FF47A714843FEF777FA01E0FEF78FFA35
:103D1000DFF8980901210170FEF7F1BBA04B0010FC
:103D2000B0930100409001005081010068900100B3
:103D30007C900100B8830100D0930100E093010062
:103D400038B50C001500C0B2012844D002284DD06F
:103D5000032851D0112808D0122819D013282AD0AE
:103D6000212854D0222857D05AE02078DFF8601953
:103D700091F86A10884253D1DFF84C090088401E40
:103D8000DFF844190880DFF84C090121017047E091
:103D90002078DFF83C1991F86A10884240D1DFF8AA
:103DA00028090088401CDFF820190880DFF8240962
:103DB0000121017034E0A078DFF8141991F86A103D
:103DC00088422DD1DFF8000921880180DFF804093D
:103DD0000121017024E02178D4F803000AF012FDDB
:103DE0002178D4F803000AF051FE19E02268217A04
:103DF00060680AF013FE13E0122120680AF067FFE2
:103E0000052D0DD1217920680AF01FFF08E013214C
:103E100020680AF01AFF03E0142120680AF015FF59
:103E200031BD0000CC89010080800100909001002C
:103E3000A4900100E48B0100B8900100CC90010037
:103E400080810100E0900100F4900100EC89010004
:103E5000089101001C9101004856001038B50C0073
:103E60001500C0B20100022932D0042900F0B6804A
:103E7000052959D00A2977D00B2900F095801229FD
:103E800031D0132900F09D80142900F0A08015295D
:103E900021D0182918D019290AD01A2914D01B2981
:103EA00020D01C291ED03C2935D03D2921D0A1E0AD
:103EB000122120680AF00BFF052D40F0A280217925
:103EC00020680AF0C2FE9CE020680AF022FF98E019
:103ED000FEF70BF995E004222100DFF8FC0715F04E
:103EE000E6FA8EE08DE0DFF8E8072188A0F872108E
:103EF00087E02078DFF8D81791F86A10884240F000
:103F00008080B4F80100DFF8C0170880DFF8C4072C
:103F10000121017075E0DFF8B00721880180DFF82A
:103F2000B407012101706CE0E01C14F03FF8502848
:103F300067D26078364908803548008800023449E5
:103F40000880334800882178084331490880A078E8
:103F50002E490870E11C2C4813F09CFC29480121D3
:103F60000170FEF764F94CE009F0C5FD002814D09B
:103F70000AF036F84EF66020FEF710F9DFF85C071D
:103F80000021017009F06BFC00F016FC0090042287
:103F900000A91F200AF0B8FF33E000220021DFF85B
:103FA00040070BF0DFF92CE00AF01AF842F210702B
:103FB000FEF7F4F8DFF824070021017009F071FC26
:103FC0001FE0DFF80C072188A0F86C1019E03622FA
:103FD0002100DFF8100715F06AFA12E0DFF8E406B6
:103FE00001210170042D02D1664821680160FEF7AD
:103FF0001EF906E00022C0B20100DFF8EC060BF06B
:10400000B1F931BD4B560010784E00104C560010DF
:104010000A56001045560010309101004C54001013
:10402000B0810100F093010044910100009401006F
:104030005891010080B5DFF8B40613F0B7FF421CB9
:10404000DFF8A816372003F033FADFF8A40613F0E0
:10405000ADFF421CDFF89816382003F029FA012240
:10406000DFF89016392003F023FA0122DFF88816D2
:10407000042003F01DFA0122DFF88016192003F056
:1040800017FA0122DFF87816FB2003F011FA01225B
:10409000DFF870163D2003F00BFA0422DFF86816F3
:1040A0000A2003F005FA0122DFF860160E2003F063
:1040B000FFF90122DFF85816352003F0F9F9012243
:1040C000DFF850162A2003F0F3F90122DFF8481632
:1040D0002D2003F0EDF90122DFF840162B2003F02C
:1040E000E7F90122DFF838160D2003F0E1F901228B
:1040F000DFF830163C2003F0DBF90122DFF8281648
:10410000242003F0D5F90122DFF820162C2003F03B
:10411000CFF90122DFF81816282003F0C9F902228E
:10412000DFF81016342003F0C3F90222DFF8081676
:104130001F2003F0BDF90422DFF89C151C2003F0BA
:10414000B7F90222DFF8F415232003F0B1F9362283
:10415000DFF890150B2003F0ABF901BDE4830100FB
:104160006C91010080910100435600109491010070
:10417000A8910100BC910100C4550010D09101002C
:104180004E560010C055001001B59DF800000428DF
:104190006ED00A2800F0A9800B2800F051810D286C
:1041A00000F0E9800E2800F0AA800F2800F052816C
:1041B00019286ED01C2800F02F811F2800F02281C2
:1041C000232800F03381242800F0EA80282800F01A
:1041D000FB802A2800F0AE802B2800F0C1802C281C
:1041E00000F0E8802D2800F0B080342800F0FB803B
:1041F000352800F0948037280BD038281BD0392878
:104200002BD03C2800F0C2803D285ED0FB2851D046
:1042100040E1162A00DB1522DFF8D00415F047F93B
:10422000DFF8AC04002180F84210002200210020B9
:1042300003F03EF933E1162A00DB1522DFF8B00463
:1042400015F035F9DFF88804002180F857100022B6
:104250000021002003F02CF921E1DFF87404097833
:1042600080F82D1000220021002003F021F916E132
:10427000DFF85C04097880F85810DFF8540490F8EF
:10428000580000F00BFF00220021002003F010F97D
:1042900005E1DFF83C04097880F85910DFF83004B4
:1042A00090F8590000F00AFF00220021002003F0DE
:1042B000FFF8F4E0DFF81804097880F85A100022BB
:1042C0000021002003F0F4F8E9E00878002801D08C
:1042D000012000E00020DFF8F81381F85B000022E5
:1042E0000021002003F0E4F8D9E0DFF8E4030968D6
:1042F000C16500220021002003F0DAF8CFE0087841
:10430000002801D0012000E00020DFF8C41381F86C
:10431000600000220021002003F0CAF8BFE0DFF8AF
:10432000B003097880F8611000220021002003F01A
:10433000BFF8B4E0DFF89803097880F86210002233
:104340000021002003F0B4F8A9E0DFF88403097825
:1043500080F8631000220021002003F0A9F89EE0FD
:10436000DFF86C03097880F8641000220021002037
:1043700003F09EF893E0DFF85803097880F86510A1
:1043800000220021002003F093F888E0D04809784B
:1043900080F8661000220021002003F089F87EE0FA
:1043A000CB48097880F8671000220021002003F034
:1043B0007FF874E0C648097880F868100022002170
:1043C000002003F075F86AE00878002801D0012089
:1043D00000E00020BE4981F8690000220021002091
:1043E00003F066F85BE00222D24815F060F8002284
:1043F0000021002003F05CF80222CE4956200AF08A
:1044000083FD4CE0B2480988A0F86C10002200211E
:10441000002003F04DF842E00422AF4815F047F8C1
:1044200000220021002003F043F838E0A848098862
:10443000A0F8721000220021002003F039F82EE0CD
:104440003622A84815F033F800220021002003F09E
:104450002FF824E0087800280BD009F0C1FD4EF6B3
:104460006020FDF79BFE9D480021017009F0F7F9DF
:104470000AE009F0B5FD42F21070FDF78FFE974893
:104480000021017009F00DFA00220021002003F044
:104490000FF804E0012200A9012003F009F801BD92
:1044A000008C010010940100E4910100F8910100DA
:1044B0002C95010070B50C00C0B2E02808D0ED28A2
:1044C0001BD0EE2823D0EF282BD0F12803D031E0E9
:1044D000FDF70BFE2EE02578641C2688A41C00F056
:1044E0006BF921683C2202FB1102241D310089B2C4
:1044F0002800C0B20DF03DFF1CE02078002801D05C
:10450000012000E000208E490870641C12E0207831
:10451000002801D0012000E000208A490870641CB6
:1045200008E02078002801D0012000E00020864922
:104530000870641C70BD00004D5600101C8C0100FA
:10454000C0D40100248601001084010042560010EE
:1045500020940100545600100C9201003094010088
:10456000CC7E01003EB50FF06DFE01F029FB01F09D
:104570007FFA01F03BFA7548006850F48060734997
:104580000860002472484FF4806101600025714882
:10459000006850F002006F4908606F48006850F0F2
:1045A00004006D4908606D48022101606C48482193
:1045B00001606A48012101606A48FDF72EFD11F093
:1045C000C3FA012804D111F0C5FA6748012101702E
:1045D0000121002011F087FA644811F0A8FA0DF0CB
:1045E0002EFF002803D06248002101700EE06048D1
:1045F00001210170344800210180FDF716FD0DF006
:10460000FEFE012201215B480EF086FF5A4812F09F
:104610001DFA022157480EF091FF5849086057488B
:104620000068000C2849088011F060FE544840786A
:10463000401C534948700EF0E4F90FF033FA0FF0C4
:104640007FFD4248016821F48061016000244FF43D
:1046500000624C494C4810F0F5FB4B480AF050FC06
:10466000494802F052F84FF480724849484810F027
:10467000E9FB474807F099FE45480AF007FC02208D
:1046800002904FF47A70019042480090424B6422AD
:104690004249434812F026FF11F008FE00203EBDBB
:1046A00046560010047F010040940100B80A001033
:1046B000B4800100405600103E56001020920100C8
:1046C0003C8401004A560010085600105094010026
:1046D000A04B0010B10A00100E4C0010B60A0010DA
:1046E000E8800100144C00104C860100CE4B0010F5
:1046F000E34B0010CD4B0010F84B0010F94B0010AD
:10470000FA4B0010FB4B0010FC4B0010004C00104B
:10471000014C0010024C0010034C0010044C00101F
:10472000054C0010064C0010074C0010084C0010FF
:10473000094C00100A4C00100C4C0010124C0010D8
:104740004F560010505600105156001040C009201E
:104750005CC00920C4C00F40A8C10F400440004005
:104760000C40004020A107003C560010404B4C007C
:104770003D5600100040024030540010BC5500105F
:10478000CC090010601A00106C510010A4490010F0
:1047900050510010E8350010B92200003895010092
:1047A00028500010DFF8601D0968DFF85C2D1268E2
:1047B000521A8242F9D3704710B594B0DFF8F40969
:1047C0000078401CDFF8EC1908700BA9DFF83C0DED
:1047D0000EF031FE0B9800900C9801900D9802900D
:1047E0000E9803901198401E04901298A0F26C70DD
:1047F000059000200690002007900020089000A857
:1048000011F024FF04000DF093FF200014B010BD40
:1048100030B585B004000D00DFF898090078401C21
:10482000DFF89019087011F061FD220070A100A856
:1048300013F036FD00A900200EF09CFF2A006CA1A9
:1048400000A813F02DFD00A940200EF093FFFEE715
:1048500080B5DFF8641900200EF08CFFDFF85C09EA
:104860000078002806D0022848D009D3032800F099
:104870009E80B7E0DFF8481940200EF07BFFB1E0E2
:10488000DFF840090078002804D15AA140200EF03A
:1048900071FF04E0DFF8281940200EF06BFFDFF80D
:1048A00024090078002811D0DFF81C090068411C99
:1048B000DFF814291160042808D1DFF80C09002161
:1048C0000160DFF80009002101708BE0DFF8F408D7
:1048D0000078002840F08680DFF8EC080068411C72
:1048E000DFF8E428116001287CD1DFF8DC08002122
:1048F0000160DFF8D0080121017073E0DFF8CC0817
:104900000068DFF8CC18401810F1100140200EF0BC
:1049100031FFDFF8B8080068DFF8B418401810302D
:1049200013F044FBDFF8E81B0978002920D0112898
:1049300007DBDFF898080068401CDFF89018086073
:1049400050E0DFF88808006800284BD0DFF87808CE
:104950000068411CDFF870281160012842D1DFF89F
:10496000680800210160DFF8A80B0021017039E020
:10497000DFF858080068012807DBDFF850080068F6
:10498000401EDFF8481808602CE0DFF83C0800689B
:10499000411CDFF834281160042823D1DFF82808EF
:1049A00000210160DFF8680B012101701AE0DFF8D7
:1049B0001C080068411CDFF814281160DFF810188B
:1049C000411840200EF0D6FEDFF8040813F0EEFA8E
:1049D000DFF8F8170968401F814203D3DFF8EC07BE
:1049E00005210160DFF8480D11F00DFD01BD00004B
:1049F000257300000000000030B589B000240025B8
:104A000000200500DFF8140B13F0D0FA0400142C7A
:104A100004DAD4F11400022190FBF1F52A002021E0
:104A200000A814F02FFC621CDFF8F01A00A8281868
:104A300014F03DFD00A954200EF09CFE0025DFF887
:104A4000E00A13F0B3FA0400142C04DAD4F11400D1
:104A5000022190FBF1F52A00202100A814F012FC9D
:104A6000621CDFF8BC1A00A8281814F020FD00A969
:104A700014200EF07FFEDFF8400713F097FA0400D1
:104A80000025142C04DAD4F11400022190FBF1F576
:104A90002A00202100A814F0F5FB621CDFF818178B
:104AA00000A8281814F003FD00A900200EF062FEF3
:104AB0000025DFF80C0713F079FA0400142C04DA4F
:104AC000D4F11400022190FBF1F5DFF8F006007834
:104AD000002806D0022850D00DD3032800F0A6806D
:104AE000BFE06842DFF8E816401810F110014020DE
:104AF0000EF040FEB5E0DFF8CC060078002804D1C7
:104B000074A140200EF036FE08E06842DFF8C016BF
:104B1000401810F1100140200EF02CFEDFF8A40622
:104B20000078002811D0DFF8A0060068411CDFF8EB
:104B300098261160042808D1DFF88C060021016056
:104B4000DFF88006002101708BE0DFF8780600783E
:104B5000002840F08680DFF870060068411CDFF80E
:104B60006826116001287CD1DFF85C060021016015
:104B7000DFF850060121017073E0DFF8500600688D
:104B8000DFF84C16401810F1100140200EF0F2FD35
:104B9000DFF838060068DFF838164018103013F0D8
:104BA00005FADFF86C190978002920D0112807DBF5
:104BB000DFF818060068401CDFF81016086050E0A7
:104BC000DFF80806006800284BD0DFF8FC05006815
:104BD000411CDFF8F4251160012842D1DFF8E80517
:104BE00000210160DFF828090021017039E0DFF8B9
:104BF000DC050068012807DBDFF8D0050068401EEF
:104C0000DFF8C81508602CE0DFF8BC050068411C1F
:104C1000DFF8B4251160042823D1DFF8AC050021AA
:104C20000160DFF8EC08012101701AE0DFF89C0553
:104C30000068411CDFF894251160DFF894154118D5
:104C400040200EF097FDDFF8880513F0AFF9DFF88C
:104C50007C1509680A38814203D3DFF87005052105
:104C60000160DFF8CC0A11F0CEFB09B030BD80B591
:104C7000DFF81C0C90F82D00022802D0042803D085
:104C800004E0FFF7E5FD01E0FFF7B6FE01BD0128F6
:104C900002D0022803D005E0DFF81C0503E0DFF8AE
:104CA000200500E000207047022812D1DFF80C0533
:104CB0000170DFF8180505210160DFF80C050021FF
:104CC0000160DFF84C0800210170DFF8F8040121D1
:104CD00001707047000000002DE9F04FA1B00020E6
:104CE0008DF810000120059004AA0021DFF8A40B24
:104CF0000CF0B0FC002364220021DFF8980B0CF0CC
:104D0000B7FD00208DF80C0000208DF80D0001206B
:104D10008DF80F0000208DF80E0003A9DFF8740B4A
:104D20000CF04BFDDFF86C0B0CF030FD0121DFF8CF
:104D3000640B0CF008FD0121DFF8580B0CF0EDFCC2
:104D4000DFF8540BD0E90023CDE91E231EA811F093
:104D5000A5FFDFF8480B006850F00800DFF83C1BA7
:104D6000086000200090DFF8380B08210160002067
:104D7000009000220421DFF81C0B0CF0B9FD002389
:104D8000DFF80C0B90F858200421DFF8080B0CF02A
:104D90006FFD04208DF8080000208DF80900002028
:104DA0008DF80B0000208DF80A0002A9DFF8E40A54
:104DB0000CF003FD01220421DFF8D80A0CF0CAFD33
:104DC000DFF8E00AD0E90023CDE91C231CA811F08C
:104DD00065FFDFF8C80A006850F01000DFF8BC1A61
:104DE000086000200090DFF8B80A10210160002060
:104DF000009000220521DFF89C0A0CF079FD0023C9
:104E0000DFF88C0A90F859200521DFF8880A0CF0A9
:104E10002FFD05208DF8040000208DF805000020EE
:104E20008DF8070000208DF8060001A9DFF8640A5C
:104E30000CF0C3FC01220521DFF8580A0CF08AFDB2
:104E4000DFF8800BD0E90023CDE91A231AA811F06E
:104E500025FFDFF8880B006850F02000DFF87C1B8E
:104E6000086000200090DFF8780B2021016000200E
:104E70000090DFF8640BD0E90023CDE9182318A8CF
:104E800011F00CFFDFF8540B006850F01000DFF851
:104E90004C1B086000200090DFF8440B10210160DB
:104EA00000200090DFF83C0BD0E90023CDE9162369
:104EB00016A811F0F3FEDFF8E409006850F4005082
:104EC000DFF8D819086000200090DFF8640B4FF479
:104ED0000051016000200090DFF80C0BD0E90023A6
:104EE000CDE9142314A811F0D9FEDFF8B009006849
:104EF00050F40060DFF8A419086000200090DFF88B
:104F0000300B4FF40061016000200090DFF8240BAB
:104F1000D0E90023CDE9122312A811F0BFFEDFF87B
:104F20007C09006850F48050DFF870190860002098
:104F30000090DFF8FC0A4FF48051016000200090DF
:104F4000DFF81C0BD0E90023CDE9102310A811F0E5
:104F5000A5FEDFF84809006850F04000DFF83C1972
:104F6000086000200090DFF8C80A4021016000209E
:104F70000090DFF8F00AD0E90023CDE90E230EA857
:104F800011F08CFEDFF81409006850F08000DFF8A3
:104F90000C19086000200090DFF8940A802101605D
:104FA00000200090DFF8C00AD0E90023CDE90C23EF
:104FB0000CA811F073FEDFF8B40A006850F08050BE
:104FC000DFF8A81A08600024DFF80C0B5FF08051AE
:104FD00001600025DFF8040BD0E90023CDE90A23A6
:104FE0000AA811F05BFEDFF8840A006850F0005058
:104FF000DFF8781A08600026DFF8DC0A5FF000515D
:1050000001600027DFF8D82AD2E90001CDE90801C4
:1050100008A811F043FEDFF8C409006850F0010051
:10502000DFF8B81908605FF00008DFF8B409012163
:1050300001605FF00009DFF8D42AD2E90001CDE970
:10504000060106A811F02AFEDFF89009006850F06A
:105050000200DFF8881908605FF0000ADFF88009B5
:10506000022101605FF0000B0EF062FB152220218F
:10507000514814F007F961222021554814F002F933
:10508000FA22DFF8DC1ADFF8A80611F0B1F9DFF830
:10509000A00611F0CAF921B0BDE8F08F80B5DFF8A5
:1050A000F01781F858000023DFF8E40790F8582043
:1050B0000421DFF8E0070CF0DBFB01BD80B5DFF871
:1050C000D01781F859000023DFF8C40790F8592061
:1050D0000521DFF8C0070CF0CBFB01BD4FF47A715E
:1050E000884205DBDFF8380C40F2E73101600BE065
:1050F00010F1630F05DADFF8280C7FF06201016020
:1051000002E0DFF81C1C0860704710B50C000100BD
:10511000DFF8A00A0AF0DEFF2100DFF8980A0BF0A2
:1051200023F9DFF8940A01218170DFF88C0A11F06D
:10513000B5FDDFF8880A01218170DFF8800A11F0DF
:10514000ADFD0121DFF86C0A0BF073F910BD38B525
:105150000021DFF8600A0BF06CF9DFF85C0A00212F
:105160008170DFF8540A11F099FDDFF870080068CB
:1051700050F40040DFF8641808600024DFF860088D
:105180004FF4004101600025DFF8300A00218170F2
:10519000DFF8280A11F082FDDFF84008016821F4E9
:1051A000803101600020DFF838185FF480320A6037
:1051B000002131BDCC090010885100102D5600107F
:1051C000D04D0010AE0A00109855001094550010F4
:1051D000C04D00102DE9FC41DFF8E80A00780028F6
:1051E00040F08780DFF8E00A006800280CD0DFF884
:1051F000D80A0068002800F08181DFF8CC0A006836
:105200008047002800F07A81DFF8C01ADFF8C00A72
:10521000FFF77BFFDFF80C0BA5210170DFF8040B13
:1052200006214170DFF8FC0A30218170DFF8F00AB6
:105230000068012810DBDFF8E80A0268B5A1DFF892
:10524000E80A13F02DF8DFF8DC0A01218171DFF89C
:10525000D40A0021C1710CE0AFA1DFF8CC0A13F031
:105260001FF8DFF8C00A00218171DFF8B80A0121B8
:10527000C1710821DFF8AC0A11F048FFDFF8A41A69
:105280000872DFF8A01AC0F307224A72DFF8941AF6
:10529000C0F307428A72000EDFF8881AC872DFF87E
:1052A0008C0A5FF48001016000246420FFF77AFA21
:1052B00001230C22DFF86C1ADFF8F8080AF0E2FF8D
:1052C000DFF8F0080BF049F80128F9D00A20FFF7C1
:1052D00069FADFF80C075FF48001016000241421F3
:1052E000DFF8680C13F0A8FCDFF8D8090121017081
:1052F00004E100231022DFF82C1ADFF8B8080AF0C6
:10530000F4FF0400102C40F0B980DFF8180A007890
:105310000A2840F0B380DFF80C0A40780A2840F0F1
:10532000AD80DFF8000A8078202840F0A780DFF801
:10533000F409201810F8040CDFF8E819611811F8C6
:10534000031C50EA0120DFF8DC19611811F8021C77
:1053500050EA0140DFF8CC19611811F8011C50EA3D
:10536000016501A811F0AEFE002606E0DFF8B409E1
:10537000315C01A811F0AAFE761C201F8642F5DBE5
:1053800001A811F0BDFE0198A84240F09880DFF816
:105390009409C478DFF88C090079DFF888194D7911
:1053A000EDB2002D00D10125DFF8780986790322BE
:1053B000DFF87C1A00A814F07AF800208DF80300BA
:1053C000DFF86009807A002801D0012700E000277B
:1053D000DFF85009C07A002802D05FF0010801E030
:1053E0005FF00008DFF8AC0A0078EDB2A8421AD1ED
:1053F000DFF8A00AC078F6B2B04214D1032200A9A7
:10540000DFF8C40A11F036FF00280CD1DFF8840A57
:10541000007AFFB2B84206D1DFF8780A407A5FFA24
:1054200088F8404525D0DFF86C0A00214170DFF88C
:10543000640A8470DFF85C0A0570F6B2002E01D0B1
:10544000012000E00020DFF84C1AC870042200A9F7
:10545000DFF8740A14F02BF8DFF8380A0772DFF867
:10546000340A80F809800A22DFF8281A322009F06D
:105470004BFDDFF86C0A0521016020E0DFF8600ACF
:10548000006800281BD0DFF8580A0068401EDFF8CB
:10549000501A0860DFF8480A006800280FD1DFF8CA
:1054A000F409002101700A22DFF8E819322009F01E
:1054B0002BFD0A220021DFF8DC0913F0E3FE0023B4
:1054C0000A22DFF86018DFF8EC060AF00EFF002869
:1054D000F5D1FFF73CFEDFF8780A0068002803D01A
:1054E000DFF86C0A00688047DFF8D80700210170F8
:1054F0004FF47A71DFF8540A13F09EFBDFF84C0A80
:1055000010F081FFBDE8F3810840004000400240F8
:10551000AD0A00102533640020203000CE4B00106F
:10552000E34B001038B5DFF8282A1160DFF8981730
:105530000860DFF8200A11F0B1FBDFF8A004006872
:1055400050F48000DFF8941408600024DFF8900421
:105550005FF4800101600025DFF874070AF064FE43
:10556000DFF86C074FF416510160DFF86407032180
:105570004171DFF85C0700210171DFF85407002159
:105580008171DFF848070AF04DFFDFF8400703217B
:10559000C170DFF83407006800280AD003E04FF438
:1055A0007A700DF049FADFF820070068804700287C
:1055B000F5D0DFF81817DFF81807FFF7A6FDDFF8BA
:1055C0006C075FF48001016000244FF4FA70FFF76C
:1055D000E9F8DFF85007A5210170DFF84807062138
:1055E0004170DFF8400730218170DFF8380738213B
:1055F000C170DFF8300738210171DFF82807382142
:105600004171DFF8200701218171DFF818070121BE
:10561000C1710821DFF80C0711F078FDDFF80417DD
:105620000872DFF80017C0F307224A72DFF8F41699
:10563000C0F307428A72000EDFF8E816C872DFF87E
:10564000EC065FF48001016000256420FFF7AAF8F2
:1056500001230C22DFF8CC16DFF858050AF012FE01
:10566000DFF850050AF079FE0128F9D00A20FFF78B
:1056700099F8DFF86C035FF48001016000241420C6
:105680000DF0DAF900230A22DFF89816DFF8240576
:105690000AF02BFE0028F5D1FFF759FDDFF8B0081E
:1056A0000068002803D0DFF8A80800688047DFF80A
:1056B0001406002101704FF47A62DFF89C18DFF8BD
:1056C0008C0810F095FEDFF8840810F0AEFE31BDB6
:1056D000C10706D5DFF800145FF480120A600021CC
:1056E00005E0DFF8B81A5FF480120A600021C0B24A
:1056F000810706D5DFF8E0135FF400120A6000218D
:1057000005E0DFF8981A5FF400120A600021C0B2C9
:10571000400706D5DFF8C0035FF480210160002058
:1057200005E0DFF8780A5FF480210160002070470F
:10573000F052001010B50024082C80F2A380200045
:10574000C0B2FFF7C5FF0A20FFF72CF8DFF8500AB8
:105750000068400201D5012100E00021C9B20A2001
:10576000DFF8402A00FB042011F030FC012822D091
:10577000022814D0032802D006282DD03CE0DFF800
:10578000280A50F82400002804D0DFF81C0A50F83A
:1057900024008047DFF8140A022121542CE0DFF8AE
:1057A000100A50F82400002826D0DFF8040A50F828
:1057B0002400804720E0DFF8FC0950F8240000288E
:1057C00005D00120DFF8EC1951F824108847DFF8E4
:1057D000DC09012121540FE0DFF8D80950F824003A
:1057E000002805D00020DFF8CC1951F82410884794
:1057F000DFF8B80900212154DFF8BC0900688003F4
:1058000001D5012100E00021C9B20A20DFF8AC294E
:1058100000FB042011F0DAFB002804D001280ED090
:1058200006281DD02CE0DFF8980950F82400002845
:1058300026D0DFF88C0950F82400804720E0DFF8FC
:10584000840950F82400002805D00120DFF87419DD
:1058500051F824108847DFF87009012121540FE026
:10586000DFF8600950F82400002805D00020DFF898
:10587000541951F824108847DFF84C0900212154AD
:10588000641C59E7DFF82C0B10F0BDFD10BD0000C3
:10589000A04B0010008001408C96010040C0092000
:1058A0005CC00920949601002DE9F04F8BB0DFF821
:1058B0001C09D0E90023CDE9082308A811F0EEF96E
:1058C0006A48006850F48010684908605FF0000A78
:1058D000DFF8C8085FF4801101600024DFF8F008E9
:1058E000D0E90023CDE9062306A811F0D7F95F48D7
:1058F000006850F400105D4908600025DFF89C083E
:105900005FF4001101600026DFF8C828D2E9000129
:10591000CDE9040104A811F0C1F95448006850F41D
:105920008020524908600027DFF870085FF480216A
:1059300001605FF00008DFF8A028D2E90001CDE99E
:10594000020102A811F0AAF94848016821F4800177
:1059500001605FF00009DFF88428D2E90001CDE999
:10596000000100A811F09AF91C48016821F40031E7
:1059700001605FF0000B1422DFF8F819DFF8340A39
:1059800010F036FDDFF82C0A10F04FFD0BB0BDE82B
:10599000F08F021E082A03D2DFF8142842F82010E4
:1059A000704710B4031E082B09D20A23DFF8F4470E
:1059B00003FB0043D980DFF8F01741F8202010BC2A
:1059C000704700009C960100021E082A03D2DFF8EF
:1059D000F42742F820107047A496010000C0092067
:1059E00018C00920AC960100B49601001FB5DFF87D
:1059F000C809D0E90023CDE9022302A811F04EF92D
:105A0000DFF8B809016821F4807101600024DFF833
:105A1000B009D0E90023CDE9002300A811F03EF938
:105A2000DFF89809016821F48061016000201FBD42
:105A300058C00920BC960100C0B2002805D02649F4
:105A40005FF400020A60002105E0DFF850175FF400
:105A500000020A600021DFF86C190870704700002E
:105A6000C4960100CC960100D496010020C0092004
:105A700030B585B0DFF85809D0E90023CDE902231D
:105A800002A811F00BF9DFF84C09006850F400008F
:105A9000DFF8401908600024DFF800075FF4000118
:105AA00001600025DFF83009D0E90023CDE90023AB
:105AB00000A811F0F3F8DFF80409006850F02000A6
:105AC000DFF8F81808600020DFF8FC1820220A60D0
:105AD000002105B030BD000038C00920DC9601006F
:105AE000E4960100C0B2002806D0DFF8F0185FF499
:105AF00000120A60002104E08C495FF400120A6081
:105B00000021DFF8DC18087070470000EC960100F7
:105B1000C0B2002806D0DFF8CC185FF080720A60AF
:105B2000002105E0DFF874165FF080720A60002142
:105B3000DFF8AC1848707047C0B2002806D0DFF814
:105B4000A4185FF080620A60002105E0DFF84C16BF
:105B50005FF080620A600021DFF884188870704767
:105B60006F4C0000C0B2002806D0DFF878185FF054
:105B700000720A60002105E0DFF820165FF0007275
:105B80000A600021DFF85818C8707047C0B20028BA
:105B900006D0DFF850185FF000620A60002105E0CF
:105BA000DFF8F8155FF000620A600021DFF83018B6
:105BB0000871704700000140480A0010500A0010A8
:105BC0002DE9F04F8BB0DFF82008D0E90023CDE9B4
:105BD000082308A811F062F8DFF81008006850F4F4
:105BE0000010DFF8081808605FF0000B4F485FF402
:105BF000001101605FF0000ADFF8F407D0E900232C
:105C0000CDE9062306A811F049F8DFF8C8070068B7
:105C100050F08070DFF8BC1708600024DFF87C05C6
:105C20005FF0807101600025DFF8C827D2E900012C
:105C3000CDE9040104A811F031F8DFF898070068F5
:105C400050F08060DFF88C1708600026DFF84C0504
:105C50005FF0806101600027DFF89C27D2E9000136
:105C6000CDE9020102A811F019F8DFF86807006811
:105C700050F00070DFF85C1708605FF00008DFF894
:105C80001C055FF0007101605FF00009DFF86C2710
:105C9000D2E90001CDE9000100A810F0FFFFDFF814
:105CA0003407006850F00060DFF828170860002013
:105CB000DFF8E8145FF000620A6000210BB0BDE875
:105CC000F08F00002E560010A4550010A8550010AB
:105CD0009C54001080B5DFF8280700210170DFF820
:105CE000240700681A281AD1DFF81C07006840084A
:105CF000DFF814170860DFF8100700680002000AD8
:105D0000DFF804170860DFF804070068002806D0F1
:105D1000DFF8F4060068DFF8F4160968884701BD6B
:105D20007C0A001020540010235400101CC00920CD
:105D300080B510F0DBFADFF8D8060078401CDFF8F9
:105D4000D0160870DFF8C8064078401CDFF8C0168F
:105D50004870DFF8AC06007800280FD1DFF8A00605
:105D600001210170DFF89C0600210160DFF8980630
:105D700000210160DFF89C0610F045FBDFF8840687
:105D80000068401CDFF87C160860DFF87C060068BD
:105D90004000DFF874160860DFF87C060068C00277
:105DA00001D5012000E00020C0B2002807D0DFF8B4
:105DB0006C06006850F48010DFF860160860DFF8A9
:105DC00058060068000301D5012000E00020C0B2A1
:105DD00000280FD0DFF84406006850F40020DFF8F8
:105DE0003C160860DFF82006006850F00100DFF87C
:105DF00018160860DFF818064078401EDFF8101605
:105E00004870DFF80C060078012806D1DFF800069C
:105E10004068002801D010F05AFADFF8F405007845
:105E2000401EDFF8EC15087010F05AFA01BD0000B2
:105E30002754001010B504006422DFF8E415DFF8E1
:105E4000D40510F0D5FADFF8DC1525200DF09FFE03
:105E5000F02125200DF0D5FE25200DF09AFEDFF86B
:105E6000C805006850F48010DFF8BC1508600020F9
:105E7000DFF8B415096851F40021DFF8AC25116092
:105E80000021DFF88825146010BDDFF8A00501218E
:105E9000017070474054001010B50400DFF8900501
:105EA00010F0EFFADFF88405002101702100DFF81F
:105EB000800512F0C1FEDFF8780510F0A4FA10BDDD
:105EC000DFF86805007870474454001080B5DFF8AB
:105ED000600510F0D6FADFF854050021017001BD0D
:105EE0009C55001080B5DFF84C25127892F0010225
:105EF0000B00DBB2134203D0DFF83C250123137003
:105F0000DFF830251170DFF83415097891F00101C0
:105F10000200D2B20A4203D0DFF8241501220A702F
:105F2000DFF818150870DFF80C050078DFF80C159D
:105F300009780843C0B2002804D0DFF80805FFF74D
:105F4000ABFF01E0FFF7C2FF01BD000004530010EA
:105F5000A0550010580A0010D551000010B5FFF7E9
:105F6000AFFF002809D0DFF8CC0400210170DFF872
:105F7000CC0400210170FFF7A9FFDFF8B804007816
:105F8000002800F0AA80DFF8C0040068DFF8BC1425
:105F90000968884204D1DFF8A004007800280BD0FB
:105FA000DFF8A404DFF8A414096801600222DFF816
:105FB0009C14202001F014F8002419E0DFF890046C
:105FC000205C7A49615C884204D1DFF86C04007877
:105FD00000280CD0DFF878047449615C2154012258
:105FE0007248211814F12100C0B200F0F9FF641CBE
:105FF000082CE3DB002419E0DFF85804205C724928
:10600000615C884204D1DFF83004007800280CD0AD
:10601000DFF840046C49615C215401226A48211870
:1060200014F13100C0B200F0DBFF641C082CE3DB8C
:1060300000241CE0DFF82004205CDFF8A413615C7E
:10604000884204D1DFF8F003007800280ED0DFF892
:106050000804DFF88C13615C21540122DFF880030F
:10606000211814F14100C0B200F0BAFF641C052CE5
:10607000E0DBDFF8E8030078DFF8481309788842AE
:1060800004D1DFF8B403007800280BD0DFF8CC038C
:10609000DFF83013097801700122DFF8281351204E
:1060A00000F09EFFDFF8B8030078DFF820130978CE
:1060B000884204D1DFF880030078002809D0DFF897
:1060C000A003C249097801700122C049522000F0A2
:1060D00087FFDFF8640300210170DFF860030078B8
:1060E00000285AD0DFF87C030078DFF854130978D1
:1060F0000843C0B200280DD0DFF86803002101700A
:10610000DFF8640311F052FF421CDFF85C1310202B
:1061100000F066FFDFF854030078DFF824130978F5
:106120000843C0B200280DD0DFF840030021017001
:10613000DFF83C0311F03AFF421CDFF83413112062
:1061400000F04EFFDFF82C030078BD4909780843C2
:10615000C0B200280BD0DFF81C0300210170C64834
:1061600011F024FF421CC449152000F039FFC34838
:106170000078B34909780843C0B200280AD0BF4864
:1061800000210170BE4811F011FF421CBC491620CD
:1061900000F026FFAA480021017010BD3CC0092074
:1061A00034C00920E0080010D0500010A4540010A2
:1061B000B0500010F050001014C009203009001039
:1061C0003051001010510010AC540010F496010032
:1061D000FC960100049701000C9701001497010040
:1061E00010B50C00A74991F82D10022902D00429FE
:1061F00060D0BEE0C0B2002802D0402836D058E0BF
:1062000014222100984811F035F800280BD01422F0
:106210002100954813F04BF99348002101759148EE
:1062200086490978017015229749934811F022F8A0
:1062300000283ED09448807820280DD1022292492F
:106240008D4811F017F8002806D10D228F4990488B
:1062500011F010F800282CD015228B49864813F035
:1062600026F9844875490978017022E0142221003A
:106270007F4810F0FFFF00280BD0142221007C483B
:1062800013F015F97A480021017578486B490978AF
:10629000017051227F497A4810F0ECFF002808D0A5
:1062A00051227C49764813F002F974486349097811
:1062B00001705EE0C0B2002802D0402836D058E01D
:1062C00014222100684810F0D5FF00280BD01422BA
:1062D0002100654813F0EBF863480021017561481F
:1062E00056490978017015226749634810F0C2FFCA
:1062F00000283ED06448807820280DD102226249CF
:106300005D4810F0B7FF002806D10D225F496048B4
:1063100010F0B0FF00282CD015225B49564813F02E
:10632000C6F8544845490978017022E0142221003A
:106330004F4810F09FFF00280BD0142221004C483A
:1063400013F0B5F84A480021017548483B490978DF
:10635000017051224F494A4810F08CFF002808D0A4
:1063600051224C49464813F0A2F844483349097871
:10637000017010BD3557000080B5152200213A4844
:1063800012F080FF15220021394812F07BFF152200
:106390000021394812F076FF51220021384812F0CE
:1063A00071FF3D480DF0E3F900223C49204810F010
:1063B0001FF801BD185300101C97010040C00920B0
:1063C000249701002F5600105CC0092030560010A1
:1063D0002C97010020C009203497010018C0092023
:1063E000B454001038C009203C97010000C00920B7
:1063F000449701004C970100549701005C970100FD
:1064000031560010B0550010B4550010AC550010B6
:10641000CC0900102C530010888002408C80024070
:10642000D55C0000315D000094800240AF0A00108E
:1064300040530010325600103356001034560010EE
:1064400035560010E0930400B85500107C0A001087
:10645000BC540010C4540010CC5400103A56001024
:106460003B56001036560010A05100103756001051
:10647000B851001038560010D05100103956001095
:10648000244E0010A04B0010885100108B510010BA
:10649000D3510010D04D0010E16100008B5E000070
:1064A00080B5DFF8300B09F02CF9DFF8201C08600C
:1064B00001BDBFF34F8FDFF8180C006810F4E060E7
:1064C000DFF8141B0843DFF8081C0860BFF34F8F88
:1064D000FEE780B50FF00AFFDFF8F80B0078401CEC
:1064E000DFF8F01B0870DFF8EC0B4078401CDFF899
:1064F000E41B4870DFF8940B0068002803D0DFF835
:106500008C0B00688047DFF8CC0B4078401EDFF82A
:10651000C41B4870DFF8BC0B0078012806D1DFF8F7
:10652000B40B4068002801D00FF0D1FEDFF8A40BB7
:106530000078401EDFF89C1B08700FF0D1FE01BDF3
:1065400038B504001500DFF8440B016020000DF0A1
:106550001EFB290020000DF054FB20000DF019FB5C
:1065600031BD00B595B0DFF8700B016821F08041B6
:106570000160DFF8680BD0E90023CDE9122312A8EF
:1065800010F08CFBDFF8580BD0E90023CDE9102385
:1065900010A810F083FBDFF84C0BD0E90023CDE905
:1065A0000E230EA810F07AFBDFF83C0BD0E9002395
:1065B000CDE90C230CA810F071FBDFF8300BD0E90B
:1065C0000023CDE90A230AA810F068FBDFF8200BAE
:1065D000D0E90023CDE9082308A810F05FFBDFF81D
:1065E000140BD0E90023CDE9062306A810F056FBD2
:1065F000DFF8040BD0E90023CDE9042304A810F050
:106600004DFBDFF8F80AD0E90023CDE9022302A808
:1066100010F044FBDFF8E80AD0E90023CDE90023BD
:1066200000A810F03BFBDFF8B00A006850F0804093
:10663000DFF8A41A086015B000BD80B54FF44051D2
:10664000DFF8C00A08F090FFDFF8BC0A09F066F82E
:10665000DFF8B80A09F08EF8DFF8B40A007E0028E7
:1066600006D0002300220021002007F06FF816E07A
:10667000DFF89C0AD0F81D10DFF8940AD0F8190052
:1066800009F080F8DFF8880AD0F82110002009F01E
:1066900086F8DFF87C0AD0F8250012F0F1FE40F20F
:1066A000DC51002009F0E4F94FF48071082009F072
:1066B0002BF94FF4C061042009F026F94FF48061F2
:1066C0004FF4806009F02EF9002005F095F85FF096
:1066D000FF3012F0B2FDDFF8BC0D12F0ABFD01BDD2
:1066E000E0B509F05BF9022002904FF47A70019056
:1066F000DFF8200A0090DFF8203A9622DFF81C1A13
:10670000DFF8940D10F0EEFE07BD00B585B0DFF8A0
:10671000101A08609F218DF80C10012203A90EF0B9
:10672000B5FB022002904FF448700190DFF8F409A5
:106730000090DFF8F4396422DFF8F019DFF85C0D1F
:1067400010F0D0FE05B000BD2DE9F04389B002E0A5
:1067500032200CF071F909F0F9F80028F8D004A8FB
:10676000DFF8CC19102210F0F4FCDFF8A409D0F8FF
:10677000290008F0C6FF0590002507E0DFF8A00912
:1067800000680EF0F7FB32200CF056F901A9DFF893
:10679000900900680EF0D3FB0600632E00DB622632
:1067A0005FF0FF38002E00F01E83019807780198F3
:1067B000401C0190761E00220121022004F0FCFA08
:1067C0000400002C00F00F8300200090002341F211
:1067D00015025FF0FF31200004F0A0FE40F6B83053
:1067E00002900420009002AB41F205025FF0FF31FD
:1067F000200004F093FE40F6B83002900420009090
:1068000002AB41F206025FF0FF31200004F086FE89
:10681000102204A9200004F0E7FB804618F1010FC4
:1068200000F0DE8240F24E200090002E04D000984E
:1068300016F1A001081800905FF00009DFF8600C65
:106840000021017064220021DFF8600D12F01AFDB2
:10685000DFF84C0C0078002849D002285FD052D3D2
:10686000042874D067D3062800F089807CD30828D8
:1068700000F09D80C0F08F800A2800F0B380C0F047
:10688000A5800C2800F0C780C0F0B8800E2800F06A
:10689000DA80C0F0CC80102800F0F080C0F0E280F8
:1068A000122800F00681C0F0F580142800F019814C
:1068B000C0F00B81162800F02D81C0F01F81182830
:1068C00000F04081C0F032811A2800F06281C0F0EF
:1068D00045811C2800F07581C0F067811E2800F0FA
:1068E0008881C0F07A811F2800F09881A3E1DFF849
:1068F000B41BDFF8B80C11F0D3FC0500DFF8A00BD7
:106900000121017097E1DFF8A01BDFF8A00C11F066
:10691000C7FC0500DFF8880B022101708BE1DFF86E
:106920008C1BDFF8880C11F0BBFC0500DFF8700B46
:10693000032101707FE1DFF8241CDFF8700C11F0F7
:10694000AFFC0500DFF8580B0421017073E1009AD9
:10695000DFF80C1CDFF8540C11F0A2FC0500DFF886
:10696000400B0521017066E1ABA1DFF8400C11F08E
:1069700097FC0500DFF8280B062101705BE1DFF8CA
:10698000301CDFF8280C11F08BFC0500DFF8100B31
:10699000072101704FE1DFF81C1CDFF8100C11F02B
:1069A0007FFC0500DFF8F80A0821017043E1FDF7DC
:1069B00003FF0200DFF8001CDFF8F00B11F070FCA1
:1069C0000500DFF8DC0A0921017034E1DFF8E01B83
:1069D000DFF8D80B11F064FC0500DFF8C40A0A21C7
:1069E000017028E1DFF8D41BDFF8C00B11F058FC70
:1069F0000500DFF8AC0A0B2101701CE10222DFF870
:106A0000C01BDFF8A80B11F04BFC0500DFF8900A63
:106A10000C2101700FE1DFF8981BDFF8900B11F0EB
:106A20003FFC0500DFF8780A0D21017003E1DFF873
:106A3000941BDFF8780B11F033FC0500DFF8600AD7
:106A40000E210170F7E0DFF8C806027CDFF8701B4A
:106A5000DFF8580B11F024FC0500DFF8440A0F2181
:106A60000170E8E0DFF8481BDFF8400B11F018FC7C
:106A70000500DFF82C0A10210170DCE0DFF8481B6C
:106A8000DFF8280B11F00CFC0500DFF8140A1121C7
:106A90000170D0E0DFF8500C0268DFF8241BDFF84B
:106AA0000C0B11F0FDFB0500DFF8F4091221017059
:106AB000C1E0DFF8FC1ADFF8F40A11F0F1FB050081
:106AC000DFF8DC0913210170B5E0DFF8201CDFF8E6
:106AD000DC0A11F0E5FB0500DFF8C40914210170A0
:106AE000A9E03A00DFF8D81ADFF8C00A11F0D8FBA5
:106AF0000500DFF8AC09152101709CE0DFF8B01A41
:106B0000DFF8A80A11F0CCFB0500DFF89409162184
:106B1000017090E0DFF8D81BDFF8900A11F0C0FB9D
:106B20000500DFF87C091721017084E0DFF8641CA0
:106B3000DFF8780A11F0B4FB0500DFF864091821CA
:106B4000017078E0DFF8501CDFF8600A11F0A8FB54
:106B50000500DFF84C09192101706CE01022DFF804
:106B60003C1CDFF8480A12F0A2FC10252AA1DFF82D
:106B70003C0A281811F094FB4519002E04D0DFF8C8
:106B800020091A21017056E0DFF814091F21017055
:106B900051E0DFF81C1ADFF8140A11F081FB050040
:106BA000DFF8FC081B21017045E0DFF8F41BDFF87B
:106BB000FC0911F075FB0500DFF8E4081C210170E9
:106BC00039E0DFF8D01BDFF8E40911F069FB0500BC
:106BD000DFF8CC081D2101702DE0DFF8BC1BDFF8C9
:106BE000CC0911F05DFB0500DFF8B4081E2101702F
:106BF00021E032000199DFF8B40912F058FC3500A9
:106C000005A1DFF8A809281811F04AFB4519DFF89B
:106C100090081F2101700EE00D0A0000DFF8581CDB
:106C2000DFF8880911F03CFB05005FF00109DFF88F
:106C3000700800210170681E642813D201200BF037
:106C4000FBFE00232A00DFF86419200004F01FFD7A
:106C500080465FFA89F9B9F1000F03D118F1010FED
:106C60007FF4F0AD00260020009000256422002172
:106C7000DFF8380912F006FB5FF000095FF000084A
:106C800000230122DFF824092918200004F07CFCED
:106C9000012840F09A806D1C022DC0F28B80DFF835
:106CA0000C09281810F8020C0D2840F08380DFF83A
:106CB000FC08281810F8010C0A287BD1F6B2300025
:106CC000002802D0012810D06DE0112D0AD1112228
:106CD000DFF8E81BDFF8D40810F0CCFA002801D167
:106CE000012660E05FF0FF385DE0022D4CD1009896
:106CF000002846D00098652843DA64220021DFF896
:106D0000AC0812F0BFFA0023009ADFF8A0182000A8
:106D100004F03AFC0500009885422FD15FF001098C
:106D2000022D10D102228CA1DFF8800810F0A2FA07
:106D3000002808D1DFF8B0090068401CC0B2DFF8B5
:106D4000A81908602FE0082D15D100200390DFF866
:106D50005C080021017203AA9DA1DFF8500811F020
:106D600065FE012804D1DFF8340C039901601AE0B4
:106D70005FF0FF3817E05FF0FF3814E05FF0FF3896
:106D800011E05FF001090EE01022DFF8141CDFF8BB
:106D90001C0810F06FFA002805D100AA8FA1DFF8B7
:106DA000040C11F043FE002564220021DFF8FC07EB
:106DB00012F068FA642D0ADB6D1E2A00DFF8E81B6A
:106DC000DFF8E80712F073FB01E05FF0FF385FFACD
:106DD00089F9B9F1000F03D118F1010F7FF450AF19
:106DE000200004F0B4FC18F1010F7FF4C7AC4FF49D
:106DF000FA600BF021FEC9E410B504000422B34987
:106E000020000AF0FCFDA08A4FF4807188420CD16A
:106E100020000AF0F2FDDFF8241C0968002904D0E4
:106E20000021DFF8182C12689047002010BD80B5B3
:106E3000DFF80C1C0860DFF80C0C10F047FF01BDF8
:106E400010B582B002E032200BF0F6FD08F07EFDB6
:106E50000028F8D0DFF8EC0B11F0F2F9DFF8E00BC6
:106E600000680028F6D04FF480700AF0E7FE0400B6
:106E7000002CEFD020000AF0C0FD4FF48072DFF844
:106E8000C01B096812F013FBDFF8B40B002101608E
:106E90000094002340F2F462DFF8AC0B016800209C
:106EA0000AF096FED6E7E0B5DFF8901B0860494887
:106EB00008F027FC8549086000200090DFF88C3B33
:106EC00040F2F562002100200AF0D8FEDFF8740BD2
:106ED00012F08BFC022002904FF47A700190DFF8E0
:106EE000800C0090DFF87C3C6422DFF87C1CDFF82B
:106EF000D00C10F0F7FA07BD80B5C0B20300002B2C
:106F000004D0012B0BD0FF2B06D01AE00022002169
:106F1000002000F065F81EE0FFF7CBFA1BE0487890
:106F2000002801D0012200E000220878002801D0CA
:106F3000012000E000201100C9B2C0B2FEF7D2FF6C
:106F400009E0DFF8803C1B68002B04D0C0B2DFF8FA
:106F5000743C1B68984701BD4F4B00002DE9F04180
:106F600082B00400A08A083880B2F9282DD220000F
:106F70000AF043FD05002878002826D1A08A061FC4
:106F8000775900A810F09EF85FF0000806E018F8A6
:106F9000051000A810F09AF818F10108B045F6DBCA
:106FA00000A810F0ADF80098B8420ED10422DFF826
:106FB000181C20000AF023FD6878DFF8101C087008
:106FC000EA78291DA878FFF797FF0020BDE8F68131
:106FD000256C78007900A8C00400FA05256400003B
:106FE0002DE9FC41070088461400F92C01DB002044
:106FF0004AE014F108000AF021FE0500002D42D0FD
:1070000028000AF0FAFC060002203070DFF8BC0B02
:1070100000787070B770F470B8F1000F06D0002CD3
:1070200004D022004146301D12F041FA01A810F0B0
:1070300049F8002704E0B95D01A810F047F87F1C6B
:10704000201D8742F7DB01A810F05AF8A01901991A
:107050000171A0190199C1F307214171A01901998A
:10706000C1F307418171A0190199090EC171009501
:1070700000234FF4DE62DFF8500B016800200AF0B5
:10708000A7FD012000E00020BDE8F681405500107A
:1070900080B5DFF8301B08601D48D0F819001C4986
:1070A000D1F81D105FF0FF325140084308F029FB72
:1070B000DFF8141B086000200090DFF8143B4FF449
:1070C000DE62002100200AF0D9FD01BD4C55001000
:1070D0000CED00E0CC090010C4C00F40D4950100B5
:1070E000DC950100E4950100EC950100F4950100A8
:1070F000FC950100049601000C9601001496010015
:107100001C960100000008202C8E0100B24B0010DC
:10711000A04B0010182E001045F800002496010026
:1071200048550010D039001049670000D89401007C
:10713000E092010010B503000800DBB2190000293D
:107140006AD0022975D0032921D0132900F01981B2
:10715000142900F02281152900F02981162900F058
:107160003181172900F03981182900F04181252942
:1071700000F08980272900F09D80FC2979D0FD2925
:1071800050D0FE2961D0FF2900F08C803BE10E2217
:10719000DFF8401AFD2000F08BF90122DFF8381AE1
:1071A000FC2000F085F90122DFF8301A252000F0DC
:1071B0007FF90622DFF8281A132000F079F901225E
:1071C000DFF8201A142000F073F90422DFF8181AEF
:1071D000152000F06DF90422DFF8101A162000F0D7
:1071E00067F90422DFF8081A172000F061F9042279
:1071F000DFF8001A182000F05BF9DFF8FC090068DE
:10720000002803D0DFF8F009006880470022002141
:10721000002000F04DF902E100220021002000F0E2
:1072200047F9FCE00E22DFF8AC19FD2000F040F930
:10723000F5E000220021022000F03AF94FF47A70C4
:107240000BF0FAFBFFF735F9E9E010220100DFF857
:10725000AC0912F02CF90BF0D2F800220021022028
:1072600000F026F94FF47A700BF0E6FBFFF721F9F6
:10727000D5E0DFF88819007808740022002100208A
:1072800000F016F9CBE00078002801D0012000E0E2
:107290000020DFF86819487400220021002000F067
:1072A00007F9BCE00BF0ABF800220021002000F051
:1072B000FFF8B4E0042A40F0B280DFF844190978FE
:1072C000491CDFF83C29117012F048F90400002134
:1072D000DFF830090CF01CF80021DFF828090CF069
:1072E000F3F8DFF820090BF0E9FFDFF818090BF0DD
:1072F000FFFF22680021DFF80C090CF01FF862681C
:107300000121DFF800090CF019F8A2680221DFF86A
:10731000F4080CF013F82069421C0621DFF8E40899
:107320000CF00CF8606900F26C720721DFF8D408E9
:107330000CF004F8E2680421DFF8C8080BF0FEFF47
:10734000A2690321DFF8BC080BF0F8FFE069421CDA
:107350000521DFF8B0080BF0F1FF0121DFF8A408E8
:107360000BF0D6FFDFF8A0280021DFF898080CF01A
:10737000D3F80BF0DDF900220021002000F098F88E
:107380004DE006220100DFF8580812F090F80022C4
:107390000021002000F08CF841E0DFF86018007850
:1073A000087600220021002000F082F837E0DFF8A4
:1073B0004C180068C1F81D0000220021002000F0D8
:1073C00077F82CE0DFF834180068C1F821000022BB
:1073D0000021002000F06CF821E0DFF820180068A0
:1073E000C1F8290000220021002000F061F816E019
:1073F000DFF808180068C1F81900002200210020F9
:1074000000F056F80BE0DFF804180968002906D0F0
:1074100001001800C0B2DFF8F4371B68984710BDB0
:107420002DE9F04182B00400A08A083880B2F92822
:107430002DD220000AF0E1FA05002878002826D194
:10744000A08A061F775900A80FF03CFE5FF00008E5
:1074500006E018F8051000A80FF038FE18F1010832
:10746000B045F6DB00A80FF04BFE0098B8420ED1F5
:107470000422DFF89C1720000AF0C1FA6878DFF8D0
:1074800094170870EA78291DA878FFF753FE0020AA
:10749000BDE8F68101400200984F0010BC4F00107B
:1074A000155600102C890100F0920100508F010048
:1074B0002DE9FC41070088461400F92C01DB00206F
:1074C0004AE014F108000AF0B9FB0500002D42D093
:1074D00028000AF092FA060002203070DFF8340724
:1074E00000787070B770F470B8F1000F06D0002CFF
:1074F00004D022004146301D11F0D9FF01A80FF041
:10750000E1FD002704E0B95D01A80FF0DFFD7F1C5D
:10751000201D8742F7DB01A80FF0F2FDA0190199A9
:107520000171A0190199C1F307214171A0190199B5
:10753000C1F307418171A0190199090EC17100952C
:10754000002340F2F162DFF8C806016800200AF06B
:107550003FFB012000E00020BDE8F6815C790100DE
:10756000B48D010080B5DFF8A4261060DFF888062E
:107570000160DFF88806D0F81900DFF88016D1F82E
:107580001D105FF0FF325140084308F0BAF8DFF8F1
:107590008016086000200090DFF87C3640F2F1622F
:1075A000002100200AF06AFB01BD00005C4D0010C4
:1075B000648F0100B47D01002C960100EC7D010078
:1075C00034960100DC7B0100187C010070B50500D9
:1075D0000C00160000220021002000F0E3F8EDB2BC
:1075E0002800002806D0012805D0C02865D0FF2833
:1075F00068D06AE076E0042E74D1DFF804060078E3
:10760000401CDFF8FC150870200011F0A7FF0400F3
:107610000021DFF8F0050BF07BFE0021DFF8E40528
:107620000BF052FFDFF8DC050BF048FEDFF8D40565
:107630000BF05EFE22680021DFF8C8050BF07EFE2D
:1076400062680121DFF8BC050BF078FEA268022118
:10765000DFF8B0050BF072FE2069421C0621DFF84E
:10766000A4050BF06BFE606900F26C720721DFF875
:1076700094050BF063FEE2680421DFF888050BF047
:107680005DFEA2690321DFF87C050BF057FEE0697F
:10769000421C0521DFF86C050BF050FE0121DFF8DC
:1076A00064050BF035FEDFF860250021DFF8540596
:1076B0000BF032FF0BF03CF814E0DFF840052178C6
:1076C00001740FE00AF09BFE0CE0DFF85005006843
:1076D000002807D0320021002800C0B2DFF83C3576
:1076E0001B68984770BD000044550010247E0100BF
:1076F0009C7901002DE9F04182B00400A08A08388D
:1077000080B2F92842D220000AF077F905002878E3
:1077100000283BD1A08A071F7E5900A80FF0D2FC99
:107720005FF0000806E018F8051000A80FF0CEFC86
:1077300018F10108B845F6DB002706E0DFF8BC04C5
:10774000395C00A80FF0C2FC7F1C102FF6DB00276D
:1077500005E09248395C00A80FF0B8FC7F1C042FAC
:10776000F7DB00A80FF0CCFC0098B0420ED1042249
:10777000DFF8AC1420000AF042F96878DFF8A414AE
:107780000870EA78291DA878FFF720FF0020BDE8DF
:10779000F68100008C8301005C85010030540010EC
:1077A000DC7901002DE9FC41070088461400F92C22
:1077B00001DB00205DE014F108000AF03FFA05004B
:1077C000002D55D028000AF018F90600022030706C
:1077D000DFF8500400787070B770F470B8F1000FE3
:1077E00006D0002C04D022004146301D11F05FFE6F
:1077F00001A80FF067FC002704E0B95D01A80FF0B5
:1078000065FC7F1C201D8742F7DB002706E0DFF8C0
:10781000EC03395C01A80FF059FC7F1C102FF6DB3C
:10782000002705E05D48395C01A80FF04FFC7F1C84
:10783000042FF7DB01A80FF063FCA0190199017177
:10784000A0190199C1F307214171A0190199C1F350
:1078500007418171A0190199090EC171009500239A
:1078600040F2F362DFF8B803016800200AF0B0F9D3
:107870000120BDE8F6810000CC8D010080B5DFF865
:107880009C130860DFF87403D0F81900DFF86C135C
:10789000D1F81D105FF0FF325140084307F031FF6F
:1078A000DFF87C13086000200090DFF87C3340F2A2
:1078B000F362002100200AF0E1F901BD788F010098
:1078C00010B5C0B20300002B0AD05A2B02D0FE2BF9
:1078D00009D059E000220021A52000F047F95BE023
:1078E000FEF7E7FD58E0042A56D1C5480078401C51
:1078F000C34A1070080011F031FE04000021C14895
:107900000BF006FD0021BF480BF0DEFDBD480BF07B
:10791000D5FCBC480BF0ECFC22680021B9480BF008
:107920000DFD62680121B7480BF008FDA268022135
:10793000B4480BF003FD2069421C0621B1480BF04E
:10794000FDFC606900F26C720721AE480BF0F6FC9A
:10795000E2680421AB480BF0F1FCA2690321A948BD
