:100000000004001091850100A14E0100A94E0100DD
:0C001000B14E0100B94E0100C14E0100CC
:10001C00FAECF7EF00000000000000000000000008
:10002C00C94E0100D14E0100000000002961010001
:10003C0051390100D94E0100E14E0100E94E010099
:10004C00F14E0100F94E0100014F0100094F010072
:10005C00114F0100194F0100214F0100294F0100E0
:10006C00314F0100394F0100414F0100494F010050
:10007C00514F0100594F0100614F0100694F0100C0
:10008C00714F0100794F0100AD5B0000814F010001
:10009C00894F0100914F0100994F01005BDF000077
:1000AC00A14F010047630000A94F0100B14F0100AF
:1000BC00B94F0100C14F0100C94F0100D14F0100E0
:0402FC0021436587AE
:1003000031323334350000000000000000000000EE
:1003100000000022C7A50003005C00A8C000FFFF8A
:10032000FF7900A8C00100A8C07900A8C00228F188
:10033000293230313420C0E2F2EECFE0F0EA0000A2
:100340000000002838313229D2E5EB2ECFEEE4E46C
:10035000E5F0E6EAE80000000F5A6480250000009E
:1003600000000100030000010001007800000017F8
:100370003B180014003C00320064009600C800FAEC
:10038000002C015E019001C201F401260258028A8C
:1003900002BC02EE02200352038403B603E8031AF0
:0C03A000044C047E04B004F401A55A00D3
:10200000BFF34F8F9248006810F4E0609149084395
:102010008F490860BFF34F8FFEE78F4909688E4AEA
:102020001268521A8242FAD3704780B58B488C49A5
:10203000B1F9001089B2016088480068000487493E
:102040000860864800684FF6FF71084383490860BE
:10205000824802680221834811F0D2F901BD80B59F
:102060008149097800291CD17F4901220A707F49E2
:10207000086004227D4928200CF0B8FE7C497B488A
:1020800000680CF027FD00280BD079480078113843
:1020900003D0401E022801D903E002E07548012167
:1020A000017001BD80B57449097800290CD17249CD
:1020B00001220A700B220100704817F064F90B220C
:1020C0006E4903200CF092FE01BD80B50CF063FA5E
:1020D0000022002102200CF089FE694801210170D4
:1020E00001BD684801210170704780B56648012133
:1020F0000170012010F0ADF801BD644801210170AC
:10210000704710B50400624814F02FF95F480021B1
:10211000017021005E4816F00BFD5D4814F0E7F8F1
:1021200010BD5A48007870475A4801210170704725
:1021300010B50400584814F018F9564800210170F1
:102140002100554816F0F4FC534814F0D0F810BDA7
:10215000504800787047514801210170704710B510
:1021600004004F4814F001F94C480021017021008F
:102170004B4816F0DDFC4A4814F0B9F810BD47484A
:102180000078704780B5464814F0EFF843480021C6
:10219000017001BD80B5424814F0E7F83F480121C5
:1021A000017001BD3F4801210170704710B5040066
:1021B0003D4814F0DAF83B480021017021003A480C
:1021C00016F0B6FC384814F092F810BD3548007887
:1021D000704780B5344814F0C8F8324801210170C6
:1021E00001BD3249087070473149097808433149C7
:1021F00008707047304909780843304908707047C3
:102200002F4801210170704710B504002D4814F0CB
:10221000ACF82B480021017021002A4816F088FCF8
:10222000284814F064F810BD25480078704780B540
:10223000244814F09AF822480021017001BD80B5AD
:10224000204814F092F81E480121017001BD0000E1
:102250000CED00E00400FA0508400040A85500100D
:10226000F4550010004002402A560010AC550010F2
:102270002C5600102B5600102D5600103C54001008
:102280002F56001032560010B00A0010B20A00108B
:1022900054530010B30A001068530010B40A001021
:1022A0007C530010B50A00109053001033560010F4
:1022B0003A560010305600103B56001031560010B0
:1022C000B70A0010A453001070B594B00020049019
:1022D00002F0D6FC012002F0AEFC0400022002F065
:1022E000AAFC0500DFF8001C200015F053FFDFF802
:1022F000FC1B280015F04EFF0021022002F0A8FC74
:102300000AF0BEFBDFF8E80B0AF019FC04F022F932
:10231000DFF8DC0B04F001FDDFF8D41ADFF8D40A93
:102320000BF0EEFF0CF07AFA0CF0CDFB0CF0F2FCA7
:10233000DFF8C40A05F074FBDFF8C00A05F0D5F930
:10234000DFF8BC1ADFF8BC0A05F044F803F050FFD0
:10235000DFF8A00B04F0D6FD0BF077FDDFF8980B4B
:102360000FF05BFEDFF8940B03F0A4FC03F0D8F948
:10237000DFF88C1B002003F048FADFF8881B0120EF
:1023800003F043FA002240F6B831012003F045FA89
:10239000DFF8741B022003F038FADFF8701B00200E
:1023A00003F04EFADFF8681B012003F049FADFF86A
:1023B000641B032003F044FADFF8341E042003F00A
:1023C0003FFADFF8541B052003F03AFADFF84C1B04
:1023D000062003F035FA0021002002F0ABFF0022B6
:1023E000DFF83C1BDFF83C0B13F076FF0022DFF830
:1023F000381BDFF8380B13F06FFF0022DFF8301BBB
:10240000DFF8300B13F068FF0022DFF82C1BDFF839
:102410002C0B13F061FF0022DFF8241BDFF8240BE4
:1024200013F05AFF0022DFF8200B017CDFF81C0BB1
:102430000CF00AFFDFF8180B0078002805D0002206
:102440000021DFF8100B0CF0FFFEDFF80C0B00781A
:10245000002805D000220021DFF8000B0CF0F4FE6C
:102460000021DFF8FC0A10F0DDFFDFF8F81A8842DF
:1024700013D0DFF8F41A200015F08CFEDFF8682A7C
:10248000DFF8E81A280015F085FE0321022002F08B
:10249000DFFBDFF8E40D002101703622DFF8D01AEF
:1024A00052200CF0A3FC0422DFF8C81A34200CF0F0
:1024B0009DFC0222DFF8C01A45200CF097FC022296
:1024C000DFF8B81A38200CF091FC0BF030F900203E
:1024D00003F098FA002003F07DFA00220021AA20E0
:1024E0000CF084FC4FF4FA6010F01AFA4FF4FA6022
:1024F000FFF78AFE1021DFF8880A14F07BFD15F043
:1025000087FD13F0A2FA0DF093F9002801D0012005
:1025100000E00020DFF86C1A0870DFF8680A007825
:1025200000280CD1DFF8600A007800280BD11220B7
:102530000CF00FFBDFF8500A0121017003E0DFF817
:10254000480A00210170C8200CF08DFB00280CD136
:10255000C8200CF0FBF8002807D1C8200CF06CFA5A
:10256000002802D1642010F0DBF9DFF8DC09407CA0
:10257000002820D0FFF7D5FD00281CD002F0F0F88D
:102580000590042205A9FE2005F036FA042205A9CB
:10259000FF200CF02BFC14F017FA052148433C21D6
:1025A00090FBF1F201FB120000F22C104FF47A7153
:1025B0004843FFF7A6FD03F00BFC0FF050FDDFF8DA
:1025C0002C0D0078002807D0DFF8200D00210170C5
:1025D000FFF72BFDFFF7A8FDFFF7BAFD002813D08A
:1025E0004FF4FA50FFF7A4FDDFF89009B0F90000AE
:1025F0004FF47A71884202DB40F2E73002E00028B3
:1026000000D5002002F03EFD0BF03BFADFF8E00CB5
:102610000078002812D0022856D03DD3042800F0BC
:10262000A180C0F07F80062800F0F180C0F0078113
:10263000082800F05081C0F02F819FE1FFF79FFD37
:10264000002800F09B81DFF8000990F86000002866
:1026500005D0DFF8A00C0078002840F08F81DFF86B
:10266000980C0078002808D04FF4FA70FFF777FD37
:10267000DFF87C0C0121017080E1DFF8340C007878
:10268000002800F07B814FF4FA70FFF768FDDFF857
:10269000600C0621017071E1FFF771FD002800F068
:1026A0006D81DFF8540C0078002808D0DFF84C0C5E
:1026B000FFF755FDDFF8380C022101705EE1DFF80D
:1026C000300C0021017059E1DFF87C0890F86000BF
:1026D00000280BD0DFF81C0C0078002806D0FFF78C
:1026E00059FDDFF80C0C0021017047E1DFF8080C00
:1026F0000078002808D142F21070FFF730FDDFF8B3
:10270000F00B0321017039E1FFF739FD002800F0DB
:102710003581FFF737FD00220021DFF8E40B0CF0D4
:1027200093FD2BE1DFF8880B0078002808D042F2F7
:102730001070FFF714FDDFF8B80B042101701DE1E4
:10274000FFF71DFD002800F0198100220021DFF8AD
:10275000B40B0CF079FDFFF71DFDDFF8940B0021A1
:1027600001700BE1DFF8480B007800283DD1DFF85D
:102770000C080088401CDFF804180880DFF86C0B98
:1027800001210170DFF8C00790F8690000280BD024
:102790000122DFF8741B12200CF028FB0122DFF865
:1027A000681B122005F028F9DFF89C0790F86A00F2
:1027B00000280BD00122DFF8501B11200CF016FB73
:1027C0000122DFF8441B112005F016F90222DFF880
:1027D000AC1738200CF00AFB4FF4FA70FFF7BFFC7F
:1027E000DFF80C0B00210170C8E0FFF7C8FC0028DF
:1027F00000F0C480FFF7CEFCDFF8F40A002101707E
:1028000000220021DFF8DC0D0CF01EFDB6E0FFF722
:10281000B6FC002800F0B280DFF8940A00780028A7
:1028200008D044F62060FFF79AFCDFF8C40A0521BF
:102830000170A3E0DFF8B80A002101709EE0DFF824
:10284000080790F8600000280BD0DFF8A80A00788D
:10285000002806D0FFF79EFCDFF8940A00210170E3
:102860008CE0DFF84C0A0078002808D142F21070A2
:10287000FFF775FCDFF8780A072101707EE0FFF7AB
:102880007EFC00287AD0FFF77DFC00220021DFF8D3
:102890007C0A0CF0D9FC71E0DFF85C0A00780028B3
:1028A0000ED000220021DFF8680A0CF0CDFC42F2C5
:1028B0001070FFF754FCDFF8380A082101705DE062
:1028C000FFF75DFC002859D0FFF764FCDFF8200A11
:1028D0000021017052E0DFF8200A007800283DD185
:1028E000DFF898060088401EDFF890160880DFF8B1
:1028F000FC0901210170DFF8500690F869000028FA
:102900000BD00122DFF80C1A11200CF06FFA012213
:10291000DFF8001A112005F06FF8DFF82C0690F8A8
:102920006A0000280BD00122DFF8DC1912200CF01D
:102930005DFA0122DFF8D019122005F05DF80222BD
:10294000DFF8381638200CF051FA41F28830FFF7E2
:1029500006FCDFF89C09002101700FE0FFF70FFC77
:1029600000280BD0FFF716FCDFF884090021017066
:1029700000220021DFF8A0090CF066FCDFF89C09BA
:102980000078002809D002282BD019D3042860D061
:1029900046D3052800F08480A7E0012002F084FFE0
:1029A0000BF068FA002804D1FFF710FC002800F0B3
:1029B0009C80FFF70EFCDFF864090121017094E0B0
:1029C000FFF704FC002800F09080002002F06CFF6C
:1029D000DFF8E80D00210170DFF8400902210170E5
:1029E00083E0DFF810090078002808D0DFF80C0930
:1029F000FFF7DCFBDFF824090321017075E0DFF845
:102A0000EC0B0078002870D0012002F04DFF4FF44D
:102A10009670FFF7CBFBDFF804090421017064E036
:102A2000DFF8D0080078002804D1DFF8F008022190
:102A300001705AE0FFF7CAFB002856D0DFF8BC0847
:102A4000FFF7B4FB00220021DFF8A40B0CF0FCFB25
:102A50004BE0DFF8A008007800280CD1DFF85C0D0F
:102A600001210170DFF88C0BFFF7A0FBDFF8AC0849
:102A70000521017039E0002002F016FF13F0A4FFD9
:102A8000052190FBF1F201FB1200401C4FF49671FE
:102A90004843FFF78BFBDFF884080121017024E035
:102AA000DFF8480B0078002803D0FFF78FFB0028E1
:102AB0001BD0FFF78BFB002811D04FF47A70FFF783
:102AC00075FB002002F0F0FEDFF8F00C0021017031
:102AD00000220021DFF8200B0CF0B6FB01E0FFF72D
:102AE00078FBDFF8380801210170DFF88C070078E7
:102AF000032806D0DFF8800700780B2801D00AF001
:102B000040F8DFF874070078002826D0012838D074
:102B1000022867D0032800F0D180042800F0D18477
:102B2000062800F0E784072800F06A86082800F0ED
:102B30001D87092800F03F870A2800F06B870B28C3
:102B400000F0BA870C2801F021800D2801F04380A5
:102B50000E2801F0978001F0C6B80021DFF80004CC
:102B600010F060FCDFF8FC13884241F0BC804FF4A9
:102B70007A70FFF749FBDFF800070121017001F0CF
:102B8000B2B8FFF751FB002801F0AD80002002F041
:102B900039FF002002F01EFFDFF88C0D00210170CC
:102BA000DFF81C0C00210170DFF8180C0021016017
:102BB000DFF8140C00210170DFF8100C0021017007
:102BC000DFF80C0C00210170DFF8080C0021017007
:102BD000DFF8300E00210170DFF89C060221017041
:102BE00001F081B8FFF720FB002801F07C80DFF8BE
:102BF000140E0078012806D002282ED0032817D002
:102C000004283DD050E0012002F0E4FE41F2883279
:102C10004FF47A71DFF8C00B09F094FFDFF8BC1BAA
:102C2000280015F0B7FA0321022002F011F83BE06A
:102C3000002002F0CFFE40F6B8324FF4FA61DFF820
:102C4000A00B09F07FFFDFF89C1B280015F0A2FA0B
:102C50000321022001F0FCFF26E0002002F0BAFE72
:102C600000224FF4FA61DFF8800B09F06BFF9F49F7
:102C7000280015F08FFA0021022001F0E9FF13E08F
:102C8000012002F0A7FE40F6B8324FF4FA61DFF8F7
:102C90005C0B09F057FFDFF8581B280015F07AFA93
:102CA0000321022001F0D4FFDFF8480B202101703E
:102CB000DFF8C4050321017001F015B80021A84810
:102CC00010F0B0FBA749884219D000220021DFF89C
:102CD000280B0CF0B9FADFF8241B200015F05AFA83
:102CE000DFF8481C280015F055FA0021022001F0F9
:102CF000AFFF4FF4FA600FF013FEFFF781F996482B
:102D00000078002819D000220021DFF8240C0CF0F4
:102D10009BFADFF8201C200015F03CFADFF80C1CB1
:102D2000280015F037FA0021022001F091FF4FF43E
:102D3000FA600FF0F5FDFFF763F9FFF775FA002869
:102D40006CD0DFF8B00A007820285DD1DFF8A40A43
:102D50003A2101704FF42F70FFF756FA01F000FD91
:102D6000069006A816F066FB0600706900F26C700B
:102D700003903069401C0290F068019070680090E8
:102D8000DFF8700A0378B268DFF8AC1B200015F09A
:102D900001FA6D4890F86D00B16888420BDBB068AD
:102DA000694991F86D1088421CD17068664991F8A4
:102DB0006E10884216DBB068634991F86F10884244
:102DC0000BDBB068604991F86F1088420AD15E4809
:102DD00090F870007168884204DBDFF8980D0121DB
:102DE00001701BE0DFF88C0D0021017016E000BFC0
:102DF00031C30000A36C0000153D00003D3E000003
:102E00001940000065410000DFF8E8092021017049
:102E10002020A0704FF49670FFF7F6F9DFF8D40980
:102E200000783A2840F05F87DFF8A409007800288E
:102E300012D0DFF8D41B280015F0ACF900210220D5
:102E400001F006FF4FF4FA60FFF7DEF9DFF828041F
:102E50000121017000F047BFDFF8B00B00780028B7
:102E600015D1012002F0B6FDDFF8A41B280015F0F3
:102E700091F90121022001F0EBFE4FF4FA60FFF717
:102E8000C3F9DFF8F4030421017000F02CBF2E48D1
:102E900090F86000002814D0DFF8D80C0078DFF834
:102EA000581409780840DFF84417097891F00101B7
:102EB000C0B2084205D0DFF834070121017000F0EC
:102EC00012BFDFF834040078DFF82017097891F09A
:102ED00001010843C0B2002858D1DFF810070021D3
:102EE000017000F000BF00BFCE4B0010389201000F
:102EF000E7E0000069440000A52000005F2000001A
:102F0000CB200000E3200000EB200000E9210000BE
:102F1000F5210000E32100007BD800009DD90000CE
:102F2000FB200000545300102921000068530010BA
:102F3000572100007C530010A52100009053001081
:102F400001220000A4530010A04B0010F48C0100DB
:102F500027560010407F010028560010C08601004F
:102F600000400240DDEEAA55C08E0100D48E010063
:102F7000134C00100D4C0010114C0010F4550010B3
:102F80002054001029560010B90A0010DFF85C0D1B
:102F900090F86000002804D0DFF8200800780028AE
:102FA00027D0DFF8D00B0078D34909780840DFF844
:102FB0003C1D91F85F1008421BD000220021242004
:102FC0000BF014FFDFF8B41B200015F0E3F8DFF876
:102FD000201D280015F0DEF80021022001F038FE47
:102FE00040F6B830FFF710F9A3480821017000F04F
:102FF0007ABEDFF834090078DFF8781B09780842D8
:1030000004D09D480621017000F06DBEDFF8B807BE
:103010000078DFF8601B09780840B7490978084252
:1030200031D0DFF8C80C90F86000002804D0DFF839
:103030008C070078002826D0DFF8B00C90F86800E4
:10304000002809D1DFF884070078132804D0DFF8BE
:103050007C070078122816D1DFF8201B200015F01D
:1030600099F8DFF81C1B280015F094F800210220C5
:1030700001F0EEFD40F6B830FFF7C6F87E480821B3
:10308000017000F030BEDFF8FC0A007800282ED076
:10309000DFF8580C90F86000002804D0DFF81C0717
:1030A0000078002823D0DFF8CC0A0078924909780C
:1030B00008421CD00422DFF80C172A200BF096FEE1
:1030C000DFF8B81A200015F065F8DFF8281C280092
:1030D00015F060F80021022001F0BAFD40F6B8308A
:1030E000FFF792F864480821017000F0FCBDDFF89A
:1030F000E406007800282DD0DFF8F00B90F860008F
:10310000002804D0DFF8B4060078002822D0DFF8C9
:10311000640A00787849097808421BD0002200210F
:1031200014200BF063FEDFF8541A200015F032F87B
:10313000DFF8541A280015F02DF80021022001F0C4
:1031400087FD40F6B830FFF75FF84B480821017063
:1031500000F0C9BDDFF868060078DFF86C16097862
:1031600091F00101084220D0DFF8540600210170DF
:1031700000220021DFF8800B0CF066F8DFF87C1BE2
:10318000200015F007F8DFF8781B280015F002F88A
:103190000021022001F05CFD40F6B830FFF734F862
:1031A00035480221017000F09EBDDFF82806007846
:1031B000DFF8D01909780843DFF86C17097808435D
:1031C000C0B2002800F0DE80012002F003FCDFF82E
:1031D00004060078DFF8AC1909780843C0B200286B
:1031E00008D0002200212B200BF000FEA8E000BF39
:1031F00073D70000DFF87C090078002810D1002286
:103200000021DFF8000B0CF01FF8DFF8FC1A20009B
:1032100014F0C0FFDFF8F41A280014F0BBFF8FE0B1
:10322000DFF8A4050078002828D0DFF8A005007892
:10323000142823D100220021DFF8D40A0CF004F86E
:103240002D48007800280BD000220021DFF8B80BB1
:103250000BF0FAFF0422DFF86C153B200BF0C6FDE3
:10326000DFF8A81B200014F095FFDFF8A41B28004E
:1032700014F090FF64E000BFB80A00101E48007808
:10328000002817D100220021DFF8880B0BF0DCFFAB
:10329000DFF834050078002804D0DFF87C1B20001C
:1032A00014F078FFDFF8741B280014F073FF47E078
:1032B00031560010DFF8340A90F8600000282FD053
:1032C000DFF8F804007800282AD100220021DFF876
:1032D000500B0BF0B9FFDFF84C1B200014F05AFF25
:1032E000DFF8441B280014F055FF29E0B10A001054
:1032F0003D560010335600103056001020BF02001B
:10330000BC7D010078840100094C0010B87B0100ED
:10331000A08401000A4C0010BC740100B60A001021
:1033200000220021DFF8040B0BF08EFFDFF8001BFA
:10333000200014F02FFFDFF8FC1A280014F02AFFF9
:103340000021022001F084FC40F6B830FEF75CFF5B
:10335000DFF8300800210170DFF8780400210170E7
:10336000DFF8C40500210170DFF85404002101706A
:10337000DFF8540400210170DFF8B80D012101705D
:1033800000F0B1BCDFF8640C007800281AD0DFF838
:103390005C0C00210170DFF8582C93A1280014F078
:1033A000F9FEDFF8500C0178022001F051FCDFF843
:1033B000480C0088FEF728FFDFF8780D0221017025
:1033C00000F091BCDFF8AC07007800280ED1DFF8E0
:1033D00034060078012809D0DFF8280601210170A1
:1033E000DFF8500D0221017000F07DBCDFF884078A
:1033F0000078002819D0DFF8F40890F86000002861
:1034000013D0DFF8340A007800280ED0DFF8F40576
:103410000078042809D0DFF8EC0504210170DFF8FA
:10342000140D0221017000F05EBCDFF8480700783F
:1034300000281ED0DFF8B40890F86000002804D0FF
:10344000DFF8F4090078002813D1DFF8B00B00781A
:1034500000280ED1DFF8AC050078022809D0DFF88B
:10346000A40502210170DFF8CC0C0221017000F0EC
:103470003ABCDFF800070078002800F03484DFF859
:103480006C0890F86000002805D0DFF8AC090078DF
:10349000002840F02884DFF8640B0078002800F052
:1034A0002284DFF860050078032800F01C84DFF830
:1034B000540503210170DFF87C0C0221017000F03B
:1034C00012BCDFF848050078002800F00C84DFF813
:1034D000301B280014F05EFE0021022001F0B8FB32
:1034E0004FF47A70FEF790FEDFF8480C012101706E
:1034F00000F0F9BBDFF80C0B0178DFF8080BD0F80F
:1035000003000BF0EFF800281CD000220021DFF8A8
:10351000F80A0BF099FEDFF8F41A200014F03AFED6
:10352000DFF8EC1A280014F035FE0021022001F02B
:103530008FFB4FF47A60FEF767FEDFF8F80B01218E
:103540000170D0E3DFF8BC0A00780F2879D1DFF8EA
:10355000B40AD0F80300DFF89417B1F871104FF4F3
:10356000616202FB010601F0FBF8B04246D2DFF8CF
:103570007C0790F8600000280DD090480078002863
:1035800009D1DFF8A018200014F004FEDFF8A40B26
:103590000121017017E0DFF8640A0078002809D1E2
:1035A000DFF8701A200014F0F5FDDFF8880B012118
:1035B000017008E0DFF8C415200014F0EBFDDFF81F
:1035C000740B0821017040F6B830FEF71DFEDFF8DD
:1035D000681B280014F0DEFD0121022001F038FBF9
:1035E00081E300BFC47A0100257300003856001043
:1035F000C884010080A90300F0840100002200219A
:10360000DFF8380B0BF020FE0B22DFF8F8193F2013
:103610000BF0ECFBDFF8281B200014F0BBFDDFF8FB
:10362000241B280014F0B6FD0021022001F010FB3D
:103630004FF47A60FEF7E8FDDFF8F80A0121017027
:1036400051E3DFF8C0090178DFF8B809D0F80300CA
:103650000BF0EDF806000020019001A8009004ABEB
:103660000BAADFF8A0193000C0B20EF089FEDFF817
:10367000D81A0870DFF8740690F86000002803D0AC
:103680004E48007800284DD0DFF8700900780028F7
:1036900048D00498002845D10022002127200BF0B3
:1036A000A5FBF6B2002E25D0DFF858090178DFF827
:1036B0005409D0F803000BF0D9F80790DFF844095B
:1036C00000788DF82000DFF83C09B0F80100ADF873
:1036D0002100DFF83009D0F80300CDF82300DFF82F
:1036E0002409D0F80700CDF827000F2207A93720BA
:1036F0000BF07CFBDFF88414200014F04BFD019AE2
:10370000DFF8481A280014F045FD0021022001F0DE
:103710009FFA40F6B830FEF777FDDFF8180A082167
:103720000170E0E20498002817D1DFF8241A200085
:1037300014F030FD019ADFF81C1A280014F02AFD5D
:103740000021022001F084FA41F28830FEF75CFD8E
:10375000DFF8E00901210170C5E2DFF8A008007878
:10376000002819D0DFF89C08D0F80300DFF8E8192A
:103770000968884210D0DFF88C08D0F80300DFF821
:10378000D81908600498029000F0EAFF039008221C
:1037900002A918200BF02AFBDFF8C019280014F04A
:1037A000F9FC0021022001F053FA4FF4FA60FEF711
:1037B0002BFDDFF880090721017094E239560010D3
:1037C0002A560010AC5500102B5600102C56001035
:1037D0002F56001032560010EC930100E4860100D1
:1037E000F89301006488010048920100589201009A
:1037F00084880100BA0A0010A4880100E88E010044
:10380000E048007800284BD0DFF8E00490F8600032
:10381000002804D0DFF84809007800281BD00422D3
:10382000DFF82C1C2A200BF0E1FAD449200014F018
:10383000B1FCDFF8C014280014F0ACFC0021022019
:1038400001F006FA40F6B830FEF7DEFCDFF8E408D7
:103850000821017047E2002200212B200BF0C6FA5C
:1038600000220021DFF8B8050BF0EEFCDFF8B415FC
:10387000200014F08FFCDFF8B015280014F08AFC4B
:103880000021022001F0E4F940F6B830FEF7BCFC5C
:10389000BC4800210170DFF89C080121017022E280
:1038A000DFF848070078002819D0DFF8400700212A
:1038B0000170DFF83C27B0A1280014F06BFCDFF8A2
:1038C00034070178022001F0C3F9DFF82C070088E3
:1038D000FEF79AFCDFF85C080121017003E2FEF7B5
:1038E000A3FC002800F0FF81DFF85C0800780028C6
:1038F00024D100220021DFF85C0B0BF0A5FC0B2289
:10390000DFF800173F200BF071FADFF84C1B2000A6
:1039100014F040FCDFF8441B280014F03BFC0021AD
:10392000022001F095F918E02D560010FC8E0100E0
:10393000108F0100248F01000C8D0100DFF8201B87
:10394000200014F027FC049ADFF8181B280014F05C
:1039500021FC0021022001F07BF940F6B830FEF78F
:1039600053FCDFF8D00701210170BCE1DFF87C0BCC
:1039700001210170DFF8E8070078002804D0DFF8A3
:10398000B4070A210170AEE1FEF74EFC002800F0FA
:10399000AA81DFF85C1B280014F0FCFB0321022045
:1039A00001F056F9DFF84C0BFEF72EFCDFF8840728
:1039B0000921017097E1DFF8A8070078002810D0EE
:1039C000CB49280014F0E6FB0121022001F040F968
:1039D00040F6B830FEF718FCDFF858070A210170EE
:1039E00081E1FEF721FC002800F07D81002200210A
:1039F000DFF8040B0BF028FC47F23050FEF704FC14
:103A000071E100BF3E56001068920100B00A00103C
:103A10007892010009F02DFF002808D109F0B1FFCC
:103A2000002804D1FEF700FC002800F05C8109F0BA
:103A3000A8FF002805D100220021DFF8C00A0BF002
:103A400003FC002001F0C6FF012001F0DBFF09F0BC
:103A50004CFE00F085FE0090042200A91E200BF011
:103A6000C5F9DFF89C0A0078002814D0DFF8940527
:103A70000178DFF89005D0F803000AF009FE0B2268
:103A8000DFF88015012003F0B7FF0B22DFF8741573
:103A900044200BF0ABF940F6B830FEF7B5FB40F62A
:103AA000B8324FF47A61DFF85C0A09F04BF8DFF8BE
:103AB00084060B21017016E1DFF83005007800283C
:103AC00014D0DFF8280500210170DFF824252AA191
:103AD000280014F05FFBDFF81C050178022001F0DC
:103AE000B7F8DFF814050088FEF78EFBDFF80C0549
:103AF0000078002815D1DFF8100A00210170DFF8E6
:103B00000C1A280014F046FB0121022001F0A0F855
:103B100047F23050FEF778FBDFF818060C210170F1
:103B2000E1E0FEF781FB002800F0DD80DFF8E0191E
:103B3000280014F02FFB0121022001F089F8DFF8A2
:103B4000C809007800280CD0DFF8BC0900210170FA
:103B5000FEF76DFB00220021DFF8F40A0BF074FB86
:103B6000C1E0DFF8A4090121017047F23050FEF7EF
:103B70004BFBB8E03456001025730000388F01006D
:103B80009892010035560010608F0100DFF8C40ADA
:103B90000078002804D1FEF747FB002800F0A3803E
:103BA000FEF742FB002805D000220021DFF8A80A1A
:103BB0000BF04AFB002001F025FFDFF8A01A2000DF
:103BC00014F0E8FA42F21070FEF71EFBDFF864050D
:103BD0000D21017087E0DFF87C0A007800280CD006
:103BE000FEF722FB002808D1404890F86300002827
:103BF00079D109F03BFF002875D0FEF715FB0028AE
:103C000005D000220021DFF8580A0BF01DFB002030
:103C100001F0F8FE012001F0DDFE09F088FDDFF87B
:103C2000440A0078002816D00422DFF82418222045
:103C300003F0E2FE0422DFF818183D200BF0D6F85E
:103C4000DFF8240A0078002805D01421DFF80008E6
:103C500000680AF05AFFDFF8140AB0F90000421CAD
:103C6000DFF80C1A280014F095FA0021022000F069
:103C7000EFFF4FF47A60FEF7C7FADFF8B8040E21C1
:103C8000017030E009F07DFE002803D1FEF7CCFA88
:103C9000002828D0FEF7C8FA002805D0002200210D
:103CA000DFF8D0090BF0D0FADFF8400800210170EE
:103CB000DFF8C40900210170CC48002101700B48D5
:103CC00090F86600002808D0084890F866004FF485
:103CD0007A714843FEF798FA01E0FEF7B0FADFF890
:103CE000540401210170FEF70CBC0000A04B001031
:103CF000889201004C8F010044800100748F010004
:103D0000888F0100AC820100A8920100B8920100E6
:103D1000C488010038B50C001500C0B201284DD090
:103D2000022856D003285AD0112808D012281CD0B7
:103D3000132830D021285DD0222860D063E020787D
:103D4000002806D02078DFF8341991F869108842ED
:103D500059D1DFF818090088401EDFF810190880D3
:103D6000DFF81C09012101704DE02078002806D001
:103D70002078DFF8081991F86910884243D1DFF8FC
:103D8000EC080088401CDFF8E4180880DFF8F00831
:103D90000121017037E0A078002806D0A078DFF874
:103DA000DC1891F8691088422DD1DFF8C00821880D
:103DB0000180DFF8CC080121017024E02178D4F8DB
:103DC00003000AF065FC2178D4F803000AF0AAFD8C
:103DD00019E02268217A60680AF06CFD13E0122174
:103DE00020680AF0D4FE052D0DD1217920680AF053
:103DF0008CFE08E0132120680AF087FE03E01421FE
:103E000020680AF082FE31BD747F01009C8F0100A2
:103E1000B08F0100DC8A0100C48F0100D88F01003F
:103E200074800100EC8F010000900100E488010023
:103E300014900100289001003356001038B50C0092
:103E40001500C0B20100022932D0042900F0B98067
:103E500005295CD00A297AD00B2900F09880122914
:103E600031D0132900F0A080142900F0A380152977
:103E700021D0182918D019290AD01A2914D01B29A1
:103E800020D01C291ED03C2938D03D2921D0A5E0C6
:103E9000122120680AF07BFE052D40F0A6802179D2
:103EA00020680AF032FEA0E020680AF092FE9CE052
:103EB000FEF71BF999E004222100DFF8C80715F08E
:103EC00062FA92E091E0DFF8B4072188A0F871105F
:103ED0008BE02078002807D02078DFF8A01791F831
:103EE0006910884240F08180B4F80100DFF87C1747
:103EF0000880DFF88C070121017076E0DFF86C079D
:103F000021880180DFF87807012101706DE0E01C55
:103F100013F0E0FF502868D26078374908803648AF
:103F2000008800023449088033480088217808431B
:103F300031490880A0782F490870E11C2C4813F003
:103F40001DFC2A4801210170FEF779F94DE009F0C6
:103F500018FD002814D009F089FF4EF66020FEF706
:103F600025F9DFF824070021017009F0BEFB00F0FD
:103F7000F7FB0090042200A91F200AF037FF34E06D
:103F800000220021DFF804070BF05EF92DE009F0B4
:103F90006DFF42F21070FEF709F9DFF8EC06002120
:103FA000017009F0C4FB20E0DFF8D0062188A0F8FA
:103FB0006B101AE036222100DFF8D40615F0E3F981
:103FC00013E0DFF8B40601210170042D03D1DFF8FE
:103FD000800421680160FEF732F906E00022C0B2D9
:103FE0000100DFF8B0060BF02FF931BD3656001096
:103FF000784E001037560010F6550010305600105D
:104000003C9001003C540010A4800100C8920100C3
:1040100050900100D892010080B5DFF87C0613F0C3
:1040200059FF421CDFF87016372003F077F9DFF8EC
:104030006C0613F04FFF421CDFF86016382003F0C7
:104040006DF90122DFF85816392003F067F90122D3
:10405000DFF85016042003F061F90122DFF848165A
:10406000192003F05BF90122DFF84016FB2003F072
:1040700055F90422DFF838160A2003F04FF901221F
:10408000DFF830160E2003F049F90122DFF8281678
:10409000352003F043F90122DFF820162A2003F02F
:1040A0003DF90122DFF818162D2003F037F901221F
:1040B000DFF810162B2003F031F90122DFF8081683
:1040C0000D2003F02BF90122DFF800163C2003F04D
:1040D00025F90122DFF8F815242003F01FF9012249
:1040E000DFF8F0152C2003F019F90122DFF8E815AC
:1040F000282003F013F90222DFF8E015342003F042
:104100000DF90222DFF8D8151F2003F007F9042269
:10411000DFF870151C2003F001F90222DFF8C41546
:10412000232003F0FBF83622DFF864150B2003F0A0
:10413000F5F801BDB80A001064900100D8820100B2
:10414000789001008C9001002E560010A090010084
:10415000B4900100C8900100B0550010DC9001003F
:104160003956001001B59DF8000004286CD00A28CB
:1041700000F097800B2800F03B810D2800F0D880DC
:104180000E2800F099800F2800F03C8119286CD08F
:104190001C2800F019811F2800F00C81232800F052
:1041A0001D81242800F0D980282800F0EA802A28E0
:1041B00000F09D802B2800F0B0802C2800F0D780E4
:1041C0002D2800F09F80342800F0EA80352800F088
:1041D0008380372809D0382819D0392829D03C289D
:1041E00000F0B180FB2851D02CE1162A00DB15220B
:1041F000DFF8A40415F0C7F8DFF88004002180F888
:10420000421000220021002003F088F81FE1162A46
:1042100000DB1522DFF8840415F0B5F8DFF85C0444
:10422000002180F8571000220021002003F076F8CA
:104230000DE1DFF84804097880F82D1000220021F4
:10424000002003F06BF802E1DFF83004097880F811
:104250005810DFF8280490F8580000F0F3FE002210
:104260000021002003F05AF8F1E0DFF8100409788B
:1042700080F85910DFF8040490F8590000F0F2FEBD
:1042800000220021002003F049F8E0E0DFF8EC0311
:10429000097880F85A1000220021002003F03EF82F
:1042A000D5E0DFF8D8030968C0F85B1000220021D0
:1042B000002003F033F8CAE00878002801D001207C
:1042C00000E00020DFF8B41381F85F000022002135
:1042D000002003F023F8BAE0DFF8A003097880F8A3
:1042E000601000220021002003F018F8AFE0DFF892
:1042F0008C03097880F8611000220021002003F06F
:104300000DF8A4E0DFF87403097880F86210002249
:104310000021002003F002F899E0DFF8600309783B
:1043200080F8631000220021002002F0F7FF8EE0E9
:10433000DFF84803097880F864100022002100208B
:1043400002F0ECFF83E0CD48097880F86510002288
:104350000021002002F0E2FF79E0C848097880F8E7
:10436000661000220021002002F0D8FF6FE0C34851
:10437000097880F8671000220021002002F0CEFFAB
:1043800065E00878002801D0012000E00020BB494A
:1043900081F8680000220021002002F0BFFF56E0F3
:1043A0000222CE4814F0EFFF00220021002002F08C
:1043B000B5FF4CE0B1480988A0F86B10002200213D
:1043C000002002F0ABFF42E00422AE4814F0DBFF15
:1043D00000220021002002F0A1FF38E0A748098850
:1043E000A0F8711000220021002002F097FF2EE0BB
:1043F0003622A74814F0C7FF00220021002002F057
:104400008DFF24E0087800280BD009F02FFD4EF630
:104410006020FDF7CBFE9C480021017009F065F992
:104420000AE009F023FD42F21070FDF7BFFE964846
:104430000021017009F07BF900220021002002F028
:104440006DFF04E0012200A9012002F067FF01BD19
:10445000AC550010F88A0100E8920100F0900100CC
:10446000049101000494010070B50C00C0B2E02872
:1044700008D0ED281BD0EE2823D0EF282BD0F12830
:1044800003D031E0FDF731FE2EE02578641C26884C
:10449000A41C00F065F921683C2202FB1102241DD6
:1044A000310089B22800C0B20DF0D6FE1CE02078A1
:1044B000002801D0012000E000208B490870641C16
:1044C00012E02078002801D0012000E00020874978
:1044D0000870641C08E02078002801D0012000E06A
:1044E000002083490870641C70BD0000385600101D
:1044F000148B0100C0D40100188501000483010061
:104500002D560010F89201003F560010189101003E
:10451000089301003EB50FF009FE01F091FA01F099
:10452000DBF901F09BF97348006850F48060714931
:104530000860002470484FF48061016000256F48D6
:10454000006850F002006D4908606D48006850F046
:1045500004006B4908606B48022101606A484821E9
:1045600001606848012101606848FDF756FD11F0BF
:104570005FFA012804D111F061FA65480121017048
:104580000121002011F023FA624811F044FA0DF0E5
:10459000CAFE002803D06048002101700EE05E488A
:1045A00001210170314800210180FDF73EFD0DF031
:1045B0009AFE0122012159480EF022FF584812F0BC
:1045C000B9F9022155480EF02DFF564908605548AB
:1045D0000068000C2549088011F0FCFD5248407825
:1045E000401C514948700EF080F90FF0CFF90FF0E0
:1045F0001BFD4048016821F48061016000244FF4F4
:1046000000624A494A4810F091FB49480AF0EAFB27
:10461000474802F00DFB4FF480724649464810F0BF
:1046200085FB454807F007FE43480AF0A1FB02203E
:1046300002904FF47A70019040480090404B642201
:104640004049414812F0C2FE11F0A4FD00203EBDD9
:10465000F47D0100315600102C7E010018930100FA
:10466000A87F01002B56001029560010F4550010A9
:10467000289301003083010035560010A04B001034
:10468000B10A00100D4C0010B60A0010DC7F0100CA
:10469000134C001040850100CE4B0010E34B00107E
:1046A000CD4B0010F84B0010F94B0010FA4B0010E6
:1046B000FB4B0010FF4B0010004C0010014C001091
:1046C000024C0010034C0010044C0010054C00106C
:1046D000064C0010074C0010084C0010094C00104C
:1046E0000B4C0010114C00103A5600103B560010B5
:1046F0003C56001040C009205CC00920C4C00F40D7
:10470000A8C10F40044000400C40004020A1070019
:1047100027560010404B4C00285600100040024025
:1047200020540010A8550010CC090010601A001089
:104730006C510010A449001050510010E8350010D1
:10474000C92200001094010028500010DFF8F81D65
:104750000968DFF8F42D1268521A8242F9D37047C3
:1047600010B594B0DFF8F4090078401CDFF8EC19BC
:1047700008700BA9DFF8D40D0EF0D1FD0B98009056
:104780000C9801900D9802900E9803901198401E7D
:1047900004901298A0F26C70059000200690002002
:1047A00007900020089000A811F0C4FE04000DF04E
:1047B00033FF200014B010BD30B585B004000D00EB
:1047C000DFF898090078401CDFF89019087011F0A4
:1047D00001FD220070A100A813F0DCFC00A900205C
:1047E0000EF03CFF2A006CA100A813F0D3FC00A936
:1047F00040200EF033FFFEE780B5DFF8181B0020E5
:104800000EF02CFFDFF8100B0078002806D00228ED
:1048100048D009D3032800F09E80B7E0DFF8FC1AE7
:1048200040200EF01BFFB1E0DFF8F40A007800280A
:1048300004D15AA140200EF011FF04E0DFF8DC1A89
:1048400040200EF00BFFDFF8D80A0078002811D0C6
:10485000DFF8D00A0068411CDFF8C82A116004287C
:1048600008D1DFF8C00A00210160DFF8B40A002196
:1048700001708BE0DFF8A80A0078002840F08680FD
:10488000DFF8A00A0068411CDFF8982A11600128AF
:104890007CD1DFF8900A00210160DFF8840A012151
:1048A000017073E0DFF8800A0068DFF8801A4018B2
:1048B00010F1100140200EF0D1FEDFF86C0A006804
:1048C000DFF8681A4018103013F004FBDFF8601AA4
:1048D0000978002920D0112807DBDFF84C0A00688E
:1048E000401CDFF8441A086050E0DFF83C0A00681A
:1048F00000284BD0DFF82C0A0068411CDFF8242A7E
:104900001160012842D1DFF81C0A00210160DFF8A4
:10491000200A0021017039E0DFF80C0A0068012844
:1049200007DBDFF8040A0068401EDFF8FC190860A6
:104930002CE0DFF8F0090068411CDFF8E82911607D
:10494000042823D1DFF8DC0900210160DFF8E00949
:10495000012101701AE0DFF8D0090068411CDFF87E
:10496000C8291160DFF8C419411840200EF076FE06
:10497000DFF8B80913F0AEFADFF8AC190968401F88
:10498000814203D3DFF8A00905210160DFF88C0D17
:1049900011F0ADFC01BD0000257300000000000017
:1049A00030B589B00024002500200500DFF8A80BF1
:1049B00013F090FA0400142C04DAD4F1140002214C
:1049C00090FBF1F52A00202100A814F0D7FB621C0F
:1049D000DFF8841B00A8281814F0D5FC00A9542087
:1049E0000EF03CFE0025DFF8D40B13F073FA040040
:1049F000142C04DAD4F11400022190FBF1F52A0002
:104A0000202100A814F0BAFB621CDFF8B01B00A83C
:104A1000281814F0B8FC00A914200EF01FFEDFF8CF
:104A2000F40813F057FA04000025142C04DAD4F12A
:104A30001400022190FBF1F52A00202100A814F0B7
:104A40009DFB621CDFF8CC1800A8281814F09BFC12
:104A500000A900200EF002FE0025DFF8C00813F0C8
:104A600039FA0400142C04DAD4F11400022190FB6A
:104A7000F1F5DFF8A4080078002806D0022850D00D
:104A80000DD3032800F0A680BFE06842DFF89C1831
:104A9000401810F1100140200EF0E0FDB5E0DFF805
:104AA00080080078002804D174A140200EF0D6FDC3
:104AB00008E06842DFF87418401810F11001402037
:104AC0000EF0CCFDDFF858080078002811D0DFF890
:104AD00054080068411CDFF84C281160042808D1F4
:104AE000DFF8400800210160DFF834080021017080
:104AF0008BE0DFF82C080078002840F08680DFF893
:104B000024080068411CDFF81C28116001287CD1B2
:104B1000DFF8100800210160DFF8040801210170AE
:104B200073E0DFF804080068DFF80018401810F19F
:104B3000100140200EF092FDDFF8EC070068DFF86E
:104B4000EC174018103013F0C5F9DFF8E4170978B6
:104B5000002920D0112807DBDFF8CC070068401CB3
:104B6000DFF8C417086050E0DFF8BC0700680028D1
:104B70004BD0DFF8B0070068411CDFF8A8271160B0
:104B8000012842D1DFF89C0700210160DFF8A0076F
:104B90000021017039E0DFF890070068012807DB89
:104BA000DFF884070068401EDFF87C1708602CE0FF
:104BB000DFF870070068411CDFF8682711600428DF
:104BC00023D1DFF8600700210160DFF864070121CD
:104BD00001701AE0DFF850070068411CDFF8482731
:104BE0001160DFF84817411840200EF037FDDFF85C
:104BF0003C0713F06FF9DFF8301709680A38814273
:104C000003D3DFF8240705210160DFF8100B11F052
:104C10006EFB09B030BD80B5DFF8380C90F82D0080
:104C2000022802D0042803D004E0FFF7E5FD01E0EC
:104C3000FFF7B6FE01BD012802D0022803D005E02F
:104C4000DFF8D00603E0DFF8D40600E0002070476C
:104C5000022812D1DFF8C0060170DFF8CC0605216A
:104C60000160DFF8C00600210160DFF8C406002102
:104C70000170DFF8AC0601210170704700000000F0
:104C80002DE9F04FA1B000208DF810000120059013
:104C900004AA0021DFF8A40B0CF04EFC00236422D0
:104CA0000021DFF8980B0CF055FD00208DF80C006A
:104CB00000208DF80D0001208DF80F0000208DF8E8
:104CC0000E0003A9DFF8740B0CF0E9FCDFF86C0BA5
:104CD0000CF0CEFC0121DFF8640B0CF0A6FC0121E6
:104CE000DFF8580B0CF08BFCDFF8640BD0E90023E5
:104CF000CDE91E231EA811F045FFDFF8A40B0068C4
:104D000050F00800DFF8981B086000200090DFF8E2
:104D1000480B082101600020009000220421DFF8E8
:104D20001C0B0CF057FD0023DFF8280B90F85820DF
:104D30000421DFF8080B0CF00DFD04208DF80800AD
:104D400000208DF8090000208DF80B0000208DF860
:104D50000A0002A9DFF8E40A0CF0A1FC01220421F8
:104D6000DFF8D80A0CF068FDDFF8380BD0E9002333
:104D7000CDE91C231CA811F005FFDFF8240B006807
:104D800050F01000DFF8181B086000200090DFF8DA
:104D9000C80A102101600020009000220521DFF8E0
:104DA0009C0A0CF017FD0023DFF8A80A90F85920A0
:104DB0000521DFF8880A0CF0CDFC05208DF80400F1
:104DC00000208DF8050000208DF8070000208DF8E8
:104DD000060001A9DFF8640A0CF061FC012205213C
:104DE000DFF8580A0CF028FDDFF8E40AD0E90023C8
:104DF000CDE91A231AA811F0C5FEDFF8400B0068B0
:104E000050F02000DFF8341B086000200090DFF82D
:104E1000300B2021016000200090DFF8B80AD0E9B3
:104E20000023CDE9182318A811F0ACFEDFF80C0B15
:104E3000006850F01000DFF8041B086000200090AC
:104E4000DFF8FC0A1021016000200090DFF8F40A6E
:104E5000D0E90023CDE9162316A811F093FEDFF860
:104E6000400A006850F40050DFF8341A086000204F
:104E70000090DFF8000B4FF400510160002000901B
:104E8000DFF8C40AD0E90023CDE9142314A811F0F7
:104E900079FEDFF80C0A006850F40060DFF8001AB1
:104EA000086000200090DFF8CC0A4FF40061016038
:104EB00000200090DFF8C00AD0E90023CDE91223DA
:104EC00012A811F05FFEDFF8D809006850F4805096
:104ED000DFF8CC19086000200090DFF8980A4FF442
:104EE0008051016000200090DFF8B80AD0E900236B
:104EF000CDE9102310A811F045FEDFF8A4090068E1
:104F000050F04000DFF89819086000200090DFF8AA
:104F1000640A4021016000200090DFF8B40AD0E963
:104F20000023CDE90E230EA811F02CFEDFF8700946
:104F3000006850F08000DFF86819086000200090D9
:104F4000DFF8300A8021016000200090DFF8AC0A11
:104F5000D0E90023CDE90C230CA811F013FEDFF8F3
:104F6000A00A006850F08050DFF8941A086000240E
:104F7000DFF8B80A5FF0805101600025DFF8B00A61
:104F8000D0E90023CDE90A230AA811F0FBFDDFF8E0
:104F9000700A006850F00050DFF8641A08600026BC
:104FA000DFF8880A5FF0005101600027DFF8842AEB
:104FB000D2E90001CDE9080108A811F0E3FDDFF80E
:104FC0007C09006850F00100DFF8701908605FF09C
:104FD0000008DFF86C09012101605FF00009DFF8CB
:104FE000582AD2E90001CDE9060106A811F0CAFD50
:104FF000DFF84809006850F00200DFF84019086047
:105000005FF0000ADFF83809022101605FF0000B51
:105010000EF002FB15222021BE4814F0AFF86122E9
:105020002021C24814F0AAF8FA22DFF8101ADFF89B
:10503000EC0611F051F9DFF8E40611F06AF921B03D
:10504000BDE8F08F80B5DFF80C1881F85800002318
:10505000DFF8000890F858200421DFF8E0070CF092
:1050600079FB01BD80B5DFF8EC1781F8590000230A
:10507000DFF8E00790F859200521DFF8C0070CF0B1
:1050800069FB01BD4FF47A71884205DBDFF81C0C27
:1050900040F2E73101600BE010F1630F05DADFF851
:1050A0000C0C7FF06201016002E0DFF8001C086078
:1050B000704710B50C000100DFF8D40A0AF07CFF3D
:1050C0002100DFF8CC0A0BF0C1F8DFF8C80A012193
:1050D0008170DFF8C00A11F055FDDFF8BC0A01212C
:1050E0008170DFF8B40A11F04DFD0121DFF8A00A4C
:1050F0000BF011F910BD38B50021DFF8940A0BF060
:105100000AF9DFF8900A00218170DFF8880A11F0AF
:1051100039FDDFF82808006850F40040DFF81C185B
:1051200008600024DFF818084FF4004101600025F2
:10513000DFF8640A00218170DFF85C0A11F022FDBB
:10514000DFF8F807016821F4803101600020DFF802
:10515000F0175FF480320A60002131BDCC090010E5
:1051600010B5DFF8380A006800280CD0DFF82C0AE8
:105170000068002800F0C880DFF8200A0068804737
:10518000002800F0C180DFF8181ADFF8180AFFF7CE
:1051900090FFDFF8140A5FF48001016000244FF4EF
:1051A000FA70FFF7D3FADFF8080BF8210170DFF887
:1051B000000BA2214170DFF89C0690F85A00FF21F5
:1051C0004843642190FBF1F0DFF8E41A8870012372
:1051D0000322DFF8DC1ADFF8B8090AF0C5FFDFF8B0
:1051E000B0090BF02CF80128F9D04FF4FA70FFF752
:1051F000ADFADFF8BC0AF8210170DFF8B40AA42187
:105200004170DFF8A80A0068012804DBDFF8A00A73
:105210000021817003E0DFF8980AFF2181700123EB
:105220000322DFF88C1ADFF868090AF09DFFDFF827
:1052300060090BF004F80128F9D04FF4FA70FFF779
:1052400085FADFF86C0AF8210170DFF8640AA12101
:105250004170DFF8580A0068012808DBDFF84C0AC3
:105260000268BBA1DFF8DC0A12F094FF04E0B9A1E8
:10527000DFF8D00A12F08EFFDFF8340A8078202899
:1052800003D1DFF82C0A2E218170DFF8240AC078C0
:10529000202803D1DFF8180A2E21C170DFF8100A88
:1052A0000079202803D1DFF8080A2E21017101239B
:1052B0000522DFF8FC19DFF8D8080AF055FFDFF8FF
:1052C000D0080AF0BCFF0128F9D04FF4FA70FFF7BC
:1052D0003DFADFF86C065FF48001016000200023D6
:1052E0000A22DFF8CC19DFF8A8080AF070FF0028BE
:1052F000F5D1FFF700FFDFF8CC0A0068002803D0E3
:10530000DFF8C00A00688047DFF8040D10F0EFFFF7
:1053100010BD00008851001019560010D04D00102B
:10532000AE0A00108855001084550010C04D0010C2
:10533000AD0A001038B5DFF88C2A1160DFF85C1870
:105340000860DFF8840A11F01DFCDFF8F005006842
:1053500050F48000DFF8E41508600024DFF8E00571
:105360005FF4800101600025DFF838080AF0CEFE06
:10537000DFF830084FF416610160DFF828080321D8
:105380004171DFF8200800210171DFF818080021C1
:105390008171DFF80C080AF0B7FFDFF80408032179
:1053A000C170DFF8F807006800280AD003E04FF466
:1053B0007A700DF0B5FADFF8E4070068804700283E
:1053C000F5D0DFF8DC17DFF8DC07FFF772FEDFF857
:1053D000D8075FF48001016000244FF4FA70FFF7F2
:1053E000B5F9DFF8CC08F8210170DFF8C408A32173
:1053F0004170DFF8BC080021817001230322DFF82F
:10540000B018DFF88C070AF0AFFEDFF884070AF067
:1054100016FF0128F9D04FF4FA70FFF797F901232E
:105420000322DFF88C18DFF868070AF09DFEDFF82A
:1054300060070AF004FF0128F9D04FF4FA70FFF773
:1054400085F901230322DFF86818DFF844070AF022
:105450008BFEDFF83C070AF0F2FE0128F9D04FF48A
:10546000FA70FFF773F9DFF8D8045FF48001016088
:10547000002464200DF054FADFF82C075FF480015B
:10548000016000254FF4FA70FFF760F9DFF820089B
:10549000F8210170DFF81808A1214170DFF8100829
:1054A00043218170DFF808083021C170DFF800085F
:1054B0004821017101230522DFF8F417DFF8D00637
:1054C0000AF052FE01230522DFF8E417DFF8C006D8
:1054D0000AF04AFE01230522DFF8D417DFF8B006F0
:1054E0000AF042FEDFF8A8060AF0A9FE0128F9D06A
:1054F0004FF4FA70FFF72AF9DFF844045FF48001F3
:105500000160002000230A22DFF8A417DFF88006DC
:105510000AF05DFE0028F5D1FFF7EDFDDFF8A408E5
:105520000068002803D0DFF89C08006880474FF42B
:105530007A72DFF89818DFF8D80A10F0CDFEDFF89D
:10554000D00A10F0E6FE31BD0840004000400240A5
:105550002533640044443000CE4B0010C10706D50B
:10556000DFF8C8145FF480120A60002105E0DFF85C
:10557000A41A5FF480120A600021C0B2810706D528
:10558000DFF8A8145FF400120A60002105E0DFF8DC
:10559000841A5FF400120A600021C0B2400706D5E9
:1055A000DFF888045FF480210160002005E0DFF867
:1055B000640A5FF48021016000207047E34B001013
:1055C00010B50024082C80F2A3802000C0B2FFF7A1
:1055D000C5FF0A20FFF7BAF8DFF83C0A006840026E
:1055E00001D5012100E00021C9B20A20DFF82C2AF0
:1055F00000FB042011F05EFC012822D0022814D008
:10560000032802D006282DD03CE0DFF8140A50F819
:105610002400002804D0DFF8080A50F8240080474E
:10562000DFF8000A022121542CE0DFF8FC0950F8D1
:105630002400002826D0DFF8F00950F82400804725
:1056400020E0DFF8E80950F82400002805D0012008
:10565000DFF8D81951F824108847DFF8C80901216C
:1056600021540FE0DFF8C40950F82400002805D0C9
:105670000020DFF8B81951F824108847DFF8A40992
:1056800000212154DFF8A8090068800301D5012119
:1056900000E00021C9B20A20DFF8982900FB0420AD
:1056A00011F008FC002804D001280ED006281DD0D7
:1056B0002CE0DFF8840950F82400002826D0DFF819
:1056C000780950F82400804720E0DFF8700950F88E
:1056D0002400002805D00120DFF8601951F82410BB
:1056E0008847DFF85C09012121540FE0DFF84C09FD
:1056F00050F82400002805D00020DFF8401951F8A8
:1057000024108847DFF8380900212154641C59E728
:10571000DFF8180B10F0EBFD10BD0000F052001088
:105720002DE9F04F8BB0DFF81C09D0E90023CDE95B
:10573000082308A811F026FAB148006850F4801038
:10574000AF4908605FF0000ADFF8C8085FF4801115
:1057500001600024DFF8F008D0E90023CDE906233A
:1057600006A811F00FFAA648006850F40010A449EA
:1057700008600025DFF89C085FF400110160002636
:10578000DFF8C828D2E90001CDE9040104A811F02E
:10579000F9F99B48006850F4802099490860002777
:1057A000DFF870085FF4802101605FF00008DFF827
:1057B000A028D2E90001CDE9020102A811F0E2F926
:1057C0008F48016821F4800101605FF00009DFF873
:1057D0008428D2E90001CDE9000100A811F0D2F936
:1057E0005648016821F4003101605FF0000B14227B
:1057F000DFF8F819DFF8340A10F06EFDDFF82C0A34
:1058000010F087FD0BB0BDE8F08F021E082A03D20E
:10581000DFF8142842F82010704710B4031E082B3C
:1058200009D20A23DFF8F44703FB0043D980DFF8ED
:10583000F01741F8202010BC7047000000800140A4
:10584000021E082A03D2DFF8F42742F8201070471E
:1058500064950100A04B00105CC009201FB5DFF863
:10586000D009D0E90023CDE9022302A811F08AF97A
:10587000DFF8C009016821F4807101600024DFF8BD
:10588000B809D0E90023CDE9002300A811F07AF986
:10589000DFF8A009016821F48061016000201FBDCC
:1058A00040C009206C950100C0B2002805D05F49B6
:1058B0005FF400020A60002105E0DFF858175FF48A
:1058C00000020A600021DFF87419087070470000B8
:1058D000749501007C95010030B585B0DFF868094A
:1058E000D0E90023CDE9022302A811F04BF9444886
:1058F000006850F40000424908600024DFF81407F3
:105900005FF4000101600025DFF84009D0E90023C1
:10591000CDE9002300A811F035F9DFF81809006877
:1059200050F02000DFF80C1908600020DFF8101993
:1059300020220A60002105B030BD000000C009200F
:1059400018C00920849501008C950100C0B2002880
:1059500006D0DFF8FC185FF400120A60002104E0B2
:1059600091495FF400120A600021DFF8E81808701E
:105970007047000058C0092094950100C0B200286B
:1059800005D02A495FF080720A60002105E0DFF847
:1059900084165FF080720A600021DFF8B818487042
:1059A000704700009C950100C0B2002805D01F4937
:1059B0005FF080620A60002105E0DFF858165FF0B2
:1059C00080620A600021DFF88C1888707047000040
:1059D000A4950100C0B2002805D014495FF0007200
:1059E0000A60002105E0DFF82C165FF000720A6003
:1059F0000021DFF86018C87070470000AC95010006
:105A000020C00920C0B2002805D008495FF000621C
:105A10000A60002105E0DFF8FC155FF000620A6013
:105A20000021DFF8301808717047000038C00920E5
:105A3000B4950100BC950100C4950100174C00000D
:105A40002DE9F04F8BB0DFF81008D0E90023CDE945
:105A5000082308A811F096F8DFF80008006850F451
:105A60000010DFF8F81708605FF0000B4E485FF495
:105A7000001101605FF0000ADFF8E407D0E90023BD
:105A8000CDE9062306A811F07DF8DFF8D8070068F5
:105A900050F08070DFF8CC1708600024DFF8740540
:105AA0005FF0807101600025DFF8BC27D2E90001BA
:105AB000CDE9040104A811F065F8DFF8A807006833
:105AC00050F08060DFF89C1708600026DFF844057E
:105AD0005FF0806101600027DFF89027D2E90001C4
:105AE000CDE9020102A811F04DF8DFF8780700684F
:105AF00050F00070DFF86C1708605FF00008DFF806
:105B000014055FF0007101605FF00009DFF86027A5
:105B1000D2E90001CDE9000100A811F033F8DFF867
:105B20004407006850F00060DFF838170860002074
:105B3000DFF8E0145FF000620A6000210BB0BDE8FE
:105B4000F08F80B5DFF82C0700210170DFF82807FF
:105B500000681A281AD1DFF8240700684008DFF827
:105B60001C170860DFF8140700680002000ADFF85D
:105B70000C170860DFF808070068002806D0DFF877
:105B8000FC060068DFF8F8160968884701BD0000C8
:105B900000000140480A0010500A00109055001003
:105BA000945500108C5400101CC0092080B510F0D2
:105BB00011FBDFF8D0060078401CDFF8C81608702B
:105BC000DFF8C0064078401CDFF8B8164870DFF8F0
:105BD000A406007800280FD1DFF898060121017093
:105BE000DFF8940600210160DFF8900600210160D3
:105BF000DFF8940610F07BFBDFF87C060068401CA1
:105C0000DFF874160860DFF8740600684000DFF8FB
:105C10006C160860DFF874060068C00201D5012028
:105C200000E00020C0B2002807D0DFF8640600685A
:105C300050F48010DFF858160860DFF8500600684E
:105C4000000301D5012000E00020C0B200280FD0E1
:105C5000DFF83C06006850F40020DFF834160860D6
:105C6000DFF81806006850F00100DFF81016086031
:105C7000DFF810064078401EDFF808164870DFF89D
:105C800004060078012806D1DFF8F80540680028EE
:105C900001D010F090FADFF8EC050078401EDFF834
:105CA000E415087010F090FA01BD00007C0A0010A5
:105CB0003054001010B504006422DFF8D815DFF866
:105CC000C80510F009FBDFF8D01525200DF0D3FE34
:105CD000F02125200DF009FF25200DF0CEFEDFF884
:105CE000BC05006850F48010DFF8B0150860002093
:105CF000DFF8A815096851F40021DFF8A02511602C
:105D00000021DFF87C25146010BDDFF89405012127
:105D10000170704710B50400DFF8880510F025FB0E
:105D2000DFF87C05002101702100DFF8780512F012
:105D3000FFFEDFF8700510F0DAFA10BDDFF860053D
:105D4000007870473254001080B5DFF8580510F025
:105D50000CFBDFF84C050021017001BD80B5DFF8B8
:105D60004825127892F001020B00DBB2134203D0F7
:105D7000DFF8382501231370DFF82C251170DFF8C8
:105D80003015097891F001010200D2B20A4203D025
:105D9000DFF8201501220A70DFF814150870DFF80B
:105DA00008050078DFF8081509780843C0B2002814
:105DB00004D0DFF80405FFF7ADFF01E0FFF7C4FFF3
:105DC00001BD00008C550010580A00106151000000
:105DD00010B5FFF7B3FF002809D0DFF8CC0400218D
:105DE0000170DFF8CC0400210170FFF7ADFFDFF890
:105DF000B8040078002800F0AA80DFF8C00400682A
:105E0000DFF8BC140968884204D1DFF8A0040078E8
:105E100000280BD0DFF8A404DFF8A414096801609F
:105E20000222DFF89C14202001F014F8002419E06D
:105E3000DFF89004205C7B49615C884204D1DFF884
:105E40006C04007800280CD0DFF878047549615C98
:105E5000215401227348211814F12100C0B200F02E
:105E6000F9FF641C082CE3DB002419E0DFF8580478
:105E7000205C7349615C884204D1DFF8300400780B
:105E800000280CD0DFF840046D49615C21540122E8
:105E90006B48211814F13100C0B200F0DBFF641C24
:105EA000082CE3DB00241CE0DFF82004205CDFF892
:105EB000A413615C884204D1DFF8F0030078002865
:105EC0000ED0DFF80804DFF88C13615C2154012246
:105ED000DFF88003211814F14100C0B200F0BAFFCE
:105EE000641C052CE0DBDFF8E8030078DFF84C13D6
:105EF0000978884204D1DFF8B403007800280BD079
:105F0000DFF8CC03DFF83413097801700122DFF8E1
:105F10002C13512000F09EFFDFF8B8030078DFF863
:105F200024130978884204D1DFF880030078002820
:105F300009D0DFF8A003C349097801700122C149E3
:105F4000522000F087FFDFF8640300210170DFF8C2
:105F500060030078002859D0DFF87C030078DFF870
:105F6000541309780843C0B200280DD0DFF8680345
:105F700000210170DFF8640311F0ACFF421CDFF870
:105F80005C13102000F066FFDFF854030078DFF8A0
:105F9000241309780843C0B200280DD0DFF840036D
:105FA00000210170DFF83C0311F094FF421CDFF880
:105FB0003413112000F04EFFDFF82C030078BD49A8
:105FC00009780843C0B200280AD0C74800210170F0
:105FD000C64811F07FFF421CC449152000F03AFF6B
:105FE000C3480078B34909780843C0B200280AD0F2
:105FF000BF4800210170BF4811F06CFF421CBD4931
:10600000162000F027FFAB480021017010BD0000F2
:10601000045300103CC0092034C00920E0080010DF
:10602000D050001094540010B0500010F0500010E8
:1060300014C0092030090010305100101051001018
:106040009C540010CC950100D4950100DC95010012
:10605000E4950100EC95010010B50C00A64991F8FB
:106060002D10022902D0042960D0BEE0C0B2002861
:1060700002D0402836D058E014222100974811F071
:106080006DF800280BD014222100944813F07BF9FE
:1060900092480021017590488549097801701522C0
:1060A0009649924811F05AF800283ED093488078DB
:1060B00020280DD1022291498C4811F04FF8002878
:1060C00006D10D228E498F4811F048F800282CD0B7
:1060D00015228A49854813F056F98348744909788E
:1060E000017022E0142221007E4811F037F80028C8
:1060F0000BD0142221007B4813F045F97948002188
:10610000017577486A490978017051227E497948BA
:1061100011F024F8002808D051227B49754813F06B
:1061200032F973486249097801705EE0C0B2002814
:1061300002D0402836D058E014222100674811F0E0
:106140000DF800280BD014222100644813F01BF92D
:10615000624800210175604855490978017015228F
:106160006649624810F0FAFF00283ED06348807804
:1061700020280DD1022261495C4810F0EFFF002871
:1061800006D10D225E495F4810F0E8FF00282CD0B0
:1061900015225A49554813F0F6F8534844490978EE
:1061A000017022E0142221004E4810F0D7FF002891
:1061B0000BD0142221004B4813F0E5F84948002188
:1061C000017547483A490978017051224E494948BA
:1061D00010F0C4FF002808D051224B49454813F065
:1061E000D2F8434832490978017010BDC15500000A
:1061F00080B515220021394812F0C0FF1522002178
:10620000384812F0BBFF15220021384812F0B6FFC3
:1062100051220021374812F0B1FF3C480DF01BFA23
:1062200000223B491F4810F057F801BD18530010D9
:10623000F495010040C00920FC9501001A56001099
:106240005CC009201B560010049601000C9601004A
:1062500018C00920A45400101496010000C00920A1
:106260001C96010020C00920249601002C960100F4
:10627000349601001C5600109C550010A0550010CB
:1062800098550010CC0900102C5300108880024053
:106290008C800240435B0000AD5B000094800240B4
:1062A000AF0A0010405300101D5600101E5600107B
:1062B0001F56001020560010E0930400A455001053
:1062C0007C0A0010AC540010B4540010BC540010F0
:1062D000255600102656001021560010A05100101F
:1062E00022560010B851001023560010D051001053
:1062F00024560010244E0010A04B001088510010AE
:106300008B510010D3510010D04D00105960000087
:106310000B5D000080B5DFF8340B09F064F9DFF89D
:10632000201C086001BDBFF34F8FDFF8180C006818
:1063300010F4E060DFF8181B0843DFF8081C086061
:10634000BFF34F8FFEE780B50FF044FFDFF8F80B87
:106350000078401CDFF8F01B0870DFF8EC0B407889
:10636000401CDFF8E41B4870DFF8940B006800283D
:1063700003D0DFF88C0B00688047DFF8CC0B407847
:10638000401EDFF8C41B4870DFF8BC0B0078012802
:1063900006D1DFF8B40B4068002801D00FF00BFFE6
:1063A000DFF8A40B0078401EDFF89C1B08700FF08C
:1063B0000BFF01BD38B504001500DFF8440B016088
:1063C00020000DF058FB290020000DF08EFB20006E
:1063D0000DF053FB31BD00B595B0DFF8700B0168CF
:1063E00021F080410160DFF8680BD0E90023CDE99E
:1063F000122312A810F0C6FBDFF8580BD0E90023D7
:10640000CDE9102310A810F0BDFBDFF84C0BD0E94C
:106410000023CDE90E230EA810F0B4FBDFF83C0BEF
:10642000D0E90023CDE90C230CA810F0ABFBDFF87A
:10643000300BD0E90023CDE90A230AA810F0A2FB13
:10644000DFF8200BD0E90023CDE9082308A810F0DD
:1064500099FBDFF8140BD0E90023CDE9062306A849
:1064600010F090FBDFF8040BD0E90023CDE9042302
:1064700004A810F087FBDFF8F80AD0E90023CDE983
:10648000022302A810F07EFBDFF8E80AD0E900231F
:10649000CDE9002300A810F075FBDFF8B00A006812
:1064A00050F08040DFF8A41A086015B000BD80B538
:1064B0004FF44051DFF8C00A08F0C8FFDFF8BC0A0B
:1064C00009F09EF8DFF8B80A09F0C6F8DFF8B40A58
:1064D000007E002806D0002300220021002007F0C3
:1064E0007BF816E0DFF89C0AD0F81D10DFF8940A5C
:1064F000D0F8190009F0B8F8DFF8880AD0F82110B0
:10650000002009F0BEF8DFF87C0AD0F8250012F070
:1065100023FF40F2DC51002009F01CFA4FF4807197
:10652000082009F063F94FF4C061042009F05EF916
:106530004FF480614FF4806009F066F9002005F0A7
:10654000A1F85FF0FF3012F0F4FDDFF8B00D12F0AB
:10655000EDFD01BDE0B509F093F9022002904FF482
:106560007A700190DFF8200A0090DFF8203A962236
:10657000DFF81C1ADFF8880D10F028FF07BD0000B7
:106580002DE9F04389B002E032200CF0C9F909F09E
:106590004FF90028F8D004A8DFF8F819102210F0FD
:1065A0004CFDDFF8E009D0F8290009F01CF805904F
:1065B000002507E0DFF8E00900680EF04FFC32200C
:1065C0000CF0AEF901A9DFF8D00900680EF02BFC41
:1065D0000600632E00DB62265FF0FF38002E00F01D
:1065E0001E83019807780198401C0190761E0022B6
:1065F0000121022004F026FB0400002C00F00F8390
:1066000000200090002341F215025FF0FF312000CE
:1066100004F0CAFE40F6B83002900420009002ABAD
:1066200041F205025FF0FF31200004F0BDFE40F6AC
:10663000B83002900420009002AB41F206025FF0F5
:10664000FF31200004F0B0FE102204A9200004F065
:1066500011FC804618F1010F00F0DE8240F24E205E
:106660000090002E04D0009816F1A00108180090A8
:106670005FF00009DFF88C0C00210170642200211A
:10668000DFF8980D12F07AFDDFF8780C007800281A
:1066900049D002285FD052D3042874D067D306288B
:1066A00000F089807CD3082800F09D80C0F08F80A6
:1066B0000A2800F0B380C0F0A5800C2800F0C78045
:1066C000C0F0B8800E2800F0DA80C0F0CC8010282E
:1066D00000F0F080C0F0E280122800F00681C0F0E7
:1066E000F580142800F01981C0F00B81162800F005
:1066F0002D81C0F01F81182800F04081C0F0328148
:106700001A2800F06281C0F045811C2800F07581D4
:10671000C0F067811E2800F08881C0F07A811F28B0
:1067200000F09881A3E1DFF8E01BDFF8F00C11F036
:1067300031FD0500DFF8CC0B0121017097E1DFF896
:10674000CC1BDFF8D80C11F025FD0500DFF8B40BE9
:10675000022101708BE1DFF8B81BDFF8C00C11F0EB
:1067600019FD0500DFF89C0B032101707FE1DFF8C4
:10677000A41BDFF8A80C11F00DFD0500DFF8840B59
:106780000421017073E1009ADFF88C1BDFF88C0C98
:1067900011F000FD0500DFF86C0B0521017066E1CA
:1067A000ABA1DFF8780C11F0F5FC0500DFF8540B15
:1067B000062101705BE1DFF8101CDFF8600C11F0BE
:1067C000E9FC0500DFF83C0B072101704FE1DFF821
:1067D000FC1BDFF8480C11F0DDFC0500DFF8240B92
:1067E0000821017043E1FDF7BBFF0200DFF8E01B69
:1067F000DFF8280C11F0CEFC0500DFF8080B0921AA
:10680000017034E1DFF8C01BDFF8100C11F0C2FC9E
:106810000500DFF8F00A0A21017028E1DFF8001C0A
:10682000DFF8F80B11F0B6FC0500DFF8D80A0B21F1
:1068300001701CE10222DFF8EC1BDFF8E00B11F025
:10684000A9FC0500DFF8BC0A0C2101700FE1DFF89C
:10685000781BDFF8C80B11F09DFC0500DFF8A40AD7
:106860000D21017003E1DFF8C01BDFF8B00B11F060
:1068700091FC0500DFF88C0A0E210170F7E0DFF8CB
:106880000407027CDFF89C1BDFF8900B11F082FC00
:106890000500DFF8700A0F210170E8E0DFF8281B1F
:1068A000DFF8780B11F076FC0500DFF8580A1021AC
:1068B0000170DCE0DFF8741BDFF8600B11F06AFC9C
:1068C0000500DFF8400A11210170D0E0DFF8600B0D
:1068D0000268DFF8501BDFF8440B11F05BFC050089
:1068E000DFF8200A12210170C1E0DFF8DC1ADFF8BE
:1068F0002C0B11F04FFC0500DFF8080A1321017082
:10690000B5E0DFF8301BDFF8140B11F043FC050095
:10691000DFF8F00914210170A9E03A00DFF8041B48
:10692000DFF8F80A11F036FC0500DFF8D809152168
:1069300001709CE0DFF8901ADFF8E00A11F02AFC01
:106940000500DFF8C0091621017090E0DFF8041C93
:10695000DFF8C80A11F01EFC0500DFF8A8091721AE
:10696000017084E0DFF8F01BDFF8B00A11F012FCD0
:106970000500DFF890091821017078E0DFF8DC1BD2
:10698000DFF8980A11F006FC0500DFF878091921F4
:1069900001706CE01022DFF8C81BDFF8800A12F0EB
:1069A000F2FC10252AA1DFF8740A281811F0F2FB76
:1069B0004519002E04D0DFF84C091A21017056E069
:1069C000DFF840091F21017051E0DFF8FC19DFF802
:1069D0004C0A11F0DFFB0500DFF828091B210170CC
:1069E00045E0DFF82C1CDFF8340A11F0D3FB05007A
:1069F000DFF810091C21017039E0DFF85C1BDFF8BB
:106A00001C0A11F0C7FB0500DFF8F8081D21017012
:106A10002DE0DFF8481BDFF8040A11F0BBFB05008E
:106A2000DFF8E0081E21017021E032000199DFF853
:106A3000EC0912F0A8FC350005A1DFF8E0092818E0
:106A400011F0A8FB4519DFF8BC081F2101700EE00A
:106A50000D0A0000DFF8BC1BDFF8C00911F09AFB3B
:106A600005005FF00109DFF89C0800210170681E35
:106A7000642813D201200BF053FF00232A00DFF813
:106A80009C19200004F049FD80465FFA89F9B9F1AC
:106A9000000F03D118F1010F7FF4F0AD00260020A4
:106AA0000090002564220021DFF8700912F066FBD7
:106AB0005FF000095FF0000800230122DFF85C09A5
:106AC0002918200004F0A6FC012840F09A806D1CD3
:106AD000022DC0F28B80DFF84409281810F8020C50
:106AE0000D2840F08380DFF83409281810F8010CD5
:106AF0000A287BD1F6B23000002802D0012810D03D
:106B00006DE0112D0AD11122DFF8201CDFF80C09ED
:106B100010F024FB002801D1012660E05FF0FF386F
:106B20005DE0022D4CD10098002846D000986528E1
:106B300043DA64220021DFF8E40812F01FFB00238F
:106B4000009ADFF8D818200004F064FC05000098D3
:106B500085422FD15FF00109022D10D102229BA1A5
:106B6000DFF8B80810F0FAFA002808D1DFF8C008FA
:106B70000068401CC0B2DFF8B81808602FE0082D8C
:106B800015D100200390DFF894080021017203AAB8
:106B90008FA1DFF8880811F0C5FE012804D1DFF8C5
:106BA000900B039901601AE05FF0FF3817E05FF087
:106BB000FF3814E05FF0FF3811E05FF001090EE0EC
:106BC0001022DFF8701BDFF8540810F0C7FA002815
:106BD00005D100AA9CA1DFF8380C11F0A3FE002516
:106BE00064220021DFF8340812F0C8FA642D0ADBB1
:106BF0006D1E2A00DFF81C1CDFF8200812F0C3FB12
:106C000001E05FF0FF385FFA89F9B9F1000F03D1B5
:106C100018F1010F7FF450AF200004F0DEFC18F1F2
:106C2000010F7FF4C7AC4FF4FA600BF079FEC9E4B2
:106C300000B585B0D84908609F218DF80C1001225D
:106C400003A90EF097F8022002904FF448700190CB
:106C5000DFF8C40B0090DFF8C43B6422DFF8C01BF0
:106C6000DFF8840D10F0B2FB05B000BD10B50400D4
:106C70000422B34920000AF034FEA08A4FF4807148
:106C800088420CD120000AF02AFEDFF8381C09687F
:106C9000002904D00021DFF82C2C12689047002036
:106CA00010BD80B5DFF8201C0860DFF8200C10F064
:106CB000A1FF01BD10B582B002E032200BF030FE22
:106CC00008F0B6FD0028F8D0DFF8000C11F032FA19
:106CD000DFF8F40B00680028F6D04FF480700AF05B
:106CE0001FFF0400002CEFD020000AF0F8FD4FF445
:106CF0008072DFF8D41B096812F045FBDFF8C80B7F
:106D0000002101600094002340F2F462DFF8C00B20
:106D1000016800200AF0CEFED6E7E0B5DFF8A41B3C
:106D200008604A4808F05FFC854908600020009030
:106D3000DFF8A03B40F2F562002100200AF010FFCE
:106D4000DFF8880B12F0BDFC022002904FF47A703D
:106D50000190DFF8980C0090DFF8943C6422DFF893
:106D6000941CDFF8E80C10F031FB07BD80B5C0B211
:106D70000300002B04D0012B0BD0FF2B06D01AE010
:106D800000220021002000F065F81EE0FFF7CBFA9A
:106D90001BE04878002801D0012200E0002208789A
:106DA000002801D0012000E000201100C9B2C0B2CB
:106DB000FEF7D4FF09E0DFF8983C1B68002B04D0F5
:106DC000C0B2DFF88C3C1B68984701BD4F4B0000F8
:106DD000256C78002DE9F04182B00400A08A0838C3
:106DE00080B2F9282DD220000AF079FD050028781C
:106DF000002826D1A08A061F775900A810F0D6F8DF
:106E00005FF0000806E018F8051000A810F0D2F8AE
:106E100018F10108B045F6DB00A810F0E5F800987D
:106E2000B8420ED10422DFF82C1C20000AF059FDD4
:106E30006878DFF8241C0870EA78291DA878FFF725
:106E400095FF0020BDE8F681256400007900A8C008
:106E50000400FA052DE9FC41070088461400F92CCE
:106E600001DB00204AE014F108000AF059FE050099
:106E7000002D42D028000AF032FD060002203070BA
:106E8000DFF8D40B00787070B770F470B8F1000FB1
:106E900006D0002C04D022004146301D12F073FAB7
:106EA00001A810F083F8002704E0B95D01A810F0F4
:106EB00081F87F1C201D8742F7DB01A810F094F8B1
:106EC000A01901990171A0190199C1F3072141711C
:106ED000A0190199C1F307418171A0190199090E07
:106EE000C171009500234FF4DE62DFF8680B016882
:106EF00000200AF0DFFD012000E00020BDE8F6815F
:106F00003055001080B5DFF8481B08601D48D0F8E8
:106F100019001C49D1F81D105FF0FF3251400843A1
:106F200008F061FBDFF82C1B086000200090DFF800
:106F30002C3B4FF4DE62002100200AF011FE01BD5F
:106F40003C5500100CED00E0CC090010C4C00F400F
:106F5000AC940100B4940100BC940100C4940100FD
:106F6000CC940100D4940100DC940100E49401006D
:106F7000EC940100F494010000000820248D01002D
:106F8000B24B0010A04B0010182E001029F7000083
:106F9000FC940100D89101003855001010B5030091
:106FA0000800DBB2190000296AD0022975D0032934
:106FB00021D0132900F01981142900F0228115290C
:106FC00000F02981162900F03181172900F039815C
:106FD000182900F04181252900F08980272900F037
:106FE0009D80FC2979D0FD2950D0FE2961D0FF2950
:106FF00000F08C803BE11422DFF8641AFD2000F0E1
:107000008DF90122DFF85C1AFC2000F087F90122DB
:10701000DFF8541A252000F081F90622DFF84C1A17
:10702000132000F07BF90122DFF8441A142000F04D
:1070300075F90422DFF83C1A152000F06FF90422DC
:10704000DFF8341A162000F069F90422DFF82C1A50
:10705000172000F063F90422DFF8241A182000F04A
:107060005DF9DFF8200A0068002803D0DFF8140A71
:107070000068804700220021002000F04FF902E163
:1070800000220021002000F049F9FCE01422DFF882
:10709000D019FD2000F042F9F5E000220021022085
:1070A00000F03CF94FF47A700BF03AFCFFF73BF933
:1070B000E9E010220100DFF8D00912F064F90BF0CA
:1070C00012F900220021022000F028F94FF47A7012
:1070D0000BF026FCFFF727F9D5E0DFF8AC190078B4
:1070E000087400220021002000F018F9CBE000789D
:1070F000002801D0012000E00020DFF88C1948743E
:1071000000220021002000F009F9BCE00BF0EBF8B0
:1071100000220021002000F001F9B4E0042A40F030
:10712000B280DFF868190978491CDFF8602911700E
:1071300012F080F904000021DFF854090CF05CF82B
:107140000021DFF84C090CF033F9DFF844090CF0AA
:1071500029F8DFF83C090CF03FF822680021DFF83D
:1071600030090CF05FF862680121DFF824090CF0A7
:1071700059F8A2680221DFF818090CF053F82069C9
:10718000421C0621DFF808090CF04CF8606900F297
:107190006C720721DFF8F8080CF044F8E26804216B
:1071A000DFF8EC080CF03EF8A2690321DFF8E008F4
:1071B0000CF038F8E069421C0521DFF8D4080CF027
:1071C00031F80121DFF8C8080CF016F8DFF8C42800
:1071D0000021DFF8BC080CF013F90BF01DFA0022B7
:1071E0000021002000F09AF84DE006220100DFF8AF
:1071F0007C0812F0C8F800220021002000F08EF870
:1072000041E0DFF884180078087600220021002091
:1072100000F084F837E0DFF870180068C1F81D004E
:1072200000220021002000F079F82CE0DFF8581847
:107230000068C1F8210000220021002000F06EF853
:1072400021E0DFF844180068C1F82900002200217D
:10725000002000F063F816E0DFF82C180068C1F891
:10726000190000220021002000F058F80BE0DFF8A0
:1072700028180968002906D001001800C0B2DFF8FC
:1072800018381B68984710BD2DE9F04182B0040002
:10729000A08A083880B2F9282DD220000AF01FFBFE
:1072A00005002878002826D1A08A061F775900A853
:1072B0000FF07CFE5FF0000806E018F8051000A84B
:1072C0000FF078FE18F10108B045F6DB00A80FF0CA
:1072D0008BFE0098B8420ED10422DFF8C0172000C0
:1072E0000AF0FFFA6878DFF8B8170870EA78291D05
:1072F000A878FFF753FE0020BDE8F68101400200A8
:10730000984F00100156001024880100E8910100F8
:10731000488E010044780100AC8C01002DE9FC414D
:10732000070088461400F92C01DB00204AE014F124
:1073300008000AF0F5FB0500002D42D028000AF0F5
:10734000CEFA060002203070DFF854070078707023
:10735000B770F470B8F1000F06D0002C04D02200F2
:107360004146301D12F00FF801A80FF01FFE002754
:1073700004E0B95D01A80FF01DFE7F1C201D8742AF
:10738000F7DB01A80FF030FEA01901990171A019D7
:107390000199C1F307214171A0190199C1F3074176
:1073A0008171A0190199090EC1710095002340F265
:1073B000F162DFF8E806016800200AF07BFB01209B
:1073C00000E00020BDE8F6815C8E0100DC7C01005D
:1073D0000495010080B5DFF8C0261060DFF8A40630
:1073E0000160DFF8A406D0F81900DFF89C16D1F888
:1073F0001D105FF0FF325140084308F0F4F8DFF849
:107400009C16086000200090DFF8983640F2F16288
:10741000002100200AF0A4FB01BD00005C4D00101B
:10742000147D01000C950100047B0100407B0100EC
:10743000345500104C7D010070B505000C0016009D
:1074400000220021002000F0E7F8EDB2280000281B
:1074500006D0012805D0C02865D0FF2868D06AE092
:1074600076E0042E74D1DFF824060078401CDFF8A3
:107470001C160870200011F0DDFF04000021DFF869
:1074800010060BF0B9FE0021DFF804060BF090FFA8
:10749000DFF8FC050BF086FEDFF8F4050BF09CFE30
:1074A00022680021DFF8E8050BF0BCFE62680121CC
:1074B000DFF8DC050BF0B6FEA2680221DFF8D0058C
:1074C0000BF0B0FE2069421C0621DFF8C4050BF06A
:1074D000A9FE606900F26C720721DFF8B4050BF0B9
:1074E000A1FEE2680421DFF8A8050BF09BFEA2696B
:1074F0000321DFF89C050BF095FEE069421C052195
:10750000DFF88C050BF08EFE0121DFF884050BF00F
:1075100073FEDFF880250021DFF874050BF070FFA3
:107520000BF07AF814E0DFF86005217801740FE0C1
:107530000AF0D9FE0CE0DFF870050068002807D0DB
:10754000320021002800C0B2DFF85C351B68984784
:1075500070BD000084780100808201005084010029
:10756000205400102DE9FC41040000200190042269
:1075700001A920000AF0B5F9A08A083880B2F928DC
:1075800042D220000AF0ABF90500287800283BD150
:10759000A08A071F7E5900A80FF008FD5FF00008C1
:1075A00006E018F8051000A80FF004FD18F1010816
:1075B000B845F6DB002706E0DFF8CC04395C00A80C
:1075C0000FF0F8FC7F1C102FF6DB002705E0584871
:1075D000395C00A80FF0EEFC7F1C042FF7DB00A83D
:1075E0000FF002FD0098B0420ED10422DFF8BC1467
:1075F00020000AF076F96878DFF8B4140870EA78A9
:10760000291DA878FFF718FF0020BDE8F6810000CB
:10761000C4780100C48C01002DE9FC4107008846B4
:107620001400F92C01DB00205DE014F108000AF0E1
:1076300077FA0500002D55D028000AF050F9060011
:1076400002203070DFF8680400787070B770F47052
:10765000B8F1000F06D0002C04D022004146301DA6
:1076600011F091FE01A80FF0A1FC002704E0B95D24
:1076700001A80FF09FFC7F1C201D8742F7DB00272D
:1076800006E0DFF80404395C01A80FF093FC7F1CCE
:10769000102FF6DB002705E02548395C01A80FF024
:1076A00089FC7F1C042FF7DB01A80FF09DFCA019BB
:1076B00001990171A0190199C1F307214171A01924
:1076C0000199C1F307418171A0190199090EC17196
:1076D0000095002340F2F362DFF8D0030168002038
:1076E0000AF0E8F90120BDE8F68180B5DFF8B813AB
:1076F0000860DFF89403D0F81900DFF88C13D1F894
:107700001D105FF0FF325140084307F06CFFDFF8B7
:107710009C13086000200090DFF8983340F2F36279
:10772000002100200AF01CFA01BD0000708E01004B
:107730002C550010848E010010B5C0B20300002B40
:1077400009D0FE2B0AD0FF2B59D100220021FF20A7
:1077500000F052F95BE0FEF7E6FD58E0042A56D14E
:10776000CA480078401CC94A1070080011F062FE37
:1077700004000021C6480BF03FFD0021C4480BF077
:1077800017FEC3480BF00EFDC1480BF025FD226823
:107790000021BF480BF046FD62680121BC480BF098
:1077A00041FDA2680221BA480BF03CFD2069421C51
:1077B0000621B7480BF036FD606900F26C720721B4
:1077C000B3480BF02FFDE2680421B1480BF02AFD0D
:1077D000A2690321AE480BF025FDE069421C05219A
:1077E000AB480BF01FFD0121A9480BF005FDA94A8C
:1077F0000021A7480BF004FE0AF00EFF07E0AE4B95
:107800001B68002B03D0C0B2AB4B1B68984710BD60
:107810006C4D00105D4D0010D039001081650000E6
:10782000B0930100F0B583B0050000200190042260
:1078300001A928000AF055F8A88A083880B2F9286A
:107840003DD228000AF04BF80400A88A051F2E59E3
:1078500000A80FF0ABFB002704E0395D00A80FF093
:10786000A9FB7F1CAF42F8DB002705E08648395CA6
:1078700000A80FF09FFB7F1C102FF7DB002705E00F
:107880008E48395C00A80FF095FB7F1C042FF7DBB6
:1078900000A80FF0A9FB0098B04210D1E078291F92
:1078A00088420CD16078002809D060787649097C3C
:1078B000884204D0E278211DA078FFF73DFF002028
:1078C000FEBD0000445500104055001074540010D7
:1078D0003C5500106D6C00002DE9F04383B00400AE
:1078E000884691461D00FB2D01DB00207AE015F152
:1078F00008000AF015F90600002E72D0300009F0D9
:10790000EEFF0700022038705F48007C787087F82F
:107910000280FD70B9F1000F06D0002D04D02A00BE
:107920004946381D11F02FFD01A80FF03FFB5FF015
:10793000000806E018F8071001A80FF03BFB18F14B
:107940000108281D8045F5DB5FF0000807E04E4880
:1079500018F8001001A80FF02DFB18F10108B8F17C
