:100000000004001031930100755B01007D5B01006D
:0C001000855B01008D5B0100955B010029
:10001C00369FF7EF00000000000000000000000019
:10002C009D5B0100A55B010000000000FD6D01005F
:10003C0025460100AD5B0100B55B0100BD5B010015
:10004C00C55B0100CD5B0100D55B0100DD5B0100F0
:10005C00E55B0100ED5B0100F55B0100FD5B010060
:10006C00055C01000D5C0100155C01001D5C0100CC
:10007C00255C01002D5C0100355C01003D5C01003C
:10008C00455C01004D5C0100455E0000555C0100C3
:10009C005D5C0100655C01006D5C0100F3EE00002D
:1000AC00755C0100DF6500007D5C0100855C010072
:1000BC008D5C0100955C01009D5C0100A55C01005C
:0402FC0021436587AE
:1003000031323334350000000000000000000000EE
:1003100000000022C7A50003005B00A8C000FFFF8B
:10032000FF7900A8C00100A8C07900A8C00228F188
:10033000293230313420C0E2F2EECFE0F0EA0000A2
:100340000000002838313229D2E5EB2ECFEEE4E46C
:10035000E5F0E6EAE80000000F5A64010000000042
:10036000010003000001000001000000173B000035
:10037000173B0000173B0D05020501202020C0C2DD
:10038000D2CECCC0D2C8D7C5D1CAC0DF20CFC0D052
:10039000CACEC2CAC0202020000500C2DAC5C7C428
:1003A000CDCEC920C1C8CBC5D2000D0605050000C1
:1003B0000300CFF0EEE8E7E2EEE4F1F2E2EE2C200B
:1003C000EEE1F1EBF3E6E8E2E0EDE8E52C20F0E524
:1003D000ECEEEDF220EFEBE0F2EDFBF5000300E0D8
:1003E000E2F2EEECE0F2E8F7E5F1EAE8F520EFE022
:1003F000F0EAEEE2EEEA2C20F1E8F1F2E5EC20E49E
:10040000EEF1F2F3EFE02C000300E2E8E4E5EEEDBC
:10041000E0E1EBFEE4E5EDE8FF2C20F1E8E3EDE0C0
:10042000EBE8E7E0F6E8E9000400000D070404004B
:10043000C2EDE8ECE0EDE8E521000400CDE520ECBC
:10044000EDE8F2E520E1E8EBE5F22C20F1EEF5F045
:10045000E0EDFFE9F2E5000400E1E8EBE5F220E47D
:10046000EE20E2FBE5E7E4E020F120EFE0F0EAEE49
:10047000E2EAE82E000100CAEEECEFE5EDF1E0F66D
:10048000E8FF20E7E020F3F2E5F0FE20E1E8EBE50D
:10049000F2E020353030F0F3E12E000D08010100CC
:1004A000D1EFE0F1E8E1EE20E7E020C2E0F820E261
:1004B000E8E7E8F221000D09000D0F000000000040
:1004C000000000000000000000000000000000002C
:1004D000000000000000000000000000000000001C
:1004E000000000000000000000000000000000000C
:1004F00000000000000000000000000000000000FC
:1005000000000000000000000000000000000000EB
:1005100000000000000000000000000000000000DB
:1005200000000000000000000000000000000000CB
:1005300000000000000000000000000000000000BB
:1005400000000000000000000000000000000000AB
:10055000000000000000000000000000000000009B
:10056000000000000000000000000000000000008B
:10057000000000000000000000000000000000007B
:10058000000000000000000000000000000000006B
:10059000000000000000000000000000000000005B
:1005A000000000000000000000000000000000004B
:1005B000000000000000000000000000000000003B
:1005C000000000000000000000000000000000002B
:1005D000000000000000000000000000000000001B
:1005E000000000000000000000000000000000000B
:1005F00000000000000000000000000000000000FB
:1006000000000000000000000000000000000000EA
:1006100000000000000000000000000000000000DA
:1006200000000000000000000000000000000000CA
:1006300000000000000000000000000000000000BA
:1006400000000000000000000000000000000000AA
:10065000000000000000000000000000000000009A
:10066000000000000000000000000000000000008A
:08067000000000000000A55A83
:10200000BFF34F8F8F48006810F4E0608E4908439B
:102010008C490860BFF34F8FFEE78C4909688B4AF3
:102020001268521A8242FAD3704780B588488949AB
:10203000B1F9001089B20160854800680004844944
:102040000860834800684FF6FF71084380490860C4
:102050007F4802680221804812F03CF801BD80B53B
:102060007E49097800291CD17C4901220A707C49EB
:10207000086004227A4928200DF060FE79497848EA
:1020800000680DF0CFFC00280BD07648007811389E
:1020900003D0401E022801D903E002E0724801216A
:1020A000017001BD80B50DF042FA0022002102202E
:1020B0000DF044FE6D480121017001BD6C48012105
:1020C0000170704780B56B48012101706A4890F833
:1020D0005B0009F03AFC01BD6848012101707047BE
:1020E00080B5FFF7EFFF66480121017001BD65482B
:1020F00001210170704710B50400634814F09FFF80
:1021000060480021017021005F4817F089FC5E489B
:1021100014F057FF10BD5B48007870475B48012101
:102120000170704710B50400594814F088FF5748F3
:10213000002101702100564817F072FC544814F039
:1021400040FF10BD5148007870475248012101708E
:10215000704710B50400504814F071FF4D4800213D
:10216000017021004C4817F05BFC4B4814F029FF2C
:1021700010BD48480078704780B5474814F05FFFAD
:1021800044480021017001BD80B5434814F057FF59
:1021900040480121017001BD404909780843404988
:1021A000087070473F49097808433F4908707047F5
:1021B0003E4801210170704710B504003C4814F0FE
:1021C0003EFF3A48002101702100394817F028FCF1
:1021D000374814F0F6FE10BD34480078704780B5DB
:1021E000334814F02CFF31480121017001BD314901
:1021F00008707047304801210170704710B5040025
:102200002E4814F01CFF2C480021017021002B489F
:1022100017F006FC294814F0D4FE10BD26480078BB
:10222000704780B5254814F00AFF2348002101704B
:1022300001BD80B5214814F002FF1F480121017043
:1022400001BD00000CED00E00400FA05084000406C
:10225000D05900101A5A001000400240565A00107F
:10226000D4590010585A0010575A0010595A0010EB
:102270005A5A00109E0A0010D43500105B5A001004
:102280005C5A0010A00A001094570010A10A001018
:10229000A8570010A20A0010BC570010695A00107D
:1022A0005D5A00106A5A00105E5A0010A30A00100E
:1022B000D05700105F5A0010A50A0010E457001014
:1022C00070B586B002F020FE012002F0F8FD040097
:1022D000022002F0F4FD0500DFF8C01C200016F01B
:1022E000C3FDDFF8BC1C280016F0BEFD0021022053
:1022F00002F0F2FD0BF090FBDFF8A80C0BF0EBFB0B
:1023000004F074FADFF89C0C04F053FEDFF8541A62
:10231000DFF8540A0CF0C0FF0DF04CFA0DF07BFB17
:102320000DF0A0FCDFF8440A05F0C6FCDFF8780CDD
:1023300005F027FBDFF86C1BDFF86C0B05F096F956
:1023400004F0ACF8DFF8640B04F028FF0CF049FD52
:1023500009F0ECFADFF8540C90F85B0009F0F5FA9C
:10236000DFF84C0B03F0F0FD03F01EFBDFF8441B1D
:10237000002003F08EFBDFF8401B012003F089FBF7
:10238000002240F6B831012003F08BFBDFF8881BF8
:10239000022003F07EFBDFF8841B032003F079FBAF
:1023A000DFF87C1B042003F074FBDFF8781B0020AF
:1023B00003F08AFBDFF8701B012003F085FBDFF8D8
:1023C0006C1B032003F080FBDFF8641B042003F088
:1023D0007BFBDFF8601B052003F076FBDFF8C41DF4
:1023E000062003F071FB0021002003F0E7F8002233
:1023F000DFF8BC1BDFF8BC0B14F0D8FD0022DFF8BF
:10240000B81BDFF8B80B14F0D1FD0022DFF8B01BC9
:10241000DFF8B00B14F0CAFD0022DFF8AC1BDFF8C8
:10242000AC0B14F0C3FD0022DFF8A41BDFF8A40BF3
:1024300014F0BCFD0022DFF8740B017CDFF8980B70
:102440000DF0AAFEDFF8940B0078002805D00022DA
:102450000021DFF88C0B0DF09FFEDFF84C0D0078AB
:10246000002805D000220021DFF8780B0DF094FE43
:102470000021DFF8380D11F03FFEDFF8341D8842EF
:1024800013D0DFF8641B200016F0EEFCDFF80C2BF5
:10249000DFF8581B280016F0E7FC0321022002F0A9
:1024A0001BFDDFF8100D002101700422DFF8401B36
:1024B00034200DF043FC0422DFF8381B39200DF0E6
:1024C0003DFC0422DFF8301B3A200DF037FC0222DD
:1024D000DFF8281B38200DF031FC0CF0F4F8002058
:1024E00003F0D4FB002003F0B9FB00220021AA2056
:1024F0000DF024FC4FF4FA6011F07CF84FF4FA6010
:10250000FFF77CFE1021DFF8F80A15F0DDFB16F06E
:10251000E9FB14F004F90EF047F9002801D001207E
:1025200000E00020DFF8DC1A0870DFF8D80A007835
:1025300000280CD1DFF8D00A007800280BD1122037
:102540000DF0AFFADFF8C00A0121017003E0DFF8F7
:10255000B80A00210170C8200DF02DFB00280CD115
:10256000C8200DF0BFF8002807D1C8200DF00CFAE4
:10257000002802D1642011F03DF8DFF8300A407CD9
:10258000002820D0FFF7C7FD00281CD002F02CFA4D
:102590000490042204A9FE2005F07AFB042204A979
:1025A000FF200DF0CBFB15F079F8052148433C21C5
:1025B00090FBF1F201FB120000F22C104FF47A7143
:1025C0004843FFF798FD03F061FDDFF8EC0B00785E
:1025D000002807D0DFF8E00B00210170FFF725FD90
:1025E000FFF79CFDFFF7AEFD002813D04FF4FA5023
:1025F000FFF798FDDFF8040AB0F900004FF47A7194
:10260000884202DB40F2E73002E0002800D50020DB
:1026100002F07CFE0CF001FADFF8A00B0078002835
:1026200012D0022856D03DD3042800F0A180C0F07B
:102630007F80062800F0F180C0F00781082800F0B4
:102640005081C0F02F819FE1FFF793FD002800F03B
:102650009B81DFF8580990F85E00002805D0DFF86C
:10266000600B0078002840F08F81DFF8580B00786D
:10267000002808D04FF4FA70FFF76BFDDFF83C0B31
:102680000121017080E1DFF8400B0078002800F0A4
:102690007B814FF4FA70FFF75CFDDFF8200B062119
:1026A000017071E1FFF765FD002800F06D81DFF832
:1026B000140B0078002808D0DFF8100BFFF749FD55
:1026C000DFF8F80A022101705EE1DFF8F00A00216C
:1026D000017059E1DFF8D40890F85E0000280BD0B3
:1026E000DFF8DC0A0078002806D0FFF74DFDDFF8A0
:1026F000CC0A0021017047E1DFF8C80A0078002801
:1027000008D142F21070FFF724FDDFF8B00A032170
:10271000017039E1FFF72DFD002800F03581FFF74A
:102720002BFD00220021DFF8DC0D0DF035FD2BE143
:10273000DFF8940A0078002808D044F62060FFF7FC
:1027400008FDDFF8780A042101701DE1FFF711FD93
:10275000002800F0198100220021DFF8740A0DF032
:102760001BFDFFF711FDDFF8540A002101700BE19A
:10277000DFF8540A007800283DD1DFF8800800888F
:10278000401EDFF878180880DFF82C0A012101705C
:10279000DFF8180890F8680000280BD00122DFF855
:1027A000341A11200DF0CAFA0122DFF8281A11207C
:1027B00005F06EFADFF8F40790F8690000280BD0F6
:1027C0000122DFF8141A12200DF0B8FA0122DFF806
:1027D000081A122005F05CFA0222DFF820183820CF
:1027E0000DF0ACFA4FF4FA70FFF7B3FCDFF8CC0948
:1027F00000210170C8E0FFF7BCFC002800F0C48095
:10280000FFF7C2FCDFF8B4090021017000220021AB
:10281000DFF8C8090DF0C0FCB6E0FFF7AAFC0028FD
:1028200000F0B280DFF8A0090078002808D044F654
:102830002060FFF78EFCDFF8840905210170A3E01A
:10284000DFF87809002101709EE0DFF8600790F85A
:102850005E0000280BD0DFF868090078002806D059
:10286000FFF792FCDFF85409002101708CE0DFF8DB
:1028700058090078002808D142F21070FFF769FC6F
:10288000DFF83809072101707EE0FFF772FC0028AD
:102890007AD0FFF771FC00220021DFF844090DF027
:1028A0007BFC71E0DFF81C09007800280ED00022C4
:1028B0000021DFF830090DF06FFC42F21070FFF7D5
:1028C00048FCDFF8F808082101705DE0FFF751FCD3
:1028D000002859D0FFF758FCDFF8E008002101700C
:1028E00052E0DFF8E008007800283DD1DFF80C075F
:1028F0000088401CDFF804170880DFF8BC080121BD
:102900000170DFF8A80690F8680000280BD00122BB
:10291000DFF8C01812200DF011FA0122DFF8B41808
:10292000122005F0B5F9DFF8840690F86900002858
:102930000BD00122DFF8A01811200DF0FFF90122C1
:10294000DFF89418112005F0A3F90222DFF8AC1685
:1029500038200DF0F3F941F28830FFF7FAFBDFF889
:102960005C08002101700FE0FFF703FC00280BD08A
:10297000FFF70AFCDFF84408002101700022002163
:10298000DFF8DC0C0DF008FCDFF87C0B0078002889
:1029900009D002282BD019D3042860D046D30528AB
:1029A00000F08480A7E0012003F0C2F80CF02EFABA
:1029B000002804D1FFF710FC002800F09C80FFF7EE
:1029C0000EFCDFF8440B0121017094E0FFF704FCDA
:1029D000002800F09080002003F0AAF8DFF8840CB3
:1029E00000210170DFF8200B0221017083E0DFF885
:1029F000D0070078002808D0DFF8D007FFF7DCFB0D
:102A0000DFF8040B0321017075E0DFF85C0C00783F
:102A1000002870D0012003F08BF84FF49670FFF778
:102A2000CBFBDFF8E40A0421017064E0DFF89007D3
:102A30000078002804D1DFF8D00A022101705AE0A2
:102A4000FFF7CAFB002856D0DFF88007FFF7B4FB7A
:102A500000220021DFF8140C0DF09EFB4BE0DFF8A4
:102A60006007007800280CD1DFF8F80B0121017015
:102A7000DFF8FC0BFFF7A0FBDFF88C0A05210170E3
:102A800039E0002003F054F814F008FE052190FB13
:102A9000F1F201FB1200401C4FF496714843FFF71E
:102AA0008BFBDFF8640A0121017024E0DFF8B80B2A
:102AB0000078002803D0FFF78FFB00281BD0FFF71A
:102AC0008BFB002811D04FF47A70FFF775FB0020C4
:102AD00003F02EF8DFF88C0B00210170002200219A
:102AE000DFF8E00D0DF058FB01E0FFF778FBDFF8B1
:102AF000180A01210170DFF8B40490F8670000287B
:102B00000FD0DFF8F804B0F90000012804DBDFF88B
:102B1000640B0121017008E0DFF8580B00210170FF
:102B200003E0DFF8500B01210170DFF88806007820
:102B300003280BD0DFF87C060078092806D0DFF8E0
:102B400074060078052801D00AF0E7FFDFF8640674
:102B50000078002822D0022869D033D3042800F05E
:102B60009286C0F00581062800F02C87C0F0E6862A
:102B7000082800F05187C0F07D870A2801F01680F0
:102B8000C0F0B0870C2801F0BA80C1F040800E2858
:102B900001F04181C1F00C8101F052B90021DFF850
:102BA0000C0611F0A9FADFF80816884241F04881B6
:102BB0004FF47A70FFF722FBDFF8F805012101706E
:102BC00001F03EB9FFF72AFB002801F0398100200F
:102BD00003F05CF8002003F041F8DFF89C0A0021C4
:102BE0000160DFF8D40D00210170DFF8900A0021A8
:102BF0000160DFF8D40C00210170DFF8D00C002157
:102C00000170DFF87C0A00210170DFF8C40C00219C
:102C10000170DFF8C00C00210170DFF8680A0121A3
:102C20000170DFF890050221017001F009B9FFF78A
:102C3000F5FA002801F00481DFF8480A007800283E
:102C400008D0022847D0032819D0042856D00528D8
:102C500069D07CE0012003F001F841F288324FF4A2
:102C60007A71DFF8240A0AF039FFDFF8201A280009
:102C700016F0FAF80321022002F02EF967E0002096
:102C800002F0ECFFC94890F85B00002811D040F634
:102C9000B8324FF4FA61DFF8F8090AF01FFFDFF8E5
:102CA000F419280016F0E0F80321022002F014F9CC
:102CB0004DE040F6B8324FF4FA61DFF8DC090AF073
:102CC0000DFFDFF8D819280016F0CEF801210220F8
:102CD00002F002F93BE0002002F0C0FF00224FF4B6
:102CE000FA61DFF8BC090AF0F9FEAD49280016F0D8
:102CF000BBF80021022002F0EFF828E0012002F0EA
:102D0000ADFF40F6B8324FF4FA61DFF898090AF0E7
:102D1000E5FEDFF89419280016F0A6F8032102203A
:102D200002F0DAF813E0012002F098FF40F6B83222
:102D30004FF4FA61DFF8300D0AF0D0FEDFF8981B8F
:102D4000280016F091F80321022002F0C5F8DFF800
:102D50008C0B20210170DFF85C040321017001F06D
:102D60006FB800BFC9D200003B6F0000653E000095
:102D70000021DFF8380411F0BFF9DFF8341488427D
:102D800019D000220021DFF8580B0DF005FADFF80A
:102D9000541B200016F068F8DFF84C1B280016F0D2
:102DA00063F80021022002F097F84FF4FA6010F067
:102DB00021FCFFF725F9DFF8F0030078002819D08F
:102DC00000220021DFF8240B0DF0E6F9DFF8201BCC
:102DD000200016F049F8DFF8101B280016F044F820
:102DE0000021022002F078F84FF4FA6010F002FCA3
:102DF000FFF706F9FFF712FA002800F01181DFF85B
:102E0000DC0A0078202840F00181DFF8D00A3A215E
:102E100001704FF42F70FFF7F1F901F0E5FD059017
:102E200005A817F04BFB0600706900F26C70039068
:102E30003069401C0290F068019070680090DFF8E3
:102E40009C0A0378B268DFF8741B200016F00CF8B7
:102E5000564890F86A00B16888420BDBB068534965
:102E600091F86A10884229D17068504991F86B1026
:102E7000884223DBB0684D4991F86C1088420BDB27
:102E8000B0684A4991F86C10884217D1474890F8C9
:102E90006D007168884211DBDFF8240B012101709D
:102EA00010E000BF654100001D430000C146000066
:102EB0005F200000A5200000BD200000DFF8000B0F
:102EC00000210170394890F87200B16888420BDB2C
:102ED000B068364991F8721088422DD17068334934
:102EE00091F87310884227DBB068304991F874106C
:102EF00088420BDBB0682D4991F8741088421BD1D1
:102F00002A4890F875007168884215DBDFF8740D67
:102F10000121017014E000BFC5200000D92000008D
:102F2000E120000099210000A5210000EF21000010
:102F30000BE7000013E80000DFF8480D00210170E6
:102F40001A4890F86E00B16888420BDBB0681749E8
:102F500091F86E1088421CD17068144991F86F1076
:102F6000884216DBB068114991F8701088420BDB7B
:102F7000B0680E4991F8701088420AD10B4890F859
:102F800071007168884204DBDFF8E40A01210170F6
:102F900046E0DFF8DC0A0021017041E00236001053
:102FA0008CA201007FF00000A13F0000D43500108A
:102FB000EF200000945700101D210000A8570010BA
:102FC0004B210000BC570010B1210000D057001069
:102FD000F5210000E4570010A49C0100525A001093
:102FE000E08B0100A8940100C89E0100DC9E010056
:102FF0003E36001042360010463600101A5A0010B5
:1030000050580010555A0010A80A0010DFF8CC08DC
:10301000202101702020A0704FF49670FFF7EEF889
:10302000DFF8B80800783A2840F00A87DFF8500641
:103030000078002811D0DFF80C1E280015F014FFCE
:103040000021022001F048FF4FF4FA60FFF7D6F8A4
:1030500058480121017000F0F3BEDFF8440B0078FE
:10306000002814D1012002F0F9FDDFF8DC1D280052
:1030700015F0FAFE0121022001F02EFF4FF4FA6054
:10308000FFF7BCF84B480E21017000F0D9BE08F0E4
:103090006FFC002817D000220021DFF8080B0DF08C
:1030A000C7F8DFF8A41D280015F0DEFE012102207C
:1030B00001F012FF4FF4FA60FFF7A0F83D480E212F
:1030C000017000F0BDBEDFF8C00B0078002839D0D9
:1030D000DFF8B80B90F85B0000281DD001F084FCED
:1030E0000600DFF8C41A280015F0BEFE01210220F8
:1030F00001F0F2FE42F21070FFF780F83200DFF8C4
:103100004C0D0168DFF8840B007C08F053FC294863
:103110000421017000F094BEDFF8741B280015F044
:10312000A3FE0121022001F0D7FE40F6B830FFF7E0
:1031300065F8DFF8540B002101701E480121017071
:1031400000F07EBEDFF8440B90F85E00002817D038
:10315000DFF86C080078DFF81C1509780840194979
:1031600009780840DFF80015097891F00101C0B234
:10317000084205D0DFF8F0040121017000F060BEC4
:1031800010480078DFF8E014097891F00101084355
:10319000C0B2002828D1DFF8D0040021017000F06F
:1031A0004FBE00BF35E90000535A001000400240F6
:1031B000DDEEAA55A60A00109F0A00106B5A0010F7
:1031C0005F5A00105D5A00105E5A001020BF0200C6
:1031D000A09101003C3600103D3600109C87010094
:1031E00090880100C8910100DFF8A00A90F85E0005
:1031F000002804D0DFF86C040078002828D0DFF81D
:10320000C0070078DFF86C1409780840DFF8401C2C
:1032100009780840DFF8741A91F85D10084217D059
:103220000022002124200CF089FDDFF8681A280014
:1032300015F01AFE0021022001F04EFE40F6B830D3
:10324000FEF7DCFFDFF8100D0621017000F0F8BD7D
:10325000DFF8380A90F85E00002804D0DFF8040494
:103260000078002832D0DFF808080078DFF804146E
:1032700009780840DFF8D81B09780840DFF84816BD
:103280000978084222D0DFF8040A90F86600002886
:1032900009D1DFF838060078142804D0DFF82C06AE
:1032A0000078122812D1DFF8F419280015F0DCFD9F
:1032B0000021022001F010FE40F6B830FEF79EFF1C
:1032C000DFF8940C0621017000F0BABDDFF8BC09EC
:1032D00090F85E00002803D0E2480078002823D050
:1032E000DFF890030078DFF8681B09780840DFF802
:1032F000E0150978084217D00022002113200CF0B5
:103300001DFDDFF8581C280015F0AEFD002102203D
:1033100001F0E2FD40F6B830FEF770FFDFF8380C40
:103320000621017000F08CBDDFF8600990F85E00A6
:10333000002803D0CB480078002826D0DFF880068C
:103340000078CC4909780840DFF8041B0978084068
:10335000DFF80C1C0978084217D00422C74929203D
:103360000CF0ECFCDFF8EC1A280015F07DFD0021D4
:10337000022001F0B1FD40F6B830FEF73FFFDFF864
:10338000D80B0621017000F05BBDDFF8000990F852
:103390005B00002853D0DFF8F40890F85E000028A6
:1033A00003D0B0480078002849D0DFF8D80800786A
:1033B000B04909780840DFF8981A09780840DFF822
:1033C0001415097808423AD0DFF8800A0068401CDA
:1033D000DFF8781A0860DFF8740A0068DFF8781AF6
:1033E000884203D1DFF8640A01210160DFF85C0A3A
:1033F00002680121DFF8640A10F06CFE01F0F4FAB3
:103400009D4908609C480268DFF8400A0168DFF8BF
:103410007C08007C08F0B2FADFF8441A280015F0A6
:1034200023FD0121022001F057FD42F21070FEF74A
:10343000E5FEDFF8240B0421017000F001BDDFF888
:1034400078050078DFF88014097891F001010842CE
:1034500021D0DFF864050021017000220021DFF88F
:10346000040B0CF099FEDFF8001B200015F0FCFCAB
:10347000DFF8F81A280015F0F7FC0021022001F00F
:103480002BFD40F6B830FEF7B9FEDFF8CC0A02217A
:10349000017000F0D5BCDFF838040078DFF8C01AFE
:1034A00009780843DFF82C1409780843C0B20028D3
:1034B00000F02981012002F0D1FBDFF8140400782C
:1034C000DFF89C1A09780843C0B2002804D0002213
:1034D00000212B200CF032FC66480078002815D122
:1034E00000220021DFF8880A0CF056FEDFF8841A6B
:1034F000200015F0B9FCDFF8801A280015F0B4FCA4
:10350000E4E000BF948A0100A40A0010DFF8C403BD
:103510000078DFF87017097891F00101084210D0A7
:1035200000220021DFF8540A0CF036FEDFF8501AB2
:10353000200015F099FCDFF84C1A280015F094FCD7
:10354000C4E0DFF884030078DFF82415097891F0EF
:103550000101084210D000220021DFF82C0A0CF0F3
:103560001BFEDFF8281A200015F07EFCDFF8141A85
:10357000280015F079FCA9E0D3480078002824D071
:10358000D2480078132820D100220021DFF8000A59
:103590000CF002FEDFF8B808007800280AD00022FC
:1035A0000021DFF8F0090CF0F7FD042233493B203D
:1035B0000CF0C4FBDFF8E019200015F055FCDFF833
:1035C000DC19280015F050FC80E0DFF88408007852
:1035D000002814D100220021DFF8580B0CF0DCFD8C
:1035E000B9480078002804D0DFF84C1B200015F003
:1035F0003BFCDFF8481B280015F036FC66E0DFF8DE
:10360000C0030078002810D100220021DFF8300B21
:103610000CF0C2FDDFF82C1B200015F025FCDFF8B4
:103620006419280015F020FC50E0DFF8600690F8DF
:103630005E0000283AD00B480078002836D10022DE
:103640000021DFF8040B0CF0A7FDDFF8001B2000C1
:1036500015F00AFCDFF8F81A280015F005FC35E033
:1036600090810100675A0010665A0010F091010025
:1036700080A90300545A0010D8590010D4590010E2
:10368000595A0010A70A001080A40100CC94010030
:103690008CA40100BC9C01009CA20100ACA2010012
:1036A000BCA20100CCA20100D49C01000022002198
:1036B000DFF8A00A0CF070FDDFF89C1A200015F06E
:1036C000D3FBDFF8981A280015F0CEFB002102206A
:1036D00001F002FC40F6B830FEF790FDDFF88008FC
:1036E000002101707A48002101707A4800210170A0
:1036F000B14800210170744800210170DFF85808BA
:10370000012101709CE3DFF8BC0B0078002819D080
:10371000DFF8B00B00210170DFF8AC2BD3A128003B
:1037200015F0A2FBDFF8A40B0178022001F0D4FB16
:10373000DFF89C0B0088FEF761FDDFF81C08022112
:1037400001707DE39E48007800280DD1DFF8100A53
:103750000078002808D0DFF8080A00210170DFF89F
:10376000F807022101706BE395480078002818D013
:10377000DFF8180590F85E00002812D0DFF8540B2F
:10378000007800280DD0DFF8D8090078052808D087
:10379000DFF8CC0905210170DFF8BC0702210170B8
:1037A0004EE38748007800281DD0DFF8E00490F849
:1037B0005E00002804D0DFF81C0B0078002812D12E
:1037C000DFF8140B007800280DD1DFF89409007899
:1037D000042808D0DFF8880904210170DFF8780791
:1037E000022101702CE376480078002822D0DFF80F
:1037F0009C0490F85E00002804D0DFF8D80A007816
:10380000002817D1DFF8D00A0078DFF844160978CD
:1038100091F0010108420DD0DFF844090078022838
:1038200008D0DFF83C0902210170DFF82C070221E3
:10383000017005E362480078002800F00183DFF89A
:103840004C0490F85E00002805D0DFF8880A007864
:10385000002840F0F582DFF8800A0078DFF8F015E4
:103860000978084200F0EC82DFF8F40800780328B9
:1038700000F0E682DFF8E80803210170DFF8D806DF
:1038800002210170DCE208F065F8002832D040F631
:10389000B8324FF4FA61DFF8440A0AF01FF9DFF892
:1038A000401A280015F0E0FA0121022001F014FB73
:1038B0004EF66020FEF7A2FCDFF89C0605210170A1
:1038C000BEE200BF18920100575A0010585A00106B
:1038D0005A5A00105B5A0010CC960100A90A001039
:1038E000EC960100F09E0100049F0100189F01006A
:1038F0002C9F0100FEF792FC002800F0A18200221C
:103900000021DFF8E0090CF093FCDFF8DC0900216E
:103910000170DD4800210170DFF82C15280015F03A
:10392000A3FA0121022001F0D7FA4FF4FA60FEF762
:1039300065FCDFF824060E21017081E208F018F81A
:1039400000282AD1D0480078002814D0CE48002181
:103950000170DFF89819280015F086FA002102207E
:1039600001F0BAFA4FF4FA60FEF748FCDFF8E80518
:103970000121017064E2DFF87819280015F074FA6B
:103980000021022001F0A8FA40F6B830FEF736FC1C
:10399000DFF8C4050621017052E2FEF73FFC002863
:1039A00000F04E82FEF73DFC00220021DFF84409C2
:1039B0000CF0F2FB44E200BF565A0010EC9C0100F0
:1039C000605A0010DFF8300901210170DFF82C097E
:1039D0000078002809D0DFF82819200015F044FAF3
:1039E000DFF87405072101702AE2FEF717FC0028B2
:1039F00000F02682DFF80C19280015F035FA0321B3
:103A0000022001F069FADFF80009FEF7F7FBDFF8A2
:103A100048050821017013E2DFF8E008007800286B
:103A200011D0DFF8E818280015F01EFA0121022055
:103A300001F052FA40F6B830FEF7E0FBDFF8180567
:103A400007210170FCE1FEF7E9FB002800F0F88196
:103A500000220021DFF8B8080CF09EFB47F230503E
:103A6000FEF7CCFBECE100BFDCA2010025730000F7
:103A7000625A00100AF0C9FE002808D10AF04DFF72
:103A8000002804D1FEF7CAFB002800F0D9810AF013
:103A900044FF002805D100220021DFF878080CF04F
:103AA0007BFB002002F0DAF8012002F0EFF80AF0C8
:103AB000E8FD00F099FF0090042200A91E200CF000
:103AC0003DF940F6B830FEF799FB40F6B8324FF4B6
:103AD0007A61DFF844080AF001F8DFF87C04092174
:103AE0000170ADE1DFF8DC070078002814D0DFF8C2
:103AF000D40700210170DFF8D02767A1280015F056
:103B0000B3F9DFF8C8070178022001F0E5F9DFF822
:103B1000C0070088FEF772FBCD480078002815D159
:103B2000DFF88C0B00210170DFF8881B280015F0EE
:103B30009BF90121022001F0CFF942F21070FEF74B
:103B40005DFBDFF814040A21017079E1FEF766FBE2
:103B5000002800F07581DFF8601B280015F084F95B
:103B60000121022001F0B8F9DFF8440B00780028A9
:103B70000CD0DFF83C0B00210170FEF752FB002255
:103B80000021DFF8380B0CF007FB59E1DFF8200BC0
:103B90000121017047F23050FEF730FB50E100BFC9
:103BA0009E0A0010409201000CA30100DFF8C80B30
:103BB0000078002810D0002002F068F8DFF8BC1B65
:103BC000200015F051F942F21070FEF717FBDFF8F4
:103BD00088030C21017033E1FEF720FB002800F080
:103BE0002F8100220021DFF8980B0CF0D5FA00207D
:103BF00002F04CF8012002F031F80AF064FD41F2C5
:103C00008830FEF7FBFAD4480B21017018E10AF066
:103C100084FE002803D1FEF701FB002855D0DFF811
:103C2000640B006800283BD001A80021002200237B
:103C30000EC00C381548007C8DF8040083480068DD
:103C4000ADF80500DFF83C0B0068CDF8070000F088
:103C5000CBFECDF80B000B2201A9012004F018F8CF
:103C60000B2201A944200CF069F800220021DFF8A2
:103C7000180B0CF091FADFF8141B280015F0F4F87B
:103C800017E000BF615A00105C5A0010D4350010D4
:103C9000409F01001CA30100257300002CA301001C
:103CA000DFF8EC0AB0F90020DFF8E81A280015F078
:103CB000DBF80021022001F00FF941F28830FEF715
:103CC0009DFAA5480D210170BAE0DFF8AC0A007832
:103CD000002800F0B580002001F0C0FFDFF89C1A3A
:103CE000280015F0C1F80121022001F0F5F842F298
:103CF0001070FEF783FA98480C210170A0E0DFF8FD
:103D0000780A007800280FD0FEF788FA00280BD137
:103D1000DFF8840A90F86100002840F091800AF0F2
:103D200071FE002800F08C80FEF778FA002805D09C
:103D300000220021DFF8640A0CF02EFA002001F0C6
:103D4000A5FF012001F08AFF0AF0BDFCDFF8500A50
:103D50000078002816D00422DFF8481A212003F04A
:103D600097FF0422DFF83C1A3C200BF0E7FFDFF856
:103D7000380A0078002805D01321DFF8280A0068E7
:103D80000BF06BFEDFF8080AB0F90000421EDFF806
:103D9000041A280015F068F80021022001F09CF8B0
:103DA00042F21070FEF72AFA6B480D21017047E0CD
:103DB0000AF0B3FD002803D1FEF730FA00283FD007
:103DC000FEF72CFA002805D000220021DFF81C0B9A
:103DD0000CF0E2F9DFF820050021017060480021B5
:103DE0000170DFF8E00400210170DFF8AC0990F801
:103DF0006400002809D0DFF8A00990F864004FF4AF
:103E00007A714843FEF7FAF901E0FEF712FA5248D8
:103E10000121017014E0DFF8D80A007800280FD0E3
:103E2000DFF8D01A280015F01FF80021022001F059
:103E300053F84FF47A70FEF7E1F947480121017019
:103E4000FEF767BBECA20100FCA20100CC590010F8
:103E50005D5A0010689F010000CA9A3B0040024072
:103E60007C9F010038B50C001500C0B201284DD070
:103E7000022856D003285AD0112808D012281CD066
:103E8000132830D021285DD0222860D063E020782C
:103E9000002806D02078DFF8001991F868108842D1
:103EA00059D1DFF8EC080088401EDFF8E4180880DC
:103EB000DFF8440A012101704DE02078002806D087
:103EC0002078DFF8D41891F86810884243D1DFF8E1
:103ED000C0080088401CDFF8B8180880DFF8180A0E
:103EE0000121017037E0A078002806D0A078DFF823
:103EF000A81891F8681088422DD1DFF8940821881D
:103F00000180DFF8F4090121017024E02178D4F860
:103F100003000BF089FB2178D4F803000BF0AAFC16
:103F200019E02268217A60680BF06CFC13E0122122
:103F300020680BF0D4FD052D0DD1217920680BF000
:103F40008CFD08E0132120680BF087FD03E01421AD
:103F500020680BF082FD31BDA60A0010549F0100BD
:103F6000635A0010188D0100909F0100A49F01006A
:103F700068920100B89F0100CC9F0100148C0100E1
:103F80003CA301004CA30100488D0100E09F01000B
:103F90000C970100488C0100F49F010008A001006B
:103FA00038B50C001500C0B2010002292AD003293F
:103FB00000F0AA8005295AD00A2978D00B2900F0F0
:103FC0009680152921D0182918D019290AD01A2924
:103FD00014D01B2920D01C2925D03C293ED03D29B6
:103FE00028D09EE0122120680BF079FD052D40F0CD
:103FF0009F80217920680BF030FD99E020680BF05C
:1040000090FD95E0FEF75EF892E004222100DFF8D3
:10401000EC0816F002FA8BE004222100DFF8E00839
:1040200016F0FBF984E004222100DFF8D80816F02E
:10403000F4F97DE02078002806D02078DFF85817C2
:1040400091F86810884273D1B4F80100DFF8401786
:104050000880DFF8A4080121017069E0DFF830076B
:1040600021880180DFF890080121017060E0E01CE8
:1040700014F080FD50285BD2607895490880944800
:1040800000880002924908809148008821780843FE
:104090008F490880A0788D490870E11C8A4814F087
:1040A000D9F9884801210170FEF7C3F840E00AF011
:1040B00034FC002814D00AF0A5FE4EF66020FEF76E
:1040C0007BF8DFF84408002101700AF0DAFA00F00A
:1040D0008BFC0090042200A91F200BF02FFE27E08C
:1040E00000220021DFF824080CF056F820E00AF046
:1040F00089FE42F21070FEF75FF8DFF80C0800212D
:1041000001700AF0E0FA13E0DFF804080121017001
:10411000042D03D1DFF88C0621680160FEF789F8D1
:1041200006E00022C0B20100DFF8E8070CF034F826
:1041300031BD0000CC9901001CA0010030A001009D
:10414000AC8F01005CA30100788D010044A0010048
:1041500058A001002C9701006CA0010080A0010074
:10416000A70A00101CB5DFF8B00714F003FD421CCD
:10417000DFF8A417372003F01DFADFF8A00714F0CA
:10418000F9FC421CDFF89417382003F013FA0122DF
:10419000DFF88C17392003F00DFA0122DFF88417BD
:1041A000042003F007FA0122DFF87C17192003F03E
:1041B00001FA0122DFF87417FB2003F0FBF901225A
:1041C000DFF86C173A2003F0F5F90122DFF86417E5
:1041D0003B2003F0EFF90020019000208DF8000053
:1041E000002411E000AA01A9601CC0B20EF044FA3C
:1041F000002808D09DF80000421E0198411C601D57
:10420000C0B203F0D7F9641C052CEBDB0122DFF808
:1042100028170E2003F0CEF90122DFF820173520F1
:1042200003F0C8F90122DFF818172A2003F0C2F9B9
:104230000122DFF810172D2003F0BCF90122DFF86E
:1042400008172B2003F0B6F90122DFF800170D2024
:1042500003F0B0F90122DFF8F8163C2003F0AAF9C8
:104260000122DFF8F016242003F0A4F90122DFF880
:10427000E8162C2003F09EF90122DFF8E016282032
:1042800003F098F90122DFF8D816262003F092F9FE
:104290000222DFF8D016342003F08CF90422DFF874
:1042A0005C161C2003F086F90422DFF85416212046
:1042B00003F080F90422DFF84C16222003F07AF98B
:1042C00013BD0000645A001068520010655A0010B7
:1042D0001C5A00105F5A0010545A00106CA30100C1
:1042E00094A00100F09401005B5A0010A8A0010006
:1042F000BCA00100D88F0100665A0010675A001058
:10430000D0A00100E8990100C0D401007CA3010005
:1043100090920100049001008CA3010001B59DF86A
:10432000000004287CD0052800F0C980062800F091
:10433000D080072800F0D780082800F0DE80092808
:1043400000F0E5800D2800F023810E2800F0E980C0
:104350000F2800F08681192873D01C2800F0638193
:10436000212800F06A81222800F07181242800F0C1
:104370002381262800F04381282800F031812A2853
:1043800000F0E8802B2800F0F9802C2800F01E8136
:104390002D2800F0E980342800F03B81352800F01A
:1043A000CF8037280DD038281DD039282DD03A2875
:1043B00062D03B2874D03C2800F0F480FB2851D018
:1043C0006FE1162A00DB1522DFF84C0516F025F800
:1043D000DFF8C403002180F84210002200210020F1
:1043E00003F0E8F862E1162A00DB1522DFF82C055D
:1043F00016F013F8DFF8A003002180F85710002210
:104400000021002003F0D6F850E1DFF88C03097892
:1044100080F82D1000220021002003F0CBF845E1A8
:10442000DFF87403097880F85810DFF86C0390F80F
:10443000580000F04BFF00220021002003F0BAF8E2
:1044400034E1DFF85403097880F85910DFF84803A5
:1044500090F8590000F04AFF00220021002003F0EC
:10446000A9F823E1CC48097880F85A1000220021ED
:10447000002003F09FF819E10878002801D00120FE
:1044800000E00020C44981F85B00C34890F85B005D
:1044900007F05BFA00220021002003F08BF805E111
:1044A0000878002801D0012000E00020BA4981F8F6
:1044B0005C0000220021002003F07CF8F6E0D2B27C
:1044C00001200EF052F800220021002003F072F8C3
:1044D000ECE0D2B202200EF048F8002200210020C9
:1044E00003F068F8E2E0D2B203200EF03EF80022BA
:1044F0000021002003F05EF8D8E0D2B204200EF0D4
:1045000034F800220021002003F054F8CEE0D2B2AB
:1045100005200EF02AF800220021002003F04AF8BE
:10452000C4E00878002801D0012000E000209A496A
:1045300081F85D0000220021002003F03BF8B5E087
:104540009548097880F85E1000220021002003F0D1
:1045500031F8ABE09048097880F85F100022002124
:10456000002003F027F8A1E08B48097880F860105C
:1045700000220021002003F01DF897E0864809780A
:1045800080F8611000220021002003F013F88DE074
:104590008148097880F8621000220021002003F091
:1045A00009F883E07C48097880F863100022002134
:1045B000002002F0FFFF79E07748097880F8641066
:1045C00000220021002002F0F5FF6FE07248097818
:1045D00080F8651000220021002002F0EBFF65E06A
:1045E0000878002801D0012000E000206A4981F805
:1045F000660000220021002002F0DCFF56E0664841
:10460000097880F8671000220021002002F0D2FF14
:104610004CE00222D34815F000FF002200210020C8
:1046200002F0C8FF42E00422B44815F0F6FE002272
:104630000021002002F0BEFF38E00422B04815F04F
:10464000ECFE00220021002002F0B4FF2EE0042244
:10465000AC4815F0E2FE00220021002002F0AAFF83
:1046600024E0087800280BD00AF0CCFB4EF660203E
:10467000FDF7A2FDA448002101700AF002F80AE04B
:104680000AF0C0FB42F21070FDF796FD9E48002133
:1046900001700AF018F800220021002002F08AFFC1
:1046A00004E0012200A9012002F084FF01BD000006
:1046B0006C5A0010E4A001009CA30100CC8A010008
:1046C00070B50C00C0B2E0280CD0ED2835D0EE2833
:1046D0003DD0EF2845D0F12807D0F62817D0F7288D
:1046E00020D047E0FDF7EEFC44E02578641C2688E6
:1046F000A41C00F079F921683C2202FB1102241D60
:10470000B6B231002800C0B207F038F932E02078A4
:10471000002801D0012000E00020C0B207F05CF9C1
:10472000641C27E02078002801D0012000E0002050
:10473000C0B207F054F9641C1CE02078002801D0B6
:10474000012000E0002088490870641C12E02078F5
:10475000002801D0012000E0002084490870641C7A
:1047600008E02078002801D0012000E000208049E6
:104770000870641C70BD00005E5A0010ACA30100FC
:10478000B8920100D8590010049A0100F8A0010065
:104790001A5A0010BCA30100D43500107C8C010013
:1047A000575A0010D4590010555A00103EB510F059
:1047B00027FB01F089FA01F0D3F901F093F96D4874
:1047C000006850F480606B49086000246A484FF428
:1047D0008061016000256948006850F00200674967
:1047E00008606748006850F0040065490860654843
:1047F0000221016064484821016062480121016092
:104800006248FDF70AFC11F07DFF012804D111F088
:104810007FFF5F48012101700121002011F041FF5D
:104820005C4811F062FF0DF06FFE002803D05A487B
:104830000021017009E058480121017057486421A6
:104840000180FDF7F2FB0DF03CFE554812F0DCFE56
:10485000012154480FF050FC53490860022151488F
:104860000FF04AFC5149086050480068000C4B4961
:10487000088012F019FB4E484078401C4C494870A3
:104880000EF09DFE0FF0ECFE10F038FA394801688A
:1048900021F48061016000244FF4006245494648DC
:1048A00011F0AEF844480BF045FA434802F00CFB17
:1048B0004FF480724149424811F0A2F8404808F094
:1048C00086FC3F480BF0FCF9022002904FF4487040
:1048D00001903C4800903C4B64223C493C4813F01A
:1048E000DFFB12F0C1FA00203EBD00003090010055
:1048F0009E0A00100CA101009F0A00103E36001015
:104900004236001046360010A40A0010B08C010098
:10491000635A0010E09201000236001017360010B2
:10492000013600102C3600102D3600102E360010E7
:104930002F3600103036001031360010323600109D
:10494000333600103436001035360010363600107D
:104950003736001038360010393600103A3600105D
:104960003B3600103C360010695A00106A5A00109D
:10497000685A001040C009205CC00920C4C00F4024
:10498000A8C10F40044000400C40004020A1070097
:10499000525A0010404B4C00535A00101A5A001043
:1049A0005058001000400240CC590010D05900105F
:1049B000CC0900104C1A0010C0550010404E0010D9
:1049C000A45500106C3C0010C122000098A4010006
:1049D0007C540010DFF8F81D0968DFF8F42D126828
:1049E000521A8242F9D3704710B594B0DFF8F40937
:1049F0000078401CDFF8EC1908700BA9DFF8D40D23
:104A00000FF0F7FA0B9800900C9801900D98029017
:104A10000E9803901198401E04901298A0F26C70AA
:104A2000059000200690002007900020089000A824
:104A300012F0EAFB04000EF059FC200014B010BD87
:104A400030B585B004000D00DFF898090078401CEF
:104A5000DFF89019087012F027FA220070A100A860
:104A600014F002FA00A900200FF062FC2A006CA1E9
:104A700000A814F0F9F900A940200FF059FCFEE756
:104A800080B5DFF8181B00200FF052FCDFF8100B88
:104A90000078002806D0022848D009D3032800F067
:104AA0009E80B7E0DFF8FC1A40200FF041FCB1E037
:104AB000DFF8F40A0078002804D15AA140200FF052
:104AC00037FC04E0DFF8DC1A40200FF031FCDFF89F
:104AD000D80A0078002811D0DFF8D00A0068411CFD
:104AE000DFF8C82A1160042808D1DFF8C00A0021C5
:104AF0000160DFF8B40A002101708BE0DFF8A80A3A
:104B00000078002840F08680DFF8A00A0068411C89
:104B1000DFF8982A116001287CD1DFF8900A002183
:104B20000160DFF8840A0121017073E0DFF8800A78
:104B30000068DFF8801A401810F1100140200FF0D3
:104B4000F7FBDFF86C0A0068DFF8681A40181030CD
:104B500014F010F8DFF8601A0978002920D0112825
:104B600007DBDFF84C0A0068401CDFF8441A0860D5
:104B700050E0DFF83C0A006800284BD0DFF82C0A30
:104B80000068411CDFF8242A1160012842D1DFF8B7
:104B90001C0A00210160DFF8200A0021017039E0C1
:104BA000DFF80C0A0068012807DBDFF8040A006858
:104BB000401EDFF8FC1908602CE0DFF8F0090068FF
:104BC000411CDFF8E8291160042823D1DFF8DC0953
:104BD00000210160DFF8E009012101701AE0DFF82F
:104BE000D0090068411CDFF8C8291160DFF8C4193A
:104BF000411840200FF09CFBDFF8B80913F0BAFF12
:104C0000DFF8AC190968401F814203D3DFF8A0091F
:104C100005210160DFF88C0D12F0D3F901BD000011
:104C2000257300000000000030B589B00024002585
:104C300000200500DFF8A80B13F09CFF0400142CE3
:104C400004DAD4F11400022190FBF1F52A002021AE
:104C500000A815F08DFA621CDFF8841B00A8281844
:104C600015F0DBFB00A954200FF062FB0025DFF8F4
:104C7000D40B13F07FFF0400142C04DAD4F11400D9
:104C8000022190FBF1F52A00202100A815F070FA0E
:104C9000621CDFF8B01B00A8281815F0BEFB00A9A5
:104CA00014200FF045FBDFF8F40813F063FF040055
:104CB0000025142C04DAD4F11400022190FBF1F544
:104CC0002A00202100A815F053FA621CDFF8CC1846
:104CD00000A8281815F0A1FB00A900200FF028FB60
:104CE0000025DFF8C00813F045FF0400142C04DA97
:104CF000D4F11400022190FBF1F5DFF8A40800784C
:104D0000002806D0022850D00DD3032800F0A6803A
:104D1000BFE06842DFF89C18401810F110014020F5
:104D20000FF006FBB5E0DFF880080078002804D11A
:104D300074A140200FF0FCFA08E06842DFF8741814
:104D4000401810F1100140200FF0F2FADFF8580877
:104D50000078002811D0DFF854080068411CDFF803
:104D60004C281160042808D1DFF8400800210160B8
:104D7000DFF83408002101708BE0DFF82C080078A0
:104D8000002840F08680DFF824080068411CDFF826
:104D90001C28116001287CD1DFF810080021016077
:104DA000DFF804080121017073E0DFF804080068EF
:104DB000DFF80018401810F1100140200FF0B8FA89
:104DC000DFF8EC070068DFF8EC174018103013F03C
:104DD000D1FEDFF8E4170978002920D0112807DB7D
:104DE000DFF8CC070068401CDFF8C417086050E00B
:104DF000DFF8BC07006800284BD0DFF8B007006878
:104E0000411CDFF8A8271160012842D1DFF89C0778
:104E100000210160DFF8A0070021017039E0DFF810
:104E200090070068012807DBDFF884070068401E50
:104E3000DFF87C1708602CE0DFF870070068411C81
:104E4000DFF868271160042823D1DFF8600700210C
:104E50000160DFF86407012101701AE0DFF85007F4
:104E60000068411CDFF848271160DFF84817411837
:104E700040200FF05DFADFF83C0713F07BFEDFF80F
:104E8000301709680A38814203D3DFF82407052167
:104E90000160DFF8100B12F094F809B030BD80B556
:104EA000DFF8380C90F82D00022802D0042803D037
:104EB00004E0FFF7E5FD01E0FFF7B6FE01BD0128C4
:104EC00002D0022803D005E0DFF8D00603E0DFF8C7
:104ED000D40600E000207047022812D1DFF8C00697
:104EE0000170DFF8CC0605210160DFF8C006002163
:104EF0000160DFF8C40600210170DFF8AC06012173
:104F000001707047000000002DE9F04FA1B00020B3
:104F10008DF810000120059004AA0021DFF8A40BF1
:104F20000DF0B2FC002364220021DFF8980B0DF095
:104F3000B9FD00208DF80C0000208DF80D00012037
:104F40008DF80F0000208DF80E0003A9DFF8740B18
:104F50000DF04DFDDFF86C0B0DF032FD0121DFF897
:104F6000640B0DF00AFD0121DFF8580B0DF0EFFC8A
:104F7000DFF8640BD0E90023CDE91E231EA812F050
:104F80006BFCDFF8A40B006850F00800DFF8981BFA
:104F9000086000200090DFF8480B08210160002025
:104FA000009000220421DFF81C0B0DF0BBFD002354
:104FB000DFF8280B90F858200421DFF8080B0DF0DB
:104FC00071FD04208DF8080000208DF809000020F4
:104FD0008DF80B0000208DF80A0002A9DFF8E40A22
:104FE0000DF005FD01220421DFF8D80A0DF0CCFDFB
:104FF000DFF8380BD0E90023CDE91C231CA812F000
:105000002BFCDFF8240B006850F01000DFF8181BB1
:10501000086000200090DFF8C80A1021016000201D
:10502000009000220521DFF89C0A0DF07BFD002393
:10503000DFF8A80A90F859200521DFF8880A0DF05A
:1050400031FD05208DF8040000208DF805000020BA
:105050008DF8070000208DF8060001A9DFF8640A2A
:105060000DF0C5FC01220521DFF8580A0DF08CFD7A
:10507000DFF8E40AD0E90023CDE91A231AA812F0D8
:10508000EBFBDFF8400B006850F02000DFF8341B2A
:10509000086000200090DFF8300B20210160002024
:1050A0000090DFF8B80AD0E90023CDE9182318A84A
:1050B00012F0D2FBDFF80C0B006850F01000DFF8A4
:1050C000041B086000200090DFF8FC0A102101603A
:1050D00000200090DFF8F40AD0E90023CDE9162380
:1050E00016A812F0B9FBDFF8400A006850F400502F
:1050F000DFF8341A086000200090DFF8000B4FF44E
:105100000051016000200090DFF8C40AD0E90023BC
:10511000CDE9142314A812F09FFBDFF80C0A0068F5
:1051200050F40060DFF8001A086000200090DFF8FB
:10513000CC0A4FF40061016000200090DFF8C00A43
:10514000D0E90023CDE9122312A812F085FBDFF885
:10515000D809006850F48050DFF8CC1908600020AE
:105160000090DFF8980A4FF4805101600020009011
:10517000DFF8B80AD0E90023CDE9102310A812F017
:105180006BFBDFF8A409006850F04000DFF89819C5
:10519000086000200090DFF8640A402101600020D0
:1051A0000090DFF8B40AD0E90023CDE90E230EA861
:1051B00012F052FBDFF87009006850F08000DFF851
:1051C0006819086000200090DFF8300A8021016033
:1051D00000200090DFF8AC0AD0E90023CDE90C23D1
:1051E0000CA812F039FBDFF8A00A006850F08050DC
:1051F000DFF8941A08600024DFF8B80A5FF08051E5
:1052000001600025DFF8B00AD0E90023CDE90A23C8
:105210000AA812F021FBDFF8700A006850F0005075
:10522000DFF8641A08600026DFF8880A5FF0005192
:1052300001600027DFF8842AD2E90001CDE90801E6
:1052400008A812F009FBDFF87C09006850F00100A3
:10525000DFF8701908605FF00008DFF86C090121C1
:1052600001605FF00009DFF8582AD2E90001CDE9BA
:10527000060106A812F0F0FADFF84809006850F0BD
:105280000200DFF8401908605FF0000ADFF8380913
:10529000022101605FF0000B0FF028F81522202199
:1052A000BE4814F065FF61222021C24814F060FF5F
:1052B000FA22DFF8101ADFF8EC0611F077FEDFF8BB
:1052C000E40611F090FE21B0BDE8F08F80B5DFF864
:1052D0000C1881F858000023DFF8000890F85820D7
:1052E0000421DFF8E0070DF0DDFB01BD80B5DFF83C
:1052F000EC1781F859000023DFF8E00790F85920F7
:105300000521DFF8C0070DF0CDFB01BD4FF47A7128
:10531000884205DBDFF8D40A40F2E73101600BE098
:1053200010F1630F05DADFF8C40A7FF06201016053
:1053300002E0DFF8B81A0860704710B50C000100F1
:10534000DFF8880A0BF0F4FD2100DFF8800A0BF08B
:1053500039FFDFF87C0A01218170DFF8740A12F04E
:105360007BFADFF8700A01218170DFF8680A12F019
:1053700073FA0121DFF8540A0BF089FF10BD38B52C
:105380000021DFF8480A0BF082FFDFF8440A002111
:105390008170DFF83C0A12F05FFADFF82808006835
:1053A00050F40040DFF81C1808600024DFF81808EB
:1053B0004FF4004101600025DFF8180A00218170D8
:1053C000DFF8100A12F048FADFF8F807016821F454
:1053D000803101600020DFF8F0175FF480320A604E
:1053E000002131BDCC09001010B5DFF8EC090068D0
:1053F00000280CD0DFF8E0090068002800F0C88021
:10540000DFF8D40900688047002800F0C180DFF889
:10541000CC19DFF8CC09FFF790FFDFF8C8095FF47B
:105420008001016000244FF4FA70FFF7D3FADFF82F
:10543000B809F8210170DFF8B009A2214170DFF846
:105440009C0690F85A00FF214843642190FBF1F03C
:10545000DFF89419887001230322DFF88C19DFF834
:105460006C090BF03DFEDFF864090BF0A4FE012887
:10547000F9D04FF4FA70FFF7ADFADFF86C09F821B4
:105480000170DFF86409A4214170DFF86009006849
:10549000012804DBDFF850090021817003E0DFF808
:1054A0004809FF21817001230322DFF83C19DFF84E
:1054B0001C090BF015FEDFF814090BF07CFE012827
:1054C000F9D04FF4FA70FFF785FADFF81C09F821DC
:1054D0000170DFF81409A1214170DFF8100900689C
:1054E000012808DBDFF804090268BBA1DFF84C09DA
:1054F00013F0BAFC04E0B9A1DFF8400913F0B4FCE2
:10550000DFF8E4088078202803D1DFF8DC082E21BA
:105510008170DFF8D408C078202803D1DFF8C808EC
:105520002E21C170DFF8C0080079202803D1DFF8F0
:10553000B8082E21017101230522DFF8AC18DFF82D
:105540008C080BF0CDFDDFF884080BF034FE012849
:10555000F9D04FF4FA70FFF73DFADFF86C065FF40C
:1055600080010160002000230A22DFF87C18DFF8A8
:105570005C080BF0E8FD0028F5D1FFF700FFDFF82D
:10558000C0080068002803D0DFF8B408006880472E
:10559000DFF8C00A11F015FD10BD0000DC55001049
:1055A000445A0010C05100109C0A0010AC59001061
:1055B000A8590010B05100109B0A001038B5DFF850
:1055C00080281160DFF810180860DFF8780912F001
:1055D00043F9DFF8F005006850F48000DFF8E415C7
:1055E00008600024DFF8E0055FF480010160002519
:1055F000DFF8EC070BF046FDDFF8E4074FF4166127
:105600000160DFF8DC0703214171DFF8D4070021D6
:105610000171DFF8CC0700218171DFF8C0070BF0C2
:105620002FFEDFF8B8070321C170DFF8AC07006870
:1056300000280AD003E04FF47A700DF0DBFFDFF8AA
:105640009807006880470028F5D0DFF89017DFF84A
:105650009007FFF772FEDFF88C075FF480010160AE
:1056600000244FF4FA70FFF7B5F9DFF87C07F82152
:105670000170DFF87407A3214170DFF86C07002187
:10568000817001230322DFF86017DFF840070BF079
:1056900027FDDFF838070BF08EFD0128F9D04FF415
:1056A000FA70FFF797F901230322DFF83C17DFF8C0
:1056B0001C070BF015FDDFF814070BF07CFD01282B
:1056C000F9D04FF4FA70FFF785F901230322DFF8D0
:1056D0001817DFF8F8060BF003FDDFF8F0060BF003
:1056E0006AFD0128F9D04FF4FA70FFF773F9DFF87B
:1056F000D8045FF480010160002464200DF07AFF7B
:10570000DFF8E0065FF48001016000254FF4FA70D5
:10571000FFF760F9DFF8D006F8210170DFF8C8065E
:10572000A1214170DFF8C00643218170DFF8B8067F
:105730003021C170DFF8B006482101710123052234
:10574000DFF8A416DFF884060BF0CAFC012305225B
:10575000DFF89416DFF874060BF0C2FC0123052273
:10576000DFF88416DFF864060BF0BAFCDFF85C069D
:105770000BF021FD0128F9D04FF4FA70FFF72AF958
:10578000DFF844045FF480010160002000230A2256
:10579000DFF85416DFF834060BF0D5FC0028F5D1FD
:1057A000FFF7EDFDDFF898060068002803D0DFF86A
:1057B0009006006880474FF47A72DFF89C18DFF893
:1057C000940811F0F3FBDFF88C0811F00CFC31BDEC
:1057D000084000400040024025336400444430004B
:1057E00002360010C10706D5DFF8C8145FF4801236
:1057F0000A60002105E0DFF8DC1A5FF480120A601D
:105800000021C0B2810706D5DFF8A8145FF40012AA
:105810000A60002105E0DFF8BC1A5FF400120A609C
:105820000021C0B2400706D5DFF888045FF480216C
:105830000160002005E0DFF89C0A5FF48021016030
:10584000002070471736001010B50024082C80F295
:10585000A3802000C0B2FFF7C5FF0A20FFF7BAF807
:10586000DFF8F8070068400201D5012100E00021BF
:10587000C9B20A20DFF8E82700FB042012F084F9FF
:10588000012822D0022814D0032802D006282DD0C7
:105890003CE0DFF8D00750F82400002804D0DFF8FF
:1058A000C40750F824008047DFF8BC0702212154C8
:1058B0002CE0DFF8B80750F82400002826D0DFF8E5
:1058C000AC0750F82400804720E0DFF8A40750F828
:1058D0002400002805D00120DFF8941751F8241087
:1058E0008847DFF88407012121540FE0DFF88007A3
:1058F00050F82400002805D00020DFF8741751F874
:1059000024108847DFF8600700212154DFF864077E
:105910000068800301D5012100E00021C9B20A20FE
:10592000DFF8542700FB042012F02EF9002804D0E1
:1059300001280ED006281DD02CE0DFF8400750F8D3
:105940002400002826D0DFF8340750F824008047D0
:1059500020E0DFF82C0750F82400002805D00120B3
:10596000DFF81C1751F824108847DFF818070121C9
:1059700021540FE0DFF8080750F82400002805D074
:105980000020DFF8FC1651F824108847DFF8F406F1
:1059900000212154641C59E7DFF8F40A11F011FBCF
:1059A00010BD0000305700102DE9F04F8BB0DFF82C
:1059B000D806D0E90023CDE9082308A811F04CFF50
:1059C000B148006850F48010AF4908605FF0000AE9
:1059D000DFF800095FF4801101600024DFF8F808A7
:1059E000D0E90023CDE9062306A811F035FFA6482B
:1059F000006850F40010A44908600025DFF8D408BE
:105A00005FF4001101600026DFF8D028D2E9000120
:105A1000CDE9040104A811F01FFF9B48006850F471
:105A20008020994908600027DFF8A8085FF48021EA
:105A300001605FF00008DFF8A828D2E90001CDE995
:105A4000020102A811F008FF8F48016821F48001CB
:105A500001605FF00009DFF88C28D2E90001CDE990
:105A6000000100A811F0F8FE5648016821F4003149
:105A700001605FF0000B1422DFF86C18DFF8100AE9
:105A800011F094FADFF8080A11F0ADFA0BB0BDE896
:105A9000F08F021E082A03D2DFF8D02542F820102A
:105AA000704710B4031E082B09D20A23DFF8B04553
:105AB00003FB0043D980DFF8AC1541F8202010BC6F
:105AC0007047000000800140021E082A03D2DFF860
:105AD000B02542F820107047DCA50100D435001035
:105AE0005CC009201FB5DFF80408D0E90023CDE928
:105AF000022302A811F0B0FEDFF89809016821F432
:105B0000807101600024DFF8E807D0E90023CDE9C7
:105B1000002300A811F0A0FEDFF87809016821F445
:105B20008061016000201FBD40C00920E4A5010084
:105B3000C0B2002805D05F495FF400020A6000216E
:105B400005E0DFF890175FF400020A600021DFF83B
:105B50008819087070470000ECA50100F4A5010049
:105B600030B585B0DFF89007D0E90023CDE90223F6
:105B700002A811F071FE4448006850F40000424948
:105B800008600024DFF84C075FF400010160002585
:105B9000DFF80409D0E90023CDE9002300A811F0C3
:105BA0005BFEDFF8F008006850F02000DFF8E41832
:105BB00008600020DFF83C1720220A60002105B0B1
:105BC00030BD000000C0092018C00920FCA501005C
:105BD00004A60100C0B2002806D0DFF804195FF463
:105BE00000120A60002104E07E495FF400120A609E
:105BF0000021DFF8F01808707047000058C0092035
:105C00000CA60100C0B2002805D02A495FF08072BE
:105C10000A60002105E0DFF8BC165FF080720A60C0
:105C20000021DFF8C01848707047000014A601007A
:105C3000C0B2002805D01F495FF080620A600021D1
:105C400005E0DFF890165FF080620A600021DFF85F
:105C500094188870704700001CA60100C0B200288C
:105C600005D014495FF000720A60002105E0DFF8FA
:105C700064165FF000720A600021DFF86818C870CF
:105C80007047000024A6010020C00920C0B20028EF
:105C900005D008495FF000620A60002105E0DFF8E6
:105CA00034165FF000620A600021DFF838180871CE
:105CB0007047000038C009202CA6010034A601005E
:105CC0003CA601009F4E00002DE9F04F8BB0DFF89D
:105CD0001808D0E90023CDE9082308A811F0BCFD7D
:105CE000DFF80808006850F40010DFF800180860BA
:105CF0005FF0000B3B485FF4001101605FF0000AA9
:105D0000DFF8EC07D0E90023CDE9062306A811F05F
:105D1000A3FDDFF8E007006850F08070DFF8D417CB
:105D200008600024DFF8AC055FF080710160002599
:105D3000DFF8C427D2E90001CDE9040104A811F07D
:105D40008BFDDFF8B007006850F08060DFF8A41723
:105D500008600026DFF87C055FF0806101600027A5
:105D6000DFF89827D2E90001CDE9020102A811F07D
:105D700073FDDFF88007006850F00070DFF87417DB
:105D800008605FF00008DFF84C055FF0007101600B
:105D90005FF00009DFF86827D2E90001CDE90001D2
:105DA00000A811F059FDDFF84C07006850F00060C2
:105DB000DFF8401708600020DFF818155FF0006278
:105DC0000A6000210BB0BDE8F08F00000000014028
:105DD000380A0010400A0010B4590010B8590010D9
:105DE000BC5800101CC009206C5800106C0A001030
:105DF00080B5DFF8100700210170DFF80C0700689C
:105E00001A281AD1DFF8040700684008DFF8FC16EA
:105E10000860DFF8F80600680002000ADFF8EC16F8
:105E20000860DFF8EC060068002806D0DFF8DC0622
:105E30000068DFF8DC160968884701BD6E5800105D
:105E4000B059001080B511F02FF8DFF8C8060078BF
:105E5000401CDFF8C0160870DFF8B8064078401C18
:105E6000DFF8B0164870DFF89C06007800280FD1E4
:105E7000DFF8900601210170DFF88C060021016037
:105E8000DFF8880600210160DFF88C0611F099F830
:105E9000DFF874060068401CDFF86C160860DFF855
:105EA0006C0600684000DFF864160860DFF86C06D6
:105EB0000068C00201D5012000E00020C0B2002827
:105EC00007D0DFF85C06006850F48010DFF8501649
:105ED0000860DFF848060068000301D5012000E0F3
:105EE0000020C0B200280FD0DFF83406006850F45C
:105EF0000020DFF82C160860DFF81006006850F06C
:105F00000100DFF808160860DFF808064078401E38
:105F1000DFF800164870DFF8FC050078012806D18C
:105F2000DFF8F0054068002801D010F0AEFFDFF880
:105F3000E4050078401EDFF8DC15087010F0AEFFB5
:105F400001BD0000480A001010B504006422DFF80B
:105F5000D415DFF8C40511F029F8DFF8CC15252099
:105F60000EF0F3FBF02125200EF029FC25200EF089
:105F7000EEFBDFF8B805006850F48010DFF8AC15D0
:105F800008600020DFF8A415096851F40021DFF84B
:105F90009C2511600021DFF87825146010BDDFF822
:105FA000900501210170704710B50400DFF88405E9
:105FB00011F045F8DFF87805002101702100DFF8C5
:105FC000740513F02DFDDFF86C0510F0FAFF10BD1D
:105FD000DFF85C050078704780B5DFF8580511F0F0
:105FE0002EF8DFF84C050021017001BD80B5DFF807
:105FF0004825127892F001020B00DBB2134203D065
:10600000DFF8382501231370DFF82C251170DFF835
:106010003015097891F001010200D2B20A4203D092
:10602000DFF8201501220A70DFF814150870DFF878
:1060300008050078DFF8081509780843C0B2002881
:1060400004D0DFF80405FFF7AFFF01E0FFF7C4FF5E
:1060500001BD000044570010E953000034C009207E
:10606000E008001024550010C4580010045500101A
:106070004455001014C00920300900108455001048
:1060800064550010CC58001044A6010010B5FFF76D
:106090009FFF002809D0DFF8A00400210170DFF87D
:1060A000A00400210170FFF797FFDFF88C0400784F
:1060B000002800F0AE80DFF894040068DFF8901448
:1060C0000968884204D1DFF87404007800280BD0F6
:1060D000DFF87804DFF87814096801600222DFF83D
:1060E0007014202001F002F800241CE0DFF86404A2
:1060F000205CDFF86414615C884204D1DFF83C0462
:10610000007800280ED0DFF84C04DFF84C14615CF6
:1061100021540122DFF84004211814F12100C0B2FB
:1061200000F0E4FF641C082CE0DB00241CE0DFF836
:106130002C04205CDFF82814615C884204D1DFF86D
:10614000FC03007800280ED0DFF81004DFF81014EC
:10615000615C21540122DFF80804211814F1310098
:10616000C0B200F0C3FF641C082CE0DB00241CE07C
:10617000DFF8F003205CDFF86C13615C884204D127
:10618000DFF8B803007800280ED0DFF8D803DFF876
:106190005413615C21540122DFF84803211814F1E3
:1061A0004100C0B200F0A2FF641C052CE0DBDFF868
:1061B000B8030078DFF820130978884204D1DFF8AB
:1061C0007C03007800280AD0DFF89C03DFF808136E
:1061D000097801700122C049512000F087FFDFF8E3
:1061E0008C030078BD490978884204D1DFF84C035C
:1061F0000078002809D0DFF87403B84909780170E5
:106200000122B649522000F071FFDFF8300300216F
:106210000170DFF82C03007800285AD0DFF8500313
:106220000078DFF8201309780843C0B200280DD0A9
:10623000DFF83C0300210170DFF8380312F09AFC0C
:10624000421CDFF83013102000F050FFDFF8280365
:106250000078DFF8F01209780843C0B200280DD0AA
:10626000DFF8140300210170DFF8100312F082FC44
:10627000421CDFF80813112000F038FFDFF800039C
:106280000078B04909780843C0B200280BD0DFF885
:10629000F00200210170BB4812F06CFC421CB949AD
:1062A000152000F023FFB8480078A6490978084374
:1062B000C0B200280AD0B44800210170B34812F0DF
:1062C00059FC421CB149162000F010FF9D480021E6
:1062D000017010BD3CC009204CA6010054A601006D
:1062E0005CA6010064A60100495800006CA60100EC
:1062F00074A601005CC009207CA6010010B50C004A
:10630000A34991F82D10022902D0042960D0BEE0E3
:10631000C0B2002802D0402836D058E01422210014
:10632000944811F085FD00280BD0142221009148DB
:1063300014F073F88F48002101758D488049097861
:106340000170152293498F4811F072FD00283ED04C
:106350009048807820280DD102228E49894811F07A
:1063600067FD002806D10D228B498C4811F060FD95
:1063700000282CD015228749824814F04EF8804816
:106380006F490978017022E0142221007B4811F046
:106390004FFD00280BD014222100784814F03DF85E
:1063A00076480021017574486549097801705122C9
:1063B0007B49764811F03CFD002808D051227849ED
:1063C000724814F02AF870485D49097801705EE05F
:1063D000C0B2002802D0402836D058E01422210054
:1063E000644811F025FD00280BD0142221006148DB
:1063F00014F013F85F48002101755D485049097891
:106400000170152263495F4811F012FD00283ED04B
:106410006048807820280DD102225E49594811F049
:1064200007FD002806D10D225B495C4811F000FDF4
:1064300000282CD015225749524813F0EEFF50483F
:106440003F490978017022E0142221004B4811F0E5
:10645000EFFC00280BD014222100484813F0DDFF88
:106460004648002101754448354909780170512298
:106470004B49464811F0DCFC002808D0512248491D
:10648000424813F0CAFF40482D490978017010BDF9
:106490005857001040C0092084A6010080B515227D
:1064A0000021344813F064FE15220021334813F014
:1064B0005FFE15220021334813F05AFE51220021BD
:1064C000324813F055FE37480DF02FFF00223649B1
:1064D000184810F06BFD01BD455A0010465A0010D7
:1064E00018C00920D45800108CA6010000C0092053
:1064F00094A6010020C009209CA60100A4A60100CA
:10650000ACA60100475A0010C0590010C459001031
:10651000BC590010CC0900106C5700108880024054
:106520008C800240F15D0000455E000094800240D6
:106530009D0A001080570010485A0010495A001058
:106540004A5A00104B5A0010E0930400C85900103A
:106550006C0A0010DC580010C4580010E4580010F9
:10656000CC580010EC580010505A0010515A00102E
:106570004C5A0010F45500104D5A00100C560010E3
:106580004E5A0010245600104F5A0010145200109A
:10659000D4350010DC550010DF55001027560010D0
:1065A000C0510010FD6200009F5F000080B5DFF861
:1065B000340B09F0D4FFDFF8201C086001BDBFF3E5
:1065C0004F8FDFF8180C006810F4E060DFF8181B3C
:1065D0000843DFF8081C0860BFF34F8FFEE780B563
:1065E00010F062FCDFF8F80B0078401CDFF8F01BBD
:1065F0000870DFF8EC0B4078401CDFF8E41B4870B3
:10660000DFF8940B0068002803D0DFF88C0B0068DB
:106610008047DFF8CC0B4078401EDFF8C41B487081
:10662000DFF8BC0B0078012806D1DFF8B40B406816
:10663000002801D010F029FCDFF8A40B0078401EE0
:10664000DFF89C1B087010F029FC01BD38B5040070
:106650001500DFF8440B016020000EF076F82900E9
:1066600020000EF0ACF820000EF071F831BD00B53E
:1066700095B0DFF8700B016821F080410160DFF810
:10668000680BD0E90023CDE9122312A811F0E4F839
:10669000DFF8580BD0E90023CDE9102310A811F042
:1066A000DBF8DFF84C0BD0E90023CDE90E230EA870
:1066B00011F0D2F8DFF83C0BD0E90023CDE90C2330
:1066C0000CA811F0C9F8DFF8300BD0E90023CDE9B0
:1066D0000A230AA811F0C0F8DFF8200BD0E9002344
:1066E000CDE9082308A811F0B7F8DFF8140BD0E9BA
:1066F0000023CDE9062306A811F0AEF8DFF8040B5D
:10670000D0E90023CDE9042304A811F0A5F8DFF8AF
:10671000F80AD0E90023CDE9022302A811F09CF881
:10672000DFF8E80AD0E90023CDE9002300A811F042
:1067300093F8DFF8B00A006850F08040DFF8A41A40
:10674000086015B000BD80B54FF44051DFF8C00AB5
:1067500009F038FEDFF8BC0A09F00EFFDFF8B80ACE
:1067600009F036FFDFF8B40A007E002806D00023C7
:1067700000220021002007F0FBFE16E0DFF89C0A53
:10678000D0F81D10DFF8940AD0F8190009F028FF9E
:10679000DFF8880AD0F82110002009F02EFFDFF87A
:1067A0007C0AD0F8250013F021FE40F2DC510020D5
:1067B0000AF08CF84FF48071082009F0D3FF4FF4F1
:1067C000C061042009F0CEFF4FF480614FF4806077
:1067D00009F0D6FF002005F021FF5FF0FF3013F035
:1067E000A2FCDFF8B00D13F09BFC01BDE0B50AF090
:1067F00003F8022002904FF47A700190DFF8200A2B
:106800000090DFF8203A9622DFF81C1ADFF8880D96
:1068100011F046FC07BD00002DE9F04389B002E00D
:1068200032200CF0E7FE09F0BFFF0028F8D004A8E2
:10683000DFF8F819102211F06AFADFF8E009D0F851
:10684000290009F08CFE0590002507E0DFF8E0093B
:1068500000680FF06DF932200CF0CCFE01A9DFF8D2
:10686000D00900680FF049F90600632E00DB6226AC
:106870005FF0FF38002E00F01E8301980778019822
:10688000401C0190761E00220121022005F0A6F98D
:106890000400002C00F00F8300200090002341F240
:1068A00015025FF0FF31200005F04AFD40F6B830D8
:1068B00002900420009002AB41F205025FF0FF312C
:1068C000200005F03DFD40F6B83002900420009015
:1068D00002AB41F206025FF0FF31200005F030FD0F
:1068E000102204A9200005F091FA804618F1010F4A
:1068F00000F0DE8240F24E200090002E04D000987E
:1069000016F1A001081800905FF00009DFF88C0C68
:106910000021017064220021DFF8980D13F028FC9B
:10692000DFF8780C0078002849D002285FD052D3D5
:10693000042874D067D3062800F089807CD3082807
:1069400000F09D80C0F08F800A2800F0B380C0F076
:10695000A5800C2800F0C780C0F0B8800E2800F099
:10696000DA80C0F0CC80102800F0F080C0F0E28027
:10697000122800F00681C0F0F580142800F019817B
:10698000C0F00B81162800F02D81C0F01F8118285F
:1069900000F04081C0F032811A2800F06281C0F01E
:1069A00045811C2800F07581C0F067811E2800F029
:1069B0008881C0F07A811F2800F09881A3E1DFF878
:1069C000E01BDFF8F00C12F04FFA0500DFF8CC0BFB
:1069D0000121017097E1DFF8CC1BDFF8D80C12F031
:1069E00043FA0500DFF8B40B022101708BE1DFF8F8
:1069F000B81BDFF8C00C12F037FA0500DFF89C0B6B
:106A0000032101707FE1DFF8A41BDFF8A80C12F06E
:106A10002BFA0500DFF8840B0421017073E1009A62
:106A2000DFF88C1BDFF88C0C12F01EFA0500DFF883
:106A30006C0B0521017066E1ABA1DFF8780C12F058
:106A400013FA0500DFF8540B062101705BE1DFF853
:106A5000101CDFF8600C12F007FA0500DFF83C0BA1
:106A6000072101704FE1DFF8FC1BDFF8480C12F042
:106A7000FBF90500DFF8240B0821017043E1FDF765
:106A8000B3FF0200DFF8E01BDFF8280C12F0ECF98E
:106A90000500DFF8080B0921017034E1DFF8C01BA5
:106AA000DFF8100C12F0E0F90500DFF8F00A0A2117
:106AB000017028E1DFF8001CDFF8F80B12F0D4F9C0
:106AC0000500DFF8D80A0B2101701CE10122DFF874
:106AD000EC1BDFF8E00B12F0C7F90500DFF8BC0A89
:106AE0000C2101700FE1DFF8781BDFF8C80B12F002
:106AF000BBF90500DFF8A40A0D21017003E1DFF8FE
:106B0000C01BDFF8B00B12F0AFF90500DFF88C0AFC
:106B10000E210170F7E0DFF80407027CDFF89C1B10
:106B2000DFF8900B12F0A0F90500DFF8700A0F21D2
:106B30000170E8E0DFF8281BDFF8780B12F094F919
:106B40000500DFF8580A10210170DCE0DFF8741B43
:106B5000DFF8600B12F088F90500DFF8400A112118
:106B60000170D0E0DFF8600B0268DFF8501BDFF83F
:106B7000440B12F079F90500DFF8200A12210170A8
:106B8000C1E0DFF8DC1ADFF82C0B12F06DF905001C
:106B9000DFF8080A13210170B5E0DFF8301BDFF8D9
:106BA000140B12F061F90500DFF8F00914210170EF
:106BB000A9E03A00DFF8041BDFF8F80A12F054F9F4
:106BC0000500DFF8D809152101709CE0DFF8901A64
:106BD000DFF8E00A12F048F90500DFF8C0091621D5
:106BE000017090E0DFF8041CDFF8C80A12F03CF9ED
:106BF0000500DFF8A8091721017084E0DFF8F01B19
:106C0000DFF8B00A12F030F90500DFF8900918211A
:106C1000017078E0DFF8DC1BDFF8980A12F024F945
:106C20000500DFF87809192101706CE01022DFF807
:106C3000C81BDFF8800A13F0F0FB10252AA1DFF84B
:106C4000740A281812F010F94519002E04D0DFF844
:106C50004C091A21017056E0DFF840091F2101702C
:106C600051E0DFF8FC19DFF84C0A12F0FDF80500DE
:106C7000DFF828091B21017045E0DFF82C1CDFF844
:106C8000340A12F0F1F80500DFF810091C21017038
:106C900039E0DFF85C1BDFF81C0A12F0E5F80500AC
:106CA000DFF8F8081D2101702DE0DFF8481BDFF840
:106CB000040A12F0D9F80500DFF8E0081E2101707F
:106CC00021E032000199DFF8EC0913F0A6FB350052
:106CD00005A1DFF8E009281812F0C6F84519DFF819
:106CE000BC081F2101700EE00D0A0000DFF8BC1B7C
:106CF000DFF8C00912F0B8F805005FF00109DFF80D
:106D00009C0800210170681E642813D201200CF039
:106D100071FC00232A00DFF89C19200005F0C9FB54
:106D200080465FFA89F9B9F1000F03D118F1010F1C
:106D30007FF4F0AD002600200090002564220021A1
:106D4000DFF8700913F014FA5FF000095FF0000833
:106D500000230122DFF85C092918200005F026FB3A
:106D6000012840F09A806D1C022DC0F28B80DFF864
:106D70004409281810F8020C0D2840F08380DFF831
:106D80003409281810F8010C0A287BD1F6B230001B
:106D9000002802D0012810D06DE0112D0AD1112257
:106DA000DFF8201CDFF80C0911F042F8002801D1AF
:106DB000012660E05FF0FF385DE0022D4CD10098C5
:106DC000002846D00098652843DA64220021DFF8C5
:106DD000E40813F0CDF90023009ADFF8D81820005A
:106DE00005F0E4FA0500009885422FD15FF0010913
:106DF000022D10D102229BA1DFF8B80811F018F87B
:106E0000002808D1DFF8C0080068401CC0B2DFF8D5
:106E1000B81808602FE0082D15D100200390DFF886
:106E200094080021017203AA8FA1DFF8880812F0EC
:106E30009DFC012804D1DFF8900B039901601AE052
:106E40005FF0FF3817E05FF0FF3814E05FF0FF38C5
:106E500011E05FF001090EE01022DFF8701BDFF88F
:106E6000540810F0E5FF002805D100AA9CA1DFF826
:106E7000380C12F07BFC002564220021DFF8340876
:106E800013F076F9642D0ADB6D1E2A00DFF81C1C56
:106E9000DFF8200813F0C1FA01E05FF0FF385FFA75
:106EA00089F9B9F1000F03D118F1010F7FF450AF48
:106EB000200005F05EFB18F1010F7FF4C7AC4FF422
:106EC000FA600CF097FBC9E400B585B0D8490860BA
:106ED0009F218DF80C10012203A90EF0B5FD0220B0
:106EE00002904FF448700190DFF8C40B0090DFF877
:106EF000C43B6422DFF8C01BDFF8840D11F0D0F82A
:106F000005B000BD10B504000422B34920000BF009
:106F100090FEA08A4FF4807188420CD120000BF0C3
:106F200086FEDFF8381C0968002904D00021DFF84C
:106F30002C2C12689047002010BD80B5DFF8201C73
:106F40000860DFF8200C11F0C1FC01BD10B582B063
:106F500002E032200CF04EFB09F026FC0028F8D0AD
:106F6000DFF8000C11F050FFDFF8F40B0068002888
:106F7000F6D04FF480700BF07BFF0400002CEFD0B4
:106F800020000BF054FE4FF48072DFF8D41B096828
:106F900013F043FADFF8C80B0021016000940023CE
:106FA00040F2F462DFF8C00B016800200BF02AFF0A
:106FB000D6E7E0B5DFF8A41B08604A4809F0CFFA2D
:106FC0008549086000200090DFF8A03B40F2F562A0
:106FD000002100200BF06CFFDFF8880B13F0ADFBF5
:106FE000022002904FF47A700190DFF8980C009024
:106FF000DFF8943C6422DFF8941CDFF8E80C11F011
:107000004FF807BD80B5C0B20300002B04D0012BA0
:107010000BD0FF2B06D01AE000220021002000F048
:1070200065F81EE0FFF7CBFA1BE04878002801D096
:10703000012200E000220878002801D0012000E0B1
:1070400000201100C9B2C0B2FEF7D0FF09E0DFF89E
:10705000983C1B68002B04D0C0B2DFF88C3C1B6846
:10706000984701BD4F4B0000256C78002DE9F04199
:1070700082B00400A08A083880B2F9282DD22000FE
:107080000BF0D5FD05002878002826D1A08A061F20
:10709000775900A810F0F4FD5FF0000806E018F83A
:1070A000051000A810F0F0FD18F10108B045F6DB5E
:1070B00000A810F003FE0098B8420ED10422DFF8B9
:1070C0002C1C20000BF0B5FD6878DFF8241C08703C
:1070D000EA78291DA878FFF795FF0020BDE8F68122
:1070E000256400007900A8C00400FA052DE9FC41E0
:1070F000070088461400F92C01DB00204AE014F157
:1071000008000BF0B5FE0500002D42D028000BF062
:107110008EFD060001203070DFF8D40B007870700F
:10712000B770F470B8F1000F06D0002C04D0220024
:107130004146301D13F071F901A810F0A1FD0027A0
:1071400004E0B95D01A810F09FFD7F1C201D87425F
:10715000F7DB01A810F0B2FDA01901990171A01987
:107160000199C1F307214171A0190199C1F30741A8
:107170008171A0190199090EC171009500234FF486
:10718000DE62DFF8680B016800200BF03BFE012097
:1071900000E00020BDE8F6815059001080B5DFF80E
:1071A000481B08601D48D0F819001C49D1F81D1073
:1071B0005FF0FF325140084309F0D1F9DFF82C1B92
:1071C000086000200090DFF82C3B4FF4DE620021C5
:1071D00000200BF06DFE01BD5C5900100CED00E0CD
:1071E000CC090010C4C00F400CA5010014A501007B
:1071F0001CA5010024A501002CA5010034A5010057
:107200003CA5010044A501004CA5010054A50100C6
:1072100000000820049D0100E6350010D435001060
:10722000042E0010A10601005CA50100CCA1010004
:107230005859001010B503000800DBB219000029EE
:107240006AD0022975D0032921D0132900F01981B1
:10725000142900F02281152900F02981162900F057
:107260003181172900F03981182900F04181252941
:1072700000F08980272900F09D80FC2979D0FD2924
:1072800050D0FE2961D0FF2900F08C803BE115220F
:10729000DFF8641AFD2000F08DF90122DFF85C1A96
:1072A000FC2000F087F90122DFF8541A252000F0B5
:1072B00081F90622DFF84C1A132000F07BF9012235
:1072C000DFF8441A142000F075F90422DFF83C1AA4
:1072D000152000F06FF90422DFF8341A162000F0B0
:1072E00069F90422DFF82C1A172000F063F9042250
:1072F000DFF8241A182000F05DF9DFF8200A006892
:10730000002803D0DFF8140A00688047002200211B
:10731000002000F04FF902E100220021002000F0DF
:1073200049F9FCE01522DFF8D019FD2000F042F900
:10733000F5E000220021022000F03CF94FF47A70C1
:107340000CF058F9FFF73BF9E9E010220100DFF8F3
:10735000D00913F062F80BF0B4F8002200210220EB
:1073600000F028F94FF47A700CF044F9FFF727F990
:10737000D5E0DFF8AC190078087400220021002065
:1073800000F018F9CBE00078002801D0012000E0DF
:107390000020DFF88C19487400220021002000F042
:1073A00009F9BCE00BF08DF800220021002000F06C
:1073B00001F9B4E0042A40F0B280DFF868190978D6
:1073C000491CDFF86029117013F078F804000021DF
:1073D000DFF854090CF07AFD0021DFF84C090CF0BD
:1073E00051FEDFF844090CF047FDDFF83C090CF0D2
:1073F0005DFD22680021DFF830090CF07DFD626838
:107400000121DFF824090CF077FDA2680221DFF8E2
:1074100018090CF071FD2069421C0621DFF80809EB
:107420000CF06AFD606900F26C720721DFF8F80861
:107430000CF062FDE2680421DFF8EC080CF05CFD62
:10744000A2690321DFF8E0080CF056FDE069421C58
:107450000521DFF8D4080CF04FFD0121DFF8C80842
:107460000CF034FDDFF8C4280021DFF8BC080CF074
:1074700031FE0BF03BFF00220021002000F09AF8C3
:107480004DE006220100DFF87C0812F0C6FF002262
:107490000021002000F08EF841E0DFF88418007829
:1074A000087600220021002000F084F837E0DFF8A1
:1074B00070180068C1F81D0000220021002000F0B3
:1074C00079F82CE0DFF858180068C1F82100002294
:1074D0000021002000F06EF821E0DFF84418006879
:1074E000C1F8290000220021002000F063F816E016
:1074F000DFF82C180068C1F81900002200210020D4
:1075000000F058F80BE0DFF828180968002906D0C9
:1075100001001800C0B2DFF818381B68984710BD8A
:107520002DE9F04182B00400A08A083880B2F92821
:107530002DD220000BF07BFB05002878002826D1F7
:10754000A08A061F775900A810F09AFB5FF0000888
:1075500006E018F8051000A810F096FB18F10108D5
:10756000B045F6DB00A810F0A9FB0098B8420ED198
:107570000422DFF8C01720000BF05BFB6878DFF80F
:10758000B8170870EA78291DA878FFF753FE002085
:10759000BDE8F68101400200C8530010255A0010D2
:1075A0002C960100DCA10100289E01001C85010031
:1075B000849B01002DE9FC41070088461400F92C4A
:1075C00001DB00204AE014F108000BF051FC05003B
:1075D000002D42D028000BF02AFB0600012030705D
:1075E000DFF8540700787070B770F470B8F1000FCE
:1075F00006D0002C04D022004146301D12F00DFFB1
:1076000001A810F03DFB002704E0B95D01A810F0CF
:107610003BFB7F1C201D8742F7DB01A810F04EFBCF
:10762000A01901990171A0190199C1F307214171B4
:10763000A0190199C1F307418171A0190199090E9F
:10764000C1710095002340F2F162DFF8E80601689D
:1076500000200BF0D7FB012000E00020BDE8F68100
:107660003C9E0100B489010064A5010080B5DFF8EB
:10767000C0261060DFF8A4060160DFF8A406D0F889
:107680001900DFF89C16D1F81D105FF0FF32514051
