:1000000000040010FD9401006D5D0100755D0100AC
:0C0010007D5D0100855D01008D5D01003B
:10001C009293F7EF000000000000000000000000C9
:10002C00955D01009D5D010000000000D97001008C
:10003C001D480100A55D0100AD5D0100B55D01002D
:10004C00BD5D0100C55D0100CD5D0100D55D010008
:10005C00DD5D0100E55D0100ED5D0100F55D010078
:10006C00FD5D0100055E01000D5E0100155E0100E5
:10007C001D5E0100255E01002D5E0100355E010054
:10008C003D5E0100455E0100698900004D5E010086
:10009C00555E01005D5E0100655E0100C3EA000073
:1000AC006D5E0100538B0000755E01007D5E0100EA
:1000BC00855E01008D5E0100955E01009D5E010074
:0402FC0021436587AE
:1003000031323334350000000000000000000000EE
:1003100000000022C7A50003005E00A8C000FFFF88
:10032000FF7900A8C00100A8C07900A8C00F5A64D6
:100330008025000001000078001027000014003C18
:1003400000320064009600C800FA002C015E0190A3
:1003500001C201F401260258028A02BC02EE022008
:100360000352038403B603E8031A044C047E04B06A
:1003700004F4010D05000D060500002020202020BA
:10038000202020202020202020202020202020206D
:1003900020202020EFF0EEE8E7E2EEE4F1F2E2EEDA
:1003A0002C202020200000002020202020EEE1F141
:1003B000EBF3E6E8E2E0EDE8E52C20F0E5ECEEED2D
:1003C000F220EFEBE0F2EDFBF520202020202020B2
:1003D000000000202020E0E2F2EEECE0F2E8F7E599
:1003E000F1EAE8F520EFE0F0EAEEE2EEEA2C20F1A7
:1003F000E8F1F2E5EC20202020202000000020E49D
:10040000EEF1F2F3EFE02C20E2E8E4E5EEEDE0E1DE
:10041000EBFEE4E5EDE8FF2C20F1E8E3EDE0EBE8AE
:10042000E7E0F6E8E920000000000D07000D0800F5
:100430000D09000D0F00000000000000000000008A
:1004400000000000000000000000000000000000AC
:10045000000000000000000000000000000000009C
:10046000000000000000000000000000000000008C
:10047000000000000000000000000000000000007C
:08067000000000A55A00000083
:1020000038B500240025DFF8EC090068401CDFF833
:10201000E4190860DFF8E00910210170DFF8D80941
:102020003021417001230222DFF8CC19DFF8CC09FE
:102030000EF0AAFEDFF8C809C0690500DFF8C00984
:10204000C069401B652824DA00230122DFF8A819A3
:10205000DFF8A8090EF0CBFE0028EFD0DFF89409D6
:102060000068002806D0DFF88C090068401EDFF801
:1020700084190860DFF880090078800609D4DFF849
:10208000A00B0021017000220021DFF8980B0DF059
:10209000C4FE0A2011F0AAFBDFF85C0910210170D0
:1020A000DFF854093121417001230222DFF8481979
:1020B000DFF848090EF068FEDFF84409C569DFF86B
:1020C0004009C069401B652824DA00230122DFF89B
:1020D0002819DFF828090EF08AFE0028EFD0DFF873
:1020E00014090068002806D0DFF808090068401EBF
:1020F000DFF800190860DFF800090078000709D54B
:10210000DFF81C0B0021017000220021DFF8180B02
:102110000DF083FE0A2011F069FBDFF8DC081021C6
:102120000170DFF8D4083221417001230222DFF868
:10213000C818DFF8C8080EF027FEDFF8C408C56924
:10214000DFF8BC08C069401B652833DA0023012290
:10215000DFF8A418DFF8A4080EF049FE0028EFD03D
:10216000DFF890080068002806D0DFF888080068CB
:10217000401EDFF880180860DFF87C080078400611
:1021800009D5DFF89C0A0021017000220021DFF848
:102190009C0A0DF042FEDFF860080078800609D541
:1021A000DFF87C0A0021017000220021DFF8800A9C
:1021B0000DF033FE0A2011F019FBDFF83C08102166
:1021C0000170DFF834083321417001230222DFF867
:1021D0002818DFF828080EF0D7FDDFF82408C569B5
:1021E000DFF81C08C069401B652851DA0023012272
:1021F000DFF80418DFF804080EF0F9FD0028EFD02E
:10220000DFF8F0070068002806D0DFF8E80700686C
:10221000401EDFF8E0170860DFF8DC0700784007B1
:1022200009D5DFF8FC090021017000220021DFF848
:10223000040A0DF0F2FDDFF8C0070078000709D5A9
:10224000DFF8DC090021017000220021DFF8E80935
:102250000DF0E3FDDFF8A0070078800609D5DFF870
:10226000C0090021017000220021DFF8D0090DF023
:10227000D4FDDFF884070078400609D5DFF8A0090F
:102280000021017000220021DFF8B4090DF0C5FD26
:102290000A2011F0ABFADFF8600710210170DFF8B7
:1022A00058073421417001230222DFF84C17DFF870
:1022B0004C070EF069FDDFF84807C569DFF84007F5
:1022C000C069401B652838DA00230122DFF828178F
:1022D000DFF828070EF08BFD0028EFD0DFF8140799
:1022E0000068002806D0DFF80C070068401EDFF801
:1022F00004170860DFF84C09007800280ED1DFF8D9
:10230000F8060078000709D5DFF8380901210170C7
:1023100000220021DFF830090DF036FDDFF8D80685
:102320000078400609D5DFF8F80800210170002286
:102330000021DFF818090DF070FD0A2011F056FA9F
:10234000DFF8B40610210170DFF8AC0635214170CA
:1023500001230222DFF8A016DFF8A0060EF014FD1C
:10236000DFF89C06C569DFF89806C069401B652840
:102370001BDA00230122DFF88016DFF880060EF05A
:1023800036FD0028EFD0DFF86C060068002806D084
:10239000DFF860060068401EDFF858160860DFF8B6
:1023A00058060078800600D501240A2011F01EFA94
:1023B000DFF8400600680A280DDBDFF83806002148
:1023C0000160DFF85C080021017000220021DFF8C5
:1023D00080080DF022FD2000C0B232BDDFF8741875
:1023E00000E0491C0200501E002A0DD00A781C2A69
:1023F000F7D0491CDFF860281268DFF85838D21887
:102400009142F3D3002000E00800704730B583B05C
:102410000C00DFF848180870DFF83C1800220A604A
:10242000DFF83C180978491CDFF834281170DFF810
:1024300030180978202903D2DFF8241820220A70E6
:10244000DFF814180968DFF8B02502238B54DFF891
:1024500008180968491CDFF800281160DFF8F81730
:102460000968DFF8942541238B54DFF8EC170968DD
:10247000491CDFF8E4271160DFF8DC170968DFF892
:10248000782545238B54DFF8D0170968491CDFF8FD
:10249000C8271160DFF8C0170968DFF85C255223F0
:1024A0008B54DFF8B4170968491CDFF8AC271160BA
:1024B000DFF8A4170968DFF8402546238B54DFF8BE
:1024C00098170968491CDFF890271160DFF8881712
:1024D0000968DFF82425DFF888371B788B54DFF88C
:1024E00078170968491CDFF8702711600200DFF8CF
:1024F0007417DFF864070068DFF8FC34C01816F0C2
:102500002DFDDFF8541709684018DFF84C170860F4
:10251000DFF844070068DFF8E0141C224254DFF8BB
:1025200038070068401CDFF830170860E4B2002C60
:1025300055D0DFF8CC040078401CDFF8C4140870D4
:1025400005F0D0F9019010F0CDFF01A818F0AAF91C
:1025500004006069643800902069431CE268DFF879
:102560000817DFF8F4060068DFF88C54401916F0FD
:10257000F5FCDFF8E41609684018DFF8DC1608609F
:10258000DFF8D4060068DFF870141C224254DFF82C
:10259000C8060068401CDFF8C01608606368A268BF
:1025A000DFF8C816DFF8B0060068DFF84C44001901
:1025B00016F0D4FCDFF8A01609684018DFF898166A
:1025C0000860DFF894060068DFF82C141C224254DF
:1025D000DFF884060068401CDFF87C16086037BD11
:1025E00010B50400200016F0DBFB002106E00A5DB8
:1025F000F02A02D30A5D103A0A55491C814208DAD2
:102600000A5DC03AD2B2302AF1D20A5D403A0A5588
:10261000F3E710BD10B504002000FFF7E1FF220032
:1026200028A1DFF834060068DFF8CC33C01816F0B4
:1026300095FCDFF8241609684018DFF81C160860BE
:10264000DFF814060068DFF8B0131C224254DFF8EC
:1026500008060068401CDFF80016086010BD10B5C1
:10266000DFF8F4050068DFF8901303224254DFF826
:10267000E8050068401CDFF8E01508600020002134
:1026800004E0DFF874238A5C1018491CDFF8C825C1
:1026900012689142F5DBC2B2C0F30723DFF8D01510
:1026A000DFF8B4050068D44C001916F057FCDFF8C9
:1026B000A81509684018DFF8A0150860DFF898052C
:1026C000006810BD2573000030B585B001240120DD
:1026D000FFF784FE00AADFF89C1517F017FA022016
:1026E000FFF77CFE03AB04AADFF88C1517F00EFA97
:1026F0000498039950EA01250320FFF76FFE02AB0F
:1027000001AADFF8741517F001FA0098C0070AD57E
:10271000DFF80C050021017000220021DFF85C05C4
:102720000DF07BFB0024009880070AD5DFF8F00449
:102730000021017000220021DFF844050DF06DFB3F
:102740000024009840070AD5DFF8D4040021017066
:1027500000220021DFF82C050DF05FFB002400981B
:1027600080060AD5DFF8B80400210170002200219C
:10277000DFF814050DF051FB0024DFF81005007898
:1027800000280DD1009800070AD4DFF800050121C8
:10279000017000220021DFF8F8040DF0F5FA06E0E0
:1027A0000098000703D5DFF8E40400210170DFF88A
:1027B000E404007800280DD10098C0060AD5DFF89F
:1027C000D4040121017000220021DFF8CC040DF0B7
:1027D000DBFA06E00098C00603D4DFF8B804002155
:1027E0000170DFF8B804007800280DD10098400689
:1027F0000AD5DFF8A8040121017000220021DFF8CA
:10280000A0040DF0C1FA06E00098400603D4DFF8FA
:102810008C0400210170DFF88C04007800280DD1B1
:10282000009800060AD4DFF87C0401210170002220
:102830000021DFF874040DF0A7FA06E00098000606
:1028400003D5DFF860040021017015F00700DFF800
:102850005C1408702800C0060AD5DFF8C403002104
:10286000017000220021DFF848040DF0D6FA0024A0
:10287000280000060AD5DFF8A80300210170002215
:102880000021DFF830040DF0C8FA0024E8050AD46E
:10289000DFF88C030021017000220021DFF818040A
:1028A0000DF0BBFA0024DFF81404007800280CD1E6
:1028B000A8050AD5DFF804040121017000220021D7
:1028C000DFF8FC030DF060FA05E0A80503D4DFF89B
:1028D000EC0300210170DFF8EC030078002810D130
:1028E00028050ED4DFF8DC0301210170002200214D
:1028F000DFF8D4030DF048FADFF8D00301210170AE
:1029000005E0280503D5DFF8BC0300210170DFF8DE
:10291000C003007800280CD1E8040AD5DFF8B00322
:102920000121017000220021DFF8A8030DF02CFA2C
:1029300005E0E80403D4DFF8980300210170019852
:1029400002990843002830D00198152804D019288E
:102950000CD0292814D01AE00024B14804700022B9
:102960000021DFF874030DF058FA1EE00024AC4893
:10297000047000220021DFF864030DF005FA14E072
:1029800000220021DFF858030DF0FEF90DE00024CD
:10299000A3480470B1480278D249174816F0DEFA0D
:1029A000029A019914480DF038FAE4B2002C09D0CB
:1029B00010480068002819D00E480068401E0D49D4
:1029C000086013E00B480068801C0A490860094849
:1029D00000680A280ADB07480021016090480021AE
:1029E0000170002200219A480DF017FA2000C0B2B1
:1029F00005B030BD644D0010443D001000C00040E3
:102A0000CC0900102DE9F14F86B0B7480068401C92
:102A1000B54908600324FFF722FE04900126002335
:102A2000012200A9B1480EF0E2F90028F7D1F6B270
:102A3000002E07D00123049A8649AC480EF0A4F971
:102A4000002608E015208DF800000123012200A9CE
:102A5000A6480EF099F95FF000095FF0000AA4485B
:102A6000C5695FF0010B00270023012200A99F48E0
:102A70000EF0BDF9002800F0B9805FFA89F9B9F1CC
:102A8000000F08D0B9F1020F43D02BD3B9F1040FD6
:102A900079D061D3AAE09DF8000002280BD19DF8FF
:102AA00000806C489DF800100AF800101AF1010A25
:102AB0005FF001099AE09DF80000152803D1012676
:102AC0005FF0000B92E09DF80000182840F08E8027
:102AD000012700226148017886480DF09EF95FF0D9
:102AE000000B83E09DF800005D49097888420DD114
:102AF0009DF8000010EB080856489DF800100AF8F1
:102B000000101AF1010A5FF002096FE05FF0000B9C
:102B10006CE09DF8000010EB08084E489DF800108E
:102B20000AF800101AF1010ABAF1040F5ED14948FF
:102B30000021017103AA4B496F4816F0E7FF0128F5
:102B400007D1039845490978884202D15FF003090B
:102B50004CE05FF0000B49E09DF8000010EB080826
:102B60003C489DF800100AF800101AF1010A9DF87F
:102B7000000003283AD11FFA88F83748C0F800A0AF
:102B80005FF0040932E033489DF800100AF80010A5
:102B90001AF1010A30480068001D824526D12E48EE
:102BA00000682C4940180021017102AB01AA30498C
:102BB00029480068DFF89CC010EB0C0016F0A6FF57
:102BC000022811D10198029950EA01200190019840
:102BD000804506D1FFF778FD97F001010840C0B2AB
:102BE0001BE05FF0000B01E05FF0000B069840492E
:102BF000C969491B884201DA5FF0000B5FFA8BFB61
:102C0000BBF1000F7FF430AFFA2010F0EFFD200091
:102C1000441E00287FF403AF002007B0BDE8F08F0A
:102C20009E0A0010CC980100EC980100C09F0100A2
:102C3000C49C0100CC920100D89F0100F4920100D5
:102C4000A4900100124E00102C9601000C99010076
:102C50000CA20100443D0010684D00100F4E001002
:102C6000114E001084A90100E0A50100F0A70100A9
:102C7000FCA701008CA9010008A80100F09F010039
:102C8000E09C010008A00100FC9C0100134E001014
:102C9000189D0100144E00102C990100154E0010D3
:102CA0001C930100164E00104C9901009F0A001061
:102CB0006C9901008C99010020A20100174E0010B0
:102CC000349D0100184E001034A20100104E001077
:102CD000194E0010AC99010050960100CC990100EA
:102CE00048A2010044930100644D001000C0004060
:102CF000CC0900106C930100463D0010F0B5CFB038
:102D0000DFF8700ED0E90023CDE9452345A814F083
:102D100011FFDFF8840CD0E90023CDE9432343A859
:102D200014F008FF1FA80EF001F84FF416501F9082
:102D300003208DF8810000208DF8800000208DF8A0
:102D400082001FA9DFF8540C0DF046FF17A80EF003
:102D500004F903208DF85F0017A9DFF8400C0EF08E
:102D60009EF80121DFF8340C0EF0FEF84FF4FA6003
:102D700010F03CFD4EF6602403E0DFF8240C002147
:102D80000170DFF8F40D0078002827D1DFF8EC0D92
:102D900000210170DFF80C0C00210170DFF8E00D5C
:102DA00000210170DFF8040C00210170DFF8000C35
:102DB00000210170DFF8480D00210170DFF8F80BE9
:102DC00000210170DFF8F40B00210170DFF8B40D71
:102DD00000210160DFF8040D002101604FF4FA705A
:102DE00010F004FDDFF8900D00780028C9D0DFF85E
:102DF000980D0078002828D117A9DFF8A00B0EF055
:102E00004EF8FFF7FDF8C0B2012818D1DFF87C0DAD
:102E1000012101704FF4FA70A4B2844215D3B4F5C5
:102E2000FA744FF4FA70A4B284420ED20022002148
:102E3000DFF85C0D0CF0A8FF4EF6602405E04EF6BE
:102E40006024DFF8480D00210170DFF8540B007892
:102E500000286AD0DFF8300D007800288DD10021DD
:102E60004320FFF7D3FAC820FFF7CCFD002888D015
:102E70000520FFF7B3FA29A900912AAB2BAADFF8A6
:102E8000841C16F043FE0620FFF7A8FA27AB28AAF9
:102E9000DFF8741C16F03AFE0021DFF8F80C11F090
:102EA00011F90021DFF8EC0C11F0E8F9DFF8E40C7F
:102EB00011F0DEF8DFF8DC0C11F0F4F8002200214C
:102EC000DFF8D00C11F014F9279A0121DFF8C40CB7
:102ED00011F00EF9289A0221DFF8B80C11F008F968
:102EE0002A9A0621DFF8AC0C11F002F9299810F5A6
:102EF000FA620721DFF89C0C11F0FAF82B9A0421F2
:102F0000DFF8900C11F0F4F80121DFF8880C11F0D3
:102F1000D9F8DFF8782E0021DFF8780C11F0D6F917
:102F2000DFF87C0A002101702BE7DFF8900A0078B7
:102F3000002845D0DFF8500C007800283BD1012153
:102F40003220FFF763FADFF83C0C0268DFF84C1C14
:102F500006A816F003F806A8FFF75CFBDFF8401C94
:102F600006A815F0FBFF06A8FFF754FB41F28830D6
:102F7000FFF748FD002822D00620FFF72FFA26AAE7
:102F8000A5A116F0C3FD269815F0E4FA02000B0087
:102F9000DFF8101C06A815F0E1FF0022002106A8AA
:102FA0000CF0F2FEDFF8DC0B00210160DFF80C0A08
:102FB0000021017003E0DFF8040A00210170E0E65F
:102FC000DFF8F4090078002845D0DFF8BC0B007862
:102FD00000283BD101213320FFF718FADFF8A40BBA
:102FE0000268DFF8B81B06A815F0B8FF06A8FFF7BF
:102FF00011FBDFF8AC1B06A815F0B0FF06A8FFF721
:1030000009FB41F28830FFF7FDFC002822D00620A2
:10301000FFF7E4F925AA80A116F078FD259815F0B0
:1030200099FA02000B00DFF8801B06A815F096FF46
:103030000022002106A80CF0A7FEDFF8480B0021B3
:103040000160DFF874090021017003E0DFF868090E
:103050000021017095E6DFF858090078002818D0A3
:10306000DFF8240B007800280ED101213020FFF773
:10307000CDF949F64040FFF7C5FC002808D0DFF83D
:1030800030090021017003E0DFF8240900210170FC
:1030900077E6DFF818090078002820D0DFF8E80A82
:1030A0000078002816D101213120FFF7AFF949F649
:1030B0004040FFF7A7FC002803D0DFF8F00800210C
:1030C000017001214220FFF7A1F94FF47A70FFF758
:1030D00099FC03E0DFF8D4080021017051E6DFF825
:1030E000200A0078002800F06A81002500260027C9
:1030F000DFF8940A0078002834D101213420FFF74A
:1031000085F94FF47A70FFF77DFC002840D0052048
:10311000FFF764F934AA40A116F0F8FC0F20FFF77E
:103120005DF935AA3CA116F0F1FC1520FFF756F920
:1031300036AA39A116F0EAFC1620FFF74FF937AA94
:1031400035A116F0E3FC1720FFF748F938AA32A1A1
:1031500016F0DCFC389815F061FBDFF88019086088
:10316000012515E0DFF8900C3490DFF8900C3590D5
:10317000DFF88C0C3690DFF88C0C3790DFF8880C79
:103180003890389815F04AFBDFF85019086001258F
:103190000A2010F02BFBDFF8F009007800283DD161
:1031A00000213720FFF732F94FF47A70FFF72AFC3D
:1031B00000284CD00F20FFF711F939AA16A116F0FC
:1031C000A5FC1120FFF70AF93AAA13A116F09EFCFC
:1031D0001220FFF703F93BAA0FA116F097FC13206A
:1031E000FFF7FCF83CAA0CA116F090FC3C9815F0F7
:1031F00015FBDFF8E81808601420FFF7EFF83DAA88
:1032000005A116F083FC1620FFF7E8F83EAA02A1FC
:1032100016F07CFC01261AE025660000DFF8DC0BC6
:103220003990DFF8DC0B3A90DFF8D80B3B90DFF8F1
:10323000D80B3C903C9815F0F1FADFF8A018086024
:10324000DFF8100E3D90DFF8C40B3E9001260A20F7
:1032500010F0CCFADFF830090078002840F08580C3
:1032600000213D20FFF7D2F84FF47A70FFF7CAFB38
:10327000002800F095800520FFF7B0F804AB05AA00
:10328000DFF8D41D16F042FC0498059951EA00209D
:10329000ADF8FC000620FFF7A1F804AB05AADFF8A3
:1032A000B81D16F033FC0498059951EA0020ADF8DA
:1032B000FE000820FFF792F804AB05AADFF8981D7E
:1032C00016F024FC0498059951EA0020ADF800019D
:1032D0000A20FFF783F804AB05AADFF87C1D16F07F
:1032E00015FC0498059951EA0020ADF802010B2065
:1032F000FFF774F804AB05AADFF85C1D16F006FCB6
:103300000498059951EA0020ADF804010C20FFF75C
:1033100065F804AB05AADFF8401D16F0F7FB04982A
:10332000059951EA0020ADF806011120FFF756F883
:1033300004AB05AADFF8201D16F0E8FB04980599F8
:1033400051EA0020ADF808011220FFF747F804AB5E
:1033500005AADFF8041D16F0D9FB0498059951EA77
:103360000020ADF80A0101271AE00520ADF8FC00A5
:103370000720ADF8FE000920ADF800010B20ADF8E4
:1033800002010F20ADF804011520ADF806014FF43D
:103390006960ADF8080140F2DD40ADF80A0101278F
:1033A00016EA0500C0B2384208D03C2234A90A20EF
:1033B0000CF0BCFADFF8480700210170E1E4DFF807
:1033C000C8070078002823D101210120FFF71EF84B
:1033D000C820FFF717FB00283FF4D3ACDFF87C0CC4
:1033E0000078002814D001211720FFF70FF84FF4C0
:1033F0007A70FFF707FB002809D1DFF87C0700216E
:10340000017000220021DFF85C0C0CF006FDB8E42E
:10341000DFF86C070078002800F08D82DFF84C0C94
:103420000078002842D0DFF860070078002839D102
:1034300001210220FEF7EAFFDFF8980E0268DFF8AC
:10344000381C06A815F08AFD06A8FFF7E3F84FF42C
:10345000FA70FFF7D7FA00280AD1DFF81C0700211D
:10346000017000220021DFF8140C0CF0D6FC88E477
:10347000DFF8600E0068401CDFF8581E0860DFF8B7
:10348000540E0068DFF8F81B884203D1DFF8440EC1
:1034900001210160DFF83C0E02680221DFF8F4062A
:1034A00010F014FFDFF8C40B00210170DFF8D40B1B
:1034B0000068401CDFF8CC1B0860DFF8C80B006810
:1034C000DFF8BC1B884203D1DFF8B80B0121016093
:1034D000DFF8B00B02680121DFF8B80610F0F6FE45
:1034E000DFF8A40BDFF89C1B0968A0F801100A2084
:1034F00010F07CF9DFF890060078002814D1012143
:103500005020FEF783FF4FF47A70FFF77BFA002814
:103510000AD1DFF864060021017000220021DFF8E3
:103520006C0B0CF07AFC2CE40A2010F05FF9DFF849
:103530005806007800280ED100215120FEF766FFC2
:10354000C6A106A815F00AFD06A8FFF763F84FF418
:103550007A70FFF757FA0A2010F048F9DFF82806CA
:103560000078002850D100215120FEF74FFFDFF8EE
:10357000680D027CDFF81C1B06A815F0EFFC06A8FE
:10358000FFF748F84FF47A70FFF73CFA0A2010F082
:103590002DF900215120FEF739FFDFF8EC0AB0F8D1
:1035A0000120DFF83C1D06A815F0D8FC06A8FFF79F
:1035B00031F84FF47A70FFF725FA0A2010F016F967
:1035C000DFF8C40AD0F80300249024A817F06AF9A1
:1035D000050000215120FEF719FF686900F26C70A8
:1035E00002902869401C0190E86800906B68AA6806
:1035F000DFF8681E06A815F0B1FC06A8FFF70AF868
:103600004FF47A70FFF7FEF90A2010F0EFF8DFF8B8
:103610007805007800280ED100215120FEF7F6FE33
:103620008EA106A815F09AFC06A8FEF7F3FF4FF44A
:103630007A70FFF7E7F90A2010F0D8F8002517E0B4
:10364000DFF84405007800280FD100215120FEF753
:10365000DDFE169ACFA106A815F080FC06A8FEF79D
:10366000D9FF4FF47A70FFF7CDF90A2010F0BEF8B9
:103670006D1C2800C0B206280CD216A800900DF1CF
:1036800046030DF147022900C9B202200BF0EDFEFE
:103690000028D5D1DFF8F0040078002811D1EDB270
:1036A000022D0ED300215120FEF7B0FE6BA106A81B
:1036B00015F054FC06A8FEF7ADFF4FF47A70FFF743
:1036C000A1F90A2010F092F8002517E0DFF8B804FD
:1036D000007800280FD100215120FEF797FE169A9E
:1036E000ACA106A815F03AFC06A8FEF793FF4FF42C
:1036F0007A70FFF787F90A2010F078F86D1C28001F
:10370000C0B206280CD216A800900DF146030DF1A8
:1037100047022900C9B205200BF0A7FE0028D5D129
:10372000DFF864040078002811D1EDB2022D0ED329
:1037300000215120FEF76AFE48A106A815F00EFCF4
:1037400006A8FEF767FF4FF47A70FFF75BF90A20CF
:1037500010F04CF8DFF8800E0078002800F0BC80F4
:10376000DFF824040078002826D100211A20FEF773
:103770004DFE8DA106A815F0F1FB06A8FEF74AFF45
:103780008CA106A815F0EAFB06A8FEF743FFD2A11C
:1037900006A815F0E3FB06A8FEF73CFF88A106A8E3
:1037A00015F0DCFB06A8FEF735FF86A106A815F08C
:1037B000D5FB06A8FEF72EFFDFF8CC08D0F80300F3
:1037C0008DF84C00DFF8C008D0F80300C0F30720E4
:1037D0008DF84D00DFF8B008D0F80300C0F30740C3
:1037E0008DF84E00DFF8A008D0F80300000E8DF829
:1037F0004F000CF005F813AA13A914F05DFDDFF8D3
:10380000D80A057CDFF88008B0F801000CF010F849
:1038100003051B0D9DF84F0003909DF84E0002908C
:103820009DF84D0001909DF84C0000902A00DFF8B3
:10383000AC1D4BA815F092FB0C214BA80CF01EF808
:103840000200DFF89C1D4EA815F088FBDFF8941DE0
:1038500006A815F083FB00250DE000BF2000000046
:103860004BA82A5CDFF8781D06A810EB4500001D68
:1038700015F074FB6D1C0E2DF2DBC3480078002898
:1038800011D106A8FEF7C6FE40F6B830FFF7BAF829
:10389000002808D1B8480021017000220021DFF87B
:1038A000900E0CF0BAFA0A200FF0A0FFB64800788C
:1038B00000280ED100215120FEF7A8FDB6A106A8D0
:1038C00015F04CFB06A8FEF7A5FE4FF47A70FFF743
:1038D00099F80A200FF08AFFAB480078002812D12F
:1038E00000215220FEF792FD4FF47A70FFF78AF81C
:1038F000002808D1A0480021017000220021DFF833
:10390000E80C0CF08AFA0A200FF070FF03F0EAFFCF
:10391000DFF87417C1F807000B22DFF86C170D20D1
:103920000CF004F864200FF061FF98480121017049
:1039300093480021017091480078002800F01B8610
:10394000DFF82807007800285BD08F48007800282F
:1039500053D101210220FEF759FDDFF878090268F2
:10396000DFF8141706A815F0F9FA06A8FEF752FEBC
:103970004FF4FA70FFF746F8002825D17E48002161
:10398000017000220021DFF8F4060CF046FAFFF780
:10399000F8B900BF257300009CA9010000C00040D9
:1039A000264E00101E4E001034390000234E001029
:1039B000244E001030310000214E0010204E001027
:1039C0004646000030320000DFF808090068401C5D
:1039D000DFF800190860DFF8FC080068DFF8A016BF
:1039E000884203D1DFF8EC0801210160DFF8E40828
:1039F00002680221674810F069FCDFF870060021B8
:103A00000170DFF8300DD0F819001890DFF8740657
:103A10000068401CDFF86C160860DFF86806006874
:103A2000DFF85C16884203D1DFF8580601210160F7
:103A3000DFF8500602680121564810F047FCDFF815
:103A40004406006819900A200FF0D0FE4E48007816
:103A500000285BD101211020FEF7D8FC1EA106A88A
:103A600015F07CFA06A8FEF7D5FDDFF86C08037C9C
:103A7000DFF86408027CDFF8501E06A815F06EFA25
:103A800006A8FEF7C7FD00208DF8180006A8FEF76F
:103A9000C1FD06A8FEF7BEFDD6A106A815F05EFA88
:103AA00006A8FEF7B7FD199AB9A106A815F056FAAF
:103AB00006A8FEF7AFFD4FF47A70FEF7A3FF0028CB
:103AC0000ED12D480021017000220021DFF8FC0DED
:103AD0000CF0A3F9FFF755B930300000744D001019
:103AE0000520FEF77BFC22AB23AADFF86C1516F04D
:103AF0000DF82298239951EA0020ADF868000CE0F7
:103B0000254E0010E0A50100F0A70100DFF87405C4
:103B1000007810F00F00ADF868000A200FF066FE84
:103B200019480078002840F09F8000211C20FEF7F3
:103B30006DFCDFF8080C0078002837D1DFF8F40BB3
:103B40000068149014A816F0ADFE416901F26C7182
:103B500002910169491C0191C16800914368826822
:103B6000DFF8DC1B06A815F0F9F906A8FEF752FDF0
:103B700024E000BF94A901009E0A00101D4E001011
:103B80001F4E0010704D00101C4E0010224E0010F1
:103B9000749601000040024020000000A4A901002A
:103BA000ACA901009493010098960100DFF8941BE2
:103BB00006A815F0D3F906A8FEF72CFD4FF47A708D
:103BC000FEF720FF0A200FF011FE00211C20FEF757
:103BD0001DFC1898149014A816F064FE416901F2B7
:103BE0006C7102910169491C0191C168009143689F
:103BF0008268DFF81C1E06A815F0B0F906A8FEF7CB
:103C000009FD4FF47A70FEF7FDFE0A200FF0EEFD7D
:103C1000DFF8000E0078002826D000211C20FEF7D7
:103C2000F5FB1898DFF8B016B1F83D103C2202FB06
:103C30000100149014A816F035FE416901F26C7170
:103C400002910169491C0191C16800914368826831
:103C5000DFF87C1C06A815F081F906A8FEF7DAFC4F
:103C60004FF47A70FEF7CEFE0A200FF0BFFDDFF8AA
:103C7000A80D0078002864D1DFF8B80A0079002880
:103C80005FD000211120FEF7C1FBDFF8481C06A819
:103C900015F064F906A8FEF7BDFC00208DF81800A9
:103CA00006A8FEF7B7FCDFF88C0AB0F8052058A18B
:103CB00006A815F053F906A8FEF7ACFCDFF8740A65
:103CC000027953A106A815F049F906A8FEF7A2FC4F
:103CD00050A106A815F042F906A8FEF79BFC45A1E5
:103CE00006A815F03BF906A8FEF794FC00208DF815
:103CF000180006A8FEF78EFC4FF47A70FEF782FEDD
:103D000000281ED1DFF8600E002101700022002182
:103D1000DFF80C0D0CF081F801211720FEF776FB7F
:103D20004FF47A70FEF76EFE002808D1DFF8380EE7
:103D30000021017000220021CA480CF06EF8FFF744
:103D400020B80A200FF052FDDFF8CC0C00780028D4
:103D500040F09B80DFF8DC09B0F80700002800F095
:103D6000948000211120FEF751FBDFF8D009007884
:103D700000280FD1DFF8AC2CDFF8B01C06A815F036
:103D8000EDF806A8FEF746FC0EE000BFDDEEAA55F2
:103D9000256C6400DFF88C2CDFF8941C06A815F065
:103DA000DDF806A8FEF736FC00208DF8180006A8FE
:103DB000FEF730FCDFF87C09B0F80720DFF8741C50
:103DC00006A815F0CBF806A8FEF724FCA4A106A8C7
:103DD00015F0C4F806A8FEF71DFCDFF860090078AE
:103DE000002819D1A0A106A815F0B8F806A8FEF77A
:103DF00011FC18E03031000000E0C44400FA5147E3
:103E00000000694500A09B4480D198470060EA47C4
:103E100025640000F1F3F20095A106A815F09EF8C4
:103E200006A8FEF7F7FB93A106A815F097F806A8D9
:103E3000FEF7F0FB00208DF8180006A8FEF7EAFB5D
:103E40004FF47A70FEF7DEFD00281ED1DFF8180D62
:103E50000021017000220021DFF8C40B0BF0DDFF10
:103E600001211720FEF7D2FA4FF47A70FEF7CAFD4F
:103E7000002808D1DFF8F00C002101700022002199
:103E800078480BF0CAFFFEF77CBF0A200FF0AEFCAB
:103E9000DFF8840B007800280ED100211C20FEF7EB
:103EA000B5FAD5A106A815F059F806A8FEF7B2FB99
:103EB0004FF47A70FEF7A6FD0A200FF097FCDFF8AA
:103EC000580B0078002831D100211220FEF79EFA0D
:103ED0004FF47A70FEF796FD00281ED1DFF8880CAB
:103EE0000021017000220021DFF8600E0BF095FF29
:103EF00001211720FEF78AFA4FF47A70FEF782FD4F
:103F0000002808D1DFF8600C002101700022002198
:103F100054480BF082FFFEF734BF0520FEF75EFA2F
:103F20000DF16A025AA115F0F1FD11E00DF16A05DB
:103F3000DFF800080079DFF8FC17B1F80510DFF8AA
:103F4000F427B2F8072001FB002015F01FF82860C5
:103F50000A200FF04BFCDFF8C00A0078002853D18C
:103F600000211320FEF752FA4BA106A814F0F6FF29
:103F700006A8FEF74FFBDFF8BC07D0F81520D7A145
:103F800006A814F0EBFF06A8FEF744FBDFF8801D3F
:103F900006A814F0E3FF06A8FEF73CFB4FF47A7086
:103FA000FEF730FD00281ED1DFF8BC0B00210170A8
:103FB00000220021DFF8A00D0BF02FFF01211720B8
:103FC000FEF724FA4FF47A70FEF71CFD002808D1A2
:103FD000DFF8940B002101700022002121480BF032
:103FE0001CFFFEF7CEBE0520FEF7F8F90DF16E02BC
:103FF00027A115F08BFD0620FEF7F0F90DF17202F6
:1040000023A115F083FD66E00DF16E000021016033
:104010000DF17200002101600DF16A000568DFF802
:104020001407D0F8150014F0BBFF0100280015F0AC
:10403000B1FB33D20DF16A0005680DF17206DFF8AD
:10404000F406D0F8150014F0ABFF290012F060FF61
:10405000306040E000D8D64708A801009F0A001051
:1040600031000000EC990100E8EDF200104E001064
:10407000F8F2F000303100005CA20100509D010018
:1040800000CA9A3B784D0010344C0010D0900100CB
:104090002566000070A20100303000000DF16A00BA
:1040A0000568DFF89006D0F8150014F079FF2900B4
:1040B00015F070FB0FD20DF16A0005680DF16E0668
:1040C000DFF87006D0F8150014F06AFF0100280030
:1040D00012F01EFF30600A200FF088FB0DF16E0118
:1040E0000868002115F0A4FE4DD0DFF82C090078F7
:1040F00000280FD100211C20FEF788F9DFF8DC1C16
:1041000006A814F02BFF06A8FEF784FA4FF47A7085
:10411000FEF778FC0A200FF069FBDFF8FC08007856
:1041200000280ED100211C20FEF770F932A106A84C
:1041300014F014FF06A8FEF76DFA4FF47A70FEF73C
:1041400061FC0A200FF052FBDFF8CC080078002851
:1041500015D101211720FEF759F94FF47A70FEF7B7
:1041600051FC00280BD1DFF8000A00210170002269
:104170000021DFF8C80C0BF050FEFEF702BE0A204B
:104180000FF034FBE3E10DF172010868002115F036
:104190004FFE1CD0DFF8A80C0078002817D1DFF8FC
:1041A0007808007800280FD100211C20FEF72EF996
:1041B000DFF89C1C06A814F0D1FE06A8FEF72AFA28
:1041C0004FF47A70FEF71EFC0A200FF00FFBDFF8A9
:1041D0004408007800281ED0DFF83C08007800284A
:1041E00016D100211C20FEF711F93B48B0F83D2004
:1041F000DFF8D01B02E000BF2000000006A814F08A
:10420000ADFE06A8FEF706FA4FF47A70FEF7FAFB49
:104210000A200FF0EBFADFF80008007800280ED132
:1042200000211C20FEF7F2F88DA106A814F096FEDE
:1042300006A8FEF7EFF94FF47A70FEF7E3FB0A20C9
:104240000FF0D4FA002517E0DFF8CC07007800283B
:104250000FD100211C20FEF7D9F8159A81A106A8DC
:1042600014F07CFE06A8FEF7D5F94FF47A70FEF73D
:10427000C9FB0A200FF0BAFA6D1C2800C0B206284C
:104280000BD215A8009011AB0DF145022900C9B25F
:1042900002200BF0EAF80028D6D1DFF87C0700787E
:1042A000002811D1EDB2022D0ED300211C20FEF703
:1042B000ADF86BA106A814F051FE06A8FEF7AAF906
:1042C0004FF47A70FEF79EFB0A200FF08FFA00255C
:1042D00020E000BF7C4D0010242E0010256C6400EF
:1042E00020A00100DFF83007007800280FD100215E
:1042F0001C20FEF78BF8159A5AA106A814F02EFE82
:1043000006A8FEF787F94FF47A70FEF77BFB0A20C8
:104310000FF06CFA6D1C2800C0B206280BD215A84D
:10432000009011AB0DF145022900C9B205200BF038
:104330009CF80028D6D1DFF8E0060078002811D1DB
:10434000EDB2022D0ED300211C20FEF75FF844A130
:1043500006A814F003FE06A8FEF75CF94FF47A7085
:10436000FEF750FB0A200FF041FA9B480078002826
:1043700000F0B780DFF8A0060078002826D10021E1
:104380001A20FEF743F899A106A814F0E7FD06A845
:10439000FEF740F996A106A814F0E0FD06A8FEF786
:1043A00039F9DAA106A814F0D9FD06A8FEF732F90A
:1043B00090A106A814F0D2FD06A8FEF72BF98EA155
:1043C00006A814F0CBFD06A8FEF724F9D948D0F8CA
:1043D00019008DF84800D748D0F81900C0F307201D
:1043E0008DF84900D348D0F81900C0F307408DF884
:1043F0004A00D048D0F81900000E8DF84B000BF0A1
:10440000FFF912AA12A913F057FFDFF8880A057CFA
:1044100019980BF00DFA03051B0D9DF84B00039046
:104420009DF84A0002909DF8490001909DF84800CF
:1044300000902A00694947A814F090FD0C2147A874
:104440000BF01CFA020066494AA814F087FD654982
:1044500006A814F083FD002510E000BFBC93010006
:10446000200000002573000047A82A5C5C4906A8CC
:1044700010EB4500001D14F071FD6D1C0E2DF3DBDB
:10448000DFF894050078002811D106A8FEF7C2F8DD
:1044900040F6B830FEF7B6FA002808D1DFF8C806B3
:1044A0000021017000220021A1480BF0B6FC0A2077
:1044B0000FF09CF9DFF86005007800280ED100218C
:1044C0001C20FDF7A3FF9CA106A814F047FD06A839
:1044D000FEF7A0F84FF47A70FEF794FA0A200FF076
:1044E00085F9DFF834050078002829D1002114204F
:1044F000FDF78CFF40F6B830FEF784FA00281FD194
:10450000DFF864060021017000220021DFF888092D
:104510000BF083FC01211720FDF778FF4FF47A7030
:10452000FEF770FA002809D1DFF83C06002101707F
:1045300000220021DFF804090BF06FFCFEF721BC1C
:10454000DFF85809012101700A200FF04FF903F03C
:10455000C9F9CDF876001A2218A907200BF0E6F960
:1045600064200FF043F9DFF8380901210170DFF80A
:10457000340900210170DFF83009007800283EF48A
:1045800000ACDFF828090078002855D0DFF888044F
:10459000007800284CD101210220FDF737FFDFF819
:1045A00010090268DFF80C1906A814F0D7FC06A859
:1045B000FEF730F84FF4FA70FEF724FA00281DD108
:1045C000DFF8A4050021017000220021DFF8E808CF
:1045D0000BF023FCFEF7D5BBA00A00106C9D010078
:1045E00084A90100B4A90100FC9001003439000045
:1045F000303100004646000030320000DFF8B008DD
:104600000068401CDFF8A8180860DFF8A4080068FC
:10461000DFF8A818884203D1DFF89408012101606F
:10462000DFF88C0802680221DFF894080FF04EFED4
:10463000DFF8780800210170DFF8880800682C9006
:10464000DFF884080068401CDFF87C180860DFF899
:1046500078080068DFF86418884203D1DFF868083A
:1046600001210160DFF8600802680121DFF85008CD
:104670000FF02CFEDFF8500800682D900A200FF094
:10468000B5F8E548007800285ED101211020FDF73B
:10469000BDFE1EA106A814F061FC06A8FDF7BAFF36
:1046A000DFF8F007037CDFF8EC07027C864906A8F8
:1046B00014F054FC06A8FDF7ADFF00208DF818009B
:1046C00006A8FDF7A7FF06A8FDF7A4FFBDA106A851
:1046D00014F044FC06A8FDF79DFF2D9ACFA106A873
:1046E00014F03CFC06A8FDF795FF4FF47A70FEF736
:1046F00089F900280CD1DFF8700400210170002234
:10470000002172480BF089FBFEF73BBB3030000004
:104710000520FDF763FE03AB21AADFF8B01715F003
:10472000F5F90398219951EA0020ADF8B80012E09C
:10473000BC96010014490010200000001A4E001021
:10474000E4930100F0A50100DFF87C07007810F089
:104750000F00ADF8B8000A200FF048F8AE48007816
:1047600000280ED100211C20FDF750FEDFF8600765
:10477000FDF750FF4FF47A70FEF744F90A200FF06E
:1047800035F80A200FF032F8A3480078002855D1F8
:1047900000211120FDF73AFEDFF83807FDF73AFF58
:1047A00000208DF8180006A8FDF734FFDFF8140785
:1047B00042689DA106A814F0D1FB06A8FDF72AFFC8
:1047C000DFF80007028998A106A814F0C7FB06A825
:1047D000FDF720FFDFF80007FDF71CFF79A106A811
:1047E00014F0BCFB06A8FDF715FF00208DF818009B
:1047F00006A8FDF70FFF4FF47A70FEF703F90028C3
:104800001CD1D948002101700022002184480BF0FE
:1048100004FB01211720FDF7F9FD4FF47A70FEF734
:10482000F1F8002808D1D0480021017000220021B1
:10483000DFF808060BF0F1FAFEF7A3BA0A200EF033
:10484000D5FF7548007800280ED100211C20FDF707
:10485000DDFDC6A106A814F081FB06A8FDF7DAFE6F
:104860004FF47A70FEF7CEF80A200EF0BFFF6A48C8
:104870000078002839D100211220FDF7C7FD4FF440
:104880007A70FEF7BFF8002826D1B74800210170E2
:1048900000220021DFF8B4040BF0BFFA0121172039
:1048A000FDF7B4FD4FF47A70FEF7ACF8002808D19C
:1048B000AD480021017000220021DFF880050BF0D7
:1048C000ACFAFEF75EBA00BF84A201000C9A0100A8
:1048D0003494010000A601000520FDF77FFD0DF1D5
:1048E000BA02C6A115F012F90BE00DF1BA05DFF816
:1048F000D4054068DFF8CC150989484314F050FB13
:1049000028600A200EF072FF0DF1BE05DFF8CC051D
:10491000006814F045FB28603F480078002853D118
:1049200000211320FDF772FDB5A106A814F016FBB7
:1049300006A8FDF76FFEDFF8A405026837A106A8F8
:1049400014F00CFB06A8FDF765FEDFF8C41306A8FB
:1049500014F004FB06A8FDF75DFE4FF47A70FEF735
:1049600051F800281DD1804800210170002200214B
:10497000DFF8E4030BF051FA01211720FDF746FDA3
:104980004FF47A70FEF73EF8002808D176480021EF
:10499000017000220021DFF8A4040BF03EFAFEF7BC
:1049A000F0B90520FDF71AFD0DF1C20293A115F033
:1049B000ADF80620FDF712FD0DF1C6028FA115F02E
:1049C000A5F854E0303100000DF1C2000021016073
:1049D0000DF1C600002101600DF1BA000568DFF895
:1049E000FC04006814F0DCFA0100280014F0D2FE88
:1049F00022D20DF1BA0005680DF1C606DFF8DC041D
:104A0000006814F0CDFA290012F082FA30602EE02E
:104A10000C940100A10A00101C4E0010256C6400CB
:104A20002C9A01001D4900102564000014A8010003
:104A300020A80100A4A901000DF1BA000568DFF863
:104A40009C04006814F0ACFA290014F0A3FE0ED206
:104A50000DF1BA0005680DF1C206DFF880040068A8
:104A600014F09EFA0100280012F052FA30600A2079
:104A70000EF0BCFE0DF1C2010868002115F0D8F956
:104A80004CD0DFF85C04007800280FD100211C20F6
:104A9000FDF7BCFCDFF8441306A814F05FFA06A883
:104AA000FDF7B8FD4FF47A70FDF7ACFF0A200EF069
:104AB0009DFEDFF82C04007800280ED100211C2078
:104AC000FDF7A4FC29A106A814F048FA06A8FDF7F2
:104AD000A1FD4FF47A70FDF795FF0A200EF086FED7
:104AE000DFF8FC030078002814D101211720FDF71E
:104AF0008DFC4FF47A70FDF785FF00280AD11A4823
:104B00000021017000220021DFF830030BF085F94D
:104B1000FEF737B90A200EF069FEE4E00DF1C60198
:104B20000868002115F084F91BD0DFF81403007821
:104B3000002816D1DFF8A803007800280ED1002144
:104B40001C20FDF763FCC24906A814F007FA06A86A
:104B5000FDF760FD4FF47A70FDF754FF0A200EF068
:104B600045FE00251CE000BF9E0A0010200000004A
:104B7000DFF86C03007800280FD100211C20FDF71E
:104B800045FC029A8EA106A814F0E8F906A8FDF7E4
:104B900041FD4FF47A70FDF735FF0A200EF026FE36
:104BA0006D1C2800C0B206280BD202A8009001ABF1
:104BB0000DF105022900C9B202200AF056FC0028B6
:104BC000D6D1DFF81C030078002814D1EDB2022DF5
:104BD00011D300211C20FDF719FC81A106A814F0B7
:104BE000BDF906A8FDF716FD4FF47A70FDF70AFF30
:104BF0000A200EF0FBFD00251BE000BF256600002B
:104C000030300000B648007800280FD100211C2069
:104C1000FDF7FCFB029A6AA106A814F09FF906A80A
:104C2000FDF7F8FC4FF47A70FDF7ECFE0A200EF069
:104C3000DDFD6D1C2800C0B206280BD202A8009032
:104C400001AB0DF105022900C9B205200AF00DFCE7
:104C50000028D7D1A2480078002814D1EDB2022D47
:104C600011D300211C20FDF7D1FB5DA106A814F093
:104C700075F906A8FDF7CEFC4FF47A70FDF7C2FE79
:104C80000A200EF0B3FD96480078002825D10021B7
:104C90001420FDF7BBFB40F6B830FDF7B3FE00284B
:104CA0001BD1904800210170002200217A480BF0AE
:104CB000B4F801211720FDF7A9FB4FF47A70FDF736
:104CC000A1FE002807D187480021017000220021A1
:104CD0005A480BF0A2F8FEF754B870480121017051
:104CE0000A200EF083FD02F0FDFDCDF8CA001E2261
:104CF0002CA942200AF01AFE64200EF077FD6848C5
:104D000001210170684800210170FEF73AB80000E7
:104D10002CA80100E0B5012169480FF0E9FA6A49C1
:104D20000860022166480FF0E3FA6149086002203A
:104D300002904FF4806001906B4800906B4B6422AE
:104D40006B496C4813F08EFB07BD0000889D010085
:104D500064490870704700004C9A0100614800786F
:104D6000704780B564490978002901D0002008E027
:104D70000B220100614815F01AFD5F480121017006
:104D8000012002BD5C48007890F00100C0B270477D
:104D900080B544490978444A12781143C9B20029C0
:104DA00001D000200BE01D220100554815F0FFFC4A
:104DB0003C4801210170394800210170012002BDE9
:104DC000257300002891010036480078364909789B
:104DD000084390F00100C0B270470000E096010067
:104DE000200000002E4800782A4991F8341008402D
:104DF000C0B27047434801210170704741480078B4
:104E000090F00100C0B270473F4801210170704727
:104E10003D48007890F00100C0B270473B48012146
:104E2000017070473948007890F00100C0B27047B7
:104E3000374908603748012101707047EC9901003B
:104E4000A20A00103348007890F00100C0B2704709
:104E5000049701002E4908602F4801210170704716
:104E60002D48007890F00100C0B270472B480068D0
:104E700070472B49087070472A49087070472A49C3
:104E800008707047164908707047054908707047E8
:104E900000000000242E00106C9A01001B4E001030
:104EA000224E00101D4E00101E4E0010104E00101D
:104EB0007C4D00105CA20100509D010000CA9A3B8D
:104EC0000040024008460010784D001008A801007C
:104ED0002046001016460010124600106C4D0010BF
:104EE0001C4E00109E0A00106C1E0010FD2C0000CD
:104EF00038A80100644800101F4E0010344C001008
:104F000014490010234E0010244E0010254E0010AE
:104F1000704D0010214E0010204E0010744D0010F6
:104F2000A00A0010A10A00101A4E0010BFF34F8F04
:104F3000DFF85805006810F4E060DFF85415084306
:104F4000DFF848150860BFF34F8FFEE7DFF8441520
:104F50000968DFF840251268521A8242F9D3704777
:104F60000002000A002100E0491CDFF82C2512682D
:104F7000914209DADFF8242552F821201202120AA0
:104F80008242F1D1012000E00020704710B50400FA
:104F90002402240A2000FFF7E3FF002814D1DFF8E1
:104FA000F804006832280FDADFF8EC040068DFF854
:104FB000EC1441F82040DFF8E0040068401CDFF802
:104FC000D8140860012000E0002010BD10B40002D9
:104FD000000A002100220EE0DFF8C03453F822302E
:104FE0001B021B0A834205D1DFF8B014002341F8ED
:104FF00022300121521CDFF8A0341B689A4212DAD9
:10500000C9B20029E8D0DFF8943413EB8203DFF84B
:105010008C4454F8224043F8044CDFF880340024D8
:1050200043F82240E6E7C9B2002906D0DFF8680459
:105030000068401EDFF8602410600800C0B210BC99
:1050400070470002000A002100E0491CDFF85024EC
:105050001268914207DADFF84C2452F8212082428C
:10506000F3D1012000E00020704710B504002402B5
:10507000240A2000FFF7E5FF002814D1DFF8200400
:1050800000680A280FDADFF818040068DFF8141443
:1050900041F82040DFF808040068401CDFF80014E5
:1050A0000860012000E0002010BD10B40002000ADA
:1050B000002100220CE0DFF8EC3353F82230834269
:1050C00005D1DFF8E013002341F822300121521C02
:1050D000DFF8CC331B689A4212DAC9B20029EAD051
:1050E000DFF8C03313EB8203DFF8B84354F82240F3
:1050F00043F8044CDFF8AC33002443F82240E6E7E1
:10510000C9B2002906D0DFF898030068401EDFF816
:10511000902310600800C0B210BC704710B4002289
:1051200000E0521CDFF880331B689A4212DA092330
:10513000DFF8784303FB02435B688342F1D1092324
:10514000DFF8684303FB02431B7AC9B28B42E8D104
:10515000012000E0002010BC704770B504000D0075
:1051600016003602360A2900C9B22000FFF7D6FF22
:10517000002828D1DFF830030068C82823DADFF8D8
:10518000280300680921DFF8242301FB0020446084
:10519000DFF8140300680921DFF8102301FB002069
:1051A0000572DFF8040300680921DFF8002301FB22
:1051B00000200660DFF8F0020068401CDFF8E8120B
:1051C0000860012000E0002070BD70B400220023C0
:1051D00028E00924DFF8D45204FB035464688442B5
:1051E00009D10924DFF8C45204FB0354247AC9B25C
:1051F0008C4200D10122D2B2002A12D00924DFF859
:10520000AC5204FB0354002565600924A74D04FB40
:105210000354002525720924A44D04FB03540025E2
:1052200025605B1CA04C2468A34224DAD2B2002A79
:10523000CFD009249D4D04FB035409259B4E05FB4B
:1052400003656D6844F8055C0924984D04FB03541C
:105250000925964E05FB03652D7A04F8015C0924A7
:10526000924D04FB03540925904E05FB03652D6800
:1052700044F8095CBFE7D2B2002A04D08A4800682B
:10528000401E894908601000C0B270BC704710B55C
:10529000040087480078002810D18548012101705A
:1052A0002002000A834908602000FFF759FE824966
:1052B00008702000FFF7C5FE8049087010BD80B55A
:1052C0007F490978002907D17D4901220A700B2204
:1052D00001007C4815F06BFA01BD7B48012101708B
:1052E000704780B50022002102200AF01FFB77489A
:1052F0000121017001BD80B57548012101700120B7
:10530000FFF726FD01200DF076FB01BD714801215C
:10531000017070476E48012101706F4801210170D2
:1053200070476B48012101706C4801210170704782
:105330006B48012101707047C0B2002802D0694853
:10534000012101707047C0B2002802D066480121D7
:1053500001707047C0B2002805D05B480121017080
:105360005B4800210170704760480121017070475F
:1053700010B504005E4811F0D0FF5C4800210170B8
:1053800021005B4814F038FD594811F088FF10BD2A
:1053900056480078704780B5554811F0BEFF534815
:1053A0000021017001BD534801210170704710B503
:1053B0000400514811F0B1FF4E4800210170210056
:1053C0004D4814F019FD4C4811F069FF10BD4948D3
:1053D00000787047494801210170704710B50400FA
:1053E000474811F09AFF45480021017021004448C8
:1053F00014F002FD424811F052FF10BD3F48007802
:105400007047404801210170704710B504003E48C4
:1054100011F083FF3B480021017021003A4814F04D
:10542000EBFC394811F03BFF10BD3648007870475F
:10543000364801210170704710B50400344811F05E
:105440006CFF3248002101702100314814F0D4FC77
:105450002F4811F024FF10BD2C48007870472D48CC
:1054600001210170704710B504002B4811F055FF61
:105470002848002101702100274814F0BDFC26486F
:1054800011F00DFF10BD2348007870470CED00E0CF
:105490000400FA0508400040A84D0010CC4300105D
:1054A000AC4D0010D0470010B04D0010B4120010E9
:1054B0002E4E0010A44D0010384E0010394E001032
:1054C0002F4E00104C4C0010304E0010314E00108A
:1054D000A70A0010324E0010334E0010344E001058
:1054E000354E0010364E0010374E0010A80A00103E
:1054F000544B0010A90A0010684B0010AA0A0010B3
:105500007C4B0010AB0A0010904B0010AC0A00104E
:10551000A44B0010AD0A0010B84B001070B594B049
:105520000020049003F01CFC02F01EFB012002F09E
:10553000F4FA0400022002F0F0FA0500DFF8581B2C
:10554000200013F00BFDDFF8DC1A280013F006FD35
:105550000021022002F0EEFADFF8CC0A03F0B6FFD9
:10556000DFF8C80A09F078FCDFF8300B04F040F9E6
:10557000DFF82C0B04F03CFADFF8280B04F062FB98
:10558000DFF8240B0EF0CDFFDFF8200B04F066F8F7
:10559000FFF7C0FB0120FFF76CFC0120FFF76CFC5C
:1055A000DFF80C0B0DF002F9DFF8080B03F042FAFC
:1055B00003F02CF8DFF8001B002003F09FF8DFF861
:1055C000FC1A012003F09AF8DFF8F41A022003F025
:1055D00095F8DFF8F01A032003F090F8DFF8E81AE6
:1055E000042003F08BF8DFF8E41A052003F086F8B6
:1055F000DFF8DC1A062003F081F8DFF8D81A002063
:1056000003F086F8DFF8D01A012003F081F8DFF804
:10561000CC1A062003F07CF8DFF8C41ADFF8C80AB9
:1056200002F0E8FD0022DFF8C41ADFF8C40A11F026
:105630002BFE0022DFF8BC1ADFF8BC0A11F024FEB2
:105640000022DFF8B81ADFF8B80A11F01DFE0022B8
:10565000DFF8B01ADFF8B00A11F016FE0022DFF80A
:10566000AC1ADFF8AC0A11F00FFE0022DFF8A41A22
:10567000DFF8A40A11F008FE00220021AA200AF097
:1056800055F90022DFF8940A017CDFF8940A0AF049
:105690007BFBDFF8900A0078002805D0002200216B
:1056A000DFF8840A0AF070FBDFF8800A007800282F
:1056B00005D000220021DFF8780A0AF065FB0222FB
:1056C000DFF8701A45200AF031F94FF47A700EF0C5
:1056D0008DF84FF4FA60FFF7C6FE0021DFF8580A94
:1056E0000EF006FEDFF8541A884211D0DFF8501A87
:1056F000200013F033FCDFF84C1A280013F02EFCC6
:105700000321022002F016FADFF83C0A00210170A2
:105710001021DFF8380A12F08BFC13F05DFBFFF765
:105720009BFE00283ED00A2615E00422DFF8200A5E
:105730000068DFF8201A11EB8001042004F078FAE9
:10574000DFF80C0A0068401CDFF8041A0860761EB7
:1057500005200EF04BF8DFF8F8090068DFF8F819BB
:105760000968884201DA012EDFDADFF8E40900680F
:10577000DFF8E41909688842C0F2B480DFF8D00984
:105780000021016012F0F8F8032148433C2190FB0E
:10579000F1F201FB120078304FF47A714843FFF7C1
:1057A0004BFE9FE0FFF72AFE002855D00A262FE087
:1057B000DFF8A8090068DFF8A81951F820000028D0
:1057C0001FD00EA80021002200230EC00C38DFF8E5
:1057D0008C090068DFF88C19405C8DF83800DFF820
:1057E0007C090068DFF8781951F82000CDF83B00FB
:1057F0000B220EA9012004F01BFA761E05200DF0E5
:10580000F5FFDFF858090068401CDFF85019086000
:10581000DFF8480900684FF49671884201DA012EDA
:10582000C6DADFF8380900684FF49671884259DB10
:10583000DFF828090021016012F09EF80321484397
:105840003C2190FBF1F201FB120078304FF47A71A9
:105850004843FFF7C3FD45E0FFF7E7FD00283ED0D2
:105860000A2616E00922DFF8000900680921DFF89E
:10587000FC3801FB0031022004F0DAF9DFF8E80817
:105880000068401CDFF8E0180860761E05200DF067
:10589000ADFFDFF8D4080068DFF8D4180968884243
:1058A00001DA012EDEDADFF8C0080068DFF8C01880
:1058B0000968884216DBDFF8B0080021016012F0A9
:1058C0005BF8032148433C2190FBF1F201FB1200FD
:1058D00078304FF47A714843FFF797FD02E0642077
:1058E0000DF084FF11F017F8DFF83008407C002835
:1058F0001ED0FFF76CFD00281AD012F03DF84000D2
:105900003C2190FBF1F201FB1200B4304FF47A71AC
:105910004843FFF74CFD01F0E5FF0590042205A97F
:10592000FE2004F07BF9042205A9FF2009F0FEFF08
:10593000FFF72EFD002809D0DFF83808002101709C
:10594000DFF8340800210170FFF725FDDFF8240897
:10595000007800287DD0002617E0DFF82008305CB2
:10596000DFF81C18715C88420ED0DFF81008DFF8F1
:105970001018715C31540122DFF80408311816F157
:105980002100C0B203F014FE761C082EE5DB0026D1
:1059900017E0DFF8F007305CDFF8EC17715C884245
:1059A0000ED0DFF8E007DFF8E017715C3154012218
:1059B000DFF8D407311816F13100C0B203F0F8FD5A
:1059C000761C082EE5DB002617E0DFF8C007305C08
:1059D000DFF8BC17715C88420ED0DFF8B007DFF843
:1059E000B017715C31540122DFF8A407311816F1A9
:1059F0004100C0B203F0DCFD761C052EE5DBDFF8CC
:105A000094070078DFF89017097888420CD0DFF807
:105A10008407DFF88417097801700122DFF878071E
:105A20000178512003F0C4FDDFF870070078DFF83B
:105A3000A01E097888420CD0DFF86007DFF8901EBE
:105A4000097801700122DFF8880E0178522003F0F6
:105A5000AFFDDFF824070078002825D0DFF84007E5
:105A6000007800280DD0DFF8380700210170DFF83A
:105A7000340713F095F9421CDFF82817102003F0C3
:105A800097FDDFF82407007800280DD0DFF818070D
:105A900000210170DFF8140713F082F9421CDFF8CF
:105AA0000C17112003F084FD0CF0A1FEDFF898061E
:105AB000007800282FD0022800F01C82C0F0358426
:105AC000042800F04F82C0F03182062800F0B08236
:105AD000C0F08B82082832D0C0F0C3830A2800F0BF
:105AE000808066D30C2800F05884C0F03F840E28D4
:105AF00000F09684C0F06384102800F04D85C0F05B
:105B0000C684122800F02B87C0F06286132800F0AC
:105B10003D8701F00FB80021DFF81C060EF0E8FB0E
:105B2000DFF81816884241F005804FF47A70FFF7CD
:105B30009AFCDFF814060821017000F0FBBFFFF7A4
:105B4000A2FC002800F0F687DFF8680E0021017043
:105B5000DFF85C0600210170DFF8A80D002101705C
:105B6000DFF8A40D00210170DFF8680D002101703D
:105B7000DFF84006002101700020FFF780F9DFF810
:105B8000380600210170DFF8340600210170DFF8CB
:105B9000300600210170DFF8740D00210170DFF87C
:105BA000240600210170DFF8A0050921017000F032
:105BB000C1BFFFF768FC002800F0BC87DFF80816BB
:105BC000280013F0CBF90321022001F0B3FF4FF4BA
:105BD000FA70FFF748FCDFF870050A21017000F049
:105BE000A9BF0021DFF850050EF082FBDFF84C154D
:105BF000884219D000220021DFF8D0050AF0C4F84D
:105C0000DFF8CC15200013F0A9F9DFF8C81528003B
:105C100013F0A4F90021022001F08CFF4FF4FA6088
:105C20000DF0E4FDFFF782F9DFF8000500780028A9
:105C300019D000220021DFF8A0050AF0A5F8DFF84E
:105C40009C15200013F08AF9DFF88815280013F05E
:105C500085F90021022001F06DFF4FF4FA600DF08C
:105C6000C5FDFFF763F9FFF70EFC00282BD04FF4BA
:105C7000FA70FFF7F8FBDFF8680500783A2804D1DE
:105C8000DFF85C052021017003E0DFF854053A21BC
:105C9000017001F027FE069006A814F003FE41698A
:105CA00001F26C7103910169491C0291C168019173
:105CB00041680091DFF828150B788268DFF8181C1E
:105CC000200013F04BF9DFF8180500783A2840F06F
:105CD0003187DFF8E4040078002812D0DFF8581E7E
:105CE000280013F03BF90021022001F023FF4FF4BC
:105CF000FA60FFF7B8FBDFF850040821017000F0EC
:105D000019BFDFF80C0C0078002812D1DFF8041C52
:105D1000280013F023F90121022001F00BFF4FF4BA
:105D2000FA60FFF7A0FBDFF820040121017000F00A
:105D300001BFDFF8080E0078002809D0DFF8FC0D5D
:105D400000210170DFF800040821017000F0F2BEAC
:105D5000FFF748F8002812D0DFF8BC1B280013F02A
:105D6000FDF80121022001F0E5FE4FF4FA60FFF793
:105D70007AFBDFF8D4030B21017000F0DBBEDFF803
:105D80009C0B0078002805D0DFF8BC0302210170CD
:105D900000F0D0BEDFF8880B0078002805D0DFF8CF
:105DA000A8030321017000F0C5BEDFF810040078DD
:105DB000002804D0E4480521017000F0BBBEDFF8E4
:105DC00004040078002804D0DF480D21017000F0A1
:105DD000B1BEDFF8EC030078002804D0DA480F21C8
:105DE000017000F0A7BEDFF8CC0B007800281FD0B0
:105DF0004FF47A70FFF737FBDFF8440D00780F2877
:105E000011D1DFF8B00B00210170DFF8181B28005A
:105E100013F0A4F80021022001F08CFECA480921E9
:105E2000017000F087BEC8481021017000F082BEEA
:105E3000DF480078002835D0DD4800210170DFF808
:105E4000C40A0078002809D0DFF8B80A00210170E0
:105E5000DFF8281E280013F081F816E0DFF8A80A02
:105E60000078002809D0DFF8A00A00210170DFF8CF
:105E70000C1C280013F072F807E0DFF8C80C026869
:105E8000DFF8C41C280013F069F80021022001F09B
:105E900051FE4FF47A70FFF7E6FAAB480921017022
:105EA00000F048BEC3480078002818D0DFF89C2CCA
:105EB0008CA1280013F052F8DFF8980C017802202A
:105EC00001F038FEDFF8B80D0088FFF7CCFAB948CA
:105ED000002101709C480921017000F02BBEDFF801
:105EE000F4090078002800F0258697480C210170FD
:105EF00000F020BE002200211A2009F017FD012029
:105F0000FEF726FFFEF776FFDFF8781D280013F076
:105F100025F80121022001F00DFE4EF66020FFF76A
:105F2000A2FA89480421017000F004BE0022002179
:105F3000192009F0FBFC0120FEF70AFFFEF764FFC1
:105F4000DFF88C1B280013F009F80121022001F072
:105F5000F1FD4EF66020FFF786FA7B4804210170C0
:105F600000F0E8BDDFF8B40900210170DFF8B009E6
:105F700000210170FEF742FF002803D1FEF748FF21
:105F8000002811D0DFF8D01B280012F0E7FF002115
:105F9000022001F0CFFD4FF4FA60FFF764FA6A487F
:105FA0000821017000F0C6BDFFF76DFA002800F06F
:105FB000C185DFF85C090021017000220021DFF8B3
:105FC0009C0B09F02AFFDFF84C19280012F0C6FFDD
:105FD0000121022001F0AEFD4FF4FA60FFF743FA11
:105FE00059480121017000F0A5BD002200211B20AD
:105FF00009F09CFC0120FEF7ABFEFEF70FFFDFF877
:10600000601B280012F0AAFF0121022001F092FD7E
:1060100042F21070FFF727FA4B480621017000F09A
:1060200089BD00BFC0A2010057EC000049940000E8
:10603000DFF8DC080078002816D1002200211D209E
:1060400009F074FCDFF8CC18280012F087FF01215A
:10605000022001F06FFD4FF4FA60FFF704FA3A48AE
:106060000121017000F066BDFEF7DCFE002800F0A3
:10607000D180FEF7FBFE2949D1F83960864280F2D3
:10608000B180861B3200DFF8001C280012F066FF8A
:106090003000FEF7CDFEAFE0ACA20100896F00003A
:1060A0009D6C0000656B000031760000C17400003B
:1060B000BF5200008F520000DB520000E35200008C
:1060C000F75200000D530000155300002353000049
:1060D000315300003953000047530000555300006E
:1060E00015270100257300004B270100A75300006E
:1060F000684B001069530000544B0010D55300004A
:106100007C4B001003540000904B001031540000F1
:10611000A44B00105F540000B84B0010242E001058
:1061200050A001002C4E00100C8E01002D4E0010CE
:10613000289701005B2E001000400240DDEEAA55BA
:10614000D4A2010068A00100AE0A0010244C001087
:10615000BC4D0010CC430010A84D0010B44D0010F1
:10616000BC190010A43E0010B84D0010B41200106D
:10617000B04D00103D4E00103E4E0010BC4C0010C3
:10618000A44C0010C44C0010AC4C0010CC4C0010BF
:10619000B44C0010414E0010294E0010424E001029
:1061A0003F4E00102C4B0010404E0010404B001092
:1061B0002E4E00103B4E0010314E0010324E00109B
:1061C000354E0010374E0010E8A20100AC9A0100D5
:1061D000FCA2010010A3010024A3010038A30100C8
:1061E000AF0A0010361A3200DFF8A01A280012F0A9
:1061F000B5FE3000FEF72EFE0321022001F09AFCCE
:1062000042F21070FFF72FF9DFF8040D072101703B
:1062100000F090BCFFF737F9002800F08B840022D3
:1062200000211D2009F082FBDFF8E4060021017047
:1062300000220021DFF8580A09F0EFFDDFF8D4163C
:10624000280012F08BFE0121022001F073FC4FF4B4
:10625000FA60FFF708F9DFF8B80C0121017000F0CF
:1062600069BCDFF8AC060078002817D100220021B5
:106270001D2009F05BFBDFF89C16280012F06EFE73
:106280000121022001F056FC4FF4FA60FFF7EBF811
:10629000DFF87C0C0121017000F04CBCFEF7D2FD50
:1062A00000281BD0FEF7DCFD002817D000220021BB
:1062B0001C2009F03BFBDFF8DC19280012F04EFE31
:1062C0000121022001F036FC4FF4FA60FFF7CBF811
:1062D000DFF83C0C0821017000F02CBCFFF7D3F86C
:1062E000002800F02784002200211D2009F01EFB59
:1062F000DFF81C060021017000220021DFF8980958
:1063000009F08BFDDFF80C16280012F027FE0121A2
:10631000022001F00FFC4FF4FA60FFF7A4F8DFF859
:10632000F00B0121017000F005BCDFF8E4050078F6
:10633000DFF8D01509780843C0B2002800F0FA83CE
:10634000DFF8CC0501210170DFF8C81B280012F02E
:1063500005FE0021022001F0EDFB4FF47A70FFF7FB
:1063600082F8DFF8AC0B08210170E3E3FEF73AFD99
:10637000002840F0DF83DFF8A01B280012F0EEFDBC
:106380000021022001F0D6FB4FF47A70FFF76BF882
:10639000DFF87C0B08210170CCE3DFF8801B2800BC
:1063A00012F0DCFD0021022001F0C4FB4FF4FA6082
:1063B000FFF759F8DFF8580B08210170BAE3FEF730
:1063C000CDFC00281AD001F08DFACDF84B00CDF8A5
:1063D000470011A8FEF7C5FCDFF8441B280012F0A7
:1063E000BDFD0321022001F0A5FB42F21070FFF772
:1063F0003AF8DFF81C0B0E2101709BE3DFF8241B39
:10640000280012F0ABFD0321022001F093FB42F6BD
:10641000E060FFF728F8DFF8F80A0821017089E347
:10642000FEF7B0FC002811D0DFF8FC1A280012F0AB
:1064300095FD0121022001F07DFB4FF4FA60FFF78A
:1064400012F8DFF8CC0A0821017073E3FFF71BF89C
:10645000002800F06F83DFF8B804002101700022EB
:106460000021DFF8C80A09F0D8FCDFF8A8142800DA
:1064700012F074FD0121022001F05CFB4FF4FA6080
:10648000FEF7F1FFDFF8880A0121017052E3DFF81F
:10649000A00AB0F871000490049ADFF8981A20005E
:1064A00012F05CFDFEF75AFC002863D0DFF804050B
:1064B00001210170DFF8780A007CDFF8841608708B
:1064C000DFF87C060021A0F8011001F00BFADFF8DC
:1064D0007016C1F80700DFF86816C1F80300DFF88E
:1064E000581A0860DFF8500A00210171DFF8480AE5
:1064F0000021A0F80510DFF8400A0499A0F8071061
:10650000DFF8381ADFF8380A12F028FDDFF8280A19
:106510000021C0F815100120FEF7B1FCDFF8241AA5
:10652000280012F01BFD0321022001F003FB049858
:10653000029001F0D7F90390082202A9232009F064
:10654000F5F9DFF8040AFEF78EFFDFF8F005002109
:106550000170DFF8B80300210170DFF8A803002103
:106560000170DFF8A40300210170DFF8A4091121F4
:106570000170DFE2DFF8D419280012F0EFFC0321EC
:10658000022001F0D7FA42F6E060FEF76CFFDFF878
:10659000800908210170CDE2DFF8A4050178DFF859
:1065A000A005D0F8030008F0FEFF002816D0DFF8A1
:1065B000A019200012F0D2FCDFF89819280012F080
:1065C000CDFC0021022001F0B5FA4FF47A60FEF70D
:1065D0004AFFDFF83C0908210170ABE2BD480078B2
:1065E000002804D0DFF828090C210170A2E2FEF790
:1065F0004AFF002800F09E82DFF8440500780F284B
:1066000049D1DFF83C05D0F80300DFF82419B1F8D0
:1066100037104FF4616202FB010601F063F9B042EA
:1066200016D2DFF83419200012F098FCDFF82C198C
:10663000280012F093FC0021022001F07BFA4FF4B5
:106640007A60FEF710FFDFF8C8080821017071E2D8
:1066500000220021DFF8080909F096FB0B22DFF881
:10666000E0143F2009F062F9DFF8F818200012F07A
:1066700075FCDFF8F418280012F070FC00210220ED
:1066800001F058FA4FF47A60FEF7EDFEDFF880086B
:10669000082101704EE2DFF8A8040178DFF8A004B9
:1066A000D0F80300FEF73AFD06000020019001A893
:1066B000009004ABDFF88028DFF884143000C0B20B
:1066C00008F086FF002866D00498002823D1DFF860
:1066D0009C18200012F042FC019ADFF89418280060
:1066E00012F03CFC0021022001F024FAF6B2002E48
:1066F00008D04FF4FA60FEF7B6FEDFF81408082160
:10670000017017E241F28830FEF7ADFEDFF80008B5
:10671000132101700EE2FEF721FB002811D1DFF8F2
:106720005418280012F01AFC0321022001F002FA8A
:1067300042F6E060FEF797FEDFF8D4071321017000
:10674000F8E1049ADFF83018200012F007FCDFF8B7
:10675000F417280012F002FC0321022001F0EAF9EC
:10676000DFF8D4070021C0F81510DFF8DC07FEF7CA
:106770007AFEDFF8C803002101706448002101702F
:10678000604800210170604800210170DFF8800737
:1067900011210170CEE100220021DFF8E00709F0AD
:1067A000F3FADFF8DC17200012F0D8FBDFF8D4177B
:1067B000280012F0D3FB0021022001F0BBF940F6C3
:1067C000B830FEF750FEDFF8480708210170B1E14C
:1067D0004E4800784B4909780843C0B200285AD087
:1067E0004A4800210170474800210170FEF7B6FABF
:1067F00000283ED001F076F8DFF83C17C1F8190008
:10680000DFF834070499C0F81510DFF82C07FEF7FD
:10681000BFFACB48D0F80300C949D1F80710884225
:1068200006D0C7480178C648D0F8030008F099FEA2
:106830001D22DFF804170E2009F078F8DFF8F006C3
:10684000B0F83D20DFF8541C200012F087FBDFF881
:10685000501C280012F082FB0121022001F06AF98D
:106860004EF66020FEF7FFFDDFF8A406122101704E
:1068700060E1DFF80017280012F070FB032102200E
:1068800001F058F942F6E060FEF7EDFDDFF8800612
:10689000082101704EE11C480078002804D0DFF880
:1068A00070061321017045E1DFF8F80B007800282D
:1068B00014D0DFF8F00B00210170A2480268A24951
:1068C000280012F04BFB0021022001F033F931E1E6
:1068D0002A4E00103A4E001080A00100DFF8C80BCD
:1068E0000078002820D0DFF8C00B00210170974A03
:1068F00097A1280012F032FB96480178022001F09F
:1069000019F917E1384E0010394E0010364E0010BC
:10691000A70A001050A6010060A60100334E001027
:10692000344E001070A6010084480078002804D17D
:10693000FEF7A9FD002800F0FD80DFF8701B28009D
:1069400012F00CFB0321022001F0F4F84FF4FA706E
:10695000FEF789FDDFF8B80508210170EAE0FEF7CF
:1069600033FA002800F0E680DFF8441B280012F01C
:10697000F5FA0121022001F0DDF84FF4FA60FEF78C
:1069800072FDDFF88C0508210170D3E0094800781A
:1069900000281DD06A48D0F803006949D1F80710D3
:1069A000884215D1DFF80C1B200012F0D7FADFF86F
:1069B000081B01E02F4E0010280012F0CFFA4FF410
:1069C0007A70FEF750FDDFF8480508210170B1E04C
:1069D000DFF8E80A0078002800F07C805848017849
:1069E0005748D0F80300FEF799FB002859D15548C5
:1069F0000268534801785248D0F80300FEF7ADFB17
:106A000000283DD0092200210BA813F0A3FD0F227E
:106A1000002107A813F09EFD4A4800680002000A02
:106A200007900B904648D0F80300CDF823000C9057
:106A3000434800788DF820008DF834004048B0F8C5
:106A40000100ADF821003E48D0F80700CDF827003E
:106A500009220BA9022003F0E1F80F2207A9362032
:106A600008F064FFDFF8C01B200012F077FADFF8AF
:106A7000BC1B280012F072FA1DE000BF80A60100C6
:106A800000220021DFF8080C09F07EF9DFF8041C71
:106A9000200012F063FADFF8001C280012F05EFA02
:106AA00009E0DFF8AC14200012F058FADFF87C1B84
:106AB000280012F053FA0021022001F03BF84FF4B5
:106AC000FA60FEF7D0FCDFF848040821017031E0DD
:106AD00074A30100DFF8CC090078002816D0DFF895
:106AE000BC1B200012F03AFADFF8B41B280012F0A9
:106AF00035FA0021022001F01DF84FF4FA60FEF78C
:106B0000B2FCDFF80C040821017013E00B48007898
:106B1000002807D06420FEF7A6FCDFF8F403082164
:106B2000017007E0FEF7AFFC002803D0DFF8E003B8
:106B300008210170FEF7F3BD40A60100304E0010A1
:106B40004C4C0010A44D001090A60100B04600105F
:106B5000257300003C4E001088A301005C940100E6
:106B6000A0A6010010B50C00C0B200280FD001286B
:106B70006FD0022878D004287CD0FE280AD0FF28C5
:106B80007BD100220021FF2003F048F875E0FEF7DA
:106B9000CDF972E0DFF80C0B0078401CDFF8041B25
:106BA0000870200013F07EFE04000021DFF8240CA2
:106BB0000DF088FA0021DFF81C0C0DF05FFBDFF808
:106BC000140C0DF055FADFF80C0C0DF06BFA22687E
:106BD0000021DFF8000C0DF08BFA62680121DFF86C
:106BE000F40B0DF085FAA2680221DFF8E80B0DF036
:106BF0007FFA2069421C0621DFF8D80B0DF078FAE5
:106C0000606900F26C720721DFF8C80B0DF070FAB2
:106C1000E2680421DFF8BC0B0DF06AFAA2690321D7
:106C2000DFF8B00B0DF064FAE2690521DFF8A40B80
:106C30000DF05EFA0121DFF89C0B0DF043FADFF84E
:106C4000682A0021DFF88C0B0DF040FB0CF04AFCA9
:106C500013E02178D4F8030008F083FC2178D4F8FD
:106C60000300FEF7B2FA08E02268217A6068FEF7B6
:106C700074FA02E02068FEF789F910BD4CA3010008
:106C8000004E001060A30100CC9A01004C97010057
:106C9000849401009CA301005491010038B50500C3
:106CA0000C0000220021002002F038FEEDB2280086
:106CB000002835D0012834D0022800F0BD800428F7
:106CC00000F01281052800F0BA80062800F0A780A5
:106CD000122800F0DF80132800F0D780142800F07D
:106CE000DE80172800F09380182800F094801E287A
:106CF00000F0DC801F2800F0E180202800F0E68012
:106D0000232800F09180242800F092803C2800F095
:106D1000E380C02800F0ED80FF2800F0EE80EFE077
:106D2000F5E0DFF880090078401CDFF8781908707A
:106D3000E07800900098000200900098A178084345
:106D4000009000980002009000986178084300903D
:106D5000009800020090009821780843009000A855
:106D600013F0A0FD04000021DFF8680A0DF0AAF975
:106D70000021DFF8600A0DF081FADFF8580A0DF003
:106D800077F9DFF8500A0DF08DF922680021DFF85D
:106D9000440A0DF0ADF962680121DFF8380A0DF000
:106DA000A7F9A2680221DFF82C0A0DF0A1F92069E9
:106DB000421C0621DFF81C0A0DF09AF9606900F206
:106DC0006C720721DFF80C0A0DF092F9E2680421D9
:106DD000DFF8000A0DF08CF9A2690321DFF8F4094D
:106DE0000DF086F9E2690521DFF8E8090DF080F978
:106DF0000121DFF8E0090DF065F9DFF8AC2800218A
:106E0000DFF8D0090DF062FA0CF06CFB7FE020682F
:106E1000FEF72BF97BE02068FEF747F977E0DFF813
:106E2000B8090121017072E02068FEF7AFF86EE04A
:106E30002068FEF7CBF86AE0FEF75DFA67E0E01C39
:106E400011F0AEFF502862D26078DFF89019088008
:106E5000DFF8880900880002DFF880190880DFF871
:106E60007C09008821780843DFF870190880A07831
:106E7000DFF86C190870E11CDFF8680911F0F0FC0C
:106E8000DFF824060121017041E029482188A0F89B
:106E900035103CE026482188A0F8371037E036222C
:106EA0002100DFF8440913F082FC30E0FDF756FFC3
:106EB00000282CD02068FDF7CDFF28E0FDF74EFF1D
:106EC000002824D02068FDF7B3FF20E00120FDF763
:106ED0003FFFFDF7A3FF1AE00020B4F900100800FF
:106EE00000B201F06DF912E0DFF800090121017034
:106EF0000DE00F482178017409E008F07EF906E002
:106F00000022EDB22900DFF8E80808F03DFF31BDAE
:106F1000AE0A0010B0A30100C4A30100B0A6010096
:106F2000A49D01003C8E0100D8A3010080910100C6
:106F3000242E0010C0A60100F449001068A801002A
:106F4000FD490010ECA30100E09304006C8E0100E9
:106F5000D0A6010000A4010014A4010028A401008F
:106F6000AC9101003CA4010050A4010064A4010004
:106F700078A401009C8E0100E0A60100C09D0100E4
:106F8000F0A601008CA4010011B583B008009DF8A3
:106F90000C10002952D0022900F0C080032900F013
:106FA000FE80042900F08B81052900F0B5810629B7
:106FB00000F0BD81072900F0C581082900F0CD81CE
:106FC000092900F0D5810A2900F0DD810B2900F0A4
:106FD0001082132900F01982142900F02282152949
:106FE00000F02982162900F03182172900F0398239
:106FF000182900F04182192900F072811B2900F044
:10700000CC811E2900F0EF811F2900F0D6812329B1
:1070100000F0DE81252900F0AB80272914D0FB2960
:1070200000F06F81FC2900F09980FD296FD0FE29C6
:1070300000F08080FF2900F0AA8028E200220021D1
:10704000002002F077FB27E2DFF858160978491C88
:10705000DFF85026117013F025FC04000021DFF842
:1070600074070DF02FF80021DFF868070DF006F91E
:10707000DFF860070CF0FCFFDFF858070DF012F89E
:1070800022680021DFF84C070DF032F86268012118
:10709000DFF840070DF02CF8A2680221DFF8340772
:1070A0000DF026F82069421C0621DFF828070DF0B4
:1070B0001FF8606900F26C720721DFF818070DF005
:1070C00017F8E2680421DFF80C070DF011F8A26947
:1070D0000321DFF800070DF00BF8E2690521DFF866
:1070E000F4060DF005F80121DFF8E8060CF0EAFFE0
:1070F000DFF8B4250021DFF8DC060DF0E7F80CF02E
:10710000F1F900220021002002F014FBC4E1192251
:10711000DFF8E016FD2002F00DFBBDE100220021AA
:10712000022002F007FB4FF47A700CF05FFBFDF7D2
:10713000FDFEB1E110220100DFF8BC0613F037FBC1
:1071400008F05BF800220021022002F0F3FA4FF46D
:107150007A700CF04BFBFDF7E9FE9DE1DFF8981625
:107160000078087400220021002002F0E3FA93E185
:107170000078002801D0012000E00020DFF8781618
:10718000487400220021002002F0D4FA84E108F0C3
:1071900034F800220021002002F0CCFA7CE1192210
:1071A000DFF85016FD2002F0C5FA0122DFF84C1678
:1071B000FC2002F0BFFA0122DFF84416252002F07D
:1071C000B9FA0122DFF83C16042002F0B3FA0122DA
:1071D000DFF83416192002F0ADFA0122DFF82C1680
:1071E000FB2002F0A7FA0020019000208DF800009B
:1071F000002414E000AA01A9601CC0B208F0ECF859
:1072000000280BD064200CF0F1FA9DF80000421E1B
:107210000198411C601DC0B202F08CFA641C052C60
:10722000E8DB0422DFF8E8150A2002F083FA0122E5
:10723000DFF8E0151B2002F07DFA0222DFF8D815F6
:107240001F2002F077FA0222DFF8D015232002F087
:1072500071FA0422DFF8C8151E2002F06BFA3622FC
:10726000DFF884150B2002F065FA0622DFF8B4156A
:10727000132002F05FFA0122DFF8AC15142002F0AF
:1072800059FA0422DFF8A415152002F053FA04225B
:10729000DFF89C15162002F04DFA0422DFF8941551
:1072A000172002F047FA0422DFF88C15182002F0AC
:1072B00041FA00220021002002F03CFAECE0DFF865
:1072C0003815007881F82D00DFF82C0590F82D0096
:1072D00000F028FE00220021002002F02BFADBE063
:1072E000DFF81415007881F82E00DFF80C0590F80F
:1072F0002E0000F027FE00220021002002F01AFAE2
:10730000CAE0DFF8F414007881F82F000022002191
:10731000002002F00FFABFE0D2B20100012007F016
:10732000CAFF00220021002002F004FAB4E0D2B229
:107330000100022007F0BFFF00220021002002F020
:10734000F9F9A9E0D2B20100032007F0B4FF00224E
:107350000021002002F0EEF99EE0D2B201000420EC
:1073600007F0A9FF00220021002002F0E3F993E0DA
:10737000D2B20100052007F09EFF0022002100206C
:1073800002F0D8F988E0DFF8701400680863002282
:107390000021002002F0CEF97EE00078002801D024
:1073A000012000E00020DFF8501481F834000022B2
:1073B0000021002002F0BEF96EE0DFF83C140088E6
:1073C000A1F8350000220021002002F0B3F963E0AB
:1073D000DFF824140088A1F83700002200210020E3
:1073E00002F0A8F958E0DFF810140068C1F839007D
:1073F00052E036220100DFF8F00313F0D8F9002242
:107400000021002002F096F946E006220100DFF894
:10741000140413F0CCF900220021002002F08AF9B4
:107420003AE0DFF8D413007808760022002100202B
:1074300002F080F930E0DFF8C0130068C1F81D00E9
:1074400000220021002002F075F925E0DFF8A813E2
:107450000068C1F8210000220021002002F06AF932
:107460001AE0DFF894130068C1F829000022002117
:10747000002002F05FF90FE0DFF87C130068C1F82C
:10748000190000220021002002F054F904E001223A
:1074900003A9012002F04EF91FBD0000A0A40100C5
:1074A000B4A401002E4E00103B4E0010C8A40100F1
:1074B00000A7010010A70100DCA40100394E001054
:1074C00070B50C00C0B2002813D0012817D0E028F6
:1074D00000F07F80F12800F07F80F62800F08E8099
:1074E000F72800F09680FF2840F09D80FDF71EFDF4
:1074F00099E000220021002002F05AF893E0207861
:10750000002801D0012000E00020DFF830130870CF
:107510006078002801D0012000E00020C8490870F0
:10752000C748007800283BD0002003E00021C54A6E
:107530008154401C082805DAC349415C0029F5D173
:107540000121F4E7002003E00021C04A8154401CDF
:10755000082805DABE49415C0029F5D10121F4E78C
:10756000002003E00021BB4A8154401C052805DAB5
:10757000B949415C0029F5D10121F4E7B748007809
:10758000002801D1012000E00020B5490870B5486D
:107590000078002801D1012000E00020B2490870E5
:1075A000A6480078002805D0B04801210170B048F5
:1075B00001210170A2480078A04909780843C0B2AF
:1075C000002803D0AB48FDF7D3FE2CE0FDF7E3FE27
:1075D00029E0FDF790FE26E02578641C2688A41C8F
:1075E00000F080F921683C2202FB1102241D3100C9
:1075F00089B22800C0B20BF001FA14E0207800280C
:1076000001D0012000E00020C0B2FDF73BFC641C6B
:1076100009E02078002801D0012000E00020C0B25D
:10762000FDF733FC641C70BD20A7010030A70100EA
:1076300010B50C00C0B2002802D0402814D026E0BB
:10764000102221008C4810F0A7FD00281FD0102226
:107650002100894813F0ABF8874800210174834862
:1076600076490978017012E010222100834810F059
:1076700093FD00280BD010222100804813F097F8CA
:107680007E48002101747A486C490978017010BD68
:10769000F88C010040A7010050A7010074A8010068
:1076A000F0A40100CC090010DDEEAA553EB50DF0A6
:1076B000A3FC01F0B7F801F065F801F037F8704865
:1076C000006850F480606E49086000246D484FF4F3
:1076D0008061016000256C48006850F002006A4932
:1076E00008606A48006850F004006849086068480B
:1076F000022101606748482101606548012101605D
:107700006548FDF723FC0FF0F9F8012804D10FF0CC
:10771000FBF8624801210170012100200FF0BDF843
:107720005F480FF0DEF807F08EFD002803D05D48BB
:10773000002101700EE05B480121017007F05DFD42
:107740000122012123480CF0C1FD01220221214820
:107750000CF0BCFD544810F0C5F80FF013FD534871
:107760004078401C514948700CF025F80DF074F831
:107770000DF0C0FB4248016821F4806101600024E3
:107780004FF400624A494B480EF036FA494808F077
:10779000C9F8484801F01EFE4FF480724649474838
:1077A0000EF02AFA454808F083F8444808F05AFEDB
:1077B000022002904FF47A70019041480090414BB2
:1077C00064224149414810F04DFE0FF0BBFC0020FF
:1077D0003EBD000000400240384E0010004E001038
:1077E0003C4E0010B0460010612E00103A4E0010C2
:1077F000AC940100DC9D0100242E0010342E0010FA
:10780000352E0010512E0010522E0010532E001055
:10781000542E0010582E0010592E00105B2E001010
:107820005D2E0010362E00103C2E0010412E001050
:10783000452E00104D2E00103D2E00103E4E001023
:107840003D4E0010BC4C0010A44C0010C44C001065
:10785000AC4C0010CC4C0010B44C0010294E001061
:10786000414E00102A4E0010424E00103F4E0010B4
:10787000404E0010E09304002C4B0010404B0010D1
