:1000000000040010BDE80100C5A40100CDA401005A
:0C001000D5A40100DDA40100E5A401005E
:10001C001ADBF5EF000000000000000000000000FB
:10002C00EDA40100F5A401000000000031B80100AE
:10003C00758F0100FDA4010005A501000DA50100AF
:10004C0015A501001DA5010025A501002DA5010088
:10005C0035A501003DA5010045A501004DA50100F8
:10006C0055A501005DA5010065A501006DA5010068
:10007C0075A501007DA5010085A501008DA50100D8
:10008C0095A501009DA50100D9910000A5A5010031
:10009C00ADA50100B5A50100BDA5010053200100CF
:1000AC00C5A5010073990000CDA50100D5A50100DF
:1000BC00DDA50100E5A50100EDA50100F5A50100F8
:0402FC0021436587AE
:1003000031323334350000000000000000000000EE
:1003100000000022C7A50003005D00A8C000FFFF89
:10032000FF7900A8C00100A8C07900A8C00228F188
:10033000293230313420C0E2F2EECFE0F0EA0000A2
:100340000000002838313229D2E5EB2ECFEEE4E46C
:10035000E5F0E6EAE80000000F5A6480250000019D
:1003600000010078000000173B180014003C003228
:100370000064009600C800FA002C015E019001C2E2
:1003800001F401260258028A02BC02EE0220035246
:10039000038403B603E8031A044C047E04B004F497
:1003A00001000101010000023200C8006400640085
:1003B000F4013200E803320000173B0D05000D0682
:1003C0000500002020202020202020202020202088
:1003D00020202020202020202020EFF0EEE8E7E25F
:1003E000EEE4F1F2E2EE2C2020202000000020209C
:1003F000202020EEE1F1EBF3E6E8E2E0EDE8E52C89
:1004000020F0E5ECEEEDF220EFEBE0F2EDFBF52075
:10041000202020202020000000202020E0E2F2EE1A
:10042000ECE0F2E8F7E5F1EAE8F520EFE0F0EAEEDB
:10043000E2EEEA2C20F1E8F1F2E5EC202020202089
:100440002000000020E4EEF1F2F3EFE02C20E2E8DF
:10045000E4E5EEEDE0E1EBFEE4E5EDE8FF2C20F174
:10046000E8E3EDE0EBE8E7E0F6E8E9200000000073
:100470000D07000D08000D09000D0F000000000021
:10048000000000000000000000000000000000006C
:10049000000000000000000000000000000000005C
:1004A000000000000000000000000000000000004C
:1004B000000000000000000000000000000000003C
:1006B0000000000000000000000000A55A0000003B
:10200000BFF34F8F6D48006810F4E0606C490843DF
:102010006A490860BFF34F8FFEE76A490968694A59
:102020001268521A8242FAD3704780B5664909781D
:1020300000291CD1644901220A7064490860042205
:102040006249282010F05CFF61496048006810F088
:10205000CBFD00280BD05E480078113803D0401E1D
:10206000022801D903E002E05A480121017001BDB4
:1020700080B55949097800290CD1574901220A70C5
:102080000B22010055481EF0F6F80B22534903209D
:1020900010F036FF01BD52490968401850490860E8
:1020A0007047504801210170704780B510F0FBFA6D
:1020B00000220021022010F023FF4B480121017073
:1020C00001BD80B5494801210170012005F019FDCD
:1020D000012011F095FC464890F8A700002802D096
:1020E000012013F071FD012015F030F801BD3F48CB
:1020F000012101703F480121017070473B480121D7
:1021000001703D480121017070473848012101707C
:102110003A48012101707047C0B2002805D0334809
:1021200001210170364801210170704735480121B5
:1021300001707047C0B2002802D0334801210170FD
:102140007047C0B2002802D03048012101707047AA
:102150002F4801210170704710B504002D4819F077
:1021600088FC2B480021017021002A481DF00EFB3D
:10217000284819F040FC10BD2548007870472648D3
:1021800001210170704710B50400244819F071FC5A
:10219000214800210170210020481DF0F7FA1F4856
:1021A00019F029FC10BD1C480078704780B51B4809
:1021B00019F05FFC18480121017001BD0CED00E031
:1021C0000400FA05084000405B65001098640010A8
:1021D0005D6500105C6500105E650010C86200104F
:1021E0009C6400106165001062650010B20A001066
:1021F000CC3D00106365001064650010656500103B
:10220000676500106665001068650010696500105C
:10221000B30A0010F0610010B40A0010046200104C
:102220002DE9F0439DB0002004900026002707F020
:10223000A7FC06F029F8012006F001F804000220AE
:1022400005F0FDFF0500DFF8DC1B20001BF080FE21
:10225000DFF8241B28001BF07BFE0021022005F084
:10226000FBFFDFF8180B08F072F8DFF8140B10F022
:10227000BBF810F05DFB10F0B0FC10F0D5FDDFF8FE
:10228000040B08F0E5FEDFF8000B08F048FDDFF86E
:10229000FC1ADFF8FC0A08F0B7FB07F0C1FADFF818
:1022A000F40A08F049F905F011FC012005F0D3FC0F
:1022B000012005F0D3FCDFF8280E11F025FBDFF834
:1022C000680B90F8A70013F0B5FBDFF8600B14F073
:1022D00021FEDFF85C0B07F001F806F0C1FDDFF826
:1022E000541B002006F031FEDFF84C1B012006F0E5
:1022F0002CFEDFF8481B022006F027FEDFF8401B0B
:10230000032006F022FEDFF83C1B042006F01DFE31
:10231000DFF8341B052006F018FEDFF8301B06201E
:1023200006F013FEDFF8281B002006F019FEDFF888
:10233000241B052006F014FEDFF81C1B062006F007
:102340000FFEDFF81C1BDFF81C0B06F0C7FB00229A
:10235000DFF8141BDFF8140B19F042FB0022DFF842
:10236000101BDFF8100B19F03BFB0022DFF8B80A56
:10237000017CDFF8040B10F0F1FFDFF8000B0078B0
:10238000002805D000220021DFF8F40A10F0E6FF53
:10239000DFF8F00A0078002805D000220021DFF8DD
:1023A000E80A10F0DBFF0021DFF8E00A16F04CFB32
:1023B000DFF8DC1A884211D0DFF8D81A20001BF0B1
:1023C000C7FDDFF8D41A28001BF0C2FD032102204C
:1023D00005F042FFDFF80C0D002101703622DFF816
:1023E000BC1A522010F08CFD0422DFF8B41A3420FD
:1023F00010F086FD0222DFF8AC1A452010F080FDB7
:102400000322DFF8A41A472010F07AFD00220021F1
:10241000AA2010F075FD4FF4FA6015F093FD4FF40B
:10242000FA60FFF7B0FE1021DFF8800A1AF0ACF96D
:102430001BF024FC18F01BFE12F0EAFB002801D070
:10244000012000E00020DFF8681A0870DFF8600A59
:10245000007800280CD1DFF85C0A007800280BD146
:10246000122010F000FCDFF84C0A0121017003E09B
:10247000DFF8400A00210170C82010F07EFC00281F
:102480000CD1C82010F0ECF9002807D1C82010F0BA
:102490005DFB002802D1642015F054FDDFF88809A7
:1024A000407C002820D0FFF767FE00281CD005F0F4
:1024B0005BFC0590042205A9FE2008F0B5FD04226E
:1024C00005A9FF2010F01CFD19F002FE052148436C
:1024D0003C2190FBF1F201FB120000F22C104FF4B2
:1024E0007A714843FFF738FE06F08CFF14F034FD94
:1024F000DFF8F00B007800284ED0022800F0A4830B
:10250000C0F08F87042800F0F983C0F0BA83062852
:1025100000F00E85C0F01384082800F08985C0F013
:1025200063850A2800F05286C0F099850C2800F0D7
:10253000E086C0F09A860E2842D0C0F03E87102870
:1025400000F0C080C0F09480122800F0B287C0F084
:102550008087142801F02380C0F09387162801F0AB
:102560005D81C1F07C80182801F04987C1F00982A3
:102570001A2801F06182C1F013841C2801F05A84EA
:10258000C1F021831E2801F0C185C1F0F1841F280C
:1025900001F0838601F065BF0021DFF8F00816F036
:1025A00053FADFF8EC18884241F05B874FF47A70F9
:1025B000FFF7E9FDDFF82C0B0E21017001F051BF90
:1025C000FFF7F1FD002801F04C87DFF81C0B00211C
:1025D0000170DFF8180B00210170DFF8140B0021E7
:1025E0000170DFF8100B00210170DFF80C0B0021E7
:1025F0000170DFF8080B00210160DFF8040B0021F7
:102600000170DFF8000B00210170DFF8FC0A0021E7
:102610000170DFF8F80A00210170DFF8F40A0021E8
:102620000170DFF8F00A00210170DFF8EC0A0021E8
:102630000170DFF8E80A00210170DFF8E40A0021E8
:1026400001700020049000260027002005F00FFBF9
:10265000012005F006FB002005F006FBDFF8C40AA8
:1026600000210170DFF87C0A0F21017001F0F9BE32
:10267000FFF799FD002801F0F486DFF8AC0A007836
:10268000002802D002280AD012E0DFF8A01A2800A1
:102690001BF05EFC0321022005F0DEFD08E0DFF800
:1026A000901A28001BF054FC0321022005F0D4FDF1
:1026B000DFF8800A20210170DFF8280A102101705C
:1026C00001F0CFBE0021DFF8C40716F0BDF9DFF836
:1026D000C017884219D000220021DFF85C0A10F0F0
:1026E0003DFEDFF8581A20001BF032FCDFF8501ACC
:1026F00028001BF02DFC0021022005F0ADFD4FF459
:10270000FA6015F01FFCFFF77BFCDFF87807007814
:10271000002819D000220021DFF8280A10F01EFE40
:10272000DFF8241A20001BF013FCDFF8141A28002D
:102730001BF00EFC0021022005F08EFD4FF4FA6024
:1027400015F000FCFFF75CFCFFF72DFD002800F002
:10275000A680DFF8E0090078202840F09680DFF8B6
:10276000D4093A2101704FF42F70FFF70CFD05F0EA
:10277000FBFA069006A81DF005FE8046D8F8140066
:1027800000F26C700390D8F81000401C0290D8F84A
:102790000C000190D8F804000090DFF89809037845
:1027A000D8F80820DFF8801E20001BF0D1FBDFF8EE
:1027B000780690F86500D8F8081088420FDBD8F842
:1027C0000800DFF8641691F86510884224D1D8F823
:1027D0000400DFF8541691F8661088421CDBD8F824
:1027E0000800DFF8441691F8671088420FDBD8F82C
:1027F0000800DFF8341691F8671088420CD1DFF832
:10280000280690F86800D8F80410884204DBDFF846
:102810003C090121017003E0DFF83009002101705B
:10282000DFF8040690F8B800002829D0D8F808008E
:10283000DFF8F41591F8B910884207DBD8F80400E6
:10284000DFF8E41591F8BA10884207DADFF8D80506
:1028500090F8B900D8F80810884211DADFF8F008CB
:10286000007800281BD1DFF8E80801210170DFF8AB
:10287000800E01210170DFF8AC08012101700EE02B
:10288000DFF8CC080021017009E0DFF8A80820215A
:1028900001702020A0704FF49670FFF774FCDFF8F1
:1028A000940800783A2841F0DC85DFF85808007871
:1028B000002812D0DFF89C1828001BF049FB0021EB
:1028C000022005F0C9FC4FF4FA60FFF75CFCDFF86A
:1028D00014080E21017001F0C4BD05F06FF9002845
:1028E00012D0DFF8741828001BF032FB01210220FF
:1028F00005F0B2FC4FF4FA60FFF745FCDFF8E4079F
:102900001121017001F0ADBDDFF8E40D0078002861
:1029100009D0DFF8DC0D00210170DFF8C8070821BD
:10292000017001F09EBDDFF8040D0078002809D089
:10293000DFF8F80C00210170DFF8A8070221017010
:1029400001F08FBDDFF8E80C0078002809D0DFF82F
:10295000E00C00210170DFF88C070421017001F008
:1029600080BDDFF8900D0078002819D0DFF8840DC5
:1029700000210170012005F0C4F8DFF87C1D28005B
:102980001BF0E6FA0021022005F066FC4FF47A7095
:10299000FFF7F9FBDFF84C070B21017001F061BD77
:1029A000DFF8580D0078002812D1DFF8541D2800F8
:1029B0001BF0CEFA0121022005F04EFC4FF4FA6024
:1029C000FFF7E1FBDFF81C070121017001F049BDB1
:1029D000DFF838070078002805D0DFF808070E2157
:1029E000017001F03EBDDFF86407007800280ED1C9
:1029F000DFF834070078002809D0DFF82C07002121
:102A00000170DFF8E0060F21017001F02ABDDFF848
:102A1000F8060078002823D0DFF830070078002877
:102A200005D0DFF8C0061221017001F01ABD0022A6
:102A30000021DFF8000C10F091FCDFF8B41E280034
:102A40001BF086FA0321022005F006FC41F64C50EB
:102A5000FFF799FBDFF88C060E21017001F001BD34
:102A6000DFF890060078002841D0DFF8E006007813
:102A7000002823D0DFF880060078002805D0DFF892
:102A800064061421017001F0ECBC00220021DFF883
:102A9000740C10F063FCDFF8701C28001BF058FA6F
:102AA0000321022005F0D8FB41F65830FFF76BFBFD
:102AB000DFF830060E21017001F0D3BC00220021A6
:102AC000DFF8480C10F04AFCDFF8441C28001BF02B
:102AD0003FFA0321022005F0BFFB4FF4FA50FFF745
:102AE00052FBDFF800060E21017001F0BABCDFF8DE
:102AF000F8050078002823D0DFF850060078002879
:102B000005D0DFF8E0051521017001F0AABC002214
:102B10000021DFF8000C10F021FCDFF8FC1B28007E
:102B20001BF016FA0321022005F096FB4FF4FA5031
:102B3000FFF729FBDFF8AC050E21017001F091BC15
:102B4000DFF8D80B0078002816D0DFF8D00B002172
:102B50000170DFF8F8050078002805D0DFF884055B
:102B60001721017001F07DBC00220021DFF8B00BBD
:102B700010F0F4FB01F075BCDFF8A80B007800281A
:102B80002CD0DFF8A00B00210170DFF8C005007821
:102B9000002805D0DFF84C051321017001F061BC5D
:102BA000002200212B2010F0ABF900220021DFF8D9
:102BB000780B10F0D3FBDFF8381D28001BF0C8F9A4
:102BC0000321022005F048FB41F64C50FFF7DBFAE9
:102BD000DFF810050E21017001F043BCDFF84C0B4B
:102BE000007800281AD0DFF8440B00210170DFF8CC
:102BF000C82E9AA128001BF0ABF9DFF8F80C017879
:102C0000022005F029FBDFF8F00C0088FFF7BBFA83
:102C1000DFF8D0040F21017001F023BCDFF82C0590
:102C20000078002801F01D84DFF8FC0400780228F9
:102C300001F01784DFF8F00402210170DFF8A4042A
:102C40000F21017001F00DBC00220021192010F0AD
:102C500057F9012004F055FF04F0CBFFDFF89C1C6E
:102C600028001BF075F90121022005F0F5FA4EF657
:102C70006020FFF788FADFF86C040321017001F08F
:102C8000F0BB04F0BAFF002816D0DFF8741C28004F
:102C90001BF05EF90021022005F0DEFA4FF4FA6025
:102CA000FFF771FADFF8840900210170DFF83404BE
:102CB0000E21017001F0D5BBFFF775FA002801F075
:102CC000D083DFF8380A0021017000220021DFF8EC
:102CD000340C10F08FFBDFF8281A28001BF038F9AD
:102CE0000121022005F0B8FA4FF4FA60FFF74BFA21
:102CF000DFF8F0030121017001F0B3BB00220021D5
:102D00001B2010F0FDF812F056FF10F0A4FE012079
:102D100004F0F7FE04F077FFDFF8EC1B28001BF04F
:102D200017F90121022005F097FA42F21070FFF71F
:102D30002AFADFF8B0030521017001F092BBDFF839
:102D4000BC090078002827D1002200211D2010F0A6
:102D5000D7F8DFF8AC1928001BF0FAF8012102209F
:102D600005F07AFA4FF4FA60FFF70DFADD48012119
:102D7000017001F076BB00BF14FD0100E7210100E6
:102D8000CDA200008144000099450000D548000014
:102D9000CD4A0000794E000004F039FF002800F011
:102DA000A18004F055FF80465FF000091E4890F8AE
:102DB000A700012807D31C48B0F8A8001A49B1F8A9
:102DC000AA1001FB0099184890F8A700022807D321
:102DD0001548B0F8AC001449B1F8AE1001FB0099E9
:102DE000114890F8A70004280FD30F48B0F8B0009E
:102DF0000D49B1F8B21001FB00990B48B0F8B400CE
:102E00000949B1F8B61001FB0099C14554DADFF861
:102E1000FC1A28001BF09CF8B8EB090004F000FF36
:102E200053E000BFFA3D0010CC3D001071200000BF
:102E30002B200000A3200000AB200000C3200000D6
:102E4000EF200000FD2000000B2100002D210000DC
:102E500019210000352100004321000025730000E6
:102E6000816E0100B76E010051210000F061001079
:102E70007F2100000462001044FA01005865001030
:102E800040DD0100596500109CEB0100004002404C
:102E9000DDEEAA5528FD0100C0EB0100373E001011
:102EA000313E0010353E0010843E0010A06200103C
:102EB0005A650010B70A0010DFF88C1D28001BF0BF
:102EC00047F8B9EB080004F0B7FE0321022005F033
:102ED000C3F942F21070FFF756F9824806210170DB
:102EE00001F0BFBAFFF75FF9002801F0BA820022B3
:102EF00000211D2010F004F8DFF800080021017007
:102F000000220021DFF8B80B10F074FADFF8F01798
:102F100028001BF01DF80121022005F09DF94FF457
:102F2000FA60FFF730F96F480121017001F099BA9A
:102F3000DFF8C8070078002816D1002200211D20E4
:102F40000FF0DEFFDFF8B81728001BF001F80121B1
:102F5000022005F081F94FF4FA60FFF714F9614897
:102F60000121017001F07DBA04F060FE002815D047
:102F700004F068FE002811D0DFF8481B28001AF082
:102F8000E7FF0121022005F067F94FF4FA60FFF72F
:102F9000FAF854480721017001F063BAFFF703F90A
:102FA000002801F05E82002200211D200FF0A8FF02
:102FB000DFF848070021017000220021DFF8080B2C
:102FC00010F018FADFF8381728001AF0C1FF0121B5
:102FD000022005F041F94FF4FA60FFF7D4F84148B8
:102FE0000121017001F03DBAFFF7DDF8002801F082
:102FF000388212F0A8FD10F018FDDFF83406002129
:103000000170002200211C200FF07AFFDFF8081D5C
:1030100028001AF09DFF0121022005F01DF94FF450
:10302000FA60FFF7B0F82F480E21017001F019BACD
:10303000012004F066FD04F0E6FDDFF8CC1828005E
:103040001AF086FF0121022005F006F942F2107005
:10305000FFF799F823480921017001F002BADFF85F
:103060009C06007800281CD1002200211D200FF0B2
:1030700047FF00220021DFF8D40B10F0BBF9DFF886
:10308000801628001AF064FF0121022005F0E4F800
:103090004FF4FA60FFF777F812480121017001F050
:1030A000E0B904F0B4FD00286DD010F08CFC0022D3
:1030B00000211A200FF024FF012004F022FD1948FE
:1030C000007800284AD004F087FDDFF8841B280030
:1030D0001AF03EFF0321022005F0BEF849E000BFD0
:1030E00097200000B50A00105E6500105F650010B3
:1030F000606500105B6500105C650010986400104E
:103100005D65001062650010666500106165001065
:1031100068650010696500106F650010706500102B
:103120007165001072650010B60A0010E4EB010032
:103130003CFD0100B80A0010D4F2010050FD01006E
:1031400064FD010078FD01008CFD01006A6500103E
:1031500076650010B8000200C800020004F036FDD9
:10316000DFF8B81B28001AF0F3FE0121022005F059
:1031700073F84EF66020FFF706F8DFF8A40B0A217B
:10318000017001F06EB9FFF70EF8002801F06981B7
:10319000002200211D200FF0B3FE00220021DFF8E5
:1031A000200910F027F9DFF8581528001AF0D0FE92
:1031B0000121022005F050F84FF4FA60FEF7E3FF1A
:1031C000DFF85C0B0121017001F04BB904F00BFD3D
:1031D00000281AD010F00EFC002816D0DFF8441B8F
:1031E00028001AF0B5FE0021022005F035F84FF452
:1031F000FA70FEF7C8FFDFF8F80400210170DFF86D
:10320000200B0E21017001F02CB9FEF7CCFF002835
:1032100001F02781DFF8E4040021017004F0E3FCF1
:10322000002805D100220021DFF8FC0A10F0E2F8A6
:1032300010F0E0FB002805D100220021DFF8EC0AA5
:1032400010F0D8F8DFF8B81428001AF081FE012138
:10325000022005F001F84FF4FA60FEF794FFDFF862
:10326000C00A0121017001F0FCB8FEF79CFF0028A4
:1032700001F0F780DFF8B80A0078002822D0DFF8E4
:10328000B40A0078DFF8B01A31F81020DFF8AC1A71
:1032900028001AF05DFE0321022004F0DDFFDFF8B4
:1032A000940A0078DFF8901A31F8100004F0E2FC7C
:1032B00041F65830FEF767FFDFF8640A0C21017011
:1032C00001F0CFB8DFF82C0400210170DFF8701A8C
:1032D00028001AF03DFE0321022004F0BDFF41F654
:1032E0005830FEF750FFDFF8380A0E21017001F068
:1032F000B8B804F0C8FC002816D004F0CAFC0028B6
:1033000012D1DFF8401A28001AF022FE0121022013
:1033100004F0A2FF4FF47A70FEF735FFDFF8000AE1
:103320000D21017001F09DB8FEF73DFF002804D18A
:1033300004F0AFFC002801F09480DFF8F809007871
:10334000DFF8F41931F81020DFF8FC1928001AF022
:10335000FFFD00220021280010F000F8DFF8EC1932
:1033600028001AF0F5FD0021022004F075FF4FF44B
:103370007A70FEF708FFDFF8BC090078401CDFF820
:10338000B4190870DFF8AC0900781E2803D3DFF801
:10339000A40900210170DFF898090078002806D000
:1033A000DFF88C090078401EDFF884190870DFF818
:1033B00070090B21017001F054B804F0FFFB0028E4
:1033C00041F04F80DFF8881928001AF0C1FD002174
:1033D000022004F041FF4FF47A70FEF7D4FEDFF8CC
:1033E00054090078401CDFF84C190870DFF84409D4
:1033F00000781E2803D3DFF83C0900210170DFF8B4
:1034000030090078002806D0DFF824090078401E33
:10341000DFF81C190870DFF808090B21017001F0B2
:1034200020B8B6480078002801F01B80DFF8241986
:1034300028001AF08DFD0021022004F00DFF4FF44A
:103440007A70FEF7A0FEDFF8D8080E21017001F0B7
:1034500008B804F0B3FB002841F00380DFF8F0184F
:1034600028001AF075FD0021022004F0F5FE4FF44B
:103470007A70FEF788FEDFF8A8080E21017000F0D0
:10348000F0BF002200212B200FF03AFDDFF8481E8C
:1034900028001AF05DFD0021022004F0DDFE4FF44B
:1034A000FA60FEF770FEDFF878080E21017000F078
:1034B000D8BFDFF8A408B0F89F000490049ADFF8A2
:1034C0009C1820001AF044FD04980D9004F04CFC68
:1034D0000E9008220DA923200FF012FDDFF88008BE
:1034E00001210170DFF87008007CDFF8781808709F
:1034F000DFF870080021A0F8011004F035FCDFF8B7
:103500006418C1F80700DFF85C18C1F80300DFF8A1
:10351000CC1D0860DFF8C40D00210171DFF8BC0D7F
:103520000021A0F80510DFF8B40D0499A0F80710E9
:10353000DFF83418DFF834081AF00AFDDFF89C0DC4
:103540000021C0F81510012004F08EFBDFF82018D0
:1035500028001AF0FDFC0321022004F07DFEDFF8B4
:10356000140800210170DFF8100800210170DFF855
:103570000C080021017044F62060FEF704FE10F0F4
:1035800042FA002805D0FEF711FEDFF8E807012116
:103590000170DFF88C071A21017000F062BFDFF8BC
:1035A000401D20001AF0D4FCDFF8AC0790F8600052
:1035B000002804D1DFF8C807007812280DD1DFF801
:1035C000C41728001AF0C4FC0321022004F044FEB2
:1035D00042F23410FEF7D7FD3BE0DFF8A407007895
:1035E00013280DD1DFF8A01728001AF0B1FC032131
:1035F000022004F031FE42F22830FEF7C4FD28E03C
:10360000DFF87C070078142816D1DFF8801728002F
:103610001AF09EFC0321022004F01EFE42F2283024
:10362000FEF7B1FD15E000BF5CFA01006565001012
:10363000636500102CE30100DFF8541728001AF02E
:1036400087FC0321022004F007FE42F22830FEF737
:103650009AFDDFF8CC060E21017000F002BFDFF802
:1036600004070178DFF8FC06D0F803000FF0C4F877
:1036700000281DD000220021DFF818070FF06EFE91
:10368000DFF8141720001AF063FCDFF81017280089
:103690001AF05EFC0021022004F0DEFD4FF47A6097
:1036A000FEF771FDDFF878060E21017000F0D9BE3B
:1036B000DFF8B00600780F285ED1DFF8A806D0F852
:1036C0000300DFF89416B1F869104FF4616202FB51
:1036D000010804F049FB40452AD2DFF88C1D200088
:1036E0001AF036FCDFF8841D28001AF031FC35E0B2
:1036F0006465001067650010A0FD0100B20A0010AB
:10370000D800020070DD010014F30100A0DD01000B
:1037100034F30100D0DD010008EC01006E650010FB
:1037200014DC01006B65001028DA01006C650010E4
:1037300000220021DFF8AC0B0FF010FE0B22DFF8A7
:1037400024163F200FF0DCFBDFF89C1B20001AF052
:10375000FFFBDFF8981B28001AF0FAFB002102207B
:1037600004F07AFD4FF47A60FEF70DFDDFF8B00546
:103770000E21017000F075BEDFF8E8050178DFF872
:10378000E405D0F803000FF0DCF8DFF8B81D08708E
:10379000DFF8B00D00780021019101A9009104AB80
:1037A000DFF8382BDFF8BC15C0B210F09AFBDFF859
:1037B000401B0870049800281DD1002200212720FA
:1037C0000FF09EFBDFF82C1B20001AF0C1FB019AC2
:1037D000DFF8241B28001AF0BBFB0021022004F0B4
:1037E0003BFD41F28830FEF7CEFCDFF834050E21B8
:1037F000017000F036BEDFF8041B28001AF0A8FBA9
:103800000021022004F028FD4FF4FA60FEF7BBFC13
:10381000DFF80C051621017000F023BEDFF8500C14
:103820000078002809D0DFF8480C00210170DFF88B
:10383000F0041321017000F014BEDFF8C40A007810
:10384000002809D0DFF8B80A00210170DFF8D004A1
:103850001721017000F005BEDFF8EC0C007800289D
:1038600017D0DFF8E40C00210170934A93A12800DF
:103870001AF06EFB1F480178022004F0EDFC1E4890
:103880000088FEF780FCDFF898040E21017000F03C
:10389000E8BDFEF788FC002800F0E385DFF8500A59
:1038A0000078002834D100220021DFF8C80B0FF087
:1038B00055FD0B22DFF8AC143F200FF021FBDFF8A1
:1038C000B81B20001AF044FBDFF8B01B28001AF0E8
:1038D0003FFB0021022004F0BFFC40F6B830FEF7A9
:1038E00052FCDFF83C040E21017000F0BABD00BFAD
:1038F000F4F201006D650010E6640010B4FD0100F3
:10390000C8FD01002CE70100E800020074FA010084
:1039100004980B9004F028FA0C9008220BA91820A8
:103920000FF0EEFA049ADFF8241C20001AF010FBC6
:10393000DFF83C1428001AF00BFB0321022004F0EE
:103940008BFCDFF8300400210170DFF82C0400212B
:103950000170DFF828040021017044F62060FEF7B2
:1039600012FC10F050F8002805D0FEF71FFCDFF81D
:10397000040401210170DFF8A8031A21017000F08E
:1039800070BD5822DFF8C81B35200FF0B9FADFF8F8
:10399000C40B01210170DFF8B80B4068DFF8B01BE1
:1039A000098948430490049BDFF8AC2BDFF8AC1B7B
:1039B00020001AF0CDFA0498001EDFF8A41B8842FC
:1039C00017D300220021DFF89C0B0FF013FDDFF866
:1039D000981B28001AF0BCFA0121022004F03CFCDC
:1039E0004FF4FA60FEF7CFFBCD480121017000F0E3
:1039F00038BDDF4928001AF0ABFA0321022004F099
:103A00002BFCDC4800210170DB4800210170DB4801
:103A10000021017044F62060FEF7B5FB0FF0F3FFC4
:103A2000002804D0FEF7C2FBD24801210170BC4837
:103A30001A21017000F015BDDFF8340A0078002863
:103A400008D0DFF82C0A00210170B548132101705D
:103A500000F007BDC7480078002854D004F054F89F
:103A6000002803D00FF0CFFF002817D1002200213B
:103A7000DFF8FC0A0FF072FCDFF8F81A28001AF0E1
:103A800067FA0321022004F0E7FB42F6E060FEF74C
:103A90007AFBA3480E21017000F0E3BC12F0A3F8FA
:103AA000002813D0DFF8D01A28001AF051FA0121AB
:103AB000022004F0D1FB12E0985A00102573000098
:103AC00054E70100DCFD010058E30100DFF8AC1A07
:103AD00028001AF03DFA0321022004F0BDFBDFF8B4
:103AE000A00A0021016001200FF090FF44F6206041
:103AF000FEF749FBA14800210170002688481B21E0
:103B0000017000F0AEBC9C480078002842D003F061
:103B1000FBFF002803D00FF026FF002817D100225A
:103B20000021DFF8600A0FF019FCDFF85C1A2800AA
:103B30001AF00EFA0321022004F08EFB42F6E06038
:103B4000FEF721FB76480E21017000F08ABC0120AF
:103B500004F08DF8DFF8341A28001AF0F9F9012181
:103B6000022004F079FBDFF8180A002101600498B4
:103B70000FF0FCFE4EF66020FEF705FB7E480021AC
:103B800001707E4800210170002665481B210170EC
:103B900000F067BC7948007800280DD1754800789E
:103BA000754909780843C0B2002840F05A84FEF7EE
:103BB000FAFA002800F05584FEF7F8FA58480E216A
:103BC000017000F04EBCDFF8B8090068002841D051
:103BD000DFF8AC0900688619DFF8A409002101604C
:103BE0003200DFF8AC1928001AF0B2F901210220E6
:103BF00004F032FB42F21070FEF7C5FADFF8540908
:103C00000078DFF89019097891F00101084200F07E
:103C10002884DFF83C0900681990DFF8340940680F
:103C2000DFF82C19098948431A9004F09DF81B907D
:103C30000C2219A951200FF063F9DFF8580901216E
:103C4000017000F00EBC00BF38F701007CE70100F6
:103C500054F301000FF07DFE002843D1002E1DD14A
:103C600045480078002808D0424800210170FEF73E
:103C70009DFA2B481A210170F3E3DFF8401C28005D
:103C80001AF066F90021022004F0E6FA40F6B83096
:103C9000FEF779FA22480E210170E2E3DFF8B4085A
:103CA0000078002818D0DFF8180C00210170DFF828
:103CB000A00800681690179604F056F818900C2289
:103CC00016A940200FF01CF942F21070FEF75BFAC3
:103CD000134819210170C4E3FEF768FA10481C214B
:103CE0000170BEE325480078234909780843C0B233
:103CF00000280AD10498864207DA002E40F0B183EA
:103D0000FEF751FA002800F0AC8300200FF07EFE91
:103D10000FF043FEA5E300BFF0FD010004FE01002B
:103D2000B50A0010F8000200A4E7010060DA010003
:103D30007565001073650010685C00108CFA010056
:103D400074F301000801020048DC010018010200C0
:103D500018FE01002CFE0100CC3D001038010200CD
:103D60005E650010C862001048030200C15F0010C9
:103D7000A4FA010068650010696500106165001013
:103D80005D6500102CEC0100CCE70100F4E70100B8
:103D90001CE8010000DE01005801020040FE0100A5
:103DA000DFF81C0B0078002828D00498864207DA38
:103DB0000496DFF89C074660DFF894070121018133
:103DC00011F011FF002802D1002003F04AFF31005A
:103DD000DFF87C0703F0C0FEDFF8E81A28001AF0CD
:103DE000B7F80121022004F037FA47F23050FEF70D
:103DF000CAF9DFF8940C1D21017032E3FEF7D3F904
:103E0000002804D103F080FE002840F02A83370008
:103E10003A00DFF8B41A20001AF09AF8380011F0CE
:103E20007CFEDFF8A80AFEF7AEF9DFF85C0C1E2175
:103E3000017016E3DFF8A404C0F8156003F094FFE6
:103E4000DFF89814C1F81900049886422FDB03F0BC
:103E50005BFE00282BD011F0C6FE002802D1002006
:103E600003F0FFFEDFF8740403F054FE1D22DFF8B8
:103E70006C140E200FF044F8DFF8100CB0F86B2033
:103E8000DFF84C1A20001AF063F8DFF8381A28001F
:103E90001AF05EF80121022004F0DEF947F23050FA
:103EA000FEF771F9DFF8E00B1D210170D9E211F086
:103EB0009AFE002818D01D22DFF820140F200FF0E2
:103EC0001FF837003A00DFF8001A20001AF040F817
:103ED000380011F022FEDFF8F409FEF754F9DFF89C
:103EE000A80B1E210170BCE2DFF8A41B20001AF011
:103EF0002FF81D22DFF8E41310200FF001F803F073
:103F000003FE002818D0002003F0ABFEDFF8CC033E
:103F100003F000FEDFF8AC1928001AF019F80121AF
:103F2000022004F099F947F23050FEF72CF9DFF83F
:103F3000580B1D21017094E2DFF8580B002101702D
:103F400000220021DFF8500B0FF054FADFF81816AA
:103F5000280019F0FDFF0121022004F07DF94FF443
:103F6000FA60FEF710F9DFF8200B0121017078E20A
:103F700003F00DFE002800F0A38003F013FE0028DC
:103F800062D00498B04221DA11F02DFE00281DD035
:103F90000498371A3B003200DFF8001B200019F0AC
:103FA000D7FFDFF8FC1A280019F0D2FF0121022008
:103FB00004F052F9380011F0B0FDDFF81009FEF7F7
:103FC000E2F8DFF8C40A1E2101704AE20498864232
:103FD00023D1DFF8D01A280019F0BAFF01210220FE
:103FE00004F03AF9DFF86C05007800280CD0DFF80F
:103FF000580500210170DFF858050068029004227E
:1040000002A943200EF07CFF43F69820FEF7BBF890
:10401000DFF8740A1F21017023E2DFF8881A2000FC
:1040200019F096FFDFF8801A280019F091FF03219C
:10403000022004F011F942F22830FEF7A4F8DFF86C
:10404000480A0E2101700CE237003A00DFF87818B8
:10405000200019F07DFF11F0C6FD002814D0DFF814
:104060004C1A280019F074FF0121022004F0F4F822
:10407000380011F052FDDFF85408FEF784F8DFF83D
:10408000080A1E210170ECE1DFF8080A0021017026
:1040900000220021DFF8180A0FF0ACF9DFF8C8148D
:1040A000280019F055FF0121022004F0D5F84FF443
:1040B000FA60FEF768F8DFF8D00901210170D0E15D
:1040C000FEF771F8002800F0CC81DFF8C809002164
:1040D000017000220021DFF8DC090FF08BF9DFF816
:1040E000D819200019F034FFDFF87C14280019F0EB
:1040F0002FFF0121022004F0AFF84FF4FA60FEF721
:1041000042F8DFF8840901210170AAE111F00FFDE6
:10411000002800F0A280DFF83C04007800280ED0D0
:10412000DFF82C040068139011F00AFD149003F0DE
:104130001BFE15900C2213A941200EF0E1FE11F098
:10414000FFFCB84237D1B74211D1DFF8701928000F
:1041500019F0FEFE0121022004F07EF840F6B8308E
:10416000FEF711F8DFF820090E21017079E1DFF880
:104170005019280019F0ECFE0321022004F06CF81D
:10418000DFF8D003007800280CD0DFF8BC03002152
:104190000170DFF8BC0300680090042200A94320EE
:1041A0000EF0AEFE43F69820FDF7EDFFDFF8D808DD
:1041B0001F21017055E1B84227DAB7EB0008DFF89C
:1041C000D4080021017000220021DFF8F8080FF068
:1041D00011F94246DFF8F018200019F0B9FE00226C
:1041E000002120000FF0BAF8DF49280019F0B0FED6
:1041F0000121022004F030F84FF4FA60FDF7C3FF0C
:10420000DFF88408012101702BE1B0EB0708DFF82B
:1042100084080021017000220021DFF8300C0FF02B
:10422000E9F84246DFF8281C200019F091FE002230
:10423000002120000FF092F8CB49280019F088FEE9
:104240000121022004F008F84FF4FA60FDF79BFF0B
:10425000DFF834080121017003E1FDF7A4FF002815
:1042600000F0FF80DFF82C080021017000220021FF
:10427000DFF8E00B0FF0BEF8BB49280019F068FE2C
:104280000121022003F0E8FF4FF4FA60FDF77BFF05
:10429000DFF8F40701210170E3E003F08FFC002850
:1042A00004D0FDF780FF002800F0DB80A9480078EB
:1042B000002827D0DFF8A01B280019F049FE0321B1
:1042C000022003F0C9FF42F21070FDF75CFFDFF837
:1042D000B80718210170C4E028010200B85F00107F
:1042E0004801020084E301007CFE010090FE010011
:1042F0005F650010A4FE010068010200B8FE010025
:104300006E650010DFF8540B0078002865D0DFF8E8
:10431000500BD0F80300DFF8481BD1F80710884293
:104320000ED0DFF83C0B0178DFF8340BD0F8030037
:104330000EF038FA0B22DFF8281B012006F074FE7D
:10434000DFF81C0B00788DF81C00DFF8140BB0F8B8
:104350000100ADF81D00DFF8080BD0F80300CDF820
:104360001F00DFF82807007C8DF8230003F01DFCF8
:10437000ADF8240003F01DFCCDF826000E2207A99D
:104380004E200EF0BDFD6F480078002825D0DFF8E4
:10439000D00A0178DFF8C80AD0F803000EF0F0FA6E
:1043A0000F90DFF8BC0A00788DF84000DFF8B00A03
:1043B000B0F80100ADF84100DFF8A40AD0F803001E
:1043C000CDF84300DFF8980AD0F80700CDF8470091
:1043D0000F220FA953200EF093FDDFF8881A280052
:1043E00019F0B6FD0321022003F036FF42F21070EF
:1043F000FDF7C9FEDFF890060E21017031E052484A
:104400000078002818D0504800210170DFF8582AA1
:1044100056A1280019F09CFDDFF8500A017802200F
:1044200003F01AFFDFF8480A0088FDF7ACFEDFF85A
:1044300058060E21017014E0FDF7B5FE002810D0DB
:10444000DFF8301A280019F083FD0321022003F061
:1044500003FF4FF4FA50FDF796FEDFF82C060E210D
:104460000170FDF7E7BF000054FE010068FE010087
:104470006B65001054F7010078010200CCFE0100CA
:1044800038B50C001500C0B2012834D002283DD048
:10449000032841D0112808D0122813D013281ED089
:1044A000212844D0222847D04AE02078DFF8C01BDA
:1044B00091F86110884243D104F0E8F8401E04F0FE
:1044C000E9F83DE02078DFF8A81B91F861108842F8
:1044D00036D104F0DBF8401C04F0DCF830E0A078C2
:1044E000DFF88C1B91F86110884229D1B4F90000E3
:1044F00004F0D0F824E02178D4F803000EF052F94B
:104500002178D4F803000EF097FA19E02268217A96
:1045100060680EF059FA13E0122120680EF0C1FB1A
:10452000052D0DD1217920680EF079FB08E01321CB
:1045300020680EF074FB03E0142120680EF06FFB7E
:1045400031BD0000606500106C650010880102003C
:10455000EC5900106F650010FA5900105403020066
:10456000A0860100B0E30100D8000200257300001E
:10457000B8D6010030DE01009801020098DA01008F
:104580009C640010E0D0010060DE0100A801020080
:10459000B80102007065001038B50C001500C0B2FB
:1045A0000100022900F09B8004294BD0052900F06E
:1045B000B780122900F09E80132900F0D8801429BA
:1045C00000F0DA80152900F08D8016293FD01829D7
:1045D00000F08180192972D01A297CD01B2900F0A3
:1045E00088801C2900F085801D295DD01E2900F0DF
:1045F000CA801F2900F0D080202900F0D680212910
:1046000000F0DD80222900F02F81282900F0398177
:10461000292900F03B812C2900F03B812D2900F055
:104620003981322900F03781332900F03981372967
:1046300000F03981382900F037813C296BD03D29C1
:104640005DD032E1DFF82C0A0121017034E1DFF89E
:10465000380400780E2813D0DFF82C0400780F28D7
:104660000ED0DFF824040078102809D0DFF81804F1
:104670000078142804D0DFF81004007815280CD135
:1046800058222100DFF8F0091BF0F5FDFDF78EFD43
:10469000DFF8E809012101700EE100220021DFF8B6
:1046A000E0090EF05BFE07E185482178017084483F
:1046B0000078002840F00081FDF778FDFCE0122131
:1046C00020680EF0EEFA052D40F0F6802179206882
:1046D0000EF0A5FAF0E020680EF005FBECE0FDF727
:1046E000F0FCE9E004222100DFF898091BF0C3FD8B
:1046F000E2E0E1E0E5482188A0F86910DCE02078FC
:10470000E24991F86110884240F0D680B4F9000087
:1047100003F0C0FFD0E0B4F9000003F0BBFFCBE032
:10472000E01C19F00DFA502880F0C6806078DFF8A0
:1047300040170880DFF8380700880002DFF83017DC
:104740000880DFF82C07008821780843DFF820175D
:104750000880A078DFF814170870E11CDFF808075C
:1047600018F046FDDFF8200901210170A4E0C748D8
:104770002188A0F863109FE036222100DFF80C09A1
:104780001BF079FD98E003F0BFF9002800F0948059
:10479000206803F051FA8FE003F0B6F9002800F02A
:1047A0008B80206803F03CFA86E0012003F0A9F931
:1047B00003F029FA11F0FFF90FF04DF97CE02088A1
:1047C000002846D0DFF8C8080078DFF8C818097854
:1047D00004E0401C1E2800DB0020491E002906D0F2
:1047E000DFF8B42832F8102023889A42F1D100294A
:1047F00062D1DFF8A00800781E285DD2DFF89C089F
:104800000078DFF89418228821F810200222DFF8BF
:104810008C080078DFF8801811EB400148200EF07A
:104820006FFBDFF878080078401CDFF8701808701C
:10483000DFF8680800781E2803D3DFF8600800213D
:104840000170DFF850080078401CDFF84818087045
:1048500032E00020DFF83C180870DFF840180870DC
:10486000DFF82C18087027E003222100DFF8300859
:104870001BF001FD0322DFF8281847200EF040FB53
:104880001AE0290020000FF0C4F815E00FF0E3F85B
:1048900012E011E010E02900200011F07DF90BE09A
:1048A00011F089F908E007E006E00022C0B201003B
:1048B000DFF8F0070EF052FD31BD0000E0FE010010
:1048C00071650010F4FE0100C801020070110100C2
:1048D00008FF010010B584B0DFF8CC0719F030F9FB
:1048E000421CDFF8C417372006F032F8DFF8BC07A7
:1048F00019F026F9421CDFF8B417382006F028F822
:104900000122DFF8AC17392006F022F80122DFF887
:10491000A417042006F01CF80122DFF89C171920C8
:1049200006F016F80122DFF89417FB2006F010F8C5
:104930000020029000208DF80400002414E001AA59
:1049400002A9601CC0B20FF00BFA00280BD0642043
:1049500013F0F8FA9DF80400421E0298411C601DF5
:10496000C0B205F0F5FF641C052CE8DB0422DFF87B
:1049700050170A2005F0ECFF0122DFF848171B2032
:1049800005F0E6FF0122DFF84017282005F0E0FFE0
:104990000222DFF83817342005F0DAFF0222DFF8B0
:1049A00030171F2005F0D4FF0422DFF8D8161C2092
:1049B00005F0CEFF0222DFF81C17232005F0C8FF08
:1049C0003622DFF8C8160B2005F0C2FF0A20ADF82A
:1049D00000002E4890F8A1008DF80200032200A9E3
:1049E000102005F0B5FF3220ADF80000274890F800
:1049F000A2008DF80200032200A9102005F0A8FFF4
:104A00006420ADF80000214890F8A3008DF8020062
:104A1000032200A9102005F09BFF4FF4FA70ADF8B7
:104A200000001A4890F8A4008DF80200032200A9A3
:104A3000102005F08DFF4FF47A70ADF80000134898
:104A400090F8A5008DF80200032200A9102005F0BF
:104A50007FFF41F28830ADF800000C4890F8A600C6
:104A60008DF80200032200A9102005F071FF012239
:104A7000DFF86416112005F06BFF1022DFF85C16DA
:104A8000122005F065FF1FBDB50A0010CC3D0010D7
:104A90001CFF0100B20A0010BCFA0100D80102009C
:104AA000E8010200F801020094F3010030FF010068
:104AB000F8D6010050EC010044FF010058FF01004E
:104AC000D4FA010074EC01000802020031B50C00B8
:104AD00015009DF8000004286DD0052800F098808E
:104AE000062800F0A180072800F0AA80082800F01E
:104AF000B380092800F0BC800A2800F0C5800B288C
:104B000000F01B81102800F02481112800F076812C
:104B1000122800F0858119285ED01B2800F0BF8084
:104B20001C2800F0F3801F2800F0E580232800F007
:104B3000F980282800F0C380342800F0D08037287E
:104B400006D0382818D039282AD0FB2855D077E14C
:104B5000162D00DB15252A002100DFF84C051BF07F
:104B60008AFBDFF80C05002180F8421000220021AA
:104B7000002005F0EDFE68E1162D00DB15252A006A
:104B80002100DFF828051BF076FBDFF8E4040021A4
:104B900080F8571000220021002005F0D9FE54E1D2
:104BA000DFF8CC04217880F82D10002200210020AD
:104BB00005F0CEFE49E1DFF8B804217880F85810FE
:104BC000DFF8AC0490F8580003F040FD002200210B
:104BD000002005F0BDFE38E1DFF89404217880F86C
:104BE0005910DFF88C0490F8590003F03FFD0022C3
:104BF0000021002005F0ACFE27E1DFF874042178E5
:104C000080F85A1000220021002005F0A1FE1CE1CE
:104C10002A00D2B2210001200FF011F80022002159
:104C2000002005F095FE10E12A00D2B221000220FA
:104C30000FF005F800220021002005F089FE04E1B4
:104C40002A00D2B2210003200EF0F9FF0022002139
:104C5000002005F07DFEF8E02A00D2B221000420F9
:104C60000EF0EDFF00220021002005F071FEECE0C7
:104C70002A00D2B2210005200EF0E1FF002200211F
:104C8000002005F065FEE0E0DFF8E4032168C0F8ED
:104C90005B1000220021002005F05AFED5E02078AC
:104CA000002801D0012000E00020DFF8C41381F8C3
:104CB0005F0000220021002005F04AFEC5E02078B8
:104CC000002801D0012000E00020DFF8A41381F8C3
:104CD000600000220021002005F03AFEB5E002222B
:104CE0002100DFF8E8031BF0C6FA002200210020B3
:104CF00005F02EFEA9E0DFF878032188A0F8631004
:104D000000220021002005F023FE9EE00422210065
:104D1000DFF870031BF0AFFA00220021002005F03D
:104D200017FE92E0DFF848032188A0F869100022FE
:104D30000021002005F00CFE87E036222100DFF87C
:104D40004C031BF098FA00220021002005F000FE21
:104D50007BE02088A41C80B20A280ED0322816D00E
:104D600064281ED0B0F5FA7F25D0B0F57A7F2CD01C
:104D700041F28831884232D03AE02078002801D0D0
:104D8000012000E00020BA4981F8A10030E020783D
:104D9000002801D0012000E00020B54981F8A200E0
:104DA00026E02078002801D0012000E00020B04952
:104DB00081F8A3001CE02078002801D0012000E049
:104DC0000020AB4981F8A40012E02078002801D02F
:104DD000012000E00020A64981F8A50008E0207825
:104DE000002801D0012000E00020A14981F8A600A0
:104DF00000220021002005F0ABFD26E09C48217830
:104E000080F8A7109A4890F8A700002802D0012047
:104E100010F0DAFE00220021002005F099FD14E0D8
:104E200010220021AD481BF0C9F82A002100AB4830
:104E30001BF021FA00220021002005F089FD04E08A
:104E4000012200A9012005F083FD31BD44E80100E5
:104E500018020200B4F3010070F701005E65001053
:104E6000C8620010DCE30100985A00106D65001064
:104E7000E6640010D4F3010070B50C00C0B2E02865
:104E80000ED0F1280FD0F2281FD0F32828D0F42814
:104E90002BD0F52834D0F62837D0F72840D049E079
:104EA000FDF70FF946E02578641C2688A41C02F063
:104EB0005BFF21683C2202FB1102241D310089B2F4
:104EC0002800C0B212F045F934E02078002801D063
:104ED000012000E00020C0B20EF0C4FD641C29E0F7
:104EE00020880EF021FEA41C24E02078002801D0A8
:104EF000012000E00020C0B210F078FE641C19E030
:104F0000208810F00AFEA41C14E02078002801D0AC
:104F1000012000E00020C0B202F0C0FE641C09E0E5
:104F20002078002801D0012000E00020C0B202F06B
:104F3000B8FE641C70BD3EB514F00AFC04F094F891
:104F400004F04EF804F01EF86548006850F48060E4
:104F500063490860002463484FF4806101600025C4
:104F60006148006850F002005F4908605F480068CF
:104F700050F004005D4908605D48022101605D4811
:104F8000482101605A48012101605B48FDF745F85E
:104F900016F060F8012804D116F062F85748012194
:104FA00001700121002016F024F8554816F045F84C
:104FB0000EF00DFE002803D052480021017018E0C9
:104FC0005048012101700EF0DCFD012201214E4804
:104FD00013F028FD012202214B4813F023FD01228A
:104FE0000321494813F01EFD01220421464813F015
:104FF00019FD464817F022F816F070FC4448407836
:10500000401C4349487012F082FF13F0D1FF14F0A6
:105010001DFB3348016821F48061016000244FF4D6
:1050200000623C493C4815F093F93B480DF064FFA1
:10503000394805F013F94FF480723849384815F0B3
:1050400087F937480DF01EFF35480FF055FB022059
:1050500002904FF47A70019032480090324B6422F3
:105060003249334817F0AAFD16F018FC00203EBD67
:10507000CC3D00106B650010EC5900106E650010FF
:1050800090DE0100313E00106C650010373E0010CC
:105090007365001075650010685C00107465001081
:1050A000843E00106CE80100FA3D00100F3E001035
:1050B000F93D0010243E0010253E0010263E001051
:1050C000273E00102B3E00102C3E00102D3E0010FD
:1050D0002F3E0010353E0010733E0010743E00104D
:1050E00040C009205CC00920C4C00F40A8C10F40C7
:1050F000044000400C40004020A10700586500100B
:10510000404B4C005965001000400240A062001066
:10511000CC0900105C1A0010F45F0010C05500109C
:10512000D85F0010E4390010212200006003020063
:10513000705E001038B500240025DFF8F40900681F
:10514000401CDFF8EC190860DFF8E8091021017055
:10515000DFF8E0093021417001230222DFF8D41981
:10516000DFF8D4090FF05AFFDFF8D009C069050055
:10517000DFF8C809C069401B652824DA0023012232
:10518000DFF8B019DFF8B0090FF07BFF0028EFD08F
:10519000DFF89C090068002806D0DFF89409006851
:1051A000401EDFF88C190860DFF888090078800657
:1051B00009D4DFF8A80B0021017000220021DFF8DC
:1051C000A00B0EF017F90A2012F0BCFEDFF86409FC
:1051D00010210170DFF85C093121417001230222A6
:1051E000DFF85019DFF850090FF018FFDFF84C090D
:1051F000C569DFF84809C069401B652824DA002327
:105200000122DFF83019DFF830090FF03AFF0028EB
:10521000EFD0DFF81C090068002806D0DFF810097D
:105220000068401EDFF808190860DFF808090078F8
:10523000000709D5DFF8240B0021017000220021AE
:10524000DFF8200B0EF0D6F80A2012F07BFEDFF814
:10525000E40810210170DFF8DC08322141700123DD
:105260000222DFF8D018DFF8D0080FF0D7FEDFF801
:10527000CC08C569DFF8C408C069401B652833DA6B
:1052800000230122DFF8AC18DFF8AC080FF0F9FEBC
:105290000028EFD0DFF898080068002806D0DFF873
:1052A00090080068401EDFF888180860DFF884085E
:1052B0000078400609D5DFF8A40A00210170002219
:1052C0000021DFF8A40A0EF095F8DFF868080078EE
:1052D000800609D5DFF8840A002101700022002130
:1052E000DFF8880A0EF086F80A2012F02BFEDFF8AD
:1052F000440810210170DFF83C083321417001237C
:105300000222DFF83018DFF830080FF087FEDFF8F0
:105310002C08C569DFF82408C069401B652851DAEC
:1053200000230122DFF80C18DFF80C080FF0A9FEAB
:105330000028EFD0DFF8F8070068002806D0DFF873
:10534000F0070068401EDFF8E8170860DFF8E407A0
:105350000078400709D5DFF8040A00210170002217
:105360000021DFF80C0A0EF045F8DFF8C8070078D6
:10537000000709D5DFF8E4090021017000220021AF
:10538000DFF8F0090EF036F8DFF8A807007880069D
:1053900009D5DFF8C8090021017000220021DFF8DB
:1053A000D8090EF027F8DFF88C070078400609D5F9
:1053B000DFF8A8090021017000220021DFF8BC09F4
:1053C0000EF018F80A2012F0BDFDDFF86807102172
:1053D0000170DFF860073421417001230222DFF8F9
:1053E0005417DFF854070FF019FEDFF85007C569AE
:1053F000DFF84807C069401B652838DA002301221E
:10540000DFF83017DFF830070FF03BFE0028EFD051
:10541000DFF81C070068002806D0DFF814070068D2
:10542000401EDFF80C170860DFF8540900780028E8
:105430000ED1DFF800070078000709D5DFF8400932
:105440000121017000220021DFF838090DF086FFEC
:10545000DFF8E0060078400609D5DFF800090021F2
:10546000017000220021DFF820090DF0C3FF0A209F
:1054700012F068FDDFF8BC0610210170DFF8B406F9
:105480003521417001230222DFF8A816DFF8A806B3
:105490000FF0C4FDDFF8A406C569DFF8A006C069F7
:1054A000401B65281BDA00230122DFF88816DFF88D
:1054B00088060FF0E6FD0028EFD0DFF874060068DC
:1054C000002806D0DFF868060068401EDFF8601686
:1054D0000860DFF860060078800600D501240A2005
:1054E00012F030FDDFF8480600680A280DDBDFF80F
:1054F000400600210160DFF86408002101700022ED
:105500000021DFF888080DF075FF2000C0B232BD21
:10551000DFF87C1800E0491C0200501E002A0DD064
:105520000A781C2AF7D0491CDFF868281268DFF8CF
:105530006038D2189142F3D3002000E00800704791
:1055400030B583B00C00DFF850180870DFF844184D
:1055500000220A60DFF844180978491CDFF83C286B
:105560001170DFF838180978202903D2DFF82C18D9
:1055700020220A70DFF81C180968DFF8B82502231A
:105580008B54DFF810180968491CDFF808281160EF
:10559000DFF800180968DFF89C2541238B54DFF8F9
:1055A000F4170968491CDFF8EC271160DFF8E417ED
:1055B0000968DFF8802545238B54DFF8D817096880
:1055C000491CDFF8D0271160DFF8C8170968DFF839
:1055D000642552238B54DFF8BC170968491CDFF897
:1055E000B4271160DFF8AC170968DFF848254623B7
:1055F0008B54DFF8A0170968491CDFF89827116061
:10560000DFF890170968DFF82C25DFF890371B7852
:105610008B54DFF880170968491CDFF87827116080
:105620000200DFF87C17DFF86C070068DFF804354C
:10563000C01818F08DFCDFF85C1709684018DFF817
:1056400054170860DFF84C070068DFF8E8141C22E4
:105650004254DFF840070068401CDFF83817086044
:10566000E4B2002C55D0DFF8D4040078401CDFF8F9
:10567000CC14087002F078FB019012F0DFFA01A858
:105680001AF080FE04006069643800902069431CB1
:10569000E268DFF81017DFF8FC060068DFF89454C2
:1056A000401918F055FCDFF8EC1609684018DFF8CF
:1056B000E4160860DFF8DC060068DFF878141C22C6
:1056C0004254DFF8D0060068401CDFF8C8160860B6
:1056D0006368A268DFF8D016DFF8B8060068DFF864
:1056E0005444001918F034FCDFF8A8160968401873
:1056F000DFF8A0160860DFF89C060068DFF83414B5
:105700001C224254DFF88C060068401CDFF8841627
:10571000086037BD10B50400200018F011FA002110
:1057200006E00A5DF02A02D30A5D103A0A55491CC8
:10573000814208DA0A5DC03AD2B2302AF1D20A5D5B
:10574000403A0A55F3E710BD10B504002000FFF7FA
:10575000E1FF220028A1DFF83C060068DFF8D4331F
:10576000C01818F0F5FBDFF82C1609684018DFF8B0
:1057700024160860DFF81C060068DFF8B8131C2246
:105780004254DFF810060068401CDFF80816086075
:1057900010BD10B5DFF8FC050068DFF89813032290
:1057A0004254DFF8F0050068401CDFF8E815086097
:1057B0000020002104E0DFF87C238A5C1018491CDB
:1057C000DFF8D02512689142F5DBC2B2C0F307239F
:1057D000DFF8D815DFF8BC050068D64C001918F0C2
:1057E000B7FBDFF8B01509684018DFF8A8150860A6
:1057F000DFF8A005006810BD2573000030B589B042
:1058000001240120FFF784FE03AADFF8A41519F094
:1058100001FE0220FFF77CFE06AB07AADFF8941515
:1058200019F0F8FD0798069950EA01250320FFF7C3
:105830006FFE05AB04AADFF87C1519F0EBFD0398A9
:10584000C0070AD5DFF814050021017000220021ED
:10585000DFF864050DF0CEFD0024039880070AD51B
:10586000DFF8F8040021017000220021DFF84C0568
:105870000DF0C0FD0024039840070AD5DFF8DC04D2
:105880000021017000220021DFF834050DF0B2FD87
:105890000024039880060AD5DFF8C00400210170B7
:1058A00000220021DFF81C050DF0A4FD0024DFF824
:1058B0001805007800280DD1039800070AD4DFF8F6
:1058C00008050121017000220021DFF800050DF01C
:1058D00045FD06E00398000703D5DFF8EC0400213E
:1058E0000170DFF8EC04007800280DD10398C006A1
:1058F0000AD5DFF8DC040121017000220021DFF865
:10590000D4040DF02BFD06E00398C00603D4DFF8A5
:10591000C00400210170DFF8C004007800280DD118
:10592000039840060AD5DFF8B00401210170002277
:105930000021DFF8A8040DF011FD06E003984006F1
:1059400003D4DFF8940400210170DFF89404007898
:1059500000280DD1039800060AD4DFF88404012141
:10596000017000220021DFF87C040DF0F7FC06E056
:105970000398000603D5DFF868040021017015F0D4
:105980000700DFF8641408702800C0060AD5DFF8A5
:10599000CC030021017000220021DFF850040DF03B
:1059A00029FD0024280000060AD5DFF8B0030021F5
:1059B000017000220021DFF838040DF01BFD0024E7
:1059C000E8050AD4DFF894030021017000220021C9
:1059D000DFF820040DF00EFD0024DFF81C04007831
:1059E00000280CD1A8050AD5DFF80C0401210170AC
:1059F00000220021DFF804040DF0B0FC05E0A8054A
:105A000003D4DFF8F40300210170DFF8F403007819
:105A1000002810D128050ED4DFF8E403012101701D
:105A200000220021DFF8DC030DF098FCDFF8D8033A
:105A30000121017005E0280503D5DFF8C40300212A
:105A40000170DFF8C803007800280CD1E8040AD5FB
:105A5000DFF8B8030121017000220021DFF8B00354
:105A60000DF07CFC05E0E80403D4DFF8A00300217E
:105A70000170049805990843002834D0049815282B
:105A800004D019280CD0292814D01AE00024B348D7
:105A9000047000220021DFF87C030DF0ABFC22E053
:105AA0000024AE48047000220021DFF86C030DF0E2
:105AB00055FC18E000220021DFF860030DF04EFCD9
:105AC00011E0002405980290049801900095039B32
:105AD000B1480278D249174818F03AFA002200215A
:105AE00014480DF03BFCE4B2002C09D010480068CB
:105AF000002819D00E480068401E0D49086013E0C8
:105B00000B480068801C0A490860094800680A2898
:105B10000ADB074800210160904800210170002243
:105B200000219A480DF066FC2000C0B209B030BDDB
:105B30003C6400103451001000C00040CC0900103B
:105B40002DE9F14F86B0B7480068401CB5490860A0
:105B50000324FFF71EFE049001260023012200A962
:105B6000B1480FF08EFA0028F7D1F6B2002E07D018
:105B70000123049A8649AC480FF050FA002608E049
:105B800015208DF800000123012200A9A6480FF07E
:105B900045FA5FF000095FF0000AA448C5695FF0AC
:105BA000010B00270023012200A99F480FF069FA8A
:105BB000002800F0B9805FFA89F9B9F1000F08D028
:105BC000B9F1020F43D02BD3B9F1040F79D061D3CF
:105BD000AAE09DF8000002280BD19DF800806C48D7
:105BE0009DF800100AF800101AF1010A5FF001098F
:105BF0009AE09DF80000152803D101265FF0000B04
:105C000092E09DF80000182840F08E8001270022C5
:105C10006148017886480DF0EDFB5FF0000B83E0F2
:105C20009DF800005D49097888420DD19DF800007B
:105C300010EB080856489DF800100AF800101AF1F9
:105C4000010A5FF002096FE05FF0000B6CE09DF865
:105C5000000010EB08084E489DF800100AF80010EC
:105C60001AF1010ABAF1040F5ED14948002101710D
:105C700003AA4B496F4819F0CDFB012807D10398BF
:105C800045490978884202D15FF003094CE05FF092
:105C9000000B49E09DF8000010EB08083C489DF817
:105CA00000100AF800101AF1010A9DF800000328FC
:105CB0003AD11FFA88F83748C0F800A05FF004090D
:105CC00032E033489DF800100AF800101AF1010A7A
:105CD00030480068001D824526D12E4800682C49B6
:105CE00040180021017102AB01AA3049294800681F
:105CF000DFF89CC010EB0C0019F08CFB022811D1CE
:105D00000198029950EA012001900198804506D13E
:105D1000FFF774FD97F001010840C0B21BE05FF08F
:105D2000000B01E05FF0000B06984049C969491B70
:105D3000884201DA5FF0000B5FFA8BFBBBF1000FCA
:105D40007FF430AFFA2012F0FDF82000441E002846
:105D50007FF403AF002007B0BDE8F08FA30A001066
:105D600054F0010074F001009CF9010058F60100A4
:105D7000C4E50100B4F90100ECE50100A8E201006E
:105D80000A6500107CEA010094F0010074FC010037
:105D900034510010406400100765001009650010C0
:105DA0008404020058000200B8020200C40202008B
:105DB0008C040200D0020200CCF9010074F601004C
:105DC000E4F9010090F601000B650010ACF601004B
:105DD0000C650010B4F001000D65001014E6010020
:105DE0000E650010D4F00100A40A0010F4F00100C8
:105DF00014F1010088FC01000F650010C8F60100D5
:105E0000106500109CFC0100086500101165001071
:105E100034F10100A0EA010054F10100B0FC0100DE
:105E200048CD01003C64001000C00040CC090010C7
:105E30003CE6010036510010F0B5C9B0DFF8380C6F
:105E4000D0E90023CDE9432343A816F01FFADFF879
:105E50002C0CD0E90023CDE9412341A816F016FA15
:105E60001EA80FF0ADF84FF416501E9003208DF8C9
:105E70007D0000208DF87C0000208DF87E001EA99A
:105E8000DFF8180E0EF0F2FF16A80FF0B0F903209D
:105E90008DF85B0016A9DFF8040E0FF04AF9012116
:105EA000DFF8F80D0FF0AAF942F2107012F04AF87C
:105EB0004EF6602403E0DFF8300C00210170DFF8BB
:105EC0002C0C0078002837D1DFF8240C0021017059
:105ED000DFF8200C00210170DFF81C0C002101709C
:105EE000DFF8180C00210170DFF8140C002101808C
:105EF000DFF8100C00210170DFF80C0C002101709C
:105F0000DFF8080C00210170DFF8040C002101709B
:105F1000DFF8680E00210170DFF8F80B0021017036
:105F2000DFF8F40B00210170DFF8F00B00210160B5
:105F3000DFF8EC0B002101604FF4FA7012F002F868
:105F4000DFF8A80B00780028B9D0DFF8540D0078EE
:105F5000002828D116A9DFF8440D0FF0EAF8FFF762
:105F6000E9F8C0B2012818D1DFF8380D012101701D
:105F70004FF4FA70A4B2844215D3B4F5FA744FF416
:105F8000FA70A4B284420ED200220021DFF8940BF2
:105F90000DF0E4F94EF6602405E04EF66024DFF8DB
:105FA000040D00210170DFF8400B007800286CD050
:105FB000DFF8EC0C007800287FF47DAF002143204F
:105FC000FFF7BEFAC820FFF7BBFD00283FF477AF0C
:105FD0000520FFF79DFA27A9009128AB29AADFF831
:105FE000C81C19F017FA0620FFF792FA25AB26AA6B
:105FF000DFF8B81C19F00EFA0021DFF8D00D12F00E
:106000000DFC0021DFF8C40D12F0E4FCDFF8BC0D3C
:1060100012F0DAFBDFF8B40D12F0F0FB00220021E1
:10602000DFF8A80D12F010FC259A0121DFF89C0D75
:1060300012F00AFC269A0221DFF8900D12F004FCFF
:10604000289A0621DFF8840D12F0FEFB279810F540
:10605000FA620721DFF8740D12F0F6FB299A042189
:10606000DFF8680D12F0F0FB0121DFF8600D12F08F
:10607000D5FBDFF8442C0021DFF8500D12F0D2FCE4
:10608000DFF8640A0021017019E7DFF88C0A007854
:10609000002845D0DFF8080C007800283BD101210A
:1060A0003220FFF74DFADFF8740A0268DFF8141E99
:1060B00006A817F04DFF06A8FFF746FBDFF8081EFD
:1060C00006A817F045FF06A8FFF73EFB41F288300F
:1060D000FFF736FD002822D00620FFF719FA24AA80
:1060E000C0A119F097F9249816F0E0FD02000B000A
:1060F000DFF8D81D06A817F02BFF0022002106A804
:106100000DF02CF9DFF8140A00210160DFF8080A0D
:106110000021017003E0DFF8000A00210170CEE6E3
:10612000DFF8F0090078002845D0DFF8740B00781C
:1061300000283BD101213320FFF702FADFF8DC0908
:106140000268DFF8801D06A817F002FF06A8FFF717
:10615000FBFADFF8741D06A817F0FAFE06A8FFF791
:10616000F3FA41F28830FFF7EBFC002822D006203A
:10617000FFF7CEF923AA9BA119F04CF9239816F04A
:1061800095FD02000B00DFF8501C06A817F0E0FE9A
:106190000022002106A80DF0E1F8DFF880090021B7
:1061A0000160DFF870090021017003E0DFF8640985
:1061B0000021017083E6DFF858090078002818D024
:1061C000DFF8DC0A007800280ED101213020FFF72B
:1061D000B7F949F64040FFF7B3FC002808D0DFF8D4
:1061E00030090021017003E0DFF82409002101706B
:1061F00065E6DFF810090078002834D0DFF8A00A3F
:10620000007800282AD101213120FFF799F9DFF821
:10621000F808007800280AD0DFF8EC0800210170A7
:106220009EA106A817F094FE06A8FFF78DFA49F67E
:106230004040FFF785FC002803D0DFF8C8080021A4
:10624000017001214220FFF77BF94FF47A70FFF7CC
:1062500077FCDFF8B8080121017003E0DFF8A4083B
:10626000002101702BE6DFF8A4080078002838D060
:10627000DFF82C0A007800282FD101210320FFF736
:106280005FF94FF4FA70FFF75BFC002829D000207B
:10629000ADF84E000020ADF84C000020ADF84600EF
:1062A0000720FFF735F90DF1460313AADFF8801D2B
:1062B00019F0B0F8BDF84600BDF84C1051EA0020C6
:1062C000ADF84E0002220DF14E0146200CF018FEF2
:1062D000DFF838080021017003E0DFF83008002102
:1062E0000170DFF818080078002837D0DFF8B0090F
:1062F0000078002826D100217C20FFF721F9DFF863
:106300000008008880B2030A9BB2DFF8F407007827
:10631000C2B2DFF8241D06A817F01AFE06A8FFF780
:1063200013FA4FF47A60FFF70BFC002804D1DFF872
:106330009C0E0121017005E00222DFF8C4174920FC
:106340000CF0DEFD642011F0FDFDDFF8580901219D
:106350000170DFF8A80700210170B0E5DFF81C0A22
:106360000078002800F06D81002500260027DFF866
:1063700030090078002837D101213420FFF7E0F8F8
:106380004FF47A70FFF7DCFB002843D00520FFF7BD
:10639000BFF832AA13A119F03DF80F20FFF7B8F8A3
:1063A00033AA10A119F036F81520FFF7B1F834AA76
:1063B0000CA119F02FF81620FFF7AAF835AA09A1A9
:1063C00019F028F81720FFF7A3F836AA05A119F04D
:1063D00021F8369816F0EAFEDFF844170860012528
:1063E00018E000BF25660000DFF8500C3290DFF89F
:1063F000500C3390DFF84C0C3490DFF84C0C359097
:10640000DFF8480C3690369816F0D0FEDFF81017FB
:1064100008600125052011F095FDDFF8840800785B
:1064200000283DD100213720FFF78AF84FF47A7019
:10643000FFF786FB00284CD00F20FFF769F837AA3A
:10644000ADA118F0E7FF1120FFF762F838AAAAA162
:1064500018F0E0FF1220FFF75BF839AAA6A118F0A8
:10646000D9FF1320FFF754F83AAAA3A118F0D2FFDE
:106470003A9816F09BFEDFF8A81608601420FFF784
:1064800047F83BAA9CA118F0C5FF1620FFF740F87B
:106490003CAA99A118F0BEFF01261AE03031000095
:1064A000DFF89C0B3790DFF89C0B3890DFF8980BE7
:1064B0003990DFF8980B3A903A9816F077FEDFF8AB
:1064C00060160860DFF8840E3B90DFF8040D3C9006
:1064D0000126052011F036FDDFF8C40700780028FA
:1064E00040F0858000213D20FFF72AF84FF47A70B4
:1064F000FFF726FB002800F095800520FFF708F83D
:1065000004AB05AADFF8CC1C18F084FF04980599A9
:1065100051EA0020ADF8F4000620FEF7F9FF04ABC5
:1065200005AADFF8B01C18F075FF0498059951EA28
:106530000020ADF8F6000820FEF7EAFF04AB05AA3C
:10654000DFF8901C18F066FF0498059951EA0020C6
:10655000ADF8F8000A20FEF7DBFF04AB05AADFF870
:10656000741C18F057FF0498059951EA0020ADF803
:10657000FA000B20FEF7CCFF04AB05AADFF8541C91
:1065800018F048FF0498059951EA0020ADF8FC0086
:106590000C20FEF7BDFF04AB05AADFF8381C18F08D
:1065A00039FF0498059951EA0020ADF8FE0011204A
:1065B000FEF7AEFF04AB05AADFF8181C18F02AFF9F
:1065C0000498059951EA0020ADF800011220FEF769
:1065D0009FFF04AB05AADFF8FC1B18F01BFF049813
:1065E000059951EA0020ADF8020101271AE00520C3
:1065F000ADF8F4000720ADF8F6000920ADF8F8007A
:106600000B20ADF8FA000F20ADF8FC001520ADF816
:10661000FE004FF46960ADF8000140F2DD40ADF8D6
:106620000201012716EA0500C0B2384208D03C2218
:1066300032A90A200CF064FCDFF840070021017049
:106640003DE4DFF85C060078002823D10121012019
:10665000FEF776FFC820FFF773FA00283FF42FAC4F
:10666000DFF82C0E0078002814D001211720FEF747
:1066700067FF4FF47A70FFF763FA002809D1DFF85B
:106680006C040021017000220021DFF8C40C0CF022
:10669000B1FE14E4DFF858040078002800F02886E2
:1066A000DFF8F00D0078002846D0DFF8F405007818
:1066B00000283DD101210220FEF742FFDFF8D80D6E
:1066C0000268DFF8D81D06A817F042FC06A8FFF7FD
:1066D0003BF84FF4FA70FFF733FA00280ED1DFF8D9
:1066E0000C040021017000220021DFF8B40D0CF031
:1066F00081FEFFF7E4BB00BF25660000DFF8980DC0
:106700000068401CDFF8901D0860DFF88C0D006801
:10671000DFF8901D884203D1DFF87C0D0121016074
:10672000DFF8740D02680321DFF8A00612F07AF991
:10673000DFF8600D00210170DFF86C0DD0F8190052
:106740001790DFF8201C0860DFF81C0C0068401C64
:10675000DFF8141C0860DFF8100C0068DFF8441D37
:10676000884203D1DFF8000C01210160DFF8F80B4B
:1067700002680121DFF8540612F054F9DFF8E80B43
:1067800000681890052011F0DDFBDFF81405007893
:10679000002851D101211020FEF7D2FED1A106A878
:1067A00017F0D6FB06A8FEF7CFFFDFF8000D037C3D
:1067B000DFF8F80C027CDFF8F81C06A817F0C8FB1D
:1067C00006A8FEF7C1FF00208DF8180006A8FEF706
:1067D000BBFF06A8FEF7B8FFE5A106A817F0B8FBB7
:1067E00006A8FEF7B1FF189AA5A106A817F0B0FBFE
:1067F00006A8FEF7A9FF4FF47A70FFF7A1F9002869
:106800000AD1BA480021017000220021DFF8A80C4B
:106810000CF0F0FDFFF753BB0520FEF779FE21AB2E
:1068200022AADFF8B01918F0F5FD2198229951EA53
:106830000020ADF8640006E0DFF82C0B007810F0C3
:106840000F00ADF86400052011F07CFBDFF8500468
:106850000078002840F0828000211C20FEF770FEA6
:10686000DFF8580C007800281AD1DFF83C0C0068DB
:10687000149014A819F086FD416901F26C7102911F
:106880000169491C0191C168009143688268DFF881
:10689000781E06A817F05CFB06A8FEF755FF07E078
:1068A000DFF81C1C06A817F053FB06A8FEF74CFFE8
:1068B0004FF47A70FFF744F9052011F043FB0021F3
:1068C0001C20FEF73DFE1798149014A819F05AFDED
:1068D000416901F26C7102910169491C0191C16821
:1068E000009143688268DFF8DC1B06A817F030FBD4
:1068F00006A8FEF729FF4FF47A70FFF721F905206B
:1069000011F020FBDFF8C00B0078002826D0002112
:106910001C20FEF715FE1798DFF8901BB1F86B10DE
:106920003C2202FB0100149014A819F02BFD4169D0
:1069300001F26C7102910169491C0191C1680091D9
:1069400043688268DFF8841B06A817F001FB06A8DD
:10695000FEF7FAFE4FF47A70FFF7F2F8052011F017
:10696000F1FACF480078002863D1DFF83C0B0079BA
:1069700000285ED000211120FEF7E2FDDFF8501B59
:1069800006A817F0E5FA06A8FEF7DEFE00208DF84F
:10699000180006A8FEF7D8FEDFF80C0BB0F80520AB
:1069A000C3A106A817F0D4FA06A8FEF7CDFEDFF8BB
:1069B000F80A0279BEA106A817F0CAFA06A8FEF7DF
:1069C000C3FEBCA106A817F0C3FA06A8FEF7BCFEDA
:1069D00067A106A817F0BCFA06A8FEF7B5FE0020CE
:1069E0008DF8180006A8FEF7AFFE4FF47A70FFF797
:1069F000A7F800281DD13D48002101700022002188
:106A0000DFF8DC0D0CF0F6FC01211720FEF798FDF5
:106A10004FF47A70FFF794F8002808D1334800212A
:106A2000017000220021DFF828090CF0E3FCFFF7D9
:106A300046BA052011F086FA99480078002840F0FF
:106A4000B180DFF8640AB0F80700002800F0AA80DF
:106A500000211120FEF774FDDFF8600A007800289D
:106A600010D1DFF8A82CDFF8A81C06A817F070FAE0
:106A700006A8FEF769FE0FE0940402009C040200E1
:106A8000256C6400DFF8842CDFF8581D06A817F089
:106A90005FFA06A8FEF758FE00208DF8180006A839
:106AA000FEF752FEDFF8000AB0F80720DFF81414F2
:106AB00006A817F04DFA06A8FEF746FEC4A106A8E0
:106AC00017F046FA06A8FEF73FFEDFF8F009007857
:106AD000002829D1BFA106A817F03AFA06A8FEF7A8
:106AE00033FE28E03030000023650010A30A0010B8
:106AF0001665001017650010186500101C65001061
:106B0000E06400101E6500101F6500102065001075
:106B1000216500101A650010196500104864001006
:106B20004C640010C4EA0100ACA106A817F010FAEA
:106B300006A8FEF709FE0EA106A817F009FA06A896
:106B4000FEF702FE00208DF8180006A8FEF7FCFDF7
:106B50004FF47A70FEF7F4FF002823D1DFF83C0EE3
:106B60000021017000220021DFF8740C02E000BF58
:106B7000303100000CF03EFC01211720FEF7E0FC54
:106B80004FF47A70FEF7DCFF002809D1DFF80C0E15
:106B90000021017000220021DFF8B4070CF02AFC6C
:106BA000FFF78DB9052011F0CDF93D480078002898
:106BB0000ED100211C20FEF7C3FCC5A106A817F0CA
:106BC000C7F906A8FEF7C0FD4FF47A70FEF7B8FFCC
:106BD000052011F0B7F932480078002832D10021A1
:106BE0001220FEF7ADFC4FF47A70FEF7A9FF0028E3
:106BF0001FD1DFF8A80D0021017000220021DFF86D
:106C0000A00D0CF0F7FB01211720FEF799FC4FF4C3
:106C10007A70FEF795FF002809D1DFF8800D00217A
:106C2000017000220021DFF828070CF0E3FBFFF7DA
:106C300046B90520FEF76CFC0DF16602A5A118F01F
:106C4000E9FB11E00DF16605DFF85C080079DFF87B
:106C50005818B1F80510DFF85028B2F8072001FBEA
:106C6000002017F08DF92860052011F06BF90C4811
:106C70000078002840F0848000211320FEF760FC9B
:106C8000DFF83C0E0078002818D093A106A817F072
:106C90005FF906A8FEF758FD17E000BF00C00040EE
:106CA000156500101B65001058000200B8020200B4
:106CB00025640000F1F3F200DDEEAA5587A106A8D5
:106CC00017F046F906A8FEF73FFDDFF8DC07D0F81D
:106CD0001520D8A106A817F03BF906A8FEF734FD49
:106CE000DFF8DC0D0078002808D0DFF8241E06A8A5
:106CF00017F02EF906A8FEF727FD07E0DFF8C41D00
:106D000006A817F025F906A8FEF71EFD4FF47A70C5
:106D1000FEF716FF00281FD1DFF8800C002101705C
:106D200000220021DFF8A00D0CF064FB01211720E8
:106D3000FEF706FC4FF47A70FEF702FF002809D137
:106D4000DFF8580C0021017000220021DFF8000656
:106D50000CF050FBFFF7B3B80520FEF7D9FB0DF19F
:106D60006A025CA118F056FB0620FEF7D1FB0DF17C
:106D70006E0258A118F04EFB4FE000BF22650010D4
:106D80000DF16A00002101600DF16E00002101602B
:106D90000DF166000568DFF81007D0F8150017F050
:106DA000F9F80100280017F089FF19D20DF16600EB
:106DB00005680DF16E06DFF8F006D0F8150017F043
:106DC000E9F8290014F050FC306026E00040024051
:106DD00031000000E8EDF200E8EA0100F8F2F0000E
:106DE0000DF166000568DFF8C006D0F8150017F051
:106DF000D1F8290017F062FF0FD20DF16600056887
:106E00000DF16A06DFF8A006D0F8150017F0C2F8F9
:106E10000100280014F028FC3060052011F092F8E1
:106E20000DF16A010868002118F0CCFC5CD0DFF895
:106E3000180D007800280FD100211C20FEF780FBE0
:106E4000DFF8081D06A817F083F806A8FEF77CFCFB
:106E50004FF47A70FEF774FE052011F073F8DFF836
:106E6000E80C007800280ED100211C20FEF768FBFA
:106E700017A106A817F06CF806A8FEF765FC4FF4FA
:106E80007A70FEF75DFE052011F05CF8DFF8B80CB3
:106E90000078002824D101211720FEF751FB4FF480
:106EA0007A70FEF74DFE00281AD1DFF8F00A0021B3
:106EB000017000220021DFF898040CF09BFAFEF725
:106EC000FEBF00BFA4040200AC04020064E601009F
:106ED0002000000025660000303200003030000045
:106EE000052011F02FF8EFE10DF16E010868002187
:106EF00018F068FC1CD0DFF8C00C0078002817D10F
:106F0000DFF8440C007800280FD100211C20FEF788
:106F100017FBDFF8C01C06A817F01AF806A8FEF742
:106F200013FC4FF47A70FEF70BFE052011F00AF8FF
:106F3000DFF89405007800281BD0DFF80C0C0078EF
:106F4000002813D100211C20FEF7FAFADFF85C05B7
:106F5000B0F86B20DFF8FC1B06A816F0F9FF06A8B6
:106F6000FEF7F2FB4FF47A70FEF7EAFD052010F011
:106F7000E9FFDFF8D40B007800280ED100211C2097
:106F8000FEF7DEFA94A106A816F0E2FF06A8FEF7C7
:106F9000DBFB4FF47A70FEF7D3FD052010F0D2FF33
:106FA000002517E0DFF8A00B007800280FD10021A2
:106FB0001C20FEF7C5FA159A88A106A816F0C8FF8E
:106FC00006A8FEF7C1FB4FF47A70FEF7B9FD052065
:106FD00010F0B8FF6D1C2800C0B206280BD215A80F
:106FE000009011AB0DF145022900C9B202200CF04E
:106FF000FFFE0028D6D1DFF8500B0078002811D111
:10700000EDB2022D0ED300211C20FEF799FA72A1D9
:1070100006A816F09DFF06A8FEF796FB4FF47A70BF
:10702000FEF78EFD052010F08DFF002528E000BF43
:10703000DC020200256C6400E802020000E0C444A7
:1070400000FA51470000694500A09B4480D1984751
:10705000DFF8F40A007800280FD100211C20FEF789
:107060006FFA159A5DA106A816F072FF06A8FEF742
:107070006BFB4FF47A70FEF763FD052010F062FFA2
:107080006D1C2800C0B206280BD215A8009011ABC9
:107090000DF145022900C9B205200CF0A9FE002817
:1070A000D6D1DFF8A40A0078002811D1EDB2022D64
:1070B0000ED300211C20FEF743FA47A106A816F0C4
:1070C00047FF06A8FEF740FB4FF47A70FEF738FD45
:1070D000052010F037FFDFF8440B0078002800F09F
:1070E000BE80DFF8640A0078002826D100211A202B
:1070F000FEF726FA97A106A816F02AFF06A8FEF7C3
:1071000023FB95A106A816F023FF06A8FEF71CFB9B
:10711000D6A106A816F01CFF06A8FEF715FB8FA146
:1071200006A816F015FF06A8FEF70EFB8CA106A810
:1071300016F00EFF06A8FEF707FBDB48D0F8190093
:107140008DF84800D848D0F81900C0F307208DF812
:107150004900D548D0F81900C0F307408DF84A001F
:10716000D148D0F81900000E8DF84B000CF0D1FF7B
:1071700012AA12A915F04CFCCC48057C18980CF00A
:10718000DBFF03051B0D9DF84B0003909DF84A00A3
:1071900002909DF8490001909DF8480000902A0057
:1071A000DFF8F41A45A816F0D3FE0C2145A80CF020
:1071B000E9FF0200DFF8F01A48A816F0C9FEDFF870
:1071C000EC1A06A816F0C4FE002514E01D65001098
:1071D0000060EA47D0020200200000002573000092
:1071E00045A82A5CDFF8C01A06A810EB4500001D70
:1071F00016F0AEFE6D1C0E2DF2DBDFF84C090078A8
:10720000002812D106A8FEF79FFA40F6B830FEF724
:1072100097FC002809D1DFF88407002101700022C3
:107220000021DFF88C0A0CF0E5F8052010F08AFE4A
:10723000DFF81409007800280ED100211C20FEF789
:107240007FF99CA106A816F083FE06A8FEF77CFA3B
:107250004FF47A70FEF774FC052010F073FEDFF82F
:10726000E8080078002828D100211420FEF768F9EA
:1072700040F6B830FEF764FC00281ED1DFF81C078A
:107280000021017000220021DFF8280A0CF0B2F87A
:1072900001211720FEF754F94FF47A70FEF750FCE5
:1072A000002808D1DFF8F406002101700022002137
:1072B00027480CF09FF8FEF702BEDFF8FC09012119
:1072C0000170052010F03EFE00F04EFDCDF872007A
:1072D0001A2217A907200BF013FE642010F032FECB
:1072E000DFF8D80901210170DFF8D409002101700D
:1072F000DFF8D009007800283EF4E1AD6548007859
:1073000000284AD0DFF840080078002842D1012147
:107310000220FEF715F960480268604906A816F0D9
:1073200017FE06A8FEF710FA4FF4FA70FEF708FCF5
:1073300000281BD1DFF86406002101700022002123
:1073400057480CF057F8FEF7BABD00BF00D8D64733
:1073500074F101003439000030310000464600006D
:107360003032000050640010546400104A48006835
:10737000401C49490860484800684A49884202D18F
:10738000454801210160444802680321DFF83809BB
:1073900011F048FB3F4800210170DFF83009006818
:1073A0002A90DFF82C090068401CDFF824190860D7
:1073B000DFF81C0900683B49884203D1DFF8100957
:1073C00001210160DFF8080902680121DFF8F808EF
:1073D00011F028FBDFF8F80800682B90052010F06A
:1073E000B1FDDFF864070078002873D10121102077
:1073F000FEF7A6F81DA106A816F0AAFD06A8FEF73E
:10740000A3F92A48037C2948027C294906A816F0DA
:107410009FFD06A8FEF798F900208DF8180006A831
:10742000FEF792F906A8FEF78FF9D9A106A816F083
:107430008FFD06A8FEF788F92B9AD6A106A816F0AC
:1074400087FD06A8FEF780F94FF47A70FEF778FB07
:1074500000280DD1DFF84405002101700022002131
:1074600015480BF0C7FFFEF72ABD00BF3030000003
:107470000520FEF74DF803AB20AADFF8581817F0E7
:10748000C9FF0398209951EA0020ADF8B00028E028
:10749000A40A00100865001058640010C4FC010024
:1074A000E4F6010000CA9A3BF85E0010CC3D0010E3
:1074B000D8FC01002000000094F1010012650010CA
:1074C000FCF90100B4E60100A60A0010DCE60100A8
:1074D00068000200DFF8F807007810F00F00ADF840
:1074E000B000052010F02EFDDFF85C0600780028C3
:1074F0000ED100211C20FEF723F8DFF8DC07FEF791
:1075000023F94FF47A70FEF71BFB052010F01AFDEB
:10751000052010F017FDDFF830060078002857D15D
:1075200000211120FEF70CF8DFF8B007FEF70CF988
:1075300000208DF8180006A8FEF706F9DFF88C0782
:107540004268A9A106A816F003FD06A8FEF7FCF8FC
:10755000DFF878070289A4A106A816F0F9FC06A8AE
:10756000FEF7F2F8DFF87807FEF7EEF888A106A834
:1075700016F0EEFC06A8FEF7E7F800208DF81800DC
:1075800006A8FEF7E1F84FF47A70FEF7D9FA002862
:107590001ED1DFF80804002101700022002190486C
:1075A0000BF028FF01211720FDF7CAFF4FF47A7076
:1075B000FEF7C6FA002809D1DFF8E00300210170C8
:1075C00000220021DFF81C070BF014FFFEF777BC48
:1075D000052010F0B7FCDFF87005007800280ED108
:1075E00000211C20FDF7ACFFC9A106A816F0B0FCD5
:1075F00006A8FEF7A9F84FF47A70FEF7A1FA052065
:1076000010F0A0FCDFF84005007800282FD1002101
:107610001220FDF795FF4FF47A70FEF791FA0028DB
:107620001CD1DE480021017000220021DC480BF053
:10763000E1FE01211720FDF783FF4FF47A70FEF77A
:107640007FFA002808D1D5480021017000220021CE
:10765000DFF890060BF0CEFEFEF731BC0520FDF7FB
:1076600057FF0DF1B202CFA117F0D4FE0BE00DF1E0
:10767000B205DFF858064068DFF85016098948431C
:1076800016F088FC2860052010F05CFC0DF1B605B2
:10769000DFF85406006816F07DFC2860DFF8A804C7
:1076A0000078002878D100211320FDF749FFDFF88A
:1076B00010040078002807D0BBA106A816F048FCEB
:1076C00006A8FEF741F806E0B8A106A816F040FCAF
:1076D00006A8FEF739F8DFF8100602682DA106A803
:1076E00016F036FC06A8FEF72FF8DFF8D403007872
:1076F00000280FD0DFF8181406A816F029FC06A8F9
:10770000FEF722F80EE000BF8CE60100015F0010DA
:10771000F4020200DFF8AC1306A816F019FC06A864
:10772000FEF712F84FF47A70FEF70AFA00281DD11E
:107730009A480021017000220021DFF88C030BF031
:1077400059FE01211720FDF7FBFE4FF47A70FEF77A
:10775000F7F9002808D1914800210170002200218A
:10776000DFF880050BF046FEFEF7A9BB0520FDF70C
:10777000CFFE0DF1BA028BA117F04CFE0620FDF7EB
:10778000C7FE0DF1BE0287A117F044FE49E000BF1D
:1077900030310000256C64000DF1BA000021016059
:1077A0000DF1BE00002101600DF1B2000568DFF8A7
:1077B0003805006816F0EEFB0100280017F07EFA8D
:1077C00014D20DF1B20005680DF1BE06DFF8180500
:1077D000006816F0DFFB290013F046FF306020E060
:1077E000B4F1010000030200256400000DF1B200B5
:1077F0000568DFF8F404006816F0CCFB290017F0E8
:107800005DFA0ED20DF1B20005680DF1BA06DFF88F
:10781000D804006816F0BEFB0100280013F024FF16
:107820003060052010F08EFB0DF1BA0108680021D0
:1078300017F0C8FF48D0C448007800280ED10021B6
