:10000000000400100D020200F5C30100FDC3010051
:0C00100005C401000DC4010015C401006E
:10001C00DA25F5EF000000000000000000000000F1
:10002C001DC4010025C401000000000009D6010018
:10003C003DAB01002DC4010035C401003DC40100DD
:10004C0045C401004DC4010055C401005DC401004C
:10005C0065C401006DC4010075C401007DC40100BC
:10006C0085C401008DC4010095C401009DC401002C
:10007C00A5C40100ADC40100B5C40100BDC401009C
:10008C00C5C40100CDC401001D940000D5C40100FD
:10009C00DDC4010095C90000E5C40100F342010074
:1000AC00EDC40100C3B20000F5C40100FDC40100A1
:1000BC0005C501000DC5010015C501001DC50100D8
:0402FC0021436587AE
:1003000031323334350000000000000000000000EE
:1003100000000022C7A50003005D00A8C000FFFF89
:10032000FF7900A8C00100A8C07900A8C00F5A64D6
:1003300080250000010078000000173B180000171E
:100340003B14003C00320064009600C800FA002C08
:10035000015E019001C201F401260258028A02BC2A
:1003600002EE02200352038403B603E8031A044C8E
:10037000047E04B004F401000101010000016400E6
:1003800064003200C800010A00320001003200019E
:100390000101010D05000D06050000202020202090
:1003A000202020202020202020202020202020204D
:1003B00020202020EFF0EEE8E7E2EEE4F1F2E2EEBA
:1003C0002C202020200000002020202020EEE1F121
:1003D000EBF3E6E8E2E0EDE8E52C20F0E5ECEEED0D
:1003E000F220EFEBE0F2EDFBF52020202020202092
:1003F000000000202020E0E2F2EEECE0F2E8F7E579
:10040000F1EAE8F520EFE0F0EAEEE2EEEA2C20F186
:10041000E8F1F2E5EC20202020202000000020E47C
:10042000EEF1F2F3EFE02C20E2E8E4E5EEEDE0E1BE
:10043000EBFEE4E5EDE8FF2C20F1E8E3EDE0EBE88E
:10044000E7E0F6E8E920000000000D07000D0800D5
:100450000D09000D0F00000000000000000000006A
:10046000000000000000000000000000000000008C
:10047000000000000000000000000000000000007C
:10048000000000000000000000000000000000006C
:10049000000000000000000000000000000000005C
:08069000000000A55A00000063
:10200000BFF34F8F7048006810F4E0606F490843D9
:102010006D490860BFF34F8FFEE76D4909686C4A50
:102020001268521A8242FAD3704701B569480078A3
:10203000002811D1674801210170042200A928203D
:1020400012F03EFD644800990160644962480068EE
:1020500013F030FA6249087001BD80B56149097812
:10206000002907D15F4901220A700B2201005E4856
:102070001FF067FF01BD5D49096840185B490860B2
:1020800070475B480121017070475A480121017077
:10209000704780B500220021022012F011FD564841
:1020A0000121017012F04FFC01BD80B553480121A0
:1020B0000170534890F8920005F023FE504890F8C4
:1020C00090000BF0CBFB4E4890F88F000BF006FC15
:1020D0004B4890F87D0009F014F8494890F88600C4
:1020E00009F064F8464890F891000BF069FB012074
:1020F00016F011FE01BD434801210170704780B503
:10210000FFF7D3FF40480121017001BD80B5FFF703
:10211000CCFF3E480121017001BD80B5C0B200284E
:1021200004D0FFF7C2FF3A480121017001BDC0B2DF
:10213000002802D03748012101707047C0B2002842
:1021400002D03548012101707047344801210170E7
:10215000704710B5040032481BF077FB2F48002170
:10216000017021002E481FF091F82D481BF02FFB25
:1021700010BD2A48007870472A4801210170704735
:1021800010B5040028481BF060FB264800210170B0
:10219000210025481FF07AF823481BF018FB10BDDA
:1021A00020480078704780B51F481BF04EFB1D4843
:1021B0000021017001BD80B51B481BF046FB19488A
:1021C0000121017001BD00000CED00E00400FA05E2
:1021D00008400040496B0010846A00104B6B0010EF
:1021E0004A6B00104C6B001098680010886A001051
:1021F0004D6B0010536B00104E6B0010DB0A00108B
:10220000F83D00104F6B0010506B0010516B001028
:10221000546B0010576B0010556B0010DC0A001057
:10222000E0670010DD0A0010F46700102DE9F043AC
:1022300099B0002004900026002709F049F905F024
:10224000D1FF012005F0A7FF0400022005F0A3FF45
:102250000500DFF8841C20001DF0DEFBDFF8F41A17
:1022600028001DF0D9FB0021022005F0A1FFDFF8B6
:10227000E80A09F0E0FCDFF8E40A12F005FA12F0CF
:10228000E1FF13F021FA13F00EF9DFF8D40A0AF097
:1022900027FBDFF8D00A0AF09AF9DFF8CC1ADFF84A
:1022A000CC0A0AF013F807F067FBDFF8C40A09F05C
:1022B000B5FD05F00BFD012005F0CBFD012005F07B
:1022C000CBFDDFF8B00A0BF049FA08F0B9FEDFF8F1
:1022D000A80A16F0FBFBDFF8A40A06F09AFF06F046
:1022E0007FFDDFF89C1A002006F0EFFDDFF8941A5E
:1022F000012006F0EAFDDFF8901A022006F0E5FD65
:10230000DFF8881A032006F0E0FDDFF8841A0420C5
:1023100006F0DBFDDFF87C1A052006F0D6FDDFF8BD
:10232000781A062006F0D1FDDFF8741A002006F0B6
:10233000DBFDDFF8701A052006F0D6FDDFF89C1BE8
:10234000062006F0D1FDDFF8981BDFF8980B06F0A9
:102350005FFB0022DFF8901BDFF8900B1BF02CFADC
:102360000022DFF88C1BDFF88C0B1BF025FA002213
:102370000021AA2012F0A4FB0022DFF87C0B017CD4
:10238000DFF8780B12F0CAFDDFF8740B0078002834
:1023900005D000220021DFF86C0B12F0BFFDDFF842
:1023A000680B0078002805D000220021DFF85C0BC4
:1023B00012F0B4FD0422DFF8581B342012F080FB29
:1023C0000222DFF8501B452012F07AFB0322DFF8CF
:1023D000481B472012F074FB4FF47A7017F096FBFD
:1023E0004FF4FA60FFF7CCFE0021DFF8300B18F055
:1023F0000FF9DFF82C1B884211D0DFF8281B2000D2
:102400001DF00AFBDFF8201B28001DF005FB03214F
:10241000022005F0CDFEDFF8140B00210170FFF75C
:1024200044FE1021DFF8080B1CF0D8F81DF08AF9E3
:102430001AF009FD14F0BEF9002801D0012000E0D7
:102440000020DFF8F01A0870DFF8E80A00780028AA
:102450000CD1DFF8E40A007800280BD1012013F03A
:1024600068F8DFF8D40A0121017003E0DFF8C80A38
:1024700000210170C82013F0E1F800280CD1C82019
:1024800012F078FE002807D1C82012F0C5FF0028FE
:1024900002D1642017F03AFBDFF85C0A407C002888
:1024A00020D0FFF766FE00281CD005F059FD0590EE
:1024B000042205A9FE200AF0FFF9042205A9FF2045
:1024C00012F0FEFA1BF0F0FC052148433C2190FB82
:1024D000F1F201FB120000F22C104FF47A71484324
:1024E000FFF737FE07F02AF916F011FBDFF83C0A78
:1024F0000078002853D0022800F01A86C0F0DD874B
:10250000042800F06B86C0F04F86062800F0BC86D9
:10251000C0F09F86082800F03287C0F0F0860A28B5
:1025200000F07A83C0F095870C2800F0E183C0F0BA
:10253000AC830E2800F05084C0F08F84102800F087
:10254000C685C0F08685122800F0A9803BD31428E8
:1025500000F0EF87C0F0C980162801F06E80C1F04E
:102560000080182801F06082C1F0CC871A2801F0A1
:102570001887C1F09D811C2801F00E82C1F07A8479
:102580001E2801F01883C1F0B484202801F03D8694
:10259000C1F04485212801F03A8701F0C9BF00212C
:1025A000DFF8780918F034F8DFF87419884241F040
:1025B000BF874FF47A70FFF7E3FDDFF87009112150
:1025C000017001F0B5BFFFF7EBFD002801F0B08707
:1025D000DFF8680900210170DFF86409002101704B
:1025E000DFF8600900210170DFF85C09002101605B
:1025F000DFF8580900210170DFF85409002101704B
:10260000DFF8500900210170DFF84C09002101704A
:10261000DFF8480900210170DFF84409002101704A
:102620000020049000260027002005F01EFC012059
:1026300005F015FC002005F015FCDFF82809002145
:102640000170DFF8240900210170DFF82009002162
:102650000170DFF81C0900210170DFF81809002162
:102660000170DFF8140900210170DFF81009002162
:102670000170DFF80C0900210170DFF80809002162
:102680000170DFF8040920210170DFF80009012141
:102690000170DFF898081321017001F049BFFFF7BE
:1026A0007FFD002801F04487DFF8E008007800286B
:1026B00002D002280AD012E0DFF8D41828001DF05A
:1026C000ABF90321022005F073FD08E0DFF8C41820
:1026D00028001DF0A1F90321022005F069FDDFF8B3
:1026E0004C081321017001F023BF0021DFF82C08F2
:1026F00017F08EFFDFF82818884219D00022002139
:10270000DFF8940812F00AFCDFF8901820001DF0A2
:1027100083F9DFF88C1828001DF07EF900210220D3
:1027200005F046FD4FF4FA6017F0F0F9FFF768FC8A
:10273000DFF8D4070078002819D000220021DFF844
:10274000640812F0EBFBDFF8601820001DF064F95C
:10275000DFF84C1828001DF05FF90021022005F079
:1027600027FD4FF4FA6017F0D1F9FFF749FCFFF7A6
:1027700017FD002800F09B804FF4FA70FFF700FD72
:10278000DFF8040800783A2804D1DFF8FC0720219C
:10279000017003E0DFF8F0073A21017005F0E0FB7B
:1027A000069006A81FF060FC8046D8F8140000F2DE
:1027B0006C700390D8F81000401C0290D8F80C0000
:1027C0000190D8F804000090DFF8BC070378D8F82F
:1027D0000820DFF8D81720001DF01EF9DFF81807D1
:1027E00090F83800D8F8081088420FDBD8F80800B5
:1027F000DFF8041791F83810884224D1D8F8040083
:10280000DFF8F41691F8391088421CDBD8F808007C
:10281000DFF8E41691F83A1088420FDBD8F8080088
:10282000DFF8D41691F83A1088420CD1DFF8C806C8
:1028300090F83B00D8F80410884204DBDFF8800EE3
:102840000121017003E0DFF8780E00210170DFF84C
:10285000A80690F83E00002825D0D8F80800DFF838
:10286000981691F83F10884207DBD8F80400DFF88B
:10287000881691F84010884207DADFF87C0690F855
:102880003F00D8F8081088420DDADFF824070078F6
:1028900000280CD1DFF8180701210170DFF8C40609
:1028A0000121017003E0DFF8080700210170DFF863
:1028B000D80600783A2841F03B86DFF8F806007821
:1028C000002809D0DFF8EC0600210170DFF85C0673
:1028D0000221017001F02CBEDFF8DC060078002830
:1028E00009D0DFF8D40600210170DFF840060A2184
:1028F000017001F01DBEDFF8C4060078002816D074
:10290000DFF8B80600210170DFF8B41628001DF0CA
:1029100083F80021022005F04BFC4FF47A70FFF79A
:102920002FFCDFF808060721017001F001BEDFF877
:1029300038060078002812D0DFF8881628001DF02D
:102940006BF80021022005F033FC4FF4FA60FFF72A
:1029500017FCDFF8D8051121017001F0E9BDDFF89F
:10296000640D0078002812D1DFF85C1628001DF0F5
:1029700053F80121022005F01BFC4FF4FA60FFF729
:10298000FFFBDFF8A8050121017001F0D1BDDFF8E0
:10299000E4050078002809D0DFF8D805002101708F
:1029A000DFF888051121017001F0C2BD05F000FAC1
:1029B000002812D0DFF8141628001DF02DF8012190
:1029C000022005F0F5FB4FF4FA60FFF7D9FBDFF8C2
:1029D0005C051421017001F0ABBDDFF890050078B3
:1029E000002805D0DFF844050C21017001F0A0BDDE
:1029F000DFF870050078002805D0DFF830050321E6
:102A0000017001F095BDDFF8B80C0078DFF86015B3
:102A10000978084205D0DFF814051521017001F08E
:102A200087BDDFF89C0C0078DFF82815097808428C
:102A300005D0DFF8F8041921017001F079BDDFF845
:102A4000800C0078DFF8F4140978084205D0DFF82C
:102A5000DC041621017001F06BBDDFF8F40400788E
:102A6000002805D0DFF8C4041721017001F060BD13
:102A7000DFF84C0C0078DFF8C814097808425DD004
:102A8000DFF8C0040078002840D0DFF86C0490F82C
:102A90003500002804D1DFF8B404007801280AD1F9
:102AA000DFF8D81D20001CF0B7FFDFF8201C28003D
:102AB0001CF0B2FF34E0DFF89404007802280AD159
:102AC000DFF80C1C20001CF0A7FFDFF8081C280012
:102AD0001CF0A2FF24E0DFF87404007803280AD178
:102AE000DFF8EC1B20001CF097FFDFF8EC1B280040
:102AF0001CF092FF14E0DFF8E41B20001CF08CFFB8
:102B0000DFF8DC1B28001CF087FF09E0DFF8D41B8E
:102B100020001CF081FFDFF8D01B28001CF07CFF98
:102B20000021022005F044FB4FF4FA60FFF728FB78
:102B3000DFF8F8031121017001F0FABCDFF830046E
:102B40000078DFF8101409780843DFF8F0130978EB
:102B50000843DFF8EC1309780843DFF8E813097835
:102B60000843C0B2002812D0DFF8801B28001CF0F8
:102B700053FF0321022005F01BFB42F21070FFF708
:102B8000FFFADFF8A8031121017001F0D1BCDFF8D2
:102B9000F00C0078002819D0DFF8E82C7FA128007D
:102BA0001CF03AFFDFF8E00C0178022005F000FB92
:102BB000DFF8D80C0088FFF7E3FADFF8C40C002137
:102BC0000170DA481221017001F0B2BCDFF8F00A9E
:102BD000007800280DD1DFF8B4030078002808D071
:102BE000DFF8A80300210170D0481221017001F024
:102BF0009FBCDFF8CC0A0078002801F09984E348F4
:102C00000078022801F09484E04802210170C7484E
:102C10001221017001F08CBC00220021192011F05A
:102C20004FFFB54890F89200002816D0012005F01B
:102C300068F805F0D6F8DFF89C1E28001CF0ECFEC2
:102C40000121022005F0B4FA47F23050FFF798FA5C
:102C5000B6480B21017001F06BBC00220021DFF8A7
:102C6000300C12F05BF9DFF82C1C28001CF0D4FEAD
:102C70000121022005F09CFA41F28830FFF780FA2A
:102C8000AA481121017001F053BC05F0B1F80028E9
:102C900011D0DFF8041C28001CF0BEFE0021022029
:102CA00005F086FA4FF4FA60FFF76AFA9F4811219F
:102CB000017001F03DBCFFF773FA002801F0388481
:102CC00000220021DFF8D40B12F071F9DFF8D01BDD
:102CD00028001CF0A1FE0321022005F069FA41F64C
:102CE0005830FFF74DFA91480121017001F020BCE6
:102CF000002200211B2011F0E3FE7F4890F8920093
:102D0000002851D008F0F6F908F01AFA0AF0DDFDB3
:102D10000AF024FE012004F0F4FF05F06FF8DFF85C
:102D2000841B28001CF078FE0121022005F040FAE7
:102D300042F21070FFF724FA08F04EFA002804D08F
:102D40007A480E21017001F0F3BB78480D21017023
:102D500001F0EEBBA018020087440100B5BB0000E3
:102D600089450000F3450000054900001D4B0000A7
:102D7000354F0000772000005B2000002B20000072
:102D80008320000093200000AB200000F72000000B
:102D9000FF2000000D2100008B20000025730000A3
:102DA0001B2100003D21000000220021DFF8E00A85
:102DB00012F0B4F8DFF8DC1A28001CF02DFE012117
:102DC000022005F0F5F941F28830FFF7D9F95748AC
:102DD0001121017001F0ACBB05F018F8002813D0E8
:102DE00008F0C0F9DFF8C01A28001CF015FE012118
:102DF000022005F0DDF9DFF8B40AFFF7C1F94B480E
:102E00000D21017001F094BBFFF7CAF9DFF8B41887
:102E1000097891F001010843C0B2002801F08883CD
:102E2000002200211D2011F04BFE00220021DFF8BE
:102E3000FC0D12F0BCF8DFF8A01C28001CF0ECFD23
:102E40000321022005F0B4F941F65830FFF798F954
:102E500036480121017001F06BBB08F0BDF9002874
:102E600004D008F099F9002800F0C98004F0EEFFC2
:102E700080465FF000092048B0F87E001E49B1F896
:102E8000801001FB00991C48B0F882001A49B1F883
:102E9000841001FB009908F09FF900280FD0164814
:102EA000B0F887001449B1F8891001FB0099124865
:102EB000B0F88B001049B1F88D1001FB0099C145A5
:102EC00080F28680DFF8141C28001CF0A5FDB8EB0A
:102ED000090004F0A1FF84E08C1802002F210000FB
:102EE000398A01006F8A01004B210000E067001061
:102EF00079210000F4670010F83D00108C150200E5
:102F0000466B001038F80100476B00107C0502008A
:102F1000303E0010343E0010363E001000400240AB
:102F2000DDEEAA55B4180200A0050200DE0A00106A
:102F300070680010486B0010E00A00104C6B001025
:102F4000496B00104A6B0010846A00104B6B001034
:102F50005A6B00105D6B00105E6B00105F6B001011
:102F6000606B0010616B00104E6B00104F6B001017
:102F7000536B00104D6B0010556B0010566B00101A
:102F8000576B0010586B0010E10A0010DF0A0010A8
:102F9000C4050200DC0C0200FC0C0200C818020090
:102FA000DC180200F018020004190200A415020047
:102FB000526B0010506B0010516B0010546B0010DE
:102FC00018190200F41C02002C190200041D020052
:102FD000DFF8201E28001CF01FFDB9EB080004F0EC
:102FE00027FF0321022005F0E3F842F21070FFF7FB
:102FF000C7F8DFF8040E0F21017001F099BAFFF74E
:10300000CFF8DFF8C016097891F001010843C0B28B
:10301000002801F08D82002200211D2011F050FDBA
:1030200000220021DFF8080C11F0C1FFDFF8041CBA
:1030300028001CF0F1FC0321022005F0B9F841F64C
:103040005830FFF79DF8DFF8B00D0121017001F055
:103050006FBA04F0E7FE002816D004F0EFFE002857
:1030600012D0DFF8D41B28001CF0D6FC012102206E
:1030700005F09EF84FF4FA60FFF782F8DFF8780D5C
:103080001021017001F054BAFFF78AF8002801F00E
:103090004F82002200211D2011F012FD002200218C
:1030A000DFF8980B11F083FFDFF8941B28001CF069
:1030B000B3FC0321022005F07BF841F65830FFF7FE
:1030C0005FF8DFF8340D0121017001F031BAFFF72C
:1030D00067F8002801F02C8207F0EBFF08F07CF87D
:1030E000002801D008F013F80AF0DCFB0AF025FCF8
:1030F00008F000F808F024F80AF0E7FB0AF02EFCCC
:10310000002200211C2011F0DBFCDFF8741C2800D9
:103110001CF082FC0121022005F04AF84FF4FA600D
:10312000FFF72EF8DFF8D00C1121017001F000BA82
:10313000DFF8C80C90F8920000281CD00022002173
:103140001A2011F0BDFC012004F0DBFD04F038FE74
:10315000DFF8301C28001CF05FFC0121022005F084
:1031600027F842F21070FFF70BF8DFF88C0C0421FF
:10317000017001F0DDB900220021DFF8140711F021
:10318000CDFEDFF8101728001CF046FC01210220BC
:1031900005F00EF841F28830FEF7F2FFDFF8580C28
:1031A0001121017001F0C4B9002200211A2011F090
:1031B00087FC04F009FEDFF8481C28001CF02CFCFA
:1031C0000321022004F0F4FF42F21070FEF7D8FF52
:1031D000DFF8240C0421017001F0AAB904F0FBFD12
:1031E000002812D0DFF81C1C28001CF015FC002160
:1031F000022004F0DDFF4FF4FA70FEF7C1FFDFF8A4
:10320000F80B0521017001F093B9FEF7C9FF002802
:1032100001F08E8100220021DFF8EC0B11F0C7FED7
:1032200000220021DFF8E40B11F078FEDFF8E01B4C
:1032300028001CF0F1FB0321022004F0B9FF4FF439
:10324000FA50FEF79DFFDFF8B00B0121017001F08D
:103250006FB900220021DFF8BC0B11F05FFE0AF00D
:10326000DDFADFF8B41B28001CF0D6FB0121022098
:1032700004F09EFF4EF66020FEF782FFDFF8780B29
:103280000621017001F054B90AF0DFFA002812D0CB
:10329000DFF8701B28001CF0BFFB0021022004F0A7
:1032A00087FF4FF4FA70FEF76BFFDFF84C0B11212C
:1032B000017001F03DB9FEF773FF002801F038817D
:1032C00000220021DFF8540B11F028FEDFF8501B1C
:1032D00028001CF0A1FB00220021DFF82C0B11F0CC
:1032E00066FE0321022004F063FF4FF4FA50FEF75C
:1032F00047FFDFF8040B0121017001F019B9FEF757
:103300004FFF002801F01481DFF8180B0078002827
:1033100022D0DFF8140B0078DFF8101B31F81020F2
:10332000DFF80C1B28001CF077FB0321022004F0BF
:103330003FFFDFF8F40A0078DFF8F01A31F81000E8
:1033400004F096FD41F65830FEF71AFFDFF8A80AA0
:103350000821017001F0ECB8DFF8D81A28001CF041
:103360005BFB0321022004F023FF41F65830FEF7F7
:1033700007FFDFF8840A1121017001F0D9B804F0C9
:1033800080FD002816D004F082FD002812D1DFF85D
:10339000A81A28001CF040FB0121022004F008FFBD
:1033A0004FF47A70FEF7ECFEDFF84C0A0921017049
:1033B00001F0BEB8FEF7F4FE00280AD104F067FD64
:1033C000C049097891F001010843C0B2002801F01A
:1033D000AF80DFF8540A0078DFF8501A31F8102077
:1033E000DFF8581A28001CF017FB002200212800E3
:1033F00011F094FDDFF8481A28001CF00DFB0021A5
:10340000022004F0D5FE4FF47A70FEF7B9FEDFF823
:10341000180A0078401CDFF8101A0870DFF8080A54
:1034200000781E2803D3DFF8000A00210170DFF8BE
:10343000F4090078002806D0DFF8E8090078401E7B
:10344000DFF8E0190870DFF8B0090721017001F01A
:103450006FB804F0ADFC002841F06A80DFF8E41991
:1034600028001CF0D9FA0021022004F0A1FE4FF43C
:103470007A70FEF785FEDFF8B0090078401CDFF8AF
:10348000A8190870DFF8A00900781E2803D3DFF818
:10349000980900210170DFF88C090078002806D017
:1034A000DFF880090078401EDFF878190870DFF82F
:1034B00048090721017001F03BB8F1480078002865
:1034C00010D0F04A80A128001CF0A6FAEE4801783E
:1034D000022004F06DFEED480088FEF751FEE8483A
:1034E00000210170FEF75CFE00280AD0DFF83C1EC8
:1034F00028001CF091FA0121022004F059FEFEF789
:1035000052FE70480078002801F01280DFF8381968
:1035100028001CF081FA0021022004F049FE4FF43B
:103520007A70FEF72DFEDFF8D0081121017000F04F
:10353000FFBF04F03DFC002840F0FA87DFF80419D3
:1035400028001CF069FA0021022004F031FE4FF43B
:103550007A70FEF715FEDFF8A0081121017000F067
:10356000E7BFDFF89808B0F875000490049ADFF818
:10357000DC1820001CF050FADFF8D408012101709B
:10358000DFF87808007CDFF8CC180870DFF8C40892
:103590000021A0F8011004F0E3FCDFF8B818C1F82E
:1035A0000700DFF8B018C1F80300DFF8841D0860D9
:1035B000DFF87C0D00210171DFF8740D0021A0F807
:1035C0000510DFF86C0D0499A0F80710DFF88818D3
:1035D000DFF888081CF020FADFF8540D0021C0F84D
:1035E000151004980D9004F0BBFC0E9008220DA954
:1035F000232011F065FA012004F034FCDFF8601894
:1036000028001CF009FA0021022004F0D1FD4FF43B
:10361000FA60FEF7B5FDDFF81C0D00210170DFF840
:10362000180D00210170DFF8140D00210170DFF882
:10363000C8071C21017000F07BBFDFF81808017873
:10364000DFF81008D0F8030011F060FD002817D053
:10365000DFF8101820001CF0DFF9DFF80C18280044
:103660001CF0DAF90021022004F0A2FD4FF47A6088
:10367000FEF786FDDFF880071121017000F058BFCA
:10368000DFF8D00700780F2856D1DFF8C807D0F848
:103690000300DFF86817898F4FF4616202FB0108AD
:1036A00004F05EFC404523D2DFF8C01720001CF078
:1036B000B3F9DFF8BC1728001CF0AEF92EE000BF0C
:1036C000596B0010DB0A001025730000401902003E
:1036D00054190200241D0200341D02006819020062
:1036E000441D02007C19020090190200ECFC01004C
:1036F00000220021DFF83C0E11F010FC0B22DFF855
:1037000054173F2011F0DCF9DFF82C1E20001CF0CC
:1037100083F9DFF82C1C28001CF07EF90021022020
:1037200004F046FD4FF47A60FEF72AFDDFF8C80684
:103730001121017000F0FCBEDFF818070178DFF8F6
:103740001407D0F8030011F086FD0021019101A9B2
:10375000009104ABDFF8D82BDFF8F816C0B212F0F6
:103760009AF9002866D0049800281DD10022002173
:10377000272011F0A5F9DFF8CC1B20001CF04CF934
:10378000019ADFF8C41B28001CF046F90021022032
:1037900004F00EFD41F28830FEF7F2FCDFF8580627
:1037A0001121017000F0C4BE04F0AEFA002812D15D
:1037B000DFF8981B28001CF02FF90321022004F0E9
:1037C000F7FC42F6E060FEF7DBFCDFF82C06112187
:1037D000017000F0ADBE04980B9004F0C1FB0C909A
:1037E00008220BA9182011F06BF9049ADFF8601B6E
:1037F00020001CF011F9DFF8681628001CF00CF905
:103800000021022004F0D4FC4FF4FA60FEF7B8FC6B
:10381000DFF8200B00210170DFF81C0B0021017084
:10382000DFF8180B00210170DFF8CC051C210170B6
:1038300000F07EBE00220021DFF8180B11F06EFBB5
:103840000B22DFF810163F2011F03AF9DFF8081BC1
:1038500020001CF0E1F8DFF8041B28001CF0DCF865
:103860000021022004F0A4FC40F6B830FEF788FCEA
:10387000DFF884051121017000F05ABE141D02000A
:103880005B6B0010C05F00105C6B0010D26A001010
:10389000C8110200541D0200B819020044010200C0
:1038A000E4110200641D0200741D0200905F01001B
:1038B0005822DFF8881C352011F002F9DFF8800C5F
:1038C00001210170DFF8740C4068DFF8701C098971
:1038D00048430490049BDFF81C2CDFF81C1C2000DC
:1038E0001CF09AF80498001EDFF8101C884218D3C8
:1038F00000220021DFF8080C11F059FBDFF82C1A28
:1039000028001CF089F80121022004F051FC4FF43A
:10391000FA60FEF735FCDFF8E0040121017000F0E9
:1039200007BE04F0F1F9002817D1DFF8201A2800AB
:103930001CF072F800220021280011F0EFFA032198
:10394000022004F035FC42F6E060FEF719FCDFF8D7
:10395000A8041121017000F0EBBDDFF80415280068
:103960001CF05AF80021022004F022FC4FF4FA6007
:10397000FEF706FCDFF8BC0900210170DFF8B8098A
:1039800000210170DFF8B40900210170DFF868043C
:103990001C21017000F0CCBDDFF8A80B00780028D6
:1039A00005D0DFF854041721017000F0C1BDFEF707
:1039B000F7FBDFF8801909780843DFF87C190978EC
:1039C0000843DFF8781909780843C0B2002800F0EE
:1039D000AF85DFF8781B28001CF01EF803210220B9
:1039E00004F0E6FB44F25060FEF7CAFB04F08CF9E9
:1039F000002813D009F03CFFDFF83C19097891F05A
:103A000001010840DFF83419097891F00101C0B2D2
:103A1000084203D0DFF81C0901210170DFF8D80348
:103A20001821017000F084BDDFF8240B0021017023
:103A3000DFF8200B00210170DFF8080B0078002868
:103A400005D0DFF8B4031721017000F071BDDFF875
:103A5000EC080078002803D1FEF7A2FB002806D06E
:103A6000FEF7A9FBE4481121017000F061BDDFF809
:103A7000C4080078002857D004F046F9002803D085
:103A800009F0F6FE002817D100220021DFF8C80A4D
:103A900011F044FADFF8C41A28001BF0BDFF03211F
:103AA000022004F085FB42F6E060FEF769FBD24895
:103AB0001121017000F03CBD07F026FB00280FD05B
:103AC000DFF89C1A28001BF0A7FF0121022004F058
:103AD0006FFB0EE0A419020000120200BC150200E8
:103AE000DFF8801A28001BF097FF0321022004F062
:103AF0005FFBDFF85C0A01210170002004F0B5F9DA
:103B0000DFF8640A002101600026012009F0B3FEFD
:103B1000012009F0F3FE44F62060FEF731FBB648C1
:103B20001E21017000F004BDDFF80C0800780028A9
:103B300000F0FE8404F0E8F8002803D009F043FE0A
:103B4000002817D100220021DFF8200A11F0E6F941
:103B5000DFF81C1A28001BF05FFF0321022004F08D
:103B600027FB42F6E060FEF70BFBA3481121017032
:103B700000F0DEBCDFF8DC0901210170012004F057
:103B800074F9DFF8F01928001BF046FF012102202C
:103B900004F00EFBDFF8D009002101600026049834
:103BA00009F018FE47F23050FEF7EAFA92481E215B
:103BB000017000F0BDBCDFF8B0090068002841D0FA
:103BC000DFF87C090078DFF8B019097891F001017D
:103BD000084213D0DFF8A00901210170DFF85C0969
:103BE00000681590DFF894090068169004F0B8F9A1
:103BF00017900C2215A9512010F062FFDFF8680918
:103C000000688619DFF86009002101603200DFF8E2
:103C1000701928001BF000FF0121022004F0C8FAEF
:103C200042F21070FEF7ACFA00F082BC18FD010001
:103C3000E805020038120200CC19020044FD010020
:103C40000C06020009F0AFFD002869D1002E41D119
:103C5000DFF8F0080078002804D0674817210170C9
:103C600000F066BCDFF8CC060078DFF8E4180978CD
:103C700091F00101084208D04FF4FA60FEF780FA93
:103C80005D481821017000F053BCDFF8AC060078E5
:103C9000DFF8C018097891F00101084208D04FF40C
:103CA000FA60FEF76DFA54481821017000F040BC2C
:103CB000DFF8D01828001BF0AFFE0021022004F02E
:103CC00077FA4FF4FA60FEF75BFA4B481121017066
:103CD00000F02EBCDFF8A0080078002819D0DFF82B
:103CE000100C00210170DFF8540800681290139640
:103CF00004F036F914900C2212A9402010F0E0FED6
:103D000042F21070FEF73CFA3B481B21017000F0B4
:103D10000FBCFEF750FA38481D21017000F008BCB6
:103D2000DFF810060078DFF82818097808422BD051
:103D3000DFF804060078DFF80C1809780843DFF88C
:103D4000FC1509780843C0B200280DD104988642BA
:103D50000ADA002E03D1FEF723FA002804D1DFF897
:103D6000940B007800280FD1002009F084FD00207A
:103D700009F0C4FDDFF8BC0500210170D8E300BFE5
:103D8000E0190200F4190200DFF8AC050078DFF852
:103D9000C4170978084200F0CB83DFF89805007853
:103DA000DFF8A01709780843DFF890150978084371
:103DB000C0B200280BD1FEF7F3F9DFF8381B097801
:103DC00091F001010843C0B2002800F0B183DFF890
:103DD000281B28001BF020FE0121022004F0E8F936
:103DE00009F00FFDFEF7DFF9DFF84C050021017047
:103DF0009EE300BF1C120200DE0A0010F83D001016
:103E00001C0D0200841D0200300602003C0D020061
:103E1000081A020070FD0100941D020068F80100FC
:103E20006C010200646B0010626B00100C620010E9
:103E3000D41502005C0D0200A41D0200DCF6010096
:103E4000B41D0200C41D02001C1A0200E41D020081
:103E50004C6B00109868001020200200856500104F
:103E6000F41D0200041E0200301A0200441A02006F
:103E7000581A0200DFF8780A007800281DD007F0F1
:103E800043F9002802D1002003F0E9FF3100DFF8F8
:103E9000AC0603F05FFFDFF8641A28001BF0BCFDDE
:103EA0000121022004F084F947F23050FEF768F94E
:103EB000DFF80C0C1F2101703AE3FEF771F90028BE
:103EC00004D103F021FF002840F0328337003A008C
:103ED000DFF82C1A20001BF09FFD380007F0C6F811
:103EE000DFF8E00BFEF74CF9DFF8D40B202101706E
:103EF0001EE3DFF83C04C0F8156004F031F8DFF889
:103F00003014C1F81900049886422BDB07F0FCF846
:103F1000002802D1002003F0A2FFDFF8140403F010
:103F2000FDFE1D22DFF808140E2010F0C9FDDFF899
:103F3000980BB0F84120DFF8941B20001BF06CFDBB
:103F4000DFF8B81928001BF067FD0121022004F0FA
:103F50002FF947F23050FEF713F9DFF8640B1F21F9
:103F60000170E5E207F0D0F8002818D01D22DFF834
:103F7000C0130F2010F0A4FD37003A00DFF88019BD
:103F800020001BF049FD380007F070F8DFF8340B13
:103F9000FEF7F6F8DFF8280B20210170C8E23200A6
:103FA000DFF82C1B20001BF037FD1D22E0491020FC
:103FB00010F086FD03F0A8FE002817D0DFF83C19AA
:103FC00028001BF029FD0121022004F0F1F8002057
:103FD00003F045FFD64803F0A1FE47F23050FEF74C
:103FE000CFF8DFF8DC0A1F210170A1E200220021D6
:103FF000DFF8E00A10F0DBFFDFF8DC1A28001BF026
:104000000BFD0121022004F0D3F840F6B830FEF792
:10401000B7F8DFF8AC0A0121017089E203F0B5FEC0
:10402000002800F0CC8003F0B9FE002837D137001B
:104030003A00DFF8CC1820001BF0EEFC07F064F823
:10404000002814D0DFF8941A28001BF0E5FC0121A9
:10405000022004F0ADF8380007F008F8DFF8640A31
:10406000FEF78EF8DFF8580A2021017060E2002286
:104070000021DFF86C0A10F09AFFDFF8681A2800B8
:104080001BF0CAFC0321022004F092F841F65830DC
:10409000FEF776F8DFF8280A0121017048E204985B
:1040A00086422CD1DFF8401A28001BF0B5FC012114
:1040B000022004F07DF8DFF8C0040078002815D055
:1040C000DFF8280A00210170DFF87004006803900F
:1040D000042203A9432010F0F3FC41F28830FEF7DC
:1040E0004FF8DFF8DC091A21017021E241F2883033
:1040F000FEF746F8DFF8C8092121017018E204989C
:10410000B04221DA07F000F800281DD00498371AD1
:104110003B003200DFF8D81920001BF07DFCDFF8EF
:10412000D41928001BF078FC0121022004F040F88B
:10413000380006F09BFFDFF88C09FEF721F8DFF866
:10414000800920210170F3E1DFF82C0400780028B9
:104150001ED0DFF8941928001BF05EFC012102201C
:1041600004F026F8DFF8840900210170DFF8CC03A1
:1041700000680290042202A9432010F0A1FC41F241
:104180008830FDF7FDFFDFF838091A210170CFE113
:10419000DFF8641920001BF03FFCDFF860192800ED
:1041A0001BF03AFC0321022004F002F842F228300E
:1041B000FDF7E6FFDFF8080911210170B8E1FDF70E
:1041C000EFFF002804D103F09FFD002840F0B081EC
:1041D00000220021DFF8280910F0E9FEDFF8241999
:1041E00020001BF019FCDFF8201928001BF014FC3C
:1041F0000321022003F0DCFF41F65830FDF7C0FF39
:10420000DFF8BC080121017092E106F042FF0028AE
:1042100000F0A68006F04AFF8046D74800780028C4
:1042200014D0C64800680F90CDF8408003F098FE87
:1042300011900C220FA9412010F042FCBF480068E9
:104240000090042200A9432010F03AFCB84522D186
:10425000DFF8B81828001BF0DFFB0321022003F071
:10426000A7FFC548007800280CD0DFF8800800219F
:10427000017041F28830FDF783FFDFF844081A210E
:10428000017055E141F28830FDF77AFFDFF8300820
:10429000212101704CE1B84523DAB7EB0802DFF8C1
:1042A000701820001BF0B8FB00220021DFF8640822
:1042B00010F07DFE00220021200010F02FFEDFF81C
:1042C000581828001BF0A8FB0321022003F070FF00
:1042D00041F65830FDF754FFDFF8E4070121017083
:1042E00026E1B8EB0702DFF80C1C20001BF094FB62
:1042F00000220021DFF8000C10F059FE00220021FE
:10430000200010F00BFEDFF8F41B28001BF084FBEC
:104310000321022003F04CFF41F65830FDF730FF37
:10432000DFF89C070121017002E100BFD41D0200EB
:104330007C650010556B0010576B00104D6B001022
:10434000801A0200941A0200141E020098F801005C
:10435000241E020054120200341E0200A81A020099
:10436000FDF71EFF002804D106F0CEFE002840F025
:10437000DF8000220021DFF8880B10F018FEDFF844
:10438000841B28001BF048FB0321022003F010FFD0
:1043900041F27070FDF7F4FEDFF82407012101708F
:1043A000C6E0DFF848070078002819D0DFF8582B5E
:1043B00065A128001BF030FBDFF8500B01780220CC
:1043C00003F0F6FEDFF8480B0088FDF7D9FEDFF8B2
:1043D0001C0700210170DFF8E80621210170A7E029
:1043E000FDF7DEFE002800F0A380DFF8281B280080
:1043F0001BF012FB0321022003F0DAFE4FF4FA5007
:10440000FDF7BEFEDFF8B8062121017090E003F051
:10441000CFFC002860D1F01B049988424EDBDFF806
:10442000F80A007800283BD0DFF8F00AD0F8030043
:10443000DFF8E81AD1F80710884231D0DFF8DC0A3B
:104440000178DFF8D80AD0F8030010F035FE0B220F
:10445000DFF8C81A012008F02FFADFF8C00A007848
:104460008DF81C00DFF8B40AB0F80100ADF81D00AB
:10447000DFF8A80AD0F80300CDF81F00DFF84806DF
:10448000007C8DF8230003F08CFCADF8240003F0D1
:104490008CFCCDF826000E2207A94E2010F010FB50
:1044A000DFF87C1A20001BF0B7FA4FF4FA60FDF732
:1044B00067FEDFF80C061121017039E0DFF8641A9D
:1044C00020001BF0A9FA4FF4FA60FDF759FEDFF85F
:1044D000F005112101702BE0FDF762FE002827D0C6
:1044E000FDF761FE00220021DFF83C0A10F016FD06
:1044F0001EE000BFD25E00102C200200A08601004A
:10450000C8FD0100DFF8241A20001BF085FADFF84F
:10451000201A28001BF080FA0021022003F048FE38
:1045200040F6B830FDF72CFEDFF89405112101703C
:10453000FDF77EBF9CFD01006C1A0200C45E0010F6
:104540005E6B00105A6B001025730000EC15020022
:10455000566B0010586B001028F50100C8F80100D8
:10456000441E020060F50100886A001094F3010007
:10457000F8F80100541E02005F6B0010846A0010FE
:10458000641E0200BC1A020010B50C00C0B2012863
:104590000FD0022818D003281CD0132804D02128BB
:1045A0001DD0222820D023E0B4F9000004F018F830
:1045B0001EE02178D4F8030010F07EFD2178D4F8B5
:1045C000030010F09FFE13E02268217A606810F06B
:1045D00061FE0DE00121206810F0C4FF08E0022117
:1045E000206810F082FF03E00321206810F07DFFB7
:1045F00010BD10B50C001100C0B20200022A6BD031
:10460000042A00F06881052A7BD0122A6FD0132A71
:1046100000F0A080142A00F0A180152A5FD0162A8D
:1046200033D0192A4FD01A2A52D01B2A5ED01C2A06
:104630005CD01D2A3CD01E2A00F097801F2A00F073
:10464000A380202A00F0AF80212A00F0C680222A11
:1046500000F01881282A00F02281292A00F0238105
:104660002C2A00F023812D2A00F02481322A00F028
:104670002481332A00F02581372A00F02581382A49
:1046800000F026813C2A37D02AE1DFF8900A007832
:10469000002840F02C8158222100DFF8840A1DF008
:1046A00050FCFDF788FDDFF8740A012101701EE15E
:1046B0008F48012101708E480078002840F0178152
:1046C000FDF779FD13E10121206810F04BFF0EE1A9
:1046D000206810F069FF0AE1FDF7E7FC07E104221A
:1046E0002100DFF8400A1DF02CFC00E1FFE0DFF8BC
:1046F000D80321888187FAE0B4F9000003F070FF45
:10470000F5E0E01C1AF080FF502880F0F08060781F
:10471000DFF8FC170880DFF8F80700880002DFF8F0
:10472000F0170880DFF8E807008821780843DFF8F1
:10473000E0170880A078DFF8D4170870E11CDFF8D4
:10474000C8071AF0ABFBDFF8A40301210170FDF7E5
:1047500032FDCCE0DC482188C186C8E03622210049
:10476000DFF8C4091DF0EDFBC1E003F0CDFA00282D
:1047700003D0206803F05CFBB9E000220021DFF8E1
:10478000AC0910F0CBFBB2E003F0BEFA002803D076
:10479000206803F041FBAAE000220021DFF8900925
:1047A00010F0BCFBA3E0C84890F8920000280DD0A0
:1047B000012003F0A6FA03F021FB06F09BFC06F0B3
:1047C000BFFC09F082F809F0C9F890E0002200214E
:1047D000DFF8600910F0A2FB89E02088002846D0AD
:1047E000DFF854090078DFF85419097804E0401C18
:1047F0001E2800DB0020491E002906D0DFF84029D2
:1048000032F8102023889A42F1D100296FD1DFF8C5
:104810002C0900781E286AD2DFF828090078DFF812
:104820002019228821F810200222DFF818090078C8
:10483000DFF80C1911EB4001482010F041F9DFF8C6
:1048400004090078401CDFF8FC180870DFF8F40851
:1048500000781E2803D3DFF8EC0800210170DFF890
:10486000DC080078401CDFF8D41808703FE0002016
:10487000DFF8C8180870DFF8CC180870DFF8B8182F
:10488000087034E003222100DFF8BC081DF059FB5A
:104890000322DFF8B418472010F012F927E02000B7
:1048A00008F0F0FF23E009F010F820E0200009F004
:1048B00038F81CE009F052F819E0200006F00AFC74
:1048C00015E006F017FC12E0200006F02BFC0EE0CD
:1048D00006F036FC0BE0DFF874080121017006E0F9
:1048E0000022C0B20100DFF8680810F017FB10BD0D
:1048F000606B0010DB0A0010D01A0200E41A0200FC
:10490000741E020010B584B00122DFF8481804209C
:1049100007F07EFC0122DFF84018192007F078FC30
:104920000122DFF83818FB2007F072FC002002900B
:1049300000208DF80400002414E001AA02A9601CE4
:10494000C0B210F0E7FF00280BD0322015F0DEF8DF
:104950009DF80400421E0298411C601DC0B207F081
:1049600057FC641C052CE8DB0422DFF8F4170A204E
:1049700007F04EFC0122DFF8EC171B2007F048FC83
:104980000122DFF8E417282007F042FC0222DFF8BA
:10499000DC171F2007F03CFC0422DFF888171C20DE
:1049A00007F036FC0222DFF8C817232007F030FC9E
:1049B0003622DFF874170B2007F02AFC0A20ADF826
:1049C0000000414890F877008DF80200032200A90A
:1049D000102007F01DFC3220ADF800003A4890F896
:1049E00078008DF80200032200A9102007F010FCC7
:1049F0006420ADF80000344890F879008DF802008A
:104A0000032200A9102007F003FC4FF4FA70ADF860
:104A100000002D4890F87A008DF80200032200A9CA
:104A2000102007F0F5FB4FF47A70ADF8000026482F
:104A300090F87B008DF80200032200A9102007F0F7
:104A4000E7FB41F28830ADF800001F4890F87C0089
:104A50008DF80200032200A9102007F0D9FB0122E3
:104A6000DFF81017112007F0D3FB0822DFF8081732
:104A7000122007F0CDFB0122DFF800172E2007F0EF
:104A8000C7FB0822DFF8F8162F2007F0C1FB012230
:104A9000DFF8F016302007F0BBFB0122DFF8E81644
:104AA000312007F0B5FB0122DFF8E016322007F0D5
:104AB000AFFB0122DFF8D816332007F0A9FB1FBD9A
:104AC000DE0A001070110100F83D0010F81A020013
:104AD00038200200041602000C1B0200201B0200FA
:104AE00024F201001C160200841E02005B6B001001
:104AF000941E0200A41E0200B41E02007C0D0200DF
:104B000054060200341B0200341602004C16020048
:104B1000C41E020078060200481B020001B59DF881
:104B20000000042840D005286BD0062873D0072841
:104B30007BD0082800F08380092800F08A800A28AA
:104B400000F091800B2800F0D780102800F0DF8063
:104B5000112800F03781122800F04A81192834D03A
:104B60001B2800F08A801C2800F0B1801F2800F06C
:104B7000A480232800F0B680282800F08E802E28FC
:104B800000F041812F2800F05481302800F05C8132
:104B9000312800F06D81322800F07E81332800F04A
:104BA0008F81FB2822D09FE1DFF8E805097880F8A3
:104BB0002D10DFF8E00590F82D0003F0F1FC002245
:104BC0000021002007F024FB93E1DFF8C8050978F5
:104BD00080F82E10DFF8BC0590F82E0003F0F0FCF2
:104BE00000220021002007F013FB82E1DFF8A4057A
:104BF000097880F82F1000220021002007F008FB20
:104C000077E1D2B2012010F0F4FD00220021002053
:104C100007F0FEFA6DE1D2B2022010F0EAFD0022A8
:104C20000021002007F0F4FA63E1D2B2032010F073
:104C3000E0FD00220021002007F0EAFA59E1D2B29B
:104C4000042010F0D6FD00220021002007F0E0FA39
:104C50004FE1D2B2052010F0CCFD0022002100204F
:104C600007F0D6FA45E1DFF82C0509680163002258
:104C70000021002007F0CCFA3BE10878002801D0A1
:104C8000012000E00020DFF80C1581F8340000223C
:104C90000021002007F0BCFA2BE10878002801D0A1
:104CA000012000E00020DFF8EC1481F8350000223C
:104CB0000021002007F0ACFA1BE1DFF8D8040988D6
:104CC000C18600220021002007F0A2FA11E104228F
:104CD000DFF850041DF035F900220021002007F014
:104CE00097FA06E1DFF8AC040988818700220021E9
:104CF000002007F08DFAFCE03622DFF82C041DF0CE
:104D000020F900220021002007F082FAF1E0088853
:104D1000891C80B20A280ED0322817D0642820D0EF
:104D2000B0F5FA7F28D0B0F57A7F30D041F28832E2
:104D3000904237D040E00878002801D0012000E000
:104D40000020DFF8501481F8770035E0087800285B
:104D500001D0012000E00020DFF8381481F878004D
:104D60002AE00878002801D0012000E00020DFF8C8
:104D7000241481F879001FE00878002801D0012070
:104D800000E00020DFF80C1481F87A0014E00878C5
:104D9000002801D0012000E00020DFF8F81381F89E
:104DA0007B0009E00878002801D0012000E0002005
:104DB000DFF8E01381F87C0000220021002007F0DA
:104DC00027FA96E00878002801D0012000E00020B2
:104DD000DFF8C01381F87D00DFF8B80390F87D009C
:104DE00006F08FF900220021002007F011FA80E080
:104DF0000822DFF884031DF0A4F80022002100201F
:104E000007F006FA75E00878002801D0012000E0DC
:104E10000020DFF8801381F88600DFF8780390F82F
:104E2000860006F0C3F900220021002007F0F0F907
:104E30005FE00822DFF848031DF083F8002200211C
:104E4000002007F0E5F954E00878002801D001209F
:104E500000E00020CF4981F88F00CE4890F88F0005
:104E600008F03CFD00220021002007F0D1F940E0CD
:104E70000878002801D0012000E00020C54981F811
:104E80009000C44890F8900008F0E8FC002200214F
:104E9000002007F0BDF92CE00878002801D001209F
:104EA00000E00020BB4981F89100BA4890F89100D9
:104EB00008F086FC00220021002007F0A9F918E084
:104EC0000878002801D0012000E00020B14981F8D5
:104ED0009200B04890F8920002F013FF00220021E7
:104EE000002007F095F904E0012200A9012007F055
:104EF0008FF901BDD41E020094010200701202005D
:104F00009C0D02005C1B0200C05F00105C6B001077
:104F1000D26A0010BC0D02004C6B001098680010A3
:104F2000C41D0200701B0200F4FD0100E41E02001B
:104F3000841B020070B50C00C0B2E0280ED0F1282E
:104F40000FD0F2281FD0F32828D0F4282BD0F52832
:104F500034D0F62837D0F72840D049E0FDF7A5F83F
:104F600046E02578641C2688A41C02F0F9FF21681D
:104F70003C2202FB1102241D310089B22800C0B27C
:104F800013F0CCFE34E02078002801D0012000E0AE
:104F90000020C0B208F0F4FC641C29E0208808F06E
:104FA00077FDA41C24E02078002801D0012000E037
:104FB0000020C0B206F01EF9641C19E0208806F03B
:104FC00055F8A41C14E02078002801D0012000E04E
:104FD0000020C0B202F05EFF641C09E020780028C7
:104FE00001D0012000E00020C0B202F056FF641C96
:104FF00070BD3EB516F090F904F026F803F0B8FF46
:1050000003F084FF04F0BEFA6348006850F4806047
:1050100061490860002461484FF480610160002507
:105020005F48006850F002005D4908605D48006814
:1050300050F004005B4908605B48022101605B4856
:10504000482101605848012101605948FCF7E5FFFB
:1050500017F0ECFE012804D117F0EEFE55480121AF
:1050600001700121002017F0B0FE534817F0D1FE67
:1050700010F087FB002803D05048002101700EE09B
:105080004E480121017010F056FB012201214C48CD
:1050900015F0ACFA01220221494815F0A7FA494857
:1050A00018F0B8FE18F006FB47484078401C464907
:1050B000487014F010FD15F05FFD16F0ABF836489F
:1050C000016821F48061016000244FF400623F49CF
:1050D0003F4817F02DF83E480FF0EEFC3C4806F034
:1050E00031FD4FF480723B493B4817F021F83A48B4
:1050F0000FF0A8FC384811F0D1F8022002904FF4CC
:105100007A70019035480090354B64223549364815
:1051100019F07EFC18F0AEFA00203EBD5D6B001069
:10512000C45E0010303E0010393E001028F9010026
:1051300058F9010010F70100626B0010646B001059
:105140000C620010636B0010363E00105A6B0010AA
:10515000BC010200253E0010263E0010273E001034
:10516000283E00102C3E00102D3E00102E3E001058
:10517000343E0010753E0010763E00107E3E00105A
:105180007F3E0010873E0010883E0010893E0010D0
:105190008A3E0010F83D001040C009205CC0092084
:1051A000C4C00F40A8C10F40044000400C40004064
:1051B00020A10700466B0010404B4C00476B0010CD
:1051C0000040024070680010CC090010881A0010DE
:1051D000B8650010E45800109C650010103A0010EB
:1051E0002D220000442002001464001038B5002471
:1051F0000025DFF8F4090068401CDFF8EC190860AE
:10520000DFF8E80910210170DFF8E0093021417072
:1052100001230222DFF8D419DFF8D40911F0D0FC01
:10522000DFF8D009C0690500DFF8C809C069401B74
:10523000652824DA00230122DFF8B019DFF8B0096D
:1052400011F0F1FC0028EFD0DFF89C09006800287D
:1052500006D0DFF894090068401EDFF88C1908605A
:10526000DFF888090078800609D4DFF8A80B002150
:10527000017000220021DFF8A00B0FF098FE0A2039
:1052800014F044FCDFF8640910210170DFF85C09B8
:105290003121417001230222DFF85019DFF8500953
:1052A00011F08EFCDFF84C09C569DFF84809C069C8
:1052B000401B652824DA00230122DFF83019DFF8CB
:1052C000300911F0B0FC0028EFD0DFF81C090068AD
:1052D000002806D0DFF810090068401EDFF8081922
:1052E0000860DFF808090078000709D5DFF8240B0B
:1052F0000021017000220021DFF8200B0FF057FE83
:105300000A2014F003FCDFF8E40810210170DFF834
:10531000DC083221417001230222DFF8D018DFF8C7
:10532000D00811F04DFCDFF8CC08C569DFF8C408DF
:10533000C069401B652833DA00230122DFF8AC186E
:10534000DFF8AC0811F06FFC0028EFD0DFF8980808
:105350000068002806D0DFF890080068401EDFF8DB
:1053600088180860DFF884080078400609D5DFF85F
:10537000A40A0021017000220021DFF8A40A0FF026
:1053800016FEDFF868080078800609D5DFF8840A81
:105390000021017000220021DFF8880A0FF007FECB
:1053A0000A2014F0B3FBDFF8440810210170DFF885
:1053B0003C083321417001230222DFF83018DFF866
:1053C000300811F0FDFBDFF82C08C569DFF8240870
:1053D000C069401B652851DA00230122DFF80C1850
:1053E000DFF80C0811F01FFC0028EFD0DFF8F807F9
:1053F0000068002806D0DFF8F0070068401EDFF8DC
:10540000E8170860DFF8E4070078400709D5DFF8FF
:10541000040A0021017000220021DFF80C0A0FF0BD
:10542000C6FDDFF8C8070078000709D5DFF8E409F2
:105430000021017000220021DFF8F0090FF0B7FD14
:10544000DFF8A8070078800609D5DFF8C809002131
:10545000017000220021DFF8D8090FF0A8FDDFF865
:105460008C070078400609D5DFF8A80900210170F3
:1054700000220021DFF8BC090FF099FD0A2014F08A
:1054800045FBDFF8680710210170DFF86007342161
:10549000417001230222DFF85417DFF8540711F09E
:1054A0008FFBDFF85007C569DFF84807C069401B6C
:1054B000652838DA00230122DFF83017DFF83007DB
:1054C00011F0B1FB0028EFD0DFF81C0700680028BE
:1054D00006D0DFF814070068401EDFF80C170860DC
:1054E000DFF85409007800280ED1DFF800070078B3
:1054F000000709D5DFF840090121017000220021D1
:10550000DFF838090FF00AFDDFF8E0060078400602
:1055100009D5DFF800090021017000220021DFF821
:1055200020090FF044FD0A2014F0F0FADFF8BC0661
:1055300010210170DFF8B4063521417001230222E9
:10554000DFF8A816DFF8A80611F03AFBDFF8A4068A
:10555000C569DFF8A006C069401B65281BDA002377
:105560000122DFF88816DFF8880611F05CFB0028BE
:10557000EFD0DFF874060068002806D0DFF8680670
:105580000068401EDFF860160860DFF860060078EB
:10559000800600D501240A2014F0B8FADFF8480686
:1055A00000680A280DDBDFF8400600210160DFF803
:1055B00064080021017000220021DFF888080FF044
:1055C000F6FC2000C0B232BDDFF87C1800E0491CB8
:1055D0000200501E002A0DD00A781C2AF7D0491C60
:1055E000DFF868281268DFF86038D2189142F3D3E8
:1055F000002000E00800704730B583B00C00DFF8F1
:1056000050180870DFF8441800220A60DFF84418C8
:105610000978491CDFF83C281170DFF83818097840
:10562000202903D2DFF82C1820220A70DFF81C187A
:105630000968DFF8B82502238B54DFF810180968D1
:10564000491CDFF808281160DFF800180968DFF846
:105650009C2541238B54DFF8F4170968491CDFF8B7
:10566000EC271160DFF8E4170968DFF8802545238F
:105670008B54DFF8D8170968491CDFF8D027116070
:10568000DFF8C8170968DFF8642552238B54DFF868
:10569000BC170968491CDFF8B4271160DFF8AC17A4
:1056A0000968DFF8482546238B54DFF8A0170968FE
:1056B000491CDFF898271160DFF890170968DFF8B8
:1056C0002C25DFF890371B788B54DFF8801709689A
:1056D000491CDFF8782711600200DFF87C17DFF83B
:1056E0006C070068DFF80435C0181AF095F9DFF888
:1056F0005C1709684018DFF854170860DFF84C079A
:105700000068DFF8E8141C224254DFF84007006804
:10571000401CDFF838170860E4B2002C55D0DFF8E1
:10572000D4040078401CDFF8CC14087002F018FC98
:10573000019014F067F801A81CF096FC0400606961
:10574000643800902069431CE268DFF81017DFF826
:10575000FC060068DFF8945440191AF05DF9DFF890
:10576000EC1609684018DFF8E4160860DFF8DC067C
:105770000068DFF878141C224254DFF8D006006875
:10578000401CDFF8C81608606368A268DFF8D0160E
:10579000DFF8B8060068DFF8544400191AF03CF945
:1057A000DFF8A81609684018DFF8A0160860DFF8CF
:1057B0009C060068DFF834141C224254DFF88C0683
:1057C0000068401CDFF88416086037BD10B504007F
:1057D000200019F019FF002106E00A5DF02A02D32B
:1057E0000A5D103A0A55491C814208DA0A5DC03A3E
:1057F000D2B2302AF1D20A5D403A0A55F3E710BD21
:1058000010B504002000FFF7E1FF220028A1DFF817
:105810003C060068DFF8D433C0181AF0FDF8DFF852
:105820002C1609684018DFF824160860DFF81C06FB
:105830000068DFF8B8131C224254DFF81006006835
:10584000401CDFF80816086010BD10B5DFF8FC0535
:105850000068DFF8981303224254DFF8F00500686F
:10586000401CDFF8E81508600020002104E0DFF8A4
:105870007C238A5C1018491CDFF8D02512689142FD
:10588000F5DBC2B2C0F30723DFF8D815DFF8BC059B
:105890000068D64C00191AF0BFF8DFF8B015096897
:1058A0004018DFF8A8150860DFF8A005006810BDF3
:1058B0002573000030B589B001240120FFF784FE74
:1058C00003AADFF8A4151BF099FA0220FFF77CFE6B
:1058D00006AB07AADFF894151BF090FA0798069913
:1058E00050EA01250320FFF76FFE05AB04AADFF89D
:1058F0007C151BF083FA0398C0070AD5DFF814055E
:105900000021017000220021DFF864050FF04FFB39
:105910000024039880070AD5DFF8F80400210170FD
:1059200000220021DFF84C050FF041FB0024039812
:1059300040070AD5DFF8DC040021017000220021B5
:10594000DFF834050FF033FB0024039880060AD5F6
:10595000DFF8C0040021017000220021DFF81C05DF
:105960000FF025FB0024DFF81805007800280DD182
:10597000039800070AD4DFF808050121017000220E
:105980000021DFF800050FF0C9FA06E003980007D0
:1059900003D5DFF8EC0400210170DFF8EC04007897
:1059A00000280DD10398C0060AD5DFF8DC040121D8
:1059B000017000220021DFF8D4040FF0AFFA06E0F6
:1059C0000398C00603D4DFF8C00400210170DFF89B
:1059D000C004007800280DD1039840060AD5DFF8EE
:1059E000B0040121017000220021DFF8A8040FF0AB
:1059F00095FA06E00398400603D4DFF894040021EA
:105A00000170DFF89404007800280DD10398000697
:105A10000AD4DFF884040121017000220021DFF89C
:105A20007C040FF07BFA06E00398000603D5DFF84C
:105A300068040021017015F00700DFF86414087095
:105A40002800C0060AD5DFF8CC030021017000222F
:105A50000021DFF850040FF0AAFA00242800000605
:105A60000AD5DFF8B0030021017000220021DFF821
:105A700038040FF09CFA0024E8050AD4DFF89403F8
:105A80000021017000220021DFF820040FF08FFABE
:105A90000024DFF81C04007800280CD1A8050AD5E2
:105AA000DFF80C040121017000220021DFF804045A
:105AB0000FF034FA05E0A80503D4DFF8F403002161
:105AC0000170DFF8F4030078002810D128050ED407
:105AD000DFF8E4030121017000220021DFF8DC037C
:105AE0000FF01CFADFF8D8030121017005E028054A
:105AF00003D5DFF8C40300210170DFF8C803007884
:105B000000280CD1E8040AD5DFF8B80301210170A0
:105B100000220021DFF8B0030FF000FA05E0E804EE
:105B200003D4DFF8A003002101700498059908430D
:105B3000002834D00498152804D019280CD029281E
:105B400014D01AE00024B348047000220021DFF8CA
:105B50007C030FF02CFA22E00024AE4804700022EF
:105B60000021DFF86C030FF0D9F918E000220021C2
:105B7000DFF860030FF0D2F911E0002405980290DD
:105B8000049801900095039BB1480278D2491748C8
:105B900019F042FF0022002114480FF0BFF9E4B2CF
:105BA000002C09D010480068002819D00E48006861
:105BB000401E0D49086013E00B480068801C0A492C
:105BC0000860094800680A280ADB074800210160CC
:105BD000904800210170002200219A480FF0E7F957
:105BE0002000C0B209B030BD146A00103853001054
:105BF00000C00040CC0900102DE9F14F86B0B74835
:105C00000068401CB54908600324FFF71EFE04909D
:105C100001260023012200A9B14811F004F8002850
:105C2000F7D1F6B2002E07D00123049A8649AC487A
:105C300010F0C6FF002608E015208DF800000123B3
:105C4000012200A9A64810F0BBFF5FF000095FF039
:105C5000000AA448C5695FF0010B00270023012258
:105C600000A99F4810F0DFFF002800F0B9805FFA1C
:105C700089F9B9F1000F08D0B9F1020F43D02BD345
:105C8000B9F1040F79D061D3AAE09DF80000022891
:105C90000BD19DF800806C489DF800100AF80010A8
:105CA0001AF1010A5FF001099AE09DF80000152839
:105CB00003D101265FF0000B92E09DF80000182848
:105CC00040F08E80012700226148017886480FF05D
:105CD0006EF95FF0000B83E09DF800005D490978E4
:105CE00088420DD19DF8000010EB080856489DF839
:105CF00000100AF800101AF1010A5FF002096FE0C3
:105D00005FF0000B6CE09DF8000010EB08084E48B7
:105D10009DF800100AF800101AF1010ABAF1040FF8
:105D20005ED149480021017103AA4B496F481BF01D
:105D300065F8012807D1039845490978884202D1BE
:105D40005FF003094CE05FF0000B49E09DF80000B4
:105D500010EB08083C489DF800100AF800101AF1F2
:105D6000010A9DF8000003283AD11FFA88F8374845
:105D7000C0F800A05FF0040932E033489DF800103D
:105D80000AF800101AF1010A30480068001D824527
:105D900026D12E4800682C4940180021017102AB21
:105DA00001AA304929480068DFF89CC010EB0C00BC
:105DB0001BF024F8022811D10198029950EA012021
:105DC00001900198804506D1FFF774FD97F001011D
:105DD0000840C0B21BE05FF0000B01E05FF0000B79
:105DE00006984049C969491B884201DA5FF0000BF7
:105DF0005FFA8BFBBBF1000F7FF430AFFA2013F09A
:105E000085FE2000441E00287FF403AF002007B069
:105E1000BDE8F08FCB0A0010DC090200FC0902008B
:105E2000E414020024100200B4FF0100FC1402007C
:105E3000DCFF01003CFC0100F46A0010CC0302000E
:105E40001C0A0200D817020038530010186A00100C
:105E5000F16A0010F36A001070210200841C020035
:105E6000841F0200901F0200782102009C1F020084
:105E700014150200401002002C1502005C100200F4
:105E8000F56A001078100200F66A00103C0A020061
:105E9000F76A001004000200F86A00105C0A0200B1
:105EA000CC0A00107C0A02009C0A0200EC170200D7
:105EB000F96A001094100200FA6A0010001802003B
:105EC000F26A0010FB6A0010BC0A0200F003020034
:105ED000DC0A02001418020050EB0100146A0010E2
:105EE00000C00040CC0900102C0002003A53001002
:105EF000F0B5C9B0DFF8440CD0E90023CDE9432365
:105F000043A818F0AFF8DFF8380CD0E90023CDE94A
:105F1000412341A818F0A6F81EA810F023FE4FF464
:105F200016501E9003208DF87D0000208DF87C0017
:105F300000208DF87E001EA9DFF8740E10F068FDB9
:105F400016A810F026FF03208DF85B0016A9DFF8D5
:105F5000600E10F0C0FE0121DFF8540E10F020FF9B
:105F60004FF4FA6013F0D2FD4EF6602403E0DFF840
:105F7000400C00210170DFF83C0C007800283BD178
:105F8000DFF8340C00210170DFF8300C00210170C3
:105F9000DFF82C0C00210170DFF8280C00210170C3
:105FA000DFF8240C00210170DFF8200C00210180B3
:105FB000DFF81C0C00210170DFF8180C00210170C3
:105FC000DFF8140C00210170DFF8100C00210170C3
:105FD000DFF80C0C00210170DFF8080C00210170C3
:105FE000DFF8040C00210170DFF8000C00210160D3
:105FF000DFF8FC0B002101604FF4FA7013F086FD0E
:10600000DFF8B00B00780028B5D0DFF87C0E007800
:10601000002828D116A9DFF8980D10F05CFEFFF7D4
:10602000E5F8C0B2012818D1DFF88C0B012101700E
:106030004FF4FA70A4B2844215D3B4F5FA744FF455
:10604000FA70A4B284420ED200220021DFF8A40B21
:106050000EF064FF4EF6602405E04EF66024DFF893
:10606000580B00210170DFF8480B007800286CD035
:10607000DFF8140E007800287FF479AF0021432068
:10608000FFF7BAFAC820FFF7B7FD00283FF473AF57
:106090000520FFF799FA2FA9009130AB31AADFF85C
:1060A000EC1D1AF0ABFE0620FFF78EFA2DAB2EAAE0
:1060B000DFF8B01C1AF0A2FE0021DFF8D40D14F0B6
:1060C00091F90021DFF8C80D14F068FADFF8C00D6F
:1060D00014F05EF9DFF8B80D14F074F90022002115
:1060E000DFF8AC0D14F094F92D9A0121DFF8A00D22
:1060F00014F08EF92E9A0221DFF8940D14F088F92D
:10610000309A0621DFF8880D14F082F92F9810F5E7
:10611000FA620721DFF8780D14F07AF9319A042138
:10612000DFF86C0D14F074F90121DFF8640D14F040
:1061300059F9DFF8542E0021DFF8540D14F056FA07
:10614000DFF86C0A0021017015E7DFF89C0A00787F
:10615000002845D0DFF8300D007800283BD1012120
:106160003220FFF749FADFF8840A0268DFF81C1EC4
:1061700006A819F051FC06A8FFF742FBDFF8B41C93
:1061800006A819F049FC06A8FFF73AFB41F288304F
:10619000FFF732FD002822D00620FFF715FA2CAABF
:1061A000C0A11AF02BFE2C9818F0AAFC02000B00DC
:1061B000DFF8841C06A819F02FFC0022002106A895
:1061C0000EF0ACFEDFF8240A00210160DFF8180AA7
:1061D0000021017003E0DFF8100A00210170CAE617
:1061E000DFF8000A0078002845D0DFF89C0C007822
:1061F00000283BD101213320FFF7FEF9DFF8EC093D
:106200000268DFF8881D06A819F006FC06A8FFF74B
:10621000F7FADFF8201C06A819F0FEFB06A8FFF726
:10622000EFFA41F28830FFF7E7FC002822D0062081
:10623000FFF7CAF92BAA9BA11AF0E0FD2B9818F0E2
:106240005FFC02000B00DFF8481D06A819F0E4FB14
:106250000022002106A80EF061FEDFF8900900215F
:106260000160DFF880090021017003E0DFF87409A4
:10627000002101707FE6DFF864090078002818D05B
:10628000DFF8040C007800280ED101213020FFF740
:10629000B3F949F64040FFF7AFFC002808D0DFF81B
:1062A0003C090021017003E0DFF830090021017092
:1062B00061E6DFF81C090078002834D0DFF8C80B4D
:1062C000007800282AD101213120FFF795F9DFF865
:1062D0000409007800280AD0DFF8F80800210170CE
:1062E0009EA106A819F098FB06A8FFF789FA49F6BF
:1062F0004040FFF781FC002803D0DFF8D4080021DC
:10630000017001214220FFF777F94FF47A70FFF70F
:1063100073FCDFF8C4080121017003E0DFF8B00866
:106320000021017027E6DFF8B0080078002838D097
:10633000DFF8540B007800282FD101210320FFF74C
:106340005BF94FF4FA70FFF757FC002829D00020C2
:10635000ADF84E000020ADF84C000020ADF846002E
:106360000720FFF731F90DF1460313AADFF8901D5E
:106370001AF044FDBDF84600BDF84C1051EA00206B
:10638000ADF84E0002220DF14E0146200EF098FBB2
:10639000DFF844080021017003E0DFF83C08002129
:1063A0000170DFF824080078002837D0DFF8D80A19
:1063B0000078002826D100217C20FFF71DF9DFF8A6
:1063C0000C08008880B2030A9BB2DFF8000800784E
:1063D000C2B2DFF8D41B06A819F01EFB06A8FFF70F
:1063E0000FFA4FF47A60FFF707FC002804D1DFF8BA
:1063F000BC0B0121017005E00222DFF8D017492013
:106400000EF05EFB642013F081FBDFF8AC07012186
:106410000170DFF8B40700210170ACE5DFF8C007B8
:106420000078002800F06D81002500260027DFF8A5
:10643000580A0078002837D101213420FFF7DCF812
:106440004FF47A70FFF7D8FB002843D00520FFF700
:10645000BBF832AA13A11AF0D1FC0F20FFF7B4F851
:1064600033AA10A11AF0CAFC1520FFF7ADF834AA20
:106470000CA11AF0C3FC1620FFF7A6F835AA09A153
:106480001AF0BCFC1720FFF79FF836AA05A11AF0F6
:10649000B5FC369818F0E0FCDFF8541708600125C9
:1064A00018E000BF25660000DFF8EC0D3290DFF841
:1064B000540C3390DFF8500C3490DFF8500C3590CA
:1064C000DFF84C0C3690369818F0C6FCDFF8201731
:1064D00008600125052013F019FBDFF8AC090078EE
:1064E00000283DD100213720FFF786F84FF47A705D
:1064F000FFF782FB00284CD00F20FFF765F837AA82
:10650000ADA11AF07BFC1120FFF75EF838AAAAA112
:106510001AF074FC1220FFF757F839AAA6A11AF056
:106520006DFC1320FFF750F83AAAA3A11AF066FCFD
:106530003A9818F091FCDFF8B81608601420FFF7BD
:1065400043F83BAA9CA11AF059FC1620FFF73CF82F
:106550003CAA99A11AF052FC01261AE03031000041
:10656000DFF8A00B3790DFF8A00B3890DFF89C0B1A
:106570003990DFF89C0B3A903A9818F06DFCDFF8F0
:1065800070160860DFF88C0B3B90DFF88C0B3C90AA
:106590000126052013F0BAFADFF8EC08007800288D
:1065A00040F0858000213D20FFF726F84FF47A70F7
:1065B000FFF722FB002800F095800520FFF704F884
:1065C00004AB05AADFF84C1E1AF018FC04980599D4
:1065D00051EA0020ADF8F4000620FEF7F5FF04AB09
:1065E00005AADFF8301E1AF009FC0498059951EA53
:1065F0000020ADF8F6000820FEF7E6FF04AB05AA80
:10660000DFF8101E1AF0FAFB0498059951EA0020F1
:10661000ADF8F8000A20FEF7D7FF04AB05AADFF8B3
:10662000F41D1AF0EBFB0498059951EA0020ADF82F
:10663000FA000B20FEF7C8FF04AB05AADFF8D41D53
:106640001AF0DCFB0498059951EA0020ADF8FC0033
:106650000C20FEF7B9FF04AB05AADFF8B81D1AF04D
:10666000CDFB0498059951EA0020ADF8FE001120F9
:10667000FEF7AAFF04AB05AADFF8981D1AF0BEFBCF
:106680000498059951EA0020ADF800011220FEF7A8
:106690009BFF04AB05AADFF87C1D1AF0AFFB049842
:1066A000059951EA0020ADF8020101271AE0052002
:1066B000ADF8F4000720ADF8F6000920ADF8F800B9
:1066C0000B20ADF8FA000F20ADF8FC001520ADF856
:1066D000FE004FF46960ADF8000140F2DD40ADF816
:1066E0000201012716EA0500C0B2384208D03C2258
:1066F00032A90A200EF0E4F9DFF8E4040021017069
:1067000039E4DFF884070078002823D10121012033
:10671000FEF772FFC820FFF76FFA00283FF42BAC9A
:10672000DFF8800B0078002814D001211720FEF735
:1067300063FF4FF47A70FFF75FFA002809D1DFF8A2
:1067400074040021017000220021DFF80C0E0EF00D
:106750002EFC10E4DFF864040078002800F02C869A
:10676000DFF8B40C0078002846D0DFF81C0700786A
:1067700000283DD101210220FEF73EFFDFF8DC0DAD
:106780000268DFF8DC1D06A819F046F906A8FFF735
:1067900037F84FF4FA70FFF72FFA00280ED1DFF820
:1067A00014040021017000220021DFF8B80D0EF062
:1067B000FEFBFFF7E0BB00BF25660000DFF89C0D85
:1067C0000068401CDFF8941D0860DFF8900D006839
:1067D000DFF8941D884203D1DFF8800D01210160AC
:1067E000DFF8780D02680221DFF8A40613F0FEFE40
:1067F000DFF8240C00210170DFF8700DD0F81900CB
:106800001790DFF8281C0860DFF8240C0068401C93
:10681000DFF81C1C0860DFF8180C0068DFF8481D62
:10682000884203D1DFF8080C01210160DFF8000C79
:1068300002680121DFF8580613F0D8FEDFF8F00BEC
:1068400000681890052013F061F9DFF83C06007825
:10685000002851D101211020FEF7CEFED2A106A8BA
:1068600019F0DAF806A8FEF7CBFFDFF8040D037C79
:10687000DFF8FC0C027CDFF8FC1C06A819F0CCF851
:1068800006A8FEF7BDFF00208DF8180006A8FEF749
:10689000B7FF06A8FEF7B4FFC4A106A819F0BCF81C
:1068A00006A8FEF7ADFF189AA6A106A819F0B4F83D
:1068B00006A8FEF7A5FF4FF47A70FFF79DF90028B0
:1068C0000AD1BC480021017000220021DFF8A80C89
:1068D0000EF06DFBFFF74FBB0520FEF775FE29ABF1
:1068E0002AAADFF8301B1AF089FA29982A9951EA66
:1068F0000020ADF8640006E0DFF8340B007810F0FB
:106900000F00ADF86400052013F000F9DFF87805FA
:106910000078002840F0828000211C20FEF76CFEE9
:10692000DFF85C0C007800281AD1DFF8400C006812
:10693000149014A81BF098FB416901F26C7102914C
:106940000169491C0191C168009143688268DFF8C0
:10695000341C06A819F060F806A8FEF751FF07E0FE
:10696000DFF8241C06A819F057F806A8FEF748FF20
:106970004FF47A70FFF740F9052013F0C7F80021B3
:106980001C20FEF739FE1798149014A81BF06CFB1E
:10699000416901F26C7102910169491C0191C16860
:1069A000009143688268DFF8E41B06A819F034F808
:1069B00006A8FEF725FF4FF47A70FFF71DF90520B2
:1069C00013F0A4F8DFF8C80B0078002826D00021C7
:1069D0001C20FEF711FE1798DFF8941BB1F8411048
:1069E0003C2202FB0100149014A81BF03DFB4169FE
:1069F00001F26C7102910169491C0191C168009119
:106A000043688268DFF88C1B06A819F005F806A811
:106A1000FEF7F6FE4FF47A70FFF7EEF8052013F05C
:106A200075F8DFF864040078002863D1DFF83C0BC8
:106A3000007900285ED000211120FEF7DDFDDFF88F
:106A4000841E06A818F0E8FF06A8FEF7D9FE00206D
:106A50008DF8180006A8FEF7D3FEDFF8100BB0F88B
:106A60000520C1A106A818F0D7FF06A8FEF7C8FEAA
:106A7000DFF8F80A0279BCA106A818F0CDFF06A835
:106A8000FEF7BEFEB9A106A818F0C6FF06A8FEF7DD
:106A9000B7FE46A106A818F0BFFF06A8FEF7B0FE95
:106AA00000208DF8180006A8FEF7AAFE4FF47A70B1
:106AB000FFF7A2F800281DD13E48002101700022F6
:106AC0000021DFF8400E0EF072FA01211720FEF7C8
:106AD00093FD4FF47A70FFF78FF8002808D13548FE
:106AE0000021017000220021DFF86C0A0EF05FFA2D
:106AF000FFF741BA052013F009F8E34800780028B1
:106B000040F0B480DFF8640AB0F80700002800F015
:106B1000AD8000211120FEF76FFDDFF8640A0078D8
:106B2000002811D1DFF8742ADFF8741A06A818F0CB
:106B300073FF06A8FEF764FE10E000BF802102008C
:106B400088210200256C6400DFF8502ADFF8541A0F
:106B500006A818F061FF06A8FEF752FE00208DF887
:106B6000180006A8FEF74CFEDFF8000AB0F8072070
:106B7000DFF8181406A818F04FFF06A8FEF740FE2D
:106B8000C4A106A818F048FF06A8FEF739FEDFF8F2
:106B9000F009007800282FD1BFA106A818F03CFF0B
:106BA00006A8FEF72DFE2EE0303000003031000048
:106BB0000D6B0010CB0A0010056B0010006B00106D
:106BC000016B0010026B0010066B0010CC6A001005
:106BD000086B0010096B00100A6B00100B6B0010A3
:106BE0000C6B0010046B0010036B0010206A001087
:106BF000246A001014040200A8A106A818F00CFFD3
:106C000006A8FEF7FDFDA6A106A818F005FF06A838
:106C1000FEF7F6FD00208DF8180006A8FEF7F0FD3F
:106C20004FF47A70FEF7E8FF00281FD1DFF8A00DBF
:106C30000021017000220021DFF8C80C0EF0B7F926
:106C400001211720FEF7D8FC4FF47A70FEF7D4FF2D
:106C5000002809D1DFF8780D002101700022002101
:106C6000DFF8F4080EF0A3F9FFF785B9052012F05C
:106C70004DFF8548007800280ED100211C20FEF72A
:106C8000BBFCC4A106A818F0C7FE06A8FEF7B8FD15
:106C90004FF47A70FEF7B0FF052012F037FF7A4804
:106CA0000078002832D100211220FEF7A5FC4FF415
:106CB0007A70FEF7A1FF00281FD1DFF8140D002124
:106CC000017000220021DFF83C0E0EF070F9012166
:106CD0001720FEF791FC4FF47A70FEF78DFF002825
:106CE00009D1DFF8EC0C0021017000220021DFF84F
:106CF00068080EF05CF9FFF73EB90520FEF764FC6A
:106D00000DF16602A4A11AF079F811E00DF1660503
:106D1000DFF858080079DFF85418B1F80510DFF8EB
:106D20004C28B2F8072001FB002018F08DFE2860E7
:106D3000052012F0EBFE54480078002840F07E80D9
:106D400000211320FEF758FCDFF8480E00780028D9
:106D50000ED092A106A818F05FFE06A8FEF750FD1F
:106D60000DE000BF841F020025640000F1F3F20073
:106D70008BA106A818F050FE06A8FEF741FDDFF82B
:106D8000EC07D0F8152087A106A818F045FE06A844
:106D9000FEF736FDDFF8FC0D007800280AD0DFF89A
:106DA000F81D06A818F038FE06A8FEF729FD09E030
:106DB00000C00040DFF8E41D06A818F02DFE06A86C
:106DC000FEF71EFD4FF47A70FEF716FF00281FD164
:106DD000DFF8FC0B0021017000220021DFF8C00D5C
:106DE0000EF0E5F801211720FEF706FC4FF47A704B
:106DF000FEF702FF002809D1DFF8D40B0021017053
:106E000000220021DFF850070EF0D1F8FFF7B3B8E9
:106E10000520FEF7D9FB0DF16A025FA119F0EEFF24
:106E20000620FEF7D1FB0DF16E025BA119F0E6FF23
:106E300055E000BF98210200540002000DF16A00E5
:106E4000002101600DF16E00002101600DF166006E
:106E50000568DFF81807D0F8150018F0FFFD0100ED
:106E6000280019F02DFC1DD20DF1660005680DF10A
:106E70006E06DFF8F806D0F8150018F0EFFD2900CF
:106E800016F0DEFA30602AE0FF6A0010841C02006F
:106E90000040024031000000E8EDF200F8F2F0009E
:106EA000303100000DF166000568DFF8C006D0F84B
:106EB000150018F0D3FD290019F002FC0FD20DF1D6
:106EC000660005680DF16A06DFF8A006D0F8150027
:106ED00018F0C4FD0100280016F0B2FA3060052059
:106EE00012F014FE0DF16A01086800211AF0EAF9A7
:106EF00062D0DFF8CC0D007800280FD100211C20D3
:106F0000FEF77AFBDFF8BC1D06A818F085FD06A881
:106F1000FEF776FC4FF47A70FEF76EFE052012F055
:106F2000F5FDDFF89C0D007800280ED100211C2013
:106F3000FEF762FB17A106A818F06EFD06A8FEF783
:106F40005FFC4FF47A70FEF757FE052012F0DEFD6D
:106F5000DFF86C0D007800282AD101211720FEF7F8
:106F60004BFB4FF47A70FEF747FE002820D1DFF884
:106F7000600A0021017000220021DFF8DC050EF01C
:106F800016F8FEF7F8BF00BFDDEEAA55902102000B
:106F900038040200200000002566000030320000A6
:106FA00030300000256C6400B41F0200076B001035
:106FB000052012F0ABFDEBE10DF16E010868002138
:106FC0001AF080F91CD0DFF84C0D0078002817D19A
:106FD000DFF8EC0C007800280FD100211C20FEF710
:106FE0000BFBDFF8341D06A818F016FD06A8FEF707
:106FF00007FC4FF47A70FEF7FFFD052012F086FDC6
:10700000DFF88C05007800281BD0DFF8B40C00787E
:10701000002813D100211C20FEF7EEFADFF85005FE
:10702000B0F84120DFF8A01C06A818F0F5FC06A86F
:10703000FEF7E6FB4FF47A70FEF7DEFD052012F056
:1070400065FDDFF87C0C007800280ED100211C20A3
:10705000FEF7D2FA91A106A818F0DEFC06A8FEF70A
:10706000CFFB4FF47A70FEF7C7FD052012F04EFDFE
:10707000002517E0DFF8480C007800280FD1002128
:107080001C20FEF7B9FA159A85A106A818F0C4FCD1
:1070900006A8FEF7B5FB4FF47A70FEF7ADFD0520AC
:1070A00012F034FD6D1C2800C0B206280BD215A8C2
:1070B000009011AB0DF145022900C9B202200EF07B
:1070C00071FC0028D6D1DFF8F80B0078002811D128
:1070D000EDB2022D0ED300211C20FEF78DFA6FA118
:1070E00006A818F099FC06A8FEF78AFB4FF47A7000
:1070F000FEF782FD052012F009FD002526E000BF05
:10710000A81F020000FA51470000694500A09B44F7
:1071100080D1984700D8D6470060EA47DFF8A00B37
:10712000007800280FD100211C20FEF765FA159A7F
:107130005BA106A818F070FC06A8FEF761FB4FF4EF
:107140007A70FEF759FD052012F0E0FC6D1C280056
:10715000C0B206280BD215A8009011AB0DF1450264
:107160002900C9B205200EF01DFC0028D6D1DFF899
:10717000500B0078002811D1EDB2022D0ED3002162
:107180001C20FEF739FA45A106A818F045FC06A810
:10719000FEF736FB4FF47A70FEF72EFD052012F055
:1071A000B5FCDFF8AC0B0078002800F0BC80DFF8FD
:1071B000100B0078002826D100211A20FEF71CFAB7
:1071C00096A106A818F028FC06A8FEF719FB94A1C2
:1071D00006A818F021FC06A8FEF712FBD5A106A808
:1071E00018F01AFC06A8FEF70BFB8EA106A818F0F3
:1071F00013FC06A8FEF704FB8BA106A818F00CFCF4
:1072000006A8FEF7FDFAD948D0F819008DF8480015
:10721000D648D0F81900C0F307208DF84900D348AC
:10722000D0F81900C0F307408DF84A00CF48D0F8D5
:107230001900000E8DF84B000EF03DFD12AA12A9A8
:1072400017F010FBCA48057C18980EF047FD03059F
:107250001B0D9DF84B0003909DF84A0002909DF88D
:10726000490001909DF8480000902A00DFF87C1B3F
:1072700045A818F0D1FB0C2145A80EF055FD0200E1
:10728000DFF8801B48A818F0C7FBDFF87C1B06A8B6
:1072900018F0C2FB002512E000E0C444200000000A
:1072A00025730000CC0A001045A82A5CDFF8541BA7
:1072B00006A810EB4500001D18F0AEFB6D1C0E2D4E
:1072C000F2DBDFF8FC090078002812D106A8FEF7EF
:1072D00097FA40F6B830FEF78FFC002809D1DFF8A6
:1072E000F0060021017000220021DFF85C0B0DF098
:1072F0005EFE052012F00AFCDFF8C40900780028C1
:107300000ED100211C20FEF777F99CA106A818F0E9
:1073100083FB06A8FEF774FA4FF47A70FEF76CFC54
:10732000052012F0F3FBDFF898090078002828D137
:1073300000211420FEF760F940F6B830FEF75CFC3F
:1073400000281ED1DFF888060021017000220021EC
:10735000DFF84C0B0DF02BFE01211720FEF74CF946
:107360004FF47A70FEF748FC002808D1DFF8600679
:10737000002101700022002177480DF018FEFEF771
:10738000FABDDFF8200B01210170052012F0BEFBD1
:1073900000F0E6FDCDF872001A2217A907200DF0C3
:1073A0008FFB642012F0B2FBDFF8FC0A01210170B0
:1073B000DFF8F80A00210170DFF8F40A00780028ED
:1073C0003EF4D9AD1448007800284BD0DFF8F0081F
:1073D0000078002842D101210220FEF70DF95F4814
:1073E00002685F4906A818F017FB06A8FEF708FA1E
:1073F0004FF4FA70FEF700FC00281BD1DFF8D0052F
:10740000002101700022002156480DF0D0FDFEF74A
:10741000B2BD00BF9C1F0200F26A001034390000A8
:10742000303100004646000030320000286A00106B
:107430002C6A001049480068401C484908604748C9
:1074400000684949884202D144480121016043480B
:1074500002680221DFF85C0A13F0C8F8DFF8580A66
:1074600000210170DFF8540A00682190DFF8500A0B
:107470000068401CDFF8481A0860DFF8440A00681A
:107480003949884203D1DFF8380A01210160DFF869
:10749000300A02680121DFF81C0A13F0A7F8DFF8B0
:1074A000200A00682290052012F030FBDFF8100857
:1074B0000078002878D101211020FEF79DF81DA149
:1074C00006A818F0A9FA06A8FEF79AF92848037C3E
:1074D0002748027C274906A818F09EFA06A8FEF75E
:1074E0008FF900208DF8180006A8FEF789F906A884
:1074F000FEF786F9DCA106A818F08EFA06A8FEF7BA
:107500007FF9229A24A106A818F086FA06A8FEF7A9
:1075100077F94FF47A70FEF76FFB00280CD1DFF893
:10752000B004002101700022002113480DF03FFD3E
:10753000FEF721BD303000000520FEF745F803AB13
:1075400020AADFF8801919F059FC0398209951EA14
:107550000020ADF88C002EE0FC0A0200306A00101A
:1075600028180200B010020000CA9A3B9C64001068
:10757000F83D00103C1802001C0B02002000000027
:10758000FC6A00107C000200941C0200A4000200AF
:10759000CE0A0010CC000200256C6400A564001027
:1075A000C01F0200CC1F0200DFF81409007810F0A1
:1075B0000F00ADF88C00052012F0A8FADFF80007E4
:1075C0000078002813D100211C20FEF715F8DFF801
:1075D000F828CDA106A818F01FFA06A8FEF710F9A2
:1075E0004FF47A70FEF708FB052012F08FFA0520A1
:1075F00012F08CFADFF8C8060078002840F0D0803E
:1076000000211120FDF7F8FFDFF8C028DDA106A852
:1076100018F002FA06A8FEF7F3F800208DF818001B
:1076200006A8FEF7EDF8DFF894084268B6A106A8B0
:1076300018F0F2F906A8FEF7E3F8DFF880080289EF
:10764000B1A106A818F0E8F906A8FEF7D9F8DFF806
:107650008028CCA106A818F0DFF906A8FEF7D0F81C
:1076600081A106A818F0D8F906A8FEF7C9F80020ED
:107670008DF8180006A8FEF7C3F84FF47A70FEF7ED
:10768000BBFA00281CD1D248002101700022002141
:107690009C480DF08CFC01211720FDF7ADFF4FF445
:1076A0007A70FEF7A9FA002808D1C94800210170B4
:1076B00000220021DFF81C080DF079FCFEF75BBC0E
:1076C000DFF814080068DFF8F4174968DFF8EC27E2
:1076D00012895143884263D2DFF8E0074068DFF83F
:1076E000DC1709894843DFF8F0170968451A0021BB
:1076F0001120FDF781FFDFF8E41706A818F08CF9D8
:1077000006A8FEF77DF800208DF8180006A8FEF701
:1077100077F82A007CA106A818F07EF906A8FEF7E3
:107720006FF8ACA106A818F077F906A8FEF768F87C
:10773000A9A106A818F070F906A8FEF761F84AA1F9
:1077400006A818F069F906A8FEF75AF800208DF887
:10775000180006A8FEF754F84FF47A70FEF74CFABA
:1077600000281DD19A480021017000220021DFF875
:1077700070070DF01CFC01211720FDF73DFF4FF4B1
:107780007A70FEF739FA002808D19148002101707B
:1077900000220021DFF83C070DF009FCFEF7EBBBEF
:1077A000052012F0B3F9DFF81805007800280ED193
:1077B00000211C20FDF720FF88A106A818F02CF955
:1077C00006A8FEF71DF84FF47A70FEF715FA0520AB
:1077D00012F09CF9DFF8E804007800282FD100218E
:1077E0001220FDF709FF4FF47A70FEF705FA002822
:1077F0001CD177480021017000220021C1480DF002
:10780000D6FB01211720FDF7F7FE4FF47A70FEF743
:10781000F3F9002808D16E480021017000220021F0
:10782000DFF8B0060DF0C3FBFEF7A5BB0520FDF7A2
:10783000CBFE0DF18E02B4A119F0E0FA22E00DF1B9
:107840008E05DFF878064068DFF87016098948432E
:1078500018F004F92860DFF880060068DFF85C168D
